:1000000019C300000C9447100C946E103BC3000001
:1000100039C3000037C3000077C3000033C30000BA
:1000200031C300002FC300002DC300002BC300000C
:1000300029C3000027C3000025C3000023C300001C
:100040000C94A1101FC300000C94360D0C94680D85
:1000500019C3000017C3000015C3000013C300003C
:100060000C94E0200FC30000090AA909140A140A1D
:10007000140A140ACD09140A9509140A140A140A58
:10008000140A140A140AE309140A140A090A140ABD
:10009000140AF509737461727475702E2E2E004F58
:1000A00070656E456E657267794D6F6E69746F72BB
:1000B0002E6F726700656D6F6E506920560020626A
:1000C0000A00202D3E2000290028002000200020CA
:1000D000004F4B0020282D30290020004F4B2000DE
:1000E000204E6574776F726B20003931354D687A18
:1000F000003836384D687A003433334D687A002042
:100100004672657120004E6F6465200052464D3680
:1001100039435720496E69743A2000426F6F746901
:100120006E672E2E2E005261737062657272792096
:10013000506900445331384232302054656D7000AC
:1001400044657465637465643A200030204453311B
:1001500038423230206465746563746564004453CA
:1001600031384232302054656D70004465746563E7
:100170007465643A200020445331384232300044E0
:100180006574656374200043543200435420322068
:100190006465746563740043543120004354203116
:1001A00020646574656374004E6F204354277300A8
:1001B0006E6F204354206465746563746564004405
:1001C0006574656374656420005600417373756DD2
:1001D000696E672056524D533A2000555341206DA9
:1001E0006F6465004143204E4F542064657465631D
:1001F000746564202D204170706172656E742050AA
:100200006F7765722063616C6320656E61626C65F7
:1002100064004143204E4F54204465746563746507
:10022000640050686173652053686966743A200001
:10023000560056726D733A20005663616C3A200086
:10024000555341206D6F6465203E20004143205787
:10025000617665204465746563746564202D205261
:1002600065616C20506F7765722063616C632065F7
:100270006E61626C6564004143205761766520447D
:100280006574656374656400560056524D53204191
:1002900043207E00435420322043616C3A200043C7
:1002A0005420312043616C3A20004F70656E456EDA
:1002B000657267794D6F6E00656D6F6E506920567F
:1002C000002000205553412000204D487A00204056
:1002D000200020670020690020005D005B656D6FD5
:1002E0006E50692E000A417661696C61626C65200E
:1002F000636F6D6D616E64733A0A20203C6E6E3ED2
:10030000206920202020202D20736574206E6F64CA
:10031000652049447320287374616E64617264209F
:100320006E6F6465206964732061726520312E2EC2
:100330003330290A20203C6E3E20622020202020DD
:10034000202D20736574204D487A2062616E6420F0
:100350002834203D203433332C2038203D203836BB
:10036000382C2039203D20393135290A20203C6E97
:100370006E6E3E2067202020202D20736574206E35
:100380006574776F726B2067726F757020285246A4
:100390004D3132206F6E6C7920616C6C6F777320F9
:1003A0003231322C2030203D20616E79290A202004
:1003B0003C6E3E20632020202020202D2073657479
:1003C00020636F6C6C656374206D6F6465202861B9
:1003D0006476616E6365642C206E6F726D616C6C07
:1003E000792030290A20202E2E2E2C3C6E6E3E20A5
:1003F00061202D2073656E642064617461207061DA
:10040000636B657420746F206E6F6465203C6E6E44
:100410003E2C20726571756573742061636B0A20D0
:10042000202E2E2E2C3C6E6E3E2073202D207365C8
:100430006E642064617461207061636B6574207404
:100440006F206E6F6465203C6E6E3E2C206E6F20B8
:1004500061636B0A20202E2E2E2C3C6E3E207020D5
:10046000202D2053657420414320416461707465E0
:1004700072205663616C203170203D20554B2C203A
:100480003270203D205553410A2020762020202024
:100490002020202020202D2053686F77206669724D
:1004A0006D776172652076657273696F6E0A000000
:1004B0000000080002010000030407000000000023
:1004C000000000010204081020408001020408100E
:1004D000200102040810200404040404040404029B
:1004E00002020202020303030303030000000023CD
:1004F000002600290000000000250028002B000035
:10050000000000240027002A00005EBCE2613FDDFD
:1005100083C29C7E20A3FD1F419DC3217FFCA2407E
:100520001E5F01E3BD3E6082DC237D9FC1421CFE55
:10053000A0E1BF5D0380DE3C62BEE0025CDF816360
:100540003D7C22C09E1D43A1FF4618FAA427799B3B
:10055000C584DA3866E5BB5907DB856739BAE40636
:10056000581947A5FB7826C49A653BD987045AB821
:10057000E6A7F91B45C6987A24F8A6441A99C72518
:100580007B3A6486D85B05E7B98CD2306EEDB35107
:100590000F4E10F2AC2F7193CD114FADF3702ECCE6
:1005A00092D38D6F31B2EC0E50AFF1134DCE9072ED
:1005B0002C6D33D18F0C52B0EE326C8ED0530DEFC8
:1005C000B1F0AE4C1291CF2D73CA947628ABF517CB
:1005D000490856B4EA6937D58B5709EBB536688AAE
:1005E000D495CB2977F4AA4816E9B7550B88D634A9
:1005F0006A2B7597C94A14F6A8742AC896154BA990
:10060000F7B6E80A54D7896B3501040200030204E7
:100610008A050506C30B2019421E2C25802E902F1B
:10062000AA302D370038003C8F3D106F2000DA08CB
:10063000960D3F2011241FBECFEFD8E0DEBFCDBF07
:1006400011E0A0E0B1E0E4E2FAE402C005900D920E
:10065000AE35B107D9F724E0AEE5B1E001C01D9297
:10066000A73BB207E1F716E0C4E3D6E004C0229747
:10067000FE010E947122CE32D107C9F70E94961066
:100680000C941025BDCC0F931F930E94EB1000918A
:10069000AE011091AF012091B0013091B101601B0A
:1006A000710B820B930B6F3671058105910528F054
:1006B0008091B6018F5F8093B6010E94EB1060932A
:1006C000AE017093AF018093B0019093B1011F917F
:1006D0000F9108951F93CF93DF93EC01FE011491C6
:1006E000112371F01A3029F46DE088EF92E00E9436
:1006F0003A0E612F88EF92E00E943A0E2196EECFDB
:10070000DF91CF911F9108951F920F920FB60F9214
:1007100011242F933F934F935F936F937F938F9306
:100720009F93AF93BF93EF93FF930E94E91BFF91B9
:10073000EF91BF91AF919F918F917F916F915F9159
:100740004F913F912F910F900FBE0F901F901895D2
:1007500061E089E00E94731262E370E080E090E063
:100760000E941A1160E089E00C94731261E089E044
:100770000E94731269E170E080E090E00E941A111B
:1007800060E089E00E94731261E089E00E947312C8
:1007900069E170E080E090E00E941A1160E089E079
:1007A0000C94731284E392E00E94821F84E392E02F
:1007B0000E94A11E68EB72E084E392E00E94170E93
:1007C00022E030E043E353E363E370E484E392E048
:1007D0000E94031041E060E084E392E00E94F71E73
:1007E0006AEA72E084E392E00C94170E84E392E0EC
:1007F0000E94EB1E6FE972E088EF92E00E94170EF4
:1008000022E030E04DEC5CEC65EB72E488EF92E0C6
:100810000E94041064E972E088EF92E00E94170ED3
:1008200022E030E04DEC5CEC65EB72E488EF92E0A6
:100830000E9404106AE872E088EF92E00E94170EAE
:100840004091C1015091C2016091C3017091C401F6
:1008500022E030E088EF92E00E94031068E872E046
:1008600088EF92E00E94440E8091BE01882309F433
:100870004FC067E772E084E392E00E94170E6CE4D9
:1008800072E088EF92E00E94440E80913302882348
:1008900031F060E472E088EF92E00E94170E69E3A5
:1008A00072E088EF92E00E94170E4091C5015091CE
:1008B000C6016091C7017091C80122E030E088EF65
:1008C00092E00E94041062E372E088EF92E00E94DE
:1008D000170E4AE050E06091BB0188EF92E00E9461
:1008E000120F60E372E088EF92E00E94440E62E231
:1008F00072E088EF92E00E94170E22E030E04AE9B1
:1009000059E969ED7FE388EF92E00E9404102AC064
:1009100062E172E084E392E00E94170E64EE71E0FF
:1009200088EF92E00E94440E80913302882331F0D8
:100930006BED71E088EF92E00E94440E6BEC71E089
:1009400088EF92E00E94170E4AE050E06091BB01F0
:1009500088EF92E00E94120F69EC71E088EF92E05C
:100960000E94440E41E060E084E392E00E94F71EA2
:100970006FEB71E084E392E00E94170E8091BC015E
:10098000811109C060EB71E088EF92E00E94440E93
:1009900068EA71E01CC08091C001882361F06CE9B5
:1009A00071E088EF92E00E94440E67E971E084E311
:1009B00092E00E94170E8091BF01882361F06BE8DE
:1009C00071E088EF92E00E94440E67E871E084E3F2
:1009D00092E00E94170E60ED77E080E090E00E94C8
:1009E0001A118091BD01882379F16FE771E088EFDA
:1009F00092E00E94170E4AE050E06091E10188EF1A
:100A000092E00E94120F66E771E088EF92E00E9488
:100A1000440E84E392E00E94EB1E6BE671E084E3F7
:100A200092E00E94170E4AE050E06091E10184E3F9
:100A300092E00E94120F41E060E084E392E00E94A5
:100A4000F71E6EE571E020C06BE471E088EF92E084
:100A50000E94440E84E392E00E94EB1E60E471E089
:100A600084E392E00E94170E4AE050E06091E101B9
:100A700084E392E00E94120F41E060E084E392E0A0
:100A80000E94F71E63E371E084E392E00E94170E78
:100A900060ED77E080E090E00E941A1184E392E03C
:100AA0000E94EB1E66E271E084E392E00E94170E62
:100AB00041E060E084E392E00E94F71E6BE171E0A8
:100AC00084E392E00E94170E80910A01882309F4C2
:100AD0004BC06CE071E088EF92E00E94440E66E04B
:100AE00071E088EF92E00E94170E4AE050E06091BA
:100AF000080188EF92E00E94120F6FEF70E088EF1C
:100B000092E00E94170E80910901813031F468EF64
:100B100070E088EF92E00E94170E80910901823008
:100B200031F461EF70E088EF92E00E94170E80913F
:100B30000901833031F46AEE70E088EF92E00E94A0
:100B4000170E60EE70E088EF92E00E94170E609141
:100B50000601709107014AE050E088EF92E00E94A0
:100B6000F00E85EE92E0B6DD64E170E080E090E0AA
:100B70000C941A11EF92FF920F931F93CF93DF9370
:100B8000CDB7DEB768970FB6F894DEBF0FBECDBF06
:100B900088E1E9ECF1E0DE01119601900D928A9571
:100BA000E1F76CED70E088EF92E00E94170E4AE0EA
:100BB00050E06091080188EF92E00E94120F8E01D0
:100BC0000F5F1F4F7E0189E1E80EF11C6AED70E0B6
:100BD00088EF92E00E94170EF80161918F014AE0C0
:100BE00050E088EF92E00E94120F0E151F0571F77A
:100BF00064ED70E088EF92E00E94170E88EF92E0BB
:100C00000E94410E6AE070E080E090E068960FB6C6
:100C1000F894DEBF0FBECDBFDF91CF911F910F9132
:100C2000FF90EF900C941A11CF93DF936AE070E07D
:100C300080E090E00E941A1120E436E04091060125
:100C400060910901809108010E94D91DCAE0D0E09D
:100C5000D093CA01C093C90148E169EC71E080E01A
:100C60000E94401E64E670E080E090E00E941A114D
:100C7000219770F782E00E945C1E1092CA011092C8
:100C8000C901DF91CF910895FF920F931F93CF93E6
:100C9000DF930E942D1E882309F45BC0F090AF0300
:100CA0008091F5039091F603892B09F053C061ED13
:100CB00070E088EF92E0BBD76FEC70E088EF92E0D5
:100CC000B6D76091AE036F7170E04AE050E088EFF4
:100CD00092E00E94E90E6DEC70E088EF92E0A7D7F9
:100CE00000EB13E0E8018C2F801B8F1570F46991E5
:100CF00070E04AE050E088EF92E00E94180F6BEC41
:100D000070E088EF92E093D7EECF69EC70E088EF67
:100D100092E08DD76091A30370E07595679571950A
:100D2000619571094AE050E088EF92E00E94E90E77
:100D300067EC70E088EF92E07AD788EF92E0A1D775
:100D40008091AE0385FF15C08091AE0387FF04C07C
:100D500010C013C080E011C08091AE0386FD0BC0AF
:100D60008091AE038F71806C40E060E070E00E9483
:100D70003F1E81E002C080E8F7CFDF91CF911F9145
:100D80000F91FF900895809160018823C1F10E9426
:100D90003E1E811101C0089561E089E00E94731236
:100DA00068EC70E080E090E00E941A1160E089E059
:100DB0000E94731282EC90E08DDC6091620170E021
:100DC0004AE050E088EF92E00E94180F8EEB90E02E
:100DD00081DC80916001813681F080E09091610139
:100DE000992311F09064892B4091620164E671E0CF
:100DF0000E943F1E10926001089580E2EFCF089597
:100E0000BF92CF92DF92EF92FF920F931F93CF93F7
:100E1000DF93B82EEB0100E010E0C12CD12C76015D
:100E20000C171D077CF48B2D0E949711DC01B2502A
:100E30009D010E947522C60ED71EE81EF91E0F5F87
:100E40001F4FEECFC701B6010E949C236B017C01AE
:100E5000BE01882777FD8095982F0E949E239B01D5
:100E6000AC01C701B6010E940323DF91CF911F910E
:100E70000F91FF90EF90DF90CF90BF900C94B9242A
:100E800061E089E00E943A1261E089E00E947312F9
:100E900062E088E00E943A1261E085E00E943A1226
:100EA00060E085E00E94731262E083E00E943A12E3
:100EB00026E040E056E960E070E088EF92E074D50B
:100EC00065EB70E088EF92E0B2D622E030E043E3D9
:100ED00053E363E370E488EF92E00E9404106FE94B
:100EE00070E088EF92E0D0D664E970E088EF92E09D
:100EF000CBC681E00E949711181619064CF481E0C8
:100F00008093C0018091BC018F5F8093BC0102C0BF
:100F10001092C00182E00E949711181619064CF435
:100F200081E08093BF018091BC018F5F8093BC0101
:100F300002C01092BF0160E089E00E94731261E07C
:100F40008EE00E943A126FEF70E08EE00E94B411C2
:100F500060E070E08EE00E94B41160E08EE00E94DC
:100F60003A1264EF71E080E090E00E941A1164EFA1
:100F700076E080E090E044DF22E538EB4EE55FE389
:100F80000E9452246093C1017093C2018093C301F7
:100F90009093C40120E030E044EB52E40E944E24E0
:100FA000181624F481E08093BE0108951092BE01CA
:100FB0000895CF9382E192E00E94011A82E192E0CB
:100FC0000E94C5188093E101C0E08091E101C8173B
:100FD00068F488E0C89FB00111246E517E4F4C2FF9
:100FE00082E192E00E94D618811124C0C0E0809175
:100FF000E101C81770F488E0C89FB00111246E5158
:101000007E4F20E04CE082E192E00E94581ACF5FD0
:10101000EECF811103C01092BD0108C091E0909302
:10102000BD01873018F086E08093E1018091E101F5
:10103000CF910895CF5FC9CFEF92FF920F931F9387
:1010400064E670E080E090E00E941A118091330223
:10105000882371F080E090E0A2E0B3E48093C501C2
:101060009093C601A093C701B093C8018EE611C04A
:1010700080910B0190910C01A0910D01B0910E0196
:101080008093C5019093C601A093C701B093C80196
:1010900086EE8093BB01F4DE80910A018111C4DDEC
:1010A00088DF80DB6CED75E080E090E00E941A1133
:1010B00020DF9CDB42E050E063E473E081E0B5D7E1
:1010C0001092DD011092DE011092DF011092E0011A
:1010D0002DEC3CEC45EB52E461E070E08CE992E0F1
:1010E0000E94ED122DEC3CEC45EB52E462E070E026
:1010F00080E492E00E94ED128091BE01882311F1FC
:101100002091C5013091C6014091C7015091C8019D
:101110001AE9E12E19E9F12E09ED1FE360E070E014
:101120008CE992E00E94D1122091C5013091C60154
:101130004091C7015091C80160E070E080E492E006
:101140000E94D1121F910F91FF90EF900895CF92BE
:10115000DF92EF92FF9298E0899FB00111246E51C7
:101160007E4F82E192E00E94E71B6B017C0120E050
:1011700030E04AEF52E40E94FF2287FF16C020E0D1
:1011800030E04CE552ECC701B6010E944E2418161F
:1011900064F420E030E040E251E4C701B6010E946F
:1011A00052240E946B23CB0100C0FF90EF90DF9090
:1011B000CF90089522E040E167E284E392E00E944C
:1011C0007A1E64E085E292E00E94F01765E272E028
:1011D00082E192E00C94B618CF92DF92EF92FF92E8
:1011E0000F931F93F8D76093B2017093B30180936C
:1011F000B4019093B50180913302882371F080E0AF
:1012000090E0A2E0B3E48093C5019093C601A0935F
:10121000C701B093C8018EE611C080910B01909177
:101220000C01A0910D01B0910E018093C501909326
:10123000C601A093C701B093C80186EE8093BB019D
:101240002091C5013091C6014091C7015091C8015C
:101250001AE9E12E19E9F12E09ED1FE360E070E0D3
:101260008CE992E00E94D1122091C5013091C60113
:101270004091C7015091C80160E070E080E492E0C5
:101280000E94D11288E00E94A812892B11F461E01B
:1012900001C060E085E00E94731288EF92E0A4D262
:1012A000892B09F42CC188EF92E0B7D290ED980F0A
:1012B0009A30A8F440915E0150915F019AE0949FAA
:1012C0009001959F300D112420533109280F311DB5
:1012D00087FD3A9530935F0120935E010FC18C32F8
:1012E00081F4E0916301E63408F004C181E08E0FDF
:1012F00080936301F0E0EC59FE4F80915E018083A2
:10130000F9C081320CF4F4C0482F552747FD5095A1
:10131000652F752FFA01E156F109E631F10508F064
:1013200083C0EC5CFF4F0C946F2280915E01909122
:101330005F01009771F08093080120910A01222338
:1013400009F475C020E436E040910601609109017E
:1013500037C080915E01843031F0883031F08930BF
:1013600031F463E005C061E003C062E001C060E009
:10137000862F90E090935F0180935E01892B09F4A2
:1013800056C06093090180910A01882309F44FC077
:1013900020E436E04091060111C040915E01809149
:1013A0005F01409306018093070180910A01882321
:1013B00009F43DC020E436E0609109018091080104
:1013C0000E94D91D34C080915E0190915F01009709
:1013D00071F18130910519F41092330228C00297FF
:1013E00031F581E08093330222C06CED72E088EF2A
:1013F00092E01DD422E030E043E353E363E370E482
:1014000088EF92E000D66AED72E088EF92E00FD4A8
:101410000EC080936001809163018093620180918E
:101420005E018093610103C085EE92E053D9809103
:101430000A01882309F44AC068ED72E088EF92E05F
:10144000F6D3609108016F71605C88EF92E012D46E
:1014500065ED72E088EF92E0EAD3609108016F7168
:1014600070E04AE050E088EF92E0B3D462ED72E0C1
:1014700088EF92E0DCD360910601709107014AE0A9
:1014800050E088EF92E0A5D46EEC72E088EF92E035
:10149000CED380910901813039F0823041F0833020
:1014A00049F463E973E008C061EB71E005C064E6EC
:1014B00073E002C060E070E04AE050E088EF92E044
:1014C00088D469EC72E088EF92E0B1D363EC72E00B
:1014D00088EF92E0ACD36091330270E04AE050E0D4
:1014E00088EF92E076D461EC72E088EF92E0CCD3A2
:1014F0001092630110925F0110925E0137D98091C2
:101500000A01882339F1C0DB811130D93CDC80919C
:10151000B2019091B301A091B401B091B501409195
:10152000AA015091AB016091AC017091AD01841B97
:10153000950BA60BB70B81369A4EAF4FBF4F50F0AD
:1015400020E436E040910601609109018091080194
:101550000E94D91D8091B2019091B301A091B40174
:10156000B091B5014091B7015091B8016091B901B6
:101570007091BA01841B950BA60BB70B8938934168
:10158000A105B10508F429C1E3D89091BE0180916D
:10159000C001992371F1882309F448C040ED57E058
:1015A00064E170E08CE992E00E94231360919C0258
:1015B00070919D0280919E0290919F020E946B23E8
:1015C0007093CA016093C90120E030E048EC52E416
:1015D0006091A8027091A9028091AA029091AB0239
:1015E0000E9452240E946B237093D0016093CF011C
:1015F0001DC08823D9F068EC75E08CE992E00E9468
:10160000EC156B017C016091BB0170E080E090E023
:101610000E949E239B01AC01C701B6010E94522487
:101620000E946B237093CA016093C9019091BE011F
:101630008091BF01992369F1882309F447C040EDE7
:1016400057E064E170E080E492E0FDD760914002F1
:101650007091410280914202909143020E946B235B
:101660007093CC016093CB0120E030E048EC52E471
:1016700060914C0270914D0280914E0290914F0208
:101680000E9452240E946B237093D0016093CF017B
:101690001DC08823D9F068EC75E080E492E00E94D8
:1016A000EC156B017C016091BB0170E080E090E083
:1016B0000E949E239B01AC01C701B6010E945224E7
:1016C0000E946B237093CC016093CB018091C90180
:1016D0009091CA012091CB013091CC01820F931FD0
:1016E0009093CE018093CD019091BE018091BC0179
:1016F00091110DC0882341F18091BB0124E6829FA6
:10170000C00111249093D0018093CF011DC081119D
:101710001BC040ED57E064E170E08CE992E093D7A4
:1017200020E030E048EC52E46091A8027091A902F8
:101730008091AA029091AB020E9452240E946B23D6
:101740007093D0016093CF018091BD0181111FC0C2
:101750008091B601882381F1F8942091B60180919F
:10176000DD019091DE01A091DF01B091E001820FD7
:10177000911DA11DB11D8093DD019093DE01A09309
:10178000DF01B093E0011092B601789415C082E1B8
:1017900092E00E945F1BF12C8091E101F816C0F6E7
:1017A0008F2DD5DCEF2DF0E0EE0FFF1FEF52FE4F37
:1017B00091838083F394F0CFDDD98091B201909131
:1017C000B301A091B401B091B5018093B70190939A
:1017D000B801A093B901B093BA011F910F91FF9086
:1017E000EF90DF90CF900895FC01818D228D90E0E5
:1017F000805C9F4F821B91098F7399270895FC018C
:10180000918D828D981731F0828DE80FF11D858DB5
:1018100090E008958FEF9FEF0895FC01918D828DE8
:10182000981761F0828DDF01A80FB11D5D968C9134
:10183000928D9F5F9F73928F90E008958FEF9FEF3F
:1018400008958DE89DE0892B41F080E090E0892BA0
:1018500021F063D181110C9400000895FC01848D66
:10186000DF01A80FB11DA35ABF4F2C91848D90E0CA
:1018700001968F739927848FA689B7892C93A089A5
:10188000B1898C9180648C93938D848D981306C05C
:101890000288F389E02D80818F7D80830895CF9326
:1018A000DF93EC01888D8823C1F0EA89FB89808170
:1018B00085FD05C0A889B9898C9186FD0EC00FB63B
:1018C00007FCF5CF808185FFF2CFA889B9898C917B
:1018D00085FFEDCFCE01C2DFE8CFDF91CF91089534
:1018E000CF92DF92FF920F931F93CF93DF931F92BC
:1018F000CDB7DEB76C0181E0D60158968C9358972E
:101900005B969C915B975C968C915C97981307C053
:101910005096ED91FC915197808185FD2DC0F60187
:10192000038D10E00F5F1F4F0F731127F02EF6018C
:10193000848DF81210C00FB607FCF9CFD60150966F
:10194000ED91FC915197808185FFF1CFC6016983AC
:1019500085DF6981ECCF838DE80FF11DE35AFF4FDE
:101960006083D6015B960C935B975296ED91FC9148
:101970005397808180620CC0D6015696ED91FC9100
:10198000579760835096ED91FC91519780818064C8
:10199000808381E090E00F90DF91CF911F910F91B4
:1019A000FF90DF90CF900895BF92CF92DF92EF9299
:1019B000FF92CF93DF93EC016A017B01B22EE8899D
:1019C000F98982E08083411581EE58076105710530
:1019D000A1F060E079E08DE390E0A70196010E941C
:1019E00031222150310941095109569547953795C2
:1019F0002795211580E1380798F0E889F989108248
:101A000060E874E88EE190E0A70196010E9431221F
:101A10002150310941095109569547953795279528
:101A2000EC85FD853083EE85FF852083188EEC895B
:101A3000FD89B082EA89FB89808180618083EA899F
:101A4000FB89808188608083EA89FB898081806846
:101A50008083EA89FB8980818F7D8083DF91CF91AC
:101A6000FF90EF90DF90CF90BF9008951F920F925C
:101A70000FB60F9211242F938F939F93EF93FF93A1
:101A8000E0910803F09109038081E0910E03F09149
:101A90000F0382FD12C09081809111038F5F8F73BD
:101AA00020911203821751F0E0911103F0E0E85009
:101AB000FD4F958F8093110301C08081FF91EF91BD
:101AC0009F918F912F910F900FBE0F901F9018959F
:101AD0001F920F920FB60F9211242F933F934F93A3
:101AE0005F936F937F938F939F93AF93BF93EF9386
:101AF000FF9388EF92E0B2DEFF91EF91BF91AF913B
:101B00009F918F917F916F915F914F913F912F9115
:101B10000F900FBE0F901F90189588EF92E064DE33
:101B200021E0892B09F420E0822F08951092FB0216
:101B30001092FA0288EE93E0A0E0B0E08093FC02FD
:101B40009093FD02A093FE02B093FF0280E291E029
:101B50009093F9028093F80285EC90E0909305034E
:101B60008093040384EC90E0909307038093060332
:101B700080EC90E0909309038093080381EC90E05F
:101B800090930B0380930A0382EC90E090930D03F3
:101B900080930C0386EC90E090930F0380930E03E8
:101BA0001092110310921203109213031092140357
:101BB0000895CF92DF92EF92FF920F931F93CF93EE
:101BC000DF937C016A01EB0100E010E00C151D05BC
:101BD00071F06991D701ED91FC910190F081E02DB8
:101BE000C7010995892B19F00F5F1F4FEFCFC8016F
:101BF000DF91CF911F910F91FF90EF90DF90CF90E9
:101C000008956115710581F0DB010D900020E9F761
:101C1000AD0141505109461B570BDC01ED91FC9180
:101C20000280F381E02D099480E090E00895EF9226
:101C3000FF920F931F93CF93DF938C017B01C0E042
:101C4000D0E0F701EC0FFD1F6491662359F0F80115
:101C5000A081B181ED91FC91C8010995892B11F00A
:101C60002196EFCFCE01DF91CF911F910F91FF9081
:101C7000EF900895DC01ED91FC910190F081E02D51
:101C800009946CE271E0BDCF0F931F93CF93DF9364
:101C9000EC01CDDF8C01CE01F4DF800F911FDF91CD
:101CA000CF911F910F9108958F929F92AF92BF9203
:101CB000DF92EF92FF920F931F93CF93DF93CDB7F5
:101CC000DEB7A1970FB6F894DEBF0FBECDBF7C0183
:101CD000F42FD52ECB0119A2223008F42AE08E0170
:101CE0000F5D1F4F822E912CA12CB12C6F2F7D2DBB
:101CF000A50194010E943122F22FD32ECA01015076
:101D000011096A3014F4E0E301C0E7E3E60FD801FB
:101D1000EC93232B242B252B49F7B801C70171DF46
:101D2000A1960FB6F894DEBF0FBECDBFDF91CF9165
:101D30001F910F91FF90EF90DF90BF90AF909F9019
:101D40008F900895CF92DF92EF92FF920F931F939F
:101D5000CF93DF93EC016A017B012115310579F402
:101D6000E881F9810190F081E02D642FDF91CF911E
:101D70001F910F91FF90EF90DF90CF9009942A3040
:101D80003105D9F477FF18C06DE274DF8C01442768
:101D90005527BA014C195D096E097F092AE0CE0169
:101DA00083DF800F911FDF91CF911F910F91FF90E3
:101DB000EF90DF90CF9008952AE0B701A601CE0101
:101DC000DF91CF911F910F91FF90EF90DF90CF9017
:101DD0006BCF9A01AB01662757FD6095762FB2CF86
:101DE0000F931F93CF93DF93EC019A01AB0166270A
:101DF00057FD6095762FA6DF8C01CE0142DF800F64
:101E0000911FDF91CF911F910F91089521153105F9
:101E100041F4DC01ED91FC910190F081E02D642F03
:101E2000099442CF9A01462F50E060E070E0EECF77
:101E30009A01AB0160E070E0E9CF4F925F926F9240
:101E40007F928F929F92AF92BF92CF92DF92EF924A
:101E5000FF920F931F93CF93DF93EC016A017B01F5
:101E6000B22E9A01AB01C701B6010E94F724882364
:101E700019F06FE271E027C026013701E89477F886
:101E80002FEF3FEF4FE75FE7C301B2010E94F72456
:101E900081110DC02FEF3FEF4FE75FE7C301B201A4
:101EA0000E94FF2218161CF463E371E00CC02FEFB0
:101EB0003FEF4FE75FE4C701B6010E944E241816BA
:101EC000A4F467E371E0CE01DF91CF911F910F91F0
:101ED000FF90EF90DF90CF90BF90AF909F908F904A
:101EE0007F906F905F904F908CCE2FEF3FEF4FE73A
:101EF0005FECC701B6010E94FF2287FDE2CF20E020
:101F000030E0A901C701B6010E94FF2287FF09C086
:101F10006DE2CE01AFDE8C01F7FAF094F7F8F094A1
:101F200002C000E010E0A12C60E070E080E09FE3E0
:101F3000AB1441F020E030E040E251E40E94032382
:101F4000A394F6CF9B01AC01C701B6010E949B226E
:101F50006B017C010E9470232B013C010E949C2399
:101F60009B01AC01C701B6010E949A226B017C0162
:101F70002AE0B301A201CE0197DE080F191FBB2092
:101F800031F06BE371E0CE013CDE080F191F7B2CB2
:101F9000772039F120E030E040E251E4C701B6019A
:101FA0000E9452246B017C010E946B234B01AA24E6
:101FB00097FCA094BA2C2AE030E0B501A401CE0130
:101FC000C1DE080F191FC501B4010E949E239B01A9
:101FD000AC01C701B6010E949A226B017C017A9480
:101FE000D7CFC801DF91CF911F910F91FF90EF9054
:101FF000DF90CF90BF90AF909F908F907F906F9029
:102000005F904F90089519CF0F931F93CF93DF9355
:10201000EC0113DF8C01CE0134DE800F911FDF91C4
:10202000CF911F910F91089508958230E8F4E82F21
:10203000F0E0EE0FFF1FE15FFE4F718360838130A0
:1020400041F0809169008C7F842B80936900E89A2D
:10205000089580916900440F551F440F551F837FD9
:10206000842B80936900E99A0895823078F4813056
:1020700011F0E89801C0E998E82FF0E0EE0FFF1F9B
:10208000E15FFE4F84E190E19183808308951F9288
:102090000F920FB60F9211242F933F934F935F939C
:1020A0006F937F938F939F93AF93BF93EF93FF9320
:1020B000E0910F01F09110010995FF91EF91BF910F
:1020C000AF919F918F917F916F915F914F913F91D0
:1020D0002F910F900FBE0F901F9018951F920F9287
:1020E0000FB60F9211242F933F934F935F936F93EB
:1020F0007F938F939F93AF93BF93EF93FF93E09161
:102100001101F09112010995FF91EF91BF91AF91EB
:102110009F918F917F916F915F914F913F912F91FF
:102120000F900FBE0F901F9018950895C5D0FDDF3A
:102130000E941C08C1E2DCE04FD82097E9F381DB64
:10214000FBCF1F920F920FB60F9211242F933F9344
:102150008F939F93AF93BF93809196039091970332
:10216000A0919803B09199033091950323E0230F38
:102170002D3720F40196A11DB11D05C026E8230FBF
:102180000296A11DB11D2093950380939603909311
:102190009703A0939803B093990380919A03909129
:1021A0009B03A0919C03B0919D030196A11DB11DBD
:1021B00080939A0390939B03A0939C03B0939D03F9
:1021C000BF91AF919F918F913F912F910F900FBE33
:1021D0000F901F9018952FB7F89460919603709107
:1021E000970380919803909199032FBF08953FB76B
:1021F000F89480919A0390919B03A0919C03B091D5
:102200009D0326B5A89B05C02F3F19F00196A11D7F
:10221000B11D3FBF6627782F892F9A2F620F711D3E
:10222000811D911D42E0660F771F881F991F4A95F7
:10223000D1F708958F929F92AF92BF92CF92DF9283
:10224000EF92FF926B017C01D2DF4B015C01C11464
:10225000D104E104F104E1F0A3D1C9DF68197909DF
:102260008A099B09683E73408105910580F321E04E
:10227000C21AD108E108F10888EE880E83E0981EA2
:10228000A11CB11CC114D104E104F10431F7DFCF6A
:10229000FF90EF90DF90CF90BF90AF909F908F9086
:1022A00008958230910538F0880F991F880F991F83
:1022B00005970197F1F70895789484B5826084BDFD
:1022C00084B5816084BD85B5826085BD85B581603A
:1022D00085BDEEE6F0E0808181608083E1E8F0E09A
:1022E0001082808182608083808181608083E0E8C9
:1022F000F0E0808181608083E1EBF0E080818460A8
:102300008083E0EBF0E0808181608083EAE7F0E0A9
:10231000808184608083808182608083808181600D
:1023200080838081806880831092C10008958E3000
:1023300008F08E5087702091130190E4299F90013E
:102340001124822B80937C0080917A00806480939A
:102350007A0080917A0086FDFCCF809178002091F0
:10236000790090E0922B08951F93CF93DF93182F5D
:10237000EB0161E07FD0209711F460E004C0CF3F13
:10238000D10531F461E0812FDF91CF911F91ABC076
:10239000E12FF0E0E155FB4FE491E330F9F048F430
:1023A000E130B9F0E230A1F584B5806284BDC8BDEA
:1023B00034C0E730E9F0E83019F1E43049F58091B4
:1023C0008000806280938000D0938B00C0938A004D
:1023D00024C084B5806884BDC7BD1FC080918000C3
:1023E000806880938000D0938900C093880015C0D6
:1023F0008091B00080688093B000C093B3000DC09E
:102400008091B00080628093B000C093B40005C09A
:10241000C038D1050CF0B6CFB0CFDF91CF911F916E
:102420000895833081F028F4813099F08230A1F052
:1024300008958730A9F08830B9F08430D1F48091C4
:1024400080008F7D03C0809180008F778093800013
:10245000089584B58F7702C084B58F7D84BD0895BB
:102460008091B0008F7703C08091B0008F7D809302
:10247000B0000895CF93DF9390E0FC01ED53FB4F44
:102480002491FC01E952FB4F8491882349F190E0AB
:10249000880F991FFC01E150FB4FA591B4918B501F
:1024A0009B4FFC01C591D4919FB7611108C0F8946E
:1024B0008C91209582238C93888182230AC062307C
:1024C00051F4F8948C91322F309583238C9388812A
:1024D000822B888304C0F8948C91822B8C939FBFAD
:1024E000DF91CF9108950F931F93CF93DF931F92A6
:1024F000CDB7DEB7282F30E0F901E155FB4F8491CD
:10250000F901ED53FB4F1491F901E952FB4F04918E
:102510000023C1F0882319F0698383DF6981E02FEC
:10252000F0E0EE0FFF1FEB50FB4FA591B4919FB76A
:10253000F8948C91611103C01095812301C0812B07
:102540008C939FBF0F90DF91CF911F910F910895B2
:10255000CF93DF93282F30E0F901E155FB4F8491B1
:10256000F901ED53FB4FD491F901E952FB4FC491AE
:10257000CC2389F0811155DFEC2FF0E0EE0FFF1F27
:10258000E551FB4FA591B4912C912D2381E090E072
:1025900021F480E002C080E090E0DF91CF910895C7
:1025A0000895EF92FF920F931F93FC01758B648B3C
:1025B000208F318F428F538FE0A2F1A202A313A389
:1025C00040E050E060E074E444AB55AB66AB77AB01
:1025D0001F910F91FF90EF900895FC01778B668B10
:1025E000248F358F468F578F40E050E060E074E4D1
:1025F00040AF51AF62AF73AF08958EE480937C001B
:1026000062E070E080E090E015DE80917A00806406
:1026100080937A0080917A0086FDFCCF80917800CB
:102620002091790030E0322F2227442737FD409552
:10263000542F282B60E070E381E190E00E94532248
:10264000CA01B90108952F923F924F925F926F9203
:102650007F928F929F92AF92BF92CF92DF92EF9232
:10266000FF920F931F93CF93DF93CDB7DEB7A89759
:102670000FB6F894DEBF0FBECDBF98A78FA37E8F95
:102680006D8F8A01BADF6D8B7E8B8F8B988FA3DD68
:102690004B015C016FA078A428E5620E711CC80193
:1026A000A0E0B0E0898B9A8BAB8BBC8BAFA1B8A5B7
:1026B00054968C913CDEF30191838083BC01882782
:1026C00077FD8095982F0E949E236B017C012DEC55
:1026D0003CEC4CE054E40E94FF2287FF0BC011E069
:1026E00026E636E646EE53E4C701B6010E944E24C4
:1026F00018160CF010E06FDD681979098A099B093A
:1027000029893A894B895C89261737074807590771
:1027100008F03FC060DD698F7A8F8B8F9C8F00E05F
:1027200010E01A8219824FA158A5405C5F4F58A350
:102730004F8F8FA198A58C5B9F4F9C878B87AFA1F4
:10274000B8A5A85BBF4FBAA3A9A3EFA1F8A5E45B06
:10275000FF4FFE87ED872FA138A5205B3F4F3CA39D
:102760002BA34FA158A54C5A5F4F588B4F878FA171
:1027700098A5865A9F4F9E838D832FA038A49BE5F2
:10278000290E311CAFA1B8A5A85ABF4FBEA3ADA357
:1027900041C1112309F48ACFBDCF1DDD298D3A8DAA
:1027A0004B8D5C8D621B730B840B950B29893A89C9
:1027B0004B895C89621773078407950708F032C15B
:1027C0000F5F1F4FEFA1F8A584A595A5A6A5B7A5F6
:1027D00080A791A7A2A7B3A78489A9DDAFA1B8A5B7
:1027E00095969C938E93949756968C91A0DD3C0180
:1027F000EFA1F8A597A386A324A135A13A8729873D
:10280000B901882777FD8095982F0E949E236B0140
:102810007C01AFA1B8A5D4968D909D90AD90BC9051
:10282000D797A50194010E949A2220E030E040E869
:102830005AE30E9452249B01AC01C501B4010E94DD
:102840009B229B01AC01EFA1F8A564AB75AB86ABF5
:1028500097ABC701B6010E949A224B015C01AFA160
:10286000B8A59C966D937D938D939C939F97B30190
:10287000882777FD8095982F0E949E236B017C010D
:10288000EFA1F8A540AC51AC62AC73ACA3019201CE
:102890000E949A2220E030E040E85AE30E9452244D
:1028A0009B01AC01C301B2010E949B229B01AC01C0
:1028B000AFA1B8A5D8966D937D938D939C93DB972C
:1028C000C701B6010E949A226B017C01EFA1F8A515
:1028D00060AB71AB82AB93ABA5019401C501B401B0
:1028E0000E9452249B01AC01AF8DB8A16D937D93E2
:1028F0008D939C931397EB85FC8560817181828118
:1029000093810E949B22AB85BC856D937D938D93B3
:102910009C931397A7019601C701B6010E94522408
:102920009B01AC01E9A1FAA1608371838283938347
:10293000AD85BE856D917D918D919C910E949B226C
:10294000ED85FE856083718382839383AFA1B8A5F3
:1029500098964D905D906D907C909B97A30192010D
:10296000C501B4010E949A22EFA1F8A520A131A1CE
:1029700042A153A10E9452249B01AC01C301B201A8
:102980000E949B22AFA1B8A5DC966D937D938D9399
:102990009C93DF97A70196010E9452249B01AC01F2
:1029A000EBA1FCA16083718382839383AF85B88997
:1029B0006D917D918D919C910E949B22EF85F8896C
:1029C0006083718382839383D1018C91ED81FE8139
:1029D0008083ADA1BEA18D919C91E985FA858E176A
:1029E0009F070CF0F6C021E0F101208301301105B2
:1029F00029F4F1018081AD81BE818C93ED81FE814E
:102A00009081D1018C91981729F0E981FA81319652
:102A1000FA83E98329813A814D8D5E8D241735072C
:102A200008F4BBCEAD89BE89BD01882777FD8095AE
:102A3000982F0E949E2320E030E04AE754E40E9451
:102A4000032320E030E040E85AE30E9452242B01A7
:102A50003C01EFA1F8A5208D318D428D538D0E9450
:102A600052244B015C01B80180E090E00E949C235D
:102A70006B017C012FA038A4F4E42F0E311C9B01C4
:102A8000AC01D1016D917D918D919C910E940323A8
:102A90000E94B9249B01AC01C501B4010E945224DB
:102AA00069837A838B839C83EFA1F8A564877587FC
:102AB00086879787248D358D468D578DC301B2014A
:102AC0000E9452242B013C010FA118A5045B1F4F4B
:102AD000A7019601D8016D917D918D919C910E94E5
:102AE00003230E94B9249B01AC01C301B2010E94DF
:102AF00052246D837E838F839887EFA1F8A5608B26
:102B0000718B828B938BA3019201C501B4010E944A
:102B10005224AFA0B8A4F4E5AF0EB11CD5012D919D
:102B20003D914D915C910E945224A70196010E9413
:102B300003236B017C01EFA1F8A56083718382837D
:102B400093832D813E814F81588569817A818B8164
:102B50009C810E9452249B01AC01AFA1B8A51496A0
:102B60006D937D938D939C931797C701B6010E9437
:102B70000323EFA1F8A56087718782879387D1012E
:102B80001D921D921D921C921397F80110821182C2
:102B900012821382D5011D921D921D921C921397D1
:102BA000A8960FB6F894DEBF0FBECDBFDF91CF91D0
:102BB0001F910F91FF90EF90DF90CF90BF90AF905B
:102BC0009F908F907F906F905F904F903F902F904D
:102BD0000895D1011C920ACF2F923F924F925F929B
:102BE0006F927F928F929F92AF92BF92CF92DF921D
:102BF000EF92FF920F931F93CF93DF9300D000D0FB
:102C000000D0CDB7DEB79E838D837A836983F5DCF0
:102C10002B013C0100E010E08D819E81845B9F4F81
:102C20001C01ED81FE81E85BFF4FFC83EB83898112
:102C30009A810817190709F454C0ED81FE8186892D
:102C400076DBED81FE8197A386A3BC01882777FD03
:102C50008095982F0E949E236B017C01ED81FE815F
:102C600080AC91ACA2ACB3ACA50194010E949A22B5
:102C700020E030E040E85AE30E9452249B01AC017E
:102C8000C501B4010E949B229B01AC01ED81FE8134
:102C900060AF71AF82AF93AFC701B6010E949A22B5
:102CA000ED81FE8160AB71AB82AB93AB9B01AC015C
:102CB0000E9452249B01AC01EB81FC8160837183F3
:102CC00082839383F10160817181828193810E946B
:102CD0009B22F10160837183828393830F5F1F4F77
:102CE000A6CFB80180E090E00E949C239B01AC013C
:102CF000F10160817181828193810E9403230E948E
:102D0000B9246B017C01B201882777FD8095982F4B
:102D10000E949E2320E030E04AE754E40E9403230F
:102D200020E030E040E85AE30E945224ED81FE8129
:102D3000248D358D468D578D0E945224A701960112
:102D40000E945224ED81FE81608B718B828B938B6C
:102D5000F101108211821282138226960FB6F89426
:102D6000DEBF0FBECDBFDF91CF911F910F91FF90BE
:102D7000EF90DF90CF90BF90AF909F908F907F901B
:102D80006F905F904F903F902F900895FF920F9318
:102D90001F93CF93DF93FC010081C181D281F8940E
:102DA0008981F02EF0948F21898378941DE711504A
:102DB00009F182E090E075DA88818023C1F3F8940C
:102DC0008A818F218A838981802B8983789480EE00
:102DD00091E067DAF89489818F21898386E490E015
:102DE00060DA8881802311E009F010E078948AE9A4
:102DF00091E057DA812FDF91CF911F910F91FF90D2
:102E000008951F93CF93DF93FC011081C181D2817C
:102E1000912F909560FF11C0F8948A8189238A834D
:102E20008981812B89838AE090E03BDA8A81812B3A
:102E30008A83789487E390E010C0F8948A8189238C
:102E40008A838981812B898381E490E02ADA8A81CF
:102E5000812B8A83789485E090E0DF91CF911F9158
:102E600020CA0F931F93CF93DF93FC011081C18180
:102E7000D281F8948981812B89838A81012F0095E1
:102E800080238A8383E090E00CDA89818023898320
:102E90008AE090E006DAC881789485E390E001DA70
:102EA0001C2381E009F480E0DF91CF911F910F9105
:102EB0000895CF92DF92EF92FF920F931F93CF93DB
:102EC000DF931F92CDB7DEB76C01E62E08E010E06D
:102ED000FF24F39461E09F2D9E2109F460E0C60178
:102EE00049838FDFFF0C015011094981011511053C
:102EF00089F7411115C0F894D6011196ED91FC9116
:102F0000129791818C918095892381831196ED91FF
:102F1000FC91129792818C91809589238283789479
:102F20000F90DF91CF911F910F91FF90EF90DF9065
:102F3000CF900895EF92FF920F931F93CF93DF935B
:102F40008C01C8E0D0E0F12CEE24E394C80189DFC5
:102F50008111FE28EE0C2197C9F78F2DDF91CF91BB
:102F60001F910F91FF90EF900895CF92DF92FF9203
:102F70000F931F93CF93DF931F92CDB7DEB78C01D2
:102F8000F62E40E065E5798394DFCF2C7981D72E4A
:102F900088E0F82EF60161916F0140E0C80189DFF9
:102FA000FA94C1F70F90DF91CF911F910F91FF908D
:102FB000DF90CF90089540E06CEC7BCFFC0113864E
:102FC0001586148627E030E0DF01A20FB31F1396A9
:102FD0001C922115310519F021503109F5CF0895C2
:102FE0001F93CF93DF93EC01162F60E0812F42DA1D
:102FF000612F70E0FB01ED53FB4FE491E883FB018F
:10300000E952FB4FE491F0E0EE0FFF1FE551FB4F5B
:10301000859194919A838983CE01DF91CF911F91FD
:10302000CDCFAF92BF92CF92DF92EF92FF920F93EC
:103030001F93CF93DF931F92CDB7DEB75C01D62EDF
:10304000E72EFC01858581115FC0C50149839EDEA5
:103050004981811105C0F5011386158614866DC05E
:10306000442319F040E060EF02C040E06CEEC5017F
:1030700020DF01E0F12CC12C11E0C501F2DE682F48
:10308000C5016983EEDE6981613019F48130B9F4DC
:1030900032C02F2D30E068131BC0F501838518174F
:1030A00030F4E20FF31F8381802349F402C0181724
:1030B00031F060E0193058F4F501148708C0F501CB
:1030C000EF0DF11D8381802B838361E009C0C12E48
:1030D000F501E20FF31F8381902F9095892383835D
:1030E000C5018FDE1F5F000F11F4F39401E0F7E0DC
:1030F000FF1508F0C2CF113438F0F501C386C110B6
:1031000009C081E0858706C0F501138615861486FF
:1031100080E013C0F50183818823B1F3ED2DFE2DEE
:1031200080E090E0D501A80FB91F13962C91219350
:10313000019688309105B1F781E00F90DF91CF9132
:103140001F910F91FF90EF90DF90CF90BF90AF90C5
:103150000895DC0180E0615038F0ED91E827F0E05F
:10316000E75FFA4F8491F7CF08950895FC0185EB4E
:1031700098E1928B818B768365831482108289E03B
:10318000818381E0828383830895FC018481089593
:10319000CF93DF93EB0167E0CE01DBDF91E02F817E
:1031A000821390E0892FDF91CF910895EF92FF92E3
:1031B0000F931F93CF93DF93EC018B01E42E8D814E
:1031C0009E81FCDEF12C41E0B8018D819E8129DFDA
:1031D000882351F0FE1005C0B801CE01D9DF81115E
:1031E00004C0F394EF1478F780E0DF91CF911F9142
:1031F0000F91FF90EF900895CF92DF92EF92FF92A0
:103200000F931F93CF93DF9300D0CDB7DEB76C0140
:10321000F42EE52EFC018581968169837A83B6DDE3
:1032200069817A818823F1F0F601858196819DDE9E
:1032300040E06EEBF601858196813BDE0F2D1E2D61
:1032400089E0F82EF6018581968174DEF80181937C
:103250008F01FA94B9F7F6018581968197DD91E0A7
:10326000813009F090E0892F0F900F90DF91CF917E
:103270001F910F91FF90EF90DF90CF900895CF9323
:10328000DF93EA01B9DF882349F068E0CE0161DF0E
:1032900091E02885821390E0892F01C080E0DF91C2
:1032A000CF910895EF92FF920F931F93CF93DF93E7
:1032B000EC018B017A018D819E8168DDB8018D81E1
:1032C0009E8153DE40E06EE48D819E81F2DD40E020
:1032D000F70162818D819E81ECDD40E0F701638121
:1032E0008D819E81E6DDF8018081803131F040E002
:1032F000F70164818D819E81DCDD8D819E8146DDBB
:10330000B8018D819E8131DE488168E48D819E8186
:10331000D0DD64E170E080E090E00E941A118881C5
:10332000882331F06AE070E080E090E00E941A119A
:103330008D819E81DF91CF911F910F91FF90EF9032
:1033400025CDEF92FF921F93CF93DF9300D0CDB79F
:10335000DEB77C01FC018581968169837A8316DD65
:1033600069817A81F70185819681FFDD40E064EB18
:10337000F701858196819DDDF7018581968171DD5B
:10338000182FF7018581968101DD81E0111180E020
:103390000F900F90DF91CF911F91FF90EF900895C4
:1033A000CF93DF93CDB7DEB729970FB6F894DEBF82
:1033B0000FBECDBFFB0120812031C9F0AE014F5FB0
:1033C0005F4F5DDF882379F08D818F3351F020F4DA
:1033D0008F3149F489E00CC08F3539F08F3739F0DF
:1033E00002C08AE005C080E003C08BE001C08CE031
:1033F00029960FB6F894DEBF0FBECDBFDF91CF91F7
:103400000895FF920F931F93CF93DF93CDB7DEB74D
:1034100028970FB6F894DEBF0FBECDBF8C01FC011C
:1034200085819681CBDDF801148241E0BE016F5F9A
:103430007F4FF80185819681F4DD882369F1BE0113
:103440006F5F7F4FC801A4DE882379F3F801808184
:10345000811107C0BE016F5F7F4FC80172DF81110C
:1034600017C0F801F180BE016F5F7F4FC80198DF80
:103470008F1518F4F801818105C0BE016F5F7F4F81
:10348000C8018EDFF801818384818F5F8483CDCF73
:1034900081E0F8018083E5CF28960FB6F894DEBF6F
:1034A0000FBECDBFDF91CF911F910F91FF90089577
:1034B000DF92EF92FF920F931F93CF93DF93CDB7DD
:1034C000DEB762970FB6F894DEBF0FBECDBF8C019A
:1034D0007B01D22E493028F0342F4D3018F03CE0DB
:1034E00001C039E0B701C8013A8B5ADF3A89831726
:1034F00009F458C0AE014F5F5F4FB701C8013A8B66
:10350000BEDE3A89882309F44FC0F70180818031FB
:1035100009F448C03B3041F03C3021F03A3031F4FE
:103520008FE305C08FE703C08FE501C08FE18D8376
:10353000AE014F5F5F4FB701C8013A8BB3DEF801B0
:1035400091813A89832F391708F4892FF8018183F3
:10355000D11028C0381730F53183E12CF12CF80157
:10356000848190E0E816F906ECF44E2DBE01665F0A
:103570007F4FC8011BDEF801D180BE01665F7F4F1F
:10358000C8010EDF8D1518F4F801818105C0BE0158
:10359000665F7F4FC80104DFF8018183FFEFEF1AF8
:1035A000FF0ADDCF81E001C080E062960FB6F8949B
:1035B000DEBF0FBECDBFDF91CF911F910F91FF9066
:1035C000EF90DF900895CF93DF93CDB7DEB72997C3
:1035D0000FB6F894DEBF0FBECDBFAE014F5F5F4F99
:1035E0000BDE81E09981911101C080E029960FB630
:1035F000F894DEBF0FBECDBFDF91CF9108958F92BB
:103600009F92AF92BF92CF92DF92EF92FF920F9371
:103610001F93CF93DF93EC018A016950633048F424
:10362000E62FF0E0EE0FFF1FE35CFE4F80809180FD
:1036300004C09EEE892E92E0992E01151105F9F035
:103640008B818823E1F08881811119C00E94EB10E1
:103650006B017C01AA2497FCA094BA2CB801CE017E
:10366000B2DF81111FC00E94EB10681979098A0925
:103670009B096C157D058E059F05A0F4EFCFB40165
:10368000882777FD8095982FDF91CF911F910F911B
:10369000FF90EF90DF90CF90BF90AF909F908F9072
:1036A0000C941A11DF91CF911F910F91FF90EF9021
:1036B000DF90CF90BF90AF909F908F900895CF9361
:1036C000DF93EC018D819E8161DB8D819E8173DCB6
:1036D000488164E48D819E81ECDB8A81882339F006
:1036E00040E050E06981CE01DF91CF9188CFDF913A
:1036F000CF910895FA01208148E0249F9001112480
:10370000818190E0982F8827990F990F990F282B86
:10371000392BDB018C918031B9F4678170E08681AF
:10372000AB01481B5109CA019695982F8827979598
:10373000879584D660517109207F53E0220F331F93
:103740005A95E1F7260F371FC9010895EF92FF92AE
:103750000F931F93CF93DF93CDB7DEB729970FB6A3
:10376000F894DEBF0FBECDBF8C017B01AE014F5F71
:103770005F4F85DD882339F0AE014F5F5F4FB701A2
:10378000C801B8DF02C080E894EE29960FB6F8941D
:10379000DEBF0FBECDBFDF91CF911F910F91FF9084
:1037A000EF900895813824EE920764F0BC018827D9
:1037B00077FD8095982FC2D720E030E040E05CE3B1
:1037C0000C94522460E070E08EEF92EC0895BEDF1E
:1037D000E9CF80919E038F5F80939E030895862793
:1037E000682F62956827062E669566956025062ED9
:1037F000669560256770082E892F669507946795F2
:10380000902D862706946795902586270895E89839
:103810002A988EBD0DB407FEFDCF8EB56EBD0DB4DA
:1038200007FEFDCF8EB52A9AE89A089560E0EFCFA3
:1038300088E2FCDF807519F080E0F8DFF9CF0895A9
:10384000CF93C82F81E0F2DF682F637E6C2B81E875
:10385000CF91DDCF22E0660F771F881F991F2A9531
:10386000D1F729E03DE340E050E0FBD566E0220FD0
:10387000331F441F551F6A95D1F72093A803309337
:10388000A9034093AA035093AB0308958091A10329
:10389000853021F48091A203882311F080E00895FF
:1038A00084E08093A103CCDF81E008959091A1038F
:1038B00081E094300CF080E00895CF93DF932A9A52
:1038C000229A2A9A84B18C6284B980E58CBD8DB528
:1038D00081608DBD6AEA8FEA9ADF8FE2A7DF8A3ABC
:1038E000C9F765E58FEA93DF8FE2A0DF8535C9F779
:1038F000C9E0D6E0FE018491882331F031966491CD
:10390000806885DF2296F6CF6091A70381EB7FDF89
:103910008091A8039091A903A091AA03B091AB0351
:10392000BD018827992787E872DF8091A8039091CD
:10393000A903A091AA03B091AB03692F7A2F8B2F13
:10394000992788E864DF6091A80389E860DF84E054
:103950008093A103DF91CF910895CF93DF93EC0182
:103960008091A103843019F08530F9F047C010929E
:10397000AF031092A2036091A7038FEF9FEF2FDF99
:103980009093A5038093A403D093A003C0939F03B7
:1039900085E08093A1034CDF60E885EA38DF80E1B1
:1039A0004FDF62E08EE933DF29C08091AF032091C1
:1039B000A20390E0049630E08217930724F08091F0
:1039C000A2038834D8F084E08093A10339DF80918A
:1039D000AF038334B0F48091A4039091A503892BA5
:1039E00081F48091AE0386FF0FC09091A6039F31B2
:1039F00059F08091AE038F71891731F08FEF9FEFEF
:103A000005C081E090E002C080E090E0DF91CF91BE
:103A10000895CF934093AF03FB0120E030E050E0E6
:103A20002417350744F4D901A055BC4F91919C93BC
:103A30002F5F3F4FF5CF86FD04C0807E9091A60397
:103A4000890F8093AE036091A7038FEF9FEFC7DECE
:103A50009093A5038093A4039091AF038EEF891BED
:103A60008093A103E5DE8CE0EBDE60E085EACFDE4B
:103A70008091A1038330C4F588E2D8DE87FDF8CFBA
:103A80008091A10387FF1AC09091AF038091A10399
:103A9000E0919F03F091A003E90FF11DE80FF11DE4
:103AA00087FDFA95C3816C2F8091A4039091A503A3
:103AB00096DE9093A5038093A4030DC08091A1038B
:103AC000882329F0813031F4C091A50304C0C0914E
:103AD000A40301C0CAEA6C2F80E899DE8091A1039B
:103AE0008F5F8093A103C4CFCF910895CF9380912E
:103AF000A103853009F04FC060E485EA88DE84E2E6
:103B000095DE8093A3037894C8E488E28FDE807505
:103B1000E1F38091A20381110FC0E0919F03F09126
:103B2000A0038091A20391E0980F9093A20390913B
:103B3000A703E80FF11D908380E078DEE0919F03FA
:103B4000F091A0039091A20321E0290F2093A203FA
:103B5000E90FF11D8083682F8091A4039091A50344
:103B60003EDE9093A5038093A4038091AF0383343A
:103B700010F0C093A2038091AF032091A20390E0C4
:103B8000049630E08217930794F08091A203883462
:103B900008F4BBCF0CC088E249DE83FF08C084E094
:103BA0008093A1034DDE60E885EACF9130CECF91BE
:103BB0000895CF92DF92EF92FF921F93CF93DF93FE
:103BC000C82F162FD42FF901AFEFA60FA33028F47A
:103BD000B0E0AD5BBE4FAC9101C0A0E0B0E020E82A
:103BE00036E948E950E09CD46B017C01212F30E09C
:103BF000A4ECB9E080D4DF019B01AC0191D4C60EE6
:103C0000D71EE81EF91EC701B60124DED093A70314
:103C10008C2F8F718093A60364E170E080E090E0C8
:103C20000E941A118091A603882341F043E050E0DE
:103C300066E77DE180E00E94151003C080E00E94ED
:103C400035103BDEC093AC038C2FDF91CF911F91D9
:103C5000FF90EF90DF90CF9008958DEA93E07DDEA6
:103C60009093F6038093F5032091F5033091F603CA
:103C700081E02F3F3F4F09F480E0089507CEC9CE81
:103C8000EF92FF921F93CF93DF931F92CDB7DEB7D2
:103C9000182F7B014983FADD4981811104C04983D2
:103CA000DCDF4981F7CFB701812F0F90DF91CF91F2
:103CB0001F91FF90EF90ADCECF93C82FF7DD8823F3
:103CC000B9F0CC23D9F383B7817FC33021F0C23060
:103CD00021F49CE003C094E001C090E0892B83BFF5
:103CE00083B7816083BF889583B78E7F83BFE6CF1C
:103CF000CF910895FC01138212828AE491E09183AE
:103D00008083648341872287138608951F93CF930E
:103D1000DF93EC01162F6C8187EF93E092D1E09155
:103D2000F703F091F8036B85612B0190F081E02D92
:103D300087EF93E0099587EF93E0DF91CF911F9193
:103D40009CC128E0FC01238760E0E0CF1F93CF9364
:103D5000DF93EC01162F6460D9DF81E090E00E94D0
:103D60005111612F6B7FCE01D1DF82E390E0DF91B3
:103D7000CF911F910C9451111F93CF93DF93EC01BE
:103D8000162FC4DF612FCE01DF91CF911F91DECFBF
:103D9000EF92FF921F93CF93DF931F92CDB7DEB7C1
:103DA0007C01162F607F642B4983E6DF80E1189F3A
:103DB000B00111244981642BC7010F90DF91CF918D
:103DC0001F91FF90EF90D8CF41E0E2DF81E090E0DB
:103DD000089540E0DDCF61E0FCDF80ED97E00C94DA
:103DE000511162E0F6DF80ED97E00C945111CF9312
:103DF000DF93CDB7DEB728970FB6F894DEBF0FBEBE
:103E0000CDBF28E0E4E1F1E0DE01119601900D92D2
:103E10002A95E1F7FC012085241710F44FEF420F9B
:103E2000FE013196E40FF11DE40FF11D2081260FF4
:103E30002068622F28960FB6F894DEBF0FBECDBF64
:103E4000DF91CF91C6CFFC016681262F24602683A7
:103E50006C60BFCFCF93DF93EC01423018F08D81BF
:103E600088608D834887222329F0413019F48D81A1
:103E700084608D8362E370E080E090E00E941A111C
:103E80006B85CE0143DF68EE73E080E090E00E9436
:103E90001A1160E3CE0170DF84E991E10E945111B3
:103EA00060E3CE0169DF84E991E10E94511160E392
:103EB000CE0162DF86E990E00E94511160E2CE01FE
:103EC0005BDF6D816062CE0184DF84E08E83CE0192
:103ED000BADFCE0180DF82E08F8366E0CE0179DF3A
:103EE000CE01DF91CF917DCFCF93DF93EC0187EFB0
:103EF00093E09ED01D8220E04A856985CE01DF9146
:103F0000CF91A8CFF1CF8091270490E02091280491
:103F1000821B910908952091280480912704281775
:103F200050F4E22FF0E0E75DFB4F808190E02F5FDF
:103F30002093280408958FEF9FEF0895E0912804BF
:103F400080912704E81730F4F0E0E75DFB4F8081B3
:103F500090E008958FEF9FEF08950895CF92DF923C
:103F6000EF92FF920F931F93CF93DF937C01CB01CE
:103F70008A0120910304222389F0EB016B01C40E16
:103F8000D51ECC15DD0561F06991D701ED91FC914D
:103F90000190F081E02DC7010995F3CF642FE7D0A0
:103FA000C801DF91CF911F910F91FF90EF90DF90AB
:103FB000CF900895CF93DF931F92CDB7DEB769837B
:103FC000209103042223D1F020910404203240F0F8
:103FD00021E030E0FC013383228380E090E014C0D4
:103FE00080910504E82FF0E0EA5FFB4F9981908310
:103FF0008F5F809305048093040404C061E0CE01C8
:104000000196B5D081E090E00F90DF91CF910895B7
:10401000FC011382128248EE53E060E070E04483BA
:1040200055836683778382E591E091838083089549
:104030001092280410922704109205041092040490
:1040400021C081E08093030460932604109205044C
:104050001092040408950F93062F21E04091040468
:1040600066E074E0809126042BD010920504109233
:104070000404109203040F91089561E0ECCF87EFE0
:1040800093E0C6CF1092B60481E08093B4041092FE
:10409000B30461E082E10E94731261E083E10E9457
:1040A0007312E9EBF0E080818E7F808380818D7FC9
:1040B000808388E48093B80085E48093BC000895F1
:1040C0000F93413208F04AC09091B6049111FCCF91
:1040D00092E09093B6040093B4049FEF9093490448
:1040E00010928E0440938D04FB016FE874E0DB01B5
:1040F0009A2F961B941718F491919D93F9CF1092D3
:10410000B5049091B504880F892B8093B5048091F4
:10411000B304813061F41092B3048091B5048093AC
:10412000BB008091BC0083FDF8CF85EC01C085EE1B
:104130008093BC00222321F08091B6048230E1F309
:10414000809149048F3F61F080914904803251F0A1
:1041500080914904803341F483E007C081E005C0C9
:1041600080E003C082E001C084E00F9108956132D5
:1041700098F42091B604243089F460936B04FC0118
:104180008DE694E0DC012A2F281B261718F42191D4
:104190002D93F9CF80E0089581E0089582E008959D
:1041A00085ED8093BC008091BC0084FDFCCF109213
:1041B000B604089585EC8093BC001092B60408956F
:1041C0001F920F920FB60F9211242F933F934F938C
:1041D0005F936F937F938F939F93AF93BF93EF936F
:1041E000FF938091B900887F803609F49DC070F5F7
:1041F000883209F45CC090F4803109F455C038F479
:10420000882309F4F3C0883009F44EC0F2C0883125
:1042100009F44DC0803209F45EC0EBC0803409F46B
:1042200069C050F4803309F456C0883309F0E1C006
:1042300080934904BFDFDDC0803509F44FC0883565
:1042400009F45DC0883409F0D4C0D2C0883909F4BB
:10425000C3C0A8F4883709F467C038F4883609F475
:1042600063C0803709F460C0C4C0883809F4B4C0A2
:10427000803909F45FC0803809F0BBC05BC0803B67
:1042800009F482C038F4803A09F466C0883A09F427
:104290007BC0AFC0803C09F4A3C0883C09F4A0C037
:1042A000883B09F486C0A5C08091B50410C09091E8
:1042B0008E0480918D04981770F5E0918E0481E052
:1042C0008E0F80938E04F0E0E157FB4F8081809346
:1042D000BB0085EC82C0809349048AC0E0918E04C3
:1042E00081E08E0F80938E048091BB00F0E0E15757
:1042F000FB4F808390918E0480918D046AC0E09181
:104300008E0481E08E0F80938E048091BB00F0E0DC
:10431000E157FB4F80838091B404811169C081E033
:104320008093B30484EA5DC083E08093B604109266
:104330004A04CFCF80914A04803208F04DC0E0910A
:104340004A0481E08E0F80934A048091BB00F0E024
:10435000E55BFB4F8083BDCF2DDF80914A04803227
:1043600030F4E0914A04F0E0E55BFB4F108260918D
:104370004A0470E0E091AF04F091B0048BE494E063
:10438000099510924A0435C084E08093B6041092D7
:104390006C0410926B04E091B104F091B2040995A1
:1043A00080916B04811105C081E080936B041092B1
:1043B0006D04E0916C0481E08E0F80936C04F0E05A
:1043C000E359FB4F80818093BB0090916C048091F6
:1043D0006B04981708F47DCF85E88093BC0009C072
:1043E00085EC8093BC001092B60403C0109249047F
:1043F000D7DEFF91EF91BF91AF919F918F917F9108
:104400006F915F914F913F912F910F900FBE0F9041
:104410001F901895AA1BBB1B51E107C0AA1FBB1F09
:10442000A617B70710F0A61BB70B881F991F5A9540
:10443000A9F780959095BC01CD01089597FB072EB3
:1044400016F4009406D077FD08D0E4DF07FC05D011
:104450003EF4909581959F4F0895709561957F4F9B
:104460000895A1E21A2EAA1BBB1BFD010DC0AA1FB5
:10447000BB1FEE1FFF1FA217B307E407F50720F0CD
:10448000A21BB30BE40BF50B661F771F881F991F48
:104490001A9469F760957095809590959B01AC0191
:1044A000BD01CF010895052E97FB16F400940FD09F
:1044B00057FD05D0D6DF07FC02D046F408C0509562
:1044C0004095309521953F4F4F4F5F4F0895909500
:1044D0008095709561957F4F8F4F9F4F0895EE0F98
:1044E000FF1F0590F491E02D099405D0332312F4B9
:1044F0008A1B9B0B10C0A29FB001B39FC001A39F5A
:10450000700D811D1124911DB29F700D811D11240C
:10451000911D0895F0DFB7FF0895821B930B089556
:10452000EADFA59F900DB49F900DA49F800D911D73
:10453000112408955058BB27AA270ED075C166D103
:1045400030F06BD120F031F49F3F11F41EF45BC1C9
:104550000EF4E095E7FB51C1E92F77D180F3BA174C
:10456000620773078407950718F071F49EF58FC1F1
:104570000EF4E0950B2EBA2FA02D0B01B90190017E
:104580000C01CA01A0011124FF27591B99F0593FC2
:1045900050F4503E68F11A16F040A22F232F342F0A
:1045A0004427585FF3CF469537952795A795F04058
:1045B0005395C9F77EF41F16BA0B620B730B840B6D
:1045C000BAF09150A1F0FF0FBB1F661F771F881F25
:1045D000C2F70EC0BA0F621F731F841F48F487957D
:1045E00077956795B795F7959E3F08F0B3CF93956C
:1045F000880F08F09927EE0F979587950895D9D0E1
:1046000008F481E008950CD00FC107D140F0FED02E
:1046100030F021F45F3F19F0F0C0511139C1F3C0FF
:1046200014D198F39923C9F35523B1F3951B550B76
:10463000BB27AA2762177307840738F09F5F5F4F75
:10464000220F331F441FAA1FA9F333D00E2E3AF0B6
:10465000E0E830D091505040E695001CCAF729D0D0
:10466000FE2F27D0660F771F881FBB1F261737071F
:104670004807AB07B0E809F0BB0B802DBF01FF274F
:1046800093585F4F2AF09E3F510568F0B6C000C1B5
:104690005F3FECF3983EDCF3869577956795B79589
:1046A000F7959F5FC9F7880F911D9695879597F9A4
:1046B0000895E1E0660F771F881FBB1F621773071D
:1046C0008407BA0720F0621B730B840BBA0BEE1F32
:1046D00088F7E095089504D06894B111D9C0089581
:1046E000BCD088F09F5790F0B92F9927B751A0F010
:1046F000D1F0660F771F881F991F1AF0BA95C9F776
:1047000012C0B13081F0C3D0B1E00895C0C0672FAE
:10471000782F8827B85F39F0B93FCCF38695779525
:104720006795B395D9F73EF490958095709561950E
:104730007F4F8F4F9F4F0895E89409C097FB3EF439
:1047400090958095709561957F4F8F4F9F4F9923DE
:10475000A9F0F92F96E9BB279395F695879577955C
:104760006795B795F111F8CFFAF4BB0F11F460FF1C
:104770001BC06F5F7F4F8F4F9F4F16C0882311F074
:1047800096E911C0772321F09EE8872F762F05C088
:10479000662371F096E8862F70E060E02AF09A9523
:1047A000660F771F881FDAF7880F9695879597F918
:1047B0000895990F0008550FAA0BE0E8FEEF1616B2
:1047C0001706E807F907C0F012161306E407F50705
:1047D00098F0621B730B840B950B39F40A2661F079
:1047E000232B242B252B21F408950A2609F4A1401C
:1047F000A6958FEF811D811D089597F99F6780E829
:1048000070E060E008959FEF80EC089500240A9422
:104810001616170618060906089500240A9412169B
:104820001306140605060895092E0394000C11F4CE
:10483000882352F0BB0F40F4BF2B11F460FF04C07B
:104840006F5F7F4F8F4F9F4F089557FD9058440FD4
:10485000551F59F05F3F71F04795880F97FB991FDF
:1048600061F09F3F79F0879508951216130614069C
:10487000551FF2CF4695F1DF08C016161706180629
:10488000991FF1CF86957105610508940895E89404
:10489000BB2766277727CB0197F908958ADF08F4AD
:1048A0008FEF08950BD0C0CFB1DF28F0B6DF18F03E
:1048B000952309F0A2CFA7CF1124EACFC6DFA0F33A
:1048C000959FD1F3950F50E0551F629FF001729FA5
:1048D000BB27F00DB11D639FAA27F00DB11DAA1FC4
:1048E000649F6627B00DA11D661F829F2227B00D11
:1048F000A11D621F739FB00DA11D621F839FA00D9C
:10490000611D221F749F3327A00D611D231F849FEB
:10491000600D211D822F762F6A2F11249F57504042
:104920008AF0E1F088234AF0EE0FFF1FBB1F661FDD
:10493000771F881F91505040A9F79E3F510570F096
:104940005CCFA6CF5F3FECF3983EDCF3869577957E
:104950006795B795F795E7959F5FC1F7FE2B880F91
:10496000911D9695879597F9089511F40EF44BCF04
:1049700042C073DFD0F39923D9F3CEF39F57550B81
:1049800087FF47D00024A0E640EA90018058569562
:10499000979528F4805C660F771F881F20F02617F4
:1049A0003707480730F4621B730B840B2029312929
:1049B0004A2BA69517940794202531254A2758F7A6
:1049C000660F771F881F20F026173707480730F437
:1049D000620B730B840B200D311D411DA09581F7D7
:1049E000B901842F9158880F969587950895E1DE37
:1049F000880B990B08959F3F31F0915020F48795D3
:104A000077956795B795880F911D9695879597F936
:104A1000089591505040660F771F881FD2F7089570
:044A2000F894FFCF38
:104A24000000B7048000D2000501016666804314CB
:104A34001014100100004000140054000000000095
:104A4400700CD90DF40B0D0CFF0B4F0C0D0A006EFE
:104A5400616E00696E66006F7666002E005E00BCB3
:104A64000077012B565A00000000E41ED90D000007
:0E4A74000000DA1FAE1F831F8B1F9E1FAD1F99
:00000001FF
