:100000000C9439030C9442110C941B110C94610351
:100010000C9461030C9461030C94B2130C9461036F
:100020000C9461030C9461030C9461030C946103C0
:100030000C9461030C9461030C9461030C946103B0
:100040000C94C3130C9461030C94FB120C94D51202
:100050000C9461030C9461030C9461030C94610390
:100060000C94D1070C9461031C1BBD1A271B271B82
:10007000271B271BDE1A271BB01A271B271B271B32
:10008000271B271B271BE91AFB1A271B1C1B271BD7
:10009000271B061B737461727475702E2E2E004F11
:1000A00070656E456E657267794D6F6E69746F72BB
:1000B0002E6F726700656D6F6E50692056004F702D
:1000C000656E456E657267794D6F6E00656D6F6E1A
:1000D0005069205600204E6574776F726B2000398E
:1000E00031354D687A003836384D687A003433330C
:1000F0004D687A00204672657120004E6F6465205D
:100100000052464D3639435720496E69743A2000F3
:10011000426F6F74696E672E2E2E0052617370628B
:100120006572727920506900445331384232302070
:1001300054656D700044657465637465643A2000AD
:100140003020445331384232302064657465637422
:10015000656400445331384232302054656D70007C
:1001600044657465637465643A20002044533138F3
:100170004232300044657465637420004354320099
:100180004354203220646574656374004354312005
:10019000004354203120646574656374004E6F2001
:1001A00043542773006E6F20435420646574656365
:1001B000746564004465746563746564200056006A
:1001C000417373756D696E672056524D533A200026
:1001D000555341206D6F6465004143204E4F5420BC
:1001E0006465746563746564202D2041707061726C
:1001F000656E7420506F7765722063616C63206553
:100200006E61626C6564004143204E4F542044652A
:100210007465637465640050686173652053686930
:1002200066743A2000560056726D733A2000566389
:10023000616C3A2000555341206D6F6465203E206B
:100240000041432057617665204465746563746599
:1002500064202D205265616C20506F776572206399
:10026000616C6320656E61626C6564004143205778
:100270006176652044657465637465640056005654
:10028000524D53204143207E00435420322043618D
:100290006C3A2000435420312043616C3A20002006
:1002A00000205553412000207100204D487A002045
:1002B00040200020670020690020000A4176616923
:1002C0006C61626C6520636F6D6D616E64733A0A78
:1002D00020203C6E6E3E206920202020202D20739F
:1002E0006574206E6F6465204944732028737461BF
:1002F0006E64617264206E6F64652069647320614E
:10030000726520312E2E3330290A20203C6E3E208B
:10031000622020202020202D20736574204D487AF3
:100320002062616E64202834203D203433332C2039
:1003300038203D203836382C2039203D20393135C1
:10034000290A20203C6E6E6E3E2067202020202D42
:1003500020736574206E6574776F726B2067726F9F
:100360007570202852464D3132206F6E6C792061B5
:100370006C6C6F7773203231322C2030203D20613D
:100380006E79290A20203C6E3E2063202020202008
:10039000202D2073657420636F6C6C656374206D11
:1003A0006F64652028616476616E6365642C206EDD
:1003B0006F726D616C6C792030290A20202E2E2EF0
:1003C0002C3C6E6E3E2061202D2073656E6420648F
:1003D000617461207061636B657420746F206E6F4F
:1003E0006465203C6E6E3E2C207265717565737479
:1003F0002061636B0A20202E2E2E2C3C6E6E3E2038
:1004000073202D2073656E642064617461207061B7
:10041000636B657420746F206E6F6465203C6E6E34
:100420003E2C206E6F2061636B0A20202E2E2E2C16
:100430003C6E3E207020202D2053657420414320C7
:1004400041646170746572205663616C2031702064
:100450003D20554B2C203270203D205553410A2021
:100460002076202020202020202020202D205368AE
:100470006F77206669726D77617265207665727339
:10048000696F6E0A20203C6E3E20712020202020C3
:10049000202D20736574207175696574206D6F64FB
:1004A00065202831203D20646F6E277420726570AE
:1004B0006F727420626164207061636B657473296C
:1004C0000A005D005B656D6F6E50692E00203F0075
:1004D0004F4B0020620A00202D3E200020282D30A6
:1004E000290020004F4B2000010402000302048A6F
:1004F000050506C30B2019421E2C25802E882F2DA2
:10050000370038003C8F3D106F20000000000023B2
:100510000026002900040404040404040402020266
:100520000202020303030303030102040810204034
:1005300080010204081020010204081020000000BD
:1005400000240027002A0000000000250028002BBE
:100550000000000008000201000003040700000082
:100560000000000000005EBCE2613FDD83C29C7EB3
:1005700020A3FD1F419DC3217FFCA2401E5F01E31C
:10058000BD3E6082DC237D9FC1421CFEA0E1BF5DB9
:100590000380DE3C62BEE0025CDF81633D7C22C002
:1005A0009E1D43A1FF4618FAA427799BC584DA381B
:1005B00066E5BB5907DB856739BAE406581947A5D4
:1005C000FB7826C49A653BD987045AB8E6A7F91B7D
:1005D00045C6987A24F8A6441A99C7257B3A6486BA
:1005E000D85B05E7B98CD2306EEDB3510F4E10F2E7
:1005F000AC2F7193CD114FADF3702ECC92D38D6F84
:1006000031B2EC0E50AFF1134DCE90722C6D33D150
:100610008F0C52B0EE326C8ED0530DEFB1F0AE4C69
:100620001291CF2D73CA947628ABF517490856B4AA
:10063000EA6937D58B5709EBB536688AD495CB294B
:1006400077F4AA4816E9B7550B88D6346A2B759704
:10065000C94A14F6A8742AC896154BA9F7B6E80A31
:1006600054D7896B35290028002000200020000085
:10067000541E11241FBECFEFD8E0DEBFCDBF11E066
:10068000A0E0B1E0EEE6F4E402C005900D92A435DE
:10069000B107D9F724E0A4E5B1E001C01D92A43D63
:1006A000B207E1F713E0C9E3D3E004C02197FE01EC
:1006B0000E944F1FC833D107C9F70E940D140C9434
:1006C00035220C94000085ED8093BC008091BC0025
:1006D00084FDFCCF1092E202089540912A03262F58
:1006E00030E0240F311D21323105DCF42091E2028B
:1006F0002430C9F4FC0180E090E0861758F4309172
:100700002A032191DC01A85FBC4FA30FB11D2C93DC
:100710000196F3CF80912A03680F60932A0380E04B
:10072000089581E0089582E00895089581E090E0C1
:100730003091E0022091DF02321710F480E090E067
:1007400091958195910908958091E0029091DF0241
:10075000891730F48F5F8093E00280E090E0089585
:100760008FEF9FEF08958091DF0290E02091E002EB
:10077000821B91090895CF92DF92EF92FF920F931F
:100780001F93CF93DF937C01262F972F8A018091AF
:10079000DE02882391F0C62FD72F6E01C40ED51E1E
:1007A000CC15DD0571F06991D701ED91FC910190B7
:1007B000F081E02DC7010995F3CF642F822F0E94AD
:1007C0006D03C801DF91CF911F910F91FF90EF90C2
:1007D000DF90CF900895CF93DF931F92CDB7DEB710
:1007E00069832091DE022223D1F02091DD022032A4
:1007F00040F021E030E0FC013383228380E090E090
:1008000015C08091DC02E82FF0E0E454FD4F99819F
:1008100090838F5F8093DC028093DD0205C061E0EE
:10082000CE0101960E946D0381E090E00F90DF9170
:10083000CF9108950F931F93CF93DF938C01D62F01
:10084000E0914D04F0914E04138615861486DF0165
:100850001B9633961E92AE17BF07E1F7C0E0B801B2
:1008600080914D0490914E040E94530C811102C05E
:1008700080E010C0CD130AC067E0C8010E94D80D07
:10088000F8019781891302C081E004C0CF5FDC17B3
:1008900078F3E5CFDF91CF911F910F9108952F92BB
:1008A0003F924F925F926F927F928F929F92AF9200
:1008B000BF92CF92DF92EF92FF920F931F93CF934D
:1008C000DF93CDB7DEB7A2970FB6F894DEBF0FBEA9
:1008D000CDBF9AA389A30E94C30F698B7A8B8B8BA0
:1008E0009C8B0E94EC0F4B015C0169A07AA028E56B
:1008F000620E711CA9A1BAA154968C910E94720F2C
:10090000F30191838083BC01990F880B990B0E949E
:10091000AE206B017C012DEC3CEC4CE054E40E94D9
:10092000FF1F87FF0BC011E026E636E646EE53E4D4
:10093000C701B6010E945E2118160CF010E00E945B
:10094000EC0FDC01CB0188199909AA09BB09813D8B
:100950009740A105B10510F4112361F20E94EC0F3C
:100960006D8B7E8B8F8B988F00E010E01A8219823E
:1009700029A13AA1205C3F4F3A8F298F49A15AA162
:100980004C5B5F4F5C874B8789A19AA1885B9F4F27
:100990009C8F8B8FA9A1BAA1A45BBF4FBE87AD87E7
:1009A000E9A1FAA1E05BFF4FFE8FED8F29A13AA1EB
:1009B0002C5A3F4F388B2F8749A15AA1465A5F4F77
:1009C0005E834D8329A03AA05BE5250E311C89A1E9
:1009D0009AA1885A9F4F98A38F8F0E94EC0FDC0139
:1009E000CB012D893E894F89588D821B930BA40B17
:1009F000B50B803D9740A105B10508F4DAC04989DF
:100A00005A89BA01550F880B990B0E94AE2020E03D
:100A100030E04AE754E40E94042020E030E040E85F
:100A20005AE30E9463212B013C01A9A1BAA1589667
:100A30002D913D914D915C915B970E9463214B01FB
:100A40005C01E981FA81BF0180E090E00E94AC2066
:100A50006B017C0129A03AA0F4E42F0E311C9B010C
:100A6000AC01D1016D917D918D919C910E940420EA
:100A70000E94D6219B01AC01C501B4010E946321F3
:100A800069837A838B839C83E9A1FAA16487758744
:100A900086879787248D358D468D578DC301B2018A
:100AA0000E9463212B013C0109A11AA1045B1F4F85
:100AB000A7019601D8016D917D918D919C910E9425
:100AC00004200E94D6219B01AC01C301B2010E9407
:100AD00063216D837E838F839887E9A1FAA1608B60
:100AE000718B828B938BA3019201C501B4010E948B
:100AF0006321A9A0BAA0F4E5AF0EB11CD5012D91D8
:100B00003D914D915C910E946321A70196010E9445
:100B100004206B017C01E9A1FAA1608371838283C7
:100B200093832D813E814F81588569817A818B81A4
:100B30009C810E9463219B01AC01A9A1BAA11496DA
:100B40006D937D938D939C931797C701B6010E9477
:100B50000420E9A1FAA16087718782879387D10178
:100B60001D921D921D921C921397F8011082118202
:100B700012821382D5011D921D921D921C92139711
:100B8000A2960FB6F894DEBF0FBECDBFDF91CF9116
:100B90001F910F91FF90EF90DF90CF90BF90AF909B
:100BA0009F908F907F906F905F904F903F902F908D
:100BB0000895E981FA813196FA83E983E9A1FAA1DE
:100BC00084A595A5A6A5B7A580A791A7A2A7B3A719
:100BD00084890E94720FA9A1BAA195969C938E93C5
:100BE000949756968C910E94720F3C01E9A1FAA14C
:100BF00097A386A324A135A13A872987B901330F8A
:100C0000880B990B0E94AE206B017C01A9A1BAA1AF
:100C1000D4968D909D90AD90BC90D797A5019401EE
:100C20000E94921F20E030E040E85AE30E946321D6
:100C30009B01AC01C501B4010E94931F9B01AC0153
:100C4000E9A1FAA164AB75AB86AB97ABC701B6015E
:100C50000E94921F4B015C01A9A1BAA19C966D93C1
:100C60007D938D939C939F97B301770C880B990B81
:100C70000E94AE206B017C01E9A1FAA140AC51AC0D
:100C800062AC73ACA30192010E94921F20E030E09D
:100C900040E85AE30E9463219B01AC01C301B20109
:100CA0000E94931F9B01AC01A9A1BAA1D8966D9394
:100CB0007D938D939C93DB97C701B6010E94921F91
:100CC0006B017C01E9A1FAA160AB71AB82AB93AB84
:100CD000A5019401C501B4010E9463219B01AC01EF
:100CE000A98DBA8D6D937D938D939C931397EB850E
:100CF000FC8560817181828193810E94931FAB8505
:100D0000BC856D937D938D939C931397A70196015A
:100D1000C701B6010E9463219B01AC01EB8DFC8DE4
:100D20006083718382839383AD85BE856D917D9150
:100D30008D919C910E94931FED85FE856083718348
:100D400082839383A9A1BAA198964D905D906D90EE
:100D50007C909B97A3019201C501B4010E94921F50
:100D6000E9A1FAA120A131A142A153A10E946321CE
:100D70009B01AC01C301B2010E94931FA9A1BAA1BA
:100D8000DC966D937D938D939C93DF97A7019601DD
:100D90000E9463219B01AC01ED8DFE8D6083718308
:100DA00082839383AF85B8896D917D918D919C915C
:100DB0000E94931FEF85F8896083718382839383F8
:100DC000D1018C91ED81FE818083AF8DB8A18D9191
:100DD0009C91E985FA858E179F0724F4E1E0D10103
:100DE000EC9302C0D1011C92E981FA81319729F478
:100DF000D1018C91ED81FE818083AD81BE819C917A
:100E0000F1018081981711F00F5F1F4F0431110518
:100E100008F0F5CDE2CD2F923F924F925F926F9204
:100E20007F928F929F92AF92BF92CF92DF92EF927A
:100E3000FF920F931F93CF93DF9300D000D0CDB7D5
:100E4000DEB79C838B830E94C30F6B017C0108EC8F
:100E500015E08B819C81885B9F4F9A8389832B80CF
:100E60003C809CE4290E311CEB81FC8186890E9428
:100E7000720FEB81FC8197A386A3BC01990F880BAD
:100E8000990B0E94AE204B015C01EB81FC8140ACD0
:100E900051AC62AC73ACA30192010E94921F20E09E
:100EA00030E040E85AE30E9463219B01AC01C3019A
:100EB000B2010E94931F9B01AC01EB81FC8160AFEA
:100EC00071AF82AF93AFC501B4010E94921FEB8155
:100ED000FC8160AB71AB82AB93AB9B01AC010E9418
:100EE0006321E981FA816083718382839383F101B5
:100EF00020813181428153810E94931FF1016083DF
:100F00007183828393830150110909F0ADCF20E0F2
:100F100030E049EB54E40E9404200E94D6214B01AA
:100F20005C01B601DD0C880B990B0E94AE2020E01D
:100F300030E04AE754E40E94042020E030E040E83A
:100F40005AE30E946321EB81FC81248D358D468D0F
:100F5000578D0E946321A50194010E946321EB81BA
:100F6000FC81608B718B828B938BF10110821182DB
:100F7000128213820F900F900F900F90DF91CF91FC
:100F80001F910F91FF90EF90DF90CF90BF90AF90A7
:100F90009F908F907F906F905F904F903F902F9099
:100FA00008951F920F920FB60F9211242F933F9323
:100FB0004F935F936F937F938F939F93AF93BF9361
:100FC000EF93FF938091B900887F803609F49CC02D
:100FD00068F5883209F45BC090F4803109F454C09C
:100FE00038F4882309F4F6C0883009F44DC0F6C0FF
:100FF000883109F44CC0803209F45DC0EFC0803400
:1010000009F468C048F4803309F455C0883309F006
:10101000E5C08093E102D8C0803509F44FC088351F
:1010200009F45DC0883409F0D9C0D6C0883909F404
:10103000C7C0A8F4883709F467C038F4883609F4C3
:1010400063C0803709F460C0C9C0883809F4B8C0EB
:10105000803909F45FC0803809F0C0C05BC0803BB4
:1010600009F486C038F4803A09F466C0883A09F475
:101070007FC0B4C0803C09F4A7C0883C09F4A4C078
:10108000883B09F48AC0AAC08091070310C09091E0
:10109000060380910503981770F5E091060381E03F
:1010A0008E0F80930603F0E0EB51FD4F808180931B
:1010B000BB0085EC86C08093E1028EC0E091060300
:1010C00081E08E0F809306038091BB00F0E0EB512E
:1010D000FD4F808390910603809105036EC0E091DF
:1010E000060381E08E0F809306038091BB00F0E041
:1010F000EB51FD4F80838091E40281116DC081E04E
:101100008093E30284EA61C083E08093E20210925C
:101110004E03CFCF80914E03803208F051C0E09152
:101120004E0381E08E0F80934E038091BB00F0E070
:10113000E25DFC4F8083BDCF85EC8093BC001092B4
:10114000E20280914E03803230F4E0914E03F0E0F1
:10115000E25DFC4F108260914E0370E0E0912C0341
:10116000F0912D038EE293E0099510924E0336C064
:1011700084E08093E20210922B0310922A03E09104
:101180002803F0912903099580912A03811105C054
:1011900081E080932A0310920803E0912B0381E001
:1011A0008E0F80932B03F0E0E85FFC4F80818093EB
:1011B000BB0090912B0380912A03981708F479CFF4
:1011C00085E88093BC000AC085EC8093BC00109237
:1011D000E20204C01092E1020E946303FF91EF91CA
:1011E000BF91AF919F918F917F916F915F914F913F
:1011F0003F912F910F900FBE0F901F901895CF9396
:10120000C82F81E00E94180D837E682F6C2B81E827
:10121000CF910C94090D80919C03853009F04DC04D
:1012200060E485EA0E94090D84E20E94180D809313
:10123000BB02789488E20E94180D8075D9F38091E2
:10124000530381110FC0E0914F03F091500380913F
:10125000530391E0980F9093530390919E03E80FEE
:10126000F11D908380E00E94180DE0914F03F091F2
:1012700050039091530321E0290F20935303E90F6A
:10128000F11D8083682F80915103909152030E9439
:101290001B0D90935203809351038091560320912C
:1012A000530390E0049630E082179307A4F08091F6
:1012B0005303883408F4BECF089588E20E94180DC5
:1012C00083FF09C084E080939C030E94FF0860E8CC
:1012D00085EA0C94090D089580919C03853021F4D2
:1012E00080915303882311F080E0089584E0809377
:1012F0009C030E94FF0881E0089588E20E94180D77
:10130000807521F080E00E94180DF7CF0895CF93EB
:1013100040935603FB0120E030E050E024173507EE
:1013200044F4D901A95ABC4F91919C932F5F3F4F30
:10133000F5CF86FD04C0807E90919D03890F809338
:10134000550360919E038FEF9FEF0E941B0D9093BA
:10135000520380935103909156038EEF891B809323
:101360009C030E947D098CE00E94FF0860E085EAF2
:101370000E94090D80919C038330DCF588E20E9475
:10138000180D87FDF7CF80919C0387FF1BC09091BC
:10139000560380919C03E0914F03F0915003E90FB5
:1013A000F11DE80FF11D87FDFA95C3816C2F809127
:1013B0005103909152030E941B0D9093520380930E
:1013C00051030DC080919C03882329F0813031F4B2
:1013D000C091520304C0C091510301C0CAEA6C2FEE
:1013E00080E80E94090D80919C038F5F80939C038D
:1013F000C1CFCF910895CF93DF93BC018BEA93E0E7
:101400000E947011EC0162E471E08BEA93E00E94AB
:1014100094118C0F9D1FDF91CF910895CF92DF9291
:10142000EF92FF92CF93DF936C01990FEE08FF08C4
:10143000F7FE1BC06DE28BEA93E00E946911EC019C
:1014400044275527BA014C195D096E097F092AE026
:101450008BEA93E00E94A9118C0F9D1FDF91CF9121
:10146000FF90EF90DF90CF9008952AE0B701A6019A
:101470008BEA93E0DF91CF91FF90EF90DF90CF90D8
:101480000C94A911CF92DF92EF92FF920F931F93CA
:10149000CF93DF93C82F162FD42FEFEFE60FE33053
:1014A00028F4F0E0E95EFE4FA08101C0A0E0B0E0CA
:1014B00020E836E948E950E00E94731F6B017C0187
:1014C000A12FB0E020E039E04DE350E00E94731F0F
:1014D000DC01CB018C0D9D1DAE1DBF1DBC01CD01DE
:1014E00022E0660F771F881F991F2A95D1F729E000
:1014F0003DE340E050E00E940E1FDA01C90136E0F2
:10150000880F991FAA1FBB1F3A95D1F780936704D4
:1015100090936804A0936904B0936A04D0939E03E7
:10152000DC2FDF71D0939D0364E170E080E090E0F8
:101530000E94890FDD2369F08BE099E0909306010A
:101540008093050180916900836080936900E89A27
:1015500007C0E89888EF9FE090930601809305010B
:101560002A9A229A2A9A84B18C6284B980E58CBD29
:101570008DB581608DBD6AEA8FEA0E94090D8FE208
:101580000E94180D8A3AB9F765E58FEA0E94090DA5
:101590008FE20E94180D8535B9F708EE14E0F801C6
:1015A0008491882341F03196649180680E94090DEE
:1015B0000E5F1F4FF4CF60919E0380EB0E94090DD8
:1015C000C0906704D0906804E0906904F0906A04C9
:1015D000B7018827992787E80E94090D99278F2D41
:1015E0007E2D6D2D88E80E94090D6C2D89E80E94E2
:1015F000090D84E080939C03C0936B048C2FDF91D2
:10160000CF911F910F91FF90EF90DF90CF900895B1
:10161000CF93DF93CDB7DEB728970FB6F894DEBF30
:101620000FBECDBF88E0EFE0F1E0DE011196019042
:101630000D928A95E1F780916304811102C08FEFCA
:1016400001C081E0FE013196E80FF11DE80FF11DA8
:101650006081606840E08BE594E028960FB6F894CE
:10166000DEBF0FBECDBFDF91CF910C94B10D40E036
:1016700061E08BE594E00E94B10D8BE39FE101975F
:10168000F1F70895CF93DF93AB01BC0122E08BEA21
:1016900093E00E94F211EC0162E471E08BEA93E0C6
:1016A0000E9494118C0F9D1FDF91CF91089580911E
:1016B0009C03843019F0853031F133C01092560309
:1016C0001092530360919E038FEF9FEF0E941B0DBA
:1016D000909352038093510384E593E090935003D9
:1016E00080934F0385E080939C030E947D0960E80E
:1016F00085EA0E94090D80E10E94FF0862E08EE900
:101700000E94090D0EC0809156032091530390E072
:10171000049630E0821793073CF08091530388349D
:1017200018F48FEF9FEF089584E080939C030E944C
:10173000FF0880915603833418F081E090E008950B
:101740008091510390915203892BB9F780915503F1
:1017500086FF11C030919D033F3169F02091550300
:101760002F7181E090E0231302C080E090E091951A
:1017700081959109089580E090E008958F929F925D
:10178000AF92BF92CF92DF92EF92FF920F931F938F
:10179000CF93DF938C01EB0180914D0490914E0427
:1017A0000E94A70E882309F43DC0B80180914D0422
:1017B00090914E040E947A0E40E06EEB80914D04B1
:1017C00090914E040E94380E8E015E0189E0A80EB1
:1017D000B11C80904D0490904E0488E0C82ED12C0E
:1017E000EE24E394F12CC4010E94E50D8111FE2842
:1017F000EE0CE1E0CE1AD108B1F7F801F1928F01B9
:10180000EA15FB0531F780914D0490914E040E943A
:10181000A70E813039F468E0CE010E94D80D91E026
:101820002885821390E0892FDF91CF911F910F912E
:10183000FF90EF90DF90CF90BF90AF909F908F90F0
:101840000895CF93DF93CDB7DEB729970FB6F894FD
:10185000DEBF0FBECDBFFC0120812031D1F0BE0123
:101860006F5F7F4F0E94BE0B882389F08D818F337D
:1018700061F020F48F3159F489E00CC08F3519F0F4
:101880008F3739F004C08BE005C08AE003C080E0E8
:1018900001C08CE029960FB6F894DEBF0FBECDBF15
:1018A000DF91CF910895AF92BF92CF92DF92EF92E6
:1018B000FF920F931F93CF93DF931F92CDB7DEB7A5
:1018C0005C01D62EE72EFC018585811105C0C5017E
:1018D0000E94A70E811106C0F50113861586148695
:1018E00080E065C040E060EFC5010E94380E01E075
:1018F000F12CC12C11E0C5010E94E50D682FC50136
:1019000069830E94E50D6981613019F48130B9F471
:1019100033C04F2D50E068131BC0F50183851817A5
:1019200030F4E40FF51F8381802349F402C01817B7
:1019300031F060E0193058F4F501148708C0F50162
:10194000EF0DF11D8381802B838361E009C0C12EDF
:10195000F501E40FF51F9381802F80958923838300
:10196000C5010E94090E1F5F000F11F4F39401E0FE
:10197000F7E0FF1508F0BFCF113408F4ADCFF50143
:10198000C386C11002C081E08587F5018381882369
:1019900009F4A2CFD5011396ED2DFE2D9501255FFB
:1019A0003F4F8D918193A217B307D9F781E00F9034
:1019B000DF91CF911F910F91FF90EF90DF90CF902B
:1019C000BF90AF90089508953FB7F89480917E043A
:1019D00090917F04A0918004B091810426B5A89BCA
:1019E00005C02F3F19F00196A11DB11D3FBFBA2FB1
:1019F000A92F982F8827820F911DA11DB11DBC0111
:101A0000CD0142E0660F771F881F991F4A95D1F7D5
:101A10000895E8982A988EBD0DB407FEFDCF8EB5C7
:101A20006EBD0DB407FEFDCF8EB52A9AE89A0895D3
:101A300060E00C94090D8627682F62956827062EB2
:101A4000669566956025062E669560256770082E5A
:101A5000892F669507946795902D8627069467953C
:101A6000902586270895CF93FC01C48121E020931F
:101A7000DE02C09382041092DC021092DD028385A4
:101A8000682B8FE993E00E94EB038091DD028132A5
:101A900008F046C09091E2029111FCCF92E0909341
:101AA000E20291E09093E4029FEF9093E1021092A2
:101AB000060380930503ACEBB2E025EE32E0F901BA
:101AC0009E2F921B981718F49D919193F9CF109225
:101AD000070380910703CC0FC82BC09307038091A5
:101AE000E302813061F41092E30280910703809356
:101AF000BB008091BC0083FDF8CF85EC01C085EE72
:101B00008093BC008091E2028230E1F38091E10297
:101B10008F3F31F08091E102803211F08091E1023B
:101B20001092DC021092DD021092DE02CF91089535
:101B30000F931F93CF938C01C62F0E94330D6C2FF0
:101B40006460C8010E94330D6C2F6B7FC8010E9436
:101B5000330D83EC90E00197F1F7CF911F910F9136
:101B60000895FF920F931F93CF93DF931F92CDB7EA
:101B7000DEB78C01F62E962F907F692F642BC8015B
:101B800049830E94980D80E1F89EB001112449819B
:101B9000642BC8010F90DF91CF911F910F91FF909F
:101BA0000C94980D41E00E94B10D81E090E0089501
:101BB000DC01E0E0615038F08D91E827F0E0EB596E
:101BC000FA4FE491F7CF8E2F0895FC0190810180A8
:101BD000F281E02DF8948181892B81832281892FE4
:101BE000809528232283A7E0B0E01197F1F72181A7
:101BF00082238183A3E2B0E01197F1F7808178948A
:101C0000EFECF0E03197F1F7982381E009F480E000
:101C10000895FC0190810180F281E02D892F80954B
:101C200060FF12C0F8942281822382838181892BF4
:101C30008183A3E2B0E01197F1F78281982B928320
:101C4000789487ED90E011C0F894228182238283FA
:101C50008181892B8183AFEFB0E01197F1F7828109
:101C6000982B928378948FE090E00197F1F7089594
:101C7000CF92DF92EF92FF920F931F93CF93DF9358
:101C80001F92CDB7DEB76C01E62E08E010E0FF240E
:101C9000F39461E08F2D8E2109F460E0C601498341
:101CA0000E94090EFF0C015011094981011511050F
:101CB00081F7411115C0F894D6011196ED91FC9170
:101CC000129791818C918095892381831196ED9152
:101CD000FC91129792818C918095892382837894CC
:101CE0000F90DF91CF911F910F91FF90EF90DF90B8
:101CF000CF900895CF92DF92EF92FF920F931F93B0
:101D0000CF93DF931F92CDB7DEB78C01F62E40E064
:101D100065E579830E94380ECF2C7981D72E760124
:101D200088E0E80EF11CF60161916F0140E0C80106
:101D30000E94380ECE14DF04B1F70F90DF91CF91DF
:101D40001F910F91FF90EF90DF90CF900895FC01CD
:101D500090810180F281E02DF8948181292F2095D6
:101D60008223818378948DE743E050E0815021F114
:101D7000DA011197F1F730813923C1F3F8948281A8
:101D8000822382838181892B81837894ABE7B7E0BA
:101D90001197F1F7F894818128232183A3E1B1E021
:101DA0001197F1F78081982381E009F080E0789421
:101DB000E3E6F6E03197F1F70895833081F028F4F7
:101DC000813099F08230A1F008958730A9F08830F1
:101DD000B9F08430D1F4809180008F7D03C0809170
:101DE00080008F7780938000089584B58F7702C03C
:101DF00084B58F7D84BD08958091B0008F7703C036
:101E00008091B0008F7D8093B00008951F93CF9391
:101E1000DF93282F30E0F901EF5AFA4F8491F9014E
:101E2000E75DFA4FD491F901EB5EFA4FC491CC23F0
:101E3000C9F0162F81110E94DD0EEC2FF0E0EE0F9D
:101E4000FF1FE95BFA4FA591B4918FB7F894111178
:101E500005C09C91ED2FE095E92302C0EC91ED2B9C
:101E6000EC938FBFDF91CF911F910895CF93DF93B4
:101E700090E0FC01E75DFA4F2491FC01EB5EFA4F24
:101E80008491882361F190E0880F991FFC01E35C45
:101E9000FA4FC591D491FC01E95BFA4FA591B49139
:101EA000611109C09FB7F8948881209582238883A7
:101EB000EC912E230BC0623061F49FB7F894388107
:101EC000822F809583238883EC912E2B2C939FBFA8
:101ED00006C08FB7F894E8812E2B28838FBFDF913F
:101EE000CF9108958E3008F08E5087708064809373
:101EF0007C0080917A00806480937A0080917A00DF
:101F000086FDFCCF809178002091790090E0922BA3
:101F100008958F929F92AF92BF92CF92DF92EF92ED
:101F2000FF926B017C010E94E40C4B015C01C11427
:101F3000D104E104F104F1F00E94E40CDC01CB01D6
:101F400088199909AA09BB09883E9340A105B105E2
:101F500070F321E0C21AD108E108F10888EE880E7A
:101F600083E0981EA11CB11CC114D104E104F1044A
:101F700019F7DDCFFF90EF90DF90CF90BF90AF903B
:101F80009F908F9008958EE480937C0062E070E0D3
:101F900080E090E00E94890F80917A0080648093B5
:101FA0007A0080917A0086FDFCCF809178002091A4
:101FB000790030E0322F2227A901330F660B770B0F
:101FC0009A01AB01282B60E070E381E190E00E9470
:101FD000301FCA01B90108952FB7F89460917A04AF
:101FE00070917B0480917C0490917D042FBF0895B3
:101FF0000895CF92DF92EF92FF920F931F93CF93AA
:10200000DF936C017A018B01C0E0D0E0CE15DF05D3
:1020100089F0D8016D918D01D601ED91FC9101906F
:10202000F081E02DC6010995892B11F47E0102C0D3
:102030002196ECCFC701DF91CF911F910F91FF90B7
:10204000EF90DF90CF900895FC01918D828D9817CD
:1020500061F0828DDF01A80FB11D5D968C91928D8C
:102060009F5F9F73928F90E008958FEF9FEF089589
:10207000FC01918D828D981731F0828DE80FF11D52
:10208000858D90E008958FEF9FEF0895FC01918D6D
:10209000228D892F90E0805C9F4F821B91098F7366
:1020A000992708958BEA93E00E94461021E0892B3E
:1020B00009F420E0822F0895FC01848DDF01A80F30
:1020C000B11DA35ABF4F2C91848D90E001968F7360
:1020D0009927848FA689B7892C93A089B1898C917F
:1020E00080648C93938D848D981306C00288F38945
:1020F000E02D80818F7D80830895EF92FF920F9372
:102100001F93CF93DF93EC0181E0888F9B8D8C8DA3
:10211000981305C0E889F989808185FD24C0F62ED1
:102120000B8D10E00F5F1F4F0F731127E02E8C8D6A
:10213000E8120CC00FB607FCFACFE889F989808154
:1021400085FFF5CFCE010E945C10F1CF8B8DFE0193
:10215000E80FF11DE35AFF4FF0820B8FEA89FB89EC
:102160008081806207C0EE89FF896083E889F989F0
:1021700080818064808381E090E0DF91CF911F9126
:102180000F91FF90EF900895CF93DF93EC01888D2E
:102190008823C9F0EA89FB89808185FD05C0A8896B
:1021A000B9898C9186FD0FC00FB607FCF5CF8081F1
:1021B00085FFF2CFA889B9898C9185FFEDCFCE013B
:1021C0000E945C10E7CFDF91CF91089580E090E00E
:1021D000892B29F00E94521081110C94000008955F
:1021E0000E9430220F931F930E94EC0F0091CF04A6
:1021F0001091D0042091D1043091D204DC01CB01A4
:10220000801B910BA20BB30B8F369105A105B10575
:1022100028F0809154018F5F809354010E94EC0F4D
:102220006093CF047093D0048093D1049093D20430
:102230001F910F9108951F920F920FB60F921124C4
:102240002F933F934F935F936F937F938F939F93BE
:10225000AF93BF93EF93FF93E0910701F0910801D3
:102260000995FF91EF91BF91AF919F918F917F91D0
:102270006F915F914F913F912F910F900FBE0F90F3
:102280001F9018951F920F920FB60F9211242F9343
:102290003F934F935F936F937F938F939F93AF93EE
:1022A000BF93EF93FF93E0910501F091060109952B
:1022B000FF91EF91BF91AF919F918F917F916F911E
:1022C0005F914F913F912F910F900FBE0F901F90F4
:1022D0001895DC01ED91FC910190F081E02D0994BD
:1022E000EF92FF920F931F93CF93DF938C017B01AB
:1022F000C0E0D0E0F701EC0FFD1F6491662361F0B0
:10230000D801ED91FC910190F081E02DC801099573
:10231000892B11F02196EECFCE01DF91CF911F9145
:102320000F91FF90EF9008956115710579F0FB0111
:1023300001900020E9F73197AF01461B570BDC01F4
:10234000ED91FC910280F381E02D099480E090E012
:1023500008954F925F926F927F92EF92FF920F9348
:102360001F93CF93DF93CDB7DEB7A1970FB6F89445
:10237000DEBF0FBECDBF7C01FA01CB0119A2223016
:1023800008F42AE08E010F5D1F4F422E512C612C64
:10239000712CBF01A30192010E940E1FF901CA0115
:1023A000015011096A3014F4605D01C0695CD80104
:1023B0006C93232B242B252B61F7B801C7010E94B6
:1023C0009411A1960FB6F894DEBF0FBECDBFDF917A
:1023D000CF911F910F91FF90EF907F906F905F9042
:1023E0004F9008954F925F926F927F928F929F923B
:1023F000AF92BF92CF92DF92EF92FF92CF93DF9393
:10240000EC016A017B01B22E9A01AB01C701B60152
:102410000E941622882319F065E471E027C0260186
:102420003701E89477F82FEF3FEF4FE75FE7C301FD
:10243000B2010E94162281110DC02FEF3FEF4FE72E
:102440005FE7C301B2010E94FF1F18161CF469E484
:1024500071E00CC02FEF3FEF4FE75FE4C701B6011B
:102460000E945E2118169CF46DE471E0CE01DF91AC
:10247000CF91FF90EF90DF90CF90BF90AF909F9063
:102480008F907F906F905F904F900C9494112FEFEE
:102490003FEF4FE75FECC701B6010E94FF1F87FDCA
:1024A000E3CF20E030E0A901C701B6010E94FF1F81
:1024B00087FF0AC06DE2CE010E9469114C01F7FA54
:1024C000F094F7F8F09402C0812C912CA12C60E0DC
:1024D00070E080E09FE3AB1441F020E030E040E2A8
:1024E00051E40E940420A394F6CF9B01AC01C701E4
:1024F000B6010E94931F2B013C010E947D206B01BD
:102500007C010E94AC209B01AC01C301B2010E947E
:10251000921F2B013C012AE0B701A601CE010E94C7
:10252000A9117C01E80CF91CBB2039F061E571E0D0
:10253000CE010E949411E80EF91EDB2CDD2029F15A
:1025400020E030E040E251E4C301B2010E94632187
:102550002B013C010E947D204B01A12CB12C2AE0D3
:10256000B501A401CE010E94A911E80EF91EC50112
:10257000B4010E94AC209B01AC01C301B2010E94D6
:10258000921F2B013C01DA94D9CFC701DF91CF9183
:10259000FF90EF90DF90CF90BF90AF909F908F9083
:1025A0007F906F905F904F9008951F920F920FB69B
:1025B0000F9211242F933F934F935F936F937F93C9
:1025C0008F939F93AF93BF93EF93FF938BEA93E027
:1025D0000E945C10FF91EF91BF91AF919F918F91FD
:1025E0007F916F915F914F913F912F910F900FBE0F
:1025F0000F901F9018951F920F920FB60F921124F3
:102600002F938F939F93EF93FF93E091BB03F091F0
:10261000BC038081E091C103F091C20382FD12C02E
:1026200090818091C4038F5F8F732091C5038217BF
:1026300051F0E091C403F0E0E555FC4F958F809395
:10264000C40301C08081FF91EF919F918F912F91E1
:102650000F900FBE0F901F9018950F931F93CF935D
:102660008C016DE676E08BEA93E00E947011809118
:1026700055038F7190E00E940E0A6BE676E08BEABC
:1026800093E00E947011C0E02C2F30E0201731073A
:10269000A4F4F901E95AFC4F408150E060E070E099
:1026A0002AE08BEA93E00E94A91169E676E08BEAC2
:1026B00093E00E947011CF5FE7CF67E676E08BEA88
:1026C00093E00E9470118091BB0290E095958795F0
:1026D0009195819591090E940E0A65E676E08BEA54
:1026E00093E00E94701162E471E08BEA93E0CF9175
:1026F0001F910F910C9494111F93CF93DF93EC01D2
:10270000FE011491112371F01A3029F46DE08BEA67
:1027100093E00E946911612F8BEA93E00E94691196
:102720002196EECFDF91CF911F91089561E089E06E
:102730000E94060F69E170E080E090E00E94890F3E
:1027400060E089E00E94060F61E089E00E94060FC8
:1027500069E170E080E090E00E94890F60E089E02C
:102760000C94060F1F920F920FB60F9211248F93A5
:102770008091CE048F5F8093CE048F910F900FBE17
:102780000F901F9018951F920F920FB60F92112461
:102790002F933F938F939F93AF93BF9380917A042E
:1027A00090917B04A0917C04B0917D043091D3047E
:1027B00023E0230F2D3720F40196A11DB11D05C084
:1027C00026E8230F0296A11DB11D2093D304809308
:1027D0007A0490937B04A0937C04B0937D04809151
:1027E0007E0490917F04A0918004B09181040196B1
:1027F000A11DB11D80937E0490937F04A09380045B
:10280000B0938104BF91AF919F918F913F912F9190
:102810000F900FBE0F901F901895CF93DF93CDB7F9
:10282000DEB7A6970FB6F894DEBF0FBECDBF789483
:1028300084B5826084BD84B5816084BD85B58260C5
:1028400085BD85B5816085BD80916E008160809376
:102850006E001092810080918100826080938100DF
:1028600080918100816080938100809180008160EF
:10287000809380008091B10084608093B10080914A
:10288000B00081608093B00080917A008460809372
:102890007A0080917A00826080937A0080917A0039
:1028A000816080937A0080917A00806880937A00BA
:1028B0001092C10064E670E080E090E00E94890F11
:1028C0008091B602882371F080E090E0A2E0B3E44A
:1028D0008093B2029093B302A093B402B093B50276
:1028E0008EE60DC086E696E6A0E8B3E48093B202D9
:1028F0009093B302A093B402B093B50286EE809396
:10290000B10261E089E00E94360F61E089E00E9437
:10291000060F62E088E00E94360F61E085E00E94C9
:10292000360F60E085E00E94060F62E083E00E94BF
:10293000360FE091BB03F091BC0382E08083E0910D
:10294000B703F091B8031082E091B903F091BA0394
:1029500083E380831092C303E091BF03F091C0032F
:1029600086E08083E091BD03F091BE0380818061A9
:102970008083E091BD03F091BE03808188608083F5
:10298000E091BD03F091BE03808180688083E09177
:10299000BD03F091BE0380818F7D808365EB70E085
:1029A0008BEA93E00E9470116AE077ED83E390E494
:1029B0000E94420B8FE990E00E94FB0984E990E0BD
:1029C0000E94FB096AE070E080E090E00E94890FBD
:1029D0004091030160910201809101010E94420A2D
:1029E0000AE010E01093DC010093DB010E946C0907
:1029F0008AA381110BC00E94570B90935D018093B5
:102A00005C0180915C0190915D01F0CF48E16BED3C
:102A100071E080E00E94870964E670E080E090E069
:102A20000E94890F01501109E8F680919C038430BF
:102A300064F483B7817F8C6083BF83B7816083BF79
:102A4000889583B78E7F83BFF0CF1092DC01109200
:102A5000DB01E0914D04F0914E0413861586148637
:102A6000DF011B9633961E92AE17BF07E1F7109257
:102A70004C0411E0BE016F5F7F4F80914D04909137
:102A80004E040E94530C882309F449C067E0CE012C
:102A900001960E94D80D98858913ECCF8091480447
:102AA000811126C080914D0490914E040E94A70E82
:102AB000BE016F5F7F4F80914D0490914E040E9444
:102AC0007A0E40E064EB80914D0490914E040E9498
:102AD000380E80914D0490914E040E94E50D082F10
:102AE00080914D0490914E040E94A70E002361F145
:102AF00000914904CE0101960E94210C801718F420
:102B00008091490404C0CE0101960E94210C80935B
:102B1000490480914C048F5F80934C04ABCFC090EC
:102B20004C04C092D70107EA11E05801E12CEC14E3
:102B300071F06E2DC5010E941A0438E0A30EB11C7D
:102B4000882329F0E394F3CF10934804D1CFE12CEC
:102B50008FE7882E9CE0992EEC1409F4A3C0C801DD
:102B60000E94210C8C3009F499C0BE016F5F7F4F29
:102B7000C8010E94BE0B882309F490C0D8018C9133
:102B8000803109F48BC08D8280914D0490914E0468
:102B90000E94A70EB80180914D0490914E040E94AE
:102BA0007A0E40E06EE480914D0490914E040E94B4
:102BB000380E40E06B8180914D0490914E040E944C
:102BC000380E40E06C8180914D0490914E040E943B
:102BD000380EF8018081803141F040E06D818091B4
:102BE0004D0490914E040E94380E80914D049091B6
:102BF0004E040E94A70EB80180914D0490914E049E
:102C00000E947A0E4091480468E480914D049091AE
:102C10004E040E94380E64E170E080E090E00E9473
:102C2000890F80914804882331F06AE070E080E0E9
:102C300090E00E94890F80914D0490914E040E9473
:102C4000A70E809149048C3008F48CE080934904ED
:102C50008C3021F190924904A12CB12C80914C042C
:102C600090E0A816B906D4F46A2DCE0149960E94C8
:102C70001A0470904904CE0149960E94210C8715D0
:102C800018F48091490404C0CE0149960E94210C99
:102C900080934904FFEFAF1ABF0AE0CFE394085FC7
:102CA0001F4F5ACFE11003C01092D80109C081E034
:102CB0008093D80126E02E1518F486E08093D70182
:102CC0001092E0021092DF021092DC021092DD02FC
:102CD0001092E20281E08093E4021092E30261E04C
:102CE00082E10E94060F61E083E10E94060F80915D
:102CF000B9008E7F8093B9008091B9008D7F809359
:102D0000B90088E48093B80085E48093BC001092F9
:102D1000600480916504823018F098E0909360041C
:102D20008093630462E370E080E090E00E94890F8A
:102D3000609166048BE594E00E94330D68EE73E0C9
:102D400080E090E00E94890F60E38BE594E00E94B0
:102D5000980D0BE416E4C8010197F1F760E38BE5E9
:102D600094E00E94980DC8010197F1F760E38BE5AC
:102D700094E00E94980D83E592E00197F1F760E2FC
:102D80008BE594E00E94980D60916004606240E0E1
:102D90008BE594E00E94B10D84E08093610440E0F3
:102DA0006CE08BE594E00E94B10D0E94370B82E04D
:102DB0008093620440E066E08BE594E00E94B10DF0
:102DC00040E062E08BE594E00E94B10D8BE39FE16F
:102DD0000197F1F788E08093660460E08BE594E06A
:102DE0000E94330D6CEC70E08BE594E00E94701152
:102DF00022E04AE057ED63E370E48BE594E00E9443
:102E0000F2110E94080B6EEB70E08BE594E00E94DB
:102E1000701160ED77E080E090E00E94890F81E022
:102E20000E94720F181619064CF481E08093F3018A
:102E30008091D9018F5F8093D90102C01092F30174
:102E400082E00E94720F181619064CF481E08093FC
:102E5000DA018091D9018F5F8093D90102C010926D
:102E6000DA0160E089E00E94060F61E08EE00E94D6
:102E7000360F61E08EE00E94360F61E08EE00E9426
:102E8000060F61E08EE00E94360F60E08EE00E9447
:102E9000060F60E08EE00E94360F64EF71E080E084
:102EA00090E00E94890F04EF16E0812C912C5401D0
:102EB00080E00E94720FDC01B2509D010E94551FFC
:102EC000860E971EA81EB91E0150110989F7C5016B
:102ED000B4010E94AC2020E030E84EED54E40E94A2
:102EE00004200E94D62122E538EB4EE55FE30E94E4
:102EF000632160935501709356018093570190931D
:102F0000580120E030E044EB52E40E945E211816A4
:102F100024F481E08093F40102C01092F4010E9435
:102F2000370B64E972E08BEA93E00E9470116DEC5C
:102F30007CEC85EB92E40E94420B69E872E08BEA3C
:102F400093E00E9470116DEC7CEC85EB92E40E94A2
:102F5000420B6FE772E08BEA93E00E9470114091A0
:102F6000550150915601609157017091580122E02E
:102F70008BEA93E00E94F2118DE792E00E94FB0938
:102F80008091F401882309F445C06CE672E08BE57A
:102F900094E00E94701181E492E00E94FB0980910C
:102FA000B602882331F065E372E08BEA93E00E9479
:102FB00070116EE272E08BEA93E00E9470116091F2
:102FC000B2027091B3028091B4029091B5020E9456
:102FD000420B67E272E08BEA93E00E94701140912D
:102FE000B10250E060E070E02AE08BEA93E00E94DA
:102FF000A91185E292E00E94FB0967E172E08BEA89
:1030000093E00E9470116AE979E989ED9FE30E94DB
:10301000420B26C067E072E08BE594E00E947011DD
:1030200089ED91E00E94FB098091B602882321F08E
:1030300080ED91E00E94FB0960EC71E08BEA93E087
:103040000E9470114091B10250E060E070E02AE00F
:103050008BEA93E00E94A9118EEB91E00E94FB099C
:103060000E94080B64EB71E08BE594E00E94701104
:103070008091D901811107C085EA91E00E94FB0986
:103080006DE971E018C08091F301882351F081E966
:1030900091E00E94FB096CE871E08BE594E00E94EE
:1030A00070118091DA01882351F080E891E00E944C
:1030B000FB096CE771E08BE594E00E94701160ED14
:1030C00077E080E090E00E94890F8091D80188230A
:1030D00059F164E771E08BEA93E00E94701140912E
:1030E000D70150E060E070E02AE08BEA93E00E94B4
:1030F000A9118BE691E00E94FB090E94370B60E664
:1031000071E08BE594E00E9470114091D70150E08E
:1031100060E070E02AE08BE594E00E94A9110E9433
:10312000080B63E571E01AC080E491E00E94FB099E
:103130000E94370B65E371E08BE594E00E9470110B
:103140004091D70150E060E070E02AE08BE594E028
:103150000E94A9110E94080B68E271E08BE594E0DF
:103160000E94701160ED77E080E090E00E94890F8E
:103170000E94370B6BE171E08BE594E00E947011C7
:103180000E94080B60E171E08BE594E00E947011F1
:1031900081E091E00E94FB096BEF70E08BEA93E025
:1031A0000E9470114091010150E060E070E02AE05F
:1031B0008BEA93E00E94A91164EF70E08BEA93E040
:1031C0000E94701180910201813031F46DEE70E047
:1031D0008BEA93E00E94701180910201823031F4F9
:1031E00066EE70E08BEA93E00E947011809102011C
:1031F000833031F46FED70E08BEA93E00E94701140
:1032000065ED70E08BEA93E00E94701180900301FD
:1032100090900401092C000CAA08BB08B7FE0EC050
:103220006DE28BEA93E00E94691144275527BA01A9
:10323000481959096A097B092AE003C02AE0B50147
:10324000A4018BEA93E00E94A91162E471E08BEA89
:1032500093E00E9494118BEB92E00E947C1364E156
:1032600070E080E090E00E94890F82EF90E19093FF
:1032700008018093070180916900837F88608093B3
:103280006900E99A1092EF011092F0011092F10199
:103290001092F20181E090E090936C0280936B02B7
:1032A0004DEC5CEC65EB72E440937102509372025A
:1032B000609373027093740280E090E0A0E0B4E445
:1032C00080938D0290938E02A0938F02B093900210
:1032D00022E030E03093100220930F024093150259
:1032E0005093160260931702709318028093310274
:1032F00090933202A0933302B09334022091F401F0
:10330000222309F444C00091B2021091B30220912B
:10331000B4023091B50210926A02109269020093D1
:103320006D0210936E0220936F02309370024AE98F
:1033300059E969ED7FE340937502509376026093FB
:103340007702709378028093890290938A02A09307
:103350008B02B0938C0210920E0210920D02009319
:10336000110210931202209313023093140240931F
:10337000190250931A0260931B0270931C028093EF
:103380002D0290932E02A0932F02B0933002BAE93F
:103390008B2EB9E99B2EB9EDAB2EBFE3BB2E412C92
:1033A000512C612C14E4712EAE014F5F5F4F1A0156
:1033B00058E1520D5EA30E94EC0F6093B702709328
:1033C000B8028093B9029093BA028091B602882322
:1033D00071F080E090E0A2E0B3E48093B2029093B9
:1033E000B302A093B402B093B5028EE60DC026E6F8
:1033F00036E640E853E42093B2023093B3024093A0
:10340000B4025093B50286EE8093B1028091B2026D
:103410009091B302A091B402B091B50210926A02E9
:103420001092690280936D0290936E02A0936F02D6
:10343000B09370028092750290927602A092770209
:10344000B09278024092890250928A0260928B0276
:1034500070928C0210920E0210920D028093110253
:1034600090931202A0931302B09314028092190257
:1034700090921A02A0921B02B0921C0240922D025E
:1034800050922E0260922F0270923002E9E5F5E030
:103490008491E1E3F5E01491EDE1F5E0049100237E
:1034A00081F081110E94DD0EE02FF0E0EE0FFF1F92
:1034B000E55FFA4FA591B4918C91182311F060E06B
:1034C00001C061E085E00E94060F8BEA93E00E9454
:1034D0004610892B09F428C18BEA93E00E9424103E
:1034E00090ED980F9A30B0F440915A0150915B01E1
:1034F0009AE0949F9001959F300D1124205331093B
:10350000A901480F511D87FD5A9550935B014093C7
:103510005A0108C18C3281F4E0915901E63408F077
:10352000FDC081E08E0F80935901F0E0E25AFE4F1A
:1035300080915A018083F2C081320CF4EDC0482F93
:10354000082E000C550B660B770BFA01E156F109BA
:10355000E631F10508F07BC0EC5CFF4F0C944F1F87
:1035600080915A0190915B01009739F0809301019D
:1035700040910301609102011EC080915A01843084
:1035800031F0883031F0893031F060E005C061E021
:1035900003C062E001C063E0862F90E090935B017E
:1035A00080935A01662309F456C06093020140914A
:1035B0000301809101010E94420A4DC040915A01CD
:1035C00080915B01409303018093040160910201AB
:1035D000F0CF80915A0190915B010097E1F1813029
:1035E000910519F41092B60236C00297A1F581E058
:1035F0008093B60230C081E020915A0130915B0186
:10360000232B09F480E08093000125C064EC74E072
:103610008BEA93E00E94701122E04DEC5CEC60EECE
:1036200071E48BEA93E00E94F21162EC74E08BEAA1
:1036300093E00E9470110FC08093A6018091590100
:103640008093A50180915A018093A40104C08BEB63
:1036500092E00E947C1369EB72E08BEA93E00E9497
:103660007011609101016F71605C8BEA93E00E94C0
:10367000691166EB72E08BEA93E00E947011809111
:1036800001018F7190E00E940E0A63EB72E08BEAF9
:1036900093E00E94701180910301909104010E94B7
:1036A0000E0A6FEA72E08BEA93E00E94701180913B
:1036B0000201813039F0823041F0833049F080E0FE
:1036C00090E008C081EB91E005C084E693E002C081
:1036D00083E993E00E940E0A6AEA72E08BEA93E0C3
:1036E0000E94701167EA72E08BEA93E00E94701109
:1036F0008091000190E00E940E0A61EA72E08BEA7C
:1037000093E00E9470118091B60290E00E940E0A30
:103710008FE992E00E94FB091092590110925B011F
:1037200010925A010E9496130E94570B90935D01CC
:1037300080935C0180915C0190915D01019649F15B
:1037400080915C0190915D01892BA1F460ED74E0A2
:103750008BEA93E00E9470118091560390E00E94E2
:103760002D138091550385FF17C08091550387FF66
:1037700087C212C080910001811192C26DEC74E089
:103780008BEA93E00E94701184E190E00E942D1377
:1037900087C28BA1882321F00E9496139AA19BA334
:1037A0008091A6018823C1F10E946C098823A1F1B0
:1037B00061E089E00E94060F68EC70E080E090E034
:1037C0000E94890F60E089E00E94060F87ED94E077
:1037D0000E947C134091A50150E060E070E02AE077
:1037E0008BEA93E00E94A91183ED94E00E947C1380
:1037F0008091A601813609F455C280E09091A40120
:10380000992311F09064892B4091A5016EE571E038
:103810000E9487091092A601C090B702D090B8020A
:10382000E090B902F090BA02A1E6CA16AAEEDA0652
:10383000AFEFEA06FA0640F0409103016091020101
:10384000809101010E94420A8091F5019091F60158
:10385000A091F701B091F801A7019601281B390B3F
:103860004A0B5B0BDA01C90189389341A105B10507
:1038700008F403C261E089E00E94060F62E370E091
:1038800080E090E00E94890F60E089E00E94060FCE
:103890001091F4018091F301112351F1882309F46F
:1038A00044C085E592E00E944F04609155027091FA
:1038B000560280915702909158020E947620709390
:1038C000DC016093DB0120E030E048EC52E46091E1
:1038D00061027091620280916302909164020E9481
:1038E00063210E9476207093E2016093E1011DC084
:1038F000882309F445C085E592E00E940B076B011F
:103900007C016091B10270E080E090E00E94AE2006
:103910009B01AC01C701B6010E9463210E94762081
:103920007093DC016093DB012BC08091DA01882366
:1039300039F189EF91E00E944F046091F901709193
:10394000FA018091FB019091FC010E947620709316
:10395000DE016093DD0120E030E048EC52E460914C
:1039600005027091060280910702909108020E9460
:1039700063210E9476207093E2016093E1011DC0F3
:103980008091DA018823C9F089EF91E00E940B074A
:103990006B017C016091B10270E080E090E00E94D8
:1039A000AE209B01AC01C701B6010E9463210E94B9
:1039B00076207093DE016093DD012091DB01309170
:1039C000DC018091DD019091DE01820F931F9093C5
:1039D000E0018093DF018091D90111110DC088238E
:1039E00029F18091B10244E6849FC0011124909393
:1039F000E2018093E1011AC0811118C085E592E0CF
:103A00000E944F0420E030E048EC52E460916102F3
:103A10007091620280916302909164020E9463211E
:103A20000E9476207093E2016093E1018091D801B9
:103A3000882309F4B5C080914D0490914E040E94F2
:103A4000A70E40E06CEC80914D0490914E040E94D2
:103A5000380E4091480464E480914D0490914E04E6
:103A60000E94380E80914A048823A9F0E09149040D
:103A7000E950E33040F4F0E0EE0FFF1FE75FFE4F48
:103A80006081718102C06EEE72E0072E000C880B1F
:103A9000990B0E94890F19A28091D70199A19817BB
:103AA00008F07EC059A1052F10E0980163E0220FB5
:103AB000331F6A95E1F7C90189559E4F7C01B10119
:103AC0000E94BE0B882359F1698198E0699FB0017B
:103AD0001124EA81F0E0FE2FEE27FF0FFF0FFF0F0A
:103AE000E62BF72BD7018C918031E1F4688570E0EB
:103AF0008F819B01281B3109C9019695982F882732
:103B0000979587950E94FA1E60517109E07F43E006
:103B1000EE0FFF1F4A95E1F76E0F7F1F04C060E8AC
:103B200074EE01C0BF01613834EE730764F1072EF3
:103B3000000C880B990B0E94AE2020E030E040E0A2
:103B40005CE30E9463216B017C0120E030E04AEFDE
:103B500052E40E94FF1F87FF16C020E030E04CE5D2
:103B600052ECC701B6010E945E21181664F420E0F1
:103B700030E040E251E4C701B6010E9463210E9497
:103B800076207DA36CA3000F111FF801ED51FE4FAD
:103B90004CA15DA15183408359A15F5F59A37CCFA4
:103BA000809154018823D1F0F894209154018091A0
:103BB000EF019091F001A091F101B091F201820F1B
:103BC000911DA11DB11D8093EF019093F001A09371
:103BD000F101B093F20110925401789488E1EBED79
:103BE000F1E0D10101900D928A95E1F764EE74E065
:103BF0008BEA93E00E9470114091010150E060E077
:103C000070E02AE08BEA93E00E94A911810162EE44
:103C100074E08BEA93E00E947011D8014D918D0100
:103C200050E060E070E02AE08BEA93E00E94A91186
:103C3000BEA1B013ECCF6CED74E08BEA93E00E9470
:103C4000701162E471E08BEA93E00E9494116AE0E3
:103C500070E080E090E00E94890F8091B70290911F
:103C6000B802A091B902B091BA028093F501909385
:103C7000F601A093F701B093F8010E94E6109BCBE8
:103C80008091550386FD0AC0809155038F71806C29
:103C900040E060E070E00E9487097ECD80E8F8CFC8
:103CA0001BA27ECD80E2AACD1092A2031092A103A6
:103CB00088EE93E0A0E0B0E08093A3039093A40388
:103CC000A093A503B093A6032EE131E03093A003A7
:103CD00020939F031092AE031092AD038093AF0325
:103CE0009093B003A093B103B093B2038EE291E03E
:103CF0009093AC038093AB0385EC90E09093B80372
:103D00008093B70384EC90E09093BA038093B90357
:103D100080EC90E09093BC038093BB0381EC90E037
:103D20009093BE038093BD0382EC90E09093C00318
:103D30008093BF0386EC90E09093C2038093C1030D
:103D40001092C4031092C5031092C6031092C703C9
:103D500010925E0410925D048EE391E090935C04F7
:103D600080935B0487E280935F0480E18093640426
:103D700082E0809365041092660460E084E00E9413
:103D8000360FEDE2F5E0E491E0936C04E9E1F5E053
:103D9000E491F0E0EE0FFF1FE55FFA4F85919491FB
:103DA00090936E0480936D041092770410927904BE
:103DB00010927804E7E7F4E0129284E0EF36F80717
:103DC000D9F783EE9CE090935A04809359048CE6D3
:103DD00094E090934E0480934D0410924C04109202
:103DE000480489E08093490481E080934A048093E9
:103DF0004B04089597FB072E16F4009407D077FD27
:103E000009D00E947E1F07FC05D03EF49095819555
:103E10009F4F0895709561957F4F0895A1E21A2EE6
:103E2000AA1BBB1BFD010DC0AA1FBB1FEE1FFF1F5E
:103E3000A217B307E407F50720F0A21BB30BE40BAE
:103E4000F50B661F771F881F991F1A9469F76095F5
:103E50007095809590959B01AC01BD01CF010895AF
:103E6000052E97FB1EF400940E94471F57FD07D0B4
:103E70000E940E1F07FC03D04EF40C94471F509570
:103E80004095309521953F4F4F4F5F4F0895909546
:103E90008095709561957F4F8F4F9F4F0895EE0FDE
:103EA000FF1F0590F491E02D09940E945D1F3323BC
:103EB00012F48A1B9B0B0C946E1FA29FB001B39F40
:103EC000C001A39F700D811D1124911DB29F700D23
:103ED000811D1124911D08950E945D1FB7FF089553
:103EE000821B930B08950E945D1FA59F900DB49FA8
:103EF000900DA49F800D911D11240895AA1BBB1B3A
:103F000051E107C0AA1FBB1FA617B70710F0A61BD9
:103F1000B70B881F991F5A95A9F780959095BC01FA
:103F2000CD0108955058BB27AA270E94AA1F0C94C0
:103F300024210E94162138F00E941D2120F039F41E
:103F40009F3F19F426F40C9413210EF4E095E7FB3F
:103F50000C940D21E92F0E94352158F3BA176207FE
:103F600073078407950720F079F4A6F50C94572180
:103F70000EF4E0950B2EBA2FA02D0B01B901900184
:103F80000C01CA01A0011124FF27591B99F0593FC8
:103F900050F4503E68F11A16F040A22F232F342F10
:103FA0004427585FF3CF469537952795A795F0405E
:103FB0005395C9F77EF41F16BA0B620B730B840B73
:103FC000BAF09150A1F0FF0FBB1F661F771F881F2B
:103FD000C2F70EC0BA0F621F731F841F48F4879583
:103FE00077956795B795F7959E3F08F0B0CF939575
:103FF000880F08F09927EE0F9795879508950E94EE
:10400000E92008F481E008950E9418200C942421EE
:104010000E941D2158F00E94162140F029F45F3FB4
:1040200029F00C940D2151110C9458210C9413215A
:104030000E94352168F39923B1F3552391F3951B21
:10404000550BBB27AA2762177307840738F09F5FB9
:104050005F4F220F331F441FAA1FA9F335D00E2E26
:104060003AF0E0E832D091505040E695001CCAF793
:104070002BD0FE2F29D0660F771F881FBB1F261756
:1040800037074807AB07B0E809F0BB0B802DBF012D
:10409000FF2793585F4F3AF09E3F510578F00C94FC
:1040A0000D210C9458215F3FE4F3983ED4F386959C
:1040B00077956795B795F7959F5FC9F7880F911D1D
:1040C0009695879597F90895E1E0660F771F881F09
:1040D000BB1F621773078407BA0720F0621B730BBC
:1040E000840BBA0BEE1F88F7E09508950E947D209F
:1040F0006894B1110C94582108950E943D2188F0D4
:104100009F5798F0B92F9927B751B0F0E1F0660F9B
:10411000771F881F991F1AF0BA95C9F714C0B130DC
:1041200091F00E945721B1E008950C945721672F18
:10413000782F8827B85F39F0B93FCCF3869577950B
:104140006795B395D9F73EF49095809570956195F4
:104150007F4F8F4F9F4F0895E89409C097FB3EF41F
:1041600090958095709561957F4F8F4F9F4F9923C4
:10417000A9F0F92F96E9BB279395F6958795779542
:104180006795B795F111F8CFFAF4BB0F11F460FF02
:104190001BC06F5F7F4F8F4F9F4F16C0882311F05A
:1041A00096E911C0772321F09EE8872F762F05C06E
:1041B000662371F096E8862F70E060E02AF09A9509
:1041C000660F771F881FDAF7880F9695879597F9FE
:1041D0000895990F0008550FAA0BE0E8FEEF161698
:1041E0001706E807F907C0F012161306E407F507EB
:1041F00098F0621B730B840B950B39F40A2661F05F
:10420000232B242B252B21F408950A2609F4A14001
:10421000A6958FEF811D811D089597F99F6780E80E
:1042200070E060E008959FEF80EC089500240A9408
:104230001616170618060906089500240A94121681
:104240001306140605060895092E0394000C11F4B4
:10425000882352F0BB0F40F4BF2B11F460FF04C061
:104260006F5F7F4F8F4F9F4F089557FD9058440FBA
:10427000551F59F05F3F71F04795880F97FB991FC5
:1042800061F09F3F79F08795089512161306140682
:10429000551FF2CF4695F1DF08C01616170618060F
:1042A000991FF1CF86957105610508940895E894EA
:1042B000BB2766277727CB0197F908950E94E9204D
:1042C00008F48FEF08950E9476210C9424210E9417
:1042D000162138F00E941D2120F0952311F00C9436
:1042E0000D210C94132111240C9458210E94352186
:1042F00070F3959FC1F3950F50E0551F629FF00139
:10430000729FBB27F00DB11D639FAA27F00DB11D51
:10431000AA1F649F6627B00DA11D661F829F2227DA
:10432000B00DA11D621F739FB00DA11D621F839F61
:10433000A00D611D221F749F3327A00D611D231F37
:10434000849F600D211D822F762F6A2F11249F5785
:1043500050409AF0F1F088234AF0EE0FFF1FBB1F88
:10436000661F771F881F91505040A9F79E3F510547
:1043700080F00C940D210C9458215F3FE4F3983E9B
:10438000D4F3869577956795B795F795E7959F5FF1
:10439000C1F7FE2B880F911D9695879597F9089583
:1043A00019F416F40C9413210C941B220E943D2145
:1043B000B8F39923C9F3B6F39F57550B87FF0E94B3
:1043C00029220024A0E640EA90018058569597954E
:1043D00028F4805C660F771F881F20F026173707A8
:1043E000480730F4621B730B840B202931294A2BB8
:1043F000A69517940794202531254A2758F7660F6C
:10440000771F881F20F026173707480730F4620B04
:10441000730B840B200D311D411DA09581F7B9014F
:10442000842F9158880F9695879508950E94E920CA
:10443000880B990B08959F3F31F0915020F4879598
:1044400077956795B795880F911D9695879597F9FC
:10445000089591505040660F771F881FD2F7089536
:0E44600081E090E0F8940C943522F894FFCFA0
:10446E00010501D200F80FF80F5E00BC00770100C5
:10447E00004000140054002B565A00000000EB03BD
:10448E00BB03B303A40396039503000000007D1045
:10449E00F90F461024103810C41000000000D20D81
:1044AE00F90F0D0A006E616E00696E66006F76661A
:0444BE00002E0000CC
:00000001FF
