:100000000C9439030C948C110C9465110C946103BD
:100010000C9461030C9461030C94FC130C94610325
:100020000C9461030C9461030C9461030C946103C0
:100030000C9461030C9461030C9461030C946103B0
:100040000C94F80F0C9461030C9445130C941F133B
:100050000C9461030C9461030C9461030C94610390
:100060000C949D070C9461031C1BBD1A271B271BB6
:10007000271B271BDE1A271BB01A271B271B271B32
:10008000271B271B271BE91AFB1A271B1C1B271BD7
:10009000271B061B737461727475702E2E2E004F11
:1000A00070656E456E657267794D6F6E69746F72BB
:1000B0002E6F726700656D6F6E50692056004F702D
:1000C000656E456E657267794D6F6E00656D6F6E1A
:1000D0005069205600204E6574776F726B2000398E
:1000E00031354D687A003836384D687A003433330C
:1000F0004D687A00204672657120004E6F6465205D
:100100000052464D3639435720496E69743A2000F3
:10011000426F6F74696E672E2E2E0052617370628B
:100120006572727920506900445331384232302070
:1001300054656D700044657465637465643A2000AD
:100140003020445331384232302064657465637422
:10015000656400445331384232302054656D70007C
:1001600044657465637465643A20002044533138F3
:100170004232300044657465637420004354320099
:100180004354203220646574656374004354312005
:10019000004354203120646574656374004E6F2001
:1001A00043542773006E6F20435420646574656365
:1001B000746564004465746563746564200056006A
:1001C000417373756D696E672056524D533A200026
:1001D000555341206D6F6465004143204E4F5420BC
:1001E0006465746563746564202D2041707061726C
:1001F000656E7420506F7765722063616C63206553
:100200006E61626C6564004143204E4F542044652A
:100210007465637465640050686173652053686930
:1002200066743A2000560056726D733A2000566389
:10023000616C3A2000555341206D6F6465203E206B
:100240000041432057617665204465746563746599
:1002500064202D205265616C20506F776572206399
:10026000616C6320656E61626C6564004143205778
:100270006176652044657465637465640056005654
:10028000524D53204143207E00435420322043618D
:100290006C3A2000435420312043616C3A20002006
:1002A00000205553412000207100204D487A002045
:1002B00040200020670020690020000A4176616923
:1002C0006C61626C6520636F6D6D616E64733A0A78
:1002D00020203C6E6E3E206920202020202D20739F
:1002E0006574206E6F6465204944732028737461BF
:1002F0006E64617264206E6F64652069647320614E
:10030000726520312E2E3330290A20203C6E3E208B
:10031000622020202020202D20736574204D487AF3
:100320002062616E64202834203D203433332C2039
:1003300038203D203836382C2039203D20393135C1
:10034000290A20203C6E6E6E3E2067202020202D42
:1003500020736574206E6574776F726B2067726F9F
:100360007570202852464D3132206F6E6C792061B5
:100370006C6C6F7773203231322C2030203D20613D
:100380006E79290A20203C6E3E2063202020202008
:10039000202D2073657420636F6C6C656374206D11
:1003A0006F64652028616476616E6365642C206EDD
:1003B0006F726D616C6C792030290A20202E2E2EF0
:1003C0002C3C6E6E3E2061202D2073656E6420648F
:1003D000617461207061636B657420746F206E6F4F
:1003E0006465203C6E6E3E2C207265717565737479
:1003F0002061636B0A20202E2E2E2C3C6E6E3E2038
:1004000073202D2073656E642064617461207061B7
:10041000636B657420746F206E6F6465203C6E6E34
:100420003E2C206E6F2061636B0A20202E2E2E2C16
:100430003C6E3E207020202D2053657420414320C7
:1004400041646170746572205663616C2031702064
:100450003D20554B2C203270203D205553410A2021
:100460002076202020202020202020202D205368AE
:100470006F77206669726D77617265207665727339
:10048000696F6E0A20203C6E3E20712020202020C3
:10049000202D20736574207175696574206D6F64FB
:1004A00065202831203D20646F6E277420726570AE
:1004B0006F727420626164207061636B657473296C
:1004C0000A005D005B656D6F6E50692E00203F0075
:1004D0004F4B0020620A00202D3E200020282D30A6
:1004E000290020004F4B2000005EBCE2613FDD830D
:1004F000C29C7E20A3FD1F419DC3217FFCA2401E04
:100500005F01E3BD3E6082DC237D9FC1421CFEA0F3
:10051000E1BF5D0380DE3C62BEE0025CDF81633DE3
:100520007C22C09E1D43A1FF4618FAA427799BC5D3
:1005300084DA3866E5BB5907DB856739BAE40658C3
:100540001947A5FB7826C49A653BD987045AB8E6B3
:10055000A7F91B45C6987A24F8A6441A99C7257BA3
:100560003A6486D85B05E7B98CD2306EEDB3510F93
:100570004E10F2AC2F7193CD114FADF3702ECC9283
:10058000D38D6F31B2EC0E50AFF1134DCE90722C73
:100590006D33D18F0C52B0EE326C8ED0530DEFB163
:1005A000F0AE4C1291CF2D73CA947628ABF5174953
:1005B0000856B4EA6937D58B5709EBB536688AD443
:1005C00095CB2977F4AA4816E9B7550B88D6346A33
:1005D0002B7597C94A14F6A8742AC896154BA9F723
:1005E000B6E80A54D7896B35010402000302048A75
:1005F000050506C30B2019421E2C25802E882F2DA1
:10060000370038003C8F3D106F20000000000023B1
:100610000026002900040404040404040402020265
:100620000202020303030303030102040810204033
:1006300080010204081020010204081020000000BC
:1006400000240027002A0000000000250028002BBD
:100650000000000008000201000003040700000081
:1006600000000000002900280020002000200000D9
:10067000541E11241FBECFEFD8E0DEBFCDBF11E066
:10068000A0E0B1E0EEE6F4E402C005900D92A435DE
:10069000B107D9F724E0A4E5B1E001C01D92A43D63
:1006A000B207E1F713E0C9E3D3E004C02197FE01EC
:1006B0000E944F1FC833D107C9F70E940D140C9434
:1006C00035220C94000085ED8093BC008091BC0025
:1006D00084FDFCCF1092E102089540912903262F5A
:1006E00030E0240F311D21323105DCF42091E1028C
:1006F0002430C9F4FC0180E090E0861758F4309172
:1007000029032191DC01A95FBC4FA30FB11D2C93DC
:100710000196F3CF80912903680F6093290380E04D
:10072000089581E0089582E00895089581E090E0C1
:100730003091DF022091DE02321710F480E090E069
:1007400091958195910908958091DF029091DE0243
:10075000891730F48F5F8093DF0280E090E0089586
:100760008FEF9FEF08958091DE0290E02091DF02ED
:10077000821B91090895CF92DF92EF92FF920F931F
:100780001F93CF93DF937C01262F972F8A018091AF
:10079000DD02882391F0C62FD72F6E01C40ED51E1F
:1007A000CC15DD0571F06991D701ED91FC910190B7
:1007B000F081E02DC7010995F3CF642F822F0E94AD
:1007C0006D03C801DF91CF911F910F91FF90EF90C2
:1007D000DF90CF900895CF93DF931F92CDB7DEB710
:1007E00069832091DD022223D1F02091DC022032A6
:1007F00040F021E030E0FC013383228380E090E090
:1008000015C08091DB02E82FF0E0E554FD4F99819F
:1008100090838F5F8093DB028093DC0205C061E0F0
:10082000CE0101960E946D0381E090E00F90DF9170
:10083000CF91089508952F923F924F925F926F92B9
:100840007F928F929F92AF92BF92CF92DF92EF9260
:10085000FF920F931F93CF93DF93CDB7DEB7A2978D
:100860000FB6F894DEBF0FBECDBF9AA389A30E9436
:10087000C30F698B7A8B8B8B9C8B0E94EC0F4B0187
:100880005C0169A07AA028E5620E711CA9A1BAA139
:1008900054968C910E94720FF30191838083BC0166
:1008A000990F880B990B0E94AE206B017C012DECF7
:1008B0003CEC4CE054E40E94FF1F87FF0BC011E0AA
:1008C00026E636E646EE53E4C701B6010E945E21F5
:1008D00018160CF010E00E94EC0FDC01CB01881917
:1008E0009909AA09BB09813D9740A105B10510F4FA
:1008F000112361F20E94EC0F6D8B7E8B8F8B988F92
:1009000000E010E01A82198229A13AA1205C3F4F31
:100910003A8F298F49A15AA14C5B5F4F5C874B8767
:1009200089A19AA1885B9F4F9C8F8B8FA9A1BAA1A7
:10093000A45BBF4FBE87AD87E9A1FAA1E05BFF4F83
:10094000FE8FED8F29A13AA12C5A3F4F388B2F876C
:1009500049A15AA1465A5F4F5E834D8329A03AA010
:100960005BE5250E311C89A19AA1885A9F4F98A357
:100970008F8F0E94EC0FDC01CB012D893E894F89BE
:10098000588D821B930BA40BB50B803D9740A1059E
:10099000B10508F4DAC049895A89BA01550F880BA4
:1009A000990B0E94AE2020E030E04AE754E40E9418
:1009B000042020E030E040E85AE30E9463212B014C
:1009C0003C01A9A1BAA158962D913D914D915C9100
:1009D0005B970E9463214B015C01E981FA81BF01B1
:1009E00080E090E00E94AC206B017C0129A03AA03D
:1009F000F4E42F0E311C9B01AC01D1016D917D916E
:100A00008D919C910E9404200E94D6219B01AC01F3
:100A1000C501B4010E94632169837A838B839C831F
:100A2000E9A1FAA16487758786879787248D358D1C
:100A3000468D578DC301B2010E9463212B013C01F9
:100A400009A11AA1045B1F4FA7019601D8016D915E
:100A50007D918D919C910E9404200E94D6219B0142
:100A6000AC01C301B2010E9463216D837E838F8339
:100A70009887E9A1FAA1608B718B828B938BA3017C
:100A80009201C501B4010E946321A9A0BAA0F4E5B6
:100A9000AF0EB11CD5012D913D914D915C910E94FD
:100AA0006321A70196010E9404206B017C01E9A14A
:100AB000FAA160837183828393832D813E814F816C
:100AC000588569817A818B819C810E9463219B0179
:100AD000AC01A9A1BAA114966D937D938D939C93BB
:100AE0001797C701B6010E940420E9A1FAA1608707
:100AF000718782879387D1011D921D921D921C924E
:100B00001397F8011082118212821382D5011D926F
:100B10001D921D921C921397A2960FB6F894DEBFF9
:100B20000FBECDBFDF91CF911F910F91FF90EF903E
:100B3000DF90CF90BF90AF909F908F907F906F90FD
:100B40005F904F903F902F900895E981FA81319600
:100B5000FA83E983E9A1FAA184A595A5A6A5B7A57D
:100B600080A791A7A2A7B3A784890E94720FA9A109
:100B7000BAA195969C938E93949756968C910E94C9
:100B8000720F3C01E9A1FAA197A386A324A135A184
:100B90003A872987B901330F880B990B0E94AE2041
:100BA0006B017C01A9A1BAA1D4968D909D90AD90C6
:100BB000BC90D797A50194010E94921F20E030E0DD
:100BC00040E85AE30E9463219B01AC01C501B401D6
:100BD0000E94931F9B01AC01E9A1FAA164AB75AB24
:100BE00086AB97ABC701B6010E94921F4B015C0117
:100BF000A9A1BAA19C966D937D938D939C939F9789
:100C0000B301770C880B990B0E94AE206B017C011D
:100C1000E9A1FAA140AC51AC62AC73ACA301920162
:100C20000E94921F20E030E040E85AE30E946321D6
:100C30009B01AC01C301B2010E94931F9B01AC0157
:100C4000A9A1BAA1D8966D937D938D939C93DB97C0
:100C5000C701B6010E94921F6B017C01E9A1FAA1B4
:100C600060AB71AB82AB93ABA5019401C501B4013C
:100C70000E9463219B01AC01A98DBA8D6D937D9378
:100C80008D939C931397EB85FC85608171818281A4
:100C900093810E94931FAB85BC856D937D938D934B
:100CA0009C931397A7019601C701B6010E94632187
:100CB0009B01AC01EB8DFC8D6083718382839383F8
:100CC000AD85BE856D917D918D919C910E94931F04
:100CD000ED85FE856083718382839383A9A1BAA188
:100CE00098964D905D906D907C909B97A30192019A
:100CF000C501B4010E94921FE9A1FAA120A131A16E
:100D000042A153A10E9463219B01AC01C301B20126
:100D10000E94931FA9A1BAA1DC966D937D938D9338
:100D20009C93DF97A70196010E9463219B01AC0170
:100D3000ED8DFE8D6083718382839383AF85B88947
:100D40006D917D918D919C910E94931FEF85F88903
:100D50006083718382839383D1018C91ED81FE81C5
:100D60008083AF8DB8A18D919C91E985FA858E170E
:100D70009F0724F4E1E0D101EC9302C0D1011C9261
:100D8000E981FA81319729F4D1018C91ED81FE81BD
:100D90008083AD81BE819C91F1018081981711F013
:100DA0000F5F1F4F0431110508F0F5CDE2CD2F92F2
:100DB0003F924F925F926F927F928F929F92AF92EB
:100DC000BF92CF92DF92EF92FF920F931F93CF9338
:100DD000DF9300D000D0CDB7DEB79C838B830E9419
:100DE000C30F6B017C0108EC15E08B819C81885B53
:100DF0009F4F9A8389832B803C809CE4290E311C71
:100E0000EB81FC8186890E94720FEB81FC8197A3A4
:100E100086A3BC01990F880B990B0E94AE204B0151
:100E20005C01EB81FC8140AC51AC62AC73ACA301C2
:100E300092010E94921F20E030E040E85AE30E94B5
:100E400063219B01AC01C301B2010E94931F9B016E
:100E5000AC01EB81FC8160AF71AF82AF93AFC50194
:100E6000B4010E94921FEB81FC8160AB71AB82AB3D
:100E700093AB9B01AC010E946321E981FA816083FD
:100E8000718382839383F101208131814281538177
:100E90000E94931FF10160837183828393830150C9
:100EA000110909F0ADCF20E030E049EB54E40E9495
:100EB00004200E94D6214B015C01B601DD0C880B99
:100EC000990B0E94AE2020E030E04AE754E40E94F3
:100ED000042020E030E040E85AE30E946321EB81E7
:100EE000FC81248D358D468D578D0E946321A5018F
:100EF00094010E946321EB81FC81608B718B828B5A
:100F0000938BF10110821182128213820F900F9045
:100F10000F900F90DF91CF911F910F91FF90EF9065
:100F2000DF90CF90BF90AF909F908F907F906F9009
:100F30005F904F903F902F9008951F920F920FB6A1
:100F40000F9211242F933F934F935F936F937F934F
:100F50008F939F93AF93BF93EF93FF938091B900CB
:100F6000887F803609F49CC068F5883209F45BC03C
:100F700090F4803109F454C038F4882309F4F6C0A1
:100F8000883009F44DC0F6C0883109F44CC0803275
:100F900009F45DC0EFC0803409F468C048F48033C0
:100FA00009F455C0883309F0E5C08093E002D8C049
:100FB000803509F44FC0883509F45DC0883409F0E4
:100FC000D9C0D6C0883909F4C7C0A8F4883709F455
:100FD00067C038F4883609F463C0803709F460C00C
:100FE000C9C0883809F4B8C0803909F45FC08038B6
:100FF00009F0C0C05BC0803B09F486C038F4803A79
:1010000009F466C0883A09F47FC0B4C0803C09F492
:10101000A7C0883C09F4A4C0883B09F48AC0AAC0D0
:101020008091060310C090910503809104039817E6
:1010300070F5E091050381E08E0F80930503F0E0E9
:10104000EC51FD4F80818093BB0085EC86C080937E
:10105000E0028EC0E091050381E08E0F80930503CE
:101060008091BB00F0E0EC51FD4F8083909105032F
:10107000809104036EC0E091050381E08E0F8093A0
:1010800005038091BB00F0E0EC51FD4F808380911F
:10109000E30281116DC081E08093E20284EA61C0C5
:1010A00083E08093E10210924D03CFCF80914D03F6
:1010B000803208F051C0E0914D0381E08E0F8093A3
:1010C0004D038091BB00F0E0E35DFC4F8083BDCF1A
:1010D00085EC8093BC001092E10280914D03803238
:1010E00030F4E0914D03F0E0E35DFC4F108260913D
:1010F0004D0370E0E0912B03F0912C038DE293E01F
:10110000099510924D0336C084E08093E10210925D
:101110002A0310922903E0912703F09128030995EF
:1011200080912903811105C081E0809329031092E9
:101130000703E0912A0381E08E0F80932A03F0E0F9
:10114000E95FFC4F80818093BB0090912A038091DE
:101150002903981708F479CF85E88093BC000AC06A
:1011600085EC8093BC001092E10204C01092E00272
:101170000E946303FF91EF91BF91AF919F918F9177
:101180007F916F915F914F913F912F910F900FBE83
:101190000F901F901895DC01E0E0615038F08D91C0
:1011A000E827F0E0E851FB4FE491F7CF8E2F089548
:1011B0000F931F93CF93DF938C01D62FE0914C04B4
:1011C000F0914D04138615861486DF011B96339625
:1011D0001E92AE17BF07E1F7C0E0B80180914C0442
:1011E00090914D040E945D0C811102C080E010C0FE
:1011F000CD130AC067E0C8010E94CB08F8019781AF
:10120000891302C081E004C0CF5FDC1778F3E5CF1B
:10121000DF91CF911F910F910895FC019081018082
:10122000F281E02DF8948181892B81832281892F9D
:10123000809528232283A7E0B0E01197F1F7218160
:1012400082238183A3E2B0E01197F1F78081789443
:10125000EFECF0E03197F1F7982381E009F480E0BA
:101260000895FC0190810180F281E02D892F809505
:1012700060FF12C0F8942281822382838181892BAE
:101280008183A3E2B0E01197F1F78281982B9283DA
:10129000789487ED90E011C0F894228182238283B4
:1012A0008181892B8183AFEFB0E01197F1F78281C3
:1012B000982B928378948FE090E00197F1F708954E
:1012C000CF92DF92EF92FF920F931F93CF93DF9312
:1012D0001F92CDB7DEB76C01E62E08E010E0FF24C8
:1012E000F39461E08F2D8E2109F460E0C6014983FB
:1012F0000E943109FF0C01501109498101151105A6
:1013000081F7411115C0F894D6011196ED91FC9129
:10131000129791818C918095892381831196ED910B
:10132000FC91129792818C91809589238283789485
:101330000F90DF91CF911F910F91FF90EF90DF9071
:10134000CF900895CF92DF92EF92FF920F931F9369
:10135000CF93DF931F92CDB7DEB78C01F62E40E01E
:1013600065E579830E946009CF2C7981D72E7601BB
:1013700088E0E80EF11CF60161916F0140E0C801C0
:101380000E946009CE14DF04B1F70F90DF91CF9176
:101390001F910F91FF90EF90DF90CF900895FC0187
:1013A00090810180F281E02DF8948181292F209590
:1013B0008223818378948DE743E050E0815021F1CE
:1013C000DA011197F1F730813923C1F3F894828162
:1013D000822382838181892B81837894ABE7B7E074
:1013E0001197F1F7F894818128232183A3E1B1E0DB
:1013F0001197F1F78081982381E009F080E07894DB
:10140000E3E6F6E03197F1F70895CF93DF93BC015F
:101410008AEA93E00E94BA11EC0162E471E08AEA80
:1014200093E00E94DE118C0F9D1FDF91CF910895F4
:10143000CF92DF92EF92FF92CF93DF936C01990FDF
:10144000EE08FF08F7FE1BC06DE28AEA93E00E94F7
:10145000B311EC0144275527BA014C195D096E09F7
:101460007F092AE08AEA93E00E94F3118C0F9D1F06
:10147000DF91CF91FF90EF90DF90CF9008952AE019
:10148000B701A6018AEA93E0DF91CF91FF90EF9038
:10149000DF90CF900C94F311CF92DF92EF92FF92F6
:1014A0000F931F93CF93DF93C82F162FD42FEFEFF7
:1014B000E60FE33028F4F0E0E95EFE4FA08101C0C2
:1014C000A0E0B0E020E836E948E950E00E94731F50
:1014D0006B017C01A12FB0E020E039E04DE350E04A
:1014E0000E94731FDC01CB018C0D9D1DAE1DBF1D25
:1014F000BC01CD0122E0660F771F881F991F2A9536
:10150000D1F729E03DE340E050E00E940E1FDA01F0
:10151000C90136E0880F991FAA1FBB1F3A95D1F762
:101520008093660490936704A0936804B093690461
:10153000D0939D03DC2FDF71D0939C0364E170E0B6
:1015400080E090E00E94890FDD2369F088E09EE052
:1015500090930601809305018091690083608093D8
:101560006900E89A07C0E89882E490E19093060148
:10157000809305012A9A229A2A9A84B18C6284B9AE
:1015800080E58CBD8DB581608DBD6AEA8FEA0E94D1
:10159000B70D8FE20E94C60D8A3AB9F765E58FEA6A
:1015A0000E94B70D8FE20E94C60D8535B9F708EE8F
:1015B00015E0F8018491882341F0319664918068A8
:1015C0000E94B70D0E5F1F4FF4CF60919D0380EB1B
:1015D0000E94B70DC0906604D0906704E090680444
:1015E000F0906904B7018827992787E80E94B70D12
:1015F00099278F2D7E2D6D2D88E80E94B70D6C2DBB
:1016000089E80E94B70D84E080939B03C0936A042D
:101610008C2FDF91CF911F910F91FF90EF90DF9072
:10162000CF900895CF93DF93CDB7DEB728970FB64D
:10163000F894DEBF0FBECDBF88E0EFE0F1E0DE0141
:10164000119601900D928A95E1F7809162048111C3
:1016500002C08FEF01C081E0FE013196E80FF11D5D
:10166000E80FF11D6081606840E08AE594E028960B
:101670000FB6F894DEBF0FBECDBFDF91CF910C94B3
:10168000900D40E061E08AE594E00E94900D8BE3CC
:101690009FE10197F1F70895CF93DF93AB01BC0170
:1016A00022E08AEA93E00E943C12EC0162E471E0DD
:1016B0008AEA93E00E94DE118C0F9D1FDF91CF918B
:1016C000089580919B03843019F0853031F133C047
:1016D000109255031092520360919D038FEF9FEF7C
:1016E0000E94F00D909351038093500383E593E0A3
:1016F00090934F0380934E0385E080939B030E9459
:10170000E60D60E885EA0E94B70D80E10E94C90DF0
:1017100062E08EE90E94B70D0EC0809155032091C2
:10172000520390E0049630E0821793073CF08091DA
:101730005203883418F48FEF9FEF089584E080936C
:101740009B030E94C90D80915503833418F081E0FA
:1017500090E008958091500390915103892BB9F73F
:101760008091540386FF11C030919C033F3169F092
:10177000209154032F7181E090E0231302C080E098
:1017800090E0919581959109089580E090E0089509
:101790008F929F92AF92BF92CF92DF92EF92FF9281
:1017A0000F931F93CF93DF938C01EB0180914C0437
:1017B00090914D040E94CF09882309F43DC0B801DF
:1017C00080914C0490914D040E94A20940E06EEB80
:1017D00080914C0490914D040E9460098E015E013D
:1017E00089E0A80EB11C80904C0490904D0488E0D4
:1017F000C82ED12CEE24E394F12CC4010E940D09D3
:101800008111FE28EE0CE1E0CE1AD108B1F7F80103
:10181000F1928F01EA15FB0531F780914C0490910C
:101820004D040E94CF09813039F468E0CE010E9456
:10183000CB0891E02885821390E0892FDF91CF912A
:101840001F910F91FF90EF90DF90CF90BF90AF90DE
:101850009F908F900895CF93DF93CDB7DEB72997F0
:101860000FB6F894DEBF0FBECDBFFC012081203142
:10187000D1F0BE016F5F7F4F0E94C80B882389F0B3
:101880008D818F3361F020F48F3159F489E00CC0E1
:101890008F3519F08F3739F004C08BE005C08AE02E
:1018A00003C080E001C08CE029960FB6F894DEBF3B
:1018B0000FBECDBFDF91CF910895AF92BF92CF926F
:1018C000DF92EF92FF920F931F93CF93DF931F92BC
:1018D000CDB7DEB75C01D62EE72EFC0185858111E0
:1018E00005C0C5010E94CF09811106C0F50113860C
:1018F0001586148680E065C040E060EFC5010E9457
:10190000600901E0F12CC12C11E0C5010E940D0914
:10191000682FC50169830E940D096981613019F43E
:101920008130B9F433C04F2D50E068131BC0F5016E
:101930008385181730F4E40FF51F8381802349F461
:1019400002C0181731F060E0193058F4F50114871F
:1019500008C0F501EF0DF11D8381802B838361E0C9
:1019600009C0C12EF501E40FF51F9381802F8095EA
:1019700089238383C5010E9431091F5F000F11F481
:10198000F39401E0F7E0FF1508F0BFCF113408F43D
:10199000ADCFF501C386C11002C081E08587F50196
:1019A0008381882309F4A2CFD5011396ED2DFE2D56
:1019B0009501255F3F4F8D918193A217B307D9F70A
:1019C00081E00F90DF91CF911F910F91FF90EF90E9
:1019D000DF90CF90BF90AF9008953FB7F89480917B
:1019E0007F0490918004A0918104B091820426B577
:1019F000A89B05C02F3F19F00196A11DB11D3FBF47
:101A0000BA2FA92F982F8827820F911DA11DB11DD4
:101A1000BC01CD0142E0660F771F881F991F4A95D0
:101A2000D1F70895CF93FC01C48121E02093DD021A
:101A3000C09383041092DB021092DC028385682B32
:101A40008EE993E00E94EB038091DC02813208F082
:101A500046C09091E1029111FCCF92E09093E10297
:101A600091E09093E3029FEF9093E00210920503C0
:101A700080930403ABEBB2E024EE32E0F9019E2F39
:101A8000921B981718F49D919193F9CF1092060329
:101A900080910603CC0FC82BC09306038091E2020D
:101AA000813061F41092E202809106038093BB00C2
:101AB0008091BC0083FDF8CF85EC01C085EE80935A
:101AC000BC008091E1028230E1F38091E0028F3F1F
:101AD00031F08091E002803211F08091E0021092AA
:101AE000DB021092DC021092DD02CF9108950F9379
:101AF0001F93CF938C01C62F0E94120D6C2F646030
:101B0000C8010E94120D6C2F6B7FC8010E94120D3C
:101B100083EC90E00197F1F7CF911F910F91089519
:101B2000FF920F931F93CF93DF931F92CDB7DEB732
:101B30008C01F62E962F907F692F642BC801498364
:101B40000E94770D80E1F89EB00111244981642B39
:101B5000C8010F90DF91CF911F910F91FF900C94CE
:101B6000770D41E00E94900D81E090E00895E898A3
:101B70002A988EBD0DB407FEFDCF8EB56EBD0DB497
:101B800007FEFDCF8EB52A9AE89A089560E00C947E
:101B9000B70DCF93C82F81E00E94C60D837E682FBA
:101BA0006C2B81E8CF910C94B70D80919B0385300D
:101BB00021F480915203882311F080E0089584E09D
:101BC00080939B030E94C90D81E0089588E20E94E2
:101BD000C60D807521F080E00E94C60DF7CF0895F4
:101BE0008627682F62956827062E6695669560257C
:101BF000062E669560256770082E892F66950794D6
:101C00006795902D862706946795902586270895D9
:101C100080919B03853009F04DC060E485EA0E9405
:101C2000B70D84E20E94C60D80937904789488E20F
:101C30000E94C60D8075D9F38091520381110FC0A7
:101C4000E0914E03F0914F038091520391E0980F81
:101C50009093520390919D03E80FF11D908380E0D3
:101C60000E94C60DE0914E03F0914F0390915203F4
:101C700021E0290F20935203E90FF11D8083682F83
:101C800080915003909151030E94F00D9093510365
:101C900080935003809155032091520390E0049665
:101CA00030E082179307A4F080915203883408F43F
:101CB000BECF089588E20E94C60D83FF09C084E06C
:101CC00080939B030E94C90D60E885EA0C94B70DD0
:101CD0000895CF9340935503FB0120E030E050E09E
:101CE0002417350744F4D901AA5ABC4F91919C930B
:101CF0002F5F3F4FF5CF86FD04C0807E90919C03FF
:101D0000890F8093540360919D038FEF9FEF0E9492
:101D1000F00D9093510380935003909155038EEFF3
:101D2000891B80939B030E94E60D8CE00E94C90DE5
:101D300060E085EA0E94B70D80919B038330DCF55B
:101D400088E20E94C60D87FDF7CF80919B0387FF35
:101D50001BC09091550380919B03E0914E03F0913D
:101D60004F03E90FF11DE80FF11D87FDFA95C381BF
:101D70006C2F80915003909151030E94F00D90932D
:101D80005103809350030DC080919B03882329F059
:101D9000813031F4C091510304C0C091500301C09F
:101DA000CAEA6C2F80E80E94B70D80919B038F5F79
:101DB00080939B03C1CFCF910895833081F028F4A5
:101DC000813099F08230A1F008958730A9F08830F1
:101DD000B9F08430D1F4809180008F7D03C0809170
:101DE00080008F7780938000089584B58F7702C03C
:101DF00084B58F7D84BD08958091B0008F7703C036
:101E00008091B0008F7D8093B00008951F93CF9391
:101E1000DF93282F30E0F901EF5AF94F8491F9014F
:101E2000E75DF94FD491F901EB5EF94FC491CC23F2
:101E3000C9F0162F81110E94DD0EEC2FF0E0EE0F9D
:101E4000FF1FE95BF94FA591B4918FB7F894111179
:101E500005C09C91ED2FE095E92302C0EC91ED2B9C
:101E6000EC938FBFDF91CF911F910895CF93DF93B4
:101E700090E0FC01E75DF94F2491FC01EB5EF94F26
:101E80008491882361F190E0880F991FFC01E35C45
:101E9000F94FC591D491FC01E95BF94FA591B4913B
:101EA000611109C09FB7F8948881209582238883A7
:101EB000EC912E230BC0623061F49FB7F894388107
:101EC000822F809583238883EC912E2B2C939FBFA8
:101ED00006C08FB7F894E8812E2B28838FBFDF913F
:101EE000CF9108958E3008F08E5087708064809373
:101EF0007C0080917A00806480937A0080917A00DF
:101F000086FDFCCF809178002091790090E0922BA3
:101F100008958F929F92AF92BF92CF92DF92EF92ED
:101F2000FF926B017C010E94ED0C4B015C01C1141E
:101F3000D104E104F104F1F00E94ED0CDC01CB01CD
:101F400088199909AA09BB09883E9340A105B105E2
:101F500070F321E0C21AD108E108F10888EE880E7A
:101F600083E0981EA11CB11CC114D104E104F1044A
:101F700019F7DDCFFF90EF90DF90CF90BF90AF903B
:101F80009F908F9008958EE480937C0062E070E0D3
:101F900080E090E00E94890F80917A0080648093B5
:101FA0007A0080917A0086FDFCCF809178002091A4
:101FB000790030E0322F2227A901330F660B770B0F
:101FC0009A01AB01282B60E070E381E190E00E9470
:101FD000301FCA01B90108952FB7F89460917B04AE
:101FE00070917C0480917D0490917E042FBF0895B0
:101FF0001F920F920FB60F9211242F933F938F933E
:102000009F93AF93BF9380917B0490917C04A091A8
:102010007D04B0917E0430917A0423E0230F2D37A4
:1020200020F40196A11DB11D05C026E8230F0296DC
:10203000A11DB11D20937A0480937B0490937C04AE
:10204000A0937D04B0937E0480917F0490918004DE
:10205000A0918104B09182040196A11DB11D8093CD
:102060007F0490938004A0938104B0938204BF9175
:10207000AF919F918F913F912F910F900FBE0F9035
:102080001F9018950895CF92DF92EF92FF920F93D1
:102090001F93CF93DF936C017A018B01C0E0D0E0F6
:1020A000CE15DF0589F0D8016D918D01D601ED9136
:1020B000FC910190F081E02DC6010995892B11F466
:1020C0007E0102C02196ECCFC701DF91CF911F9115
:1020D0000F91FF90EF90DF90CF900895FC01918DCC
:1020E000828D981761F0828DDF01A80FB11D5D967A
:1020F0008C91928D9F5F9F73928F90E008958FEFE8
:102100009FEF0895FC01918D828D981731F0828D9B
:10211000E80FF11D858D90E008958FEF9FEF0895F2
:10212000FC01918D228D892F90E0805C9F4F821B56
:1021300091098F73992708958AEA93E00E9490107D
:1021400021E0892B09F420E0822F0895FC01848D81
:10215000DF01A80FB11DA35ABF4F2C91848D90E0D1
:1021600001968F739927848FA689B7892C93A089AC
:10217000B1898C9180648C93938D848D981306C063
:102180000288F389E02D80818F7D80830895EF920E
:10219000FF920F931F93CF93DF93EC0181E0888F21
:1021A0009B8D8C8D981305C0E889F989808185FD08
:1021B00024C0F62E0B8D10E00F5F1F4F0F731127F9
:1021C000E02E8C8DE8120CC00FB607FCFACFE88920
:1021D000F989808185FFF5CFCE010E94A610F1CF4D
:1021E0008B8DFE01E80FF11DE35AFF4FF0820B8F3C
:1021F000EA89FB898081806207C0EE89FF8960835C
:10220000E889F98980818064808381E090E0DF91B2
:10221000CF911F910F91FF90EF900895CF93DF938F
:10222000EC01888D8823C9F0EA89FB89808185FDCE
:1022300005C0A889B9898C9186FD0FC00FB607FC2F
:10224000F5CF808185FFF2CFA889B9898C9185FF70
:10225000EDCFCE010E94A610E7CFDF91CF91089578
:1022600080E090E0892B29F00E949C1081110C9451
:10227000000008950E9430220F931F930E94EC0FDC
:102280000091D0041091D1042091D2043091D30454
:10229000DC01CB01801B910BA20BB30B8F36910598
:1022A000A105B10528F0809154018F5F80935401FE
:1022B0000E94EC0F6093D0047093D1048093D204F9
:1022C0009093D3041F910F9108951F920F920FB610
:1022D0000F9211242F933F934F935F936F937F93AC
:1022E0008F939F93AF93BF93EF93FF93E091070179
:1022F000F09108010995FF91EF91BF91AF919F91E6
:102300008F917F916F915F914F913F912F910F909E
:102310000FBE0F901F9018951F920F920FB60F923D
:1023200011242F933F934F935F936F937F938F93DA
:102330009F93AF93BF93EF93FF93E0910501F091CB
:1023400006010995FF91EF91BF91AF919F918F91F8
:102350007F916F915F914F913F912F910F900FBEA1
:102360000F901F901895DC01ED91FC910190F08188
:10237000E02D0994EF92FF920F931F93CF93DF9379
:102380008C017B01C0E0D0E0F701EC0FFD1F6491F0
:10239000662361F0D801ED91FC910190F081E02D70
:1023A000C8010995892B11F02196EECFCE01DF915E
:1023B000CF911F910F91FF90EF90089561157105D6
:1023C00079F0FB0101900020E9F73197AF01461B3E
:1023D000570BDC01ED91FC910280F381E02D099413
:1023E00080E090E008954F925F926F927F92EF921B
:1023F000FF920F931F93CF93DF93CDB7DEB7A197D3
:102400000FB6F894DEBF0FBECDBF7C01FA01CB0141
:1024100019A2223008F42AE08E010F5D1F4F422ED0
:10242000512C612C712CBF01A30192010E940E1F3F
:10243000F901CA01015011096A3014F4605D01C04C
:10244000695CD8016C93232B242B252B61F7B801F1
:10245000C7010E94DE11A1960FB6F894DEBF0FBE31
:10246000CDBFDF91CF911F910F91FF90EF907F90A3
:102470006F905F904F9008954F925F926F927F920E
:102480008F929F92AF92BF92CF92DF92EF92FF9284
:10249000CF93DF93EC016A017B01B22E9A01AB016D
:1024A000C701B6010E941622882319F065E471E085
:1024B00027C026013701E89477F82FEF3FEF4FE769
:1024C0005FE7C301B2010E94162281110DC02FEFF8
:1024D0003FEF4FE75FE7C301B2010E94FF1F1816ED
:1024E0001CF469E471E00CC02FEF3FEF4FE75FE4AD
:1024F000C701B6010E945E2118169CF46DE471E0DC
:10250000CE01DF91CF91FF90EF90DF90CF90BF9001
:10251000AF909F908F907F906F905F904F900C94B2
:10252000DE112FEF3FEF4FE75FECC701B6010E94CE
:10253000FF1F87FDE3CF20E030E0A901C701B6010E
:102540000E94FF1F87FF0AC06DE2CE010E94B311F7
:102550004C01F7FAF094F7F8F09402C0812C912C1A
:10256000A12C60E070E080E09FE3AB1441F020E03C
:1025700030E040E251E40E940420A394F6CF9B0196
:10258000AC01C701B6010E94931F2B013C010E94C0
:102590007D206B017C010E94AC209B01AC01C3013A
:1025A000B2010E94921F2B013C012AE0B701A60153
:1025B000CE010E94F3117C01E80CF91CBB2039F01C
:1025C00061E571E0CE010E94DE11E80EF91EDB2C00
:1025D000DD2029F120E030E040E251E4C301B20106
:1025E0000E9463212B013C010E947D204B01A12C04
:1025F000B12C2AE0B501A401CE010E94F311E80E2E
:10260000F91EC501B4010E94AC209B01AC01C301BD
:10261000B2010E94921F2B013C01DA94D9CFC7016D
:10262000DF91CF91FF90EF90DF90CF90BF90AF9070
:102630009F908F907F906F905F904F9008951F9222
:102640000F920FB60F9211242F933F934F935F93E6
:102650006F937F938F939F93AF93BF93EF93FF936A
:102660008AEA93E00E94A610FF91EF91BF91AF918B
:102670009F918F917F916F915F914F913F912F919A
:102680000F900FBE0F901F9018951F920F920FB6CC
:102690000F9211242F938F939F93EF93FF93E091C9
:1026A000BA03F091BB038081E091C003F091C103B4
:1026B00082FD12C090818091C3038F5F8F73209140
:1026C000C403821751F0E091C303F0E0E655FC4FDC
:1026D000958F8093C30301C08081FF91EF919F91FB
:1026E0008F912F910F900FBE0F901F9018950F9301
:1026F0001F93CF938C016DE676E08AEA93E00E9407
:10270000BA11809154038F7190E00E94180A6BE611
:1027100076E08AEA93E00E94BA11C0E02C2F30E004
:1027200020173107A4F4F901EA5AFC4F408150E028
:1027300060E070E02AE08AEA93E00E94F31169E623
:1027400076E08AEA93E00E94BA11CF5FE7CF67E6AE
:1027500076E08AEA93E00E94BA118091790490E0D1
:10276000959587959195819591090E94180A65E63E
:1027700076E08AEA93E00E94BA1162E471E08AEAA4
:1027800093E0CF911F910F910C94DE111F93CF9383
:10279000DF93EC01FE011491112371F01A3029F43A
:1027A0006DE08AEA93E00E94B311612F8AEA93E018
:1027B0000E94B3112196EECFDF91CF911F91089522
:1027C00061E089E00E94060F69E170E080E090E03E
:1027D0000E94890F60E089E00E94060F61E089E0B5
:1027E0000E94060F69E170E080E090E00E94890F8E
:1027F00060E089E00C94060F1F920F920FB60F92C3
:1028000011248F938091CF048F5F8093CF048F9199
:102810000F900FBE0F901F901895CF93DF93CDB7F9
:10282000DEB7A6970FB6F894DEBF0FBECDBF789483
:1028300084B5826084BD84B5816084BD85B58260C5
:1028400085BD85B5816085BD80916E008160809376
:102850006E001092810080918100826080938100DF
:1028600080918100816080938100809180008160EF
:10287000809380008091B10084608093B10080914A
:10288000B00081608093B00080917A008460809372
:102890007A0080917A00826080937A0080917A0039
:1028A000816080937A0080917A00806880937A00BA
:1028B0001092C10064E670E080E090E00E94890F11
:1028C0008091B602882371F080E090E0A2E0B3E44A
:1028D0008093B2029093B302A093B402B093B50276
:1028E0008EE60DC086E696E6A0E8B3E48093B202D9
:1028F0009093B302A093B402B093B50286EE809396
:10290000B10261E089E00E94360F61E089E00E9437
:10291000060F62E088E00E94360F61E085E00E94C9
:10292000360F60E085E00E94060F62E083E00E94BF
:10293000360FE091BA03F091BB0382E08083E0910F
:10294000B603F091B7031082E091B803F091B90398
:1029500083E380831092C203E091BE03F091BF0332
:1029600086E08083E091BC03F091BD0380818061AB
:102970008083E091BC03F091BD03808188608083F7
:10298000E091BC03F091BD03808180688083E09179
:10299000BC03F091BD0380818F7D808365EB70E087
:1029A0008AEA93E00E94BA1160E070E080E89EE35A
:1029B0000E944C0B8FE990E00E94050A84E990E0A8
:1029C0000E94050A6AE070E080E090E00E94890FB2
:1029D0004091030160910201809101010E944C0A23
:1029E0000AE010E01093DC010093DB010E94D50D9A
:1029F0008AA381110BC00E94610B90935D018093AB
:102A00005C0180915C0190915D01F0CF48E16BED3C
:102A100071E080E00E94690E64E670E080E090E082
:102A20000E94890F01501109E8F680919B038430C0
:102A300064F483B7817F8C6083BF83B7816083BF79
:102A4000889583B78E7F83BFF0CF1092DC01109200
:102A5000DB01E0914C04F0914D0413861586148639
:102A6000DF011B9633961E92AE17BF07E1F7109257
:102A70004B0411E0BE016F5F7F4F80914C04909139
:102A80004D040E945D0C882309F449C067E0CE0123
:102A900001960E94CB0898858913ECCF809147045A
:102AA000811126C080914C0490914D040E94CF0961
:102AB000BE016F5F7F4F80914C0490914D040E9446
:102AC000A20940E064EB80914C0490914D040E9477
:102AD000600980914C0490914D040E940D09082FCB
:102AE00080914C0490914D040E94CF09002361F124
:102AF00000914804CE0101960E942B0C801718F417
:102B00008091480404C0CE0101960E942B0C809352
:102B1000480480914B048F5F80934B04ABCFC090EF
:102B20004B04C092D70107EA11E05801E12CEC14E4
:102B300071F06E2DC5010E94D80838E0A30EB11CBB
:102B4000882329F0E394F3CF10934704D1CFE12CED
:102B50008FE7882E9CE0992EEC1409F4A3C0C801DD
:102B60000E942B0C8C3009F499C0BE016F5F7F4F1F
:102B7000C8010E94C80B882309F490C0D8018C9129
:102B8000803109F48BC08D8280914C0490914D046A
:102B90000E94CF09B80180914C0490914D040E948D
:102BA000A20940E06EE480914C0490914D040E9493
:102BB000600940E06B8180914C0490914D040E942B
:102BC000600940E06C8180914C0490914D040E941A
:102BD0006009F8018081803141F040E06D81809191
:102BE0004C0490914D040E94600980914C04909196
:102BF0004D040E94CF09B80180914C0490914D047E
:102C00000E94A2094091470468E480914C0490918D
:102C10004D040E94600964E170E080E090E00E9451
:102C2000890F80914704882331F06AE070E080E0EA
:102C300090E00E94890F80914C0490914D040E9475
:102C4000CF09809148048C3008F48CE080934804CC
:102C50008C3021F190924804A12CB12C80914B042E
:102C600090E0A816B906D4F46A2DCE0149960E94C8
:102C7000D80870904804CE0149960E942B0C871505
:102C800018F48091480404C0CE0149960E942B0C90
:102C900080934804FFEFAF1ABF0AE0CFE394085FC8
:102CA0001F4F5ACFE11003C01092D80109C081E034
:102CB0008093D80126E02E1518F486E08093D70182
:102CC0001092DF021092DE021092DB021092DC0200
:102CD0001092E10281E08093E3021092E20261E04F
:102CE00082E10E94060F61E083E10E94060F80915D
:102CF000B9008E7F8093B9008091B9008D7F809359
:102D0000B90088E48093B80085E48093BC001092F9
:102D10005F0480916404823018F098E090935F041F
:102D20008093620462E370E080E090E00E94890F8B
:102D3000609165048AE594E00E94120D68EE73E0EC
:102D400080E090E00E94890F60E38AE594E00E94B1
:102D5000770D0BE416E4C8010197F1F760E38AE50B
:102D600094E00E94770DC8010197F1F760E38AE5CE
:102D700094E00E94770D83E592E00197F1F760E21D
:102D80008AE594E00E94770D60915F04606240E004
:102D90008AE594E00E94900D84E08093600440E016
:102DA0006CE08AE594E00E94900D0E94410B82E065
:102DB0008093610440E066E08AE594E00E94900D13
:102DC00040E062E08AE594E00E94900D8BE39FE191
:102DD0000197F1F788E08093650460E08AE594E06C
:102DE0000E94120D6CEC70E08AE594E00E94BA112A
:102DF00022E040E050E060E270E48AE594E00E9466
:102E00003C120E94120B6EEB70E08AE594E00E9487
:102E1000BA116CED75E080E090E00E94890F81E0CE
:102E20000E94720F181619064CF481E08093F3018A
:102E30008091D9018F5F8093D90102C01092F30174
:102E400082E00E94720F181619064CF481E08093FC
:102E5000DA018091D9018F5F8093D90102C010926D
:102E6000DA0160E089E00E94060F61E08EE00E94D6
:102E7000360F61E08EE00E94360F61E08EE00E9426
:102E8000060F61E08EE00E94360F60E08EE00E9447
:102E9000060F60E08EE00E94360F64EF71E080E084
:102EA00090E00E94890F04EF16E0812C912C5401D0
:102EB00080E00E94720FDC01B2509D010E94551FFC
:102EC000860E971EA81EB91E0150110989F7C5016B
:102ED000B4010E94AC2020E030E84EED54E40E94A2
:102EE00004200E94D62122E538EB4EE55FE30E94E4
:102EF000632160935501709356018093570190931D
:102F0000580120E030E044EB52E40E945E211816A4
:102F100024F481E08093F40102C01092F4010E9435
:102F2000410B64E972E08AEA93E00E94BA116DEC09
:102F30007CEC85EB92E40E944C0B69E872E08AEA33
:102F400093E00E94BA116DEC7CEC85EB92E40E9458
:102F50004C0B6FE772E08AEA93E00E94BA1140914D
:102F6000550150915601609157017091580122E02E
:102F70008AEA93E00E943C128DE792E00E94050AE3
:102F80008091F401882309F445C06CE672E08AE57B
:102F900094E00E94BA1181E492E00E94050A8091B7
:102FA000B602882331F065E372E08AEA93E00E947A
:102FB000BA116EE272E08AEA93E00E94BA1160915F
:102FC000B2027091B3028091B4029091B5020E9456
:102FD0004C0B67E272E08AEA93E00E94BA114091DA
:102FE000B10250E060E070E02AE08AEA93E00E94DB
:102FF000F31185E292E00E94050A67E172E08AEA35
:1030000093E00E94BA116AE979E989ED9FE30E9491
:103010004C0B26C067E072E08AE594E00E94BA118A
:1030200089ED91E00E94050A8091B602882321F083
:1030300080ED91E00E94050A60EC71E08AEA93E07D
:103040000E94BA114091B10250E060E070E02AE0C5
:103050008AEA93E00E94F3118EEB91E00E94050A48
:103060000E94120B64EB71E08AE594E00E94BA11B1
:103070008091D901811107C085EA91E00E94050A7B
:103080006DE971E018C08091F301882351F081E966
:1030900091E00E94050A6CE871E08AE594E00E94E4
:1030A000BA118091DA01882351F080E891E00E9402
:1030B000050A6CE771E08AE594E00E94BA1160EDC0
:1030C00077E080E090E00E94890F8091D80188230A
:1030D00059F164E771E08AEA93E00E94BA114091E5
:1030E000D70150E060E070E02AE08AEA93E00E94B5
:1030F000F3118BE691E00E94050A0E94410B60E605
:1031000071E08AE594E00E94BA114091D70150E045
:1031100060E070E02AE08AE594E00E94F3110E94EA
:10312000120B63E571E01AC080E491E00E94050A89
:103130000E94410B65E371E08AE594E00E94BA11B8
:103140004091D70150E060E070E02AE08AE594E029
:103150000E94F3110E94120B68E271E08AE594E08C
:103160000E94BA1160ED77E080E090E00E94890F44
:103170000E94410B6BE171E08AE594E00E94BA1174
:103180000E94120B60E171E08AE594E00E94BA119E
:1031900081E091E00E94050A6BEF70E08AEA93E01B
:1031A0000E94BA114091010150E060E070E02AE015
:1031B0008AEA93E00E94F31164EF70E08AEA93E0F8
:1031C0000E94BA1180910201813031F46DEE70E0FD
:1031D0008AEA93E00E94BA1180910201823031F4B0
:1031E00066EE70E08AEA93E00E94BA1180910201D3
:1031F000833031F46FED70E08AEA93E00E94BA11F7
:1032000065ED70E08AEA93E00E94BA1180900301B4
:1032100090900401092C000CAA08BB08B7FE0EC050
:103220006DE28AEA93E00E94B31144275527BA0160
:10323000481959096A097B092AE003C02AE0B50147
:10324000A4018AEA93E00E94F31162E471E08AEA41
:1032500093E00E94DE118BEB92E00E94C61364E1C2
:1032600070E080E090E00E94890F8CE391E1909300
:1032700008018093070180916900837F88608093B3
:103280006900E99A1092EF011092F0011092F10199
:103290001092F20181E090E090936C0280936B02B7
:1032A0004DEC5CEC65EB72E440937102509372025A
:1032B000609373027093740280E090E0A0E0B4E445
:1032C00080938D0290938E02A0938F02B093900210
:1032D00022E030E03093100220930F024093150259
:1032E0005093160260931702709318028093310274
:1032F00090933202A0933302B09334022091F401F0
:10330000222309F444C00091B2021091B30220912B
:10331000B4023091B50210926A02109269020093D1
:103320006D0210936E0220936F02309370024AE98F
:1033300059E969ED7FE340937502509376026093FB
:103340007702709378028093890290938A02A09307
:103350008B02B0938C0210920E0210920D02009319
:10336000110210931202209313023093140240931F
:10337000190250931A0260931B0270931C028093EF
:103380002D0290932E02A0932F02B0933002BAE93F
:103390008B2EB9E99B2EB9EDAB2EBFE3BB2E412C92
:1033A000512C612C14E4712EAE014F5F5F4F1A0156
:1033B00058E1520D5EA30E94EC0F6093B702709328
:1033C000B8028093B9029093BA028091B602882322
:1033D00071F080E090E0A2E0B3E48093B2029093B9
:1033E000B302A093B402B093B5028EE60DC026E6F8
:1033F00036E640E853E42093B2023093B3024093A0
:10340000B4025093B50286EE8093B1028091B2026D
:103410009091B302A091B402B091B50210926A02E9
:103420001092690280936D0290936E02A0936F02D6
:10343000B09370028092750290927602A092770209
:10344000B09278024092890250928A0260928B0276
:1034500070928C0210920E0210920D028093110253
:1034600090931202A0931302B09314028092190257
:1034700090921A02A0921B02B0921C0240922D025E
:1034800050922E0260922F0270923002E9E5F6E02F
:103490008491E1E3F6E01491EDE1F6E0049100237C
:1034A00081F081110E94DD0EE02FF0E0EE0FFF1F92
:1034B000E55FF94FA591B4918C91182311F060E06C
:1034C00001C061E085E00E94060F8AEA93E00E9455
:1034D0009010892B09F428C18AEA93E00E946E10AB
:1034E00090ED980F9A30B0F440915A0150915B01E1
:1034F0009AE0949F9001959F300D1124205331093B
:10350000A901480F511D87FD5A9550935B014093C7
:103510005A0108C18C3281F4E0915901E63408F077
:10352000FDC081E08E0F80935901F0E0E25AFE4F1A
:1035300080915A018083F2C081320CF4EDC0482F93
:10354000082E000C550B660B770BFA01E156F109BA
:10355000E631F10508F07BC0EC5CFF4F0C944F1F87
:1035600080915A0190915B01009739F0809301019D
:1035700040910301609102011EC080915A01843084
:1035800031F0883031F0893031F060E005C061E021
:1035900003C062E001C063E0862F90E090935B017E
:1035A00080935A01662309F456C06093020140914A
:1035B0000301809101010E944C0A4DC040915A01C3
:1035C00080915B01409303018093040160910201AB
:1035D000F0CF80915A0190915B010097E1F1813029
:1035E000910519F41092B60236C00297A1F581E058
:1035F0008093B60230C081E020915A0130915B0186
:10360000232B09F480E08093000125C064EC74E072
:103610008AEA93E00E94BA1122E040E050E060E2C2
:1036200070E48AEA93E00E943C1262EC74E08AEA59
:1036300093E00E94BA110FC08093A60180915901B6
:103640008093A50180915A018093A40104C08BEB63
:1036500092E00E94C61369EB72E08AEA93E00E944E
:10366000BA11609101016F71605C8AEA93E00E9477
:10367000B31166EB72E08AEA93E00E94BA1180917E
:1036800001018F7190E00E94180A63EB72E08AEAF0
:1036900093E00E94BA1180910301909104010E946D
:1036A000180A6FEA72E08AEA93E00E94BA118091E8
:1036B0000201813039F0823041F0833049F080E0FE
:1036C00090E008C081EB91E005C084E693E002C081
:1036D00083E993E00E94180A6AEA72E08AEA93E0BA
:1036E0000E94BA1167EA72E08AEA93E00E94BA1176
:1036F0008091000190E00E94180A61EA72E08AEA73
:1037000093E00E94BA118091B60290E00E94180ADC
:103710008FE992E00E94050A1092590110925B0114
:1037200010925A010E94E0130E94610B90935D0178
:1037300080935C0180915C0190915D01019649F15B
:1037400080915C0190915D01892BA1F460ED74E0A2
:103750008AEA93E00E94BA118091550390E00E949A
:1037600077138091540385FF17C08091540387FF1E
:1037700087C212C080910001811192C26DEC74E089
:103780008AEA93E00E94BA1184E190E00E947713E4
:1037900087C28BA1882321F00E94E0139AA19BA3EA
:1037A0008091A6018823C1F10E94D50D8823A1F143
:1037B00061E089E00E94060F68EC70E080E090E034
:1037C0000E94890F60E089E00E94060F87ED94E077
:1037D0000E94C6134091A50150E060E070E02AE02D
:1037E0008AEA93E00E94F31183ED94E00E94C613ED
:1037F0008091A601813609F455C280E09091A40120
:10380000992311F09064892B4091A5016EE571E038
:103810000E94690E1092A601C090B702D090B80223
:10382000E090B902F090BA02A1E6CA16AAEEDA0652
:10383000AFEFEA06FA0640F0409103016091020101
:10384000809101010E944C0A8091F5019091F6014E
:10385000A091F701B091F801A7019601281B390B3F
:103860004A0B5B0BDA01C90189389341A105B10507
:1038700008F403C261E089E00E94060F62E370E091
:1038800080E090E00E94890F60E089E00E94060FCE
:103890001091F4018091F301112351F1882309F46F
:1038A00044C085E592E00E941B046091550270912E
:1038B000560280915702909158020E947620709390
:1038C000DC016093DB0120E030E048EC52E46091E1
:1038D00061027091620280916302909164020E9481
:1038E00063210E9476207093E2016093E1011DC084
:1038F000882309F445C085E592E00E94D7066B0154
:103900007C016091B10270E080E090E00E94AE2006
:103910009B01AC01C701B6010E9463210E94762081
:103920007093DC016093DB012BC08091DA01882366
:1039300039F189EF91E00E941B046091F9017091C7
:10394000FA018091FB019091FC010E947620709316
:10395000DE016093DD0120E030E048EC52E460914C
:1039600005027091060280910702909108020E9460
:1039700063210E9476207093E2016093E1011DC0F3
:103980008091DA018823C9F089EF91E00E94D7067F
:103990006B017C016091B10270E080E090E00E94D8
:1039A000AE209B01AC01C701B6010E9463210E94B9
:1039B00076207093DE016093DD012091DB01309170
:1039C000DC018091DD019091DE01820F931F9093C5
:1039D000E0018093DF018091D90111110DC088238E
:1039E00029F18091B10244E6849FC0011124909393
:1039F000E2018093E1011AC0811118C085E592E0CF
:103A00000E941B0420E030E048EC52E46091610227
:103A10007091620280916302909164020E9463211E
:103A20000E9476207093E2016093E1018091D801B9
:103A3000882309F4B5C080914C0490914D040E94F4
:103A4000CF0940E06CEC80914C0490914D040E94B1
:103A500060094091470464E480914C0490914D04C6
:103A60000E946009809149048823A9F0E0914804EC
:103A7000E950E33040F4F0E0EE0FFF1FE75FFE4F48
:103A80006081718102C06EEE72E0072E000C880B1F
:103A9000990B0E94890F19A28091D70199A19817BB
:103AA00008F07EC059A1052F10E0980163E0220FB5
:103AB000331F6A95E1F7C90189559E4F7C01B10119
:103AC0000E94C80B882359F1698198E0699FB00171
:103AD0001124EA81F0E0FE2FEE27FF0FFF0FFF0F0A
:103AE000E62BF72BD7018C918031E1F4688570E0EB
:103AF0008F819B01281B3109C9019695982F882732
:103B0000979587950E94FA1E60517109E07F43E006
:103B1000EE0FFF1F4A95E1F76E0F7F1F04C060E8AC
:103B200074EE01C0BF01613834EE730764F1072EF3
:103B3000000C880B990B0E94AE2020E030E040E0A2
:103B40005CE30E9463216B017C0120E030E04AEFDE
:103B500052E40E94FF1F87FF16C020E030E04CE5D2
:103B600052ECC701B6010E945E21181664F420E0F1
:103B700030E040E251E4C701B6010E9463210E9497
:103B800076207DA36CA3000F111FF801ED51FE4FAD
:103B90004CA15DA15183408359A15F5F59A37CCFA4
:103BA000809154018823D1F0F894209154018091A0
:103BB000EF019091F001A091F101B091F201820F1B
:103BC000911DA11DB11D8093EF019093F001A09371
:103BD000F101B093F20110925401789488E1EBED79
:103BE000F1E0D10101900D928A95E1F764EE74E065
:103BF0008AEA93E00E94BA114091010150E060E02E
:103C000070E02AE08AEA93E00E94F311810162EEFB
:103C100074E08AEA93E00E94BA11D8014D918D01B7
:103C200050E060E070E02AE08AEA93E00E94F3113D
:103C3000BEA1B013ECCF6CED74E08AEA93E00E9471
:103C4000BA1162E471E08AEA93E00E94DE116AE050
:103C500070E080E090E00E94890F8091B70290911F
:103C6000B802A091B902B091BA028093F501909385
:103C7000F601A093F701B093F8010E9430119BCB9D
:103C80008091540386FD0AC0809154038F71806C2B
:103C900040E060E070E00E94690E7ECD80E8F8CFE1
:103CA0001BA27ECD80E2AACD1092A1031092A003A8
:103CB00088EE93E0A0E0B0E08093A2039093A3038A
:103CC000A093A403B093A5032EE131E030939F03AA
:103CD00020939E031092AD031092AC038093AE0329
:103CE0009093AF03A093B003B093B1038EE291E041
:103CF0009093AB038093AA0385EC90E09093B70375
:103D00008093B60384EC90E09093B9038093B8035A
:103D100080EC90E09093BB038093BA0381EC90E039
:103D20009093BD038093BC0382EC90E09093BF031B
:103D30008093BE0386EC90E09093C1038093C00310
:103D40001092C3031092C4031092C5031092C603CD
:103D500010925D0410925C048EE391E090935B04FA
:103D600080935A0487E280935E0480E18093630429
:103D700082E0809364041092650460E084E00E9415
:103D8000360FEDE2F6E0E491E0936B04E9E1F6E052
:103D9000E491F0E0EE0FFF1FE55FF94F85919491FC
:103DA00090936D0480936C041092760410927804C2
:103DB00010927704E6E7F4E0129284E0EE36F8071A
:103DC000D9F78AE194E090935904809358048BE6E4
:103DD00094E090934D0480934C0410924B04109205
:103DE000470489E08093480481E0809349048093EC
:103DF0004A04089597FB072E16F4009407D077FD28
:103E000009D00E947E1F07FC05D03EF49095819555
:103E10009F4F0895709561957F4F0895A1E21A2EE6
:103E2000AA1BBB1BFD010DC0AA1FBB1FEE1FFF1F5E
:103E3000A217B307E407F50720F0A21BB30BE40BAE
:103E4000F50B661F771F881F991F1A9469F76095F5
:103E50007095809590959B01AC01BD01CF010895AF
:103E6000052E97FB1EF400940E94471F57FD07D0B4
:103E70000E940E1F07FC03D04EF40C94471F509570
:103E80004095309521953F4F4F4F5F4F0895909546
:103E90008095709561957F4F8F4F9F4F0895EE0FDE
:103EA000FF1F0590F491E02D09940E945D1F3323BC
:103EB00012F48A1B9B0B0C946E1FA29FB001B39F40
:103EC000C001A39F700D811D1124911DB29F700D23
:103ED000811D1124911D08950E945D1FB7FF089553
:103EE000821B930B08950E945D1FA59F900DB49FA8
:103EF000900DA49F800D911D11240895AA1BBB1B3A
:103F000051E107C0AA1FBB1FA617B70710F0A61BD9
:103F1000B70B881F991F5A95A9F780959095BC01FA
:103F2000CD0108955058BB27AA270E94AA1F0C94C0
:103F300024210E94162138F00E941D2120F039F41E
:103F40009F3F19F426F40C9413210EF4E095E7FB3F
:103F50000C940D21E92F0E94352158F3BA176207FE
:103F600073078407950720F079F4A6F50C94572180
:103F70000EF4E0950B2EBA2FA02D0B01B901900184
:103F80000C01CA01A0011124FF27591B99F0593FC8
:103F900050F4503E68F11A16F040A22F232F342F10
:103FA0004427585FF3CF469537952795A795F0405E
:103FB0005395C9F77EF41F16BA0B620B730B840B73
:103FC000BAF09150A1F0FF0FBB1F661F771F881F2B
:103FD000C2F70EC0BA0F621F731F841F48F4879583
:103FE00077956795B795F7959E3F08F0B0CF939575
:103FF000880F08F09927EE0F9795879508950E94EE
:10400000E92008F481E008950E9418200C942421EE
:104010000E941D2158F00E94162140F029F45F3FB4
:1040200029F00C940D2151110C9458210C9413215A
:104030000E94352168F39923B1F3552391F3951B21
:10404000550BBB27AA2762177307840738F09F5FB9
:104050005F4F220F331F441FAA1FA9F335D00E2E26
:104060003AF0E0E832D091505040E695001CCAF793
:104070002BD0FE2F29D0660F771F881FBB1F261756
:1040800037074807AB07B0E809F0BB0B802DBF012D
:10409000FF2793585F4F3AF09E3F510578F00C94FC
:1040A0000D210C9458215F3FE4F3983ED4F386959C
:1040B00077956795B795F7959F5FC9F7880F911D1D
:1040C0009695879597F90895E1E0660F771F881F09
:1040D000BB1F621773078407BA0720F0621B730BBC
:1040E000840BBA0BEE1F88F7E09508950E947D209F
:1040F0006894B1110C94582108950E943D2188F0D4
:104100009F5798F0B92F9927B751B0F0E1F0660F9B
:10411000771F881F991F1AF0BA95C9F714C0B130DC
:1041200091F00E945721B1E008950C945721672F18
:10413000782F8827B85F39F0B93FCCF3869577950B
:104140006795B395D9F73EF49095809570956195F4
:104150007F4F8F4F9F4F0895E89409C097FB3EF41F
:1041600090958095709561957F4F8F4F9F4F9923C4
:10417000A9F0F92F96E9BB279395F6958795779542
:104180006795B795F111F8CFFAF4BB0F11F460FF02
:104190001BC06F5F7F4F8F4F9F4F16C0882311F05A
:1041A00096E911C0772321F09EE8872F762F05C06E
:1041B000662371F096E8862F70E060E02AF09A9509
:1041C000660F771F881FDAF7880F9695879597F9FE
:1041D0000895990F0008550FAA0BE0E8FEEF161698
:1041E0001706E807F907C0F012161306E407F507EB
:1041F00098F0621B730B840B950B39F40A2661F05F
:10420000232B242B252B21F408950A2609F4A14001
:10421000A6958FEF811D811D089597F99F6780E80E
:1042200070E060E008959FEF80EC089500240A9408
:104230001616170618060906089500240A94121681
:104240001306140605060895092E0394000C11F4B4
:10425000882352F0BB0F40F4BF2B11F460FF04C061
:104260006F5F7F4F8F4F9F4F089557FD9058440FBA
:10427000551F59F05F3F71F04795880F97FB991FC5
:1042800061F09F3F79F08795089512161306140682
:10429000551FF2CF4695F1DF08C01616170618060F
:1042A000991FF1CF86957105610508940895E894EA
:1042B000BB2766277727CB0197F908950E94E9204D
:1042C00008F48FEF08950E9476210C9424210E9417
:1042D000162138F00E941D2120F0952311F00C9436
:1042E0000D210C94132111240C9458210E94352186
:1042F00070F3959FC1F3950F50E0551F629FF00139
:10430000729FBB27F00DB11D639FAA27F00DB11D51
:10431000AA1F649F6627B00DA11D661F829F2227DA
:10432000B00DA11D621F739FB00DA11D621F839F61
:10433000A00D611D221F749F3327A00D611D231F37
:10434000849F600D211D822F762F6A2F11249F5785
:1043500050409AF0F1F088234AF0EE0FFF1FBB1F88
:10436000661F771F881F91505040A9F79E3F510547
:1043700080F00C940D210C9458215F3FE4F3983E9B
:10438000D4F3869577956795B795F795E7959F5FF1
:10439000C1F7FE2B880F911D9695879597F9089583
:1043A00019F416F40C9413210C941B220E943D2145
:1043B000B8F39923C9F3B6F39F57550B87FF0E94B3
:1043C00029220024A0E640EA90018058569597954E
:1043D00028F4805C660F771F881F20F026173707A8
:1043E000480730F4621B730B840B202931294A2BB8
:1043F000A69517940794202531254A2758F7660F6C
:10440000771F881F20F026173707480730F4620B04
:10441000730B840B200D311D411DA09581F7B9014F
:10442000842F9158880F9695879508950E94E920CA
:10443000880B990B08959F3F31F0915020F4879598
:1044400077956795B795880F911D9695879597F9FC
:10445000089591505040660F771F881FD2F7089536
:0E44600081E090E0F8940C943522F894FFCFA0
:10446E00010501D200421042105E00BC007701002F
:10447E00004000140054002B565A00000000EB03BD
:10448E00BB03B303A4039603950300000000C710FB
:10449E00431090106E1082100E1100000000B10D2E
:1044AE0043100D0A006E616E00696E66006F7666CF
:0444BE00002E0000CC
:00000001FF
