:100000000C9419030C94E11B0C940E1C0C944103EA
:100010000C9441030C9441030C9484030C9441030D
:100020000C9441030C9441030C9441030C94410340
:100030000C9441030C9441030C9441030C94410330
:100040000C94781D0C9441030C946E1E0C94A01E0D
:100050000C9441030C9441030C9441030C94410310
:100060000C945F190C9441032A0AC709350A350A12
:10007000350A350AEB09350AB309350A350A350A56
:10008000350A350A350A010A350A350A2A0A350AB7
:10009000350A130A737461727475702E2E2E004F18
:1000A00070656E456E657267794D6F6E69746F72BB
:1000B0002E6F726700656D6F6E50692056002028A4
:1000C0002D30290020004F4B2000204E6574776FA3
:1000D000726B20003931354D687A003836384D68FA
:1000E0007A003433334D687A0020467265712000FF
:1000F0004E6F6465200052464D3639435720496E95
:1001000069743A2000426F6F74696E672E2E2E005C
:100110005261737062657272792050690044533184
:10012000384232302054656D7000446574656374E4
:1001300065643A2000302044533138423230206424
:10014000657465637465640044533138423230200D
:1001500054656D700044657465637465643A20008D
:100160002044533138423230004465746563742052
:100170000043543200435420322064657465637434
:10018000004354312000435420312064657465637A
:1001900074004E6F2043542773006E6F2043542029
:1001A000646574656374656400446574656374654F
:1001B0006420005600417373756D696E6720565256
:1001C0004D533A2000555341206D6F646500414303
:1001D000204E4F54206465746563746564202D203F
:1001E0004170706172656E7420506F776572206324
:1001F000616C6320656E61626C6564004143204EF2
:100200004F5420446574656374656400506861737D
:10021000652053686966743A2000560056726D7303
:100220003A20005663616C3A2000555341206D6FAF
:100230006465203E20004143205761766520446577
:10024000746563746564202D205265616C20506F65
:100250007765722063616C6320656E61626C6564B2
:100260000041432057617665204465746563746579
:100270006400560056524D53204143207E004354A3
:1002800020322043616C3A200043542031204361E6
:100290006C3A20004F70656E456E657267794D6FE0
:1002A0006E00656D6F6E506920560020620A002056
:1002B0002D3E2000290028002000200020004F4B68
:1002C000002000205553412000204D487A00204056
:1002D000200020670020690020005D005B656D6FD5
:1002E0006E50692E000A417661696C61626C65200E
:1002F000636F6D6D616E64733A0A20203C6E6E3ED2
:10030000206920202020202D20736574206E6F64CA
:10031000652049447320287374616E64617264209F
:100320006E6F6465206964732061726520312E2EC2
:100330003330290A20203C6E3E20622020202020DD
:10034000202D20736574204D487A2062616E6420F0
:100350002834203D203433332C2038203D203836BB
:10036000382C2039203D20393135290A20203C6E97
:100370006E6E3E2067202020202D20736574206E35
:100380006574776F726B2067726F757020285246A4
:100390004D3132206F6E6C7920616C6C6F777320F9
:1003A0003231322C2030203D20616E79290A202004
:1003B0003C6E3E20632020202020202D2073657479
:1003C00020636F6C6C656374206D6F6465202861B9
:1003D0006476616E6365642C206E6F726D616C6C07
:1003E000792030290A20202E2E2E2C3C6E6E3E20A5
:1003F00061202D2073656E642064617461207061DA
:10040000636B657420746F206E6F6465203C6E6E44
:100410003E2C20726571756573742061636B0A20D0
:10042000202E2E2E2C3C6E6E3E2073202D207365C8
:100430006E642064617461207061636B6574207404
:100440006F206E6F6465203C6E6E3E2C206E6F20B8
:1004500061636B0A20202E2E2E2C3C6E3E207020D5
:10046000202D2053657420414320416461707465E0
:1004700072205663616C203170203D20554B2C203A
:100480003270203D205553410A2020762020202024
:100490002020202020202D2053686F77206669724D
:1004A0006D776172652076657273696F6E0A0001FF
:1004B0000402000302048A050506C30B2019421E2C
:1004C0002C25802E882F2D370038003C8F3D106F53
:1004D0002000005EBCE2613FDD83C29C7E20A3FD64
:1004E0001F419DC3217FFCA2401E5F01E3BD3E6012
:1004F00082DC237D9FC1421CFEA0E1BF5D0380DE44
:100500003C62BEE0025CDF81633D7C22C09E1D43F5
:10051000A1FF4618FAA427799BC584DA3866E5BBA3
:100520005907DB856739BAE406581947A5FB7826D1
:10053000C49A653BD987045AB8E6A7F91B45C69803
:100540007A24F8A6441A99C7257B3A6486D85B05B5
:10055000E7B98CD2306EEDB3510F4E10F2AC2F7163
:1005600093CD114FADF3702ECC92D38D6F31B2EC91
:100570000E50AFF1134DCE90722C6D33D18F0C52C3
:10058000B0EE326C8ED0530DEFB1F0AE4C1291CF75
:100590002D73CA947628ABF517490856B4EA693723
:1005A000D58B5709EBB536688AD495CB2977F4AA51
:1005B0004816E9B7550B88D6346A2B7597C94A1483
:1005C000F6A8742AC896154BA9F7B6E80A54D78935
:1005D0006B35000000080002010000030407000062
:1005E0000000000000000102040810204080010209
:1005F0000408102001020408102004040404040468
:1006000004040202020202020303030303030000C4
:10061000000023002600290000000000250028001B
:100620002B0000000000240027002A00F508C11854
:10063000D01E11241FBECFEFD8E0DEBFCDBF11E02A
:10064000A0E0B1E0EAE5FBE402C005900D92A2351E
:10065000B107D9F724E0A2E5B1E001C01D92AB3AA1
:10066000B207E1F716E0C2E3D6E004C02297FE012C
:100670000E947E25CC32D107C9F70E945F1E0C94E0
:10068000AB250C9400000F931F930E94C21D009194
:100690009E0110919F012091A0013091A101601B4A
:1006A000710B820B930B6F3671058105910528F054
:1006B0008091A6018F5F8093A6010E94C21D609366
:1006C0009E0170939F018093A0019093A1011F91BF
:1006D0000F9108951F93CF93DF93EC01FE011491C6
:1006E000112371F01A3029F46DE08EE094E00E943D
:1006F000BB20612F8EE094E00E94BB202196EECFBC
:10070000DF91CF911F9108951F920F920FB60F9214
:1007100011242F933F934F935F936F937F938F9306
:100720009F93AF93BF93EF93FF930E949D0EFF9112
:10073000EF91BF91AF919F918F917F916F915F9159
:100740004F913F912F910F900FBE0F901F901895D2
:1007500061E089E00E949D1C62E370E080E090E02F
:100760000E94F11D60E089E00C949D1C61E089E02D
:100770000E949D1C69E170E080E090E00E94F11D04
:1007800060E089E00E949D1C61E089E00E949D1C60
:1007900069E170E080E090E00E94F11D60E089E096
:1007A0000C949D1CCF93DF936AE070E080E090E0B2
:1007B0000E94F11D20E436E040910601609109019C
:1007C000809108010E94F00DCAE0D0E0D093BA01F8
:1007D000C093B90148E169EB71E080E00E945F0ECF
:1007E00064E670E080E090E00E94F11D219770F7D0
:1007F00082E00E947E0E1092BA011092B901DF9140
:10080000CF910895FF920F931F93CF93DF930E9490
:10081000490E882309F462C0F090F80280913E03EB
:1008200090913F03892B09F05AC06EEB72E08EE085
:1008300094E00E9496206CEB72E08EE094E00E94BF
:1008400096206091F7026F7170E04AE050E08EE010
:1008500094E00E948B216AEB72E08EE094E00E94AB
:10086000962009EF12E0E8018C2F801B8F1578F499
:10087000699170E04AE050E08EE094E00E94BF2170
:1008800068EB72E08EE094E00E949620EDCF66EB7C
:1008900072E08EE094E00E9496206091EC0270E09D
:1008A000759567957195619571094AE050E08EE004
:1008B00094E00E948B2164EB72E08EE094E00E9451
:1008C00096208EE094E00E94C2208091F70285FF7E
:1008D00015C08091F70287FF04C010C013C080E0EC
:1008E00011C08091F70286FD0BC08091F7028F71D5
:1008F000806C40E060E070E00E945D0E81E002C02C
:1009000080E8F7CFDF91CF911F910F91FF9008956D
:10091000809154018823D1F10E945B0E811101C0A6
:10092000089561E089E00E949D1C68EC70E080E021
:1009300090E00E94F11D60E089E00E949D1C8FEA1A
:1009400092E00E946A036091560170E04AE050E034
:100950008EE094E00E94BF218BEA92E00E946A033D
:1009600080915401813681F080E090915501992366
:1009700011F09064892B4091560168E571E00E9466
:100980005D0E10925401089580E2EFCF089584E245
:1009900092E00E94AF1B84E292E00E94B51A62EAE4
:1009A00072E084E292E00E94962022E030E04DEC7A
:1009B0005CEC6CE070E484E292E00E94B02241E0E2
:1009C00060E084E292E00E94161B64E972E084E237
:1009D00092E00C94962084E292E00E94081B69E861
:1009E00072E08EE094E00E94962022E030E04DEC30
:1009F0005CEC65EB72E48EE094E00E94B2226EE75C
:100A000072E08EE094E00E94962022E030E04DEC0F
:100A10005CEC65EB72E48EE094E00E94B22264E745
:100A200072E08EE094E00E9496204091B1015091D6
:100A3000B2016091B3017091B40122E030E08EE028
:100A400094E00E94B02262E772E08EE094E00E949F
:100A5000D6208091AE01882309F44FC061E672E090
:100A600084E292E00E94962066E372E08EE094E0D9
:100A70000E94D62080912302882331F06AE272E03E
:100A80008EE094E00E94962063E272E08EE094E0B3
:100A90000E9496204091B5015091B6016091B70136
:100AA0007091B80122E030E08EE094E00E94B22222
:100AB0006CE172E08EE094E00E9496204AE050E003
:100AC0006091AB018EE094E00E94B8216AE172E08F
:100AD0008EE094E00E94D6206CE072E08EE094E01C
:100AE0000E94962022E030E04AE959E969ED7FE36F
:100AF0008EE094E00E94B2222AC06CEF71E084E2A2
:100B000092E00E9496206EEC71E08EE094E00E94EC
:100B1000D62080912302882331F065EC71E08EE0CD
:100B200094E00E94D62065EB71E08EE094E00E9494
:100B300096204AE050E06091AB018EE094E00E9484
:100B4000B82163EB71E08EE094E00E94D62041E092
:100B500060E084E292E00E94161B69EA71E084E2A0
:100B600092E00E9496208091AC01811109C06AE94F
:100B700071E08EE094E00E94D62062E971E01CC032
:100B80008091B001882361F066E871E08EE094E026
:100B90000E94D62061E871E084E292E00E949620F3
:100BA0008091AF01882361F065E771E08EE094E009
:100BB0000E94D62061E771E084E292E00E949620D4
:100BC00060ED77E080E090E00E94F11D8091AD0142
:100BD000882379F169E671E08EE094E00E94962026
:100BE0004AE050E06091D1018EE094E00E94B8218B
:100BF00060E671E08EE094E00E94D62084E292E00C
:100C00000E94081B65E571E084E292E00E94962054
:100C10004AE050E06091D10184E292E00E94B82164
:100C200041E060E084E292E00E94161B68E471E01B
:100C300020C065E371E08EE094E00E94D62084E25B
:100C400092E00E94081B6AE271E084E292E00E9456
:100C500096204AE050E06091D10184E292E00E9447
:100C6000B82141E060E084E292E00E94161B6DE151
:100C700071E084E292E00E94962060ED77E080E0EF
:100C800090E00E94F11D84E292E00E94081B60E166
:100C900071E084E292E00E94962041E060E084E20C
:100CA00092E00E94161B65E071E084E292E00E94EF
:100CB000962080910A01882309F44CC066EF70E009
:100CC0008EE094E00E94D62060EF70E08EE094E029
:100CD0000E9496204AE050E0609108018EE094E086
:100CE0000E94B82169EE70E08EE094E00E949620A8
:100CF00080910901813031F462EE70E08EE094E081
:100D00000E94962080910901823031F46BED70E0F1
:100D10008EE094E00E94962080910901833031F4A6
:100D200064ED70E08EE094E00E9496206AEC70E042
:100D30008EE094E00E949620609106017091070178
:100D40004AE050E08EE094E00E94932185EE92E02C
:100D50000E946A0364E170E080E090E00C94F11D71
:100D6000EF92FF920F931F93CF93DF93CDB7DEB730
:100D700068970FB6F894DEBF0FBECDBF88E1E9EBF0
:100D8000F1E0DE01119601900D928A95E1F766EC93
:100D900070E08EE094E00E9496204AE050E060917E
:100DA00008018EE094E00E94B8218E010F5F1F4F72
:100DB0007E0189E1E80EF11C64EC70E08EE094E0C5
:100DC0000E949620F80161918F014AE050E08EE088
:100DD00094E00E94B8210E151F0571F76EEB70E0CC
:100DE0008EE094E00E9496208EE094E00E94C22063
:100DF0006AE070E080E090E068960FB6F894DEBF9D
:100E00000FBECDBFDF91CF911F910F91FF90EF905B
:100E10000C94F11DBF92CF92DF92EF92FF920F934D
:100E20001F93CF93DF93B82EEB0100E010E0C12CAD
:100E3000D12C76010C171D077CF48B2D0E94FC1C15
:100E4000DC01B2509D010E948225C60ED71EE81E0D
:100E5000F91E0F5F1F4FEECFC701B6010E94C723D7
:100E60006B017C01BE01882777FD8095982F0E9439
:100E7000C9239B01AC01C701B6010E942E23DF915B
:100E8000CF911F910F91FF90EF90DF90CF90BF9087
:100E90000C94E42461E089E00E94641C61E089E034
:100EA0000E949D1C62E088E00E94641C61E085E075
:100EB0000E94641C60E085E00E949D1C62E083E06B
:100EC0000E94641C26E040E056E960E070E08EE09D
:100ED00094E00E94F61F65EB70E08EE094E00E94C3
:100EE000962022E030E04DEC5CEC6CE070E48EE0AB
:100EF00094E00E94B2226FE970E08EE094E00E94DC
:100F0000D62064E970E08EE094E00C94D62081E075
:100F10000E94FC1C181619064CF481E08093B00165
:100F20008091AC018F5F8093AC0102C01092B00140
:100F300082E00E94FC1C181619064CF481E0809394
:100F4000AF018091AC018F5F8093AC0102C0109221
:100F5000AF018091AC01811103C081E08093B001A9
:100F600060E089E00E949D1C61E08EE00E94641CAC
:100F70006FEF70E08EE00E94191D60E070E08EE07F
:100F80000E94191D60E08EE00E94641C64EF71E015
:100F900080E090E00E94F11D64EF76E080E090E058
:100FA0000E940A0722E538EB4EE55FE30E947D24AC
:100FB0006093B1017093B2018093B3019093B40137
:100FC00020E030E044EB52E40E947924181624F427
:100FD00081E08093AE0108951092AE010895CF9301
:100FE00082E092E00E943A1682E092E00E94B314FE
:100FF0008093D101C0E08091D101C81760F488E0EE
:10100000C89FB00111246E527E4F85E192E00E948C
:10101000FF13811123C0C0E08091D101C81768F48B
:1010200088E0C89FB00111246E527E4F4CE082E0F0
:1010300092E00E94C415CF5FEFCF811103C01092E0
:10104000AD0108C091E09093AD01873018F086E0C3
:101050008093D1018091D101CF910895CF5FCBCF03
:10106000EF92FF920F931F9364E670E080E090E0B0
:101070000E94F11D80912302882371F080E090E0AE
:10108000A2E0B3E48093B5019093B601A093B701B9
:10109000B093B8018EE611C080910B0190910C01C4
:1010A000A0910D01B0910E018093B5019093B6010E
:1010B000A093B701B093B80186EE8093AB010E9474
:1010C0004A0780910A0181110E94D2030E94EF0712
:1010D0000E94C7046CED75E080E090E00E94F11D75
:1010E0000E9487070E94EB0442E050E063E473E053
:1010F00081E00E94B11B1092CD011092CE0110929E
:10110000CF011092D0012DEC3CEC45EB52E461E0B4
:1011100070E08CE892E00E94BF0E2DEC3CEC45EBB9
:1011200052E462E070E080E392E00E94BF0E8091A2
:10113000AE01882311F12091B5013091B6014091A3
:10114000B7015091B8011AE9E12E19E9F12E09ED24
:101150001FE360E070E08CE892E00E94A30E209113
:10116000B5013091B6014091B7015091B80160E0EE
:1011700070E080E392E00E94A30E1F910F91FF9018
:10118000EF900895CF92DF92EF92FF9298E0899FBF
:10119000B00111246E527E4F82E092E00E94D0177F
:1011A0006B017C0120E030E04AEF52E40E942A23E8
:1011B00087FF16C020E030E04CE552ECC701B601D5
:1011C0000E947924181664F420E030E040E251E4F3
:1011D000C701B6010E947D240E949623CB0100C066
:1011E000FF90EF90DF90CF90089522E040E167E21A
:1011F00084E292E00E948C1A64E085E192E00E9411
:10120000DC1365E172E082E092E00C94A414CF92CA
:10121000DF92EF92FF920F931F930E94C21D609383
:10122000A2017093A3018093A4019093A5018091E2
:101230002302882371F080E090E0A2E0B3E4809381
:10124000B5019093B601A093B701B093B8018EE6B3
:1012500011C080910B0190910C01A0910D01B091F2
:101260000E018093B5019093B601A093B701B0939E
:10127000B80186EE8093AB012091B5013091B601A3
:101280004091B7015091B8011AE9E12E19E9F12E08
:1012900009ED1FE360E070E08CE892E00E94A30E8D
:1012A0002091B5013091B6014091B7015091B8013C
:1012B00060E070E080E392E00E94A30E88E00E946C
:1012C000D31C892B11F461E001C060E085E00E942D
:1012D0009D1C8EE094E00E94131F892B09F43EC1EF
:1012E0008EE094E00E942C1F90ED980F9A30A8F4A5
:1012F00040915201509153019AE0949F9001959F23
:10130000300D112420533109280F311D87FD3A95E6
:1013100030935301209352011FC18C3281F4E0912C
:101320005701E63408F014C181E08E0F8093570115
:10133000F0E0E85AFE4F80915201808309C181326A
:101340000CF404C1482F552747FD5095652F752F84
:10135000FA01E156F109E631F10508F086C0EC5CCE
:10136000FF4F0C947C25809152019091530100977E
:1013700071F08093080120910A01222309F479C0B9
:1013800020E436E0409106016091090137C0809168
:101390005201843031F0883031F0893031F463E02B
:1013A00005C061E003C062E001C060E0862F90E00C
:1013B0009093530180935201892B09F45AC0609392
:1013C000090180910A01882309F453C020E436E022
:1013D0004091060111C04091520180915301409308
:1013E00006018093070180910A01882309F441C016
:1013F00020E436E060910901809108010E94F00D1F
:1014000038C08091520190915301009791F1813041
:10141000910519F4109223022CC0029751F581E036
:101420008093230226C06CED72E08EE094E00E946F
:10143000962022E030E04DEC5CEC6CE070E48EE055
:1014400094E00E94B0226AED72E08EE094E00E9487
:1014500096200FC0809354018091570180935601CC
:10146000809152018093550104C085EE92E00E9464
:101470006A0380910A01882309F453C068ED72E081
:101480008EE094E00E949620609108016F71605C8C
:101490008EE094E00E94BB2065ED72E08EE094E067
:1014A0000E949620609108016F7170E04AE050E060
:1014B0008EE094E00E948B2162ED72E08EE094E079
:1014C0000E94962060910601709107014AE050E069
:1014D0008EE094E00E948B216EEC72E08EE094E04E
:1014E0000E94962080910901813039F0823041F0CC
:1014F000833049F463E973E008C061EB71E005C033
:1015000064E673E002C060E070E04AE050E08EE024
:1015100094E00E948B2169EC72E08EE094E00E94DE
:10152000962063EC72E08EE094E00E949620609139
:10153000230270E04AE050E08EE094E00E948B21AC
:1015400061EC72E08EE094E00E94D6201092570188
:1015500010925301109252010E94B60380910A0129
:10156000882339F00E94020481110E94B6030E9470
:1015700088048091A2019091A301A091A401B0914F
:10158000A5014091A7015091A8016091A901709116
:10159000AA01841B950BA60BB70B89389341A105B3
:1015A000B10508F411C10E94A8039091AE01809189
:1015B000B001992371F1882309F448C040ED57E048
:1015C00064E170E08CE892E00E94F60E60918C027B
:1015D00070918D0280918E0290918F020E949623CD
:1015E0007093BA016093B90120E030E048EC52E416
:1015F000609198027091990280919A0290919B0259
:101600000E947D240E9496237093C0016093BF01C5
:1016100027C08823D9F068EC75E08CE892E00E943E
:10162000C7116B017C016091AB0170E080E090E03C
:101630000E94C9239B01AC01C701B6010E947D2411
:101640000E9496237093BA016093B9018091AB0117
:1016500024E6829FC00111249093C0018093BF01B2
:101660009091AE018091AF01992371F1882309F423
:1016700048C040ED57E064E170E080E392E00E94F2
:10168000F60E609130027091310280913202909199
:1016900033020E9496237093BC016093BB0120E04B
:1016A00030E048EC52E460913C0270913D02809140
:1016B0003E0290913F020E947D240E9496237093E7
:1016C000C0016093BF0127C08823D9F068EC75E0A2
:1016D00080E392E00E94C7116B017C016091AB0135
:1016E00070E080E090E00E94C9239B01AC01C7013B
:1016F000B6010E947D240E9496237093BC016093E2
:10170000BB018091AB0124E6829FC001112490931C
:10171000C0018093BF018091B9019091BA012091DD
:10172000BB013091BC01820F931F9093BE01809347
:10173000BD018091AD0181111FC08091A601882358
:1017400089F1F8942091A6018091CD019091CE016C
:10175000A091CF01B091D001820F911DA11DB11DAB
:101760008093CD019093CE01A093CF01B093D0018F
:101770001092A601789416C082E092E00E940C17A5
:10178000F12C8091D101F816C0F68F2D0E94C2086D
:10179000EF2DF0E0EE0FFF1FEF53FE4F918380839C
:1017A000F394EFCF0E94B0068091A2019091A30123
:1017B000A091A401B091A5018093A7019093A801E5
:1017C000A093A901B093AA011F910F91FF90EF90F0
:1017D000DF90CF9008958627682F62956827062EA0
:1017E000669566956025062E669560256770082EBD
:1017F000892F669507946795902D8627069467959F
:10180000902586270895E8982A988EBD0DB407FE86
:10181000FDCF8EB56EBD0DB407FEFDCF8EB52A9AF5
:10182000E89A089560E00C94030C88E20E94120C80
:10183000807521F080E00E94120CF7CF0895CF93BD
:10184000C82F81E00E94120C682F637E6C2B81E808
:10185000CF910C94030C22E0660F771F881F991F0D
:101860002A95D1F729E03DE340E050E00E943B2576
:1018700066E0220F331F441F551F6A95D1F720934E
:10188000F1023093F2024093F3025093F402089570
:101890008091EA02853021F48091EB02882311F0D7
:1018A00080E0089584E08093EA020E941F0C81E0AA
:1018B00008959091EA0281E094300CF080E0089560
:1018C000CF93DF932A9A229A2A9A84B18C6284B9A0
:1018D00080E58CBD8DB581608DBD6AEA8FEA0E947E
:1018E000030C8FE20E94120C8A3AB9F765E58FEA81
:1018F0000E94030C8FE20E94120C8535B9F7CFEAE3
:10190000D4E0FE018491882339F031966491806897
:101910000E94030C2296F5CF6091F00280EB0E94AA
:10192000030C8091F1029091F202A091F302B09128
:10193000F402BD018827992787E80E94030C809153
:10194000F1029091F202A091F302B091F402692F9A
:101950007A2F8B2F992788E80E94030C6091F1025F
:1019600089E80E94030C84E08093EA02DF91CF9122
:101970000895CF93DF93EC018091EA02843019F04F
:10198000853021F14DC01092F8021092EB02609167
:10199000F0028FEF9FEF0E94EB0B9093EE0280938B
:1019A000ED02D093E902C093E80285E08093EA0259
:1019B0000E94150C60E885EA0E94030C80E10E94F9
:1019C0001F0C62E08EE90E94030C2AC08091F8028D
:1019D0002091EB0290E0049630E08217930724F008
:1019E0008091EB028834E0F084E08093EA020E9468
:1019F0001F0C8091F8028334B0F48091ED02909135
:101A0000EE02892B81F48091F70286FF0FC090913E
:101A1000EF029F3159F08091F7028F71891731F0F1
:101A20008FEF9FEF05C081E090E002C080E090E082
:101A3000DF91CF910895CF934093F802FB0120E00E
:101A400030E050E02417350744F4D901A750BD4FCA
:101A500091919C932F5F3F4FF5CF86FD04C0807E10
:101A60009091EF02890F8093F7026091F0028FEF5F
:101A70009FEF0E94EB0B9093EE028093ED0290910A
:101A8000F8028EEF891B8093EA020E94150C8CE00D
:101A90000E941F0C60E085EA0E94030C8091EA021C
:101AA0008330DCF588E20E94120C87FDF7CF80912D
:101AB000EA0287FF1BC09091F8028091EA02E09150
:101AC000E802F091E902E90FF11DE80FF11D87FD31
:101AD000FA95C3816C2F8091ED029091EE020E94E5
:101AE000EB0B9093EE028093ED020DC08091EA0221
:101AF000882329F0813031F4C091EE0204C0C091F6
:101B0000ED0201C0CAEA6C2F80E80E94030C8091AC
:101B1000EA028F5F8093EA02C1CFCF91089580914E
:101B2000EA02853009F04DC060E485EA0E94030CAA
:101B300084E20E94120C8093EC02789488E20E9466
:101B4000120C8075D9F38091EB0281110FC0E091E6
:101B5000E802F091E9028091EB0291E0980F9093F6
:101B6000EB029091F002E80FF11D908380E00E945B
:101B7000120CE091E802F091E9029091EB0221E071
:101B8000290F2093EB02E90FF11D8083682F8091CC
:101B9000ED029091EE020E94EB0B9093EE02809387
:101BA000ED028091F8022091EB0290E0049630E083
:101BB00082179307A4F08091EB02883408F4BECF1B
:101BC000089588E20E94120C83FF09C084E080938C
:101BD000EA020E941F0C60E885EA0C94030C089549
:101BE000CF92DF92EF92FF921F93CF93DF93C82F94
:101BF000162FD42FF901AFEFA60FA33028F4B0E0D1
:101C0000A85EBE4FAC9101C0A0E0B0E020E836E98C
:101C100048E950E00E94A0256B017C01212F30E0B3
:101C2000A4ECB9E00E948A25DF019B01AC010E946F
:101C3000A025C60ED71EE81EF91EC701B6010E94D8
:101C40002B0CD093F0028C2F8F718093EF0264E104
:101C500070E080E090E00E94F11D8091EF02882307
:101C600041F043E050E06FE87DE080E00E94B11B6E
:101C700003C080E00E94D11B0E94600CC093F5025B
:101C80008C2FDF91CF911F91FF90EF90DF90CF903D
:101C9000089586EF92E00E94B90C90933F038093E1
:101CA0003E0320913E0330913F0381E02F3F3F4FA1
:101CB00009F480E008950C94480C0C941B0DEF92ED
:101CC000FF921F93CF93DF931F92CDB7DEB7182FEC
:101CD0007B0149830E94480C4981811105C04983D9
:101CE0000E94490E4981F5CFB701812F0F90DF91F6
:101CF000CF911F91FF90EF900C941B0DCF93C82FA5
:101D00000E94590C8823B9F0CC23D1F383B7817F8B
:101D1000C33021F0C23021F49CE003C094E001C044
:101D200090E0892B83BF83B7816083BF889583B799
:101D30008E7F83BFE5CFCF910895809140038F5F61
:101D4000809340030895EF92FF920F931F93FC013D
:101D5000758B648B208F318F428F538FE0A2F1A25D
:101D600002A313A340E050E060E074E444AB55AB41
:101D700066AB77AB1F910F91FF90EF900895FC0138
:101D8000778B668B248F358F468F578F40E050E0DE
:101D900060E074E440AF51AF62AF73AF08958EE47A
:101DA00080937C0062E070E080E090E00E94F11D92
:101DB00080917A00806480937A0080917A0086FD19
:101DC000FCCF809178002091790030E0322F2227DB
:101DD000442737FD4095542F282B60E070E381E1C4
:101DE00090E00E945D25CA01B90108952F923F92AB
:101DF0004F925F926F927F928F929F92AF92BF921B
:101E0000CF92DF92EF92FF920F931F93CF93DF93C6
:101E1000CDB7DEB7A8970FB6F894DEBF0FBECDBF23
:101E200098A78FA37E8F6D8F8A010E94CF0E6D8B36
:101E30007E8B8F8B988F0E94C21D4B015C016FA01F
:101E400078A428E5620E711CC801A0E0B0E0898B7F
:101E50009A8BAB8BBC8BAFA1B8A554968C910E948A
:101E6000FC1CF30191838083BC01882777FD80955A
:101E7000982F0E94C9236B017C012DEC3CEC4CE0B7
:101E800054E40E942A2387FF0BC011E026E636E6C1
:101E900046EE53E4C701B6010E94792418160CF0EF
:101EA00010E00E94C21D681979098A099B092989D5
:101EB0003A894B895C89261737074807590708F084
:101EC00040C00E94C21D698F7A8F8B8F9C8F00E06B
:101ED00010E01A8219824FA158A5405C5F4F58A3A9
:101EE0004F8F8FA198A58C5B9F4F9C878B87AFA14D
:101EF000B8A5A85BBF4FBAA3A9A3EFA1F8A5E45B5F
:101F0000FF4FFE87ED872FA138A5205B3F4F3CA3F5
:101F10002BA34FA158A54C5A5F4F588B4F878FA1C9
:101F200098A5865A9F4F9E838D832FA038A49BE54A
:101F3000290E311CAFA1B8A5A85ABF4FBEA3ADA3AF
:101F400044C1112309F487CFBCCF0E94C21D298D43
:101F50003A8D4B8D5C8D621B730B840B950B29891D
:101F60003A894B895C89621773078407950708F0E3
:101F700034C10F5F1F4FEFA1F8A584A595A5A6A5B5
:101F8000B7A580A791A7A2A7B3A784890E94FC1C2C
:101F9000AFA1B8A595969C938E93949756968C91E5
:101FA0000E94FC1C3C01EFA1F8A597A386A324A1E5
:101FB00035A13A872987B901882777FD8095982F21
:101FC0000E94C9236B017C01AFA1B8A5D4968D9066
:101FD0009D90AD90BC90D797A50194010E94C52219
:101FE00020E030E040E85AE30E947D249B01AC01F0
:101FF000C501B4010E94C6229B01AC01EFA1F8A566
:1020000064AB75AB86AB97ABC701B6010E94C52226
:102010004B015C01AFA1B8A59C966D937D938D9308
:102020009C939F97B301882777FD8095982F0E94F6
:10203000C9236B017C01EFA1F8A540AC51AC62ACA7
:1020400073ACA30192010E94C52220E030E040E879
:102050005AE30E947D249B01AC01C301B2010E949E
:10206000C6229B01AC01AFA1B8A5D8966D937D9314
:102070008D939C93DB97C701B6010E94C5226B012B
:102080007C01EFA1F8A560AB71AB82AB93ABA5016E
:102090009401C501B4010E947D249B01AC01AF8D68
:1020A000B8A16D937D938D939C931397EB85FC85DD
:1020B00060817181828193810E94C622AB85BC853B
:1020C0006D937D938D939C931397A7019601C70100
:1020D000B6010E947D249B01AC01E9A1FAA16083B5
:1020E000718382839383AD85BE856D917D918D9142
:1020F0009C910E94C622ED85FE8560837183828358
:102100009383AFA1B8A598964D905D906D907C900B
:102110009B97A3019201C501B4010E94C522EFA1C2
:10212000F8A520A131A142A153A10E947D249B01C9
:10213000AC01C301B2010E94C622AFA1B8A5DC96D2
:102140006D937D938D939C93DF97A70196010E94D9
:102150007D249B01AC01EBA1FCA160837183828390
:102160009383AF85B8896D917D918D919C910E94EB
:10217000C622EF85F8896083718382839383D101BE
:102180008C91ED81FE818083ADA1BEA18D919C914A
:10219000E985FA858E179F070CF0F6C021E0F10162
:1021A00020830130110529F4F1018081AD81BE81C8
:1021B0008C93ED81FE819081D1018C91981729F04B
:1021C000E981FA813196FA83E98329813A814D8D3B
:1021D0005E8D2417350708F4B8CEAD89BE89BD01E0
:1021E000882777FD8095982F0E94C92320E030E052
:1021F0004AE754E40E942E2320E030E040E85AE30E
:102200000E947D242B013C01EFA1F8A5208D318D8A
:10221000428D538D0E947D244B015C01B80180E00A
:1022200090E00E94C7236B017C012FA038A4F4E446
:102230002F0E311C9B01AC01D1016D917D918D91CF
:102240009C910E942E230E94E4249B01AC01C501B5
:10225000B4010E947D2469837A838B839C83EFA1E0
:10226000F8A56487758786879787248D358D468D79
:10227000578DC301B2010E947D242B013C010FA1A7
:1022800018A5045B1F4FA7019601D8016D917D91A0
:102290008D919C910E942E230E94E4249B01AC010D
:1022A000C301B2010E947D246D837E838F83988752
:1022B000EFA1F8A5608B718B828B938BA3019201A8
:1022C000C501B4010E947D24AFA0B8A4F4E5AF0E0F
:1022D000B11CD5012D913D914D915C910E947D24C1
:1022E000A70196010E942E236B017C01EFA1F8A5A6
:1022F00060837183828393832D813E814F815885D2
:1023000069817A818B819C810E947D249B01AC0133
:10231000AFA1B8A514966D937D938D939C93179759
:10232000C701B6010E942E23EFA1F8A5608771872F
:1023300082879387D1011D921D921D921C92139743
:10234000F8011082118212821382D5011D921D9212
:102350001D921C921397A8960FB6F894DEBF0FBE7D
:10236000CDBFDF91CF911F910F91FF90EF90DF9044
:10237000CF90BF90AF909F908F907F906F905F9025
:102380004F903F902F900895D1011C920ACF2F9229
:102390003F924F925F926F927F928F929F92AF92F5
:1023A000BF92CF92DF92EF92FF920F931F93CF9342
:1023B000DF9300D000D000D0CDB7DEB79E838D83F1
:1023C0007A8369830E94CF0E2B013C0100E010E06C
:1023D0008D819E81845B9F4F1C01ED81FE81E85BB6
:1023E000FF4FFC83EB8389819A810817190709F451
:1023F00055C0ED81FE8186890E94FC1CED81FE8125
:1024000097A386A3BC01882777FD8095982F0E940B
:10241000C9236B017C01ED81FE8180AC91ACA2AC43
:10242000B3ACA50194010E94C52220E030E040E851
:102430005AE30E947D249B01AC01C501B4010E94B6
:10244000C6229B01AC01ED81FE8160AF71AF82AF0E
:1024500093AFC701B6010E94C522ED81FE8160AB3A
:1024600071AB82AB93AB9B01AC010E947D249B01BD
:10247000AC01EB81FC816083718382839383F101E2
:1024800060817181828193810E94C622F101608303
:102490007183828393830F5F1F4FA5CFB80180E0C4
:1024A00090E00E94C7239B01AC01F1016081718122
:1024B000828193810E942E230E94E4246B017C017F
:1024C000B201882777FD8095982F0E94C92320E0CC
:1024D00030E04AE754E40E942E2320E030E040E858
:1024E0005AE30E947D24ED81FE81248D358D468D39
:1024F000578D0E947D24A70196010E947D24ED81C5
:10250000FE81608B718B828B938BF1011082118223
:102510001282138226960FB6F894DEBF0FBECDBF8F
:10252000DF91CF911F910F91FF90EF90DF90CF90AF
:10253000BF90AF909F908F907F906F905F904F90E3
:102540003F902F900895FF920F931F93CF93DF93A7
:10255000FC010081C181D281F8948981F02EF09430
:102560008F21898378941DE7115029F182E090E052
:102570000E94191E88818023B9F3F8948A818F21E3
:102580008A838981802B8983789480EE91E00E94F0
:10259000191EF89489818F21898386E490E00E9436
:1025A000191E8881802311E009F010E078948AE9EF
:1025B00091E00E94191E812FDF91CF911F910F9101
:1025C000FF9008951F93CF93DF93FC011081C18189
:1025D000D281912F909560FF12C0F8948A8189234F
:1025E0008A838981812B89838AE090E00E94191E69
:1025F0008A81812B8A83789487E390E011C0F894D4
:102600008A8189238A838981812B898381E490E06F
:102610000E94191E8A81812B8A83789485E090E03C
:10262000DF91CF911F910C94191E0F931F93CF939D
:10263000DF93FC011081C181D281F8948981812BC3
:1026400089838A81012F009580238A8383E090E02B
:102650000E94191E8981802389838AE090E00E946C
:10266000191EC881789485E390E00E94191E1C23EE
:1026700081E009F480E0DF91CF911F910F910895DF
:10268000CF92DF92EF92FF920F931F93CF93DF933E
:102690001F92CDB7DEB76C01E62E08E010E0FF24F4
:1026A000F39461E09F2D9E2109F460E0C601498307
:1026B0000E94E212FF0C0150110949810115110518
:1026C00081F7411115C0F894D6011196ED91FC9156
:1026D000129791818C918095892381831196ED9138
:1026E000FC91129792818C918095892382837894B2
:1026F0000F90DF91CF911F910F91FF90EF90DF909E
:10270000CF900895EF92FF920F931F93CF93DF9393
:102710008C01C8E0D0E0F12CEE24E394C8010E94C3
:1027200015138111FE28EE0C2197C1F78F2DDF9133
:10273000CF911F910F91FF90EF900895CF92DF926C
:10274000FF920F931F93CF93DF931F92CDB7DEB706
:102750008C01F62E40E065E579830E944013CF2C72
:102760007981D72E88E0F82EF60161916F0140E063
:10277000C8010E944013FA94B9F70F90DF91CF91EE
:102780001F910F91FF90DF90CF90089540E06CEC87
:102790000C944013FC0113861586148627E030E064
:1027A000DF01A20FB31F13961C922115310519F0FA
:1027B00021503109F5CF08951F93CF93DF93EC019A
:1027C000162F60E0812F0E94641C612F70E0FB01D6
:1027D000EA51FA4FE491E883FB01E650FA4FE491A5
:1027E000F0E0EE0FFF1FE25FF94F859194919A831D
:1027F0008983CE01DF91CF911F910C94CA13AF92C0
:10280000BF92CF92DF92EF92FF920F931F93CF93DD
:10281000DF931F92CDB7DEB75C01E62ED72EFC0109
:10282000858581115DC0C5010E94A312811105C07B
:10283000F5011386158614866EC040E060EFC50171
:102840000E94401301E0F12CC12C11E0C5010E944F
:102850001513682FC50169830E94151369816130C2
:1028600019F48130B9F433C02F2D30E068131BC048
:10287000F5018385181730F4E20FF31F838180235D
:1028800049F402C0181731F060E0193058F4F5012E
:10289000148708C0F501EF0DF11D8381802B838320
:1028A00061E009C0C12EF501E20FF31F8381902F73
:1028B000909589238383C5010E94E2121F5F000F58
:1028C00011F4F39401E0F7E0FF1508F0BFCF1134E5
:1028D00038F0F501C386C11018C081E0858715C0A6
:1028E000F50113861586148680E0EE2DFD2D20E07F
:1028F00030E0D501A20FB31F13969C9191932F5FE7
:102900003F4F28303105A9F706C0F50183818823A0
:1029100039F381E0EACF0F90DF91CF911F910F91B2
:10292000FF90EF90DF90CF90BF90AF900895DC01C3
:1029300080E0615038F0ED91E827F0E0EE52FB4F77
:102940008491F7CF08950895FC0183EA94E1928B76
:10295000818B768365831482108289E0818381E094
:10296000828383830895FC0184810895CF93DF934C
:10297000EB0167E0CE010E94971491E02F81821352
:1029800090E0892FDF91CF910895EF92FF920F93FE
:102990001F93CF93DF9300D0CDB7DEB77C018A01C0
:1029A000FC018581968169837A830E94A3126981E3
:1029B0007A81F701858196810E949E1340E06EEB3B
:1029C000F701858196810E944013F70185819681E8
:1029D0000E948213F8018083F701858196810E940D
:1029E0008213F8018183F701858196810E94821309
:1029F000F8018283F701858196810E948213F80194
:102A00008383F701858196810E948213F801848374
:102A1000F701858196810E948213F8018583F70171
:102A2000858196810E948213F8018683F701858152
:102A300096810E948213F8018783F7018581968130
:102A40000E948213F8018087F701858196810F909B
:102A50000F90DF91CF911F910F91FF90EF900C9409
:102A6000A312CF93DF93EA010E94C51468E0CE0160
:102A70000E94971491E02885821390E0892FDF91BE
:102A8000CF910895EF92FF920F931F93CF93DF930F
:102A9000EC017B018A018D819E810E94A312B70106
:102AA0008D819E810E949E1340E06EE48D819E8107
:102AB0000E94401340E0F80162818D819E810E9456
:102AC000401340E0F80163818D819E810E94401394
:102AD000F7018081803139F040E0F80164818D8117
:102AE0009E810E9440138D819E810E94A312488185
:102AF00068E48D819E810E9440138881882331F093
:102B00006AE070E080E090E00E94F11D8D819E817E
:102B1000DF91CF911F910F91FF90EF900C94A31232
:102B2000EF92FF921F93CF93DF9300D0CDB7DEB724
:102B30007C01FC018581968169837A830E94A312BE
:102B400069817A81F701858196810E949E1340E018
:102B500064EBF701858196810E944013F70185811E
:102B600096810E941513182FF701858196810E9486
:102B7000A31281E0111180E00F900F90DF91CF91AF
:102B80001F91FF90EF900895EF92FF920F931F9384
:102B9000CF93DF93CDB7DEB72A970FB6F894DEBF99
:102BA0000FBECDBF7C018B01242FAE014F5F5F4F65
:102BB0002A870E9431152A858823D1F0F801808167
:102BC0008031C1F02B3041F02C3021F02A3031F42B
:102BD0008FE305C08FE703C08FE501C08FE18D83D0
:102BE000AE014F5F5F4FB801C7010E94421502C09E
:102BF00080E001C081E02A960FB6F894DEBF0FBED8
:102C0000CDBFDF91CF911F910F91FF90EF9008956D
:102C1000CF93DF93CDB7DEB729970FB6F894DEBF19
:102C20000FBECDBFFB0120812031D1F0AE014F5F3F
:102C30005F4F0E943115882379F08D818F3351F0D9
:102C400018F48F3169F008C08F3541F08F3721F4C7
:102C50008CE007C08AE005C080E003C08BE001C0C3
:102C600089E029960FB6F894DEBF0FBECDBFDF9185
:102C7000CF910895EF92FF920F931F93CF93DF931D
:102C8000CDB7DEB761970FB6F894DEBF0FBECDBFEC
:102C90008C01FC01858196810E94CA13F80114827F
:102CA000FF24F394BE01665F7F4FF8018581968112
:102CB0000E94FF138823C9F1BE01665F7F4FC801E0
:102CC0000E94B614882371F3F8018081811108C035
:102CD000BE01665F7F4FC8010E949015811122C01E
:102CE000AE014F5F5F4FBE01665F7F4FC8010E941C
:102CF000C514F801E180BE01665F7F4FC8010E94E4
:102D000008168E1518F4F801818106C0BE01665FB1
:102D10007F4FC8010E940816F801818384818F5F6C
:102D20008483C0CFF801F082DBCF61960FB6F894B0
:102D3000DEBF0FBECDBFDF91CF911F910F91FF90EE
:102D4000EF900895CF93DF93CDB7DEB729970FB6F5
:102D5000F894DEBF0FBECDBFAE014F5F5F4F0E9444
:102D6000C51481E09981911101C080E029960FB6C8
:102D7000F894DEBF0FBECDBFDF91CF910895CF9203
:102D8000DF92EF92FF920F931F93CF93DF93EC01AB
:102D90008B01452BE1F08B818823C9F0888181115B
:102DA00016C00E94C21D6B017C0160E070E0CE0184
:102DB0000E94A21681110BC00E94C21D6C197D09D0
:102DC0008E099F096E3E72408105910570F3F801EE
:102DD00080818A3049F08B3061F0893079F46EE57A
:102DE00070E080E090E00EC06CEB70E080E090E07E
:102DF00009C067E771E080E090E004C06EEE72E029
:102E000080E090E0DF91CF911F910F91FF90EF90C4
:102E1000DF90CF900C94F11DCF93DF93EC018D8167
:102E20009E810E94A3128D819E810E94C6134881BB
:102E300064E48D819E810E9440138A81882351F031
:102E4000BE016F5F7F4F40E050E0CE01DF91CF9138
:102E50000C94BF16DF91CF9108958F929F92AF92FD
:102E6000BF92CF92DF92EF92FF921F93CF93DF93A7
:102E7000FB01EA01698170E0762F66278881682B63
:102E800080818232B1F18832A1F1803109F078C0BD
:102E90001F8175956795882777FD8095982F0E94EB
:102EA000C92320E030E040E85EE30E94C5226B01C8
:102EB0007C01612F70E08E81681B7109882777FD86
:102EC0008095982F0E94C9234B015C01612F70E00F
:102ED00080E090E00E94C7239B01AC01C501B401D2
:102EE0000E942E239B01AC01C701B6010E94C6229D
:102EF00043C08C818F3381F198F48F3109F040C049
:102F000093E0759567959A95E1F7882777FD809509
:102F1000982F0E94C92320E030E040E05FE32AC000
:102F20008F3569F08F3761F5882777FD8095982F69
:102F30000E94C92320E030E040E85DE31BC07595A6
:102F40006795882777FD8095982F0E94C92320E0F8
:102F500030E040E05EE30EC0759567957595679526
:102F6000882777FD8095982F0E94C92320E030E0C4
:102F700040E85EE30E947D24562F472F382F292FEB
:102F8000652F742F832F922FDF91CF911F91FF9088
:102F9000EF90DF90CF90BF90AF909F908F9008956B
:102FA000EF92FF920F931F93CF93DF93CDB7DEB7CE
:102FB00029970FB6F894DEBF0FBECDBF8C017B0101
:102FC000AE014F5F5F4F0E943115882341F0AE0183
:102FD0004F5F5F4FB701C8010E942D1704C060E02A
:102FE00070E08EEF92EC29960FB6F894DEBF0FBE1C
:102FF000CDBFDF91CF911F910F91FF90EF9008957A
:103000008091710390E020917203821B91090895D1
:103010002091720380917103281750F4E22FF0E0A1
:10302000ED58FC4F808190E02F5F2093720308954C
:103030008FEF9FEF0895E091720380917103E8177D
:1030400030F4F0E0ED58FC4F808190E008958FEF70
:103050009FEF08950895CF92DF92EF92FF920F9322
:103060001F93CF93DF937C01CB018A0120914D0305
:10307000222389F0EB016B01C40ED51ECC15DD05B2
:1030800069F06991D701ED91FC910190F081E02DFB
:10309000C7010995F3CF642F0E943619C801DF914B
:1030A000CF911F910F91FF90EF90DF90CF900895F7
:1030B000CF93DF931F92CDB7DEB7698320914D0385
:1030C0002223D1F020914E03203240F021E030E065
:1030D000FC013383228380E090E015C080914F0390
:1030E000E82FF0E0E05BFC4F998190838F5F809345
:1030F0004F0380934E0305C061E0CE0101960E940C
:10310000361981E090E00F90DF91CF910895FC0196
:103110001382128248EE53E060E070E044835583EE
:10312000668377838FE191E0918380830895109285
:1031300072031092710310924F0310924E030C947D
:10314000C51881E080934D036093700310924F0384
:1031500010924E0308950F93062F21E040914E03E5
:1031600060E573E0809170030E94E31810924F03B2
:1031700010924E0310924D030F91089561E00C944C
:10318000AB1881E493E00C9487181092000481E05E
:103190008093FE031092FD0361E082E10E949D1C7A
:1031A00061E083E10E949D1CE9EBF0E080818E7F6D
:1031B000808380818D7F808388E48093B80085E45C
:1031C0008093BC0008950F93413208F046C090915F
:1031D00000049111FCCF92E0909300040093FE0351
:1031E0009FEF909393031092D8034093D703FB0172
:1031F00069ED73E0DB019A2F961B941718F49191F7
:103200009D93F9CF1092FF039091FF03880F892BB4
:103210008093FF038091FD03813041F41092FD0300
:103220008091FF038093BB0085EC01C085EE809305
:10323000BC00222321F0809100048230E1F38091D0
:1032400093038F3F61F080919303803251F080911E
:103250009303803341F483E007C081E005C080E040
:1032600003C082E001C084E00F910895613298F4B8
:1032700020910004243089F46093B503FC0187EBAE
:1032800093E0DC012A2F281B261718F421912D9397
:10329000F9CF80E0089581E0089582E0089585EDFA
:1032A0008093BC008091BC0084FDFCCF1092000490
:1032B000089585EC8093BC001092000408951F923D
:1032C0000F920FB60F9211242F933F934F935F935A
:1032D0006F937F938F939F93AF93BF93EF93FF93DE
:1032E0008091B900887F803609F49CC068F58832E7
:1032F00009F45BC090F4803109F454C038F4882399
:1033000009F4F5C0883009F44DC0F5C0883109F4DE
:103310004CC0803209F45DC0EEC0803409F468C04E
:1033200048F4803309F455C0883309F0E4C0809331
:103330009303A8C0803509F44FC0883509F45DC0F7
:10334000883409F0D8C0D5C0883909F4C6C0A8F4BB
:10335000883709F467C038F4883609F463C08037C9
:1033600009F460C0C8C0883809F4B7C0803909F4CE
:103370005FC0803809F0BFC05BC0803B09F485C0E6
:1033800038F4803A09F466C0883A09F47EC0B3C0C4
:10339000803C09F4A6C0883C09F4A3C0883B09F42A
:1033A00089C0A9C08091FF0310C09091D80380917B
:1033B000D703981770F5E091D80381E08E0F8093C2
:1033C000D803F0E0E752FC4F80818093BB0085EC8E
:1033D00085C0809393038DC0E091D80381E08E0F68
:1033E0008093D8038091BB00F0E0E752FC4F8083CC
:1033F0009091D8038091D7036DC0E091D80381E00C
:103400008E0F8093D8038091BB00F0E0E752FC4F11
:1034100080838091FE0381116CC081E08093FD0365
:1034200084EA60C083E08093000410929403CFCFBD
:1034300080919403803208F050C0E091940381E0C1
:103440008E0F809394038091BB00F0E0EB56FC4F0D
:103450008083BDCF80919403803230F4E091940357
:10346000F0E0EB56FC4F10820E944F1960919403DC
:1034700070E0E091F903F091FA0385E993E0099592
:10348000109294030E94591936C084E0809300047E
:103490001092B6031092B503E091FB03F091FC0388
:1034A00009958091B503811105C081E08093B50332
:1034B0001092B703E091B60381E08E0F8093B603BC
:1034C000F0E0E954FC4F80818093BB009091B603FB
:1034D0008091B503981708F47ACF85E88093BC00F3
:1034E0000AC085EC8093BC001092000404C01092C6
:1034F00093030E944F19FF91EF91BF91AF919F915C
:103500008F917F916F915F914F913F912F910F908C
:103510000FBE0F901F901895FC01138212828FE24C
:1035200091E0918380836483418722871386089585
:103530001F93CF93DF93EC01162F6C8181E493E00E
:103540000E94A118E0914103F09142036B85612B29
:103550000190F081E02D81E493E0099581E493E00E
:10356000DF91CF911F910C94BE1828E0FC012387B6
:1035700060E00C94981A1F93CF93DF93EC01162F01
:1035800064600E94981A81E090E00E94191E612FE9
:103590006B7FCE010E94981A82E390E0DF91CF9179
:1035A0001F910C94191E1F93CF93DF93EC01162FDC
:1035B0000E94981A612FCE01DF91CF911F910C9438
:1035C000BB1AEF92FF921F93CF93DF931F92CDB759
:1035D000DEB77C01162F607F642B49830E94D31ACB
:1035E00080E1189FB00111244981642BC7010F901D
:1035F000DF91CF911F91FF90EF900C94D31A41E08F
:103600000E94E11A80E090E0089540E00C94E11AF5
:1036100061E00E94051B80ED97E00C94191E62E0AA
:103620000E94051B80ED97E00C94191ECF93DF9349
:10363000CDB7DEB728970FB6F894DEBF0FBECDBF6B
:1036400028E0E0E1F1E0DE01119601900D922A956B
:10365000E1F7FC012085241710F44FEF420FFE0123
:103660003196E40FF11DE40FF11D2081260F206833
:10367000622F28960FB6F894DEBF0FBECDBFDF9144
:10368000CF910C94051BFC016681262F24602683B4
:103690006C600C94051BCF93DF93EC01423018F063
:1036A0008D8188608D834887222329F0413019F469
:1036B0008D8184608D8362E370E080E090E00E9401
:1036C000F11D6B85CE010E94981A68EE73E080E0D0
:1036D00090E00E94F11D60E3CE010E94D31A84E9BC
:1036E00091E10E94191E60E3CE010E94D31A84E981
:1036F00091E10E94191E60E3CE010E94D31A86E96F
:1037000090E00E94191E60E2CE010E94D31A6D81E2
:103710006062CE010E94051B84E08E83CE010E9470
:10372000431BCE010E94081B82E08F8366E0CE011E
:103730000E94051BCE01DF91CF910C940F1BCF93FC
:10374000DF93EC0181E493E00E9497181D8220E052
:103750004A856985CE01DF91CF910C944B1B0C9467
:103760009F1B8230E8F4E82FF0E0EE0FFF1FEF5FC1
:10377000FB4F71836083813041F0809169008C7FC1
:10378000842B80936900E89A089580916900440F22
:10379000551F440F551F837F842B80936900E99A3E
:1037A0000895823068F4813011F0E89801C0E998FA
:1037B000E82FF0E0EE0FFF1FEF5FFB4F118210824A
:1037C00008951F920F920FB60F9211242F933F93DB
:1037D0004F935F936F937F938F939F93AF93BF9319
:1037E000EF93FF938091010490910204892B29F0BB
:1037F000E0910104F09102040995FF91EF91BF91CE
:10380000AF919F918F917F916F915F914F913F9178
:103810002F910F900FBE0F901F9018951F920F922F
:103820000FB60F9211242F933F934F935F936F9393
:103830007F938F939F93AF93BF93EF93FF93809169
:10384000030490910404892B29F0E0910304F09182
:1038500004040995FF91EF91BF91AF919F918F91D2
:103860007F916F915F914F913F912F910F900FBE7C
:103870000F901F901895833081F028F4813099F0D3
:103880008230A1F008958730A9F08830B9F08430F3
:10389000D1F4809180008F7D03C0809180008F776C
:1038A00080938000089584B58F7702C084B58F7DA2
:1038B00084BD08958091B0008F7703C08091B000DF
:1038C0008F7D8093B0000895CF93DF9390E0FC014B
:1038D000EA51FA4F2491FC01E650FA4F8491882373
:1038E00049F190E0880F991FFC01EE5DF94FA59119
:1038F000B491885E994FFC01C591D4919FB7611135
:1039000008C0F8948C91209582238C93888182231F
:103910000AC0623051F4F8948C91322F3095832391
:103920008C938881822B888304C0F8948C91822B9D
:103930008C939FBFDF91CF9108950F931F93CF93E7
:10394000DF931F92CDB7DEB7282F30E0F901EE529A
:10395000FA4F8491F901EA51FA4F1491F901E650B6
:10396000FA4F04910023C9F0882321F069830E9453
:103970003B1C6981E02FF0E0EE0FFF1FE85EF94F7E
:10398000A591B4919FB7F8948C91611103C01095E3
:10399000812301C0812B8C939FBF0F90DF91CF912A
:1039A0001F910F910895CF93DF93282F30E0F901F5
:1039B000EE52FA4F8491F901EA51FA4FD491F9018C
:1039C000E650FA4FC491CC2391F081110E943B1C28
:1039D000EC2FF0E0EE0FFF1FE25FF94FA591B491DD
:1039E0002C912D2381E090E021F480E002C080E062
:1039F00090E0DF91CF9108958E3008F08E5087705F
:103A000020910F0190E4299F90011124822B809333
:103A10007C0080917A00806480937A0080917A00A3
:103A200086FDFCCF809178002091790090E0922B68
:103A300008951F93CF93DF93182FEB0161E00E944D
:103A4000641C209711F460E004C0CF3FD10539F425
:103A500061E0812FDF91CF911F910C949D1CE12F8C
:103A6000F0E0EE52FA4FE491E330F9F048F4E1303F
:103A7000B9F0E230A1F584B5806284BDC8BD34C020
:103A8000E730E9F0E83019F1E43049F58091800041
:103A9000806280938000D0938B00C0938A0024C002
:103AA00084B5806884BDC7BD1FC0809180008068D8
:103AB00080938000D0938900C093880015C08091C6
:103AC000B00080688093B000C093B3000DC08091B7
:103AD000B00080628093B000C093B40005C0C038CD
:103AE000D1050CF0B5CFAFCFDF91CF911F910895E5
:103AF0001F920F920FB60F9211242F933F938F9323
:103B00009F93AF93BF938091060490910704A09177
:103B10000804B09109043091050423E0230F2D37E8
:103B200020F40196A11DB11D05C026E8230F0296C1
:103B3000A11DB11D209305048093060490930704F2
:103B4000A0930804B093090480910A0490910B0497
:103B5000A0910C04B0910D040196A11DB11D80939C
:103B60000A0490930B04A0930C04B0930D04BF912E
:103B7000AF919F918F913F912F910F900FBE0F901A
:103B80001F9018952FB7F894609106047091070460
:103B900080910804909109042FBF08953FB7F894CD
:103BA00080910A0490910B04A0910C04B0910D0433
:103BB00026B5A89B05C02F3F19F00196A11DB11D88
:103BC0003FBF6627782F892F9A2F620F711D811DA5
:103BD000911D42E0660F771F881F991F4A95D1F704
:103BE0000895CF92DF92EF92FF92CF93DF936B0114
:103BF0007C010E94CE1DEB01C114D104E104F1044B
:103C000089F00E94C4220E94CE1D6C1B7D0B683E71
:103C1000734090F381E0C81AD108E108F108C85157
:103C2000DC4FEACFDF91CF91FF90EF90DF90CF9004
:103C30000895019739F0880F991F880F991F0297EF
:103C40000197F1F70895789484B5826084BD84B5B6
:103C5000816084BD85B5826085BD85B5816085BD87
:103C6000EEE6F0E0808181608083E1E8F0E01082A0
:103C7000808182608083808181608083E0E8F0E0E1
:103C8000808181608083E1EBF0E0808184608083CB
:103C9000E0EBF0E0808181608083EAE7F0E0808102
:103CA0008460808380818260808380818160808362
:103CB0008081806880831092C100089508950E94D9
:103CC000231E0E945E1E0E943008C0E4DFE10E94B5
:103CD00007092097E1F30E94401FF9CF1F920F922E
:103CE0000FB60F9211242F938F939F93EF93FF930F
:103CF000E0911E04F0911F048081E0912404F09172
:103D0000250482FD12C09081809127048F5F8F73FC
:103D100020912804821751F0E0912704F0E0E25F3F
:103D2000FB4F958F8093270401C08081FF91EF9115
:103D30009F918F912F910F900FBE0F901F9018950C
:103D40001F920F920FB60F9211242F933F934F9310
:103D50005F936F937F938F939F93AF93BF93EF93F3
:103D6000FF938EE094E00E944E1FFF91EF91BF9170
:103D7000AF919F918F917F916F915F914F913F9103
:103D80002F910F900FBE0F901F9018958EE094E02A
:103D90000E94131F21E0892B09F420E0822F08954F
:103DA000109211041092100488EE93E0A0E0B0E0AD
:103DB0008093120490931304A0931404B0931504F9
:103DC00087E391E090930F0480930E0485EC90E0DC
:103DD00090931B0480931A0484EC90E090931D044C
:103DE00080931C0480EC90E090931F0480931E0449
:103DF00081EC90E0909321048093200482EC90E089
:103E0000909323048093220486EC90E09093250401
:103E100080932404109227041092280410922904FD
:103E200010922A040895FC01818D228D90E0805C1F
:103E30009F4F821B91098F7399270895FC01918DE3
:103E4000828D981731F0828DE80FF11D858D90E0FD
:103E500008958FEF9FEF0895FC01918D828D981743
:103E600061F0828DDF01A80FB11D5D968C91928D5E
:103E70009F5F9F73928F90E008958FEF9FEF08955B
:103E800086EC9EE1892B49F080E090E0892B29F0B7
:103E90000E94C61E81110C9400000895FC01848DBF
:103EA000DF01A80FB11DA35ABF4F2C91848D90E064
:103EB00001968F739927848FA689B7892C93A0893F
:103EC000B1898C9180648C93938D848D981306C0F6
:103ED0000288F389E02D80818F7D80830895CF93C0
:103EE000DF93EC01888D8823C9F0EA89FB89808102
:103EF00085FD05C0A889B9898C9186FD0FC00FB6D4
:103F000007FCF5CF808185FFF2CFA889B9898C9114
:103F100085FFEDCFCE010E944E1FE7CFDF91CF91FD
:103F20000895CF92DF92FF920F931F93CF93DF9369
:103F30001F92CDB7DEB76C01DC015B969C915B975D
:103F40005C968C915C97981307C05096ED91FC910C
:103F50005197808185FD32C0F601038D10E00F5F1F
:103F60001F4F0F731127F02EF601848DF81211C028
:103F70000FB607FCF9CFD6015096ED91FC91519701
:103F8000808185FFF1CFC60169830E944E1F698140
:103F9000EBCF838DE80FF11DE35AFF4F6083D6010D
:103FA0005B960C935B975296ED91FC9153978081B1
:103FB0008062808381E058968C930DC0D60156961E
:103FC000ED91FC91579760835096ED91FC9151973C
:103FD00080818064808381E090E00F90DF91CF91B9
:103FE0001F910F91FF90DF90CF900895BF92CF92D5
:103FF000DF92EF92FF92CF93DF93EC016A017B0196
:10400000B22EE889F98982E08083411581EE580754
:1040100061057105A1F060E079E08DE390E0A70112
:1040200096010E943B2521503109410951095695BD
:10403000479537952795211580E1380798F0E8894D
:10404000F989108260E874E88EE190E0A70196019A
:104050000E943B2521503109410951095695479548
:1040600037952795EC85FD853083EE85FF85208388
:10407000188EEC89FD89B082EA89FB898081806194
:104080008083EA89FB89808188608083EA89FB8953
:10409000808180688083EA89FB8980818F7D80832D
:1040A000DF91CF91FF90EF90DF90CF90BF90089578
:1040B000CF92DF92EF92FF920F931F93CF93DF93F4
:1040C0006C017A01EB01E60EF71E00E010E0CE1560
:1040D000DF0561F06991D601ED91FC910190F081CD
:1040E000E02DC6010995080F191FF1CFC801DF9116
:1040F000CF911F910F91FF90EF90DF90CF90089597
:104100006115710581F0DB010D900020E9F7AD012B
:1041100041505109461B570BDC01ED91FC91028087
:10412000F381E02D099480E090E00895EF92FF92F2
:104130000F931F93CF93DF938C01FB01C0E0D0E07E
:1041400064917F018FEFE81AF80A662361F0D801C5
:10415000ED91FC910190F081E02DC8010995C80F07
:10416000D91FF701EDCFCE01DF91CF911F910F91B4
:10417000FF90EF900895DC01ED91FC910190F081AA
:10418000E02D09940F931F93CF93DF93EC016DE023
:104190000E94BB208C016AE0CE010E94BB20800FF0
:1041A000911FDF91CF911F910F9108950F931F934E
:1041B000CF93DF93EC010E9496208C01CE010E94E8
:1041C000C220800F911FDF91CF911F910F91089511
:1041D0008F929F92AF92BF92CF92DF92EF92FF9217
:1041E0000F931F93CF93DF93CDB7DEB7A1970FB691
:1041F000F894DEBF0FBECDBF7C01C42EE52FCB01EE
:10420000D22E19A221E02D1510F02AE0D22E8E0117
:104210000F5D1F4F8D2C912CA12CB12C6C2D7E2F5E
:10422000A50194010E943B258C2DD29E801911245A
:10423000015011098A3014F4805D01C0895CF801D5
:104240008083211531054105510521F0C22EE32F50
:10425000CA01E4CFB801C7010E948020A1960FB621
:10426000F894DEBF0FBECDBFDF91CF911F910F91AC
:10427000FF90EF90DF90CF90BF90AF909F908F9086
:104280000895CF92DF92EF92FF920F931F93CF93F7
:10429000DF93EC016A017B012115310579F4E88196
:1042A000F9810190F081E02D642FDF91CF911F9172
:1042B0000F91FF90EF90DF90CF9009942A30310555
:1042C000E9F477FF1AC06DE20E94BB208C014427FD
:1042D0005527BA014C195D096E097F092AE0CE0104
:1042E0000E94E820800F911FDF91CF911F910F91C5
:1042F000FF90EF90DF90CF9008952AE0B701A601DC
:10430000CE01DF91CF911F910F91FF90EF90DF9041
:10431000CF900C94E8209A01AB01662757FD609579
:10432000762F0C9441210F931F93CF93DF93EC01D1
:104330009A01AB01662757FD6095762F0E944121B7
:104340008C01CE010E94C220800F911FDF91CF917E
:104350001F910F9108952115310541F4DC01ED9174
:10436000FC910190F081E02D642F09940C94E820D9
:104370009A01462F50E060E070E00C94AB219A0166
:10438000AB0160E070E00C94AB214F925F926F92B2
:104390007F928F929F92AF92BF92CF92DF92EF92D5
:1043A000FF920F931F93CF93DF93EC016A017B0180
:1043B000B22E9A01AB01C701B6010E9422258823C3
:1043C00019F063E471E027C026013701E89477F81B
:1043D0002FEF3FEF4FE75FE7C301B2010E942225B5
:1043E00081110DC02FEF3FEF4FE75FE7C301B2012F
:1043F0000E942A2318161CF467E471E00CC02FEF0A
:104400003FEF4FE75FE4C701B6010E947924181619
:10441000ACF46BE471E0CE01DF91CF911F910F916D
:10442000FF90EF90DF90CF90BF90AF909F908F90D4
:104430007F906F905F904F900C9480202FEF3FEF14
:104440004FE75FECC701B6010E942A2387FDE1CF49
:1044500020E030E0A901C701B6010E942A2387FFAE
:104460000AC06DE2CE010E94BB208C01F7FAF094E5
:10447000F7F8F09402C000E010E0A12C60E070E0DA
:1044800080E09FE3AB1441F020E030E040E251E4F3
:104490000E942E23A394F6CF9B01AC01C701B60165
:1044A0000E94C6226B017C010E949B232B013C01D0
:1044B0000E94C7239B01AC01C701B6010E94C5221F
:1044C0006B017C012AE0B301A201CE010E94E82029
:1044D000080F191FBB2039F06FE471E0CE010E9474
:1044E0008020080F191F7B2C772041F120E030E05D
:1044F00040E251E4C701B6010E947D246B017C01BA
:104500000E9496234B01AA2497FCA094BA2C2AE07F
:1045100030E0B501A401CE010E944121080F191F0E
:10452000C501B4010E94C9239B01AC01C701B601BA
:104530000E94C5226B017C017A94D6CFC801DF911D
:10454000CF911F910F91FF90EF90DF90CF90BF9090
:10455000AF909F908F907F906F905F904F90089555
:104560000C94C5210F931F93CF93DF93EC010E940E
:10457000C5218C01CE010E94C220800F911FDF91C6
:10458000CF911F910F91089508955058BB27AA27E6
:104590000ED075C166D130F06BD120F031F49F3F61
:1045A00011F41EF45BC10EF4E095E7FB51C1E92F55
:1045B00077D180F3BA17620773078407950718F05D
:1045C00071F49EF58FC10EF4E0950B2EBA2FA02D3D
:1045D0000B01B90190010C01CA01A0011124FF27B0
:1045E000591B99F0593F50F4503E68F11A16F040AB
:1045F000A22F232F342F4427585FF3CF46953795AA
:104600002795A795F0405395C9F77EF41F16BA0B6E
:10461000620B730B840BBAF09150A1F0FF0FBB1F1C
:10462000661F771F881FC2F70EC0BA0F621F731F65
:10463000841F48F4879577956795B795F7959E3FC2
:1046400008F0B3CF9395880F08F09927EE0F979550
:1046500087950895D9D008F481E008950CD00FC152
:1046600007D140F0FED030F021F45F3F19F0F0C0E8
:10467000511139C1F3C014D198F39923C9F35523CB
:10468000B1F3951B550BBB27AA2762177307840745
:1046900038F09F5F5F4F220F331F441FAA1FA9F3FB
:1046A00033D00E2E3AF0E0E830D091505040E695ED
:1046B000001CCAF729D0FE2F27D0660F771F881F4E
:1046C000BB1F261737074807AB07B0E809F0BB0B3D
:1046D000802DBF01FF2793585F4F2AF09E3F510561
:1046E00068F0B6C000C15F3FECF3983EDCF38695FE
:1046F00077956795B795F7959F5FC9F7880F911DD7
:104700009695879597F90895E1E0660F771F881FC2
:10471000BB1F621773078407BA0720F0621B730B75
:10472000840BBA0BEE1F88F7E095089504D06894C7
:10473000B111D9C00895BCD088F09F5790F0B92F1F
:104740009927B751A0F0D1F0660F771F881F991FE6
:104750001AF0BA95C9F712C0B13081F0C3D0B1E0F8
:104760000895C0C0672F782F8827B85F39F0B93F08
:10477000CCF3869577956795B395D9F73EF49095E8
:104780008095709561957F4F8F4F9F4F0895E89466
:1047900009C097FB3EF490958095709561957F4F89
:1047A0008F4F9F4F9923A9F0F92F96E9BB27939537
:1047B000F695879577956795B795F111F8CFFAF447
:1047C000BB0F11F460FF1BC06F5F7F4F8F4F9F4F78
:1047D00016C0882311F096E911C0772321F09EE8D6
:1047E000872F762F05C0662371F096E8862F70E03C
:1047F00060E02AF09A95660F771F881FDAF7880F16
:104800009695879597F90895990F0008550FAA0B6B
:10481000E0E8FEEF16161706E807F907C0F01216D3
:104820001306E407F50798F0621B730B840B950BD6
:1048300039F40A2661F0232B242B252B21F408952B
:104840000A2609F4A140A6958FEF811D811D0895C8
:1048500097F99F6780E870E060E008959FEF80EC33
:10486000089500240A9416161706180609060895D6
:1048700000240A9412161306140605060895092E3C
:104880000394000C11F4882352F0BB0F40F4BF2BAB
:1048900011F460FF04C06F5F7F4F8F4F9F4F0895EB
:1048A00057FD9058440F551F59F05F3F71F04795E1
:1048B000880F97FB991F61F09F3F79F087950895C6
:1048C000121613061406551FF2CF4695F1DF08C0E5
:1048D000161617061806991FF1CF86957105610502
:1048E00008940895E894BB2766277727CB0197F9AA
:1048F00008958ADF08F48FEF08950BD0C0CFB1DFA1
:1049000028F0B6DF18F0952309F0A2CFA7CF112425
:10491000EACFC6DFA0F3959FD1F3950F50E0551F66
:10492000629FF001729FBB27F00DB11D639FAA2704
:10493000F00DB11DAA1F649F6627B00DA11D661F53
:10494000829F2227B00DA11D621F739FB00DA11D74
:10495000621F839FA00D611D221F749F3327A00D2E
:10496000611D231F849F600D211D822F762F6A2FCA
:1049700011249F5750408AF0E1F088234AF0EE0F4F
:10498000FF1FBB1F661F771F881F91505040A9F75C
:104990009E3F510570F05CCFA6CF5F3FECF3983E91
:1049A000DCF3869577956795B795F795E7959F5FC3
:1049B000C1F7FE2B880F911D9695879597F908955D
:1049C00011F40EF44BCF42C073DFD0F39923D9F327
:1049D000CEF39F57550B87FF47D00024A0E640EA4F
:1049E000900180585695979528F4805C660F771F44
:1049F000881F20F026173707480730F4621B730B17
:104A0000840B202931294A2BA69517940794202539
:104A100031254A2758F7660F771F881F20F0261781
:104A20003707480730F4620B730B840B200D311DE0
:104A3000411DA09581F7B901842F9158880F969553
:104A400087950895E1DE880B990B08959F3F31F01B
:104A5000915020F4879577956795B795880F911DAC
:104A60009695879597F9089591505040660F771F56
:104A7000881FD2F70895A1E21A2EAA1BBB1BFD01C5
:104A80000DC0AA1FBB1FEE1FFF1FA217B307E4072D
:104A9000F50720F0A21BB30BE40BF50B661F771F85
:104AA000881F991F1A9469F7609570958095909565
:104AB0009B01AC01BD01CF010895052E97FB1EF4AB
:104AC00000940E94742557FD07D00E943B2507FCE7
:104AD00003D04EF40C947425509540953095219553
:104AE0003F4F4F4F5F4F089590958095709561951A
:104AF0007F4F8F4F9F4F0895EE0FFF1F0590F4914A
:104B0000E02D09940E948A25332312F48A1B9B0B03
:104B10000C949B25A29FB001B39FC001A39F700D71
:104B2000811D1124911DB29F700D811D1124911DB5
:104B300008950E948A25B7FF0895821B930B08955C
:104B40000E948A25A59F900DB49F900DA49F800D73
:0A4B5000911D11240895F894FFCF81
:104B5A000000AB048000D200050101C3B584430103
:104B6A0000004000140054002B565A000000005860
:104B7A00182B18001808181B182A1800000000FF24
:104B8A001A582000000000911F5820131F2C1F1EC6
:104B9A001F6F1F6E616E00696E66006F7666002E6B
:024BAA00000009
:00000001FF
