:100000000C94F5010C94F7190C94241A0C941D020D
:100010000C941D020C941D020C943F020C941D02C2
:100020000C941D020C941D020C941D020C941D02D4
:100030000C941D020C941D020C941D020C941D02C4
:100040000C948E1B0C941D020C94741C0C94A61C16
:100050000C941D020C941D020C941D020C941D02A4
:100060000C9475170C941D0283081C088E088E08CA
:100070008E088E0840088E0808088E088E088E08A4
:100080008E088E088E085A088E088E0883088E08FF
:100090008E086C0820620A00202D3E20000A41765E
:1000A00061696C61626C6520636F6D6D616E647314
:1000B0003A0A20203C6E6E3E206920202020202D10
:1000C00020736574206E6F64652049447320287323
:1000D00074616E64617264206E6F6465206964731C
:1000E0002061726520312E2E3330290A20203C6E8B
:1000F0003E20622020202020202D20736574204D7A
:10010000487A2062616E64202834203D20343333E5
:100110002C2038203D203836382C2039203D2039FD
:100120003135290A20203C6E6E6E3E20672020204B
:10013000202D20736574206E6574776F726B206755
:10014000726F7570202852464D3132206F6E6C7977
:1001500020616C6C6F7773203231322C2030203D5F
:1001600020616E79290A20203C6E3E2063202020E9
:100170002020202D2073657420636F6C6C65637480
:10018000206D6F64652028616476616E6365642C00
:10019000206E6F726D616C6C792030290A20202EE0
:1001A0002E2E2C3C6E6E3E2061202D2073656E64D9
:1001B0002064617461207061636B657420746F20CA
:1001C0006E6F6465203C6E6E3E2C207265717565A5
:1001D00073742061636B0A20202E2E2E2C3C6E6ED1
:1001E0003E2073202D2073656E642064617461204D
:1001F0007061636B657420746F206E6F6465203C62
:100200006E6E3E2C206E6F2061636B0A20202E2EB6
:100210002E2C3C6E3E207020202D205365742041F2
:10022000432041646170746572205663616C2031B3
:1002300070203D20554B2C203270203D20555341DD
:100240000A202076202020202020202020202D2061
:1002500053686F77206669726D7761726520766585
:100260007273696F6E0A00010402000302048A05BA
:100270000506C30B2019421E2C25802E882F2D37F2
:100280000038003C8F3D106F2000005EBCE2613FF3
:10029000DD83C29C7E20A3FD1F419DC3217FFCA264
:1002A000401E5F01E3BD3E6082DC237D9FC1421C96
:1002B000FEA0E1BF5D0380DE3C62BEE0025CDF8148
:1002C000633D7C22C09E1D43A1FF4618FAA42779F6
:1002D0009BC584DA3866E5BB5907DB856739BAE424
:1002E00006581947A5FB7826C49A653BD987045A56
:1002F000B8E6A7F91B45C6987A24F8A6441A99C708
:10030000257B3A6486D85B05E7B98CD2306EEDB3B5
:10031000510F4E10F2AC2F7193CD114FADF3702EE3
:10032000CC92D38D6F31B2EC0E50AFF1134DCE9015
:10033000722C6D33D18F0C52B0EE326C8ED0530DC7
:10034000EFB1F0AE4C1291CF2D73CA947628ABF575
:1003500017490856B4EA6937D58B5709EBB53668A3
:100360008AD495CB2977F4AA4816E9B7550B88D6D5
:10037000346A2B7597C94A14F6A8742AC896154B87
:10038000A9F7B6E80A54D7896B35000000080002C7
:10039000010000030407000000000000000001024B
:1003A0000408102040800102040810200102040803
:1003B00010200404040404040404020202020202E1
:1003C00003030303030300000000230026002900A9
:1003D00000000000250028002B0000000000240081
:1003E00027002A007707D716D61C11241FBECFEF8F
:1003F000D8E0DEBFCDBF13E0A0E0B1E0E0E4F7E479
:1004000002C005900D92A235B107D9F726E0A2E50A
:10041000B3E001C01D92AF39B207E1F713E0CAEEB5
:10042000D3E004C02297FE010E947123C43ED1078D
:10043000C9F70E94631F0C949E230C9400008091C6
:100440009E038F5F80939E0308951F93CF93DF9346
:10045000EC01FE011491112371F01A3029F46DE0C2
:1004600082E096E00E94591D612F82E096E00E9492
:10047000591D2196EECFDF91CF911F9108951F92C4
:100480000F920FB60F9211242F933F934F935F93C8
:100490006F937F938F939F93AF93BF93EF93FF934C
:1004A0000E940E0AFF91EF91BF91AF919F918F91A2
:1004B0007F916F915F914F913F912F910F900FBE60
:1004C0000F901F90189561E089E00E942F1B62E356
:1004D00070E080E090E00E94071C60E089E00C94EE
:1004E0002F1B61E089E00E942F1B69E170E080E032
:1004F00090E00E94071C60E089E00E942F1B61E0F1
:1005000089E00E942F1B69E170E080E090E00E948A
:10051000071C60E089E00C942F1BCF93DF936AE007
:1005200070E080E090E00E94071C20E436E04091FB
:10053000060160910901809108010E94140ACAE035
:10054000D0E0D093B203C093B10344E161EB73E018
:1005500080E00E94830A64E670E080E090E00E9400
:10056000071C219770F782E00E94A20A1092B20342
:100570001092B103DF91CF910895FF920F931F93D3
:10058000CF93DF930E946D0A882309F461C0F09035
:10059000E0048091260590912705892B09F059C028
:1005A00068E171E082E096E00E94571D67E472E026
:1005B00082E096E00E94571D6091DF046F7170E049
:1005C0004AE050E082E096E00E94291E67E472E073
:1005D00082E096E00E94571D01EE14E0E8018C2FA6
:1005E000801B8F1570F4699170E04AE050E082E062
:1005F00096E00E945D1E60E282E096E00E94591D36
:10060000EECF6BE171E082E096E00E94571D6091B1
:100610002C0570E0759567957195619571094AE0B3
:1006200050E082E096E00E94291E68ED72E082E0D0
:1006300096E00E94571D82E096E00E94601D809126
:10064000DF0485FF1BC08091DF0487FF04C016C054
:1006500019C080E017C06DE171E082E096E00E9471
:10066000571D8091DF0486FD0BC08091DF048F71E0
:10067000806C40E060E070E00E94810A81E002C08E
:1006800080E8F7CFDF91CF911F910F91FF900895F0
:10069000809154038823D1F10E947F0A811101C007
:1006A000089561E089E00E942F1B68EC70E080E013
:1006B00090E00E94071C60E089E00E942F1B88E9FF
:1006C00090E00E9425026091560370E04AE050E0FD
:1006D00082E096E00E945D1E84E990E00E9425027F
:1006E00080915403813681F080E0909155039923E5
:1006F00011F09064892B4091560368E573E00E94E5
:10070000810A10925403089580E2EFCF089588E1A2
:1007100094E00E94C51988E194E00E94CB1865E23C
:1007200071E088E194E00E94571D22E030E04AE940
:1007300059E961E471E488E194E00E944E1F41E0D0
:1007400060E088E194E00E942C196EE271E088E19B
:1007500094E00C94571D88E194E00E941E196CE30C
:1007600071E082E096E00E94571D22E030E04DECFF
:100770005CEC65EB72E482E096E00E94501F67E457
:1007800071E082E096E00E94571D22E030E04DECDF
:100790005CEC65EB72E482E096E00E94501F62E53B
:1007A00071E082E096E00E94571D4091A9035091AC
:1007B000AA036091AB037091AC0322E030E082E0C9
:1007C00096E00E944E1F6CE271E082E096E00E948B
:1007D000741D8091A603882309F44FC06CE571E075
:1007E00088E194E00E94571D6DE671E082E096E09A
:1007F0000E94741D80911704882331F068E971E02C
:1008000082E096E00E94571D64EA71E082E096E083
:100810000E94571D4091AD035091AE036091AF030C
:100820007091B00322E030E082E096E00E94501F19
:100830006BEA71E082E096E00E94571D4AE050E0CA
:100840006091A30382E096E00E94561E6CE271E084
:1008500082E096E00E94741D62EB71E082E096E017
:100860000E94571D22E030E04AE959E969ED7FE333
:1008700082E096E00E94501F2AC060EC71E088E19F
:1008800094E00E94571D60ED71E082E096E00E94C6
:10089000741D80911704882331F06EEF71E082E0BF
:1008A00096E00E94741D67E072E082E096E00E948C
:1008B000571D4AE050E06091A30382E096E00E9459
:1008C000561E6CE271E082E096E00E94741D41E0E9
:1008D00060E088E194E00E942C1967E172E088E111
:1008E00094E00E94571D8091A403811109C061E228
:1008F00072E082E096E00E94741D60E372E01CC02A
:100900008091A803882361F068E372E082E096E0BA
:100910000E94741D64E472E088E194E00E94571D17
:100920008091A703882361F069E472E082E096E099
:100930000E94741D65E572E088E194E00E94571DF5
:1009400060ED77E080E090E00E94071C8091A503B5
:10095000882389F069E572E082E096E00E94571DE5
:100960004AE050E06091C50382E096E00E94561E86
:1009700061E672E002C062E872E082E096E00E9406
:10098000741D88E194E00E941E196AE672E088E115
:1009900094E00E94571D4AE050E06091C50388E151
:1009A00094E00E94561E41E060E088E194E00E94DD
:1009B0002C1965E772E088E194E00E94571D809150
:1009C0000A01882309F44CC065E972E082E096E0F0
:1009D0000E94741D64EA72E082E096E00E94571D56
:1009E0004AE050E06091080182E096E00E94561EC5
:1009F0006AEA72E082E096E00E94571D8091090148
:100A0000813031F461EB72E082E096E00E94571D84
:100A100080910901823031F468EB72E082E096E067
:100A20000E94571D80910901833031F46FEB72E011
:100A300082E096E00E94571D66EC72E082E096E04C
:100A40000E94571D60910601709107014AE050E035
:100A500082E096E00E94311E8DE990E00E9425021E
:100A600064E170E080E090E00C94071CEF92FF924C
:100A70000F931F93CF93DF93CDB7DEB764970FB675
:100A8000F894DEBF0FBECDBF84E1E1EBF3E0DE0101
:100A9000119601900D928A95E1F760ED72E082E087
:100AA00096E00E94571D4AE050E06091080182E004
:100AB00096E00E94561E8E010F5F1F4F7E0185E15A
:100AC000E80EF11C60E282E096E00E94591DF801F8
:100AD00061918F014AE050E082E096E00E94561E4C
:100AE0000E151F0579F764ED72E082E096E00E9432
:100AF000571D82E096E00E94601D6AE070E080E091
:100B000090E064960FB6F894DEBF0FBECDBFDF91C4
:100B1000CF911F910F91FF90EF900C94071CCF92F3
:100B2000DF92EF92FF920F931F93CF93DF93EB012E
:100B300000E010E0C12CD12C76010C171D077CF4CD
:100B400080E00E94511ADC01B2509D010E94752381
:100B5000C60ED71EE81EF91E0F5F1F4FEECFC7014E
:100B6000B6010E94BA216B017C01BE01882777FD86
:100B70008095982F0E94BC219B01AC01C701B60152
:100B80000E942121DF91CF911F910F91FF90EF9053
:100B9000DF90CF900C94D72261E089E00E94F61A92
:100BA00061E089E00E942F1B62E088E00E94F61A53
:100BB00061E085E00E94F61A60E085E00E942F1B4C
:100BC00060E083E00E94F61A26E040E056E960E02B
:100BD00070E082E096E00E94552065E271E082E0DC
:100BE00096E00E94571D22E030E04AE959E961E4AD
:100BF00071E482E096E00E94501F6AED72E082E0AC
:100C000096E00E94741D60EF72E082E096E00C9422
:100C1000741D81E00E94511A181619064CF481E0E7
:100C20008093A8038091A4038F5F8093A40302C0E4
:100C30001092A80382E00E94511A181619064CF46B
:100C400081E08093A7038091A4038F5F8093A40326
:100C500002C01092A7038091A403811103C081E018
:100C60008093A80360E089E00E942F1B61E08EE082
:100C70000E94F61A6FEF70E08EE00E946E1A60E03C
:100C800070E08EE00E946E1A60E08EE00E94F61A1C
:100C900064EF71E080E090E00E94071C64EF76E072
:100CA00080E090E00E948F0522E538EB4EE55FE39F
:100CB0000E9470226093A9037093AA038093AB03F0
:100CC0009093AC0320E030E044EB52E40E946C22AD
:100CD000181624F481E08093A60308951092A603C9
:100CE0000895CF9386EF93E00E94501486EF93E02F
:100CF0000E94C9128093C503C0E08091C503C81744
:100D000060F488E0C89FB00111246A537C4F89E0E9
:100D100094E00E941512811123C0C0E08091C503A8
:100D2000C81768F488E0C89FB00111246A537C4F4B
:100D30004CE086EF93E00E94DA13CF5FEFCF811192
:100D400003C01092A50308C091E09093A5038730DB
:100D500018F086E08093C5038091C503CF91089574
:100D6000CF5FCBCFEF92FF920F931F9364E670E0BB
:100D700080E090E00E94071C80911704882371F0A6
:100D800080E090E0A2E0B3E48093AD039093AE03E3
:100D9000A093AF03B093B0038EE611C080910B0116
:100DA00090910C01A0910D01B0910E018093AD03C3
:100DB0009093AE03A093AF03B093B00386EE8093FD
:100DC000A3030E94CC0580910A0181110E948D022B
:100DD0000E9471060E9487036CED75E080E090E050
:100DE0000E94071C0E9409060E94AB038091A50384
:100DF000811107C042E050E06FE172E081E00E94A3
:100E0000C7191092B6031092B5032DEC3CEC45EBDC
:100E100052E461E070E080E894E00E94D50C2DEC93
:100E20003CEC45EB52E462E070E084E294E00E9426
:100E3000D50C8091A603882311F12091AD03309148
:100E4000AE034091AF035091B0031AE9E12E19E9C6
:100E5000F12E09ED1FE360E070E080E894E00E946D
:100E6000B90C2091AD033091AE034091AF03509186
:100E7000B00360E070E084E294E00E94B90C1F913E
:100E80000F91FF90EF900895CF92DF92EF92FF9233
:100E900098E0899FB00111246A537C4F86EF93E05C
:100EA0000E94E6156B017C0120E030E04AEF52E43D
:100EB0000E941D2187FF16C020E030E04CE552EC77
:100EC000C701B6010E946C22181664F420E030E0DD
:100ED00040E251E4C701B6010E9470220E948921BC
:100EE000CB0100C0FF90EF90DF90CF90089522E0FB
:100EF00040E167E288E194E00E94A21864E089E0A2
:100F000094E00E94F21169E074E086EF93E00C94A3
:100F1000BA12CF92DF92EF92FF92CF938091170493
:100F2000882371F080E090E0A2E0B3E48093AD0309
:100F30009093AE03A093AF03B093B0038EE611C0BD
:100F400080910B0190910C01A0910D01B0910E01C7
:100F50008093AD039093AE03A093AF03B093B0031F
:100F600086EE8093A30388E00E94651B892B11F411
:100F700061E001C060E085E00E942F1B82E096E006
:100F80000E94721F892B09F441C182E096E00E9401
:100F90008B1F90ED980F9A30A8F440915203509116
:100FA00053039AE0949F9001959F300D1124205394
:100FB0003109280F311D87FD3A9530935303209353
:100FC000520322C18C3281F4E0915703E63408F0D9
:100FD00017C181E08E0F80935703F0E0E85AFC4F71
:100FE0008091520380830CC181320CF407C1482FD9
:100FF000552747FD5095652F752FFA01E156F109E8
:10100000E631F10508F08AC0EC5CFF4F0C946F23C9
:101010008091520390915303009771F080930801DF
:1010200020910A01222309F47DC020E436E040919A
:101030000601609109013BC080915203843031F078
:10104000883031F0893031F463E005C061E003C0DD
:1010500062E001C060E0862F90E09093530380939C
:101060005203892B09F45EC06093090180910A0143
:10107000882309F457C020E436E04091060115C0EA
:1010800040915203509153034115510509F44AC050
:10109000509307014093060180910A01882309F4C7
:1010A00041C020E436E060910901809108010E946E
:1010B000140A38C08091520390915303009791F124
:1010C0008130910519F4109217042CC0029751F544
:1010D00081E08093170426C06BEF72E082E096E017
:1010E0000E94571D22E030E04AE959E961E471E4C9
:1010F00082E096E00E944E1F64E073E082E096E09A
:101100000E94741D0FC080935403809157038093F5
:101110005603809152038093550304C08DE990E0FB
:101120000E94250280910A01882309F452C060E2DE
:1011300082E096E00E94591D609108016F71605C29
:1011400082E096E00E94591D66E073E082E096E03E
:101150000E94571D609108016F7170E04AE050E0F5
:1011600082E096E00E94291E69E073E082E096E04A
:101170000E94571D60910601709107014AE050E0FE
:1011800082E096E00E94291E6CE073E082E096E027
:101190000E94571D80910901813039F0823041F061
:1011A000833049F463E973E008C061EB71E005C086
:1011B00064E673E002C060E070E04AE050E082E084
:1011C00096E00E94291E60E173E082E096E00E94B2
:1011D000571D65E173E082E096E00E94571D609123
:1011E000170470E04AE050E082E096E00E94291E79
:1011F00067E472E082E096E00E94741D109257034B
:1012000010925303109252030E94710280910A01BE
:10121000882339F00E94BD0281110E9471020E9450
:1012200048030E94D81BC0909F03D090A003E09079
:10123000A103F090A2036C197D098E099F096938FA
:1012400073418105910508F4E3C00E946302809117
:10125000A603882359F140ED57E064E170E080E88F
:1012600094E00E940C0D6091800470918104809143
:101270008204909183040E9489217093B203609349
:10128000B10320E030E048EC52E460918C047091AE
:101290008D0480918E0490918F040E9470220E9490
:1012A00089217093B8036093B70324C068EC75E09C
:1012B00080E894E00E94DD0F6B017C01C091A303E4
:1012C0006C2F70E080E090E00E94BC219B01AC019B
:1012D000C701B6010E9470220E9489217093B20357
:1012E0006093B10324E6C29FC00111249093B80318
:1012F0008093B7038091A603882359F140ED57E00E
:1013000064E170E084E294E00E940C0D609124049A
:101310007091250480912604909127040E948921D0
:101320007093B4036093B30320E030E048EC52E4E0
:1013300060913004709131048091320490913304B3
:101340000E9470220E9489217093B8036093B703B2
:1013500024C068EC75E084E294E00E94DD0F6B012C
:101360007C01C091A3036C2F70E080E090E00E94AC
:10137000BC219B01AC01C701B6010E9470220E94F2
:1013800089217093B4036093B30324E6C29FC00124
:1013900011249093B8038093B7038091A503811122
:1013A00015C080919E03882339F1F89420919E0303
:1013B0008091B5039091B603820F911D9093B6036F
:1013C0008093B50310929E03789416C086EF93E045
:1013D0000E942215F12C8091C503F81610F78F2D6D
:1013E0000E944407EF2DF0E0EE0FFF1FE754FC4F83
:1013F00091838083F394EFCF0E9436050E94D81B1F
:1014000060939F037093A0038093A1039093A20322
:10141000CF91FF90EF90DF90CF9008958091DC0402
:101420008F5F8093DC040895CF92DF92EF92FF925A
:101430001F93CF93DF93C82F162FD42FF901AFEF4F
:10144000A60FA33028F4B0E0A55EBC4FAC9101C05C
:10145000A0E0B0E020E836E948E950E00E9493239C
:101460006B017C01212F30E0A4ECB9E00E947D23C8
:10147000DF019B01AC010E949323C60ED71EE81E1C
:10148000F91EC701B6010E94010BD09330058C2FC5
:101490008F7180932F0564E170E080E090E00E94FE
:1014A000071C80912F05882341F043E050E06CE554
:1014B0007CE080E00E94C71903C080E00E94E71929
:1014C0000E94360BC093DD048C2FDF91CF911F91CA
:1014D000FF90EF90DF90CF9008958EED94E00E9402
:1014E0008F0B909327058093260520912605309138
:1014F000270581E02F3F3F4F09F480E008950C94C9
:101500001E0B0C94E80BEF92FF921F93CF93DF9387
:101510001F92CDB7DEB7182F7B0149830E941E0BA7
:101520004981811105C049830E946D0A4981F5CF27
:10153000B701812F0F90DF91CF911F91FF90EF9016
:101540000C94E80BCF93C82F0E942F0B8823B9F07F
:10155000CC23D1F383B7817FC33021F0C23021F493
:101560009CE003C094E001C090E0892B83BF83B767
:10157000816083BF889583B78E7F83BFE5CFCF918E
:1015800008958627682F62956827062E66956695CA
:101590006025062E669560256770082E892F669552
:1015A00007946795902D8627069467959025862742
:1015B0000895E8982A988EBD0DB407FEFDCF8EB52C
:1015C0006EBD0DB407FEFDCF8EB52A9AE89A089538
:1015D00060E00C94D90A88E20E94E80A807521F044
:1015E00080E00E94E80AF7CF0895CF93C82F81E0EA
:1015F0000E94E80A682F637E6C2B81E8CF910C94DF
:10160000D90A22E0660F771F881F991F2A95D1F704
:1016100029E03DE340E050E00E942E2366E0220FE7
:10162000331F441F551F6A95D1F72093310530931E
:1016300032054093330550933405089580912A056F
:10164000853021F480912B05882311F080E00895E6
:1016500084E080932A050E94F50A81E00895909124
:101660002A0581E094300CF080E00895CF93DF9359
:101670002A9A229A2A9A84B18C6284B980E58CBD18
:101680008DB581608DBD6AEA8FEA0E94D90A8FE22A
:101690000E94E80A8A3AB9F765E58FEA0E94D90AFA
:1016A0008FE20E94E80A8535B9F7C7E6D2E0FE016D
:1016B0008491882339F03196649180680E94D90A18
:1016C0002296F5CF6091300580EB0E94D90A809177
:1016D000310590913205A0913305B0913405BD01DB
:1016E0008827992787E80E94D90A8091310590912F
:1016F0003205A0913305B0913405692F7A2F8B2FD5
:10170000992788E80E94D90A6091310589E80E94EA
:10171000D90A84E080932A05DF91CF910895CF9371
:10172000DF93EC0180912A05843019F08530E1F0D7
:1017300045C01092E00410922B05609130058FEFA8
:101740009FEF0E94C10A90932E0580932D05D093A0
:101750002905C093280585E080932A050E94EB0A9D
:1017600080E10E94F50A2AC08091E00420912B05B7
:1017700090E0049630E08217930724F080912B05C7
:101780008834E0F084E080932A050E94F50A809175
:10179000E004833430F081E090E090932E05809354
:1017A0002D058091DF0486FF0CC090912F059F319D
:1017B00041F08091DF048F71891719F08FEF9FEF4F
:1017C00004C080912D0590912E05DF91CF91089551
:1017D000CF934093E004FB0120E030E050E0241779
:1017E000350744F4D901AF51BB4F91919C932F5FC2
:1017F0003F4FF5CF86FD04C0807E90912F05890F65
:101800008093DF04609130058FEF9FEF0E94C10A43
:1018100090932E0580932D059091E0048EEF891B07
:1018200080932A050E94EB0A8CE00E94F50A60E092
:1018300085EA0E94D90A80912A058330DCF588E286
:101840000E94E80A87FDF7CF80912A0587FF1BC019
:101850009091E00480912A05E0912805F0912905F6
:10186000E90FF11DE80FF11D87FDFA95C3816C2F7B
:1018700080912D0590912E050E94C10A90932E050E
:1018800080932D050DC080912A05882329F0813091
:1018900031F4C0912E0504C0C0912D0501C0CAEAE3
:1018A0006C2F80E80E94D90A80912A058F5F80936F
:1018B0002A05C1CFCF91089580912A05853009F07E
:1018C00049C084E20E94E80A80932C05789488E25B
:1018D0000E94E80A8075D9F380912B0581110FC011
:1018E000E0912805F091290580912B0591E0980F52
:1018F00090932B0590913005E80FF11D908380E0C7
:101900000E94E80AE0912805F091290590912B05A5
:1019100021E0290F20932B05E90FF11D8083682F0B
:1019200080912D0590912E050E94C10A90932E055D
:1019300080932D058091E00420912B0590E0049682
:1019400030E082179307A4F080912B05883408F4C7
:10195000BECF089588E20E94E80A83FF09C084E0B0
:1019600080932A050E94F50A60E885EA0C94D90A5A
:101970000895EF92FF920F931F93FC01758B648B78
:10198000208F318F428F538FE0A2F1A202A313A3C5
:1019900040E050E060E074E444AB55AB66AB77AB3D
:1019A0001F910F91FF90EF900895FC01778B668B4C
:1019B000248F358F468F578F40E050E060E074E40D
:1019C00040AF51AF62AF73AF08958EE480937C0057
:1019D00062E070E080E090E00E94071C80917A0055
:1019E000806480937A0080917A0086FDFCCF80919C
:1019F00078002091790030E0322F2227442737FDEC
:101A00004095542F282B60E070E381E190E00E9424
:101A10005023CA01B90108952F923F924F925F92CD
:101A20006F927F928F929F92AF92BF92CF92DF92EE
:101A3000EF92FF920F931F93CF93DF93CDB7DEB753
:101A4000A8970FB6F894DEBF0FBECDBF98A78FA39F
:101A50007E8F6D8F8A010E94E50C6D8B7E8B8F8B44
:101A6000988F0E94D81B4B015C016FA078A428E5D9
:101A7000620E711CC801A0E0B0E0898B9A8BAB8B21
:101A8000BC8BAFA1B8A554968C910E94511AF3015A
:101A900091838083BC01882777FD8095982F0E94D1
:101AA000BC216B017C012DEC3CEC4CE054E40E9429
:101AB0001D2187FF0BC011E026E636E646EE53E413
:101AC000C701B6010E946C2218160CF010E00E94AB
:101AD000D81B681979098A099B0929893A894B8990
:101AE0005C89261737074807590708F040C00E944D
:101AF000D81B698F7A8F8B8F9C8F00E010E01A8241
:101B000019824FA158A5405C5F4F58A34F8F8FA1FA
:101B100098A58C5B9F4F9C878B87AFA1B8A5A85BCE
:101B2000BF4FBAA3A9A3EFA1F8A5E45BFF4FFE87BF
:101B3000ED872FA138A5205B3F4F3CA32BA34FA1DE
:101B400058A54C5A5F4F588B4F878FA198A5865A3E
:101B50009F4F9E838D832FA038A49BE5290E311CB7
:101B6000AFA1B8A5A85ABF4FBEA3ADA344C11123CE
:101B700009F487CFBCCF0E94D81B298D3A8D4B8D9D
:101B80005C8D621B730B840B950B29893A894B89F9
:101B90005C89621773078407950708F034C10F5FEB
:101BA0001F4FEFA1F8A584A595A5A6A5B7A580A769
:101BB00091A7A2A7B3A784890E94511AAFA1B8A583
:101BC00095969C938E93949756968C910E94511A59
:101BD0003C01EFA1F8A597A386A324A135A13A87DC
:101BE0002987B901882777FD8095982F0E94BC210D
:101BF0006B017C01AFA1B8A5D4968D909D90AD905E
:101C0000BC90D797A50194010E94B82020E030E055
:101C100040E85AE30E9470229B01AC01C501B40167
:101C20000E94B9209B01AC01EFA1F8A564AB75AB94
:101C300086AB97ABC701B6010E94B8204B015C018F
:101C4000AFA1B8A59C966D937D938D939C939F9720
:101C5000B301882777FD8095982F0E94BC216B01E6
:101C60007C01EFA1F8A540AC51AC62AC73ACA30110
:101C700092010E94B82020E030E040E85AE30E9440
:101C800070229B01AC01C301B2010E94B9209B01EB
:101C9000AC01AFA1B8A5D8966D937D938D939C931D
:101CA000DB97C701B6010E94B8206B017C01EFA150
:101CB000F8A560AB71AB82AB93ABA5019401C501F4
:101CC000B4010E9470229B01AC01AF8DB8A16D934D
:101CD0007D938D939C931397EB85FC856081718137
:101CE000828193810E94B920AB85BC856D937D93E1
:101CF0008D939C931397A7019601C701B6010E948B
:101D000070229B01AC01E9A1FAA1608371838283F7
:101D10009383AD85BE856D917D918D919C910E943F
:101D2000B920ED85FE856083718382839383AFA1A3
:101D3000B8A598964D905D906D907C909B97A3016F
:101D40009201C501B4010E94B820EFA1F8A520A11D
:101D500031A142A153A10E9470229B01AC01C30199
:101D6000B2010E94B920AFA1B8A5DC966D937D9316
:101D70008D939C93DF97A70196010E9470229B018F
:101D8000AC01EBA1FCA16083718382839383AF8557
:101D9000B8896D917D918D919C910E94B920EF85BC
:101DA000F8896083718382839383D1018C91ED8163
:101DB000FE818083ADA1BEA18D919C91E985FA85BC
:101DC0008E179F070CF0F6C021E0F101208301304F
:101DD000110529F4F1018081AD81BE818C93ED81E3
:101DE000FE819081D1018C91981729F0E981FA81C7
:101DF0003196FA83E98329813A814D8D5E8D2417CE
:101E0000350708F4B8CEAD89BE89BD01882777FDB6
:101E10008095982F0E94BC2120E030E04AE754E4EE
:101E20000E94212120E030E040E85AE30E94702225
:101E30002B013C01EFA1F8A5208D318D428D538DF2
:101E40000E9470224B015C01B80180E090E00E948A
:101E5000BA216B017C012FA038A4F4E42F0E311CB1
:101E60009B01AC01D1016D917D918D919C910E945E
:101E700021210E94D7229B01AC01C501B4010E941F
:101E8000702269837A838B839C83EFA1F8A5648792
:101E9000758786879787248D358D468D578DC3012D
:101EA000B2010E9470222B013C010FA118A5045B16
:101EB0001F4FA7019601D8016D917D918D919C9145
:101EC0000E9421210E94D7229B01AC01C301B201D3
:101ED0000E9470226D837E838F839887EFA1F8A57F
:101EE000608B718B828B938BA3019201C501B4012E
:101EF0000E947022AFA0B8A4F4E5AF0EB11CD501CA
:101F00002D913D914D915C910E947022A701960107
:101F10000E9421216B017C01EFA1F8A560837183F0
:101F2000828393832D813E814F81588569817A8197
:101F30008B819C810E9470229B01AC01AFA1B8A54E
:101F400014966D937D938D939C931797C701B6015B
:101F50000E942121EFA1F8A560877187828793876E
:101F6000D1011D921D921D921C921397F8011082AF
:101F7000118212821382D5011D921D921D921C9214
:101F80001397A8960FB6F894DEBF0FBECDBFDF91B2
:101F9000CF911F910F91FF90EF90DF90CF90BF9066
:101FA000AF909F908F907F906F905F904F903F90F9
:101FB0002F900895D1011C920ACF2F923F924F92F9
:101FC0005F926F927F928F929F92AF92BF92CF92C9
:101FD000DF92EF92FF920F931F93CF93DF9300D086
:101FE00000D000D0CDB7DEB79E838D837A8369831E
:101FF0000E94E50C2B013C0100E010E08D819E81E8
:10200000845B9F4F1C01ED81FE81E85BFF4FFC83E9
:10201000EB8389819A810817190709F455C0ED816E
:10202000FE8186890E94511AED81FE8197A386A3C5
:10203000BC01882777FD8095982F0E94BC216B01F9
:102040007C01ED81FE8180AC91ACA2ACB3ACA5016A
:1020500094010E94B82020E030E040E85AE30E945A
:1020600070229B01AC01C501B4010E94B9209B0103
:10207000AC01ED81FE8160AF71AF82AF93AFC7015C
:10208000B6010E94B820ED81FE8160AB71AB82ABDE
:1020900093AB9B01AC010E9470229B01AC01EB81D0
:1020A000FC816083718382839383F10160817181FC
:1020B000828193810E94B920F101608371838283C0
:1020C00093830F5F1F4FA5CFB80180E090E00E947F
:1020D000BA219B01AC01F101608171818281938100
:1020E0000E9421210E94D7226B017C01B201882726
:1020F00077FD8095982F0E94BC2120E030E04AE7D0
:1021000054E40E94212120E030E040E85AE30E949C
:102110007022ED81FE81248D358D468D578D0E9474
:102120007022A70196010E947022ED81FE81608BD2
:10213000718B828B938BF101108211821282138238
:1021400026960FB6F894DEBF0FBECDBFDF91CF91BC
:102150001F910F91FF90EF90DF90CF90BF90AF90C5
:102160009F908F907F906F905F904F903F902F90B7
:102170000895FF920F931F93CF93DF93FC0100818B
:10218000C181D281F8948981F02EF0948F218983C6
:1021900078941DE7115029F182E090E00E942F1CF5
:1021A00088818023B9F3F8948A818F218A83898179
:1021B000802B8983789480EE91E00E942F1CF89404
:1021C00089818F21898386E490E00E942F1C888179
:1021D000802311E009F010E078948AE991E00E94F0
:1021E0002F1C812FDF91CF911F910F91FF900895A8
:1021F0001F93CF93DF93FC011081C181D281912F76
:10220000909560FF12C0F8948A8189238A8389811E
:10221000812B89838AE090E00E942F1C8A81812B88
:102220008A83789487E390E011C0F8948A818923A7
:102230008A838981812B898381E490E00E942F1C0D
:102240008A81812B8A83789485E090E0DF91CF9119
:102250001F910C942F1C0F931F93CF93DF93FC01BE
:102260001081C181D281F8948981812B89838A81EF
:10227000012F009580238A8383E090E00E942F1C29
:102280008981802389838AE090E00E942F1CC88185
:10229000789485E390E00E942F1C1C2381E009F4D0
:1022A00080E0DF91CF911F910F910895CF92DF923F
:1022B000EF92FF920F931F93CF93DF931F92CDB7AF
:1022C000DEB76C01E62E08E010E0FF24F39461E035
:1022D0009F2D9E2109F460E0C60149830E94F810F9
:1022E000FF0C0150110949810115110581F74111B8
:1022F00015C0F894D6011196ED91FC911297918139
:102300008C918095892381831196ED91FC91129790
:1023100092818C9180958923828378940F90DF91AC
:10232000CF911F910F91FF90EF90DF90CF90089584
:10233000EF92FF920F931F93CF93DF938C01C8E02E
:10234000D0E0F12CEE24E394C8010E942B118111FE
:10235000FE28EE0C2197C1F78F2DDF91CF911F91B1
:102360000F91FF90EF900895CF92DF92FF920F931D
:102370001F93CF93DF931F92CDB7DEB78C01F62E5C
:1023800040E065E579830E945611CF2C7981D72EE4
:1023900088E0F82EF60161916F0140E0C8010E94CB
:1023A0005611FA94B9F70F90DF91CF911F910F91C9
:1023B000FF90DF90CF90089540E06CEC0C945611A4
:1023C000FC0113861586148627E030E0DF01A20F9A
:1023D000B31F13961C922115310519F021503109B4
:1023E000F5CF08951F93CF93DF93EC01162F60E094
:1023F000812F0E94F61A612F70E0FB01E256FC4F1C
:10240000E491E883FB01EE54FC4FE491F0E0EE0F21
:10241000FF1FEA53FC4F859194919A838983CE01E3
:10242000DF91CF911F910C94E011AF92BF92CF92A8
:10243000DF92EF92FF920F931F93CF93DF931F9240
:10244000CDB7DEB75C01E62ED72EFC018585811164
:102450005DC0C5010E94B910811105C0F501138648
:10246000158614866EC040E060EFC5010E945611CB
:1024700001E0F12CC12C11E0C5010E942B11682F45
:10248000C50169830E942B116981613019F4813083
:10249000B9F433C02F2D30E068131BC0F5018385DC
:1024A000181730F4E20FF31F8381802349F402C030
:1024B000181731F060E0193058F4F501148708C09E
:1024C000F501EF0DF11D8381802B838361E009C04D
:1024D000C12EF501E20FF31F8381902F9095892380
:1024E0008383C5010E94F8101F5F000F11F4F3945D
:1024F00001E0F7E0FF1508F0BFCF113438F0F50127
:10250000C386C11018C081E0858715C0F501138608
:102510001586148680E0EE2DFD2D20E030E0D501FB
:10252000A20FB31F13969C9191932F5F3F4F2830BA
:102530003105A9F706C0F5018381882339F381E0CD
:10254000EACF0F90DF91CF911F910F91FF90EF9005
:10255000DF90CF90BF90AF900895DC0180E0615094
:1025600038F0ED91E827F0E0E657FD4F8491F7CF82
:1025700008950895FC0189EB92E1928B818B76831B
:1025800065831482108289E0818381E08283838362
:102590000895FC0184810895CF93DF93EB0167E0F8
:1025A000CE010E94AD1291E02F81821390E0892F1D
:1025B000DF91CF910895EF92FF920F931F93CF93E6
:1025C000DF9300D0CDB7DEB77C018A01FC018581A5
:1025D000968169837A830E94B91069817A81F701B3
:1025E000858196810E94B41140E06EEBF7018581F0
:1025F00096810E945611F701858196810E9498115B
:10260000F8018083F701858196810E949811F80175
:102610008183F701858196810E949811F801828358
:10262000F701858196810E949811F8018383F70153
:10263000858196810E949811F8018483F701858134
:1026400096810E949811F8018583F7018581968112
:102650000E949811F8018683F701858196810E9476
:102660009811F8018783F701858196810E9498115E
:10267000F8018087F701858196810F900F90DF9197
:10268000CF911F910F91FF90EF900C94B910CF93C1
:10269000DF93EA010E94DB1268E0CE010E94AD12D6
:1026A00091E02885821390E0892FDF91CF910895E2
:1026B000EF92FF920F931F93CF93DF93EC017B0177
:1026C0008A018D819E810E94B910B7018D819E8102
:1026D0000E94B41140E06EE48D819E810E945611EB
:1026E00040E0F80162818D819E810E94561140E098
:1026F000F80163818D819E810E945611F7018081CE
:10270000803139F040E0F80164818D819E810E9422
:1027100056118D819E810E94B910488168E48D8197
:102720009E810E9456118881882331F06AE070E012
:1027300080E090E00E94071C8D819E81DF91CF9107
:102740001F910F91FF90EF900C94B910EF92FF92B0
:102750001F93CF93DF9300D0CDB7DEB77C01FC0190
:102760008581968169837A830E94B91069817A8113
:10277000F701858196810E94B41140E064EBF70176
:10278000858196810E945611F701858196810E946C
:102790002B11182FF701858196810E94B91081E0D5
:1027A000111180E00F900F90DF91CF911F91FF905A
:1027B000EF900895EF92FF920F931F93CF93DF93C3
:1027C000CDB7DEB72A970FB6F894DEBF0FBECDBFE8
:1027D0007C018B01242FAE014F5F5F4F2A870E943F
:1027E00047132A858823D1F0F80180818031C1F018
:1027F0002B3041F02C3021F02A3031F48FE305C02A
:102800008FE703C08FE501C08FE18D83AE014F5F7D
:102810005F4FB801C7010E94581302C080E001C099
:1028200081E02A960FB6F894DEBF0FBECDBFDF91D0
:10283000CF911F910F91FF90EF900895CF93DF9369
:10284000CDB7DEB729970FB6F894DEBF0FBECDBF68
:10285000FB0120812031D1F0AE014F5F5F4F0E941C
:102860004713882379F08D818F3351F018F48F311D
:1028700069F008C08F3541F08F3721F48CE007C034
:102880008AE005C080E003C08BE001C089E02996A2
:102890000FB6F894DEBF0FBECDBFDF91CF91089584
:1028A000EF92FF920F931F93CF93DF93CDB7DEB7D5
:1028B00061970FB6F894DEBF0FBECDBF8C01FC014F
:1028C000858196810E94E011F8011482FF24F3941F
:1028D000BE01665F7F4FF801858196810E941512C7
:1028E0008823C9F1BE01665F7F4FC8010E94CC12E8
:1028F000882371F3F8018081811108C0BE01665FF1
:102900007F4FC8010E94A613811122C0AE014F5F04
:102910005F4FBE01665F7F4FC8010E94DB12F80166
:10292000E180BE01665F7F4FC8010E941E148E15B4
:1029300018F4F801818106C0BE01665F7F4FC801AF
:102940000E941E14F801818384818F5F8483C0CF2D
:10295000F801F082DBCF61960FB6F894DEBF0FBEB0
:10296000CDBFDF91CF911F910F91FF90EF90089510
:10297000CF93DF93CDB7DEB729970FB6F894DEBFBC
:102980000FBECDBFAE014F5F5F4F0E94DB1281E0F3
:102990009981911101C080E029960FB6F894DEBFAD
:1029A0000FBECDBFDF91CF910895CF92DF92EF920E
:1029B000FF920F931F93CF93DF93EC018B01452B75
:1029C000E1F08B818823C9F08881811116C00E94B3
:1029D000D81B6B017C0160E070E0CE010E94B8144E
:1029E00081110BC00E94D81B6C197D098E099F09AB
:1029F0006E3E72408105910570F3F80180818A3046
:102A000049F08B3061F0893079F46EE570E080E058
:102A100090E00EC06CEB70E080E090E009C067E7EA
:102A200071E080E090E004C06EEE72E080E090E043
:102A3000DF91CF911F910F91FF90EF90DF90CF909A
:102A40000C94071CCF93DF93EC018D819E810E9433
:102A5000B9108D819E810E94DC11488164E48D81D2
:102A60009E810E9456118A81882351F0BE016F5FBA
:102A70007F4F40E050E0CE01DF91CF910C94D51410
:102A8000DF91CF9108958F929F92AF92BF92CF9294
:102A9000DF92EF92FF921F93CF93DF93FB01EA0146
:102AA000698170E0762F66278881682B8081823269
:102AB000B1F18832A1F1803109F078C01F8175959C
:102AC0006795882777FD8095982F0E94BC2120E08C
:102AD00030E040E85EE30E94B8206B017C01612F8A
:102AE00070E08E81681B7109882777FD8095982F8B
:102AF0000E94BC214B015C01612F70E080E090E0FE
:102B00000E94BA219B01AC01C501B4010E942121A0
:102B10009B01AC01C701B6010E94B92043C08C8162
:102B20008F3381F198F48F3109F040C093E07595AF
:102B300067959A95E1F7882777FD8095982F0E94F1
:102B4000BC2120E030E040E05FE32AC08F3569F02F
:102B50008F3761F5882777FD8095982F0E94BC21DB
:102B600020E030E040E85DE31BC07595679588275D
:102B700077FD8095982F0E94BC2120E030E040E056
:102B80005EE30EC07595679575956795882777FD07
:102B90008095982F0E94BC2120E030E040E85EE361
:102BA0000E947022562F472F382F292F652F742F00
:102BB000832F922FDF91CF911F91FF90EF90DF90A5
:102BC000CF90BF90AF909F908F900895EF92FF921B
:102BD0000F931F93CF93DF93CDB7DEB729970FB62F
:102BE000F894DEBF0FBECDBF8C017B01AE014F5FFD
:102BF0005F4F0E944713882341F0AE014F5F5F4F44
:102C0000B701C8010E94431504C060E070E08EEF78
:102C100092EC29960FB6F894DEBF0FBECDBFDF91C0
:102C2000CF911F910F91FF90EF90089580916505CE
:102C300090E020916605821B910908952091660518
:102C400080916505281750F4E22FF0E0E959FA4F1A
:102C5000808190E02F5F2093660508958FEF9FEFAE
:102C60000895E091660580916505E81730F4F0E07D
:102C7000E959FA4F808190E008958FEF9FEF089512
:102C80000895CF92DF92EF92FF920F931F93CF930D
:102C9000DF937C01CB018A0120914105222389F039
:102CA000EB016B01C40ED51ECC15DD0569F06991F1
:102CB000D701ED91FC910190F081E02DC7010995BC
:102CC000F3CF642F0E944C17C801DF91CF911F9161
:102CD0000F91FF90EF90DF90CF900895CF93DF9307
:102CE0001F92CDB7DEB76983209141052223D1F031
:102CF00020914205203240F021E030E0FC01338396
:102D0000228380E090E015C080914305E82FF0E039
:102D1000EC5BFA4F998190838F5F8093430580939A
:102D2000420505C061E0CE0101960E944C1781E08A
:102D300090E00F90DF91CF910895FC0113821282F1
:102D400048EE53E060E070E0448355836683778308
:102D500082E293E091838083089510926605109239
:102D6000650510924305109242050C94DB1681E034
:102D700080934105609364051092430510924205CB
:102D800008950F93062F21E04091420564E475E019
:102D9000809164050E94F916109243051092420535
:102DA000109241050F91089561E00C94C11685E3DE
:102DB00095E00C949D161092F40581E08093F20545
:102DC0001092F10561E082E10E942F1B61E083E136
:102DD0000E942F1BE9EBF0E080818E7F8083808151
:102DE0008D7F808388E48093B80085E48093BC0065
:102DF00008950F93413208F046C09091F405911167
:102E0000FCCF92E09093F4050093F2059FEF90932E
:102E100087051092CC054093CB05FB016DEC75E066
:102E2000DB019A2F961B941718F491919D93F9CF7B
:102E30001092F3059091F305880F892B8093F30589
:102E40008091F105813041F41092F1058091F305F4
:102E50008093BB0085EC01C085EE8093BC002223EB
:102E600021F08091F4058230E1F3809187058F3F56
:102E700061F080918705803251F080918705803321
:102E800041F483E007C081E005C080E003C082E038
:102E900001C084E00F910895613298F42091F40507
:102EA000243089F46093A905FC018BEA95E0DC01EC
:102EB0002A2F281B261718F421912D93F9CF80E093
:102EC000089581E0089582E0089585ED8093BC0027
:102ED0008091BC0084FDFCCF1092F405089585EC30
:102EE0008093BC001092F40508951F920F920FB6C4
:102EF0000F9211242F933F934F935F936F937F9380
:102F00008F939F93AF93BF93EF93FF938091B900FB
:102F1000887F803609F49CC068F5883209F45BC06C
:102F200090F4803109F454C038F4882309F4F5C0D2
:102F3000883009F44DC0F5C0883109F44CC08032A6
:102F400009F45DC0EEC0803409F468C048F48033F1
:102F500009F455C0883309F0E4C080938705A8C000
:102F6000803509F44FC0883509F45DC0883409F014
:102F7000D8C0D5C0883909F4C6C0A8F4883709F488
:102F800067C038F4883609F463C0803709F460C03C
:102F9000C8C0883809F4B7C0803909F45FC08038E8
:102FA00009F0BFC05BC0803B09F485C038F4803AAB
:102FB00009F466C0883A09F47EC0B3C0803C09F4C5
:102FC000A6C0883C09F4A3C0883B09F489C0A9C005
:102FD0008091F30510C09091CC058091CB05981796
:102FE00070F5E091CC0581E08E0F8093CC05F0E088
:102FF000E353FA4F80818093BB0085EC85C08093BA
:1030000087058DC0E091CC0581E08E0F8093CC05C3
:103010008091BB00F0E0E353FA4F80839091CC05A0
:103020008091CB056DC0E091CC0581E08E0F80933F
:10303000CC058091BB00F0E0E353FA4F8083809190
:10304000F20581116CC081E08093F10584EA60C0D3
:1030500083E08093F40510928805CFCF8091880596
:10306000803208F050C0E091880581E08E0F809397
:1030700088058091BB00F0E0E757FA4F8083BDCF11
:1030800080918805803230F4E0918805F0E0E757C0
:10309000FA4F10820E9465176091880570E0E091F8
:1030A000ED05F091EE0589E895E009951092880507
:1030B0000E946F1736C084E08093F4051092AA0531
:1030C0001092A905E091EF05F091F0050995809126
:1030D000A905811105C081E08093A9051092AB0577
:1030E000E091AA0581E08E0F8093AA05F0E0E555F6
:1030F000FA4F80818093BB009091AA058091A90529
:10310000981708F47ACF85E88093BC000AC085EC54
:103110008093BC001092F40504C0109287050E94B1
:103120006517FF91EF91BF91AF919F918F917F9123
:103130006F915F914F913F912F910F900FBE0F9024
:103140001F901895FC011382128282E393E0918311
:103150008083648341872287138608951F93CF93CA
:10316000DF93EC01162F6C8185E395E00E94B71682
:10317000E0913505F09136056B85612B0190F0816A
:10318000E02D85E395E0099585E395E0DF91CF910A
:103190001F910C94D41628E0FC01238760E00C9466
:1031A000AE181F93CF93DF93EC01162F64600E943B
:1031B000AE1881E090E00E942F1C612F6B7FCE0142
:1031C0000E94AE1882E390E0DF91CF911F910C94A2
:1031D0002F1C1F93CF93DF93EC01162F0E94AE1884
:1031E000612FCE01DF91CF911F910C94D118EF92F6
:1031F000FF921F93CF93DF931F92CDB7DEB77C0171
:10320000162F607F642B49830E94E91880E1189F84
:10321000B00111244981642BC7010F90DF91CF9138
:103220001F91FF90EF900C94E91841E00E94F7186D
:1032300080E090E0089540E00C94F71861E00E946F
:103240001B1980ED97E00C942F1C62E00E941B1963
:1032500080ED97E00C942F1CCF93DF93CDB7DEB7B2
:1032600028970FB6F894DEBF0FBECDBF28E0E0E18F
:10327000F1E0DE01119601900D922A95E1F7FC0133
:103280002085241710F44FEF420FFE013196E40F12
:10329000F11DE40FF11D2081260F2068622F289672
:1032A0000FB6F894DEBF0FBECDBFDF91CF910C9467
:1032B0001B19FC016681262F246026836C600C9408
:1032C0001B19CF93DF93EC01423018F08D81886099
:1032D0008D834887222329F0413019F48D81846041
:1032E0008D8362E370E080E090E00E94071C6B85B4
:1032F000CE010E94AE1868EE73E080E090E00E947C
:10330000071C60E3CE010E94E91884E991E10E9464
:103310002F1C60E3CE010E94E91884E991E10E942C
:103320002F1C60E3CE010E94E91886E990E00E941C
:103330002F1C60E2CE010E94E9186D816062CE010F
:103340000E941B1984E08E83CE010E945919CE0180
:103350000E941E1982E08F8366E0CE010E941B1935
:10336000CE01DF91CF910C942519CF93DF93EC011F
:1033700085E395E00E94AD161D8220E04A856985AF
:10338000CE01DF91CF910C9461190C94B519823064
:10339000E8F4E82FF0E0EE0FFF1FEB50FA4F7183D7
:1033A0006083813041F0809169008C7F842B809311
:1033B0006900E89A089580916900440F551F440FF1
:1033C000551F837F842B80936900E99A089582308A
:1033D00068F4813011F0E89801C0E998E82FF0E036
:1033E000EE0FFF1FEB50FA4F1182108208951F92CB
:1033F0000F920FB60F9211242F933F934F935F9329
:103400006F937F938F939F93AF93BF93EF93FF93AC
:103410008091F5059091F605892B29F0E091F5054D
:10342000F091F6050995FF91EF91BF91AF919F91B2
:103430008F917F916F915F914F913F912F910F905D
:103440000FBE0F901F9018951F920F920FB60F92FC
:1034500011242F933F934F935F936F937F938F9399
:103460009F93AF93BF93EF93FF938091F705909154
:10347000F805892B29F0E091F705F091F8050995F9
:10348000FF91EF91BF91AF919F918F917F916F913C
:103490005F914F913F912F910F900FBE0F901F9012
:1034A00018958E3008F08E50877020910F0190E4AF
:1034B000299F90011124822B80937C0080917A00B7
:1034C000806480937A0080917A0086FDFCCF8091A1
:1034D00078002091790090E0922B08951F93CF936C
:1034E000DF93182FEB0161E00E94F61A209711F488
:1034F00060E004C0CF3FD10539F461E0812FDF9156
:10350000CF911F910C942F1BE12FF0E0E657FC4F59
:10351000E491E330F9F048F4E130B9F0E230A1F59C
:1035200084B5806284BDC8BD34C0E730E9F0E830BE
:1035300019F1E43049F58091800080628093800029
:10354000D0938B00C0938A0024C084B5806884BD6A
:10355000C7BD1FC080918000806880938000D09399
:103560008900C093880015C08091B0008068809366
:10357000B000C093B3000DC08091B0008062809312
:10358000B000C093B40005C0C038D1050CF0B5CF71
:10359000AFCFDF91CF911F910895833081F028F450
:1035A000813099F08230A1F008958730A9F08830F9
:1035B000B9F08430D1F4809180008F7D03C0809178
:1035C00080008F7780938000089584B58F7702C044
:1035D00084B58F7D84BD08958091B0008F7703C03E
:1035E0008091B0008F7D8093B0000895CF93DF93DA
:1035F00090E0FC01E256FC4F2491FC01EE54FC4F9C
:103600008491882349F190E0880F991FFC01E652CC
:10361000FC4FA591B49180539C4FFC01C591D4916E
:103620009FB7611108C0F8948C91209582238C93E8
:10363000888182230AC0623051F4F8948C91322F31
:10364000309583238C938881822B888304C0F894DF
:103650008C91822B8C939FBFDF91CF9108950F9314
:103660001F93CF93DF931F92CDB7DEB7282F30E0A3
:10367000F901E657FC4F8491F901E256FC4F149191
:10368000F901EE54FC4F04910023C9F0882321F086
:1036900069830E94CD1A6981E02FF0E0EE0FFF1FD1
:1036A000E053FC4FA591B4919FB7F8948C916111B0
:1036B00003C01095812301C0812B8C939FBF0F9075
:1036C000DF91CF911F910F910895CF93DF93282F12
:1036D00030E0F901E657FC4F8491F901E256FC4FC6
:1036E000D491F901EE54FC4FC491CC2391F0811197
:1036F0000E94CD1AEC2FF0E0EE0FFF1FEA53FC4FB3
:10370000A591B4912C912D2381E090E021F480E0EB
:1037100002C080E090E0DF91CF9108951F920F9258
:103720000FB60F9211242F933F938F939F93AF93D4
:10373000BF938091FA059091FB05A091FC05B09193
:10374000FD053091F90523E0230F2D3720F4019674
:10375000A11DB11D05C026E8230F0296A11DB11DB4
:103760002093F9058093FA059093FB05A093FC053F
:10377000B093FD058091FE059091FF05A091000694
:10378000B09101060196A11DB11D8093FE05909395
:10379000FF05A0930006B0930106BF91AF919F91E2
:1037A0008F913F912F910F900FBE0F901F90189502
:1037B0002FB7F8946091FA057091FB058091FC0594
:1037C0009091FD052FBF08953FB7F8948091FE05B5
:1037D0009091FF05A0910006B091010626B5A89B27
:1037E00005C02F3F19F00196A11DB11D3FBF6627EF
:1037F000782F892F9A2F620F711D811D911D42E034
:10380000660F771F881F991F4A95D1F70895CF92A9
:10381000DF92EF92FF92CF93DF936B017C010E94C6
:10382000E41BEB01C114D104E104F10489F00E940E
:10383000B7200E94E41B6C1B7D0B683E734090F325
:1038400081E0C81AD108E108F108C851DC4FEACF7D
:10385000DF91CF91FF90EF90DF90CF900895019787
:1038600039F0880F991F880F991F02970197F1F778
:103870000895789484B5826084BD84B5816084BDE8
:1038800085B5826085BD85B5816085BDEEE6F0E0D9
:10389000808181608083E1E8F0E010828081826035
:1038A0008083808181608083E0E8F0E080818160B6
:1038B0008083E1EBF0E0808184608083E0EBF0E0E6
:1038C000808181608083EAE7F0E08081846080838A
:1038D0008081826080838081816080838081806834
:1038E00080831092C10008951F920F920FB60F921D
:1038F00011242F938F939F93EF93FF93E0911206E0
:10390000F09113068081E0911806F091190682FD6E
:1039100012C0908180911B068F5F8F7320911C06CF
:10392000821751F0E0911B06F0E0EE5FF94F958FA2
:1039300080931B0601C08081FF91EF919F918F9131
:103940002F910F900FBE0F901F9018951F920F92FE
:103950000FB60F9211242F933F934F935F936F9362
:103960007F938F939F93AF93BF93EF93FF9382E0E7
:1039700096E00E94AD1FFF91EF91BF91AF919F9193
:103980008F917F916F915F914F913F912F910F9008
:103990000FBE0F901F90189582E096E00E94721F54
:1039A00021E0892B09F420E0822F0895109205066A
:1039B0001092040688EE93E0A0E0B0E08093060643
:1039C00090930706A0930806B093090686E493E057
:1039D000909303068093020685EC90E090930F0687
:1039E00080930E0684EC90E090931106809310066D
:1039F00080EC90E0909313068093120681EC90E0A7
:103A0000909315068093140682EC90E0909317062D
:103A10008093160686EC90E0909319068093180622
:103A200010921B0610921C0610921D0610921E0684
:103A30000895CF92DF92EF92FF920F931F93CF934F
:103A4000DF936C017A01EB01E60EF71E00E010E057
:103A5000CE15DF0561F06991D601ED91FC910190E1
:103A6000F081E02DC6010995080F191FF1CFC8019B
:103A7000DF91CF911F910F91FF90EF90DF90CF904A
:103A800008956115710581F0DB010D900020E9F7C3
:103A9000AD0141505109461B570BDC01ED91FC91E2
:103AA0000280F381E02D099480E090E008950C9469
:103AB000411DDC01ED91FC910190F081E02D099414
:103AC0000F931F93CF93DF93EC016DE00E94591D7C
:103AD0008C016AE0CE010E94591D800F911FDF9179
:103AE000CF911F910F9108950F931F93CF93DF9361
:103AF000EC010E94411D8C01CE010E94601D800FCF
:103B0000911FDF91CF911F910F9108958F929F92F6
:103B1000AF92BF92CF92DF92EF92FF920F931F93DB
:103B2000CF93DF93CDB7DEB7A1970FB6F894DEBF82
:103B30000FBECDBF7C01C42EE52FCB01D22E19A222
:103B400021E02D1510F02AE0D22E8E010F5D1F4FBF
:103B50008D2C912CA12CB12C6C2D7E2FA5019401C4
:103B60000E942E238C2DD29E801911240150110900
:103B70008A3014F4805D01C0895CF80180832115CE
:103B800031054105510521F0C22EE32FCA01E4CFD2
:103B9000B801C7010E94411DA1960FB6F894DEBF7F
:103BA0000FBECDBFDF91CF911F910F91FF90EF908E
:103BB000DF90CF90BF90AF909F908F900895CF925D
:103BC000DF92EF92FF920F931F93CF93DF93EC015D
:103BD0006A017B012115310579F4E881F9810190B1
:103BE000F081E02D642FDF91CF911F910F91FF9015
:103BF000EF90DF90CF9009942A303105E9F477FFF8
:103C00001AC06DE20E94591D8C0144275527BA0144
:103C10004C195D096E097F092AE0CE010E94861DBC
:103C2000800F911FDF91CF911F910F91FF90EF9027
:103C3000DF90CF9008952AE0B701A601CE01DF9171
:103C4000CF911F910F91FF90EF90DF90CF900C9448
:103C5000861D9A01AB01662757FD6095762F0C945F
:103C6000DF1D0F931F93CF93DF93EC019A01AB01FC
:103C7000662757FD6095762F0E94DF1D8C01CE01CF
:103C80000E94601D800F911FDF91CF911F910F91B6
:103C900008952115310541F4DC01ED91FC9101906D
:103CA000F081E02D642F09940C94861D9A01462F13
:103CB00050E060E070E00C94491E9A01AB0160E0B6
:103CC00070E00C94491E4F925F926F927F928F9298
:103CD0009F92AF92BF92CF92DF92EF92FF920F939B
:103CE0001F93CF93DF93EC016A017B01B22E9A01FF
:103CF000AB01C701B6010E941523882319F066E3C2
:103D000073E027C026013701E89477F82FEF3FEFE3
:103D10004FE75FE7C301B2010E94152381110DC077
:103D20002FEF3FEF4FE75FE7C301B2010E941D2174
:103D300018161CF46AE373E00CC02FEF3FEF4FE757
:103D40005FE4C701B6010E946C221816ACF46EE362
:103D500073E0CE01DF91CF911F910F91FF90EF9013
:103D6000DF90CF90BF90AF909F908F907F906F909B
:103D70005F904F900C94411D2FEF3FEF4FE75FECAA
:103D8000C701B6010E941D2187FDE1CF20E030E090
:103D9000A901C701B6010E941D2187FF0AC06DE27B
:103DA000CE010E94591D8C01F7FAF094F7F8F094B7
:103DB00002C000E010E0A12C60E070E080E09FE332
:103DC000AB1441F020E030E040E251E40E942121B8
:103DD000A394F6CF9B01AC01C701B6010E94B920A4
:103DE0006B017C010E948E212B013C010E94BA21B3
:103DF0009B01AC01C701B6010E94B8206B017C0198
:103E00002AE0B301A201CE010E94861D080F191FEE
:103E1000BB2039F069EF72E0CE010E94411D080F0E
:103E2000191F7B2C772041F120E030E040E251E483
:103E3000C701B6010E9470226B017C010E9489219A
:103E40004B01AA2497FCA094BA2C2AE030E0B501DB
:103E5000A401CE010E94DF1D080F191FC501B40186
:103E60000E94BC219B01AC01C701B6010E94B82091
:103E70006B017C017A94D6CFC801DF91CF911F915D
:103E80000F91FF90EF90DF90CF90BF90AF909F90F9
:103E90008F907F906F905F904F9008950C94631E69
:103EA0000F931F93CF93DF93EC010E94631E8C014D
:103EB000CE010E94601D800F911FDF91CF911F9155
:103EC0000F91089508950E94391C0E94621F0E945C
:103ED000B206CFE9DFE10E9489072097E1F30E9453
:103EE0009F1FF9CFFC01818D228D90E0805C9F4F58
:103EF000821B91098F7399270895FC01918D828D02
:103F0000981731F0828DE80FF11D858D90E00895AE
:103F10008FEF9FEF0895FC01918D828D981761F0CE
:103F2000828DDF01A80FB11D5D968C91928D9F5FF0
:103F30009F73928F90E008958FEF9FEF08958CEC20
:103F40009CE1892B49F080E090E0892B29F00E94C8
:103F5000CC1C81110C9400000895FC01848DDF01BC
:103F6000A80FB11DA35ABF4F2C91848D90E00196EC
:103F70008F739927848FA689B7892C93A089B189DB
:103F80008C9180648C93938D848D981306C00288E5
:103F9000F389E02D80818F7D80830895CF93DF9317
:103FA000EC01888D8823C9F0EA89FB89808185FD31
:103FB00005C0A889B9898C9186FD0FC00FB607FC92
:103FC000F5CF808185FFF2CFA889B9898C9185FFD3
:103FD000EDCFCE010E94AD1FE7CFDF91CF910895C5
:103FE000CF92DF92FF920F931F93CF93DF931F9295
:103FF000CDB7DEB76C01DC015B969C915B975C965C
:104000008C915C97981307C05096ED91FC91519755
:10401000808185FD32C0F601038D10E00F5F1F4FD8
:104020000F731127F02EF601848DF81211C00FB610
:1040300007FCF9CFD6015096ED91FC915197808104
:1040400085FFF1CFC60169830E94AD1F6981EBCF67
:10405000838DE80FF11DE35AFF4F6083D6015B9615
:104060000C935B975296ED91FC91539780818062FF
:10407000808381E058968C930DC0D6015696ED91C1
:10408000FC91579760835096ED91FC9151978081F8
:104090008064808381E090E00F90DF91CF911F9149
:1040A0000F91FF90DF90CF900895BF92CF92DF9253
:1040B000EF92FF92CF93DF93EC016A017B01B22E66
:1040C000E889F98982E08083411581EE580761050E
:1040D0007105A1F060E079E08DE390E0A701960121
:1040E0000E942E23215031094109510956954795C7
:1040F00037952795211580E1380798F0E889F989E7
:10410000108260E874E88EE190E0A70196010E94B9
:104110002E2321503109410951095695479537956C
:104120002795EC85FD853083EE85FF852083188EED
:10413000EC89FD89B082EA89FB8980818061808376
:10414000EA89FB89808188608083EA89FB89808194
:1041500080688083EA89FB8980818F7D8083DF91FD
:10416000CF91FF90EF90DF90CF90BF90089508958A
:104170005058BB27AA270ED075C166D130F06BD13D
:1041800020F031F49F3F11F41EF45BC10EF4E09572
:10419000E7FB51C1E92F77D180F3BA1762077307A4
:1041A0008407950718F071F49EF58FC10EF4E09521
:1041B0000B2EBA2FA02D0B01B90190010C01CA01E1
:1041C000A0011124FF27591B99F0593F50F4503E8C
:1041D00068F11A16F040A22F232F342F4427585F7E
:1041E000F3CF469537952795A795F0405395C9F796
:1041F0007EF41F16BA0B620B730B840BBAF091504E
:10420000A1F0FF0FBB1F661F771F881FC2F70EC0EC
:10421000BA0F621F731F841F48F4879577956795BF
:10422000B795F7959E3F08F0B3CF9395880F08F0A8
:104230009927EE0F979587950895D9D008F481E0D6
:1042400008950CD00FC107D140F0FED030F021F41A
:104250005F3F19F0F0C0511139C1F3C014D198F388
:104260009923C9F35523B1F3951B550BBB27AA27F7
:1042700062177307840738F09F5F5F4F220F331F69
:10428000441FAA1FA9F333D00E2E3AF0E0E830D035
:1042900091505040E695001CCAF729D0FE2F27D038
:1042A000660F771F881FBB1F261737074807AB0706
:1042B000B0E809F0BB0B802DBF01FF2793585F4F7B
:1042C0002AF09E3F510568F0B6C000C15F3FECF395
:1042D000983EDCF3869577956795B795F7959F5F40
:1042E000C9F7880F911D9695879597F90895E1E094
:1042F000660F771F881FBB1F621773078407BA07F3
:1043000020F0621B730B840BBA0BEE1F88F7E0954D
:10431000089504D06894B111D9C00895BCD088F034
:104320009F5790F0B92F9927B751A0F0D1F0660FA1
:10433000771F881F991F1AF0BA95C9F712C0B130BC
:1043400081F0C3D0B1E00895C0C0672F782F8827CF
:10435000B85F39F0B93FCCF3869577956795B395FB
:10436000D9F73EF490958095709561957F4F8F4F6A
:104370009F4F0895E89409C097FB3EF4909580956F
:10438000709561957F4F8F4F9F4F9923A9F0F92F1B
:1043900096E9BB279395F695879577956795B79599
:1043A000F111F8CFFAF4BB0F11F460FF1BC06F5F7F
:1043B0007F4F8F4F9F4F16C0882311F096E911C091
:1043C000772321F09EE8872F762F05C0662371F0B2
:1043D00096E8862F70E060E02AF09A95660F771FC6
:1043E000881FDAF7880F9695879597F90895990FA2
:1043F0000008550FAA0BE0E8FEEF16161706E807AF
:10440000F907C0F012161306E407F50798F0621BCF
:10441000730B840B950B39F40A2661F0232B242BA4
:10442000252B21F408950A2609F4A140A6958FEFC3
:10443000811D811D089597F99F6780E870E060E015
:1044400008959FEF80EC089500240A94161617062D
:1044500018060906089500240A9412161306140675
:1044600005060895092E0394000C11F4882352F0D8
:10447000BB0F40F4BF2B11F460FF04C06F5F7F4F90
:104480008F4F9F4F089557FD9058440F551F59F077
:104490005F3F71F04795880F97FB991F61F09F3F31
:1044A00079F087950895121613061406551FF2CF5A
:1044B0004695F1DF08C0161617061806991FF1CFAA
:1044C00086957105610508940895E894BB276627D1
:1044D0007727CB0197F908958ADF08F48FEF0895C5
:1044E0000BD0C0CFB1DF28F0B6DF18F0952309F06C
:1044F000A2CFA7CF1124EACFC6DFA0F3959FD1F3B7
:10450000950F50E0551F629FF001729FBB27F00D81
:10451000B11D639FAA27F00DB11DAA1F649F6627D6
:10452000B00DA11D661F829F2227B00DA11D621F25
:10453000739FB00DA11D621F839FA00D611D221FDF
:10454000749F3327A00D611D231F849F600D211DC3
:10455000822F762F6A2F11249F5750408AF0E1F066
:1045600088234AF0EE0FFF1FBB1F661F771F881FAF
:1045700091505040A9F79E3F510570F05CCFA6CFF7
:104580005F3FECF3983EDCF3869577956795B7959A
:10459000F795E7959F5FC1F7FE2B880F911D9695C4
:1045A000879597F9089511F40EF44BCF42C073DF4D
:1045B000D0F39923D9F3CEF39F57550B87FF47D0FC
:1045C0000024A0E640EA900180585695979528F47B
:1045D000805C660F771F881F20F026173707480773
:1045E00030F4621B730B840B202931294A2BA695CA
:1045F00017940794202531254A2758F7660F771F0F
:10460000881F20F026173707480730F4620B730B1A
:10461000840B200D311D411DA09581F7B901842F18
:104620009158880F969587950895E1DE880B990B30
:1046300008959F3F31F0915020F4879577956795C5
:10464000B795880F911D9695879597F90895915084
:104650005040660F771F881FD2F70895A1E21A2EE7
:10466000AA1BBB1BFD010DC0AA1FBB1FEE1FFF1F16
:10467000A217B307E407F50720F0A21BB30BE40B66
:10468000F50B661F771F881F991F1A9469F76095AD
:104690007095809590959B01AC01BD01CF01089567
:1046A000052E97FB1EF400940E94672357FD07D048
:1046B0000E942E2307FC03D04EF40C9467235095E0
:1046C0004095309521953F4F4F4F5F4F08959095FE
:1046D0008095709561957F4F8F4F9F4F0895EE0F96
:1046E000FF1F0590F491E02D09940E947D23332350
:1046F00012F48A1B9B0B0C948E23A29FB001B39FD4
:10470000C001A39F700D811D1124911DB29F700DDA
:10471000811D1124911D08950E947D23B7FF0895E6
:10472000821B930B08950E947D23A59F900DB49F3B
:10473000900DA49F800D911D11240895F894FFCF32
:1047400000009F068000D200050101C3B58443012B
:1047500000004000140054004F4B002800202D3E64
:104760002061636B00656D6F6E50692056004F705D
:10477000656E456E657267794D6F6E0043542031EA
:104780002043616C3A2000435420322043616C3A4C
:10479000200056524D53204143207E004143205774
:1047A00061766520446574656374656400414320E7
:1047B00057617665204465746563746564202D20B7
:1047C0005265616C20506F7765722063616C632065
:1047D000656E61626C656400555341206D6F646560
:1047E000203E20005663616C3A200056726D733A89
:1047F000200050686173652053686966743A200030
:104800004143204E4F5420446574656374656400D1
:104810004143204E4F542064657465637465642081
:104820002D204170706172656E7420506F776572D3
:104830002063616C6320656E61626C656400555332
:1048400041206D6F646500417373756D696E6720FB
:1048500056524D533A200044657465637465642074
:10486000006E6F2043542064657465637465640052
:104870004E6F2043542773004354203120646574E5
:104880006563740043543120004354203220646532
:104890007465637400435432004465746563742026
:1048A00000204453313842323000446574656374EB
:1048B00065643A2000445331384232302054656DEB
:1048C00070003020445331384232302064657465C2
:1048D000637465640052464D3639435720496E690A
:1048E000743A20004E6F6465200020467265712086
:1048F000003433334D687A003836384D687A0039E1
:1049000031354D687A00204E6574776F726B2000E8
:104910004F4B200020282D3029004F70656E456ECA
:10492000657267794D6F6E69746F722E6F72670072
:10493000737461727475702E2E2E005B656D6F6ED0
:1049400050692E005D002069002067002040200093
:10495000204D487A002055534120002B565A000024
:1049600000006E16411616161E163116401600006F
:1049700000001519191D6E616E00696E66006F7674
:10498000660000000000F01F191D721F8B1F7D1FA5
:02499000CE1F38
:00000001FF
