:100000000C9439030C94EB0F0C94C40F0C94610303
:100010000C9461030C9461030C9457120C946103CB
:100020000C9461030C9461030C9461030C946103C0
:100030000C9461030C9461030C9461030C946103B0
:100040000C94E4130C9461030C94A4110C947E1191
:100050000C9461030C9461030C9461030C94610390
:100060000C9448090C946103A21B431BAD1BAD1BF0
:10007000AD1BAD1B641BAD1B361BAD1BAD1BAD1B00
:10008000AD1BAD1BAD1B6F1B811BAD1BA21BAD1BA5
:10009000AD1B8C1B737461727475702E2E2E004F05
:1000A00070656E456E657267794D6F6E69746F72BB
:1000B0002E6F726700656D6F6E50692056004F702D
:1000C000656E456E657267794D6F6E00656D6F6E1A
:1000D0005069205600204E6574776F726B2000398E
:1000E00031354D687A003836384D687A003433330C
:1000F0004D687A00204672657120004E6F6465205D
:100100000052464D3639435720496E69743A2000F3
:10011000426F6F74696E672E2E2E0052617370628B
:100120006572727920506900445331384232302070
:1001300054656D700044657465637465643A2000AD
:100140003020445331384232302064657465637422
:10015000656400445331384232302054656D70007C
:1001600044657465637465643A20002044533138F3
:100170004232300044657465637420004354320099
:100180004354203220646574656374004354312005
:10019000004354203120646574656374004E6F2001
:1001A00043542773006E6F20435420646574656365
:1001B000746564004465746563746564200056006A
:1001C000417373756D696E672056524D533A200026
:1001D000555341206D6F6465004143204E4F5420BC
:1001E0006465746563746564202D2041707061726C
:1001F000656E7420506F7765722063616C63206553
:100200006E61626C6564004143204E4F542044652A
:100210007465637465640050686173652053686930
:1002200066743A2000560056726D733A2000566389
:10023000616C3A2000555341206D6F6465203E206B
:100240000041432057617665204465746563746599
:1002500064202D205265616C20506F776572206399
:10026000616C6320656E61626C6564004143205778
:100270006176652044657465637465640056005654
:10028000524D53204143207E00435420322043618D
:100290006C3A2000435420312043616C3A20002006
:1002A00000205553412000207100204D487A002045
:1002B00040200020670020690020000A4176616923
:1002C0006C61626C6520636F6D6D616E64733A0A78
:1002D00020203C6E6E3E206920202020202D20739F
:1002E0006574206E6F6465204944732028737461BF
:1002F0006E64617264206E6F64652069647320614E
:10030000726520312E2E3330290A20203C6E3E208B
:10031000622020202020202D20736574204D487AF3
:100320002062616E64202834203D203433332C2039
:1003300038203D203836382C2039203D20393135C1
:10034000290A20203C6E6E6E3E2067202020202D42
:1003500020736574206E6574776F726B2067726F9F
:100360007570202852464D3132206F6E6C792061B5
:100370006C6C6F7773203231322C2030203D20613D
:100380006E79290A20203C6E3E2063202020202008
:10039000202D2073657420636F6C6C656374206D11
:1003A0006F64652028616476616E6365642C206EDD
:1003B0006F726D616C6C792030290A20202E2E2EF0
:1003C0002C3C6E6E3E2061202D2073656E6420648F
:1003D000617461207061636B657420746F206E6F4F
:1003E0006465203C6E6E3E2C207265717565737479
:1003F0002061636B0A20202E2E2E2C3C6E6E3E2038
:1004000073202D2073656E642064617461207061B7
:10041000636B657420746F206E6F6465203C6E6E34
:100420003E2C206E6F2061636B0A20202E2E2E2C16
:100430003C6E3E207020202D2053657420414320C7
:1004400041646170746572205663616C2031702064
:100450003D20554B2C203270203D205553410A2021
:100460002076202020202020202020202D205368AE
:100470006F77206669726D77617265207665727339
:10048000696F6E0A20203C6E3E20712020202020C3
:10049000202D20736574207175696574206D6F64FB
:1004A00065202831203D20646F6E277420726570AE
:1004B0006F727420626164207061636B657473296C
:1004C0000A005D005B656D6F6E50692E00203F0075
:1004D0004F4B0020620A00202D3E200020282D30A6
:1004E000290020004F4B2000005EBCE2613FDD830D
:1004F000C29C7E20A3FD1F419DC3217FFCA2401E04
:100500005F01E3BD3E6082DC237D9FC1421CFEA0F3
:10051000E1BF5D0380DE3C62BEE0025CDF81633DE3
:100520007C22C09E1D43A1FF4618FAA427799BC5D3
:1005300084DA3866E5BB5907DB856739BAE40658C3
:100540001947A5FB7826C49A653BD987045AB8E6B3
:10055000A7F91B45C6987A24F8A6441A99C7257BA3
:100560003A6486D85B05E7B98CD2306EEDB3510F93
:100570004E10F2AC2F7193CD114FADF3702ECC9283
:10058000D38D6F31B2EC0E50AFF1134DCE90722C73
:100590006D33D18F0C52B0EE326C8ED0530DEFB163
:1005A000F0AE4C1291CF2D73CA947628ABF5174953
:1005B0000856B4EA6937D58B5709EBB536688AD443
:1005C00095CB2977F4AA4816E9B7550B88D6346A33
:1005D0002B7597C94A14F6A8742AC896154BA9F723
:1005E000B6E80A54D7896B35010402000302048A75
:1005F000050506C30B2019421E2C25802E882F2DA1
:10060000370038003C8F3D106F20000000000023B1
:100610000026002900040404040404040402020265
:100620000202020303030303030102040810204033
:10063000800102040810200102040810202900286B
:100640000020002000200000000000240027002AD5
:100650000000000000250028002B0000000008001A
:100660000201000003040700000000000000000079
:10067000D61E11241FBECFEFD8E0DEBFCDBF11E0E4
:10068000A0E0B1E0ECE6F5E402C005900D92AE37D3
:10069000B107D9F725E0AEE7B1E001C01D92A03067
:1006A000B207E1F713E0C9E3D3E004C02197FE01EC
:1006B0000E94CE1FC833D107C9F70E942E140C9494
:1006C000B4220C94000085ED8093BC008091BC00A6
:1006D00084FDFCCF1092A403089540910C03262FB3
:1006E00030E0240F311D21323105DCF42091A403C8
:1006F0002430C9F4FC0180E090E0861758F4309172
:100700000C032191DC01A651BD4FA30FB11D2C9309
:100710000196F3CF80910C03680F60930C0380E087
:10072000089581E0089582E00895089581E090E0C1
:100730003091E8022091E702321710F480E090E057
:1007400091958195910908958091E8029091E70231
:10075000891730F48F5F8093E80280E090E008957D
:100760008FEF9FEF08958091E70290E02091E802DB
:10077000821B91090895CF92DF92EF92FF920F931F
:100780001F93CF93DF937C01262F972F8A018091AF
:10079000A503882391F0C62FD72F6E01C40ED51E56
:1007A000CC15DD0571F06991D701ED91FC910190B7
:1007B000F081E02DC7010995F3CF642F822F0E94AD
:1007C0006D03C801DF91CF911F910F91FF90EF90C2
:1007D000DF90CF900895CF93DF931F92CDB7DEB710
:1007E00069832091A5032223D1F02091C8032032F0
:1007F00040F021E030E0FC013383228380E090E090
:1008000015C08091A603E82FF0E0E955FC4F9981CF
:1008100090838F5F8093A6038093C80305C061E037
:10082000CE0101960E946D0381E090E00F90DF9170
:10083000CF91089508958EE480937C0062E070E08B
:1008400080E090E00E949E1380917A008064809303
:100850007A0080917A0086FDFCCF8091780020910B
:10086000790030E0322F2227A901330F660B770B76
:100870009A01AB01282B60E070E381E190E00E94D7
:10088000AF1FCA01B90108952F923F924F925F9214
:100890006F927F928F929F92AF92BF92CF92DF9290
:1008A000EF92FF920F931F93CF93DF93CDB7DEB7F5
:1008B000A2970FB6F894DEBF0FBECDBF9AA389A34F
:1008C0000E941B04698B7A8B8B8B9C8B0E94D813A4
:1008D0004B015C0169A07AA028E5620E711CA9A1F8
:1008E000BAA154968C910E948713F301918380835F
:1008F000BC01990F880B990B0E942D216B017C0183
:100900002DEC3CEC4CE054E40E947E2087FF0BC0B1
:1009100011E026E636E646EE53E4C701B6010E9432
:10092000DD2118160CF010E00E94D813DC01CB0179
:1009300088199909AA09BB09813D9740A105B1050C
:1009400010F4112361F20E94D8136D8B7E8B8F8B74
:10095000988F00E010E01A82198229A13AA1205C48
:100960003F4F3A8F298F49A15AA14C5B5F4F5C875B
:100970004B8789A19AA1885B9F4F9C8F8B8FA9A1E0
:10098000BAA1A45BBF4FBE87AD87E9A1FAA1E05B26
:10099000FF4FFE8FED8F29A13AA12C5A3F4F388B84
:1009A0002F8749A15AA1465A5F4F5E834D8329A0E4
:1009B0003AA05BE5250E311C89A19AA1885A9F4F68
:1009C00098A38F8F0E94D813DC01CB012D893E891B
:1009D0004F89588D821B930BA40BB50B803D97401C
:1009E000A105B10508F4DAC049895A89BA01550F41
:1009F000880B990B0E942D2120E030E04AE754E457
:100A00000E94832020E030E040E85AE30E94E22187
:100A10002B013C01A9A1BAA158962D913D914D9170
:100A20005C915B970E94E2214B015C01E981FA81B4
:100A3000BF0180E090E00E942B216B017C0129A086
:100A40003AA0F4E42F0E311C9B01AC01D1016D9151
:100A50007D918D919C910E9483200E9455229B0143
:100A6000AC01C501B4010E94E22169837A838B83C2
:100A70009C83E9A1FAA16487758786879787248D6F
:100A8000358D468D578DC301B2010E94E2212B01A5
:100A90003C0109A11AA1045B1F4FA7019601D801CF
:100AA0006D917D918D919C910E9483200E94552291
:100AB0009B01AC01C301B2010E94E2216D837E83E0
:100AC0008F839887E9A1FAA1608B718B828B938BBE
:100AD000A3019201C501B4010E94E221A9A0BAA01C
:100AE000F4E5AF0EB11CD5012D913D914D915C9176
:100AF0000E94E221A70196010E9483206B017C01E4
:100B0000E9A1FAA160837183828393832D813E8161
:100B10004F81588569817A818B819C810E94E22175
:100B20009B01AC01A9A1BAA114966D937D938D93FD
:100B30009C931797C701B6010E948320E9A1FAA1EF
:100B40006087718782879387D1011D921D921D92C4
:100B50001C921397F8011082118212821382D50120
:100B60001D921D921D921C921397A2960FB6F89497
:100B7000DEBF0FBECDBFDF91CF911F910F91FF90D0
:100B8000EF90DF90CF90BF90AF909F908F907F902D
:100B90006F905F904F903F902F900895E981FA8178
:100BA0003196FA83E983E9A1FAA184A595A5A6A5C2
:100BB000B7A580A791A7A2A7B3A784890E9487138E
:100BC000A9A1BAA195969C938E93949756968C91D1
:100BD0000E9487133C01E9A1FAA197A386A324A14F
:100BE00035A13A872987B901330F880B990B0E94E9
:100BF0002D216B017C01A9A1BAA1D4968D909D9065
:100C0000AD90BC90D797A50194010E94112020E0DF
:100C100030E040E85AE30E94E2219B01AC01C501AB
:100C2000B4010E9412209B01AC01E9A1FAA164ABBE
:100C300075AB86AB97ABC701B6010E9411204B0183
:100C40005C01A9A1BAA19C966D937D938D939C9311
:100C50009F97B301770C880B990B0E942D216B0194
:100C60007C01E9A1FAA140AC51AC62AC73ACA30128
:100C700092010E94112020E030E040E85AE30E94F7
:100C8000E2219B01AC01C301B2010E9412209B0131
:100C9000AC01A9A1BAA1D8966D937D938D939C9335
:100CA000DB97C701B6010E9411206B017C01E9A10D
:100CB000FAA160AB71AB82AB93ABA5019401C50106
:100CC000B4010E94E2219B01AC01A98DBA8D6D9304
:100CD0007D938D939C931397EB85FC856081718147
:100CE000828193810E941220AB85BC856D937D9398
:100CF0008D939C931397A7019601C701B6010E949B
:100D0000E2219B01AC01EB8DFC8D608371838283BA
:100D10009383AD85BE856D917D918D919C910E944F
:100D20001220ED85FE856083718382839383A9A160
:100D3000BAA198964D905D906D907C909B97A30181
:100D40009201C501B4010E941120E9A1FAA120A1DC
:100D500031A142A153A10E94E2219B01AC01C30138
:100D6000B2010E941220A9A1BAA1DC966D937D93D5
:100D70008D939C93DF97A70196010E94E2219B012E
:100D8000AC01ED8DFE8D6083718382839383AF858B
:100D9000B8896D917D918D919C910E941220EF8573
:100DA000F8896083718382839383D1018C91ED8173
:100DB000FE818083AF8DB8A18D919C91E985FA85E4
:100DC0008E179F0724F4E1E0D101EC9302C0D1011A
:100DD0001C92E981FA81319729F4D1018C91ED813E
:100DE000FE818083AD81BE819C91F1018081981745
:100DF00011F00F5F1F4F0431110508F0F5CDE2CD62
:100E00002F923F924F925F926F927F928F929F921A
:100E1000AF92BF92CF92DF92EF92FF920F931F9308
:100E2000CF93DF9300D000D0CDB7DEB79C838B8308
:100E30000E941B046B017C0108EC15E08B819C81F6
:100E4000885B9F4F9A8389832B803C809CE4290E8A
:100E5000311CEB81FC8186890E948713EB81FC8128
:100E600097A386A3BC01990F880B990B0E942D2193
:100E70004B015C01EB81FC8140AC51AC62AC73ACCA
:100E8000A30192010E94112020E030E040E85AE3E3
:100E90000E94E2219B01AC01C301B2010E94122019
:100EA0009B01AC01EB81FC8160AF71AF82AF93AF6E
:100EB000C501B4010E941120EB81FC8160AB71ABD4
:100EC00082AB93AB9B01AC010E94E221E981FA81E4
:100ED0006083718382839383F10120813181428118
:100EE00053810E941220F101608371838283938376
:100EF0000150110909F0ADCF20E030E049EB54E496
:100F00000E9483200E9455224B015C01B601DD0C3A
:100F1000880B990B0E942D2120E030E04AE754E431
:100F20000E94832020E030E040E85AE30E94E22162
:100F3000EB81FC81248D358D468D578D0E94E221F9
:100F4000A50194010E94E221EB81FC81608B718BF1
:100F5000828B938BF10110821182128213820F9087
:100F60000F900F900F90DF91CF911F910F91FF90F5
:100F7000EF90DF90CF90BF90AF909F908F907F9039
:100F80006F905F904F903F902F900895E8982A9827
:100F90008EBD0DB407FEFDCF8EB56EBD0DB407FE40
:100FA000FDCF8EB52A9AE89A089560E00C94C607A2
:100FB000CF93C82F81E00E94D507837E682F6C2BCA
:100FC00081E8CF910C94C6078091C903853021F444
:100FD00080913503882311F080E0089584E08093A8
:100FE000C9030E94D80781E0089588E20E94D507CE
:100FF000807521F080E00E94D507F7CF08958627FD
:10100000682F62956827062E669566956025062EE0
:10101000669560256770082E892F669507946795F9
:10102000902D8627069467959025862708958091B0
:10103000C903853009F04DC060E485EA0E94C60707
:1010400084E20E94D5078093E902789488E20E94A6
:10105000D5078075D9F38091350381110FC0E091D8
:101060003103F09132038091350391E0980F909312
:1010700035039091CB03E80FF11D908380E00E942F
:10108000D507E0913103F09132039091350321E0CF
:10109000290F20933503E90FF11D8083682F80917C
:1010A0003303909134030E94FF079093340380939D
:1010B0003303809138032091350390E0049630E0AB
:1010C00082179307A4F080913503883408F4BECFCB
:1010D000089588E20E94D50783FF09C084E08093C9
:1010E000C9030E94D80760E885EA0C94C6070895F2
:1010F000CF9340933803FB0120E030E050E0241709
:10110000350744F4D901A75CBC4F91919C932F5FA4
:101110003F4FF5CF86FD04C0807E9091CA03890FB2
:10112000809337036091CB038FEF9FEF0E94FF07FF
:101130009093340380933303909138038EEF891B8F
:101140008093C9030E94F5078CE00E94D80760E0F5
:1011500085EA0E94C6078091C9038330DCF588E2E6
:101160000E94D50787FDF7CF8091C90387FF1BC079
:10117000909138038091C903E0913103F0913203DB
:10118000E90FF11DE80FF11D87FDFA95C3816C2F62
:1011900080913303909134030E94FF0790933403AE
:1011A000809333030DC08091C903882329F08130D7
:1011B00031F4C091340304C0C091330301C0CAEAC2
:1011C0006C2F80E80E94C6078091C9038F5F8093CF
:1011D000C903C1CFCF910895FC01248131E0309340
:1011E000A5032093C7031092A6031092C80383851A
:1011F000682B8CEC93E00E94EB030C94780C0F931B
:101200001F93CF938C01C62F0E94EC086C2F646053
:10121000C8010E94EC086C2F6B7FC8010E94EC088B
:1012200083EC90E00197F1F7CF911F910F91089512
:10123000FF920F931F93CF93DF931F92CDB7DEB72B
:101240008C01F62E962F907F692F642BC80149835D
:101250000E94FF0880E1F89EB00111244981642BAF
:10126000C8010F90DF91CF911F910F91FF900C94C7
:10127000FF0841E00E94180981E090E0089540E0F5
:1012800061E00E9418098BE39FE10197F1F708954F
:101290001F920F920FB60F9211242F933F934F93EB
:1012A0005F936F937F938F939F93AF93BF93EF93CE
:1012B000FF938091B900887F803609F49CC068F55F
:1012C000883209F45BC090F4803109F454C038F4DA
:1012D000882309F4F6C0883009F44DC0F6C088317F
:1012E00009F44CC0803209F45DC0EFC0803409F4C9
:1012F00068C048F4803309F455C0883309F0E5C06C
:101300008093A203D8C0803509F44FC0883509F412
:101310005DC0883409F0D9C0D6C0883909F4C7C087
:10132000A8F4883709F467C038F4883609F463C034
:10133000803709F460C0C9C0883809F4B8C0803962
:1013400009F45FC0803809F0C0C05BC0803B09F47D
:1013500086C038F4803A09F466C0883A09F47FC040
:10136000B4C0803C09F4A7C0883C09F4A4C0883B01
:1013700009F48AC0AAC080917F0310C09091A10394
:101380008091A003981770F5E091A10381E08E0F82
:101390008093A103F0E0E058FC4F80818093BB0074
:1013A00085EC86C08093A2038EC0E091A10381E00A
:1013B0008E0F8093A1038091BB00F0E0E058FC4FBA
:1013C00080839091A1038091A0036EC0E091A1035E
:1013D00081E08E0F8093A1038091BB00F0E0E05884
:1013E000FC4F80838091A30381116DC081E08093C5
:1013F0007E0384EA61C083E08093A40310923003EB
:10140000CFCF80913003803208F051C0E09130039B
:1014100081E08E0F809330038091BB00F0E0E05FAD
:10142000FC4F8083BDCF85EC8093BC001092A40359
:1014300080913003803230F4E0913003F0E0E05FDF
:10144000FC4F10826091300370E0E0910E03F09148
:101450000F0380E193E009951092300336C084E0D9
:101460008093A40310920D0310920C03E0910A03E1
:10147000F0910B03099580910C03811105C081E067
:1014800080930C031092EA02E0910D0381E08E0F2D
:1014900080930D03F0E0E651FD4F80818093BB0007
:1014A00090910D0380910C03981708F479CF85E88B
:1014B0008093BC000AC085EC8093BC001092A4030A
:1014C00004C01092A2030E946303FF91EF91BF91A9
:1014D000AF919F918F917F916F915F914F913F91CC
:1014E0002F910F900FBE0F901F9018951092A4038C
:1014F00081E08093A30310927E0361E082E10E9469
:101500001B1361E083E10E941B13E9EBF0E0808193
:101510008E7F808380818D7F808388E48093B80074
:1015200085E48093BC000895DC01E0E0615038F070
:101530008D91E827F0E0E851FB4FE491F7CF8E2F33
:1015400008950F931F93CF93DF938C01D62FE091D3
:101550007A04F0917B04138615861486DF011B96AE
:1015600033961E92AE17BF07E1F7C0E0B801809135
:101570007A0490917B040E94110E811102C080E0D8
:1015800010C0CD130AC067E0C8010E94940AF80198
:101590009781891302C081E004C0CF5FDC1778F324
:1015A000E5CFDF91CF911F910F910895CF92DF92F8
:1015B000EF92FF920F931F93CF93DF931F92CDB7BC
:1015C000DEB76C01E62E08E010E0FF24F39461E042
:1015D0008F2D8E2109F460E0C60149830E948D128F
:1015E000FF0C0150110949810115110581F74111C5
:1015F00015C0F894D6011196ED91FC911297918146
:101600008C918095892381831196ED91FC9112979D
:1016100092818C9180958923828378940F90DF91B9
:10162000CF911F910F91FF90EF90DF90CF90089591
:10163000CF92DF92EF92FF920F931F93CF93DF939E
:101640001F92CDB7DEB78C01F62E40E065E57983B9
:101650000E94D60ACF2C7981D72E760188E0E80E39
:10166000F11CF60161916F0140E0C8010E94D60AA9
:10167000CE14DF04B1F70F90DF91CF911F910F913E
:10168000FF90EF90DF90CF900895FC019081018052
:10169000F281E02DF8948181892B81832281892F29
:1016A000809528232283A7E0B0E01197F1F72181EC
:1016B00082238183A3E2B0E01197F1F780817894CF
:1016C000EFECF0E03197F1F7982381E009F480E046
:1016D00008956DE671E088ED93E00C943D10CF9392
:1016E000DF93BC0188ED93E00E941910EC010E9489
:1016F000690B8C0F9D1FDF91CF910895CF92DF92E0
:10170000EF92FF92CF93DF936C01990FEE08FF08E1
:10171000F7FE1BC06DE288ED93E00E941210EC0111
:1017200044275527BA014C195D096E097F092AE043
:1017300088ED93E00E9452108C0F9D1FDF91CF9196
:10174000FF90EF90DF90CF9008952AE0B701A601B7
:1017500088ED93E0DF91CF91FF90EF90DF90CF90F5
:101760000C945210CF92DF92EF92FF920F931F933F
:10177000CF93DF93C82F162FD42FEFEFE60FE33070
:1017800028F4F0E0E55EFE4FA08101C0A0E0B0E0EB
:1017900020E836E948E950E00E94F21F6B017C0125
:1017A000A12FB0E020E039E04DE350E00E94F21FAD
:1017B000DC01CB018C0D9D1DAE1DBF1DBC01CD01FB
:1017C00022E0660F771F881F991F2A95D1F729E01D
:1017D0003DE340E050E00E948D1FDA01C90136E090
:1017E000880F991FAA1FBB1F3A95D1F780938804D1
:1017F00090938904A0938A04B0938B04D093CB0375
:10180000DC2FDF71D093CA0364E170E080E090E0E8
:101810000E949E13DD2369F087E198E090930A010E
:101820008093090180916900836080936900E89A40
:1018300007C0E89881EA9EE090930A01809309012D
:101840002A9A229A2A9A84B18C6284B980E58CBD46
:101850008DB581608DBD6AEA8FEA0E94C6078FE26E
:101860000E94D5078A3AB9F765E58FEA0E94C60754
:101870008FE20E94D5078535B9F708EE15E0F8012B
:101880008491882341F03196649180680E94C60754
:101890000E5F1F4FF4CF6091CB0380EB0E94C60711
:1018A000C0908804D0908904E0908A04F0908B0462
:1018B000B7018827992787E80E94C60799278F2DA7
:1018C0007E2D6D2D88E80E94C6076C2D89E80E9448
:1018D000C60784E08093C903C0938C048C2FDF91EA
:1018E000CF911F910F91FF90EF90DF90CF900895CF
:1018F0002091C8039091C703213208F04AC080911B
:10190000A4038111FCCF32E03093A40331E0309383
:10191000A3033FEF3093A2031092A1032093A003EF
:10192000A7EAB3E040E853E0FA013E2F341B321738
:1019300018F43D913193F9CF10927F0320917F03EA
:10194000990F922B90937F0390917E03913061F4D5
:1019500010927E0390917F039093BB009091BC0006
:1019600093FDF8CF95EC01C095EE9093BC0090915B
:10197000A4039230E1F39091A2039F3F79F080910C
:10198000A203803241F08091A203803331F084E0E1
:1019900005C081E003C082E001C083E01092A6038D
:1019A0001092C8031092A5030895CF93DF93CDB78B
:1019B000DEB728970FB6F894DEBF0FBECDBF9C01EF
:1019C00088E0E3E1F1E0DE01119601900D928A9545
:1019D000E1F7F9018085811102C09FEF01C091E01C
:1019E000FE013196E90FF11DE90FF11D608160687C
:1019F00040E0C90128960FB6F894DEBF0FBECDBFF8
:101A0000DF91CF910C941809CF93DF93AB01BC0108
:101A100022E088ED93E00E949B10EC010E94690B8C
:101A20008C0F9D1FDF91CF9108958091C903843061
:101A300019F0853031F133C010923803109235031C
:101A40006091CB038FEF9FEF0E94FF0790933403C9
:101A50008093330386E393E09093320380933103C2
:101A600085E08093C9030E94F50760E885EA0E943B
:101A7000C60780E10E94D80762E08EE90E94C6078F
:101A80000EC0809138032091350390E0049630E039
:101A9000821793073CF080913503883418F48FEF58
:101AA0009FEF089584E08093C9030E94D807809136
:101AB0003803833418F081E090E008958091330377
:101AC00090913403892BB9F78091370386FF11C0B9
:101AD0003091CA033F3169F0209137032F7181E0C3
:101AE00090E0231302C080E090E0919581959109E8
:101AF000089580E090E008958F929F92AF92BF92F8
:101B0000CF92DF92EF92FF920F931F93CF93DF93C9
:101B10008C01EB0180917A0490917B040E94BC12AD
:101B2000882309F43DC0B80180917A0490917B0428
:101B30000E94180B40E06EEB80917A0490917B0438
:101B40000E94D60A8E015E0189E0A80EB11C809029
:101B50007A0490907B0488E0C82ED12CEE24E39484
:101B6000F12CC4010E94450B8111FE28EE0CE1E02E
:101B7000CE1AD108B1F7F801F1928F01EA15FB05F1
:101B800031F780917A0490917B040E94BC128130DD
:101B900039F468E0CE010E94940A91E0288582130E
:101BA00090E0892FDF91CF911F910F91FF90EF90DF
:101BB000DF90CF90BF90AF909F908F900895CF937C
:101BC000DF93CDB7DEB729970FB6F894DEBF0FBE0F
:101BD000CDBFFC0120812031D1F0BE016F5F7F4F6E
:101BE0000E947C0D882389F08D818F3361F020F471
:101BF0008F3159F489E00CC08F3519F08F3739F0E7
:101C000004C08BE005C08AE003C080E001C08CE026
:101C100029960FB6F894DEBF0FBECDBFDF91CF91EE
:101C20000895AF92BF92CF92DF92EF92FF920F93FF
:101C30001F93CF93DF931F92CDB7DEB75C01D62EF3
:101C4000E72EFC018585811105C0C5010E94BC12EB
:101C5000811106C0F50113861586148680E065C0E3
:101C600040E060EFC5010E94D60A01E0F12CC12CD2
:101C700011E0C5010E94450B682FC50169830E94D0
:101C8000450B6981613019F48130B9F433C04F2DAF
:101C900050E068131BC0F5018385181730F4E40F7A
:101CA000F51F8381802349F402C0181731F060E0EA
:101CB000193058F4F501148708C0F501EF0DF11D36
:101CC0008381802B838361E009C0C12EF501E40F7D
:101CD000F51F9381802F809589238383C5010E94FE
:101CE0008D121F5F000F11F4F39401E0F7E0FF1570
:101CF00008F0BFCF113408F4ADCFF501C386C11091
:101D000002C081E08587F5018381882309F4A2CF91
:101D1000D5011396ED2DFE2D9501255F3F4F8D9139
:101D20008193A217B307D9F781E00F90DF91CF918C
:101D30001F910F91FF90EF90DF90CF90BF90AF90E9
:101D400008950895CF92DF92EF92FF920F931F9321
:101D5000CF93DF936C017A018B01C0E0D0E0CE1508
:101D6000DF0589F0D8016D918D01D601ED91FC91CF
:101D70000190F081E02DC6010995892B11F47E01B7
:101D800002C02196ECCFC701DF91CF911F910F9137
:101D9000FF90EF90DF90CF900895FC01918D828DA0
:101DA000981761F0828DDF01A80FB11D5D968C91AF
:101DB000928D9F5F9F73928F90E008958FEF9FEFBA
:101DC0000895FC01918D828D981731F0828DE80F76
:101DD000F11D858D90E008958FEF9FEF0895FC0130
:101DE000918D228D892F90E0805C9F4F821B9109FD
:101DF0008F739927089588ED93E00E94EF0E21E0FC
:101E0000892B09F420E0822F0895FC01848DDF01E5
:101E1000A80FB11DA35ABF4F2C91848D90E001965D
:101E20008F739927848FA689B7892C93A089B1894C
:101E30008C9180648C93938D848D981306C0028856
:101E4000F389E02D80818F7D80830895EF92FF924A
:101E50000F931F93CF93DF93EC0181E0888F9B8DCD
:101E60008C8D981305C0E889F989808185FD24C08F
:101E7000F62E0B8D10E00F5F1F4F0F731127E02E12
:101E80008C8DE8120CC00FB607FCFACFE889F989EF
:101E9000808185FFF5CFCE010E94050FF1CF8B8D9C
:101EA000FE01E80FF11DE35AFF4FF0820B8FEA8924
:101EB000FB898081806207C0EE89FF896083E889A1
:101EC000F98980818064808381E090E0DF91CF9107
:101ED0001F910F91FF90EF900895CF93DF93EC0146
:101EE000888D8823C9F0EA89FB89808185FD05C03A
:101EF000A889B9898C9186FD0FC00FB607FCF5CF74
:101F0000808185FFF2CFA889B9898C9185FFEDCFBB
:101F1000CE010E94050FE7CFDF91CF91089580E0B9
:101F200090E0892B29F00E94FB0E81110C94000097
:101F300008950E94AF220F931F930E94D81300911F
:101F4000F3041091F4042091F5043091F604DC01BF
:101F5000CB01801B910BA20BB30B8F369105A10512
:101F6000B10528F080917E018F5F80937E010E94F1
:101F7000D8136093F3047093F4048093F504909362
:101F8000F6041F910F9108951F920F920FB60F92B2
:101F900011242F933F934F935F936F937F938F936E
:101FA0009F93AF93BF93EF93FF93E0910B01F09159
:101FB0000C010995FF91EF91BF91AF919F918F9186
:101FC0007F916F915F914F913F912F910F900FBE35
:101FD0000F901F9018951F920F920FB60F92112419
:101FE0002F933F934F935F936F937F938F939F9321
:101FF000AF93BF93EF93FF93E0910901F0910A0132
:102000000995FF91EF91BF91AF919F918F917F9132
:102010006F915F914F913F912F910F900FBE0F9055
:102020001F901895DC01ED91FC910190F081E02D5D
:102030000994EF92FF920F931F93CF93DF938C013C
:102040007B01C0E0D0E0F701EC0FFD1F6491662337
:1020500061F0D801ED91FC910190F081E02DC80173
:102060000995892B11F02196EECFCE01DF91CF910A
:102070001F910F91FF90EF9008956115710579F010
:10208000FB0101900020E9F73197AF01461B570B88
:10209000DC01ED91FC910280F381E02D099480E058
:1020A00090E008954F925F926F927F92EF92FF922D
:1020B0000F931F93CF93DF93CDB7DEB7A1970FB6E2
:1020C000F894DEBF0FBECDBF7C01FA01CB0119A28F
:1020D000223008F42AE08E010F5D1F4F422E512C52
:1020E000612C712CBF01A30192010E948D1FF90187
:1020F000CA01015011096A3014F4605D01C0695CC5
:10210000D8016C93232B242B252B61F7B801C70131
:102110000E943D10A1960FB6F894DEBF0FBECDBF52
:10212000DF91CF911F910F91FF90EF907F906F9073
:102130005F904F9008954F925F926F927F928F922F
:102140009F92AF92BF92CF92DF92EF92FF92CF9386
:10215000DF93EC016A017B01B22E9A01AB01C7014A
:10216000B6010E949522882319F060E771E027C02C
:1021700026013701E89477F82FEF3FEF4FE75FE74D
:10218000C301B2010E94952281110DC02FEF3FEFD4
:102190004FE75FE7C301B2010E947E2018161CF4CE
:1021A00064E771E00CC02FEF3FEF4FE75FE4C7013A
:1021B000B6010E94DD2118169CF468E771E0CE019B
:1021C000DF91CF91FF90EF90DF90CF90BF90AF90D5
:1021D0009F908F907F906F905F904F900C943D10E8
:1021E0002FEF3FEF4FE75FECC701B6010E947E2063
:1021F00087FDE3CF20E030E0A901C701B6010E94CE
:102200007E2087FF0AC06DE2CE010E9412104C01B1
:10221000F7FAF094F7F8F09402C0812C912CA12CDD
:1022200060E070E080E09FE3AB1441F020E030E03C
:1022300040E251E40E948320A394F6CF9B01AC01BD
:10224000C701B6010E9412202B013C010E94FC2014
:102250006B017C010E942B219B01AC01C301B201E7
:102260000E9411202B013C012AE0B701A601CE01FA
:102270000E9452107C01E80CF91CBB2039F06CE77D
:1022800071E0CE010E943D10E80EF91EDB2CDD202E
:1022900029F120E030E040E251E4C301B2010E94A4
:1022A000E2212B013C010E94FC204B01A12CB12C0E
:1022B0002AE0B501A401CE010E945210E80EF91ED9
:1022C000C501B4010E942B219B01AC01C301B201E5
:1022D0000E9411202B013C01DA94D9CFC701DF9174
:1022E000CF91FF90EF90DF90CF90BF90AF909F90F5
:1022F0008F907F906F905F904F9008951F920F92F4
:102300000FB60F9211242F933F934F935F936F93C8
:102310007F938F939F93AF93BF93EF93FF9388ED3A
:1023200093E00E94050FFF91EF91BF91AF919F91B4
:102330008F917F916F915F914F913F912F910F906E
:102340000FBE0F901F9018951F920F920FB60F920D
:1023500011242F938F939F93EF93FF93E091E803C2
:10236000F091E9038081E091EE03F091EF0382FDAB
:1023700012C090818091F1038F5F8F732091F203DF
:10238000821751F0E091F103F0E0E852FC4F958F95
:102390008093F10301C08081FF91EF919F918F9114
:1023A0002F910F900FBE0F901F9018950F931F93B2
:1023B000CF938C0165E476E088ED93E00E941910DC
:1023C000809137038F7190E00E947E0B63E476E08A
:1023D00088ED93E00E941910C0E02C2F30E0201708
:1023E0003107A4F4F901E75CFC4F408150E060E064
:1023F00070E02AE088ED93E00E94521061E476E0FC
:1024000088ED93E00E941910CF5FE7CF6FE376E08D
:1024100088ED93E00E9419108091E90290E0959573
:1024200087959195819591090E947E0B6DE376E0E9
:1024300088ED93E00E941910CF911F910F910C9499
:10244000690B1F93CF93DF93EC01FE0114911123CD
:1024500071F01A3029F46DE088ED93E00E941210BB
:10246000612F88ED93E00E9412102196EECFDF914C
:10247000CF911F91089561E089E00E941B1369E1EB
:1024800070E080E090E00E949E1360E089E00E948E
:102490001B1361E089E00E941B1369E170E080E09A
:1024A00090E00E949E1360E089E00C941B131F9241
:1024B0000F920FB60F9211248F938091F2048F5FC9
:1024C0008093F2048F910F900FBE0F901F9018957C
:1024D0003FB7F8948091FC049091FD04A091FE0414
:1024E000B091FF0426B5A89B05C02F3F19F00196B7
:1024F000A11DB11D3FBFBA2FA92F982F8827820F8A
:10250000911DA11DB11DBC01CD0142E0660F771FD9
:10251000881F991F4A95D1F70895FC019081018089
:10252000F281E02D892F809560FF12C0F8942281FE
:10253000822382838181892B8183A3E2B0E011977A
:10254000F1F78281982B9283789487ED90E011C007
:10255000F8942281822382838181892B8183AFEF4A
:10256000B0E01197F1F78281982B928378948FE0F5
:1025700090E00197F1F70895FC0190810180F281CC
:10258000E02DF8948181292F2095822381837894EE
:102590008DE743E050E0815021F1DA011197F1F726
:1025A00030813923C1F3F89482818223828381812F
:1025B000892B81837894ABE7B7E01197F1F7F89412
:1025C000818128232183A3E1B1E01197F1F7808174
:1025D000982381E009F080E07894E3E6F6E0319713
:1025E000F1F70895833081F028F4813099F082303A
:1025F000A1F008958730A9F08830B9F08430D1F483
:10260000809180008F7D03C0809180008F778093C0
:102610008000089584B58F7702C084B58F7D84BD16
:1026200008958091B0008F7703C08091B0008F7DB6
:102630008093B00008951F93CF93DF93282F30E04D
:10264000F901E55AF94F8491F901E75DF94FD49109
:10265000F901EB5EF94FC491CC23C9F0162F81111B
:102660000E94F212EC2FF0E0EE0FFF1FEF5AF94F2D
:10267000A591B4918FB7F894111105C09C91ED2FDD
:10268000E095E92302C0EC91ED2BEC938FBFDF9135
:10269000CF911F910895CF93DF9390E0FC01E75D08
:1026A000F94F2491FC01EB5EF94F8491882361F18D
:1026B00090E0880F991FFC01E95BF94FC591D49117
:1026C000FC01EF5AF94FA591B491611109C09FB770
:1026D000F8948881209582238883EC912E230BC067
:1026E000623061F49FB7F8943881822F80958323FC
:1026F0008883EC912E2B2C939FBF06C08FB7F89444
:10270000E8812E2B28838FBFDF91CF9108958E30E3
:1027100008F08E508770806480937C0080917A00EE
:10272000806480937A0080917A0086FDFCCF80914E
:1027300078002091790090E0922B08958F929F92DB
:10274000AF92BF92CF92DF92EF92FF926B017C012A
:102750000E9468124B015C01C114D104E104F10430
:10276000F1F00E946812DC01CB0188199909AA09CD
:10277000BB09883E9340A105B10570F321E0C21A60
:10278000D108E108F10888EE880E83E0981EA11CAC
:10279000B11CC114D104E104F10419F7DDCFFF909D
:1027A000EF90DF90CF90BF90AF909F908F90089563
:1027B0002FB7F8946091F8047091F9048091FA04AD
:1027C0009091FB042FBF08951F920F920FB60F92A6
:1027D00011242F933F938F939F93AF93BF93809137
:1027E000F8049091F904A091FA04B091FB0430919F
:1027F000F70423E0230F2D3720F40196A11DB11D0E
:1028000005C026E8230F0296A11DB11D2093F704F1
:102810008093F8049093F904A093FA04B093FB0416
:102820008091FC049091FD04A091FE04B091FF04FE
:102830000196A11DB11D8093FC049093FD04A0930B
:10284000FE04B093FF04BF91AF919F918F913F9190
:102850002F910F900FBE0F901F901895CF93DF937D
:10286000CDB7DEB7AA970FB6F894DEBF0FBECDBFC7
:10287000789484B5826084BD84B5816084BD85B55B
:10288000826085BD85B5816085BD80916E00816067
:1028900080936E001092810080918100826080930D
:1028A000810080918100816080938100809180000F
:1028B0008160809380008091B10084608093B1003A
:1028C0008091B00081608093B00080917A00846034
:1028D00080937A0080917A00826080937A00809160
:1028E0007A00816080937A0080917A00806880937A
:1028F0007A001092C10064E670E080E090E00E94EF
:102900009E138091E202882371F080E090E0A2E0C3
:10291000B3E48093DE029093DF02A093E002B093D1
:10292000E1028EE60DC086E696E6A0E8B3E4809369
:10293000DE029093DF02A093E002B093E10286EE04
:102940008093DD0261E089E00E944B1361E089E041
:102950000E941B1362E088E00E944B1361E085E057
:102960000E944B1360E085E00E941B1362E083E04D
:102970000E944B13E091E803F091E90382E0808329
:10298000E091E403F091E5031082E091E603F09119
:10299000E70383E380831092F003E091EC03F0916E
:1029A000ED0386E08083E091EA03F091EB03808100
:1029B00080618083E091EA03F091EB03808188607D
:1029C0008083E091EA03F091EB038081806880834B
:1029D000E091EA03F091EB0380818F7D808365EBCA
:1029E00070E088ED93E00E94191061EE7AE784E3CD
:1029F00090E40E94040D8FE990E00E946F0B84E93F
:102A000090E00E946F0B6AE070E080E090E00E942E
:102A10009E134091070160910601809105010E947B
:102A2000B20B0AE010E010930802009307020E9424
:102A3000E4078EA381110BC00E94150D90938901AC
:102A4000809388018091880190918901F0CF48E1BD
:102A500067E072E080E00E94780864E670E080E061
:102A600090E00E949E1301501109E8F68091C9037D
:102A7000843064F483B7817F8C6083BF83B78160C7
:102A800083BF889583B78E7F83BFF0CF10920802F3
:102A900010920702E0917A04F0917B041386158668
:102AA0001486DF011B9633961E92AE17BF07E1F71F
:102AB0001092790411E0BE016F5F7F4F80917A041C
:102AC00090917B040E94110E882309F449C067E0AD
:102AD000CE0101960E94940A98858913ECCF8091CB
:102AE0007504811126C080917A0490917B040E9424
:102AF000BC12BE016F5F7F4F80917A0490917B047E
:102B00000E94180B40E064EB80917A0490917B0462
:102B10000E94D60A80917A0490917B040E94450B12
:102B2000082F80917A0490917B040E94BC120023AC
:102B300061F100917604CE0101960E94DF0D8017AD
:102B400018F48091760404C0CE0101960E94DF0D36
:102B500080937604809179048F5F80937904ABCF62
:102B6000C0907904C092030203ED11E05801E12CFA
:102B7000EC1471F06E2DC5010E94A10A38E0A30E7D
:102B8000B11C882329F0E394F3CF10937504D1CFBF
:102B9000E12C8FE7882E9CE0992EEC1409F4A3C059
:102BA000C8010E94DF0D8C3009F499C0BE016F5F2F
:102BB0007F4FC8010E947C0D882309F490C0D80182
:102BC0008C91803109F48BC08D8280917A04909130
:102BD0007B040E94BC12B80180917A0490917B041E
:102BE0000E94180B40E06EE480917A0490917B047F
:102BF0000E94D60A40E06B8180917A0490917B0418
:102C00000E94D60A40E06C8180917A0490917B0406
:102C10000E94D60AF8018081803141F040E06D8148
:102C200080917A0490917B040E94D60A80917A0464
:102C300090917B040E94BC12B80180917A0490911B
:102C40007B040E94180B4091750468E480917A041B
:102C500090917B040E94D60A64E170E080E090E0ED
:102C60000E949E1380917504882331F06AE070E021
:102C700080E090E00E949E1380917A0490917B0402
:102C80000E94BC12809176048C3008F48CE0809312
:102C900076048C3021F190927604A12CB12C809195
:102CA000790490E0A816B906D4F46A2DCE014996AD
:102CB0000E94A10A70907604CE0149960E94DF0D11
:102CC000871518F48091760404C0CE0149960E94BD
:102CD000DF0D80937604FFEFAF1ABF0AE0CFE394D5
:102CE000085F1F4F5ACFE11003C01092040209C0C1
:102CF00081E08093040226E02E1518F486E080938C
:102D000003021092E8021092E7021092A6031092BA
:102D1000C8030E94760A8091000111E01093A50378
:102D20008093C7031092A6031092C8030E94780CE8
:102D30008823C9F0809102011093A5038093C703F3
:102D40001092A6031092C8030E94780C882371F099
:102D50006EE471E088ED93E00E943D100E94690BE3
:102D600080E090E01CC000E011E002C002E011E051
:102D70006CE571E088ED93E00E943D10D8014D9123
:102D80005C91052E000C660B770B20E188ED93E03B
:102D90000E9452100E94690BF801808191818093FA
:102DA0008301909384011C8E1B8E42E451E05A8F64
:102DB000498F8D8F20E12AA392E09BA31CA21C8245
:102DC0001B825A8349838D832A879B871C86109296
:102DD000E8021092E7021092A6031092C8030E9424
:102DE000760A1E828B85823010F098E09E83898758
:102DF00062E370E080E090E00E949E136C85CE015B
:102E000001960E94EC0868EE73E080E090E00E947A
:102E10009E1360E3CE0101960E94FF080BE416E4C6
:102E2000C8010197F1F760E3CE0101960E94FF0807
:102E3000C8010197F1F760E3CE0101960E94FF08F7
:102E400083E592E00197F1F760E2CE0101960E94DE
:102E5000FF086E81606240E0CE0101960E94180971
:102E600084E08F8340E06CE0CE0101960E94180957
:102E7000CE0101960E943F0982E0888740E066E02B
:102E8000CE0101960E94180940E062E0CE01019651
:102E90000E9418098BE39FE10197F1F788E08C8786
:102EA00060E0CE0101960E94EC086CEC70E0CE016F
:102EB00001960E94191022E041EE5AE764E370E4A3
:102EC000CE0101960E949B10CE0101960E94D50C66
:102ED0006EEB70E0CE0101960E94191060ED77E074
:102EE00080E090E00E949E1381E00E9487131816F4
:102EF00019064CF481E080931F02809105028F5FD8
:102F00008093050202C010921F0282E00E94871384
:102F1000181619064CF481E0809306028091050290
:102F20008F5F8093050202C01092060260E089E084
:102F30000E941B1361E08EE00E944B1361E08EE063
:102F40000E944B1361E08EE00E941B1361E08EE053
:102F50000E944B1360E08EE00E941B1360E08EE045
:102F60000E944B1364EF71E080E090E00E949E139A
:102F700004EF16E0812C912C540180E00E9487130D
:102F8000DC01B2509D010E94D41F860E971EA81E20
:102F9000B91E0150110989F7C501B4010E942B2106
:102FA00020E030E84EED54E40E9483200E94552238
:102FB00022E538EB4EE55FE30E94E22160937F015A
:102FC00070938001809381019093820120E030E032
:102FD00044EB52E40E94DD21181624F481E0809332
:102FE000200202C010922002809183011C821B8269
:102FF00022E431E03A8329838D8380E18A8782E06D
:103000008B871C86CE0101960E943F0988E08C8741
:1030100060E0CE0101960E94EC0864E972E088ED60
:1030200093E00E9419106DEC7CEC85EB92E40E9419
:10303000040D69E872E088ED93E00E9419106DECD0
:103040007CEC85EB92E40E94040D6FE772E088ED62
:1030500093E00E94191040917F015091800160918E
:1030600081017091820122E088ED93E00E949B1023
:103070008DE792E00E946F0B80912002882309F473
:1030800045C06CE672E0CE0101960E94191081E401
:1030900092E00E946F0B8091E202882331F065E399
:1030A00072E088ED93E00E9419106EE272E088ED04
:1030B00093E00E9419106091DE027091DF0280910E
:1030C000E0029091E1020E94040D67E272E088ED57
:1030D00093E00E9419104091DD0250E060E070E042
:1030E0002AE088ED93E00E94521085E292E00E946F
:1030F0006F0B67E172E088ED93E00E9419106AE9B6
:1031000079E989ED9FE30E94040D26C067E072E033
:10311000CE0101960E94191089ED91E00E946F0B7B
:103120008091E202882321F080ED91E00E946F0BF4
:1031300060EC71E088ED93E00E9419104091DD028F
:1031400050E060E070E02AE088ED93E00E945210C9
:103150008EEB91E00E946F0BCE0101960E94D50C80
:1031600064EB71E0CE0101960E9419108091050276
:10317000811107C085EA91E00E946F0B6DE971E053
:1031800018C080911F02882351F081E991E00E94CC
:103190006F0B6CE871E0CE0101960E9419108091CE
:1031A0000602882351F080E891E00E946F0B6CE7E3
:1031B00071E0CE0101960E94191060ED77E080E089
:1031C00090E00E949E1380910402882379F164E7C5
:1031D00071E088ED93E00E9419104091030250E0E5
:1031E00060E070E02AE088ED93E00E9452108BE6E8
:1031F00091E00E946F0BCE0101960E943F0960E6AC
:1032000071E0CE0101960E9419104091030250E036
:1032100060E070E02AE0CE0101960E945210CE01DB
:1032200001960E94D50C63E571E01EC080E491E038
:103230000E946F0BCE0101960E943F0965E371E089
:10324000CE0101960E9419104091030250E060E007
:1032500070E02AE0CE0101960E945210CE01019644
:103260000E94D50C68E271E0CE0101960E9419100F
:1032700060ED77E080E090E00E949E13CE01019621
:103280000E943F096BE171E0CE0101960E94191086
:10329000CE0101960E94D50C60E171E0CE0101964D
:1032A0000E94191081E091E00E946F0B6BEF70E0BB
:1032B00088ED93E00E9419104091050150E060E014
:1032C00070E02AE088ED93E00E94521064EF70E015
:1032D00088ED93E00E94191080910601813031F44D
:1032E0006DEE70E088ED93E00E9419108091060168
:1032F000823031F466EE70E088ED93E00E941910A0
:1033000080910601833031F46FED70E088ED93E039
:103310000E94191065ED70E088ED93E00E9419108D
:103320008090070190900801092C000CAA08BB08A6
:10333000B7FE0EC06DE288ED93E00E9412104427A4
:103340005527BA01481959096A097B092AE003C0BF
:103350002AE0B501A40188ED93E00E9452100E947A
:10336000690B8BEB92E00E94211264E170E080E037
:1033700090E00E949E138BE99FE090930C01809354
:103380000B0180916900837F886080936900E99ACE
:1033900010921B0210921C0210921D0210921E022B
:1033A00081E090E090939802809397024DEC5CEC62
:1033B00065EB72E440939D0250939E0260939F02DE
:1033C0007093A00280E090E0A0E0B4E48093B902A2
:1033D0009093BA02A093BB02B093BC0222E030E00B
:1033E00030933C0220933B024093410250934202AF
:1033F000609343027093440280935D0290935E0257
:10340000A0935F02B093600220912002222309F46E
:1034100044C00091DE021091DF022091E002309161
:10342000E102109296021092950200939902109375
:103430009A0220939B0230939C024AE959E969ED74
:103440007FE34093A1025093A2026093A302709382
:10345000A4028093B5029093B602A093B702B093F2
:10346000B80210923A021092390200933D02109372
:103470003E0220933F023093400240934502509316
:1034800046026093470270934802809359029093DA
:103490005A02A0935B02B0935C02BAE98B2EB9E9A1
:1034A0009B2EB9EDAB2EBFE3BB2E412C512C612CD2
:1034B00014E4712E9E012F5F3F4F190138E1320D48
:1034C0003AA70E94D8136093E3027093E4028093BA
:1034D000E5029093E6028091E202882371F080E099
:1034E00090E0A2E0B3E48093DE029093DF02A09329
:1034F000E002B093E1028EE60DC026E636E640E833
:1035000053E42093DE023093DF024093E0025093B5
:10351000E10286EE8093DD028091DE029091DF026F
:10352000A091E002B091E1021092960210929502F1
:103530008093990290939A02A0939B02B0939C026D
:103540008092A1029092A202A092A302B092A40241
:103550004092B5025092B6026092B7027092B802E1
:1035600010923A021092390280933D0290933E02EB
:10357000A0933F02B093400280924502909246028F
:10358000A0924702B09248024092590250925A02C9
:1035900060925B0270925C02E3E6F6E08491E1E304
:1035A000F6E01491EDE1F6E00491002371F0811151
:1035B0000E94F212E02FF0E0EE0FFF1FE55FF94FDF
:1035C000A591B4918C91182311F461E001C060E0E1
:1035D00085E00E941B1388ED93E00E94EF0E892B7B
:1035E00009F428C188ED93E00E94CD0E90ED980F6C
:1035F0009A30B0F440918601509187019AE0949FEF
:103600009001959F300D112420533109A901480FD5
:10361000511D87FD5A95509387014093860108C13B
:103620008C3281F4E0918501E63408F0FDC081E040
:103630008E0F80938501F0E0E657FE4F8091860162
:103640008083F2C081320CF4EDC0482F082E000CAC
:10365000550B660B770BFA01E156F109E631F105DE
:1036600008F07BC0EC5CFF4F0C94CE1F809186016C
:1036700090918701009739F08093050140910701EF
:10368000609106011EC080918601843031F088303F
:1036900031F0893031F060E005C061E003C062E0E4
:1036A00001C063E0862F90E09093870180938601AC
:1036B000662309F456C0609306014091070180918A
:1036C00005010E94B20B4DC0409186018091870197
:1036D000409307018093080160910601F0CF80912B
:1036E0008601909187010097E1F18130910519F4ED
:1036F0001092E20236C00297A1F581E08093E202C7
:1037000030C081E02091860130918701232B09F49C
:1037100080E08093040125C064EC74E088ED93E0C0
:103720000E94191022E04AE959E961EE71E488ED3E
:1037300093E00E949B1062EC74E088ED93E00E949D
:1037400019100FC08093D201809185018093D1011F
:10375000809186018093D00104C08BEB92E00E949F
:10376000211269EB72E088ED93E00E9419106091DC
:1037700005016F71605C88ED93E00E94121066EBAA
:1037800072E088ED93E00E941910809105018F711D
:1037900090E00E947E0B63EB72E088ED93E00E9464
:1037A000191080910701909108010E947E0B6FEA29
:1037B00072E088ED93E00E9419108091060181303B
:1037C00039F0823041F0833049F080E090E008C069
:1037D00081EB91E005C084E693E002C083E993E0C9
:1037E0000E947E0B6AEA72E088ED93E00E94191055
:1037F00067EA72E088ED93E00E941910809104015D
:1038000090E00E947E0B61EA72E088ED93E00E94F6
:1038100019108091E20290E00E947E0B8FE992E005
:103820000E946F0B10928501109287011092860101
:103830000E943B120E94150D90938901809388018C
:103840008091880190918901019649F180918801C8
:1038500090918901892BA1F460ED74E088ED93E0EB
:103860000E9419108091380390E00E94D611809137
:10387000370385FF17C08091370387FF83C212C0CB
:103880008091040181118EC26DEC74E088ED93E0AB
:103890000E94191084E190E00E94D61183C28FA18A
:1038A000882321F00E943B129EA19FA38091D20108
:1038B0008823C1F10E94E4078823A1F161E089E037
:1038C0000E941B1368EC70E080E090E00E949E1361
:1038D00060E089E00E941B1387ED94E00E942112B2
:1038E0004091D10150E060E070E02AE088ED93E083
:1038F0000E94521083ED94E00E9421128091D20127
:10390000813609F451C280E09091D001992311F0E1
:103910009064892B4091D1016AE871E00E94780897
:103920001092D201C090E302D090E402E090E50250
:10393000F090E602A1E6CA16AAEEDA06AFEFEA06B2
:10394000FA0640F04091070160910601809105015F
:103950000E94B20B8091210290912202A091230239
:10396000B0912402A7019601281B390B4A0B5B0B6F
:10397000DA01C90189389341A105B10508F4FFC1F5
:1039800061E089E00E941B1362E370E080E090E058
:103990000E949E1360E089E00E941B131091200298
:1039A00080911F02112351F1882309F444C081E85A
:1039B00092E00E94440460918102709182028091A1
:1039C0008302909184020E94F52070930802609314
:1039D000070220E030E048EC52E460918D027091E3
:1039E0008E0280918F02909190020E94E2210E94AB
:1039F000F52070930E0260930D021DC0882309F418
:103A000045C081E892E00E9400076B017C01609153
:103A1000DD0270E080E090E00E942D219B01AC016E
:103A2000C701B6010E94E2210E94F52070930802AE
:103A3000609307022BC080910602882339F185E24A
:103A400092E00E94440460912502709126028091C8
:103A50002702909128020E94F52070930A02609339
:103A6000090220E030E048EC52E4609131027091AC
:103A7000320280913302909134020E94E2210E942E
:103A8000F52070930E0260930D021DC08091060216
:103A90008823C9F085E292E00E9400076B017C0157
:103AA0006091DD0270E080E090E00E942D219B019A
:103AB000AC01C701B6010E94E2210E94F52070937B
:103AC0000A02609309022091070230910802809156
:103AD000090290910A02820F931F90930C02809327
:103AE0000B028091050211110DC0882329F18091EC
:103AF000DD0244E6849FC001112490930E0280935E
:103B00000D021AC0811118C081E892E00E9444049D
:103B100020E030E048EC52E460918D0270918E021A
:103B200080918F02909190020E94E2210E94F520E4
:103B300070930E0260930D0280910402882309F4B1
:103B4000B5C080917A0490917B040E94BC1240E041
:103B50006CEC80917A0490917B040E94D60A40918B
:103B6000750464E480917A0490917B040E94D60AE3
:103B7000809177048823A9F0E0917604E950E3303E
:103B800040F4F0E0EE0FFF1FE35FFE4F60817181B4
:103B900002C06EEE72E0072E000C880B990B0E949B
:103BA0009E131DA2809103029DA1981708F07EC06C
:103BB0005DA1052F10E0980163E0220F331F6A9585
:103BC000E1F7C9018D529E4F7C01B1010E947C0D2D
:103BD000882359F1698198E0699FB0011124EA8135
:103BE000F0E0FE2FEE27FF0FFF0FFF0FE62BF72B66
:103BF000D7018C918031E1F4688570E08F819B0161
:103C0000281B3109C9019695982F88279795879584
:103C10000E94791F60517109E07F43E0EE0FFF1FA2
:103C20004A95E1F76E0F7F1F04C060E874EE01C093
:103C3000BF01613834EE730764F1072E000C880B66
:103C4000990B0E942D2120E030E040E05CE30E94CF
:103C5000E2216B017C0120E030E04AEF52E40E9457
:103C60007E2087FF16C020E030E04CE552ECC70113
:103C7000B6010E94DD21181664F420E030E040E235
:103C800051E4C701B6010E94E2210E94F52079A704
:103C900068A7000F111FF801E15FFD4F48A559A566
:103CA000518340835DA15F5F5DA37CCF80917E01E6
:103CB0008823D1F0F89420917E0180911B0290918D
:103CC0001C02A0911D02B0911E02820F911DA11D28
:103CD000B11D80931B0290931C02A0931D02B09310
:103CE0001E0210927E01789488E1E7E0F2E0D101B3
:103CF00001900D928A95E1F764EE74E088ED93E00F
:103D00000E9419104091050150E060E070E02AE047
:103D100088ED93E00E945210810162EE74E088ED1C
:103D200093E00E941910D8014D918D0150E060E0A0
:103D300070E02AE088ED93E00E945210BAA5B0131B
:103D4000ECCF6CED74E088ED93E00E9419100E94B6
:103D5000690B6AE070E080E090E00E949E13809121
:103D6000E3029091E402A091E502B091E602809313
:103D7000210290932202A0932302B09324020E9476
:103D80008F0F9FCB8091370386FD0AC08091370348
:103D90008F71806C40E060E070E00E94780882CD16
:103DA00080E8F8CF1FA282CD80E2AECD1092CF0383
:103DB0001092CE0388EE93E0A0E0B0E08093D003B1
:103DC0009093D103A093D203B093D30322E231E0C6
:103DD0003093CD032093CC031092DB031092DA03CF
:103DE0008093DC039093DD03A093DE03B093DF03A5
:103DF00082E391E09093D9038093D80385EC90E01F
:103E00009093E5038093E40384EC90E09093E703C0
:103E10008093E60380EC90E09093E9038093E803BD
:103E200081EC90E09093EB038093EA0382EC90E0C6
:103E30009093ED038093EC0386EC90E09093EF0376
:103E40008093EE031092F1031092F2031092F303A9
:103E50001092F40310929E0410929D0482E491E06B
:103E600090939C0480939B0410929F041092A4044E
:103E70001092A5041092A60460E084E00E944B1307
:103E8000EDE2F6E0E491E0938D04E9E1F6E0E491FF
:103E9000F0E0EE0FFF1FE55FF94F8591949190934D
:103EA0008F0480938E041092980410929A041092BA
:103EB0009904E8E9F4E0129284E0E039F807D9F7D0
:103EC0008AE194E090938704809386048DE894E0DF
:103ED00090937B0480937A04109279041092750475
:103EE00089E08093760481E080937704809378045E
:103EF000089597FB072E16F4009407D077FD09D09C
:103F00000E94FD1F07FC05D03EF4909581959F4FC0
:103F10000895709561957F4F0895A1E21A2EAA1B0E
:103F2000BB1BFD010DC0AA1FBB1FEE1FFF1FA21769
:103F3000B307E407F50720F0A21BB30BE40BF50B66
:103F4000661F771F881F991F1A9469F760957095EF
:103F5000809590959B01AC01BD01CF010895052E80
:103F600097FB1EF400940E94C61F57FD07D00E94C5
:103F70008D1F07FC03D04EF40C94C61F509540953E
:103F8000309521953F4F4F4F5F4F08959095809505
:103F9000709561957F4F8F4F9F4F0895EE0FFF1FD4
:103FA0000590F491E02D09940E94DC1F332312F454
:103FB0008A1B9B0B0C94ED1FA29FB001B39FC00105
:103FC000A39F700D811D1124911DB29F700D811D45
:103FD0001124911D08950E94DC1FB7FF0895821BD4
:103FE000930B08950E94DC1FA59F900DB49F900D28
:103FF000A49F800D911D11240895AA1BBB1B51E1A4
:1040000007C0AA1FBB1FA617B70710F0A61BB70B48
:10401000881F991F5A95A9F780959095BC01CD01ED
:1040200008955058BB27AA270E9429200C94A32149
:104030000E94952138F00E949C2120F039F49F3F86
:1040400019F426F40C9492210EF4E095E7FB0C94FD
:104050008C21E92F0E94B42158F3BA176207730725
:104060008407950720F079F4A6F50C94D6210EF478
:10407000E0950B2EBA2FA02D0B01B90190010C0178
:10408000CA01A0011124FF27591B99F0593F50F490
:10409000503E68F11A16F040A22F232F342F4427E8
:1040A000585FF3CF469537952795A795F0405395E0
:1040B000C9F77EF41F16BA0B620B730B840BBAF0B0
:1040C0009150A1F0FF0FBB1F661F771F881FC2F71B
:1040D0000EC0BA0F621F731F841F48F4879577952F
:1040E0006795B795F7959E3F08F0B0CF9395880FE9
:1040F00008F09927EE0F9795879508950E946821FB
:1041000008F481E008950E9497200C94A3210E9456
:104110009C2158F00E94952140F029F45F3F29F03E
:104120000C948C2151110C94D7210C9492210E9453
:10413000B42168F39923B1F3552391F3951B550BE3
:10414000BB27AA2762177307840738F09F5F5F4F6A
:10415000220F331F441FAA1FA9F335D00E2E3AF0A9
:10416000E0E832D091505040E695001CCAF72BD0C1
:10417000FE2F29D0660F771F881FBB1F2617370712
:104180004807AB07B0E809F0BB0B802DBF01FF2744
:1041900093585F4F3AF09E3F510578F00C948C2174
:1041A0000C94D7215F3FE4F3983ED4F3869577953E
:1041B0006795B795F7959F5FC9F7880F911D9695FD
:1041C000879597F90895E1E0660F771F881FBB1F59
:1041D000621773078407BA0720F0621B730B840B06
:1041E000BA0BEE1F88F7E09508950E94FC206894B2
:1041F000B1110C94D72108950E94BC2188F09F57DB
:1042000098F0B92F9927B751B0F0E1F0660F771FFA
:10421000881F991F1AF0BA95C9F714C0B13091F0F0
:104220000E94D621B1E008950C94D621672F782FF3
:104230008827B85F39F0B93FCCF3869577956795B5
:10424000B395D9F73EF490958095709561957F4F21
:104250008F4F9F4F0895E89409C097FB3EF49095C7
:104260008095709561957F4F8F4F9F4F9923A9F04F
:10427000F92F96E9BB279395F695879577956795DE
:10428000B795F111F8CFFAF4BB0F11F460FF1BC022
:104290006F5F7F4F8F4F9F4F16C0882311F096E9B5
:1042A00011C0772321F09EE8872F762F05C0662363
:1042B00071F096E8862F70E060E02AF09A95660F1C
:1042C000771F881FDAF7880F9695879597F90895D5
:1042D000990F0008550FAA0BE0E8FEEF1616170617
:1042E000E807F907C0F012161306E407F50798F07F
:1042F000621B730B840B950B39F40A2661F0232B98
:10430000242B252B21F408950A2609F4A140A69513
:104310008FEF811D811D089597F99F6780E870E0F8
:1043200060E008959FEF80EC089500240A9416162B
:10433000170618060906089500240A941216130693
:10434000140605060895092E0394000C11F4882321
:1043500052F0BB0F40F4BF2B11F460FF04C06F5F3D
:104360007F4F8F4F9F4F089557FD9058440F551F13
:1043700059F05F3F71F04795880F97FB991F61F0E7
:104380009F3F79F087950895121613061406551F5E
:10439000F2CF4695F1DF08C0161617061806991FCA
:1043A000F1CF86957105610508940895E894BB27BF
:1043B00066277727CB0197F908950E94682108F4B2
:1043C0008FEF08950E94F5210C94A3210E9495215E
:1043D00038F00E949C2120F0952311F00C948C2140
:1043E0000C94922111240C94D7210E94B42170F3D3
:1043F000959FC1F3950F50E0551F629FF001729F8A
:10440000BB27F00DB11D639FAA27F00DB11DAA1F98
:10441000649F6627B00DA11D661F829F2227B00DE5
:10442000A11D621F739FB00DA11D621F839FA00D70
:10443000611D221F749F3327A00D611D231F849FC0
:10444000600D211D822F762F6A2F11249F57504017
:104450009AF0F1F088234AF0EE0FFF1FBB1F661F92
:10446000771F881F91505040A9F79E3F510580F05B
:104470000C948C210C94D7215F3FE4F3983ED4F345
:10448000869577956795B795F795E7959F5FC1F7FF
:10449000FE2B880F911D9695879597F9089519F42D
:1044A00016F40C9492210C949A220E94BC21B8F329
:1044B0009923C9F3B6F39F57550B87FF0E94A82293
:1044C0000024A0E640EA900180585695979528F47C
:1044D000805C660F771F881F20F026173707480774
:1044E00030F4621B730B840B202931294A2BA695CB
:1044F00017940794202531254A2758F7660F771F10
:10450000881F20F026173707480730F4620B730B1B
:10451000840B200D311D411DA09581F7B901842F19
:104520009158880F9695879508950E946821880B69
:10453000990B08959F3F31F0915020F4879577951E
:104540006795B795880F911D9695879597F908956A
:1045500091505040660F771F881FD2F7089581E071
:0C45600090E0F8940C94B422F894FFCF83
:10456C0027003F00010501D200A10EA10E5E00BC88
:10457C0000770100004000140054002B565A000034
:10458C000000EB03BB03B303A403960395030000E5
:10459C000000260FA20EEF0ECD0EE10E6D0F0000E7
:1045AC0000003909A20E00000000990FA20E4C4326
:1045BC0044206E6F7420666F756E64004C4344200B
:1045CC00666F756E6420693263203078000D0A00C6
:0E45DC006E616E00696E66006F7666002E00DE
:00000001FF
