:100000000C94CC010C945E0E0C948B0E0C94F401A9
:100010000C94F4010C94F4010C946D090C94F4010B
:100020000C94F4010C94F4010C94F4010C94F4017C
:100030000C94F4010C94F4010C94F4010C94F4016C
:100040000C94C70E0C94F4010C9492090C94E009E2
:100050000C94F4010C94F4010C94F4010C94F4014C
:100060000C94B6200C94F40120620A00202D3E204E
:10007000000A417661696C61626C6520636F6D6D29
:10008000616E64733A0A20203C6E6E3E2069202027
:100090002020202D20736574206E6F6465204944F4
:1000A00020287374616E64617264206E6F646520D1
:1000B0006964732061726520312E2E3330290A2045
:1000C000203C6E3E20622020202020202D207365C1
:1000D00074204D487A2062616E64202834203D20CF
:1000E0003433332C2038203D203836382C2039202A
:1000F0003D20393135290A20203C6E6E6E3E206746
:10010000202020202D20736574206E6574776F7217
:100110006B2067726F7570202852464D3132206F08
:100120006E6C7920616C6C6F7773203231322C20C9
:1001300030203D20616E79290A20203C6E3E2063EC
:100140002020202020202D2073657420636F6C6C8C
:10015000656374206D6F64652028616476616E63E9
:1001600065642C206E6F726D616C6C792030290A89
:1001700020202E2E2E2C3C6E6E3E2061202D2073D2
:10018000656E642064617461207061636B657420C6
:10019000746F206E6F6465203C6E6E3E2C2072651D
:1001A00071756573742061636B0A20202E2E2E2CCE
:1001B0003C6E6E3E2073202D2073656E642064615A
:1001C0007461207061636B657420746F206E6F645E
:1001D00065203C6E6E3E2C206E6F2061636B0A20A2
:1001E000202E2E2E2C3C6E3E207620202D20536576
:1001F00074204143204164617074657220566361CC
:100200006C203176203D20554B2C203276203D202D
:100210005553410A0000000000240027002A000076
:10022000000000250028002B00000000002300260D
:10023000002900040404040404040402020202026B
:10024000020303030303030102040810204080019A
:10025000020408102001020408102000000007001A
:10026000020100000304060000000000000000017D
:100270000402000302048A050506C30B2019421E6E
:100280002C25802E882F2D370038003C8F3D106F95
:100290002000005EBCE2613FDD83C29C7E20A3FDA6
:1002A0001F419DC3217FFCA2401E5F01E3BD3E6054
:1002B00082DC237D9FC1421CFEA0E1BF5D0380DE86
:1002C0003C62BEE0025CDF81633D7C22C09E1D4338
:1002D000A1FF4618FAA427799BC584DA3866E5BBE6
:1002E0005907DB856739BAE406581947A5FB782614
:1002F000C49A653BD987045AB8E6A7F91B45C69846
:100300007A24F8A6441A99C7257B3A6486D85B05F7
:10031000E7B98CD2306EEDB3510F4E10F2AC2F71A5
:1003200093CD114FADF3702ECC92D38D6F31B2ECD3
:100330000E50AFF1134DCE90722C6D33D18F0C5205
:10034000B0EE326C8ED0530DEFB1F0AE4C1291CFB7
:100350002D73CA947628ABF517490856B4EA693765
:10036000D58B5709EBB536688AD495CB2977F4AA93
:100370004816E9B7550B88D6346A2B7597C94A14C5
:10038000F6A8742AC896154BA9F7B6E80A54D78977
:100390006B350A024C0BAC1F11241FBECFEFD8E007
:1003A000DEBFCDBF13E0A0E0B1E0EAE9FAE402C0AD
:1003B00005900D92AE34B107D9F716E0AEE4B3E084
:1003C00001C01D92A83AB107E1F713E0C8E9D3E0F4
:1003D00004C02297FE010E944725C239D107C9F700
:1003E0000E94B80E0C944B250C9400008091690477
:1003F00090916A04A0916B04B0916C040196A11DC8
:10040000B11D8093690490936A04A0936B04B09328
:100410006C0408950F931F9386E094E067E240E137
:1004200022E00E943C1E03E114E0C80164E00E9447
:10043000971A81E294E0B8010E94CD1A1F910F91A2
:100440000895EF92FF920F931F93682F70E083E05F
:10045000660F771F8A95E1F76C5C7B4F81E294E031
:100460000E94151D7B018C0120E030E04AEF52E430
:100470000E94CA228823B4F4C801B70120E030E00A
:100480004CE552EC0E941924181664F4C801B70117
:1004900020E030E040E251E40E941D240E94362317
:1004A000CB0100C01F910F91FF90EF9008951F9313
:1004B00081E294E00E94D31D81E294E00E94DC1A64
:1004C0008093640410E0809164041817A8F5612FEC
:1004D00070E023E0660F771F2A95E1F76C5C7B4F95
:1004E00083E194E00E94011A882331F11F5FEBCF72
:1004F000612F70E093E0660F771F9A95E1F76C5CCF
:100500007B4F81E294E04CE00E947F1D1F5F909141
:100510006404191768F3992319F41092860408C02B
:1005200081E080938604973018F086E0809364041D
:10053000809164041F91089510E0E9CF0F931F93F9
:1005400089E061E00E94DD0F89E061E00E941C10FB
:1005500088E062E00E94DD0F85E061E00E94DD0F2F
:1005600085E060E00E941C1083E060E00E94DD0FE7
:1005700000E615E0C80140E056E960E070E00E9446
:100580001B0AC80160E071E00E94180D40910F0342
:10059000509110036091110370911203C80122E081
:1005A00030E00E94FF0DC80169E071E00E94150E65
:1005B000C8016FE171E00E94150E1F910F9108951F
:1005C000CF92DF92EF92FF920F931F93CF93DF931F
:1005D0006B01EE24FF248701C0E0D0E013C080E06F
:1005E0000E94BB0F9C0120503240442737FD4095AC
:1005F000542FCA01B9010E94E924E60EF71E081F14
:10060000191F2196CC15DD0554F3C801B7010E94CE
:1006100067237B018C01B601882777FD8095982F91
:100620000E9469239B01AC01C801B7010E94CE2240
:100630000E948424DF91CF911F910F91FF90EF9042
:10064000DF90CF90089581E00E94BB0F1816190625
:100650004CF481E080938304809187048F5F8093C2
:10066000870402C01092830482E00E94BB0F181618
:1006700019064CF481E080938404809187048F5F95
:100680008093870402C01092840480918704882399
:1006900019F481E08093830468E873E180E090E0DE
:1006A0000E941D0F89E060E00E941C1080E090E035
:1006B00064EF76E00E94E00222E538EB4EE55FE36E
:1006C0000E941D2460937B0470937C0480937D04BE
:1006D00090937E0420E030E044EB52E40E94192421
:1006E000181624F481E080938504089510928504FF
:1006F00008951F93CF93DF93EC01FE01219614918F
:10070000112369F01A3029F480E695E06DE00E942B
:10071000CC0B80E695E0612F0E94CC0BEECFDF91F1
:10072000CF911F910895EF92FF920F931F93DF9344
:10073000CF93CDB7DEB766970FB6F894DEBF0FBE86
:10074000CDBFDE011196E5E6F4E086E101900D9261
:100750008150E1F780E695E060E371E00E94180DBA
:1007600080E695E0609119034AE050E00E94940C05
:100770008E010F5F1F4F37E1E32EF12CEC0EFD1EB3
:1007800080E695E060E20E94CC0B80E695E0F801FF
:1007900061918F014AE050E00E94940C0E151F05F4
:1007A00079F780E695E064E371E00E94180D80E639
:1007B00095E00E94D40B6AE070E080E090E00E9437
:1007C0001D0F66960FB6F894DEBF0FBECDBFCF915A
:1007D000DF911F910F91FF90EF90089586E094E0D4
:1007E0000E94F81E80E695E06AE371E00E94180D11
:1007F00080E695E04DEC5CEC65EB72E422E030E0E5
:100800000E94020E80E695E065E471E00E94180DFA
:1008100080E695E04DEC5CEC65EB72E422E030E0C4
:100820000E94020E80E695E060E571E00E94180DDE
:1008300040917B0450917C0460917D0470917E0412
:1008400080E695E020E030E00E94FF0D80E695E034
:100850006AE571E00E94150E809185048823D9F124
:1008600086E094E06CE571E00E94180D80E695E06A
:100870006DE671E00E94150E80911204813031F412
:1008800080E695E068E971E00E94150E80E695E04B
:1008900061EA71E00E94180D40917F04509180043C
:1008A000609181047091820480E695E022E030E05E
:1008B0000E94020E80E695E068EA71E00E94180D41
:1008C00080E695E04AE959E969ED7FE322E030E00E
:1008D0000E94020E1FC086E094E066EB71E00E9469
:1008E000180D80E695E066EC71E00E94150E80E63A
:1008F00095E064EF71E00E94180D80E695E066EEE9
:100900004AE050E00E94940C80E695E06AE571E0D0
:100910000E94150E86E094E060E041E00E94C11E56
:1009200086E094E063E072E00E94180D80918704F5
:10093000882359F480E695E06DE072E00E94150E80
:1009400086E094E06CE172E01EC08091830488230D
:1009500061F080E695E064E272E00E94150E86E0A8
:1009600094E060E372E00E94180D80918404882373
:1009700061F080E695E065E372E00E94150E86E086
:1009800094E061E472E00E94180D6CED75E080E087
:1009900090E00E941D0F80918604813099F480E6DA
:1009A00095E065E472E00E94180D80E695E06091A4
:1009B00064044AE050E00E94940C80E695E06DE407
:1009C00072E004C080E695E06EE672E00E94150ECB
:1009D00086E094E00E94F81E86E094E066E572E00E
:1009E0000E94180D86E094E0609164044AE050E0B3
:1009F0000E94940C86E094E060E041E00E94C11EF9
:100A000086E094E061E672E00E94180D8091170381
:100A1000813009F048C080E695E061E872E00E940C
:100A2000150E80E695E060E972E00E94180D80E600
:100A300095E0609119034AE050E00E94940C80E632
:100A400095E066E972E00E94180D809118038130EC
:100A500031F480E695E06DE972E00E94180D809116
:100A60001803823031F480E695E064EA72E00E9477
:100A7000180D80911803833031F480E695E06BEA1D
:100A800072E00E94180D80E695E062EB72E00E9431
:100A9000180D60911A0370911B0380E695E04AE0FF
:100AA00050E00E94F90C64E170E080E090E00E9468
:100AB0001D0F08950F931F9306E014E0C8010E94D4
:100AC0006F1FC8010E94001FC80160E071E00E9412
:100AD000180D40910F035091100360911103709114
:100AE0001203C80122E030E00E94FF0DC80160E05F
:100AF00041E00E94C11EC8016CEB72E00E94180D1B
:100B0000C80160E041E00E94C11EC8016AEC72E0C9
:100B10000E94180D1F910F91089580918C048823D5
:100B2000C1F10E94F9138823A1F189E061E00E94DC
:100B30001C1068EC70E080E090E00E941D0F89E0DE
:100B400060E00E941C108CE690E00E9479036091A6
:100B50008D0480E695E070E04AE050E00E94830C4E
:100B600088E690E00E94790380918C04813611F030
:100B700080E001C080E290918E04992311F090648E
:100B8000892B6FE874E040918D040E94F613109257
:100B90008C0408951F93CF93DF930E94FC13882346
:100BA00009F478C01091A10580919D0590919E0552
:100BB000892B09F070C080E695E06BED72E00E9431
:100BC000180D80E695E06EED72E00E94180D6091C0
:100BD000A00570E06F71707080E695E04AE050E02B
:100BE0000E94E60C80E695E06EED72E00E94180D22
:100BF000C0E0D0E011C0FE01EE55FA4F608180E602
:100C000095E070E04AE050E00E94830C80E695E0B9
:100C100060E20E94CC0B2196C11768F380E695E054
:100C200060EE72E00E94180D6091980570E0759575
:100C30006795709561957F4F80E695E04AE050E0BA
:100C40000E94E60C80E695E062EE72E00E94180DCC
:100C500080E695E00E94D40B8091A00585FF1DC021
:100C60008091A00587FD19C080E695E064EE72E0F2
:100C70000E94180D8091A00586FF02C080E804C084
:100C80008091A0058F71806C60E070E040E00E9470
:100C9000F61303C003C080E001C081E0DF91CF9173
:100CA0001F910895CF93DF936AE070E080E090E0B9
:100CB0000E941D0F809119036091180340911A033F
:100CC00020E436E00E942714CAE0D0E0D093660406
:100CD000C093650480E065E674E046E10E940F146D
:100CE00064E670E080E090E00E941D0F21978FEF96
:100CF000CF3FD80759F782E00E94D71310926604BD
:100D000010926504DF91CF9108951F938091120492
:100D1000813029F480E090E0A2E0B3E408C0809143
:100D2000130390911403A0911503B09116038093BF
:100D30007F0490938004A0938104B093820488E0A0
:100D40000E947010892B19F485E061E002C085E0F3
:100D500060E00E941C1080E695E00E94A20A892BA8
:100D600009F42EC180E695E00E94D30A482F8053F3
:100D70008A30D8F48091D5049091D6049C0173E018
:100D8000220F331F7A95E1F7880F991F280F391F1B
:100D900020533040842F992787FD9095280F391FC5
:100DA0003093D6042093D5040BC14C3281F490913A
:100DB000D704963408F000C1E92FF0E0E157FB4F6B
:100DC0008091D50480839F5F9093D704F5C0413212
:100DD0000CF4F0C0473609F448C048363CF44136BC
:100DE00009F46DC0423609F075C01BC0433709F4E1
:100DF00066C0463709F451C0493609F06BC02091EE
:100E0000D5043091D6042115310559F020931903EA
:100E100080911703813009F061C0822F609118031F
:100E200021C08091D504843011F461E009C088307C
:100E300011F462E005C0893011F060E001C063E0A8
:100E4000862F90E09093D6048093D504892B09F4E3
:100E500045C06093180380911703813009F03EC0AC
:100E60008091190340911A0313C04091D504509109
:100E7000D6044115510591F140931A0350931B0379
:100E800080911703813051F5809119036091180307
:100E900020E436E00E94271421C08091D50490916F
:100EA000D6040097D9F08130910519F410921204FC
:100EB00015C0029799F481E0809312040FC040930B
:100EC0008C048091D70480938D048091D504809305
:100ED0008E0404C081E790E00E947903809117039B
:100EE000813009F067C080E695E060E20E94CC0B9B
:100EF000609119036F71605C80E695E00E94CC0BF5
:100F000080E695E06CEE72E00E94180D6091190386
:100F100070E06F71707080E695E04AE050E00E94EA
:100F2000E60C80E695E06FEE72E00E94180D60918D
:100F30001A0370911B0380E695E04AE050E00E949E
:100F4000E60C80E695E062EF72E00E94180D809159
:100F50001803813019F461EB71E00CC0823019F490
:100F600064E673E007C0833019F060E070E002C00F
:100F700063E973E080E695E04AE050E00E94E60C09
:100F800080E695E066EF72E00E94180D80E695E03D
:100F90006BEF72E00E94180D80E695E060911204FC
:100FA0004AE050E00E94940C80E695E06EED72E01D
:100FB0000E94150E1092D7041092D6041092D504F8
:100FC000809117038130A1F40E94CA05813071F429
:100FD00089E061E00E941C1068EC70E080E090E025
:100FE0000E941D0F89E060E00E941C100E948D0588
:100FF0000E940F0F209188043091890440918A0447
:1010000050918B04621B730B840B950B61517742DB
:101010008040904008F4C0C080918504882351F03E
:1010200068EC70E080E090E00E941D0F10926E046A
:1010300010926D0480918304882309F441C080914B
:101040008504882359F18EE493E064E170E040ED7B
:1010500057E00E94D01560914E0370914F0380912C
:101060005003909151030E9436237093660460935D
:10107000650460915A0370915B0380915C039091C9
:101080005D0320E030E048EC52E40E941D240E9401
:10109000362370936E0460936D0412C08EE493E067
:1010A00068EC75E00E94E81420E030E046E653E486
:1010B0000E941D240E943623709366046093650489
:1010C00080918404882309F441C080918504882399
:1010D00059F18AEA93E064E170E040ED57E00E9444
:1010E000D0156091AA037091AB038091AC039091ED
:1010F000AD030E9436237093680460936704609187
:10110000B6037091B7038091B8039091B90320E0C2
:1011100030E048EC52E40E941D240E943623709374
:101120006E0460936D0412C08AEA93E068EC75E087
:101130000E94E81420E030E046E653E40E941D24BB
:101140000E9436237093680460936704809186043C
:101150008130B1F481E294E00E94E41C10E00CC004
:10116000812F0E942102E12FF0E0EE0FFF1FE159D5
:10117000FB4F918380831F5F80916404181780F375
:101180000E9493030E940F0F609388047093890458
:1011900080938A0490938B041F910895EF92FF929D
:1011A0000F931F9364E670E080E090E00E941D0FB3
:1011B00081E066EF71E042E050E00E94280E10925C
:1011C000690410926A0410926B0410926C0480916E
:1011D0001204813029F480E090E0A2E0B3E408C07A
:1011E0008091130390911403A0911503B0911603FD
:1011F00080937F0490938004A0938104B093820431
:1012000080911703813011F40E9452060E94570208
:101210000E949E020E945A050E9423030E94EE0330
:1012200080918304882351F08EE493E061E070E0C4
:101230002DEC3CEC45EB52E40E94AC14809184040C
:10124000882351F08AEA93E062E070E02DEC3CECF8
:1012500045EB52E40E94AC14809185048823C1F1CF
:10126000809183048823C1F020917F043091800411
:1012700040918104509182048EE493E060E070E03C
:101280000F2EFAE9EF2EF9E9FF2EF9ED0F2FFFE30C
:101290001F2FF02D0E949014809184048823C1F0A8
:1012A00020917F0430918004409181045091820408
:1012B0008AEA93E060E070E00F2EFAE9EF2EF9E998
:1012C000FF2EF9ED0F2FFFE31F2FF02D0E9490143A
:1012D0001F910F91FF90EF9008951F920F920FB6FC
:1012E0000F9211242F933F934F935F936F937F93AC
:1012F0008F939F93AF93BF93EF93FF930E94C3107D
:10130000FF91EF91BF91AF919F918F917F916F91DD
:101310005F914F913F912F910F900FBE0F901F90B3
:10132000189508951F920F920FB60F9211242F93C4
:101330003F934F938F939F93EF93FF938091C000C0
:1013400082FD1DC04091C6002091180530911905FD
:101350002F5F3F4F2F73307080911A0590911B05BE
:101360002817390771F0E0911805F0911905E85236
:10137000FB4F4083309319052093180502C08091DC
:10138000C600FF91EF919F918F914F913F912F91C7
:101390000F900FBE0F901F901895E0916C05F09183
:1013A0006D05E05CFF4F8191919120813181821B1D
:1013B000930B8F739070892B11F00E9491090895FF
:1013C0001F920F920FB60F9211242F933F938F937A
:1013D0009F93EF93FF9320915C0530915D05809181
:1013E0005E0590915F052817390731F48091C1009F
:1013F0008F7D8093C10014C0E0915E05F0915F0580
:10140000E45EFA4F208180915E0590915F05019620
:101410008F73907090935F0580935E052093C60054
:10142000FF91EF919F918F913F912F910F900FBE60
:101430000F901F901895AF92BF92DF92EF92FF929C
:101440000F931F93CF93DF93EC017A018B01DD247F
:10145000403081EE580780E0680780E0780711F09F
:10146000DD24D39491E0A92EB12CEC89FD89DD20F7
:1014700069F0C50108A002C0880F991F0A94E2F71D
:10148000808360E079E08DE390E005C0108260E841
:1014900074E88EE190E0A80197010E940825215090
:1014A000304040405040569547953795279580E10C
:1014B0002030380720F0DD2011F0DD24D6CFE88978
:1014C000F9893083EA89FB89208319A2EE89FF8993
:1014D000408121E030E0C9010C8C02C0880F991FC7
:1014E0000A94E2F7482B4083EE89FF894081C901C5
:1014F0000D8C02C0880F991F0A94E2F7482B408395
:10150000EE89FF894081C9010E8C02C0880F991FA6
:101510000A94E2F7482B4083EE89FF8980810F8C83
:1015200002C0220F331F0A94E2F72095282320835C
:10153000DF91CF911F910F91FF90EF90DF90BF90BF
:10154000AF900895DC011C96ED91FC911D97E05C35
:10155000FF4F2191319180819181281B390B2F738D
:101560003070C9010895DC011C96ED91FC911D9726
:10157000E05CFF4F20813181E054F040DF01AE5B41
:10158000BF4F8D919C9111972817390719F42FEFB0
:101590003FEF07C08D919C91E80FF91F8081282FA4
:1015A00030E0C9010895DC011C96ED91FC911D9776
:1015B000E05CFF4F20813181E054F040DF01AE5B01
:1015C000BF4F8D919C9111972817390719F42FEF70
:1015D0003FEF10C08D919C911197E80FF91F20816A
:1015E0008D919C91119701968F73907011969C9399
:1015F0008E9330E0C9010895DC0191968C9191970A
:10160000882339F05496ED91FC915597808186FF9F
:10161000F9CF91961C920895CF93DF93EC01EE855C
:10162000FF85E05CFF4F20813181E054F0402F5F67
:101630003F4F2F733070DF01AE5BBF4F8D919C9198
:10164000119728173907D1F3E05CFF4F8081918112
:10165000E054F040E80FF91F6083EE85FF85E05C01
:10166000FF4F31832083EE89FF89208181E090E064
:101670000F8C02C0880F991F0A94E2F7282B208351
:1016800081E089A3EC89FD8980818064808381E089
:1016900090E0DF91CF91089510926305109262055A
:1016A00088EE93E0A0E0B0E0809364059093650538
:1016B000A0936605B093670581E293E0909361057E
:1016C0008093600588ED94E090936D0580936C05A0
:1016D0008CE195E090936F0580936E0585EC90E02A
:1016E000909371058093700584EC90E0909373055E
:1016F0008093720580EC90E090937505809374055B
:1017000081EC90E0909377058093760582EC90E0F1
:10171000909379058093780586EC90E090937B0513
:1017200080937A0584E080937C0583E080937D0537
:1017300087E080937E0585E080937F0581E080933C
:1017400080050895CF92DF92EF92FF920F931F933F
:10175000CF93DF937C016B018A01C0E0D0E00FC022
:10176000D6016D916D01D701ED91FC910190F08151
:10177000E02DC7010995C80FD91F01501040011570
:10178000110571F7CE01DF91CF911F910F91FF905D
:10179000EF90DF90CF900895DC01ED91FC910190E6
:1017A000F081E02D09950895EF92FF920F931F931A
:1017B0008C01DC01ED91FC910190F081E02D6DE058
:1017C00009957C01D801ED91FC910190F081E02D0B
:1017D000C8016AE009959C012E0D3F1DC9011F91AA
:1017E0000F91FF90EF900895CF93DF93EC01611577
:1017F000710519F420E030E00FC0DB010D900020EE
:10180000E9F71197A61BB70BE881F9810280F381F4
:10181000E02DAD0109959C01C901DF91CF9108959B
:101820004F925F927F928F929F92AF92BF92CF9290
:10183000DF92EF92FF920F931F93DF93CF93CDB779
:10184000DEB7A1970FB6F894DEBF0FBECDBF2C0157
:10185000742ECB01223008F42AE019A231E2C32E03
:10186000D12CCC0EDD1E822E9924AA24BB24672DF8
:10187000752FA50194010E94082579018A01C801EC
:10188000B701A50194010E94E924472D461B089445
:10189000C108D1084A3014F4405D01C0495CF6012A
:1018A0004083E114F1040105110521F07E2C5F2D28
:1018B000C801DDCFC201B6010E94F40BA1960FB69C
:1018C000F894DEBF0FBECDBFCF91DF911F910F9176
:1018D000FF90EF90DF90CF90BF90AF909F908F9050
:1018E0007F905F904F900895DC012115310541F400
:1018F000ED91FC910190F081E02D642F0995089500
:101900000E94100C0895EF92FF920F931F939A017B
:101910007B0100E010E0B801A7010E94740C1F9148
:101920000F91FF90EF900895EF92FF920F931F9306
:101930009A01E62EFF2400E010E0B801A7010E9402
:10194000740C1F910F91FF90EF900895CF92DF924A
:10195000EF92FF920F931F93CF93DF93EC016A01F5
:101960007B012115310541F4E881F9810190F08175
:10197000E02D642F09951FC02A303105D1F477FF7F
:1019800017C0E881F9810190F081E02D6DE20995A1
:101990008C0144275527BA014C195D096E097F094E
:1019A000CE012AE00E94100C9801280F391F04C0B4
:1019B0002AE00E94100C9C01C901DF91CF911F9178
:1019C0000F91FF90EF90DF90CF900895EF92FF92EC
:1019D0000F931F937B019A010027F7FC0095102FAE
:1019E000B801A7010E94A60C1F910F91FF90EF90E4
:1019F0000895CF92DF92EF92FF920F931F936C01A5
:101A00007B019A010027F7FC0095102FB801A70170
:101A10000E94A60C8C01C6010E94D40B080F191F4E
:101A2000C8011F910F91FF90EF90DF90CF90089524
:101A30000E94F40B08957F928F929F92AF92BF9273
:101A4000CF92DF92EF92FF920F931F93CF93DF938A
:101A50004C017A018B01722ECB01BA01A8019701CA
:101A60000E94CE24882321F0C40161E073E021C0EC
:101A7000C0E0D0E057016801E894D7F8C601B5018D
:101A80002FEF3FEF4FE75FE70E94CE24882351F40A
:101A9000C601B5012FEF3FEF4FE75FE70E94CA2273
:101AA000181614F0C1E0D0E0219739F0C40165E0C8
:101AB00073E00E94F40BEC0193C0C801B7012FEF53
:101AC0003FEF4FE75FE40E941924181654F0C80155
:101AD000B7012FEF3FEF4FE75FEC0E94CA22882348
:101AE00024F4C40169E073E0E4CFC801B70120E049
:101AF00030E040E050E00E94CA2287FD03C0C0E011
:101B0000D0E00EC0D401ED91FC910190F081E02D68
:101B1000C4016DE20995EC0117FB109517F91095BA
:101B200020E030E040E05FE3DD240BC0CA01B901F2
:101B300020E030E040E251E40E94CE229B01AC0163
:101B4000D394D71498F3C801B7010E9466225B01B1
:101B50006C010E943B237B018C01C401B801A701E9
:101B60002AE030E00E94740CC80FD91F772039F0AA
:101B7000C4016DE073E00E94F40BC80FD91FC801C7
:101B8000B7010E9467239B01AC01C601B5010E9409
:101B9000652224C020E030E040E251E40E941D2490
:101BA0007B018C010E9436235B016C01CC24B7FCC5
:101BB000C094DC2CC401B601A5012AE030E00E94EB
:101BC000A60CC80FD91FC601B5010E9469239B014D
:101BD000AC01C801B7010E9465227A947720D1F642
:101BE000CE01DF91CF911F910F91FF90EF90DF9089
:101BF000CF90BF90AF909F908F907F9008950E945C
:101C00001B0D0895EF92FF920F931F937C010E948A
:101C10001B0D8C01C7010E94D40B080F191FC801AE
:101C20001F910F91FF90EF900895EF92FF920F9305
:101C30001F937C010E94F40B8C01C7010E94D40BFE
:101C4000080F191FC8011F910F91FF90EF90089581
:101C5000823000F5E82FF0E0EE0FFF1FEE57FA4F4D
:101C600071836083882319F08130A1F408C08091CA
:101C700069008C7F842B80936900E89A0895809195
:101C80006900440F551F440F551F837F842B809399
:101C90006900E99A0895823080F4882319F0813030
:101CA00021F402C0E89801C0E998E82FF0E0EE0FB7
:101CB000FF1FEE57FA4F1182108208951F920F9264
:101CC0000FB60F9211242F933F934F935F936F930F
:101CD0007F938F939F93AF93BF93EF93FF938091E5
:101CE000820590918305892B29F0E0918205F0917E
:101CF00083050995FF91EF91BF91AF919F918F91CE
:101D00007F916F915F914F913F912F910F900FBEF7
:101D10000F901F9018951F920F920FB60F921124DB
:101D20002F933F934F935F936F937F938F939F93E3
:101D3000AF93BF93EF93FF938091840590918505B6
:101D4000892B29F0E0918405F09185050995FF9193
:101D5000EF91BF91AF919F918F917F916F915F9123
:101D60004F913F912F910F900FBE0F901F9018959C
:101D7000CF93DF930E94800F0E94CE08CDECD9E074
:101D80000E9485062097E1F30E94CD09F9CF1F92AA
:101D90000F920FB60F9211242F933F938F939F931F
:101DA000AF93BF9380918A0590918B05A0918C058C
:101DB000B0918D0530918E050196A11DB11D232F87
:101DC0002D5F2D3720F02D570196A11DB11D2093B9
:101DD0008E0580938A0590938B05A0938C05B09314
:101DE0008D058091860590918705A0918805B09119
:101DF00089050196A11DB11D8093860590938705E5
:101E0000A0938805B0938905BF91AF919F918F9161
:101E10003F912F910F900FBE0F901F9018958FB785
:101E2000F89420918A0530918B0540918C05509152
:101E30008D058FBFB901CA0108959B01AC017FB721
:101E4000F8948091860590918705A0918805B091BE
:101E5000890566B5A89B05C06F3F19F00196A11DC5
:101E6000B11D7FBFBA2FA92F982F8827860F911DEC
:101E7000A11DB11D62E0880F991FAA1FBB1F6A95A3
:101E8000D1F7BC012DC0FFB7F894809186059091E1
:101E90008705A0918805B0918905E6B5A89B05C086
:101EA000EF3F19F00196A11DB11DFFBFBA2FA92F59
:101EB000982F88278E0F911DA11DB11DE2E0880F7C
:101EC000991FAA1FBB1FEA95D1F7861B970B885E47
:101ED0009340C8F2215030404040504068517C4F00
:101EE000211531054105510571F60895019739F025
:101EF000880F991F880F991F02970197F1F708958E
:101F0000789484B5826084BD84B5816084BD85B5D4
:101F1000826085BD85B5816085BDEEE6F0E080819B
:101F200081608083E1E8F0E01082808182608083BC
:101F3000808181608083E0E8F0E08081816080833F
:101F4000E1EBF0E0808184608083E0EBF0E0808171
:101F500081608083EAE7F0E0808184608083808113
:101F600082608083808181608083808180688083BB
:101F70001092C1000895982F8E3008F09E509770EF
:101F800080911C038295880F880F807C892B809319
:101F90007C0080917A00806480937A0080917A003E
:101FA00086FDFCCF2091780040917900942F80E04D
:101FB00030E0282B392BC9010895CF93DF93482FA8
:101FC00050E0CA01895B9D4FFC0134914D5C5D4F2F
:101FD000FA018491882369F190E0880F991FFC0130
:101FE000EB5EFD4FA591B491FC01E15EFD4FC59103
:101FF000D491662351F42FB7F8948C91932F909538
:1020000089238C93888189230BC0623061F42FB7B8
:10201000F8948C91932F909589238C938881832BAE
:1020200088832FBF06C09FB7F8948C91832B8C9325
:102030009FBFDF91CF910895482F50E0CA01855A84
:102040009D4FFC012491CA01895B9D4FFC01949135
:102050004D5C5D4FFA013491332309F440C02223D3
:1020600051F1233071F0243028F42130A1F02230D6
:1020700011F514C02630B1F02730C1F02430D9F466
:1020800004C0809180008F7703C0809180008F7D95
:102090008093800010C084B58F7702C084B58F7D97
:1020A00084BD09C08091B0008F7703C08091B000DB
:1020B0008F7D8093B000E32FF0E0EE0FFF1FE15E15
:1020C000FD4FA591B4912FB7F894662321F48C911C
:1020D0009095892302C08C91892B8C932FBF0895F2
:1020E000682F70E0CB01855A9D4FFC012491CB01F4
:1020F000895B9D4FFC0144916D5C7D4FFB01949188
:10210000992319F420E030E03CC0222351F1233020
:1021100071F0243028F42130A1F0223011F514C0E0
:102120002630B1F02730C1F02430D9F404C08091BA
:1021300080008F7703C0809180008F7D8093800026
:1021400010C084B58F7702C084B58F7D84BD09C06F
:102150008091B0008F7703C08091B0008F7D809315
:10216000B000892F90E0880F991F875D9D4FFC017B
:10217000A591B4918C9120E030E0842311F021E00E
:1021800030E0C901089580918F058F5F80938F059E
:10219000089598E20EC0E8982A981EBC0DB407FE78
:1021A000FDCF8EB51EBC0DB407FEFDCF8EB52A9AAD
:1021B000E89AE8982A989EBD0DB407FEFDCF8EB52B
:1021C0001EBC0DB407FEFDCF8EB52A9AE89A807525
:1021D00011F70895282FE8982A9881E08EBD0DB454
:1021E00007FEFDCF8EB51EBC0DB407FEFDCF9EB51C
:1021F0002A9AE89AE8982A9881E88EBD0DB407FEDD
:10220000FDCF8EB5937E922B9EBD0DB407FEFDCF04
:102210008EB52A9AE89A089522E0660F771F881FE4
:10222000991F2A95D1F729E03DE340E050E00E9454
:10223000082586E0220F331F441F551F8A95D1F7CA
:102240002093900530939105409392055093930508
:10225000089580919B05853059F480919C058823D1
:1022600039F484E080939B050E94EA1081E0089590
:1022700080E0089580919B0590E084300CF491E01B
:10228000892F08952A9A229A2A9A84B18C6284B955
:1022900080E58CBD8DB581608DBD3FEA2AEA9FE265
:1022A000E8982A983EBD0DB407FEFDCF8EB52EBD31
:1022B0000DB407FEFDCF8EB52A9AE89AE8982A98C1
:1022C0009EBD0DB407FEFDCF8EB51EBC0DB407FE3E
:1022D000FDCF8EB52A9AE89A8A3A11F73FEA25E5AA
:1022E0009FE2E8982A983EBD0DB407FEFDCF8EB55B
:1022F0002EBD0DB407FEFDCF8EB52A9AE89AE89858
:102300002A989EBD0DB407FEFDCF8EB51EBC0DB440
:1023100007FEFDCF8EB52A9AE89A853511F7EFE6CC
:10232000F2E084918823A1F03196949131978068EE
:10233000E8982A988EBD0DB407FEFDCF8EB59EBDE0
:102340000DB407FEFDCF8EB52A9AE89A3296E9CFF2
:1023500090919405E8982A9880EB8EBD0DB407FE05
:10236000FDCF8EB59EBD0DB407FEFDCF8EB52A9A6A
:10237000E89A2091900530919105409192055091F5
:102380009305E8982A9887E88EBD0DB407FEFDCF27
:102390008EB5CA01AA27BB278EBD0DB407FEFDCF9F
:1023A0008EB52A9AE89AE8982A9888E88EBD0DB4E6
:1023B00007FEFDCF8EB5BB27A52F942F832F8EBD93
:1023C0000DB407FEFDCF8EB52A9AE89AE8982A98B0
:1023D00089E88EBD0DB407FEFDCF8EB52EBD0DB4C0
:1023E00007FEFDCF8EB52A9AE89A84E080939B057C
:1023F0000895AC0180919B05843021F0853009F06F
:1024000066C032C01092A1058091A10580939C0501
:10241000209194058FEF9FEF8227282F2295282760
:10242000022E269526952025022E269520252770FA
:10243000082E892F269507942795902D822706949C
:102440002795902582279093970580939605509322
:102450009A054093990585E080939B050E94C910D9
:1024600080E10E94EA1033C08091A10520919C0573
:1024700090E0049630E08217930724F080919C0549
:10248000883428F184E080939B050E94EA108091B3
:10249000A105833430F081E090E09093970580931C
:1024A00096058091A00586FF0DC0209195052F31DE
:1024B00049F08091A00590E08F71907030E0821714
:1024C000930729F4209196053091970502C02FEFCC
:1024D0003FEFC9010895982F4093A10520E030E017
:1024E00050E00AC0F901EE55FA4FDB01A20FB31F0D
:1024F0008C9180832F5F3F4F241735079CF396FD07
:1025000004C0907E80919505980F9093A00520912E
:1025100094058FEF9FEF8227282F22952827022EE0
:10252000269526952025022E269520252770082EF3
:10253000892F269507942795902D82270694279515
:102540009025822790939E0580939D059091A105EB
:102550008EEF891B80939B050E94C9108CE00E941E
:10256000EA10E8982A9885EA8EBD0DB407FEFDCFE3
:102570008EB51EBC0DB407FEFDCF8EB52A9AE89A23
:102580004091990550919A0568E230E861C0E89859
:102590002A986EBD0DB407FEFDCF8EB51EBC0DB4DE
:1025A00007FEFDCF8EB52A9AE89A87FD51C080912B
:1025B0009B0587FF2DC02091A10580919B05992740
:1025C00087FD9095FA01E20FF11DE80FF91F2381B5
:1025D00080919605909197058227782F729578279C
:1025E000072E769576957025072E7695702577704F
:1025F000082E892F769507947795902D8727069436
:1026000077959025872790939705809396050DC021
:1026100080919B05882321F0813029F02AEA05C0AA
:102620002091960502C020919705E8982A983EBD12
:102630000DB407FEFDCF8EB52EBD0DB407FEFDCF48
:102640008EB52A9AE89A80919B058F5F80939B05AF
:1026500080919B0583300CF49ACF089580919B055F
:10266000853009F07DC0E8982A9884E28EBD0DB4CB
:1026700007FEFDCF8EB51EBC0DB407FEFDCF8EB597
:102680002A9AE89A80939805789448E2E8982A98DC
:102690004EBD0DB407FEFDCF8EB51EBC0DB407FEBA
:1026A000FDCF8EB52A9AE89A807581F380919C05BA
:1026B000882371F480919C05E0919905F0919A0529
:1026C000E80FF11D9091940590838F5F80939C0596
:1026D000E8982A981EBC0DB407FEFDCF8EB51EBC2F
:1026E0000DB407FEFDCF2EB52A9AE89A80919C057D
:1026F000E0919905F0919A05E80FF11D20838F5F15
:1027000080939C0580919605909197058227282FAC
:1027100022952827022E269526952025022E2695DD
:1027200020252770082E892F269507942795902D10
:10273000822706942795902582279093970580936A
:1027400096058091A10520919C0590E0049630E0CB
:10275000821793075CF180919C05883438F596CFF9
:10276000E8982A9888E28EBD0DB407FEFDCF8EB59D
:102770001EBC0DB407FEFDCF8EB52A9AE89A83FFE2
:1027800015C084E080939B050E94EA10E8982A987F
:1027900085EA8EBD0DB407FEFDCF8EB580E88EBDF7
:1027A0000DB407FEFDCF8EB52A9AE89A08951F93BF
:1027B000182F16C01123A1F093B7133011F484E041
:1027C00005C0123011F080E001C08CE0917F892BB0
:1027D00083BF83B7816083BF889583B78E7F83BFB4
:1027E0000E943A11882331F71F9108950E946B12BD
:1027F00008950E94291108958FE995E00E94F9112A
:1028000090939E0580939D0580919D0590919E05D6
:1028100020E08F5F9F4F09F021E0822F08950F93F2
:102820001F93CF93DF93182FEB01042F02C00E9458
:10283000FC130E9429118823D1F3812FBE01402F60
:102840000E946B12DF91CF911F910F910895BF925B
:10285000CF92DF92EF92FF920F931F93CF93DF936C
:10286000C82ED62EB42EE90182E0681751F083E01D
:10287000681749F081E0681711F060E005C06BE26D
:1028800003C066E501C06AE570E080E090E020E802
:1028900036E948E950E00E94E9247B018C016D2D66
:1028A00070E080E090E024EC39E040E050E00E94ED
:1028B000E9249E0140E050E00E94E924E60EF71E64
:1028C000081F191FC801B7010E940C11B09294058E
:1028D0008C2D8F718093950564E170E080E090E02D
:1028E0000E941D0F80919505882341F080E06EE2E3
:1028F00073E143E050E00E94280E03C080E00E9494
:102900004B0E0E944211C092E7058C2DDF91CF91B2
:102910001F910F91FF90EF90DF90CF90BF9008959F
:10292000EF92FF920F931F93FC01758B648B208FA6
:10293000318F428F538FE0A2F1A202A313A380E054
:1029400090E0A0E0B4E484AB95ABA6ABB7AB1F912D
:102950000F91FF90EF900895FC01778B668B248F89
:10296000358F468F578F80E090E0A0E0B4E480AFD1
:1029700091AFA2AFB3AF08958EE480937C0062E084
:1029800070E080E090E00E941D0F80917A008064EA
:1029900080937A0080917A0086FDFCCF8091780048
:1029A00090E0A0E0B0E060917900362F20E044276D
:1029B00037FD4095542F282B392B4A2B5B2B60E099
:1029C00070E381E190E00E942A25CA01B9010895CF
:1029D0002F923F924F925F926F927F928F929F922F
:1029E000AF92BF92CF92DF92EF92FF920F931F931D
:1029F000DF93CF9300D000D000D0CDB7DEB79E8359
:102A00008D837A8369830E94BC141B012C01882466
:102A100099248CE4682E712C2D813E81620E731EE8
:102A2000285B3F4F3C832B8354C0ED81FE81868918
:102A30000E94BB0FED81FE8197A386A3E0ACF1ACB1
:102A400002AD13ADAA2797FDA095BA2FBC01CD0109
:102A50000E9469235B016C01A80197010E94652215
:102A600020E030E040E85AE30E941D249B01AC01C5
:102A7000C801B7010E9466229B01AC01ED81FE8175
:102A800060AF71AF82AF93AFC601B5010E946522FE
:102A90009B01AC01ED81FE8160AB71AB82AB93AB6E
:102AA0000E941D249B01AC01EB81FC81608371833A
:102AB00082839383F30160817181828193810E947B
:102AC0006622F30160837183828393830894811C5F
:102AD000911C29813A818216930608F4A6CFB90188
:102AE00080E090E00E9467239B01AC01F3016081CC
:102AF0007181828193810E94CE220E9484247B0175
:102B00008C01B101882777FD8095982F0E94692359
:102B100020E030E04AE754E40E94CE2220E030E09A
:102B200040E85AE30E941D24ED81FE81248D358DFD
:102B3000468D578D0E941D24A80197010E941D24D7
:102B4000ED81FE81608B718B828B938B80E090E0B6
:102B5000A0E0B0E0F30180839183A283B383ED8191
:102B6000FE812089318942895389B901CA0126969B
:102B70000FB6F894DEBF0FBECDBFCF91DF911F918E
:102B80000F91FF90EF90DF90CF90BF90AF909F900C
:102B90008F907F906F905F904F903F902F9008950F
:102BA0002F923F924F925F926F927F928F929F925D
:102BB000AF92BF92CF92DF92EF92FF920F931F934B
:102BC000DF93CF93CDB7DEB7AE970FB6F894DEBFE5
:102BD0000FBECDBF9EA78DA77E876D878A010E94FD
:102BE000BC1469877A878B879C870E940F0F3B01F3
:102BF0004C0128E5222E312C2DA53EA5220E331E98
:102C0000C801A0E0B0E089A79AA7ABA7BCA7ADA573
:102C1000BEA554968C910E94BB0FF10191838083D5
:102C2000AA2797FDA095BA2FBC01CD010E94692368
:102C30007B018C012DEC3CEC4CE054E40E94CA2258
:102C400087FD02C0AA240DC0AA24C801B70126E648
:102C500036E646EE53E40E941924181614F4AA240A
:102C6000A3940E940F0F661977098809990929A56D
:102C70003AA54BA55CA5261737074807590710F05A
:102C8000AA2029F20E940F0F69837A838B839C8389
:102C900018861F821E821D824DA55EA5405C5F4F77
:102CA0005A8F498F8DA59EA58C5B9F4F9C8F8B8FD4
:102CB000ADA5BEA5A85BBF4FBE8FAD8FEDA5FEA590
:102CC000E45BFF4FF8A3EF8F2DA53EA5205B3F4FA0
:102CD0003AA329A34DA55EA54C5A5F4F5CA34BA315
:102CE0008DA59EA5865A9F4F9EA38DA39BE5292E59
:102CF000312CADA5BEA52A0E3B1EA85ABF4FB8A7C2
:102D0000AFA31CC021E0F101208302C0D1011C92BD
:102D1000ED81FE81319729F4D1018C91EDA1FEA1C5
:102D20008083ADA1BEA19C91F1018081981731F003
:102D30002F8138852F5F3F4F38872F834F815885EC
:102D40008D859E854817590708F025C10E940F0FF1
:102D500029813A814B815C81621B730B840B950B3B
:102D600029A53AA54BA55CA56217730784079507AB
:102D700008F011C14D815E814F5F5F4F5E834D83CF
:102D8000EDA5FEA584A595A5A6A5B7A580A791A7A5
:102D9000A2A7B3A784890E94BB0FADA5BEA5959637
:102DA0009C938E93949756968C910E94BB0F7C01B6
:102DB000EDA5FEA597A386A3A4A8B5A8C6A8D7A8E5
:102DC00044A055A0B201882777FD8095982F0E94D6
:102DD00069233B014C01A60195010E94652220E078
:102DE00030E040E85AE30E941D249B01AC01C6017B
:102DF000B5010E9466229B01AC01ADA5BEA5D4968B
:102E00006D937D938D939C93D797C401B3010E94DA
:102E100065223B014C01EDA5FEA564A775A786A719
:102E200097A7A0ACB1ACC2ACD3AC0027F7FC00951F
:102E3000102FC801B7010E9469237B018C01A601F4
:102E400095010E94652220E030E040E85AE30E94AC
:102E50001D249B01AC01C601B5010E9466229B01A5
:102E6000AC01ADA5BEA5D8966D937D938D939C9333
:102E7000DB97C801B7010E9465225B016C01EDA5DB
:102E8000FEA560AB71AB82AB93ABC401B301A401EF
:102E900093010E941D249B01AC01A98DBA8D6D93F5
:102EA0007D938D939C931397EB8DFC8D6081718145
:102EB000828193810E946622AB8DBC8D6D937D9340
:102EC0008D939C931397C601B501A60195010E94AD
:102ED0001D249B01AC01ED8DFE8D60837183828387
:102EE0009383AF8DB8A16D917D918D919C910E943E
:102EF0006622EF8DF8A16083718382839383ADA5F1
:102F0000BEA59896ED90FD900D911C919B97C401E4
:102F1000B301A80197010E946522EDA5FEA520A19D
:102F200031A142A153A10E941D249B01AC01C80103
:102F3000B7010E946622ADA5BEA5DC966D937D9378
:102F40008D939C93DF97A60195010E941D249B0100
:102F5000AC01E9A1FAA16083718382839383ABA161
:102F6000BCA16D917D918D919C910E946622EBA1F7
:102F7000FCA16083718382839383D1018C91EDA145
:102F8000FEA18083AFA1B8A58D919C918415950574
:102F90000CF4B8CEBBCEE985FA85BF01882777FD52
:102FA0008095982F0E94692320E030E04AE754E49E
:102FB0000E94CE2220E030E040E85AE30E941D2427
:102FC0007B018C01ADA5BEA558962D913D914D91EB
:102FD0005C915B970E941D246F87788B898B9A8BFD
:102FE000ED81FE81BF0180E090E00E9467235B01DC
:102FF0006C012DA53EA52C5B3F4F3C8B2B8BD90143
:103000006D917D918D919C91A60195010E94CE229A
:103010000E9484249B01AC016F85788989899A89F3
:103020000E941D241B012C01EDA5FEA56487758758
:1030300086879787C801B701248D358D468D578DBA
:103040000E941D247B018C012DA53EA5245B3F4FD2
:103050003E8B2D8BD9016D917D918D919C91A60117
:1030600095010E94CE220E9484249B01AC01C801DC
:10307000B7010E941D243B014C01EDA5FEA5608B0C
:10308000718B828B938B6F85788989899A89A80146
:1030900097010E941D242DA53EA52C5A3F4F388F25
:1030A0002F8BD9012D913D914D915C910E941D2452
:1030B000A60195010E94CE227B018C01EDA5FEA503
:1030C0006083718382839383C201B101A401930160
:1030D0000E941D249B01AC01ADA5BEA514966D9365
:1030E0007D938D939C931797C801B7010E94CE22C0
:1030F000EDA5FEA5608771878287938780E090E0C9
:10310000A0E0B0E0EB89FC8980839183A283B38344
:10311000ED89FE8980839183A283B383EF89F88D43
:1031200080839183A283B383AE960FB6F894DEBFFB
:103130000FBECDBFCF91DF911F910F91FF90EF9008
:10314000DF90CF90BF90AF909F908F907F906F90C7
:103150005F904F903F902F900895FC011386158645
:10316000148687E090E012863197009711F001975E
:10317000FACF0895DC0180E00BC0E82FF0E08D91DC
:1031800090E0E827F927EE56FD4FE49161508E2F2D
:10319000662399F70895DF92EF92FF920F931F93A2
:1031A000FC01E08001811281F894F80181818E296F
:1031B00081838281DE2CD0948D21828383E090E014
:1031C0000E94760FF80181818D2181838AE090E051
:1031D0000E94760FF8010081789485E390E00E94C8
:1031E000760F80E010E0FF240E211F21012B09F053
:1031F00081E01F910F91FF90EF90DF900895EF9283
:10320000FF920F931F93CF93DF937C0101E010E0B7
:10321000C0E0D0E0C7010E94CB188111102B000F35
:103220002196C830D105B1F7812FDF91CF911F9141
:103230000F91FF90EF9008951F93CF93DF93FC01C0
:103240001081C181D281912F909560FF12C0F894B6
:103250008A8189238A838981812B89838AE090E00E
:103260000E94760F8A81812B8A83789487E390E08D
:1032700011C0F8948A8189238A838981812B89836B
:1032800081E490E00E94760F8A81812B8A83789472
:1032900085E090E00E94760FDF91CF911F91089515
:1032A000CF92DF92EF92FF920F931F93CF93DF9312
:1032B0008C01E42EFF24F394C0E0D0E0C62EDD2480
:1032C00060E08F2D90E08C219D21892B09F061E039
:1032D000C8010E941C19FF0C2196C830D10581F746
:1032E000EE20A9F4F894D8011196ED91FC91129773
:1032F00091818C918095982391831196ED91FC9109
:10330000129792818C918095982392837894DF9183
:10331000CF911F910F91FF90EF90DF90CF90089584
:103320006CEC40E00E9450190895EF92FF920F93C9
:103330001F93CF93DF938C017B0165E540E00E94F2
:103340005019C0E0D0E0F701EC0FFD1FC80160810B
:1033500040E00E9450192196C830D105A1F7DF91B5
:10336000CF911F910F91FF90EF900895DF92EF9210
:10337000FF920F931F93CF93DF93FC010081C181D4
:10338000D281F8948981D02ED0948D21898378942C
:103390001DE7E02EFF24115059F182E090E00E94D9
:1033A000760F888190E08E219F21892BA1F3F894DC
:1033B0008A818D218A838981802B8983789480EE0C
:1033C00091E00E94760FF89489818D21898386E4AB
:1033D00090E00E94760F888110E090E0E822F922C8
:1033E000EF2809F411E078948AE991E00E94760FC1
:1033F000812FDF91CF911F910F91FF90EF90DF9080
:103400000895AF92BF92DF92EF92FF920F931F93B6
:10341000CF93DF93EC015B018D85882309F061C0B8
:10342000CE010E94B619882329F41B861D861C86AE
:1034300090E06BC0CE0160EF40E00E94501901E0C7
:10344000DD24EE24FF24F394CE010E94CB18182F24
:10345000CE010E94CB18113019F48130E1F439C04B
:10346000181709F58B85081770F460E0FE01EE0D62
:10347000F11D838190E02F2D30E0822393231816D5
:1034800019064CF003C060E0081729F0093008F075
:103490004CC00C874AC0FE01EE0DF11D83818F29BF
:1034A000838361E009C0612FFE01EE0DF11D9F2DA8
:1034B0009095838189238383CE010E941C190F5F1D
:1034C000FF0C19F4E394FF24F39487E08E1508F0C1
:1034D000BBCF013430F0DB86DD2011F581E08D8734
:1034E0001FC01B861D861C8690E0DE0120E030E0B8
:1034F000F501E20FF31F13968C91139780832F5FD2
:103500003F4F11962830310599F7892FDF91CF91E0
:103510001F910F91FF90EF90DF90BF90AF900895B3
:103520008B818823F1F291E0E0CFD02EBDCFFF92C6
:103530000F931F938C01F62E862F60E00E94DD0F03
:103540008F2D90E0FC01E95BFD4FE491D801EC93F5
:103550008D5C9D4FFC016491E62FF0E0EE0FFF1FA4
:10356000E75DFD4F8591949112969C938E931197F0
:103570001B961C921B971D961C921D971C961C92C5
:10358000F80187E090E012863197009711F00197DB
:10359000FACF1F910F91FF900895FC0186E99BE1FE
:1035A000928B818B768365831482108289E081837C
:1035B00081E0828383830895FC01848108956F9262
:1035C0007F928F929F92AF92BF92CF92DF92EF92B3
:1035D000FF920F931F93CF93DF93FB01EA01998131
:1035E00080E0288130E0282B392BE081E23231F075
:1035F000E83221F0E03109F084C04BC04C814F33F8
:1036000029F1403420F44F3109F07BC02FC04F35F1
:1036100079F04F3709F075C0B901882777FD80959B
:10362000982F0E94692320E030E040E85DE32EC03F
:1036300035952795B901882777FD8095982F0E94A9
:10364000692320E030E040E05EE320C03595279517
:1036500035952795B901882777FD8095982F0E9489
:10366000692320E030E040E85EE310C093E0359548
:1036700027959A95E1F7B901882777FD8095982FCE
:103680000E94692320E030E040E05FE30E941D24B7
:1036900032C0EF8035952795B901882777FD809551
:1036A000982F0E94692320E030E040E85EE30E940A
:1036B00065223B014C016E2D70E02E81621B710969
:1036C000882777FD8095982F0E9469235B016C0104
:1036D000FF2400E010E0C801B7010E9467239B01AE
:1036E000AC01C601B5010E94CE229B01AC01C40110
:1036F000B3010E9466229B01AC01832F942F752F8A
:1037000000C0262F382F492F572FB901CA01DF914A
:10371000CF911F910F91FF90EF90DF90CF90BF90CE
:10372000AF909F908F907F906F9008950895EF9243
:10373000FF920F931F938C017B01FC018581968181
:103740000E94B619F80185819681B7010E949519EA
:10375000F8018581968164EB40E00E945019F801E0
:10376000858196810E94CB18F82EF801858196817B
:103770000E94B61980E0FF2009F481E01F910F91AB
:10378000FF90EF900895EF92FF920F931F93CF93C6
:10379000DF93EC018B017A018D819E810E94B61925
:1037A0008D819E81B8010E9495198D819E816EE464
:1037B00040E00E9450198D819E81F701628140E0B6
:1037C0000E9450198D819E81F701638140E00E9423
:1037D0005019F8018081803139F08D819E81F70187
:1037E000648140E00E9450198D819E810E94B6192B
:1037F0008D819E8168E448810E94501988818823C8
:1038000031F06AE070E080E090E00E941D0F8D8151
:103810009E810E94B619DF91CF911F910F91FF9069
:10382000EF900895CF92DF92EF92FF920F931F9344
:103830008C016B017A01FC01858196810E94B61989
:10384000F80185819681B6010E949519F80185815C
:1038500096816EEB40E00E945019F80185819681B7
:103860000E94FF18F7018083F801858196810E94EC
:10387000FF18F7018183F801858196810E94FF1866
:10388000F7018283F801858196810E94FF18F70174
:103890008383F801858196810E94FF18F701848354
:1038A000F801858196810E94FF18F7018583F80150
:1038B000858196810E94FF18F7018683F801858132
:1038C00096810E94FF18F7018783F8018581968110
:1038D0000E94FF18F7018087F801858196810E9478
:1038E000B6191F910F91FF90EF90DF90CF90089540
:1038F000DF93CF93CDB7DEB729970FB6F894DEBF2D
:103900000FBECDBFAE014F5F5F4F0E94121C898179
:10391000811181E029960FB6F894DEBF0FBECDBFAE
:10392000CF91DF910895CF92DF92EF92FF920F93A4
:103930001F93CF93DF93EC016B01452BE1F08B815B
:103940008823C9F088818823B1F40E940F0F7B017E
:103950008C01CE0160E070E00E94781C882359F44D
:103960000E940F0F6E197F09800B910B6E5E7240E3
:103970008040904070F3F6016081693039F0693021
:10398000A0F06A3041F06B3081F40AC06EE570E05F
:1039900080E090E00EC06CEB70E080E090E009C049
:1039A00067E771E080E090E004C06EEE72E080E0D6
:1039B00090E00E941D0FDF91CF911F910F91FF901A
:1039C000EF90DF90CF900895CF93DF93EC018D813E
:1039D0009E810E94B6198D819E810E9490198D81D1
:1039E0009E8164E448810E9450198A81882339F0BD
:1039F000CE012196BE0140E050E00E94931CDF9171
:103A0000CF9108950F931F938A010E94121CC80141
:103A100068E00E94BA1820E0F8019085891709F43F
:103A200021E0822F1F910F910895CF92DF92EF92A4
:103A3000FF920F931F93DF93CF93CDB7DEB72997F4
:103A40000FB6F894DEBF0FBECDBF8C017B016E01B7
:103A50000894C11CD11CA6010E94021D882329F4D0
:103A600060E070E08EEF92EC05C0C801B701A601DE
:103A70000E94DF1A29960FB6F894DEBF0FBECDBFA5
:103A8000CF91DF911F910F91FF90EF90DF90CF903A
:103A90000895DF93CF93CDB7DEB729970FB6F8948B
:103AA000DEBF0FBECDBF9C01FB0180818031D9F00C
:103AB000C901AE014F5F5F4F0E94021D8823A9F02C
:103AC0008D818F3371F0803418F48F3171F40BC015
:103AD0008F3519F08F3749F402C08BE007C08CE0B6
:103AE00005C08AE003C089E001C080E029960FB6D6
:103AF000F894DEBF0FBECDBFCF91DF910895CF9276
:103B0000DF92EF92FF921F93DF93CF93CDB7DEB793
:103B100029970FB6F894DEBF0FBECDBF6C017B01B5
:103B2000142FAE014F5F5F4F0E94021D8823E1F00A
:103B3000F70180818031B9F01A3051F01A3050F01D
:103B40001B3021F01C3031F48FE705C08FE503C036
:103B50008FE301C08FE18D83C601B701AE014F5FD6
:103B60005F4F0E94C31B81E029960FB6F894DEBF19
:103B70000FBECDBFCF91DF911F91FF90EF90DF90EF
:103B8000CF9008950F931F938B01CB0167E00E94A4
:103B9000BA1820E0F8019781891709F421E0822FF3
:103BA0001F910F910895AF92BF92CF92DF92EF9243
:103BB000FF920F931F93DF93CF93CDB7DEB761973B
:103BC0000FB6F894DEBF0FBECDBF7C01FC0185812E
:103BD00096810E94AD18F70114826E010894C11CF1
:103BE000D11C79E0A72EB12CAC0EBD1E01E02BC07C
:103BF000C701B6010E94C21D882329F1F701808107
:103C0000882341F4C701B6010E94971B882311F055
:103C1000F7010083C701B601A5010E94121CF7013C
:103C20001181C701B6010E94491D811718F4F701DF
:103C3000818104C0C701B6010E94491DF70181833B
:103C400084818F5F8483F70185819681B6010E940C
:103C5000011A882369F661960FB6F894DEBF0FBE8D
:103C6000CDBFCF91DF911F910F91FF90EF90DF902B
:103C7000CF90BF90AF900895FC011382128281E330
:103C800093E091838083648341872287138608951C
:103C9000CF92DF92EF92FF920F931F936C01062F4A
:103CA0008EE2E82E86E0F82EC701F60164810E94BC
:103CB000721F10E0F601838590E0082B192BC701D5
:103CC000602F0E94F41FC7010E9437201F910F919F
:103CD000FF90EF90DF90CF900895FF920F931F9386
:103CE0008C01F62E64600E94481E81E090E00E94E4
:103CF000760F8BEFF822C8016F2D0E94481E82E3D9
:103D000090E00E94760F1F910F91FF900895FF920F
:103D10000F931F938C01F62E0E94481EC8016F2D31
:103D20000E946D1E1F910F91FF900895EF92FF92D8
:103D30000F931F937C01162F042F607F642B0E942A
:103D4000871E1295107F102BC701612F0E94871EBE
:103D50001F910F91FF90EF90089541E00E94961EF1
:103D600080E090E0089540E00E94961E0895FC01D6
:103D70006681862F846086836C60CF010E94B31EAB
:103D80000895DF93CF93CDB7DEB728970FB6F89499
:103D9000DEBF0FBECDBF9C01FE013196A5E3B3E0AF
:103DA00088E00D9001928150E1F7F9018085841738
:103DB00010F4482F4150E42FF0E0EE0FFF1FEC0FFE
:103DC000FD1F8181680F6068C9010E94B31E28969B
:103DD0000FB6F894DEBF0FBECDBFCF91DF9108952F
:103DE00062E00E94B31E80ED97E00E94760F089576
:103DF00061E00E94B31E80ED97E00E94760F089567
:103E0000FC0188E08387CF0160E00E94481E08958E
:103E1000CF93DF93EC01423018F08D8188608D8361
:103E20004887222329F0413019F48D8184608D83E5
:103E300062E370E080E090E00E941D0FCE016B8590
:103E40000E94481E68EE73E080E090E00E941D0F23
:103E5000CE0160E30E94871E84E991E10E94760F03
:103E6000CE0160E30E94871E84E991E10E94760FF3
:103E7000CE0160E30E94871E86E990E00E94760FE3
:103E8000CE0160E20E94871E6D816062CE010E94B9
:103E9000B31E84E08E83CE010E94B71ECE010E9425
:103EA000F81E82E08F83CE0166E00E94B31ECE0131
:103EB0000E94F01EDF91CF9108950F931F938C0104
:103EC0008EE296E00E943B20F8011582C8016185D0
:103ED000428520E00E94081F1F910F9108950E94C3
:103EE0005D1F089581E080932D0660930A0610926D
:103EF0002B0610922C0608952091090630E080913F
:103F00000806281B3109C9010895409108068091CF
:103F10000906481718F02FEF3FEF0AC0E42FF0E032
:103F2000E851FA4F8081282F30E04F5F4093080618
:103F3000C9010895E091080680910906E81718F074
:103F4000EFEFFFEF06C0F0E0E851FA4F8081E82F75
:103F5000F0E0CF01089508951092310610923006D6
:103F600088EE93E0A0E0B0E08093320690933306B1
:103F7000A0933406B093350681E493E090932F0626
:103F800080932E060895CF92DF92EF92FF920F93C7
:103F90001F93CF93DF937C016B018A0180912D06E3
:103FA0008823A1F0C0E0D0E00DC0D701ED91FC91D5
:103FB000D601AC0FBD1F0190F081E02DC7016C91BF
:103FC00009952196C017D10780F304C0CB01642F57
:103FD0000E949B20C801DF91CF911F910F91FF900C
:103FE000EF90DF90CF900895DF93CF930F92CDB7EE
:103FF000DEB7FC01698380912D068823C9F080918A
:104000002C06803238F081E090E09383828320E0B8
:1040100030E015C080912B06E82FF0E0E55FF94F06
:10402000998190838F5F80932B0680932C0605C027
:10403000CE01019661E00E949B2021E030E0C901A1
:104040000F90CF91DF9108950F93062F80910A066C
:104050006BE076E040912C0621E00E944620109211
:104060002B0610922C0610922D060F91089561E0F8
:104070000E942420089510920806109209061092BA
:104080002B0610922C060E94472208950F931F932F
:10409000582F122F413210F081E04AC080913A0629
:1040A0008823E1F782E080933A0600933C068FEF85
:1040B0008093A7061092620640936306A2E4B6E0DE
:1040C000FB0102C081918D938E2F861B8417D0F344
:1040D00010923B0680913B06550F852B80933B0643
:1040E00080913D06813041F410923D0680913B065F
:1040F0008093BB0085EC01C085EE8093BC0011234A
:1041000021F080913A068230E1F38091A7068F3F3B
:1041100011F480E00DC08091A706803211F482E096
:1041200007C08091A706803311F084E001C083E0CE
:104130001F910F910895482F613210F081E008958A
:1041400080913A06843011F082E0089560938506EC
:10415000A4E6B6E0842F9C01F90102C081918D9301
:104160008E2F841B8617D0F380E008951F920F9244
:104170000FB60F9211242F933F934F935F936F933A
:104180007F938F939F93AF93BF93EF93FF93809110
:10419000B90090E0887F90708036910509F4F2C0F4
:1041A00081369105CCF58832910509F47BC08932BE
:1041B0009105B4F48031910509F46FC08131910506
:1041C0003CF4009709F447C1089709F04FC165C056
:1041D0008831910509F466C0809709F047C182C013
:1041E0008034910509F4A4C08134910544F48033EE
:1041F000910509F482C0C89709F038C189C080359B
:10420000910509F489C08835910509F496C0883470
:10421000910509F02BC1AEC08839910509F413C18D
:1042200089399105ECF48837910509F4ABC08937D9
:1042300091054CF48836910509F4A4C080379105A6
:1042400009F014C19FC08838910509F4FCC0803979
:10425000910509F49DC08038910509F007C198C007
:10426000803B910509F4C6C0813B91054CF4803A2E
:10427000910509F49FC0883A910509F0F7C0BAC0CA
:10428000803C910509F4E3C0883C910509F4DFC046
:10429000883B910509F0EAC0C2C080913B0680933B
:1042A000BB00CFC09091620680916306981768F4B6
:1042B00090916206E92FF0E0EE5BF94F80818093E8
:1042C000BB009F5F90936206BCC080913C06882330
:1042D00009F44BC085ED8093BC008091BC0084FD47
:1042E000FCCFC2C080E28093A70685ED8093BC001E
:1042F0008091BC0084FDFCCFB7C080E38093A7060B
:1043000085ED8093BC008091BC0084FDFCCFACC0E7
:1043100088E38093A7069BC0809162069091BB00C2
:10432000E82FF0E0EE5BF94F90838F5F8093620699
:10433000909162068091630682C08091620690919E
:10434000BB00E82FF0E0EE5BF94F90838F5F809326
:10435000620680913C06882341F085ED8093BC0085
:104360008091BC0084FDFCCF7FC081E080933D063E
:1043700084EA6EC085ED8093BC008091BC0084FD12
:10438000FCCF72C083E080933A061092A60659C013
:104390008091A606803208F056C08091A6069091C2
:1043A000BB00E82FF0E0EA57F94F90838F5F8093CE
:1043B000A60647C08091A606803230F4E091A6069A
:1043C000F0E0EA57F94F108285ED8093BC008091B0
:1043D000BC0084FDFCCF10923A066091A606E091E5
:1043E0004006F091410686E896E070E0099510924B
:1043F000A6062DC084E080933A061092840610929F
:104400008506E0913E06F0913F060995809185066C
:10441000882329F481E080938506109264069091A8
:104420008406E92FF0E0EC59F94F80818093BB00BE
:104430009F5F9093840690918406809185069817DB
:1044400010F485EC01C085E88093BC000FC085ECBA
:104450008093BC0009C01092A70685ED8093BC0034
:104460008091BC0084FDFCCF10923A06FF91EF9141
:10447000BF91AF919F918F917F916F915F914F917C
:104480003F912F910F900FBE0F901F901895109293
:104490003A0681E080933C0610923D0682E161E09D
:1044A0000E941C1083E161E00E941C10E9EBF0E027
:1044B00080818E7F808380818D7F808388E480935C
:1044C000B80085E48093BC0008955058BB27AA2704
:1044D0000ED075C166D130F06BD120F031F49F3F22
:1044E00011F41EF45BC10EF4E095E7FB51C1E92F16
:1044F00077D180F3BA17620773078407950718F01E
:1045000071F49EF58FC10EF4E0950B2EBA2FA02DFD
:104510000B01B90190010C01CA01A0011124FF2770
:10452000591B99F0593F50F4503E68F11A16F0406B
:10453000A22F232F342F4427585FF3CF469537956A
:104540002795A795F0405395C9F77EF41F16BA0B2F
:10455000620B730B840BBAF09150A1F0FF0FBB1FDD
:10456000661F771F881FC2F70EC0BA0F621F731F26
:10457000841F48F4879577956795B795F7959E3F83
:1045800008F0B3CF9395880F08F09927EE0F979511
:1045900087950895D9D008F481E008950CD00FC113
:1045A00007D140F0FED030F021F45F3F19F0F0C0A9
:1045B000511139C1F3C014D198F39923C9F355238C
:1045C000B1F3951B550BBB27AA2762177307840706
:1045D00038F09F5F5F4F220F331F441FAA1FA9F3BC
:1045E00033D00E2E3AF0E0E830D091505040E695AE
:1045F000001CCAF729D0FE2F27D0660F771F881F0F
:10460000BB1F261737074807AB07B0E809F0BB0BFD
:10461000802DBF01FF2793585F4F2AF09E3F510521
:1046200068F0B6C000C15F3FECF3983EDCF38695BE
:1046300077956795B795F7959F5FC9F7880F911D97
:104640009695879597F90895E1E0660F771F881F83
:10465000BB1F621773078407BA0720F0621B730B36
:10466000840BBA0BEE1F88F7E095089504D0689488
:10467000B111D9C00895BCD088F09F5790F0B92FE0
:104680009927B751A0F0D1F0660F771F881F991FA7
:104690001AF0BA95C9F712C0B13081F0C3D0B1E0B9
:1046A0000895C0C0672F782F8827B85F39F0B93FC9
:1046B000CCF3869577956795B395D9F73EF49095A9
:1046C0008095709561957F4F8F4F9F4F0895E89427
:1046D00009C097FB3EF490958095709561957F4F4A
:1046E0008F4F9F4F9923A9F0F92F96E9BB279395F8
:1046F000F695879577956795B795F111F8CFFAF408
:10470000BB0F11F460FF1BC06F5F7F4F8F4F9F4F38
:1047100016C0882311F096E911C0772321F09EE896
:10472000872F762F05C0662371F096E8862F70E0FC
:1047300060E02AF09A95660F771F881FDAF7880FD6
:104740009695879597F90895990F0008550FAA0B2C
:10475000E0E8FEEF16161706E807F907C0F0121694
:104760001306E407F50798F0621B730B840B950B97
:1047700039F40A2661F0232B242B252B21F40895EC
:104780000A2609F4A140A6958FEF811D811D089589
:1047900097F99F6780E870E060E008959FEF80ECF4
:1047A000089500240A941616170618060906089597
:1047B00000240A9412161306140605060895092EFD
:1047C0000394000C11F4882352F0BB0F40F4BF2B6C
:1047D00011F460FF04C06F5F7F4F8F4F9F4F0895AC
:1047E00057FD9058440F551F59F05F3F71F04795A2
:1047F000880F97FB991F61F09F3F79F08795089587
:10480000121613061406551FF2CF4695F1DF08C0A5
:10481000161617061806991FF1CF869571056105C2
:1048200008940895E894BB2766277727CB0197F96A
:1048300008958ADF08F48FEF08950BD0C0CFB1DF61
:1048400028F0B6DF18F0952309F0A2CFA7CF1124E6
:10485000EACFC6DFA0F3959FD1F3950F50E0551F27
:10486000629FF001729FBB27F00DB11D639FAA27C5
:10487000F00DB11DAA1F649F6627B00DA11D661F14
:10488000829F2227B00DA11D621F739FB00DA11D35
:10489000621F839FA00D611D221F749F3327A00DEF
:1048A000611D231F849F600D211D822F762F6A2F8B
:1048B00011249F5750408AF0E1F088234AF0EE0F10
:1048C000FF1FBB1F661F771F881F91505040A9F71D
:1048D0009E3F510570F05CCFA6CF5F3FECF3983E52
:1048E000DCF3869577956795B795F795E7959F5F84
:1048F000C1F7FE2B880F911D9695879597F908951E
:1049000011F40EF44BCF4EC073DFD0F39923D9F3DB
:10491000CEF39F57550B87FF55D056959795B0E02E
:1049200020F4660F771F881FBB1F1F930F9300246F
:104930009001A0018001F001A0E80E0F1F1F0A1EC8
:10494000511D601B710B8009B50B48F4600F711F7E
:10495000801DB51F0E1B1F0B0A0A510907C02E0F21
:104960003F1F4A1F0E0F1F1F0A1E511D660F771F84
:10497000881FBB1FA695F795E795F8F6061717074A
:1049800008065B07211D311D411D0F911F91B901C3
:10499000842F9158880F969587950895D5DE880BBA
:1049A000990B08959F3F49F0915028F4869577958B
:1049B0006795B7959F5F80389F4F880F969587952D
:1049C00097F9089591505040660F771F881FD2F7CE
:1049D0000895629FD001739FF001829FE00DF11D49
:1049E000649FE00DF11D929FF00D839FF00D749F69
:1049F000F00D659FF00D9927729FB00DE11DF91F15
:104A0000639FB00DE11DF91FBD01CF011124089571
:104A1000A1E21A2EAA1BBB1BFD010DC0AA1FBB1FC2
:104A2000EE1FFF1FA217B307E407F50720F0A21B34
:104A3000B30BE40BF50B661F771F881F991F1A94A1
:104A400069F760957095809590959B01AC01BD01CB
:104A5000CF01089597FB092E05260ED057FD04D0EF
:104A6000D7DF0AD0001C38F4509540953095219539
:104A70003F4F4F4F5F4F0895F6F790958095709593
:104A800061957F4F8F4F9F4F0895EE0FFF1F059049
:0A4A9000F491E02D0994F894FFCF93
:104A9A00656D6F6E50692056004F70656E456E6584
:104AAA007267794D6F6E69746F722E6F72670070DC
:104ABA006C6561736520776169742E2E2E2E2E0027
:104ACA004F4B200020282D30290043542031204309
:104ADA00616C3A2000435420322043616C3A200032
:104AEA0056524D53204143207E00560041432057E1
:104AFA00617665204465746563746564004143208A
:104B0A0057617665204465746563746564202D2059
:104B1A005265616C20506F7765722063616C632007
:104B2A00656E61626C656400555341206D6F646502
:104B3A00005663616C3A20005068617365205368BF
:104B4A006966743A20004143204E4F5420446574EC
:104B5A006563746564004143204E4F542064657454
:104B6A006563746564202D204170706172656E748E
:104B7A0020506F7765722063616C6320656E616295
:104B8A006C656400417373756D696E672056524D8A
:104B9A00533A00446574656374656420006E6F203F
:104BAA004354206465746563746564004E6F2043E2
:104BBA00542773004354203120646574656374007C
:104BCA004354312000435420322064657465637471
:104BDA0000435432004465746563742000204453D2
:104BEA0031384232300044657465637465643A2032
:104BFA0000445331384232302054656D7000302001
:104C0A004453313842323020646574656374656494
:104C1A000052464D3639435720496E69743A20008E
:104C2A004E6F64652000204672657120003433336C
:104C3A004D687A003836384D687A003931354D6812
:104C4A007A00204E6574776F726B20004F70656E24
:104C5A00456E657267794D6F6E004465746563745D
:104C6A00696E6720435427732E2E004F4B00200095
:104C7A0028002900202D3E2061636B002069002056
:104C8A00670020402000204D487A002055534120DB
:104C9A00006E616E00696E66006F7666002E00CD4A
:104CAA00CCCC3D297C8643010105D20001000000DD
:104CBA00000C0BA20BA20AD30AB30AFC0A000000DA
:104CCA0000AD1EA20B0000400014005400000000BA
:0E4CDA0000F41FC31F7C1F851F9A1FAB1F0015
:00000001FF
