:100000000C94CD010C94590E0C94860E0C94F501B1
:100010000C94F5010C94F5010C9468090C94F5010D
:100020000C94F5010C94F5010C94F5010C94F50178
:100030000C94F5010C94F5010C94F5010C94F50168
:100040000C94C20E0C94F5010C948D090C94DB09F0
:100050000C94F5010C94F5010C94F5010C94F50148
:100060000C94B1200C94F50120620A00202D3E2052
:10007000000A417661696C61626C6520636F6D6D29
:10008000616E64733A0A20203C6E6E3E2069202027
:100090002020202D20736574206E6F6465204944F4
:1000A0007320287374616E64617264206E6F64657E
:1000B000206964732061726520312E2E3330290A45
:1000C00020203C6E3E20622020202020202D207306
:1000D0006574204D487A2062616E64202834203D8A
:1000E000203433332C2038203D203836382C20392A
:1000F000203D20393135290A20203C6E6E6E3E208D
:1001000067202020202D20736574206E6574776F22
:10011000726B2067726F7570202852464D31322005
:100120006F6E6C7920616C6C6F7773203231322C7A
:100130002030203D20616E79290A20203C6E3E202F
:10014000632020202020202D2073657420636F6C95
:100150006C656374206D6F64652028616476616EE0
:100160006365642C206E6F726D616C6C7920302930
:100170000A20202E2E2E2C3C6E6E3E2061202D203B
:1001800073656E642064617461207061636B657473
:1001900020746F206E6F6465203C6E6E3E2C207262
:1001A0006571756573742061636B0A20202E2E2E95
:1001B0002C3C6E6E3E2073202D2073656E6420648F
:1001C000617461207061636B657420746F206E6F61
:1001D0006465203C6E6E3E2C206E6F2061636B0A5E
:1001E00020202E2E2E2C3C6E3E207620202D2053BB
:1001F00065742041432041646170746572205663C8
:10020000616C203176203D20554B2C203276203DEC
:10021000205553410A0000000000240027002A0056
:1002200000000000250028002B0000000000230033
:100230002600290004040404040404040202020247
:100240000202030303030303010204081020408099
:100250000102040810200102040810200000000719
:10026000000201000003040600000000000000007E
:10027000010402000302048A050506C30B2019428B
:100280001E2C25802E882F2D370038003C8F3D10E6
:100290006F2000005EBCE2613FDD83C29C7E20A334
:1002A000FD1F419DC3217FFCA2401E5F01E3BD3EB7
:1002B0006082DC237D9FC1421CFEA0E1BF5D038004
:1002C000DE3C62BEE0025CDF81633D7C22C09E1D9D
:1002D00043A1FF4618FAA427799BC584DA3866E55E
:1002E000BB5907DB856739BAE406581947A5FB787F
:1002F00026C49A653BD987045AB8E6A7F91B45C6B8
:10030000987A24F8A6441A99C7257B3A6486D85B64
:1003100005E7B98CD2306EEDB3510F4E10F2AC2F11
:100320007193CD114FADF3702ECC92D38D6F31B24E
:10033000EC0E50AFF1134DCE90722C6D33D18F0C6B
:1003400052B0EE326C8ED0530DEFB1F0AE4C129134
:10035000CF2D73CA947628ABF517490856B4EA69CD
:1003600037D58B5709EBB536688AD495CB2977F406
:10037000AA4816E9B7550B88D6346A2B7597C94A2F
:1003800014F6A8742AC896154BA9F7B6E80A54D7EC
:10039000896B35000B02470BA71F11241FBECFEF3F
:1003A000D8E0DEBFCDBF13E0A0E0B1E0E0E9FAE4C1
:1003B00002C005900D92AC33B107D9F716E0ACE35B
:1003C000B3E001C01D92A439B107E1F713E0CAE917
:1003D000D3E004C02297FE010E944225C439D10710
:1003E000C9F70E94B30E0C9446250C94000080912E
:1003F000570490915804A0915904B0915A04019661
:10040000A11DB11D8093570490935804A0935904E3
:10041000B0935A0408950F931F9384EF93E067E21B
:1004200040E122E00E94371E01E014E0C80164E0D0
:100430000E94921A8FE094E0B8010E94C81A1F919E
:100440000F910895EF92FF920F931F93682F70E022
:1004500083E0660F771F8A95E1F76E5D7B4F8FE033
:1004600094E00E94101D7B018C0120E030E04AEFF7
:1004700052E40E94C5228823B4F4C801B70120E0E9
:1004800030E04CE552EC0E941424181664F4C801C4
:10049000B70120E030E040E251E40E9418240E94BD
:1004A0003123CB0100C01F910F91FF90EF90089571
:1004B0001F938FE094E00E94CE1D8FE094E00E9495
:1004C000D71A8093520410E0809152041817A8F5AF
:1004D000612F70E023E0660F771F2A95E1F76E5DCC
:1004E0007B4F81E094E00E94FC19882331F11F5F6B
:1004F000EBCF612F70E093E0660F771F9A95E1F7DD
:100500006E5D7B4F8FE094E04CE00E947A1D1F5F90
:1005100090915204191768F3992319F410927204F8
:1005200008C081E080937204973018F086E08093D1
:100530005204809152041F91089510E0E9CF0F9367
:100540001F9389E061E00E94D80F89E061E00E947A
:10055000171088E062E00E94D80F85E061E00E94F9
:10056000D80F85E060E00E94171083E060E00E94F1
:10057000D80F0CE415E0C80140E056E960E070E0F7
:100580000E94160AC80160E071E00E94130D4091BC
:10059000FE025091FF026091000370910103C801B7
:1005A00022E030E00E94FA0DC80169E071E00E948B
:1005B000100EC8016FE171E00E94100E1F910F91A3
:1005C0000895CF92DF92EF92FF920F931F93CF93F4
:1005D000DF936B01EE24FF248701C0E0D0E013C05D
:1005E00080E00E94B60F9C0120503240442737FD26
:1005F0004095542FCA01B9010E94E424E60EF71E6B
:10060000081F191F2196CC15DD0554F3C801B70149
:100610000E9462237B018C01B601882777FD8095BB
:10062000982F0E9464239B01AC01C801B7010E946E
:10063000C9220E947F24DF91CF911F910F91FF90DB
:10064000EF90DF90CF90089581E00E94B60F1816CA
:1006500019064CF481E080936F04809173048F5FDE
:100660008093730402C010926F0482E00E94B60F60
:10067000181619064CF481E080937004809173047D
:100680008F5F8093730402C0109270048091730492
:10069000882319F481E080936F0489E060E00E9470
:1006A000171080E090E064EF76E00E94E10222E51E
:1006B00038EB4EE55FE30E94182460936704709363
:1006C00068048093690490936A0420E030E044EB6E
:1006D00052E40E941424181624F481E080937104DB
:1006E00008951092710408951F93CF93DF93EC0146
:1006F000FE0121961491112369F01A3029F48CE43B
:1007000095E06DE00E94C70B8CE495E0612F0E949C
:10071000C70BEECFDF91CF911F910895EF92FF921B
:100720000F931F93DF93CF93CDB7DEB764970FB6C8
:10073000F894DEBF0FBECDBFDE011196E3E5F4E015
:1007400084E101900D928150E1F78CE495E060E343
:1007500071E00E94130D8CE495E0609108034AE07B
:1007600050E00E948F0C8E010F5F1F4F35E1E32E8A
:10077000F12CEC0EFD1E8CE495E060E20E94C70BAC
:100780008CE495E0F80161918F014AE050E00E940D
:100790008F0C0E151F0579F78CE495E064E371E08A
:1007A0000E94130D8CE495E00E94CF0B6AE070E08C
:1007B00080E090E00E94180F64960FB6F894DEBFB8
:1007C0000FBECDBFCF91DF911F910F91FF90EF90A2
:1007D000089584EF93E00E94F31E8CE495E06AE3B1
:1007E00071E00E94130D8CE495E04DEC5CEC65EB40
:1007F00072E422E030E00E94FD0D8CE495E065E4B7
:1008000071E00E94130D8CE495E04DEC5CEC65EB1F
:1008100072E422E030E00E94FD0D8CE495E060E59A
:1008200071E00E94130D409167045091680460913B
:10083000690470916A048CE495E020E030E00E9445
:10084000FA0D8CE495E06AE571E00E94100E80914B
:1008500071048823D9F184EF93E06CE571E00E9484
:10086000130D8CE495E06DE671E00E94100E80910E
:100870000004813031F48CE495E068E971E00E9475
:10088000100E8CE495E061EA71E00E94130D409136
:100890006B0450916C0460916D0470916E048CE453
:1008A00095E022E030E00E94FD0D8CE495E068EADE
:1008B00071E00E94130D8CE495E04AE959E969ED75
:1008C0007FE322E030E00E94FD0D1FC084EF93E043
:1008D00066EB71E00E94130D8CE495E066EC71E02C
:1008E0000E94100E8CE495E064EF71E00E94130DFD
:1008F0008CE495E066EE4AE050E00E948F0C8CE4B8
:1009000095E06AE571E00E94100E84EF93E060E0EC
:1009100041E00E94BC1E84EF93E063E072E00E941D
:10092000130D80917304882359F48CE495E06DE0F5
:1009300072E00E94100E84EF93E06CE172E01EC042
:1009400080916F04882361F08CE495E064E272E0AA
:100950000E94100E84EF93E060E372E00E94130D9A
:1009600080917004882361F08CE495E065E372E087
:100970000E94100E84EF93E061E472E00E94130D78
:1009800060ED77E080E090E00E94180F80917204A3
:10099000813099F48CE495E065E472E00E94130DD7
:1009A0008CE495E0609152044AE050E00E948F0C84
:1009B0008CE495E06DE472E004C08CE495E06EE6B2
:1009C00072E00E94100E84EF93E00E94F31E84EF09
:1009D00093E066E572E00E94130D84EF93E060916E
:1009E00052044AE050E00E948F0C84EF93E060E0F4
:1009F00041E00E94BC1E84EF93E061E672E00E9439
:100A0000130D80910603813009F048C08CE495E015
:100A100061E872E00E94100E8CE495E060E972E0FB
:100A20000E94130D8CE495E0609108034AE050E0C9
:100A30000E948F0C8CE495E066E972E00E94130D31
:100A400080910703813031F48CE495E06DE972E028
:100A50000E94130D80910703823031F48CE495E0FD
:100A600064EA72E00E94130D80910703833031F431
:100A70008CE495E06BEA72E00E94130D8CE495E043
:100A800062EB72E00E94130D6091090370910A03FA
:100A90008CE495E04AE050E00E94F40C64E170E0E0
:100AA00080E090E00E94180F08950F931F9304EFC9
:100AB00013E0C8010E946A1FC8010E94FB1EC80102
:100AC00060E071E00E94130D4091FE025091FF0220
:100AD0006091000370910103C80122E030E00E94A0
:100AE000FA0DC80160E041E00E94BC1EC8016CEB39
:100AF00072E00E94130D1F910F9108958091780468
:100B00008823C1F10E94F4138823A1F189E061E0F8
:100B10000E94171068EC70E080E090E00E94180FCF
:100B200089E060E00E9417108CE690E00E94740358
:100B3000609179048CE495E070E04AE050E00E9416
:100B40007E0C88E690E00E947403809178048136E0
:100B500011F080E001C080E290917A04992311F0B5
:100B60009064892B6BE774E0409179040E94F11343
:100B70001092780408951F93CF93DF930E94F71388
:100B8000882309F478C010918D0580918905909192
:100B90008A05892B09F070C08CE495E06AEC72E05C
:100BA0000E94130D8CE495E06DEC72E00E94130D31
:100BB00060918C0570E06F7170708CE495E04AE094
:100BC00050E00E94E10C8CE495E06DEC72E00E9434
:100BD000130DC0E0D0E011C0FE01E257FA4F608172
:100BE0008CE495E070E04AE050E00E947E0C8CE4DA
:100BF00095E060E20E94C70B2196C11768F38CE470
:100C000095E06FEC72E00E94130D6091840570E036
:100C100075956795709561957F4F8CE495E04AE0F6
:100C200050E00E94E10C8CE495E061ED72E00E94DE
:100C3000130D8CE495E00E94CF0B80918C0585FF0D
:100C40001DC080918C0587FD19C08CE495E063ED93
:100C500072E00E94130D80918C0586FF02C080E82F
:100C600004C080918C058F71806C60E070E040E082
:100C70000E94F11303C003C080E001C081E0DF9156
:100C8000CF911F910895CF93DF936AE070E080E0E9
:100C900090E00E94180F8091080360910703409133
:100CA000090320E436E00E942214CAE0D0E0D09389
:100CB0005404C093530480E063E574E044E10E946F
:100CC0000A1464E670E080E090E00E94180F21971B
:100CD0008FEFCF3FD80759F782E00E94D2131092CE
:100CE000540410925304DF91CF9108951F93809183
:100CF0000004813029F480E090E0A2E0B3E408C071
:100D00008091020390910303A0910403B091050325
:100D100080936B0490936C04A0936D04B0936E0465
:100D200088E00E946B10892B19F485E061E002C015
:100D300085E060E00E9417108CE495E00E949D0A17
:100D4000892B09F42EC18CE495E00E94CE0A482F2D
:100D500080538A30D8F48091C1049091C2049C01E0
:100D600073E0220F331F7A95E1F7880F991F280F40
:100D7000391F20533040842F992787FD9095280FE5
:100D8000391F3093C2042093C1040BC14C3281F44B
:100D90009091C304963408F000C1E92FF0E0E558C3
:100DA000FB4F8091C10480839F5F9093C304F5C083
:100DB00041320CF4F0C0473609F448C048363CF4E0
:100DC000413609F46DC0423609F075C01BC0433787
:100DD00009F466C0463709F451C0493609F06BC0C2
:100DE0002091C1043091C2042115310559F020939E
:100DF000080380910603813009F061C0822F609161
:100E0000070321C08091C104843011F461E009C05E
:100E1000883011F462E005C0893011F060E001C053
:100E200063E0862F90E09093C2048093C104892BE5
:100E300009F445C06093070380910603813009F0EF
:100E40003EC0809108034091090313C04091C10442
:100E50005091C2044115510591F1409309035093FB
:100E60000A0380910603813051F580910803609157
:100E7000070320E436E00E94221421C08091C104BF
:100E80009091C2040097D9F08130910519F4109225
:100E9000000415C0029799F481E0809300040FC00C
:100EA000409378048091C304809379048091C104B5
:100EB00080937A0404C081E790E00E9474038091DB
:100EC0000603813009F067C08CE495E060E20E947F
:100ED000C70B609108036F71605C8CE495E00E9421
:100EE000C70B8CE495E06BED72E00E94130D6091EE
:100EF000080370E06F7170708CE495E04AE050E098
:100F00000E94E10C8CE495E06EED72E00E94130DFE
:100F10006091090370910A038CE495E04AE050E087
:100F20000E94E10C8CE495E061EE72E00E94130DEA
:100F300080910703813019F461EB71E00CC08230BD
:100F400019F464E673E007C0833019F060E070E0E4
:100F500002C063E973E08CE495E04AE050E00E944F
:100F6000E10C8CE495E065EE72E00E94130D8CE4D8
:100F700095E06AEE72E00E94130D8CE495E06091BA
:100F800000044AE050E00E948F0C8CE495E06DEC88
:100F900072E00E94100E1092C3041092C2041092CC
:100FA000C104809106038130A1F40E94BB05813009
:100FB00071F489E061E00E94171068EC70E080E055
:100FC00090E00E94180F89E060E00E9417100E94D4
:100FD0007E050E940A0F209174043091750440919F
:100FE000760450917704621B730B840B950B61514F
:100FF00077428040904008F4C0C0809171048823FB
:1010000051F068EC70E080E090E00E94180F1092C0
:101010005C0410925B0480916F04882309F441C042
:1010200080917104882359F18CE393E064E170E0CE
:1010300040ED57E00E94CB1560913C0370913D0359
:1010400080913E0390913F030E943123709354049A
:1010500060935304609148037091490380914A035F
:1010600090914B0320E030E048EC52E40E941824B9
:101070000E94312370935C0460935B0412C08CE384
:1010800093E068EC75E00E94E31420E030E046E66F
:1010900053E40E9418240E943123709354046093F7
:1010A000530480917004882309F441C08091710435
:1010B000882359F188E993E064E170E040ED57E05E
:1010C0000E94CB15609198037091990380919A03C7
:1010D00090919B030E9431237093560460935504B2
:1010E0006091A4037091A5038091A6039091A7033A
:1010F00020E030E048EC52E40E9418240E943123A2
:1011000070935C0460935B0412C088E993E068EC20
:1011100075E00E94E31420E030E046E653E40E94CC
:1011200018240E94312370935604609355048091D3
:1011300072048130B1F48FE094E00E94DF1C10E073
:101140000CC0812F0E942202E12FF0E0EE0FFF1F62
:10115000E35AFB4F918380831F5F809152041817DD
:1011600080F30E948E030E940A0F609374047093B0
:10117000750480937604909377041F910895EF92FD
:10118000FF920F931F9364E670E080E090E00E946E
:10119000180F80910004813029F480E090E0A2E0F3
:1011A000B3E408C08091020390910303A09104036B
:1011B000B091050380936B0490936C04A0936D042D
:1011C000B0936E0480910603813011F40E944306AF
:1011D0000E9458020E949F020E9455050E9424030B
:1011E00060ED77E080E090E00E94180F0E94E90334
:1011F00080917204882339F481E067EF71E042E066
:1012000050E00E94230E109257041092580410923E
:10121000590410925A0480916F04882351F08CE392
:1012200093E061E070E02DEC3CEC45EB52E40E9471
:10123000A71480917004882351F088E993E062E05C
:1012400070E02DEC3CEC45EB52E40E94A714809139
:1012500071048823C1F180916F048823C1F020912B
:101260006B0430916C0440916D0450916E048CE3DA
:1012700093E060E070E00F2EFAE9EF2EF9E9FF2E1F
:10128000F9ED0F2FFFE31F2FF02D0E948B1480919B
:1012900070048823C1F020916B0430916C0440915C
:1012A0006D0450916E0488E993E060E070E00F2EC9
:1012B000FAE9EF2EF9E9FF2EF9ED0F2FFFE31F2FCB
:1012C000F02D0E948B141F910F91FF90EF900895C5
:1012D0001F920F920FB60F9211242F933F934F93AB
:1012E0005F936F937F938F939F93AF93BF93EF938E
:1012F000FF930E94BE10FF91EF91BF91AF919F911C
:101300008F917F916F915F914F913F912F910F90AE
:101310000FBE0F901F90189508951F920F920FB651
:101320000F9211242F933F934F938F939F93EF939B
:10133000FF938091C00082FD1DC04091C6002091A6
:101340000405309105052F5F3F4F2F73307080915A
:101350000605909107052817390771F0E0910405FB
:10136000F0910505EC53FB4F408330930505209326
:10137000040502C08091C600FF91EF919F918F916B
:101380004F913F912F910F900FBE0F901F90189586
:10139000E0915805F0915905E05CFF4F81919191E2
:1013A00020813181821B930B8F739070892B11F0F8
:1013B0000E948C0908951F920F920FB60F9211246C
:1013C0002F933F938F939F93EF93FF932091480523
:1013D0003091490580914A0590914B0528173907AE
:1013E00031F48091C1008F7D8093C10014C0E091E1
:1013F0004A05F0914B05E85FFA4F208180914A053C
:1014000090914B0501968F73907090934B0580934C
:101410004A052093C600FF91EF919F918F913F91D4
:101420002F910F900FBE0F901F901895AF92BF9203
:10143000DF92EF92FF920F931F93CF93DF93EC0114
:101440007A018B01DD24403081EE580780E0680787
:1014500080E0780711F0DD24D39491E0A92EB12C1F
:10146000EC89FD89DD2069F0C50108A002C0880F64
:10147000991F0A94E2F7808360E079E08DE390E0C1
:1014800005C0108260E874E88EE190E0A801970141
:101490000E940325215030404040504056954795CA
:1014A0003795279580E12030380720F0DD2011F0B6
:1014B000DD24D6CFE889F9893083EA89FB89208346
:1014C00019A2EE89FF89408121E030E0C9010C8C2E
:1014D00002C0880F991F0A94E2F7482B4083EE89D7
:1014E000FF894081C9010D8C02C0880F991F0A94A1
:1014F000E2F7482B4083EE89FF894081C9010E8CB9
:1015000002C0880F991F0A94E2F7482B4083EE89A6
:10151000FF8980810F8C02C0220F331F0A94E2F7EB
:10152000209528232083DF91CF911F910F91FF9069
:10153000EF90DF90BF90AF900895DC011C96ED9185
:10154000FC911D97E05CFF4F219131918081918149
:10155000281B390B2F733070C9010895DC011C96CC
:10156000ED91FC911D97E05CFF4F20813181E054AB
:10157000F040DF01AE5BBF4F8D919C911197281712
:10158000390719F42FEF3FEF07C08D919C91E80FB9
:10159000F91F8081282F30E0C9010895DC011C96D5
:1015A000ED91FC911D97E05CFF4F20813181E0546B
:1015B000F040DF01AE5BBF4F8D919C9111972817D2
:1015C000390719F42FEF3FEF10C08D919C911197BF
:1015D000E80FF91F20818D919C91119701968F73CF
:1015E000907011969C938E9330E0C9010895DC01B0
:1015F00091968C919197882339F05496ED91FC91B6
:101600005597808186FFF9CF91961C920895CF93CC
:10161000DF93EC01EE85FF85E05CFF4F2081318197
:10162000E054F0402F5F3F4F2F733070DF01AE5B0F
:10163000BF4F8D919C91119728173907D1F3E05C2A
:10164000FF4F80819181E054F040E80FF91F6083E3
:10165000EE85FF85E05CFF4F31832083EE89FF89B3
:10166000208181E090E00F8C02C0880F991F0A94BE
:10167000E2F7282B208381E089A3EC89FD89808112
:101680008064808381E090E0DF91CF910895109293
:101690004F0510924E0588EE93E0A0E0B0E08093F5
:1016A000500590935105A0935205B093530580E1E6
:1016B00093E090934D0580934C0584EC94E09093D7
:1016C00059058093580588E095E090935B058093D9
:1016D0005A0585EC90E090935D0580935C0584EC61
:1016E00090E090935F0580935E0580EC90E090938E
:1016F00061058093600581EC90E090936305809391
:10170000620582EC90E0909365058093640586EC19
:1017100090E0909367058093660584E08093680568
:1017200083E08093690587E080936A0585E0809374
:101730006B0581E080936C050895CF92DF92EF9264
:10174000FF920F931F93CF93DF937C016B018A016C
:10175000C0E0D0E00FC0D6016D916D01D701ED91D1
:10176000FC910190F081E02DC7010995C80FD91FA8
:10177000015010400115110571F7CE01DF91CF9195
:101780001F910F91FF90EF90DF90CF900895DC01B3
:10179000ED91FC910190F081E02D09950895EF9273
:1017A000FF920F931F938C01DC01ED91FC9101904E
:1017B000F081E02D6DE009957C01D801ED91FC915F
:1017C0000190F081E02DC8016AE009959C012E0D81
:1017D0003F1DC9011F910F91FF90EF900895CF9386
:1017E000DF93EC016115710519F420E030E00FC0C2
:1017F000DB010D900020E9F71197A61BB70BE881DC
:10180000F9810280F381E02DAD0109959C01C901A8
:10181000DF91CF9108954F925F927F928F929F9226
:10182000AF92BF92CF92DF92EF92FF920F931F93EE
:10183000DF93CF93CDB7DEB7A1970FB6F894DEBF95
:101840000FBECDBF2C01742ECB01223008F42AE04C
:1018500019A231E2C32ED12CCC0EDD1E822E99248A
:10186000AA24BB24672D752FA50194010E9403258E
:1018700079018A01C801B701A50194010E94E424FD
:10188000472D461B0894C108D1084A3014F4405D26
:1018900001C0495CF6014083E114F1040105110522
:1018A00021F07E2C5F2DC801DDCFC201B6010E9460
:1018B000EF0BA1960FB6F894DEBF0FBECDBFCF9150
:1018C000DF911F910F91FF90EF90DF90CF90BF902D
:1018D000AF909F908F907F905F904F900895DC0124
:1018E0002115310541F4ED91FC910190F081E02D3D
:1018F000642F099508950E940B0C0895EF92FF92B2
:101900000F931F939A017B0100E010E0B801A7013B
:101910000E946F0C1F910F91FF90EF900895EF922E
:10192000FF920F931F939A01E62EFF2400E010E030
:10193000B801A7010E946F0C1F910F91FF90EF90CB
:101940000895CF92DF92EF92FF920F931F93CF9360
:10195000DF93EC016A017B012115310541F4E88137
:10196000F9810190F081E02D642F09951FC02A3084
:101970003105D1F477FF17C0E881F9810190F0813A
:10198000E02D6DE209958C0144275527BA014C19C9
:101990005D096E097F09CE012AE00E940B0C9801B7
:1019A000280F391F04C02AE00E940B0C9C01C901BA
:1019B000DF91CF911F910F91FF90EF90DF90CF902B
:1019C0000895EF92FF920F931F937B019A010027D6
:1019D000F7FC0095102FB801A7010E94A10C1F91E0
:1019E0000F91FF90EF900895CF92DF92EF92FF92C8
:1019F0000F931F936C017B019A010027F7FC009560
:101A0000102FB801A7010E94A10C8C01C6010E94F1
:101A1000CF0B080F191FC8011F910F91FF90EF9076
:101A2000DF90CF9008950E94EF0B08957F928F92E0
:101A30009F92AF92BF92CF92DF92EF92FF920F935D
:101A40001F93CF93DF934C017A018B01722ECB0150
:101A5000BA01A80197010E94C924882321F0C4017A
:101A600060EF72E021C0C0E0D0E057016801E89467
:101A7000D7F8C601B5012FEF3FEF4FE75FE70E94B0
:101A8000C924882351F4C601B5012FEF3FEF4FE77A
:101A90005FE70E94C522181614F0C1E0D0E021973C
:101AA00039F0C40164EF72E00E94EF0BEC0193C0C7
:101AB000C801B7012FEF3FEF4FE75FE40E94142406
:101AC000181654F0C801B7012FEF3FEF4FE75FEC56
:101AD0000E94C522882324F4C40168EF72E0E4CF99
:101AE000C801B70120E030E040E050E00E94C5228C
:101AF00087FD03C0C0E0D0E00EC0D401ED91FC91A1
:101B00000190F081E02DC4016DE20995EC0117FB15
:101B1000109517F9109520E030E040E05FE3DD24F8
:101B20000BC0CA01B90120E030E040E251E40E945C
:101B3000C9229B01AC01D394D71498F3C801B70113
:101B40000E9461225B016C010E9436237B018C01A3
:101B5000C401B801A7012AE030E00E946F0CC80F51
:101B6000D91F772039F0C4016CEF72E00E94EF0BAF
:101B7000C80FD91FC801B7010E9462239B01AC01A5
:101B8000C601B5010E94602224C020E030E040E29E
:101B900051E40E9418247B018C010E9431235B01D7
:101BA0006C01CC24B7FCC094DC2CC401B601A501A7
:101BB0002AE030E00E94A10CC80FD91FC601B50170
:101BC0000E9464239B01AC01C801B7010E946022FE
:101BD0007A947720D1F6CE01DF91CF911F910F91AA
:101BE000FF90EF90DF90CF90BF90AF909F908F903D
:101BF0007F9008950E94160D0895EF92FF920F9323
:101C00001F937C010E94160D8C01C7010E94CF0B0F
:101C1000080F191FC8011F910F91FF90EF900895B1
:101C2000EF92FF920F931F937C010E94EF0B8C01A8
:101C3000C7010E94CF0B080F191FC8011F910F91F8
:101C4000FF90EF900895823000F5E82FF0E0EE0F5E
:101C5000FF1FE259FA4F71836083882319F08130A6
:101C6000A1F408C0809169008C7F842B8093690067
:101C7000E89A089580916900440F551F440F551F3D
:101C8000837F842B80936900E99A0895823080F4E1
:101C9000882319F0813021F402C0E89801C0E99846
:101CA000E82FF0E0EE0FFF1FE259FA4F1182108289
:101CB00008951F920F920FB60F9211242F933F9306
:101CC0004F935F936F937F938F939F93AF93BF9344
:101CD000EF93FF9380916E0590916F05892B29F00A
:101CE000E0916E05F0916F050995FF91EF91BF911D
:101CF000AF919F918F917F916F915F914F913F91A4
:101D00002F910F900FBE0F901F9018951F920F925A
:101D10000FB60F9211242F933F934F935F936F93BE
:101D20007F938F939F93AF93BF93EF93FF93809194
:101D3000700590917105892B29F0E0917005F09163
:101D400071050995FF91EF91BF91AF919F918F918F
:101D50007F916F915F914F913F912F910F900FBEA7
:101D60000F901F901895CF93DF930E947B0F0E94D6
:101D7000BF08C8ECD9E00E9476062097E1F30E94E4
:101D8000C809F9CF1F920F920FB60F9211242F930B
:101D90003F938F939F93AF93BF93809176059091DC
:101DA0007705A0917805B091790530917A05019673
:101DB000A11DB11D232F2D5F2D3720F02D5701962A
:101DC000A11DB11D20937A05809376059093770528
:101DD000A0937805B0937905809172059091730571
:101DE000A0917405B09175050196A11DB11D809358
:101DF000720590937305A0937405B0937505BF9118
:101E0000AF919F918F913F912F910F900FBE0F90A7
:101E10001F9018958FB7F89420917605309177052B
:101E200040917805509179058FBFB901CA01089595
:101E30009B01AC017FB7F894809172059091730576
:101E4000A0917405B091750566B5A89B05C06F3F5C
:101E500019F00196A11DB11D7FBFBA2FA92F982F90
:101E60008827860F911DA11DB11D62E0880F991F63
:101E7000AA1FBB1F6A95D1F7BC012DC0FFB7F8940C
:101E80008091720590917305A0917405B0917505CC
:101E9000E6B5A89B05C0EF3F19F00196A11DB11D45
:101EA000FFBFBA2FA92F982F88278E0F911DA11D34
:101EB000B11DE2E0880F991FAA1FBB1FEA95D1F759
:101EC000861B970B885E9340C8F2215030404040FB
:101ED000504068517C4F211531054105510571F67F
:101EE0000895019739F0880F991F880F991F02975D
:101EF0000197F1F70895789484B5826084BD84B524
:101F0000816084BD85B5826085BD85B5816085BDF4
:101F1000EEE6F0E0808181608083E1E8F0E010820D
:101F2000808182608083808181608083E0E8F0E04E
:101F3000808181608083E1EBF0E080818460808338
:101F4000E0EBF0E0808181608083EAE7F0E080816F
:101F500084608083808182608083808181608083CF
:101F60008081806880831092C1000895982F8E3000
:101F700008F09E50977080910B038295880F880F10
:101F8000807C892B80937C0080917A008064809390
:101F90007A0080917A0086FDFCCF209178004091F4
:101FA0007900942F80E030E0282B392BC901089567
:101FB000CF93DF93482F50E0CA01885B9D4FFC010F
:101FC00034914C5C5D4FFA018491882369F190E073
:101FD000880F991FFC01EA5EFD4FA591B491FC01A9
:101FE000E05EFD4FC591D491662351F42FB7F8946C
:101FF0008C91932F909589238C93888189230BC092
:10200000623061F42FB7F8948C91932F90958923C7
:102010008C938881832B88832FBF06C09FB7F89449
:102020008C91832B8C939FBFDF91CF910895482F84
:1020300050E0CA01845A9D4FFC012491CA01885B7B
:102040009D4FFC0194914C5C5D4FFA013491332318
:1020500009F440C0222351F1233071F0243028F4D8
:102060002130A1F0223011F514C02630B1F0273014
:10207000C1F02430D9F404C0809180008F7703C070
:10208000809180008F7D8093800010C084B58F7711
:1020900002C084B58F7D84BD09C08091B0008F7768
:1020A00003C08091B0008F7D8093B000E32FF0E0FB
:1020B000EE0FFF1FE05EFD4FA591B4912FB7F8948E
:1020C000662321F48C919095892302C08C91892BF1
:1020D0008C932FBF0895682F70E0CB01845A9D4FD9
:1020E000FC012491CB01885B9D4FFC0144916C5C09
:1020F0007D4FFB019491992319F420E030E03CC01E
:10210000222351F1233071F0243028F42130A1F042
:10211000223011F514C02630B1F02730C1F0243040
:10212000D9F404C0809180008F7703C08091800033
:102130008F7D8093800010C084B58F7702C084B5F6
:102140008F7D84BD09C08091B0008F7703C08091DE
:10215000B0008F7D8093B000892F90E0880F991F89
:10216000865D9D4FFC01A591B4918C9120E030E0FB
:10217000842311F021E030E0C901089580917B05AE
:102180008F5F80937B05089598E20EC0E8982A98A7
:102190001EBC0DB407FEFDCF8EB51EBC0DB407FEF0
:1021A000FDCF8EB52A9AE89AE8982A989EBD0DB47C
:1021B00007FEFDCF8EB51EBC0DB407FEFDCF8EB55C
:1021C0002A9AE89A807511F70895282FE8982A9896
:1021D00081E08EBD0DB407FEFDCF8EB51EBC0DB4E3
:1021E00007FEFDCF9EB52A9AE89AE8982A9881E8DA
:1021F0008EBD0DB407FEFDCF8EB5937E922B9EBD96
:102200000DB407FEFDCF8EB52A9AE89A089522E014
:10221000660F771F881F991F2A95D1F729E03DE3A4
:1022200040E050E00E94032586E0220F331F441F48
:10223000551F8A95D1F720937C0530937D054093F7
:102240007E0550937F05089580918705853059F468
:1022500080918805882339F484E0809387050E9463
:10226000E51081E0089580E008958091870590E071
:1022700084300CF491E0892F08952A9A229A2A9AA0
:1022800084B18C6284B980E58CBD8DB581608DBDD3
:102290003FEA2AEA9FE2E8982A983EBD0DB407FE7D
:1022A000FDCF8EB52EBD0DB407FEFDCF8EB52A9A9B
:1022B000E89AE8982A989EBD0DB407FEFDCF8EB52A
:1022C0001EBC0DB407FEFDCF8EB52A9AE89A8A3A55
:1022D00011F73FEA25E59FE2E8982A983EBD0DB444
:1022E00007FEFDCF8EB52EBD0DB407FEFDCF8EB51A
:1022F0002A9AE89AE8982A989EBD0DB407FEFDCF69
:102300008EB51EBC0DB407FEFDCF8EB52A9AE89A95
:10231000853511F7E0E7F2E084918823A1F031964A
:10232000949131978068E8982A988EBD0DB407FE85
:10233000FDCF8EB59EBD0DB407FEFDCF8EB52A9A9A
:10234000E89A3296E9CF90918005E8982A9880EB38
:102350008EBD0DB407FEFDCF8EB59EBD0DB407FE3C
:10236000FDCF8EB52A9AE89A20917C0530917D05A3
:1023700040917E0550917F05E8982A9887E88EBDA8
:102380000DB407FEFDCF8EB5CA01AA27BB278EBDAF
:102390000DB407FEFDCF8EB52A9AE89AE8982A98E0
:1023A00088E88EBD0DB407FEFDCF8EB5BB27A52FE7
:1023B000942F832F8EBD0DB407FEFDCF8EB52A9AC4
:1023C000E89AE8982A9889E88EBD0DB407FEFDCFFB
:1023D0008EB52EBD0DB407FEFDCF8EB52A9AE89AB4
:1023E00084E0809387050895AC018091870584304F
:1023F00021F0853009F066C032C010928D058091C1
:102400008D0580938805209180058FEF9FEF8227AF
:10241000282F22952827022E269526952025022E44
:10242000269520252770082E892F26950794279515
:10243000902D8227069427959025822790938305D7
:1024400080938205509386054093850585E08093AF
:1024500087050E94C41080E10E94E51033C080917E
:102460008D052091880590E0049630E0821793074F
:1024700024F080918805883428F184E080938705D2
:102480000E94E51080918D05833430F081E090E06A
:10249000909383058093820580918C0586FF0DC003
:1024A000209181052F3149F080918C0590E08F714A
:1024B000907030E08217930729F4209182053091C3
:1024C000830502C02FEF3FEFC9010895982F409375
:1024D0008D0520E030E050E00AC0F901E257FA4FE4
:1024E000DB01A20FB31F8C9180832F5F3F4F241716
:1024F00035079CF396FD04C0907E80918105980F6E
:1025000090938C05209180058FEF9FEF8227282FD5
:1025100022952827022E269526952025022E2695DF
:1025200020252770082E892F269507942795902D12
:102530008227069427959025822790938A05809379
:10254000890590918D058EEF891B809387050E94E8
:10255000C4108CE00E94E510E8982A9885EA8EBDA8
:102560000DB407FEFDCF8EB51EBC0DB407FEFDCF2A
:102570008EB52A9AE89A409185055091860568E2C1
:1025800030E861C0E8982A986EBD0DB407FEFDCF13
:102590008EB51EBC0DB407FEFDCF8EB52A9AE89A03
:1025A00087FD51C08091870587FF2DC020918D0543
:1025B00080918705992787FD9095FA01E20FF11D1B
:1025C000E80FF91F2381809182059091830582276E
:1025D000782F72957827072E769576957025072E99
:1025E000769570257770082E892F769507947795C4
:1025F000902D8727069477959025872790938305BC
:10260000809382050DC080918705882321F0813059
:1026100029F02AEA05C02091820502C02091830595
:10262000E8982A983EBD0DB407FEFDCF8EB52EBDAD
:102630000DB407FEFDCF8EB52A9AE89A80918705E2
:102640008F5F809387058091870583300CF49ACF44
:10265000089580918705853009F07DC0E8982A9813
:1026600084E28EBD0DB407FEFDCF8EB51EBC0DB449
:1026700007FEFDCF8EB52A9AE89A80938405789458
:1026800048E2E8982A984EBD0DB407FEFDCF8EB5FE
:102690001EBC0DB407FEFDCF8EB52A9AE89A807550
:1026A00081F380918805882371F480918805E091F9
:1026B0008505F0918605E80FF11D909180059083C6
:1026C0008F5F80938805E8982A981EBC0DB407FE9A
:1026D000FDCF8EB51EBC0DB407FEFDCF2EB52A9AD8
:1026E000E89A80918805E0918505F0918605E80FCC
:1026F000F11D20838F5F80938805809182059091E2
:1027000083058227282F22952827022E2695269595
:102710002025022E269520252770082E892F269504
:1027200007942795902D8227069427959025822738
:10273000909383058093820580918D052091880573
:1027400090E0049630E0821793075CF18091880551
:10275000883438F596CFE8982A9888E28EBD0DB473
:1027600007FEFDCF8EB51EBC0DB407FEFDCF8EB5A6
:102770002A9AE89A83FF15C084E0809387050E9417
:10278000E510E8982A9885EA8EBD0DB407FEFDCFC6
:102790008EB580E88EBD0DB407FEFDCF8EB52A9AAA
:1027A000E89A08951F93182F16C01123A1F093B72C
:1027B000133011F484E005C0123011F080E001C044
:1027C0008CE0917F892B83BF83B7816083BF88951D
:1027D00083B78E7F83BF0E943511882331F71F9105
:1027E00008950E94661208950E94241108958BE8AE
:1027F00095E00E94F41190938A0580938905809159
:10280000890590918A0520E08F5F9F4F09F021E0B4
:10281000822F08950F931F93CF93DF93182FEB010F
:10282000042F02C00E94F7130E9424118823D1F3C1
:10283000812FBE01402F0E946612DF91CF911F9120
:102840000F910895BF92CF92DF92EF92FF920F9374
:102850001F93CF93DF93C82ED62EB42EE90182E0CA
:10286000681751F083E0681749F081E0681711F0AC
:1028700060E005C06BE203C066E501C06AE570E098
:1028800080E090E020E836E948E950E00E94E42446
:102890007B018C016D2D70E080E090E024EC39E04C
:1028A00040E050E00E94E4249E0140E050E00E949D
:1028B000E424E60EF71E081F191FC801B7010E9485
:1028C0000711B09280058C2D8F718093810564E192
:1028D00070E080E090E00E94180F809181058823CD
:1028E00041F080E069E273E143E050E00E94230E92
:1028F00003C080E00E94460E0E943D11C092D305A5
:102900008C2DDF91CF911F910F91FF90EF90DF9071
:10291000CF90BF900895EF92FF920F931F93FC0109
:10292000758B648B208F318F428F538FE0A2F1A281
:1029300002A313A380E090E0A0E0B4E484AB95ABE5
:10294000A6ABB7AB1F910F91FF90EF900895FC01DC
:10295000778B668B248F358F468F578F80E090E082
:10296000A0E0B4E480AF91AFA2AFB3AF08958EE41E
:1029700080937C0062E070E080E090E00E94180F9D
:1029800080917A00806480937A0080917A0086FD3D
:10299000FCCF8091780090E0A0E0B0E060917900F9
:1029A000362F20E0442737FD4095542F282B392B14
:1029B0004A2B5B2B60E070E381E190E00E942525CB
:1029C000CA01B90108952F923F924F925F926F9280
:1029D0007F928F929F92AF92BF92CF92DF92EF92AF
:1029E000FF920F931F93DF93CF9300D000D000D0BE
:1029F000CDB7DEB79E838D837A8369830E94B71437
:102A00001B012C01882499248CE4682E712C2D81C3
:102A10003E81620E731E285B3F4F3C832B8354C064
:102A2000ED81FE8186890E94B60FED81FE8197A31C
:102A300086A3E0ACF1AC02AD13ADAA2797FDA0953B
:102A4000BA2FBC01CD010E9464235B016C01A80177
:102A500097010E94602220E030E040E85AE30E94A3
:102A600018249B01AC01C801B7010E9461229B019F
:102A7000AC01ED81FE8160AF71AF82AF93AFC60153
:102A8000B5010E9460229B01AC01ED81FE8160AB2B
:102A900071AB82AB93AB0E9418249B01AC01EB811C
:102AA000FC816083718382839383F30160817181F0
:102AB000828193810E946122F3016083718382830A
:102AC00093830894811C911C29813A818216930674
:102AD00008F4A6CFB90180E090E00E9462239B0138
:102AE000AC01F30160817181828193810E94C922CE
:102AF0000E947F247B018C01B101882777FD80959E
:102B0000982F0E94642320E030E04AE754E40E94BA
:102B1000C92220E030E040E85AE30E941824ED8109
:102B2000FE81248D358D468D578D0E941824A80175
:102B300097010E941824ED81FE81608B718B828B3E
:102B4000938B80E090E0A0E0B0E0F301808391837C
:102B5000A283B383ED81FE81208931894289538923
:102B6000B901CA0126960FB6F894DEBF0FBECDBFDD
:102B7000CF91DF911F910F91FF90EF90DF90CF9059
:102B8000BF90AF909F908F907F906F905F904F908D
:102B90003F902F9008952F923F924F925F926F92A5
:102BA0007F928F929F92AF92BF92CF92DF92EF92DD
:102BB000FF920F931F93DF93CF93CDB7DEB7AE97FE
:102BC0000FB6F894DEBF0FBECDBF9EA78DA77E8740
:102BD0006D878A010E94B71469877A878B879C87E3
:102BE0000E940A0F3B014C0128E5222E312C2DA515
:102BF0003EA5220E331EC801A0E0B0E089A79AA727
:102C0000ABA7BCA7ADA5BEA554968C910E94B60FEC
:102C1000F10191838083AA2797FDA095BA2FBC016B
:102C2000CD010E9464237B018C012DEC3CEC4CE037
:102C300054E40E94C52287FD02C0AA240DC0AA2424
:102C4000C801B70126E636E646EE53E40E94142496
:102C5000181614F4AA24A3940E940A0F661977097F
:102C60008809990929A53AA54BA55CA52617370718
:102C70004807590710F0AA2029F20E940A0F698319
:102C80007A838B839C8318861F821E821D824DA5AA
:102C90005EA5405C5F4F5A8F498F8DA59EA58C5BCA
:102CA0009F4F9C8F8B8FADA5BEA5A85BBF4FBE8FDE
:102CB000AD8FEDA5FEA5E45BFF4FF8A3EF8F2DA52B
:102CC0003EA5205B3F4F3AA329A34DA55EA54C5AD4
:102CD0005F4F5CA34BA38DA59EA5865A9F4F9EA3D5
:102CE0008DA39BE5292E312CADA5BEA52A0E3B1E3A
:102CF000A85ABF4FB8A7AFA31CC021E0F1012083A1
:102D000002C0D1011C92ED81FE81319729F4D101DD
:102D10008C91EDA1FEA18083ADA1BEA19C91F1019A
:102D20008081981731F02F8138852F5F3F4F38878A
:102D30002F834F8158858D859E854817590708F048
:102D400025C10E940A0F29813A814B815C81621B57
:102D5000730B840B950B29A53AA54BA55CA56217AF
:102D600073078407950708F011C14D815E814F5F9D
:102D70005F4F5E834D83EDA5FEA584A595A5A6A511
:102D8000B7A580A791A7A2A7B3A784890E94B60F71
:102D9000ADA5BEA595969C938E93949756968C91CF
:102DA0000E94B60F7C01EDA5FEA597A386A3A4A85B
:102DB000B5A8C6A8D7A844A055A0B201882777FD1A
:102DC0008095982F0E9464233B014C01A601950138
:102DD0000E94602220E030E040E85AE30E9418247C
:102DE0009B01AC01C601B5010E9461229B01AC01AF
:102DF000ADA5BEA5D4966D937D938D939C93D797E7
:102E0000C401B3010E9460223B014C01EDA5FEA567
:102E100064A775A786A797A7A0ACB1ACC2ACD3AC8A
:102E20000027F7FC0095102FC801B7010E9464230A
:102E30007B018C01A60195010E94602220E030E018
:102E400040E85AE30E9418249B01AC01C601B50179
:102E50000E9461229B01AC01ADA5BEA5D8966D93E1
:102E60007D938D939C93DB97C801B7010E946022EC
:102E70005B016C01EDA5FEA560AB71AB82AB93ABC2
:102E8000C401B301A40193010E9418249B01AC0169
:102E9000A98DBA8D6D937D938D939C931397EB8D34
:102EA000FC8D60817181828193810E946122AB8D52
:102EB000BC8D6D937D938D939C931397C601B50143
:102EC000A60195010E9418249B01AC01ED8DFE8D99
:102ED0006083718382839383AF8DB8A16D917D915F
:102EE0008D919C910E946122EF8DF8A16083718386
:102EF00082839383ADA5BEA59896ED90FD900D912C
:102F00001C919B97C401B301A80197010E94602204
:102F1000EDA5FEA520A131A142A153A10E94182434
:102F20009B01AC01C801B7010E946122ADA5BEA5FD
:102F3000DC966D937D938D939C93DF97A60195010D
:102F40000E9418249B01AC01E9A1FAA1608371835E
:102F500082839383ABA1BCA16D917D918D919C9156
:102F60000E946122EBA1FCA1608371838283938321
:102F7000D1018C91EDA1FEA18083AFA1B8A58D9167
:102F80009C91841595050CF4B8CEBBCEE985FA85E5
:102F9000BF01882777FD8095982F0E94642320E049
:102FA00030E04AE754E40E94C92220E030E040E8E3
:102FB0005AE30E9418247B018C01ADA5BEA558964A
:102FC0002D913D914D915C915B970E9418246F87E4
:102FD000788B898B9A8BED81FE81BF0180E090E038
:102FE0000E9462235B016C012DA53EA52C5B3F4F27
:102FF0003C8B2B8BD9016D917D918D919C91A6017C
:1030000095010E94C9220E947F249B01AC016F851B
:10301000788989899A890E9418241B012C01EDA5C1
:10302000FEA56487758786879787C801B701248DB9
:10303000358D468D578D0E9418247B018C012DA55E
:103040003EA5245B3F4F3E8B2D8BD9016D917D9129
:103050008D919C91A60195010E94C9220E947F2416
:103060009B01AC01C801B7010E9418243B014C012F
:10307000EDA5FEA5608B718B828B938B6F85788914
:1030800089899A89A80197010E9418242DA53EA537
:103090002C5A3F4F388F2F8BD9012D913D914D9157
:1030A0005C910E941824A60195010E94C9227B010F
:1030B0008C01EDA5FEA56083718382839383C20199
:1030C000B101A40193010E9418249B01AC01ADA59C
:1030D000BEA514966D937D938D939C931797C8010D
:1030E000B7010E94C922EDA5FEA56087718782877E
:1030F000938780E090E0A0E0B0E0EB89FC898083DA
:103100009183A283B383ED89FE8980839183A28317
:10311000B383EF89F88D80839183A283B383AE96C6
:103120000FB6F894DEBF0FBECDBFCF91DF911F91D8
:103130000F91FF90EF90DF90CF90BF90AF909F9056
:103140008F907F906F905F904F903F902F90089559
:10315000FC0113861586148687E090E0128631976D
:10316000009711F00197FACF0895DC0180E00BC0C1
:10317000E82FF0E08D9190E0E827F927ED56FD4F1C
:10318000E49161508E2F662399F70895DF92EF92B4
:10319000FF920F931F93FC01E08001811281F8944C
:1031A000F80181818E2981838281DE2CD0948D214A
:1031B000828383E090E00E94710FF80181818D216C
:1031C00081838AE090E00E94710FF8010081789479
:1031D00085E390E00E94710F80E010E0FF240E2153
:1031E0001F21012B09F081E01F910F91FF90EF90BB
:1031F000DF900895EF92FF920F931F93CF93DF9389
:103200007C0101E010E0C0E0D0E0C7010E94C618D8
:103210008111102B000F2196C830D105B1F7812FF5
:10322000DF91CF911F910F91FF90EF9008951F9321
:10323000CF93DF93FC011081C181D281912F9095B2
:1032400060FF12C0F8948A8189238A838981812B47
:1032500089838AE090E00E94710F8A81812B8A83A2
:10326000789487E390E011C0F8948A8189238A8357
:103270008981812B898381E490E00E94710F8A818A
:10328000812B8A83789485E090E00E94710FDF9112
:10329000CF911F910895CF92DF92EF92FF920F93FB
:1032A0001F93CF93DF938C01E42EFF24F394C0E0AF
:1032B000D0E0C62EDD2460E08F2D90E08C219D2192
:1032C000892B09F061E0C8010E941719FF0C2196B3
:1032D000C830D10581F7EE20A9F4F894D8011196F1
:1032E000ED91FC91129791818C9180959823918317
:1032F0001196ED91FC91129792818C918095982373
:1033000092837894DF91CF911F910F91FF90EF906E
:10331000DF90CF9008956CEC40E00E944B19089527
:10332000EF92FF920F931F93CF93DF938C017B015A
:1033300065E540E00E944B19C0E0D0E0F701EC0FDA
:10334000FD1FC801608140E00E944B192196C830E2
:10335000D105A1F7DF91CF911F910F91FF90EF90D1
:103360000895DF92EF92FF920F931F93CF93DF9315
:10337000FC010081C181D281F8948981D02ED09442
:103380008D21898378941DE7E02EFF24115059F197
:1033900082E090E00E94710F888190E08E219F2151
:1033A000892BA1F3F8948A818D218A838981802BCE
:1033B0008983789480EE91E00E94710FF89489815E
:1033C0008D21898386E490E00E94710F888110E04E
:1033D00090E0E822F922EF2809F411E078948AE9D4
:1033E00091E00E94710F812FDF91CF911F910F917A
:1033F000FF90EF90DF900895AF92BF92DF92EF922F
:10340000FF920F931F93CF93DF93EC015B018D85A8
:10341000882309F061C0CE010E94B119882329F4E4
:103420001B861D861C8690E06BC0CE0160EF40E0DD
:103430000E944B1901E0DD24EE24FF24F394CE0119
:103440000E94C618182FCE010E94C618113019F418
:103450008130E1F439C0181709F58B85081770F42D
:1034600060E0FE01EE0DF11D838190E02F2D30E034
:1034700082239323181619064CF003C060E0081746
:1034800029F0093008F04CC00C874AC0FE01EE0D4F
:10349000F11D83818F29838361E009C0612FFE01C3
:1034A000EE0DF11D9F2D9095838189238383CE019D
:1034B0000E9417190F5FFF0C19F4E394FF24F39493
:1034C00087E08E1508F0BBCF013430F0DB86DD20BD
:1034D00011F581E08D871FC01B861D861C8690E03C
:1034E000DE0120E030E0F501E20FF31F13968C912E
:1034F000139780832F5F3F4F11962830310599F73E
:10350000892FDF91CF911F910F91FF90EF90DF9066
:10351000BF90AF9008958B818823F1F291E0E0CFC6
:10352000D02EBDCFFF920F931F938C01F62E862FC6
:1035300060E00E94D80F8F2D90E0FC01E85BFD4F0A
:10354000E491D801EC938C5C9D4FFC016491E62FD3
:10355000F0E0EE0FFF1FE65DFD4F8591949112960E
:103560009C938E9311971B961C921B971D961C92F1
:103570001D971C961C92F80187E090E01286319707
:10358000009711F00197FACF1F910F91FF900895C6
:10359000FC0181E99BE1928B818B768365831482A8
:1035A000108289E0818381E0828383830895FC0116
:1035B000848108956F927F928F929F92AF92BF9273
:1035C000CF92DF92EF92FF920F931F93CF93DF93EF
:1035D000FB01EA01998180E0288130E0282B392B1A
:1035E000E081E23231F0E83221F0E03109F084C0CC
:1035F0004BC04C814F3329F1403420F44F3109F056
:103600007BC02FC04F3579F04F3709F075C0B90135
:10361000882777FD8095982F0E94642320E030E072
:1036200040E85DE32EC035952795B901882777FDE1
:103630008095982F0E94642320E030E040E05EE314
:1036400020C03595279535952795B901882777FDB1
:103650008095982F0E94642320E030E040E85EE3EC
:1036600010C093E0359527959A95E1F7B901882721
:1036700077FD8095982F0E94642320E030E040E0A1
:103680005FE30E94182432C0EF8035952795B90179
:10369000882777FD8095982F0E94642320E030E0F2
:1036A00040E85EE30E9460223B014C016E2D70E019
:1036B0002E81621B7109882777FD8095982F0E94C3
:1036C00064235B016C01FF2400E010E0C801B70136
:1036D0000E9462239B01AC01C601B5010E94C92270
:1036E0009B01AC01C401B3010E9461229B01AC01AA
:1036F000832F942F752F00C0262F382F492F572F37
:10370000B901CA01DF91CF911F910F91FF90EF9006
:10371000DF90CF90BF90AF909F908F907F906F90F1
:1037200008950895EF92FF920F931F938C017B01F0
:10373000FC01858196810E94B119F80185819681ED
:10374000B7010E949019F8018581968164EB40E0F1
:103750000E944B19F801858196810E94C618F82EA7
:10376000F801858196810E94B11980E0FF2009F45B
:1037700081E01F910F91FF90EF900895EF92FF92DB
:103780000F931F93CF93DF93EC018B017A018D810F
:103790009E810E94B1198D819E81B8010E9490196D
:1037A0008D819E816EE440E00E944B198D819E8147
:1037B000F701628140E00E944B198D819E81F701E3
:1037C000638140E00E944B19F8018081803139F01B
:1037D0008D819E81F701648140E00E944B198D81AB
:1037E0009E810E94B1198D819E8168E448810E946A
:1037F0004B198881882331F06AE070E080E090E026
:103800000E94180F8D819E810E94B119DF91CF9186
:103810001F910F91FF90EF900895CF92DF92EF925A
:10382000FF920F931F938C016B017A01FC0185813C
:1038300096810E94B119F80185819681B6010E9496
:103840009019F801858196816EEB40E00E944B193A
:10385000F801858196810E94FA18F7018083F801AA
:10386000858196810E94FA18F7018183F80185818C
:1038700096810E94FA18F7018283F801858196816A
:103880000E94FA18F7018383F801858196810E94CE
:10389000FA18F7018483F801858196810E94FA184D
:1038A000F7018583F801858196810E94FA18F70156
:1038B0008683F801858196810E94FA18F701878333
:1038C000F801858196810E94FA18F7018087F80136
:1038D000858196810E94B1191F910F91FF90EF9001
:1038E000DF90CF900895DF93CF93CDB7DEB72997C0
:1038F0000FB6F894DEBF0FBECDBFAE014F5F5F4F76
:103900000E940D1C8981811181E029960FB6F894DF
:10391000DEBF0FBECDBFCF91DF910895CF92DF9272
:10392000EF92FF920F931F93CF93DF93EC016B0104
:10393000452BE1F08B818823C9F088818823B1F47D
:103940000E940A0F7B018C01CE0160E070E00E94B2
:10395000731C882359F40E940A0F6E197F09800B8B
:10396000910B6E5E72408040904070F3F601608172
:10397000693039F06930A0F06A3041F06B3081F481
:103980000AC06EE570E080E090E00EC06CEB70E085
:1039900080E090E009C067E771E080E090E004C05B
:1039A0006EEE72E080E090E00E94180FDF91CF9100
:1039B0001F910F91FF90EF90DF90CF900895CF93DC
:1039C000DF93EC018D819E810E94B1198D819E81D2
:1039D0000E948B198D819E8164E448810E944B195D
:1039E0008A81882339F0CE012196BE0140E050E063
:1039F0000E948E1CDF91CF9108950F931F938A012F
:103A00000E940D1CC80168E00E94B51820E0F80172
:103A10009085891709F421E0822F1F910F91089555
:103A2000CF92DF92EF92FF920F931F93DF93CF938A
:103A3000CDB7DEB729970FB6F894DEBF0FBECDBF66
:103A40008C017B016E010894C11CD11CA6010E944F
:103A5000FD1C882329F460E070E08EEF92EC05C035
:103A6000C801B701A6010E94DA1A29960FB6F89488
:103A7000DEBF0FBECDBFCF91DF911F910F91FF90A1
:103A8000EF90DF90CF900895DF93CF93CDB7DEB75F
:103A900029970FB6F894DEBF0FBECDBF9C01FB0186
:103AA00080818031D9F0C901AE014F5F5F4F0E9424
:103AB000FD1C8823A9F08D818F3371F0803418F4B8
:103AC0008F3171F40BC08F3519F08F3749F402C074
:103AD0008BE007C08CE005C08AE003C089E001C02C
:103AE00080E029960FB6F894DEBF0FBECDBFCF9110
:103AF000DF910895CF92DF92EF92FF921F93DF93B1
:103B0000CF93CDB7DEB729970FB6F894DEBF0FBEBF
:103B1000CDBF6C017B01142FAE014F5F5F4F0E9440
:103B2000FD1C8823E1F0F70180818031B9F01A3063
:103B300051F01A3050F01B3021F01C3031F48FE777
:103B400005C08FE503C08FE301C08FE18D83C601FF
:103B5000B701AE014F5F5F4F0E94BE1B81E0299607
:103B60000FB6F894DEBF0FBECDBFCF91DF911F918E
:103B7000FF90EF90DF90CF9008950F931F938B01EC
:103B8000CB0167E00E94B51820E0F8019781891702
:103B900009F421E0822F1F910F910895AF92BF92F7
:103BA000CF92DF92EF92FF920F931F93DF93CF9309
:103BB000CDB7DEB761970FB6F894DEBF0FBECDBFAD
:103BC0007C01FC01858196810E94A818F70114826E
:103BD0006E010894C11CD11C79E0A72EB12CAC0E4B
:103BE000BD1E01E02BC0C701B6010E94BD1D882388
:103BF00029F1F7018081882341F4C701B6010E94B1
:103C0000921B882311F0F7010083C701B601A501BB
:103C10000E940D1CF7011181C701B6010E94441DCD
:103C2000811718F4F701818104C0C701B6010E9411
:103C3000441DF701818384818F5F8483F70185812F
:103C40009681B6010E94FC19882369F661960FB629
:103C5000F894DEBF0FBECDBFCF91DF911F910F91C2
:103C6000FF90EF90DF90CF90BF90AF900895FC0150
:103C70001382128280E293E0918380836483418780
:103C8000228713860895CF92DF92EF92FF920F93CF
:103C90001F936C01062F8AE1E82E86E0F82EC701FB
:103CA000F60164810E946D1F10E0F601838590E0AB
:103CB000082B192BC701602F0E94EF1FC7010E941C
:103CC00032201F910F91FF90EF90DF90CF900895D9
:103CD000FF920F931F938C01F62E64600E94431E87
:103CE00081E090E00E94710F8BEFF822C8016F2DE8
:103CF0000E94431E82E390E00E94710F1F910F917A
:103D0000FF900895FF920F931F938C01F62E0E944F
:103D1000431EC8016F2D0E94681E1F910F91FF90D6
:103D20000895EF92FF920F931F937C01162F042F9B
:103D3000607F642B0E94821E1295107F102BC7019A
:103D4000612F0E94821E1F910F91FF90EF900895A6
:103D500041E00E94911E80E090E0089540E00E94C2
:103D6000911E0895FC016681862F846086836C60B5
:103D7000CF010E94AE1E0895DF93CF93CDB7DEB77B
:103D800028970FB6F894DEBF0FBECDBF9C01FE0191
:103D90003196A4E2B3E088E00D9001928150E1F702
:103DA000F9018085841710F4482F4150E42FF0E08A
:103DB000EE0FFF1FEC0FFD1F8181680F6068C901C6
:103DC0000E94AE1E28960FB6F894DEBF0FBECDBF80
:103DD000CF91DF91089562E00E94AE1E80ED97E0E2
:103DE0000E94710F089561E00E94AE1E80ED97E081
:103DF0000E94710F0895FC0188E08387CF0160E085
:103E00000E94431E0895CF93DF93EC01423018F0D7
:103E10008D8188608D834887222329F0413019F4F1
:103E20008D8184608D8362E370E080E090E00E9489
:103E3000180FCE016B850E94431E68EE73E080E090
:103E400090E00E94180FCE0160E30E94821E84E978
:103E500091E10E94710FCE0160E30E94821E84E90D
:103E600091E10E94710FCE0160E30E94821E86E9FB
:103E700090E00E94710FCE0160E20E94821E6D816F
:103E80006062CE010E94AE1E84E08E83CE010E944D
:103E9000B21ECE010E94F31E82E08F83CE0166E047
:103EA0000E94AE1ECE010E94EB1EDF91CF910895BD
:103EB0000F931F938C018AE196E00E943620F8014F
:103EC0001582C8016185428520E00E94031F1F9171
:103ED0000F9108950E94581F089581E0809319065C
:103EE0006093F60510921706109218060895209117
:103EF000F50530E08091F405281B3109C9010895CA
:103F00004091F4058091F505481718F02FEF3FEF29
:103F10000AC0E42FF0E0EC52FA4F8081282F30E005
:103F20004F5F4093F405C9010895E091F405809135
:103F3000F505E81718F0EFEFFFEF06C0F0E0EC52E0
:103F4000FA4F8081E82FF0E0CF0108950895109294
:103F50001D0610921C0688EE93E0A0E0B0E080936E
:103F60001E0690931F06A0932006B093210680E3BF
:103F700093E090931B0680931A060895CF92DF92E8
:103F8000EF92FF920F931F93CF93DF937C016B010E
:103F90008A01809119068823A1F0C0E0D0E00DC00D
:103FA000D701ED91FC91D601AC0FBD1F0190F081BE
:103FB000E02DC7016C9109952196C017D10780F3B8
:103FC00004C0CB01642F0E949620C801DF91CF91DD
:103FD0001F910F91FF90EF90DF90CF900895DF93A6
:103FE000CF930F92CDB7DEB7FC016983809119069C
:103FF0008823C9F080911806803238F081E090E083
:104000009383828320E030E015C080911706E82F6B
:10401000F0E0E950FA4F998190838F5F8093170603
:104020008093180605C0CE01019661E00E9496209B
:1040300021E030E0C9010F90CF91DF9108950F93F7
:10404000062F8091F60567EF75E04091180621E094
:104050000E9441201092170610921806109219061D
:104060000F91089561E00E941F2008951092F405B9
:104070001092F50510921706109218060E9442221F
:1040800008950F931F93582F122F413210F081E0A3
:104090004AC0809126068823E1F782E080932606B5
:1040A000009328068FEF8093930610924E0640935C
:1040B0004F06AEE2B6E0FB0102C081918D938E2FD8
:1040C000861B8417D0F31092270680912706550F80
:1040D000852B8093270680912906813041F4109228
:1040E0002906809127068093BB0085EC01C085EEF0
:1040F0008093BC00112321F0809126068230E1F3E9
:10410000809193068F3F11F480E00DC0809193065B
:10411000803211F482E007C080919306803311F061
:1041200084E001C083E01F910F910895482F613210
:1041300010F081E0089580912606843011F082E02D
:10414000089560937106A0E5B6E0842F9C01F90103
:1041500002C081918D938E2F841B8617D0F380E04F
:1041600008951F920F920FB60F9211242F933F9331
:104170004F935F936F937F938F939F93AF93BF936F
:10418000EF93FF938091B90090E0887F9070803624
:10419000910509F4F2C081369105CCF5883291057C
:1041A00009F47BC089329105B4F48031910509F49A
:1041B0006FC0813191053CF4009709F447C108971D
:1041C00009F04FC165C08831910509F466C0809738
:1041D00009F047C182C08034910509F4A4C081343C
:1041E000910544F48033910509F482C0C89709F021
:1041F00038C189C08035910509F489C08835910599
:1042000009F496C08834910509F02BC1AEC08839F5
:10421000910509F413C189399105ECF488379105AA
:1042200009F4ABC0893791054CF48836910509F43F
:10423000A4C08037910509F014C19FC0883891054A
:1042400009F4FCC08039910509F49DC080389105BE
:1042500009F007C198C0803B910509F4C6C0813BB5
:1042600091054CF4803A910509F49FC0883A910574
:1042700009F0F7C0BAC0803C910509F4E3C0883C5E
:10428000910509F4DFC0883B910509F0EAC0C2C07E
:10429000809127068093BB00CFC090914E068091FD
:1042A0004F06981768F490914E06E92FF0E0E25D12
:1042B000F94F80818093BB009F5F90934E06BCC0F6
:1042C00080912806882309F44BC085ED8093BC00BB
:1042D0008091BC0084FDFCCFC2C080E28093930635
:1042E00085ED8093BC008091BC0084FDFCCFB7C0FD
:1042F00080E38093930685ED8093BC008091BC00A1
:1043000084FDFCCFACC088E3809393069BC0809172
:104310004E069091BB00E82FF0E0E25DF94F9083EC
:104320008F5F80934E0690914E0680914F0682C01B
:1043300080914E069091BB00E82FF0E0E25DF94FCE
:1043400090838F5F80934E0680912806882341F0EA
:1043500085ED8093BC008091BC0084FDFCCF7FC0C4
:1043600081E08093290684EA6EC085ED8093BC00CD
:104370008091BC0084FDFCCF72C083E08093260650
:104380001092920659C080919206803208F056C071
:10439000809192069091BB00E82FF0E0EE58F94F23
:1043A00090838F5F8093920647C0809192068032FF
:1043B00030F4E0919206F0E0EE58F94F108285ED6E
:1043C0008093BC008091BC0084FDFCCF1092260637
:1043D00060919206E0912C06F0912D0682E796E01E
:1043E00070E00995109292062DC084E08093260615
:1043F0001092700610927106E0912A06F0912B0639
:10440000099580917106882329F481E080937106D3
:104410001092500690917006E92FF0E0E05BF94FA2
:1044200080818093BB009F5F90937006909170068F
:1044300080917106981710F485EC01C085E880938F
:10444000BC000FC085EC8093BC0009C0109293069D
:1044500085ED8093BC008091BC0084FDFCCF109260
:104460002606FF91EF91BF91AF919F918F917F9120
:104470006F915F914F913F912F910F900FBE0F90D1
:104480001F9018951092260681E0809328061092BE
:10449000290682E161E00E94171083E161E00E9439
:1044A0001710E9EBF0E080818E7F808380818D7F23
:1044B000808388E48093B80085E48093BC000895ED
:1044C0005058BB27AA270ED075C166D130F06BD1EA
:1044D00020F031F49F3F11F41EF45BC10EF4E0951F
:1044E000E7FB51C1E92F77D180F3BA176207730751
:1044F0008407950718F071F49EF58FC10EF4E095CE
:104500000B2EBA2FA02D0B01B90190010C01CA018D
:10451000A0011124FF27591B99F0593F50F4503E38
:1045200068F11A16F040A22F232F342F4427585F2A
:10453000F3CF469537952795A795F0405395C9F742
:104540007EF41F16BA0B620B730B840BBAF09150FA
:10455000A1F0FF0FBB1F661F771F881FC2F70EC099
:10456000BA0F621F731F841F48F48795779567956C
:10457000B795F7959E3F08F0B3CF9395880F08F055
:104580009927EE0F979587950895D9D008F481E083
:1045900008950CD00FC107D140F0FED030F021F4C7
:1045A0005F3F19F0F0C0511139C1F3C014D198F335
:1045B0009923C9F35523B1F3951B550BBB27AA27A4
:1045C00062177307840738F09F5F5F4F220F331F16
:1045D000441FAA1FA9F333D00E2E3AF0E0E830D0E2
:1045E00091505040E695001CCAF729D0FE2F27D0E5
:1045F000660F771F881FBB1F261737074807AB07B3
:10460000B0E809F0BB0B802DBF01FF2793585F4F27
:104610002AF09E3F510568F0B6C000C15F3FECF341
:10462000983EDCF3869577956795B795F7959F5FEC
:10463000C9F7880F911D9695879597F90895E1E040
:10464000660F771F881FBB1F621773078407BA079F
:1046500020F0621B730B840BBA0BEE1F88F7E095FA
:10466000089504D06894B111D9C00895BCD088F0E1
:104670009F5790F0B92F9927B751A0F0D1F0660F4E
:10468000771F881F991F1AF0BA95C9F712C0B13069
:1046900081F0C3D0B1E00895C0C0672F782F88277C
:1046A000B85F39F0B93FCCF3869577956795B395A8
:1046B000D9F73EF490958095709561957F4F8F4F17
:1046C0009F4F0895E89409C097FB3EF4909580951C
:1046D000709561957F4F8F4F9F4F9923A9F0F92FC8
:1046E00096E9BB279395F695879577956795B79546
:1046F000F111F8CFFAF4BB0F11F460FF1BC06F5F2C
:104700007F4F8F4F9F4F16C0882311F096E911C03D
:10471000772321F09EE8872F762F05C0662371F05E
:1047200096E8862F70E060E02AF09A95660F771F72
:10473000881FDAF7880F9695879597F90895990F4E
:104740000008550FAA0BE0E8FEEF16161706E8075B
:10475000F907C0F012161306E407F50798F0621B7C
:10476000730B840B950B39F40A2661F0232B242B51
:10477000252B21F408950A2609F4A140A6958FEF70
:10478000811D811D089597F99F6780E870E060E0C2
:1047900008959FEF80EC089500240A9416161706DA
:1047A00018060906089500240A9412161306140622
:1047B00005060895092E0394000C11F4882352F085
:1047C000BB0F40F4BF2B11F460FF04C06F5F7F4F3D
:1047D0008F4F9F4F089557FD9058440F551F59F024
:1047E0005F3F71F04795880F97FB991F61F09F3FDE
:1047F00079F087950895121613061406551FF2CF07
:104800004695F1DF08C0161617061806991FF1CF56
:1048100086957105610508940895E894BB2766277D
:104820007727CB0197F908958ADF08F48FEF089571
:104830000BD0C0CFB1DF28F0B6DF18F0952309F018
:10484000A2CFA7CF1124EACFC6DFA0F3959FD1F363
:10485000950F50E0551F629FF001729FBB27F00D2E
:10486000B11D639FAA27F00DB11DAA1F649F662783
:10487000B00DA11D661F829F2227B00DA11D621FD2
:10488000739FB00DA11D621F839FA00D611D221F8C
:10489000749F3327A00D611D231F849F600D211D70
:1048A000822F762F6A2F11249F5750408AF0E1F013
:1048B00088234AF0EE0FFF1FBB1F661F771F881F5C
:1048C00091505040A9F79E3F510570F05CCFA6CFA4
:1048D0005F3FECF3983EDCF3869577956795B79547
:1048E000F795E7959F5FC1F7FE2B880F911D969571
:1048F000879597F9089511F40EF44BCF4EC073DFEE
:10490000D0F39923D9F3CEF39F57550B87FF55D09A
:1049100056959795B0E020F4660F771F881FBB1F50
:104920001F930F9300249001A0018001F001A0E8E3
:104930000E0F1F1F0A1E511D601B710B8009B50B46
:1049400048F4600F711F801DB51F0E1B1F0B0A0A54
:10495000510907C02E0F3F1F4A1F0E0F1F1F0A1EAF
:10496000511D660F771F881FBB1FA695F795E7950A
:10497000F8F60617170708065B07211D311D411DB4
:104980000F911F91B901842F9158880F96958795A3
:104990000895D5DE880B990B08959F3F49F09150FB
:1049A00028F4869577956795B7959F5F80389F4FD8
:1049B000880F9695879597F9089591505040660F06
:1049C000771F881FD2F70895629FD001739FF0016F
:1049D000829FE00DF11D649FE00DF11D929FF00D8F
:1049E000839FF00D749FF00D659FF00D9927729FC6
:1049F000B00DE11DF91F639FB00DE11DF91FBD0151
:104A0000CF0111240895A1E21A2EAA1BBB1BFD01A0
:104A10000DC0AA1FBB1FEE1FFF1FA217B307E4079D
:104A2000F50720F0A21BB30BE40BF50B661F771FF5
:104A3000881F991F1A9469F76095709580959095D5
:104A40009B01AC01BD01CF01089597FB092E0526FE
:104A50000ED057FD04D0D7DF0AD0001C38F4509593
:104A60004095309521953F4F4F4F5F4F0895F6F792
:104A700090958095709561957F4F8F4F9F4F0895CA
:104A8000EE0FFF1F0590F491E02D0994F894FFCFED
:104A9000656D6F6E50692056004F70656E456E658E
:104AA0007267794D6F6E69746F722E6F72670070E6
:104AB0006C6561736520776169742E2E2E2E2E0031
:104AC0004F4B200020282D30290043542031204313
:104AD000616C3A2000435420322043616C3A20003C
:104AE00056524D53204143207E00560041432057EB
:104AF0006176652044657465637465640041432094
:104B000057617665204465746563746564202D2063
:104B10005265616C20506F7765722063616C632011
:104B2000656E61626C656400555341206D6F64650C
:104B3000005663616C3A20005068617365205368C9
:104B40006966743A20004143204E4F5420446574F6
:104B50006563746564004143204E4F54206465745E
:104B60006563746564202D204170706172656E7498
:104B700020506F7765722063616C6320656E61629F
:104B80006C656400417373756D696E672056524D94
:104B9000533A00446574656374656420006E6F2049
:104BA0004354206465746563746564004E6F2043EC
:104BB0005427730043542031206465746563740086
:104BC000435431200043542032206465746563747B
:104BD00000435432004465746563742000204453DC
:104BE00031384232300044657465637465643A203C
:104BF00000445331384232302054656D700030200B
:104C0000445331384232302064657465637465649E
:104C10000052464D3639435720496E69743A200098
:104C20004E6F646520002046726571200034333376
:104C30004D687A003836384D687A003931354D681C
:104C40007A00204E6574776F726B20004F70656E2E
:104C5000456E657267794D6F6E004F4B00200028DE
:104C6000002900202D3E2061636B00206900206731
:104C70000020402000204D487A002055534120005C
:104C80006E616E00696E66006F7666002E00CDCC98
:104C9000CC3D297C8643010105D2000100000000C3
:104CA000070B9D0B9D0ACE0AAE0AF70A0000000012
:104CB000A81E9D0B000040001400540000000000DE
:0C4CC000EF1FBE1F771F801F951FA61F4F
:00000001FF
