:100000000C94B2010C9400190C942D190C94DA0183
:100010000C94DA010C94DA010C946B090C94DA015B
:100020000C94DA010C94DA010C94DA010C94DA01E4
:100030000C94DA010C94DA010C94DA010C94DA01D4
:100040000C945A190C94DA010C94571B0C94A51BB0
:100050000C94DA010C94DA010C94DA010C94DA01B4
:100060000C9440210C94DA0120620A00202D3E20DD
:10007000000A417661696C61626C6520636F6D6D29
:10008000616E64733A0A20203C6E6E3E2069202027
:100090002020202D20736574206E6F6465204944F4
:1000A00020287374616E64617264206E6F646520D1
:1000B0006964732061726520312E2E3330290A2045
:1000C000203C6E3E20622020202020202D207365C1
:1000D00074204D487A2062616E64202834203D20CF
:1000E0003433332C2038203D203836382C2039202A
:1000F0003D20393135290A20203C6E6E6E3E206746
:10010000202020202D20736574206E6574776F7217
:100110006B2067726F7570202852464D3132206F08
:100120006E6C7920616C6C6F7773203231322C20C9
:1001300030203D20616E79290A20203C6E3E2063EC
:100140002020202020202D2073657420636F6C6C8C
:10015000656374206D6F64652028616476616E63E9
:1001600065642C206E6F726D616C6C792030290A89
:1001700020202E2E2E2C3C6E6E3E2061202D2073D2
:10018000656E642064617461207061636B657420C6
:10019000746F206E6F6465203C6E6E3E2C2072651D
:1001A00071756573742061636B0A20202E2E2E2CCE
:1001B0003C6E6E3E2073202D2073656E642064615A
:1001C0007461207061636B657420746F206E6F645E
:1001D00065203C6E6E3E2C206E6F2061636B0A00C2
:1001E000010402000302048A050506C30B2019421C
:1001F0001E2C25802E882F2D370038003C8F3D1077
:100200006F2000005EBCE2613FDD83C29C7E20A3C4
:10021000FD1F419DC3217FFCA2401E5F01E3BD3E47
:100220006082DC237D9FC1421CFEA0E1BF5D038094
:10023000DE3C62BEE0025CDF81633D7C22C09E1D2D
:1002400043A1FF4618FAA427799BC584DA3866E5EE
:10025000BB5907DB856739BAE406581947A5FB780F
:1002600026C49A653BD987045AB8E6A7F91B45C648
:10027000987A24F8A6441A99C7257B3A6486D85BF5
:1002800005E7B98CD2306EEDB3510F4E10F2AC2FA2
:100290007193CD114FADF3702ECC92D38D6F31B2DF
:1002A000EC0E50AFF1134DCE90722C6D33D18F0CFC
:1002B00052B0EE326C8ED0530DEFB1F0AE4C1291C5
:1002C000CF2D73CA947628ABF517490856B4EA695E
:1002D00037D58B5709EBB536688AD495CB2977F497
:1002E000AA4816E9B7550B88D6346A2B7597C94AC0
:1002F00014F6A8742AC896154BA9F7B6E80A54D77D
:10030000896B3500000000240027002A000000004F
:1003100000250028002B00000000002300260029F3
:10032000000404040404040404020202020202039E
:1003300003030303030102040810204080010204A8
:10034000081020010204081020000000070002012C
:100350000000030406000000000000000000DC01B3
:10036000111D362011241FBECFEFD8E0DEBFCDBF58
:1003700013E0A0E0B1E0EEEAFBE402C005900D92CC
:10038000A438B107D9F716E0A4E8B3E001C01D9284
:10039000A63DB107E1F713E0C4E6D3E004C022971D
:1003A000FE010E94D125CE35D107C9F70E94671DF5
:1003B0000C94D5250C9400000F931F938CE394E0CC
:1003C00067E240E122E00E94941709E414E0C801CA
:1003D00064E00E94EF1387E594E0B8010E942514C1
:1003E0001F910F910895DF92EF92FF920F931F9349
:1003F000D82E87E594E00E943C166D2D70E083E0D6
:10040000660F771F8A95E1F766597B4F87E594E081
:100410000E946D167B018C0120E030E04AEF52E42F
:100420000E9454238823B4F4C801B70120E030E0CF
:1004300040E252EC0E94A324181664F4C801B701EC
:1004400020E030E040E251E40E94A7240E94C02353
:10045000CB011FC0809148038130D9F484EF95E02F
:1004600060E071E00E94EC1E84EF95E06D2D4AE0A3
:1004700050E00E94681E84EF95E066E071E00E9403
:10048000EC1E84EF95E0B801A70122E030E00E9465
:10049000D61F1F910F91FF90EF90DF9008951F934B
:1004A00087E594E00E942B1787E594E00E943414BE
:1004B00080939A0410E080919A041817A8F5612F90
:1004C00070E023E0660F771F2A95E1F766597B4FAE
:1004D00089E494E00E945913882331F11F5FEBCF28
:1004E000612F70E093E0660F771F9A95E1F76659E8
:1004F0007B4F87E594E04CE00E94D7161F5F9091F8
:100500009A04191768F3992319F41092B40408C0D7
:1005100081E08093B404973018F086E080939A04C9
:1005200080919A041F91089510E0E9CF89E061E07D
:100530000E94701A89E061E00E94AF1A88E062E0D0
:100540000E94701A85E061E00E94701A85E060E008
:100550000E94AF1A84EF95E040E056E960E070E059
:100560000E94E01B84EF95E068E071E00E94EC1EC1
:1005700040914403509145036091460370914703B5
:1005800084EF95E022E030E00E94D31F8091480480
:10059000813039F484EF95E061E171E00E94E91F58
:1005A00006C084EF95E066E171E00E94EC1E84EFE6
:1005B00095E06AE171E00E94E91F84EF95E060E355
:1005C00071E00E94E91F0895CF92DF92EF92FF92AF
:1005D0000F931F93CF93DF936B01EE24FF248701CA
:1005E000C0E0D0E013C080E00E944E1A9C01205071
:1005F0003240442737FD4095542FCA01B9010E946B
:100600007325E60EF71E081F191F2196CC15DD0570
:1006100054F3C801B7010E94F1237B018C01B6019C
:10062000882777FD8095982F0E94F3239B01AC01CA
:10063000C801B7010E9458230E940E25DF91CF9177
:100640001F910F91FF90EF90DF90CF900895CF937F
:10065000DF9381E00E944E1A181619064CF481E0CF
:100660008093B1048091B5048F5F8093B50402C07C
:100670001092B10482E00E944E1A181619064CF42A
:1006800081E08093B2048091B5048F5F8093B504BC
:1006900002C01092B2048091B504882319F481E05D
:1006A0008093B10480E197E20E94C30989E060E091
:1006B0000E94AF1A80E090E064EF76E00E94E402CE
:1006C00022E538EB4EE55FE30E94A7246093AD047A
:1006D0007093AE048093AF049093B00420E030E0B8
:1006E00044EB52E40E94A324181624F481E0809382
:1006F000B30402C01092B3048091B3048823D9F0EC
:10070000C0E0D0E089E061E00E94AF1A68EC70E0E0
:1007100080E090E00E94B01989E060E00E94AF1A8A
:100720006CE271E080E090E00E94B0192196CA303E
:10073000D10541F714C068EE73E080E090E00E94BC
:10074000B01989E061E00E94AF1A60ED77E080E0C7
:1007500090E00E94B01989E060E00E94AF1ADF913A
:10076000CF9108951F93CF93DF93EC01FE01219663
:100770001491112369F01A3029F484EF95E06DE0AB
:100780000E94A01D84EF95E0612F0E94A01DEECF76
:10079000DF91CF911F910895EF92FF920F931F93D6
:1007A000DF93CF93CDB7DEB762970FB6F894DEBF75
:1007B0000FBECDBFDE011196EBE9F4E082E10190BE
:1007C0000D928150E1F784EF95E062E471E00E94C0
:1007D000EC1E84EF95E060914F034AE050E00E94E8
:1007E000681E8E010F5F1F4F33E1E32EF12CEC0EDC
:1007F000FD1E84EF95E060E20E94A01D84EF95E06D
:10080000F80161918F014AE050E00E94681E0E15C8
:100810001F0579F784EF95E066E471E00E94EC1E15
:1008200084EF95E00E94A81D6AE070E080E090E00F
:100830000E94B01962960FB6F894DEBF0FBECDBF0E
:10084000CF91DF911F910F91FF90EF9008958CE36E
:1008500094E00E94501884EF95E06CE471E00E94EF
:10086000EC1E84EF95E04BE85CE662E772E422E080
:1008700030E00E94D61F84EF95E067E571E00E94AA
:10088000EC1E84EF95E04BE85CE662E772E422E060
:1008900030E00E94D61F68EE73E080E090E00E9496
:1008A000B01984EF95E062E671E00E94EC1E409181
:1008B000AD045091AE046091AF047091B00484EF28
:1008C00095E020E030E00E94D31F84EF95E06CE6D5
:1008D00071E00E94E91F8091B3048823D9F18CE371
:1008E00094E06EE671E00E94EC1E84EF95E06FE705
:1008F00071E00E94E91F80914804813031F484EF57
:1009000095E06AEA71E00E94E91F84EF95E063EBED
:1009100071E00E94EC1E4091490350914A0360919E
:100920004B0370914C0384EF95E022E030E00E948D
:10093000D61F84EF95E06AEB71E00E94EC1E84EF15
:1009400095E04AE959E969ED7FE322E030E00E9451
:10095000D61F1FC08CE394E068EC71E00E94EC1E8F
:1009600084EF95E068ED71E00E94E91F84EF95E067
:1009700066E072E00E94EC1E84EF95E066EE4AE0CD
:1009800050E00E94681E84EF95E06CE671E00E94E2
:10099000E91F8CE394E060E041E00E9419188CE3C9
:1009A00094E06BE172E00E94EC1E8091B504882314
:1009B00059F484EF95E065E272E00E94E91F8CE350
:1009C00094E06EE472E01EC08091B104882361F06F
:1009D00084EF95E066E572E00E94E91F8CE394E005
:1009E00064E672E00E94EC1E8091B204882361F0FC
:1009F00084EF95E069E672E00E94E91F8CE394E0E1
:100A000067E772E00E94EC1E8091B4048130C9F562
:100A100084EF95E06BE172E00E94EC1E84EF95E0BC
:100A200060919A044AE050E00E94681E84EF95E0CD
:100A30006BE772E00E94E91F68E873E180E090E0F4
:100A40000E94B0198CE394E00E9450188CE394E06B
:100A500064E872E00E94EC1E8CE394E060919A04DA
:100A60004AE050E00E94681E8CE394E060E041E0C0
:100A70000E9419188CE394E06FE872E00E94EC1E6B
:100A800006C084EF95E06CE972E00E94E91F809156
:100A90004D03813009F048C084EF95E06EEB72E0C1
:100AA0000E94E91F84EF95E06DEC72E00E94EC1E5D
:100AB00084EF95E060914F034AE050E00E94681E89
:100AC00084EF95E063ED72E00E94EC1E80914E038E
:100AD000813031F484EF95E06AED72E00E94EC1E03
:100AE00080914E03823031F484EF95E061EE72E044
:100AF0000E94EC1E80914E03833031F484EF95E028
:100B000068EE72E00E94EC1E84EF95E06FEE72E0FA
:100B10000E94EC1E609150037091510384EF95E0A8
:100B20004AE050E00E94CD1E64EF71E080E090E06A
:100B30000E94B01908958CE394E00E94C7188CE3DA
:100B400094E00E9458188CE394E068E071E00E9401
:100B5000EC1E40914403509145036091460370910F
:100B600047038CE394E022E030E00E94D31F8091A1
:100B70004804813029F48CE394E061E171E004C021
:100B80008CE394E066E171E00E94EC1E8CE394E05B
:100B900060E041E00E9419188CE394E069EF72E094
:100BA0000E94EC1E60ED77E080E090E00E94B019BA
:100BB0008CE394E060E041E00E9419188CE394E03B
:100BC00067E073E00E94EC1E08958091BA048823C8
:100BD000C1F10E94510D8823A1F189E061E00E94DA
:100BE000AF1A68EC70E080E090E00E94B01989E0F4
:100BF00060E00E94AF1A8CE690E00E94B203609120
:100C0000BB0484EF95E070E04AE050E00E94571E7C
:100C100088E690E00E94B2038091BA04813611F018
:100C200080E001C080E29091BC04992311F09064AF
:100C3000892B6DEB74E04091BB040E944E0D109225
:100C4000BA0408951F93CF93DF930E94540D882315
:100C500009F478C01091180580911405909115053C
:100C6000892B09F070C084EF95E068E173E00E9481
:100C7000EC1E84EF95E066E071E00E94EC1E60914E
:100C8000170570E06F71707084EF95E04AE050E0F6
:100C90000E94BA1E84EF95E066E071E00E94EC1EAF
:100CA000C0E0D0E011C0FE01E75EFA4F608184EF42
:100CB00095E070E04AE050E00E94571E84EF95E016
:100CC00060E20E94A01D2196C11768F384EF95E0B1
:100CD0006BE173E00E94EC1E60910F0570E075956A
:100CE0006795709561957F4F84EF95E04AE050E0FD
:100CF0000E94BA1E84EF95E06DE173E00E94EC1E45
:100D000084EF95E00E94A81D8091170585FF1DC006
:100D10008091170587FD19C084EF95E06FE173E0BE
:100D20000E94EC1E8091170586FF02C080E804C077
:100D3000809117058F71806C60E070E040E00E9448
:100D40004E0D03C003C080E001C081E0DF91CF9170
:100D50001F910895CF93DF936AE070E080E090E008
:100D60000E94B01980914F0360914E03409150034F
:100D700020E436E00E947F0DCAE0D0E0D0939C04CE
:100D8000C0939B0480E06BE974E042E10E94670D30
:100D900064E670E080E090E00E94B01921978FEF48
:100DA000CF3FD80759F782E00E942F0D10929C0484
:100DB00010929B04DF91CF9108951F9388E00E94C9
:100DC000031B892B19F485E061E002C085E060E037
:100DD0000E94AF1A84EF95E00E94671C892B09F4EA
:100DE00009C184EF95E00E94981C482F80538A30F7
:100DF000D8F480910305909104059C0173E0220FC3
:100E0000331F7A95E1F7880F991F280F391F205358
:100E10003040842F992787FD9095280F391F3093F4
:100E2000040520930305E6C04C3281F4909105053A
:100E3000963408F0DBC0E92FF0E0E354FB4F8091DB
:100E4000030580839F5F90930505D0C041320CF469
:100E5000CBC0473609F447C048363CF4413609F464
:100E600056C0423609F05EC018C0493621F04337FB
:100E700009F058C04CC0209103053091040521159C
:100E8000310559F020934F0380914D03813009F0D3
:100E90004DC0822F60914E031FC0809103058430A6
:100EA00011F461E009C0883011F462E005C08930B6
:100EB00011F060E001C063E0862F90E0909304059C
:100EC00080930305892B91F160934E0380914D032C
:100ED000813061F580914F034091500320E436E06A
:100EE0000E947F0D23C040910305509104054115D8
:100EF0005105E1F0409350035093510380914D030D
:100F00008130A1F480914F0360914E03E7CF40936D
:100F1000BA04809105058093BB04809103058093FA
:100F2000BC0404C081E790E00E94B20380914D03AD
:100F3000813009F059C084EF95E060E20E94A01D65
:100F400060914F036F71605C84EF95E00E94A01D7B
:100F500084EF95E067E273E00E94EC1E60914F031E
:100F600070E06F71707084EF95E04AE050E00E948D
:100F7000BA1E84EF95E06AE273E00E94EC1E609175
:100F800050037091510384EF95E04AE050E00E94D5
:100F9000BA1E84EF95E06DE273E00E94EC1E809132
:100FA0004E03813019F461EB71E00CC0823019F40A
:100FB00064E673E007C0833019F060E070E002C0BF
:100FC00063E973E084EF95E04AE050E00E94BA1EC6
:100FD00084EF95E061E373E00E94EC1E84EF95E0FE
:100FE00066E071E00E94E91F109205051092040569
:100FF0001092030580914D038130A1F40E942206D6
:10100000813071F489E061E00E94AF1A68EC70E011
:1010100080E090E00E94B01989E060E00E94AF1A81
:101020000E94E5050E94A2192091B6043091B704F0
:101030004091B8045091B904621B730B840B950B5B
:10104000615177428040904008F4BCC08091B30465
:10105000882351F068EC70E080E090E00E94B019C5
:101060001092A00410929F048091B104882309F487
:1010700041C08091B304882359F184E893E064E18E
:1010800070E040ED57E00E94280F6091840370915A
:10109000850380918603909187030E94C0237093FB
:1010A0009C0460939B0460919003709191038091E4
:1010B00092039091930320E030E048EC52E40E94C8
:1010C000A7240E94C0237093A00460939F0412C0C1
:1010D00084E893E068EC75E00E94400E20E030E088
:1010E00046E653E40E94A7240E94C02370939C0408
:1010F00060939B048091B204882309F441C08091DD
:10110000B304882359F180EE93E064E170E040ED90
:1011100057E00E94280F6091E0037091E1038091F5
:10112000E2039091E3030E94C02370939E046093B6
:101130009D046091EC037091ED038091EE0390911A
:10114000EF0320E030E048EC52E40E94A7240E9424
:10115000C0237093A00460939F0412C080EE93E0BC
:1011600068EC75E00E94400E20E030E046E653E473
:101170000E94A7240E94C02370939E0460939D0444
:101180008091B404813091F410E00CC0812F0E9452
:10119000F301E12FF0E0EE0FFF1FEF55FB4F9183BE
:1011A00080831F5F80919A04181780F30E94CC03FC
:1011B0000E94A2196093B6047093B7048093B80498
:1011C0009093B9041F910895EF92FF920F931F938C
:1011D00064E670E080E090E00E94B01980914804DD
:1011E000813061F480E090E0A2E0B3E480934903B1
:1011F00090934A03A0934B03B0934C0380914D030B
:10120000813011F40E94AA060E944F020E949602A9
:101210000E949B050E9427030E9427048091B1042D
:10122000882351F084E893E061E070E02BE83CE62D
:1012300042E752E40E94040E8091B204882351F0E8
:1012400080EE93E062E070E02BE83CE642E752E497
:101250000E94040E8091B3048823C1F18091B104EF
:101260008823C1F02091490330914A0340914B03F8
:1012700050914C0384E893E060E070E00F2EFAE9AF
:10128000EF2EF9E9FF2EF9ED0F2FFFE31F2FF02DC1
:101290000E94E80D8091B2048823C1F02091490397
:1012A00030914A0340914B0350914C0380EE93E000
:1012B00060E070E00F2EFAE9EF2EF9E9FF2EF9ED6C
:1012C0000F2FFFE31F2FF02D0E94E80D1F910F91AC
:1012D000FF90EF9008951F920F920FB60F92112476
:1012E0002F933F934F935F936F937F938F939F932E
:1012F000AF93BF93EF93FF930E941B0AFF91EF916F
:10130000BF91AF919F918F917F916F915F914F911D
:101310003F912F910F900FBE0F901F901895982F0F
:1013200083FF02C088E2982797FF02C090E001C0C7
:10133000906484B7877F84BFF8948091600088614F
:10134000809360009093600078940895EAE7F0E05D
:10135000908180818F77808383B7817F846083BF12
:10136000F89483B7816083BF85B7806685BF85B7F2
:101370008F79806485BF7894889583B78E7F83BF8B
:1013800090937A000895CF92DF92EF92FF921F938D
:10139000CF93DF937C01EC0158E0C52ED12C20C007
:1013A0001F5F193029F09695879580329105C0F717
:1013B00010920605812F0E948F090E94A6098FEFC7
:1013C0000E948F09960102C0220F331F1A95E2F77F
:1013D000C21BD30B80910605882351F0C21BD30B8F
:1013E000C031D10510F461E004C0CE0110E0DDCFC2
:1013F00060E0209167053091680540916905509142
:101400006A05EC1AFD0AC701A0E0B0E0820F931F45
:10141000A41FB51F8093670590936805A093690585
:10142000B0936A05862FDF91CF911F91FF90EF90C7
:10143000DF90CF900895809106058F5F8093060519
:10144000089598E20EC0E8982A981EBC0DB407FED5
:10145000FDCF8EB51EBC0DB407FEFDCF8EB52A9A0A
:10146000E89AE8982A989EBD0DB407FEFDCF8EB588
:101470001EBC0DB407FEFDCF8EB52A9AE89A807582
:1014800011F70895282FE8982A9881E08EBD0DB4B1
:1014900007FEFDCF8EB51EBC0DB407FEFDCF9EB579
:1014A0002A9AE89AE8982A9881E88EBD0DB407FE3A
:1014B000FDCF8EB5937E922B9EBD0DB407FEFDCF62
:1014C0008EB52A9AE89A089522E0660F771F881F42
:1014D000991F2A95D1F729E03DE340E050E00E94B2
:1014E000922586E0220F331F441F551F8A95D1F79E
:1014F00020930705309308054093090550930A058A
:10150000089580911205853059F480911305882340
:1015100039F484E0809312050E94420A81E0089524
:1015200080E008958091120590E084300CF491E001
:10153000892F08952A9A229A2A9A84B18C6284B9B2
:1015400080E58CBD8DB581608DBD3FEA2AEA9FE2C2
:10155000E8982A983EBD0DB407FEFDCF8EB52EBD8E
:101560000DB407FEFDCF8EB52A9AE89AE8982A981E
:101570009EBD0DB407FEFDCF8EB51EBC0DB407FE9B
:10158000FDCF8EB52A9AE89A8A3A11F73FEA25E507
:101590009FE2E8982A983EBD0DB407FEFDCF8EB5B8
:1015A0002EBD0DB407FEFDCF8EB52A9AE89AE898B5
:1015B0002A989EBD0DB407FEFDCF8EB51EBC0DB49E
:1015C00007FEFDCF8EB52A9AE89A853511F7E0EE31
:1015D000F1E084918823A1F031969491319780684D
:1015E000E8982A988EBD0DB407FEFDCF8EB59EBD3E
:1015F0000DB407FEFDCF8EB52A9AE89A3296E9CF50
:1016000090910B05E8982A9880EB8EBD0DB407FEEB
:10161000FDCF8EB59EBD0DB407FEFDCF8EB52A9AC7
:10162000E89A2091070530910805409109055091ED
:101630000A05E8982A9887E88EBD0DB407FEFDCF0D
:101640008EB5CA01AA27BB278EBD0DB407FEFDCFFC
:101650008EB52A9AE89AE8982A9888E88EBD0DB443
:1016600007FEFDCF8EB5BB27A52F942F832F8EBDF0
:101670000DB407FEFDCF8EB52A9AE89AE8982A980D
:1016800089E88EBD0DB407FEFDCF8EB52EBD0DB41D
:1016900007FEFDCF8EB52A9AE89A84E08093120562
:1016A0000895AC0180911205843021F0853009F055
:1016B00066C032C0109218058091180580931305FA
:1016C00020910B058FEF9FEF8227282F2295282747
:1016D000022E269526952025022E26952025277058
:1016E000082E892F269507942795902D82270694FA
:1016F00027959025822790930E0580930D05509392
:1017000011054093100585E0809312050E94210A7F
:1017100080E10E94420A33C0809118052091130590
:1017200090E0049630E08217930724F0809113052F
:10173000883428F184E0809312050E94420A809147
:101740001805833430F081E090E090930E0580938B
:101750000D058091170586FF0DC020910C052F31D6
:1017600049F08091170590E08F71907030E08217FA
:10177000930729F420910D0530910E0502C02FEF3B
:101780003FEFC9010895982F4093180520E030E0FD
:1017900050E00AC0F901E75EFA4FDB01A20FB31F68
:1017A0008C9180832F5F3F4F241735079CF396FD64
:1017B00004C0907E80910C05980F9093170520919E
:1017C0000B058FEF9FEF8227282F22952827022EC7
:1017D000269526952025022E269520252770082E51
:1017E000892F269507942795902D82270694279573
:1017F00090258227909315058093140590911805E4
:101800008EEF891B809312050E94210A8CE00E94B2
:10181000420AE8982A9885EA8EBD0DB407FEFDCFEE
:101820008EB51EBC0DB407FEFDCF8EB52A9AE89A80
:10183000409110055091110568E230E861C0E898C8
:101840002A986EBD0DB407FEFDCF8EB51EBC0DB43B
:1018500007FEFDCF8EB52A9AE89A87FD51C0809188
:10186000120587FF2DC02091180580911205992738
:1018700087FD9095FA01E20FF11DE80FF91F238112
:1018800080910D0590910E058227782F729578270B
:10189000072E769576957025072E769570257770AC
:1018A000082E892F769507947795902D8727069493
:1018B00077959025872790930E0580930D050DC091
:1018C00080911205882321F0813029F02AEA05C091
:1018D00020910D0502C020910E05E8982A983EBD82
:1018E0000DB407FEFDCF8EB52EBD0DB407FEFDCFA6
:1018F0008EB52A9AE89A809112058F5F809312051F
:101900008091120583300CF49ACF089580911205CE
:10191000853009F07DC0E8982A9884E28EBD0DB428
:1019200007FEFDCF8EB51EBC0DB407FEFDCF8EB5F4
:101930002A9AE89A80930F05789448E2E8982A98C2
:101940004EBD0DB407FEFDCF8EB51EBC0DB407FE17
:10195000FDCF8EB52A9AE89A807581F380911305A0
:10196000882371F480911305E0911005F091110521
:10197000E80FF11D90910B0590838F5F8093130505
:10198000E8982A981EBC0DB407FEFDCF8EB51EBC8C
:101990000DB407FEFDCF2EB52A9AE89A8091130563
:1019A000E0911005F0911105E80FF11D20838F5F84
:1019B0008093130580910D0590910E058227282FA5
:1019C00022952827022E269526952025022E26953B
:1019D00020252770082E892F269507942795902D6E
:1019E0008227069427959025822790930E05809351
:1019F0000D05809118052091130590E0049630E0C4
:101A0000821793075CF180911305883438F596CFDF
:101A1000E8982A9888E28EBD0DB407FEFDCF8EB5FA
:101A20001EBC0DB407FEFDCF8EB52A9AE89A83FF3F
:101A300015C084E0809312050E94420AE8982A9813
:101A400085EA8EBD0DB407FEFDCF8EB580E88EBD54
:101A50000DB407FEFDCF8EB52A9AE89A08951F931C
:101A6000182F16C01123A1F093B7133011F484E09E
:101A700005C0123011F080E001C08CE0917F892B0D
:101A800083BF83B7816083BF889583B78E7F83BF11
:101A90000E94920A882331F71F9108950E94C30B78
:101AA00008950E94810A089586E195E00E94510BF5
:101AB0009093150580931405809114059091150558
:101AC00020E08F5F9F4F09F021E0822F08950F9350
:101AD0001F93CF93DF93182FEB01042F02C00E94B6
:101AE000540D0E94810A8823D1F3812FBE01402F1B
:101AF0000E94C30BDF91CF911F910F910895BF9268
:101B0000CF92DF92EF92FF920F931F93CF93DF93C9
:101B1000C82ED62EB42EE90182E0681751F083E07A
:101B2000681749F081E0681711F060E005C06BE2CA
:101B300003C066E501C06AE570E080E090E020E85F
:101B400036E948E950E00E9473257B018C016D2D38
:101B500070E080E090E024EC39E040E050E00E944A
:101B600073259E0140E050E00E947325E60EF71EAB
:101B7000081F191FC801B7010E94640AB0920B0523
:101B80008C2D8F7180930C0564E170E080E090E013
:101B90000E94B01980910C05882341F080E066E82E
:101BA0007CE043E050E00E94CA1803C080E00E943D
:101BB000ED180E949A0AC0925E058C2DDF91CF919C
:101BC0001F910F91FF90EF90DF90CF90BF900895FD
:101BD000EF92FF920F931F93FC01758B648B208F04
:101BE000318F428F538FE0A2F1A202A313A380E0B2
:101BF00090E0A0E0B4E484AB95ABA6ABB7AB1F918B
:101C00000F91FF90EF900895FC01778B668B248FE6
:101C1000358F468F578F80E090E0A0E0B4E480AF2E
:101C200091AFA2AFB3AF08958EE480937C0062E0E1
:101C300070E080E090E00E94B01980917A008064AA
:101C400080937A0080917A0086FDFCCF80917800A5
:101C500090E0A0E0B0E060917900362F20E04427CA
:101C600037FD4095542F282B392B4A2B5B2B60E0F6
:101C700070E381E190E00E94B425CA01B9010895A2
:101C80002F923F924F925F926F927F928F929F928C
:101C9000AF92BF92CF92DF92EF92FF920F931F937A
:101CA000DF93CF9300D000D000D0CDB7DEB79E83B6
:101CB0008D837A8369830E94140E1B012C01882472
:101CC00099248CE4682E712C2D813E81620E731E46
:101CD000285B3F4F3C832B8354C0ED81FE81868976
:101CE0000E944E1AED81FE8197A386A3E0ACF1AC71
:101CF00002AD13ADAA2797FDA095BA2FBC01CD0167
:101D00000E94F3235B016C01A80197010E94EF225E
:101D100020E030E040E85AE30E94A7249B01AC0198
:101D2000C801B7010E94F0229B01AC01ED81FE8148
:101D300060AF71AF82AF93AFC601B5010E94EF22D1
:101D40009B01AC01ED81FE8160AB71AB82AB93ABCB
:101D50000E94A7249B01AC01EB81FC81608371830D
:101D600082839383F30160817181828193810E94D8
:101D7000F022F30160837183828393830894811C32
:101D8000911C29813A818216930608F4A6CFB901E5
:101D900080E090E00E94F1239B01AC01F30160819F
:101DA0007181828193810E9458230E940E257B01BC
:101DB0008C01B101882777FD8095982F0E94F3232D
:101DC00020E030E04AE754E40E94582320E030E06D
:101DD00040E85AE30E94A724ED81FE81248D358DD1
:101DE000468D578D0E94A724A80197010E94A72421
:101DF000ED81FE81608B718B828B938B80E090E014
:101E0000A0E0B0E0F30180839183A283B383ED81EE
:101E1000FE812089318942895389B901CA012696F8
:101E20000FB6F894DEBF0FBECDBFCF91DF911F91EB
:101E30000F91FF90EF90DF90CF90BF90AF909F9069
:101E40008F907F906F905F904F903F902F9008956C
:101E50002F923F924F925F926F927F928F929F92BA
:101E6000AF92BF92CF92DF92EF92FF920F931F93A8
:101E7000DF93CF93CDB7DEB7AE970FB6F894DEBF42
:101E80000FBECDBF9EA78DA77E876D878A010E945A
:101E9000140E69877A878B879C870E94A2193B0161
:101EA0004C0128E5222E312C2DA53EA5220E331EF5
:101EB000C801A0E0B0E089A79AA7ABA7BCA7ADA5D1
:101EC000BEA554968C910E944E1AF1019183808395
:101ED000AA2797FDA095BA2FBC01CD010E94F3233C
:101EE0007B018C012DEC3CEC4CE054E40E9454232B
:101EF00087FD02C0AA240DC0AA24C801B70126E6A6
:101F000036E646EE53E40E94A324181614F4AA24DD
:101F1000A3940E94A219661977098809990929A52D
:101F20003AA54BA55CA5261737074807590710F0B7
:101F3000AA2029F20E94A21969837A838B839C8349
:101F400018861F821E821D824DA55EA5405C5F4FD4
:101F50005A8F498F8DA59EA58C5B9F4F9C8F8B8F31
:101F6000ADA5BEA5A85BBF4FBE8FAD8FEDA5FEA5ED
:101F7000E45BFF4FF8A3EF8F2DA53EA5205B3F4FFD
:101F80003AA329A34DA55EA54C5A5F4F5CA34BA372
:101F90008DA59EA5865A9F4F9EA38DA39BE5292EB6
:101FA000312CADA5BEA52A0E3B1EA85ABF4FB8A71F
:101FB000AFA31CC021E0F101208302C0D1011C921B
:101FC000ED81FE81319729F4D1018C91EDA1FEA123
:101FD0008083ADA1BEA19C91F1018081981731F061
:101FE0002F8138852F5F3F4F38872F834F8158854A
:101FF0008D859E854817590708F025C10E94A219B2
:1020000029813A814B815C81621B730B840B950B98
:1020100029A53AA54BA55CA5621773078407950708
:1020200008F011C14D815E814F5F5F4F5E834D832C
:10203000EDA5FEA584A595A5A6A5B7A580A791A702
:10204000A2A7B3A784890E944E1AADA5BEA59596F6
:102050009C938E93949756968C910E944E1A7C0175
:10206000EDA5FEA597A386A3A4A8B5A8C6A8D7A842
:1020700044A055A0B201882777FD8095982F0E9433
:10208000F3233B014C01A60195010E94EF2220E0C1
:1020900030E040E85AE30E94A7249B01AC01C6014E
:1020A000B5010E94F0229B01AC01ADA5BEA5D4965E
:1020B0006D937D938D939C93D797C401B3010E9438
:1020C000EF223B014C01EDA5FEA564A775A786A7ED
:1020D00097A7A0ACB1ACC2ACD3AC0027F7FC00957D
:1020E000102FC801B7010E94F3237B018C01A601C8
:1020F00095010E94EF2220E030E040E85AE30E9480
:10210000A7249B01AC01C601B5010E94F0229B01EE
:10211000AC01ADA5BEA5D8966D937D938D939C9390
:10212000DB97C801B7010E94EF225B016C01EDA5AE
:10213000FEA560AB71AB82AB93ABC401B301A4014C
:1021400093010E94A7249B01AC01A98DBA8D6D93C8
:102150007D938D939C931397EB8DFC8D60817181A2
:10216000828193810E94F022AB8DBC8D6D937D9313
:102170008D939C931397C601B501A60195010E940A
:10218000A7249B01AC01ED8DFE8D6083718382835A
:102190009383AF8DB8A16D917D918D919C910E949B
:1021A000F022EF8DF8A16083718382839383ADA5C4
:1021B000BEA59896ED90FD900D911C919B97C40142
:1021C000B301A80197010E94EF22EDA5FEA520A171
:1021D00031A142A153A10E94A7249B01AC01C801D7
:1021E000B7010E94F022ADA5BEA5DC966D937D934C
:1021F0008D939C93DF97A60195010E94A7249B01D4
:10220000AC01E9A1FAA16083718382839383ABA1BE
:10221000BCA16D917D918D919C910E94F022EBA1CA
:10222000FCA16083718382839383D1018C91EDA1A2
:10223000FEA18083AFA1B8A58D919C9184159505D1
:102240000CF4B8CEBBCEE985FA85BF01882777FDAF
:102250008095982F0E94F32320E030E04AE754E471
:102260000E94582320E030E040E85AE30E94A7246F
:102270007B018C01ADA5BEA558962D913D914D9148
:102280005C915B970E94A7246F87788B898B9A8BD0
:10229000ED81FE81BF0180E090E00E94F1235B01AF
:1022A0006C012DA53EA52C5B3F4F3C8B2B8BD901A0
:1022B0006D917D918D919C91A60195010E9458236D
:1022C0000E940E259B01AC016F85788989899A89C6
:1022D0000E94A7241B012C01EDA5FEA5648775872C
:1022E00086879787C801B701248D358D468D578D18
:1022F0000E94A7247B018C012DA53EA5245B3F4FA6
:102300003E8B2D8BD9016D917D918D919C91A60174
:1023100095010E9458230E940E259B01AC01C80123
:10232000B7010E94A7243B014C01EDA5FEA5608BDF
:10233000718B828B938B6F85788989899A89A801A3
:1023400097010E94A7242DA53EA52C5A3F4F388FF8
:102350002F8BD9012D913D914D915C910E94A72425
:10236000A60195010E9458237B018C01EDA5FEA5D5
:102370006083718382839383C201B101A4019301BD
:102380000E94A7249B01AC01ADA5BEA514966D9338
:102390007D938D939C931797C801B7010E94582392
:1023A000EDA5FEA5608771878287938780E090E026
:1023B000A0E0B0E0EB89FC8980839183A283B383A2
:1023C000ED89FE8980839183A283B383EF89F88DA1
:1023D00080839183A283B383AE960FB6F894DEBF59
:1023E0000FBECDBFCF91DF911F910F91FF90EF9066
:1023F000DF90CF90BF90AF909F908F907F906F9025
:102400005F904F903F902F900895FC0113861586A2
:10241000148687E090E012863197009711F00197BB
:10242000FACF0895DC0180E00BC0E82FF0E08D9139
:1024300090E0E827F927ED5FFD4FE49161508E2F82
:10244000662399F70895DF92EF92FF920F931F93FF
:10245000FC01E08001811281F894F80181818E29CC
:1024600081838281DE2CD0948D21828383E090E071
:102470000E94091AF80181818D2181838AE090E010
:102480000E94091AF8010081789485E390E00E9487
:10249000091A80E010E0FF240E211F21012B09F012
:1024A00081E01F910F91FF90EF90DF900895EF92E0
:1024B000FF920F931F93CF93DF937C0101E010E015
:1024C000C0E0D0E0C7010E9423128111102B000F41
:1024D0002196C830D105B1F7812FDF91CF911F919F
:1024E0000F91FF90EF9008951F93CF93DF93FC011E
:1024F0001081C181D281912F909560FF12C0F89414
:102500008A8189238A838981812B89838AE090E06B
:102510000E94091A8A81812B8A83789487E390E04C
:1025200011C0F8948A8189238A838981812B8983C8
:1025300081E490E00E94091A8A81812B8A83789431
:1025400085E090E00E94091ADF91CF911F910895D4
:10255000CF92DF92EF92FF920F931F93CF93DF936F
:102560008C01E42EFF24F394C0E0D0E0C62EDD24DD
:1025700060E08F2D90E08C219D21892B09F061E096
:10258000C8010E947412FF0C2196C830D10581F752
:10259000EE20A9F4F894D8011196ED91FC911297D0
:1025A00091818C918095982391831196ED91FC9166
:1025B000129792818C918095982392837894DF91E1
:1025C000CF911F910F91FF90EF90DF90CF900895E2
:1025D0006CEC40E00E94A8120895EF92FF920F93D6
:1025E0001F93CF93DF938C017B0165E540E00E9450
:1025F000A812C0E0D0E0F701EC0FFD1FC801608118
:1026000040E00E94A8122196C830D105A1F7DF91C1
:10261000CF911F910F91FF90EF900895DF92EF926D
:10262000FF920F931F93CF93DF93FC010081C18131
:10263000D281F8948981D02ED0948D218983789489
:102640001DE7E02EFF24115059F182E090E00E9436
:10265000091A888190E08E219F21892BA1F3F8949B
:102660008A818D218A838981802B8983789484EF64
:1026700091E00E94091AF89489818D21898380E56F
:1026800090E00E94091A888110E090E0E822F92287
:10269000EF2809F411E0789484EA91E00E94091A85
:1026A000812FDF91CF911F910F91FF90EF90DF90DD
:1026B0000895AF92BF92DF92EF92FF920F931F9314
:1026C000CF93DF93EC015B018D85882309F061C016
:1026D000CE010E940E13882329F41B861D861C86BA
:1026E00090E06BC0CE0160EF40E00E94A81201E0D4
:1026F000DD24EE24FF24F394CE010E942312182F30
:10270000CE010E942312113019F48130E1F439C056
:10271000181709F58B85081770F460E0FE01EE0DBF
:10272000F11D838190E02F2D30E082239323181632
:1027300019064CF003C060E0081729F0093008F0D2
:102740004CC00C874AC0FE01EE0DF11D83818F291C
:10275000838361E009C0612FFE01EE0DF11D9F2D05
:102760009095838189238383CE010E9474120F5F29
:10277000FF0C19F4E394FF24F39487E08E1508F01E
:10278000BBCF013430F0DB86DD2011F581E08D8791
:102790001FC01B861D861C8690E0DE0120E030E015
:1027A000F501E20FF31F13968C91139780832F5F2F
:1027B0003F4F11962830310599F7892FDF91CF913E
:1027C0001F910F91FF90EF90DF90BF90AF90089511
:1027D0008B818823F1F291E0E0CFD02EBDCFFF9224
:1027E0000F931F938C01F62E862F60E00E94701AC3
:1027F0008F2D90E0FC01EB5CFC4FE491D801EC9351
:102800008F5D9C4FFC016491E62FF0E0EE0FFF1FFF
:10281000E95EFC4F8591949112969C938E9311974B
:102820001B961C921B971D961C921D971C961C9222
:10283000F80187E090E012863197009711F0019738
:10284000FACF1F910F91FF900895FC018EEE94E155
:10285000928B818B768365831482108289E08183D9
:1028600081E0828383830895FC01848108956F92BF
:102870007F928F929F92AF92BF92CF92DF92EF9210
:10288000FF920F931F93CF93DF93FB01EA0199818E
:1028900080E0288130E0282B392BE081E23231F0D2
:1028A000E83221F0E03109F084C04BC04C814F3355
:1028B00029F1403420F44F3109F07BC02FC04F354F
:1028C00079F04F3709F075C0B901882777FD8095F9
:1028D000982F0E94F32320E030E040E85DE32EC013
:1028E00035952795B901882777FD8095982F0E9407
:1028F000F32320E030E040E05EE320C035952795EB
:1029000035952795B901882777FD8095982F0E94E6
:10291000F32320E030E040E85EE310C093E035951B
:1029200027959A95E1F7B901882777FD8095982F2B
:102930000E94F32320E030E040E05FE30E94A72400
:1029400032C0EF8035952795B901882777FD8095AE
:10295000982F0E94F32320E030E040E85EE30E94DD
:10296000EF223B014C016E2D70E02E81621B71093C
:10297000882777FD8095982F0E94F3235B016C01D7
:10298000FF2400E010E0C801B7010E94F1239B0181
:10299000AC01C601B5010E9458239B01AC01C401E2
:1029A000B3010E94F0229B01AC01832F942F752F5D
:1029B00000C0262F382F492F572FB901CA01DF91A8
:1029C000CF911F910F91FF90EF90DF90CF90BF902C
:1029D000AF909F908F907F906F9008950895EF92A1
:1029E000FF920F931F938C017B01FC0185819681DF
:1029F0000E940E13F80185819681B7010E94ED12A5
:102A0000F8018581968164EB40E00E94A812F801EC
:102A1000858196810E942312F82EF8018581968186
:102A20000E940E1380E0FF2009F481E01F910F91B6
:102A3000FF90EF900895EF92FF920F931F93CF9323
:102A4000DF93EC018B017A018D819E810E940E1330
:102A50008D819E81B8010E94ED128D819E816EE470
:102A600040E00E94A8128D819E81F701628140E0C2
:102A70000E94A8128D819E81F701638140E00E942F
:102A8000A812F8018081803139F08D819E81F70193
:102A9000648140E00E94A8128D819E810E940E13E5
:102AA0008D819E8168E448810E94A81288818823D4
:102AB00031F06AE070E080E090E00E94B0198D8112
:102AC0009E810E940E13DF91CF911F910F91FF9075
:102AD000EF900895CF92DF92EF92FF920F931F93A2
:102AE0008C016B017A01FC01858196810E940E1395
:102AF000F80185819681B6010E94ED12F801858169
:102B000096816EEB40E00E94A812F80185819681C3
:102B10000E945712F7018083F801858196810E94F7
:102B20005712F7018183F801858196810E9457121F
:102B3000F7018283F801858196810E945712F7017F
:102B40008383F801858196810E945712F70184835F
:102B5000F801858196810E945712F7018583F8015B
:102B6000858196810E945712F7018683F80185813D
:102B700096810E945712F7018783F801858196811B
:102B80000E945712F7018087F801858196810E9483
:102B90000E131F910F91FF90EF90DF90CF9008954B
:102BA000DF93CF93CDB7DEB729970FB6F894DEBF8A
:102BB0000FBECDBFAE014F5F5F4F0E946A15898186
:102BC000811181E029960FB6F894DEBF0FBECDBF0C
:102BD000CF91DF910895CF92DF92EF92FF920F9302
:102BE0001F93CF93DF93EC016B01452BE1F08B81B9
:102BF0008823C9F088818823B1F40E94A2197B013F
:102C00008C01CE0160E070E00E94D015882359F459
:102C10000E94A2196E197F09800B910B6E5E7240A3
:102C20008040904070F3F6016081693039F069307E
:102C3000A0F06A3041F06B3081F40AC06EE570E0BC
:102C400080E090E00EC06CEB70E080E090E009C0A6
:102C500067E771E080E090E004C06EEE72E080E033
:102C600090E00E94B019DF91CF911F910F91FF90DA
:102C7000EF90DF90CF900895CF93DF93EC018D819B
:102C80009E810E940E138D819E810E94E8128D818B
:102C90009E8164E448810E94A8128A81882339F0C9
:102CA000CE012196BE0140E050E00E94EB15DF917D
:102CB000CF9108950F931F938A010E946A15C8014E
:102CC00068E00E94121220E0F8019085891709F44B
:102CD00021E0822F1F910F910895CF92DF92EF9202
:102CE000FF920F931F93DF93CF93CDB7DEB7299752
:102CF0000FB6F894DEBF0FBECDBF8C017B016E0115
:102D00000894C11CD11CA6010E945A16882329F4DC
:102D100060E070E08EEF92EC05C0C801B701A6013B
:102D20000E94371429960FB6F894DEBF0FBECDBFB0
:102D3000CF91DF911F910F91FF90EF90DF90CF9097
:102D40000895DF93CF93CDB7DEB729970FB6F894E8
:102D5000DEBF0FBECDBF9C01FB0180818031D9F069
:102D6000C901AE014F5F5F4F0E945A168823A9F038
:102D70008D818F3371F0803418F48F3171F40BC072
:102D80008F3519F08F3749F402C08BE007C08CE013
:102D900005C08AE003C089E001C080E029960FB633
:102DA000F894DEBF0FBECDBFCF91DF910895CF92D3
:102DB000DF92EF92FF921F93DF93CF93CDB7DEB7F1
:102DC00029970FB6F894DEBF0FBECDBF6C017B0113
:102DD000142FAE014F5F5F4F0E945A168823E1F017
:102DE000F70180818031B9F01A3051F01A3050F07B
:102DF0001B3021F01C3031F48FE705C08FE503C094
:102E00008FE301C08FE18D83C601B701AE014F5F33
:102E10005F4F0E941B1581E029960FB6F894DEBF24
:102E20000FBECDBFCF91DF911F91FF90EF90DF904C
:102E3000CF9008950F931F938B01CB0167E00E9401
:102E4000121220E0F8019781891709F421E0822FFE
:102E50001F910F910895AF92BF92CF92DF92EF92A0
:102E6000FF920F931F93DF93CF93CDB7DEB7619798
:102E70000FB6F894DEBF0FBECDBF7C01FC0185818B
:102E800096810E940512F70114826E010894C11CFC
:102E9000D11C79E0A72EB12CAC0EBD1E01E02BC0D9
:102EA000C701B6010E941A17882329F1F701808112
:102EB000882341F4C701B6010E94EF14882311F062
:102EC000F7010083C701B601A5010E946A15F70149
:102ED0001181C701B6010E94A116811718F4F701EC
:102EE000818104C0C701B6010E94A116F701818348
:102EF00084818F5F8483F70185819681B6010E946A
:102F00005913882369F661960FB6F894DEBF0FBE99
:102F1000CDBFCF91DF911F910F91FF90EF90DF9088
:102F2000CF90BF90AF900895FC011382128287E585
:102F300093E0918380836483418722871386089579
:102F4000CF92DF92EF92FF920F931F936C01062FA7
:102F50008CE5E82E86E0F82EC701F60164810E9418
:102F6000FC1F10E0F601838590E0082B192BC701A8
:102F7000602F0E947E20C7010E94C1201F910F91E7
:102F8000FF90EF90DF90CF900895FF920F931F93E3
:102F90008C01F62E64600E94A01781E090E00E94F0
:102FA000091A8BEFF822C8016F2D0E94A01782E347
:102FB00090E00E94091A1F910F91FF900895FF92CF
:102FC0000F931F938C01F62E0E94A017C8016F2D3E
:102FD0000E94C5171F910F91FF900895EF92FF92E5
:102FE0000F931F937C01162F042F607F642B0E9488
:102FF000DF171295107F102BC701612F0E94DF177A
:103000001F910F91FF90EF90089541E00E94EE17FD
:1030100080E090E0089540E00E94EE170895FC01E2
:103020006681862F846086836C60CF010E940B18B6
:103030000895DF93CF93CDB7DEB728970FB6F894F6
:10304000DEBF0FBECDBF9C01FE013196ABE5B3E004
:1030500088E00D9001928150E1F7F9018085841795
:1030600010F4482F4150E42FF0E0EE0FFF1FEC0F5B
:10307000FD1F8181680F6068C9010E940B182896A6
:103080000FB6F894DEBF0FBECDBFCF91DF9108958C
:1030900062E00E940B1880ED97E00E94091A0895E3
:1030A00061E00E940B1880ED97E00E94091A0895D4
:1030B000FC0188E08387CF0160E00E94A01708959B
:1030C000CF93DF93EC01423018F08D8188608D83BF
:1030D0004887222329F0413019F48D8184608D8343
:1030E00062E370E080E090E00E94B019CE016B8551
:1030F0000E94A01768EE73E080E090E00E94B01993
:10310000CE0160E30E94DF1784E991E10E94091A71
:10311000CE0160E30E94DF1784E991E10E94091A61
:10312000CE0160E30E94DF1786E990E00E94091A51
:10313000CE0160E20E94DF176D816062CE010E94C5
:103140000B1884E08E83CE010E940F18CE010E94DE
:10315000501882E08F83CE0166E00E940B18CE01EA
:103160000E944818DF91CF9108950F931F938C010F
:103170008CE596E00E94C520F8011582C8016185A2
:10318000428520E00E9460181F910F9108950E94CF
:10319000B5180895823000F5E82FF0E0EE0FFF1F1C
:1031A000E15AFA4F71836083882319F08130A1F4CA
:1031B00008C0809169008C7F842B80936900E89A15
:1031C000089580916900440F551F440F551F837F58
:1031D000842B80936900E99A0895823080F48823D3
:1031E00019F0813021F402C0E89801C0E998E82F75
:1031F000F0E0EE0FFF1FE15AFA4F1182108208959E
:103200001F920F920FB60F9211242F933F934F935B
:103210005F936F937F938F939F93AF93BF93EF933E
:10322000FF9380915F0590916005892B29F0E091D3
:103230005F05F09160050995FF91EF91BF91AF9106
:103240009F918F917F916F915F914F913F912F91BE
:103250000F900FBE0F901F9018951F920F920FB6F0
:103260000F9211242F933F934F935F936F937F930C
:103270008F939F93AF93BF93EF93FF9380916105DB
:1032800090916205892B29F0E0916105F09162052A
:103290000995FF91EF91BF91AF919F918F917F9190
:1032A0006F915F914F913F912F910F900FBE0F90B3
:1032B0001F9018951F920F920FB60F9211242F9303
:1032C0003F938F939F93AF93BF93809167059091A6
:1032D0006805A0916905B0916A0530916B0501966A
:1032E000A11DB11D232F2D5F2D3720F02D570196E5
:1032F000A11DB11D20936B05809367059093680510
:10330000A0936905B0936A05809163059091640567
:10331000A0916505B09166050196A11DB11D809330
:10332000630590936405A0936505B0936605BF910E
:10333000AF919F918F913F912F910F900FBE0F9062
:103340001F9018958FB7F894209167053091680504
:103350004091690550916A058FBFB901CA0108956E
:103360009B01AC017FB7F89480916305909164054F
:10337000A0916505B091660566B5A89B05C06F3F35
:1033800019F00196A11DB11D7FBFBA2FA92F982F4B
:103390008827860F911DA11DB11D62E0880F991F1E
:1033A000AA1FBB1F6A95D1F7BC012DC0FFB7F894C7
:1033B0008091630590916405A0916505B0916605C3
:1033C000E6B5A89B05C0EF3F19F00196A11DB11D00
:1033D000FFBFBA2FA92F982F88278E0F911DA11DEF
:1033E000B11DE2E0880F991FAA1FBB1FEA95D1F714
:1033F000861B970B885E9340C8F2215030404040B6
:10340000504068517C4F211531054105510571F639
:103410000895019739F0880F991F880F991F029717
:103420000197F1F70895789484B5826084BD84B5DE
:10343000816084BD85B5826085BD85B5816085BDAF
:10344000EEE6F0E0808181608083E1E8F0E01082C8
:10345000808182608083808181608083E0E8F0E009
:10346000808181608083E1EBF0E0808184608083F3
:10347000E0EBF0E0808181608083EAE7F0E080812A
:10348000846080838081826080838081816080838A
:103490008081806880831092C1000895982F8E30BB
:1034A00008F09E509770809152038295880F880F84
:1034B000807C892B80937C0080917A00806480934B
:1034C0007A0080917A0086FDFCCF209178004091AF
:1034D0007900942F80E030E0282B392BC901089522
:1034E000CF93DF93482F50E0CA018B5C9C4FFC01C7
:1034F00034914F5D5C4FFA018491882369F190E02B
:10350000880F991FFC01ED5FFC4FA591B491FC0160
:10351000E35FFC4FC591D491662351F42FB7F89423
:103520008C91932F909589238C93888189230BC04C
:10353000623061F42FB7F8948C91932F9095892382
:103540008C938881832B88832FBF06C09FB7F89404
:103550008C91832B8C939FBFDF91CF910895482F3F
:1035600050E0CA01875B9C4FFC012491CA018B5C2F
:103570009C4FFC0194914F5D5C4FFA0134913323D1
:1035800009F440C0222351F1233071F0243028F493
:103590002130A1F0223011F514C02630B1F02730CF
:1035A000C1F02430D9F404C0809180008F7703C02B
:1035B000809180008F7D8093800010C084B58F77CC
:1035C00002C084B58F7D84BD09C08091B0008F7723
:1035D00003C08091B0008F7D8093B000E32FF0E0B6
:1035E000EE0FFF1FE35FFC4FA591B4912FB7F89446
:1035F000662321F48C919095892302C08C91892BAC
:103600008C932FBF0895682F70E0CB01875B9C4F90
:10361000FC012491CB018B5C9C4FFC0144916F5DBC
:103620007C4FFB019491992319F420E030E03CC0D9
:10363000222351F1233071F0243028F42130A1F0FD
:10364000223011F514C02630B1F02730C1F02430FB
:10365000D9F404C0809180008F7703C080918000EE
:103660008F7D8093800010C084B58F7702C084B5B1
:103670008F7D84BD09C08091B0008F7703C0809199
:10368000B0008F7D8093B000892F90E0880F991F44
:10369000895E9C4FFC01A591B4918C9120E030E0B3
:1036A000842311F021E030E0C901089508951F92AC
:1036B0000F920FB60F9211242F933F934F938F9336
:1036C0009F93EF93FF938091C00082FD1DC04091B6
:1036D000C6002091AC053091AD052F5F3F4F2F7391
:1036E00030708091AE059091AF052817390771F0C1
:1036F000E091AC05F091AD05E459FA4F4083309369
:10370000AD052093AC0502C08091C600FF91EF91FA
:103710009F918F914F913F912F910F900FBE0F90DE
:103720001F901895E0910006F0910106E05CFF4FB4
:103730008191919120813181821B930B8F739070C5
:10374000892B11F00E94561B08951F920F920FB6FD
:103750000F9211242F933F938F939F93EF93FF9397
:103760002091F0053091F1058091F2059091F305DB
:103770002817390731F48091C1008F7D8093C100F3
:1037800014C0E091F205F091F305E055FA4F208165
:103790008091F2059091F30501968F73907090934C
:1037A000F3058093F2052093C600FF91EF919F915E
:1037B0008F913F912F910F900FBE0F901F901895F2
:1037C000AF92BF92DF92EF92FF920F931F93CF932E
:1037D000DF93EC017A018B01DD24403081EE580744
:1037E00080E0680780E0780711F0DD24D39491E051
:1037F000A92EB12CEC89FD89DD2069F0C50108A056
:1038000002C0880F991F0A94E2F7808360E079E094
:103810008DE390E005C0108260E874E88EE190E0EE
:10382000A80197010E94922521503040404050400D
:10383000569547953795279580E12030380720F039
:10384000DD2011F0DD24D6CFE889F9893083EA89BB
:10385000FB89208319A2EE89FF89408121E030E0B5
:10386000C9010C8C02C0880F991F0A94E2F7482BFB
:103870004083EE89FF894081C9010D8C02C0880F09
:10388000991F0A94E2F7482B4083EE89FF89408113
:10389000C9010E8C02C0880F991F0A94E2F7482BC9
:1038A0004083EE89FF8980810F8C02C0220F331F75
:1038B0000A94E2F7209528232083DF91CF911F916E
:1038C0000F91FF90EF90DF90BF90AF900895DC01D3
:1038D0001C96ED91FC911D97E05CFF4F2191319179
:1038E00080819181281B390B2F733070C901089595
:1038F000DC011C96ED91FC911D97E05CFF4F20814F
:103900003181E054F040DF01AE5BBF4F8D919C915F
:1039100011972817390719F42FEF3FEF07C08D9142
:103920009C91E80FF91F8081282F30E0C90108958C
:10393000DC011C96ED91FC911D97E05CFF4F20810E
:103940003181E054F040DF01AE5BBF4F8D919C911F
:1039500011972817390719F42FEF3FEF10C08D91F9
:103960009C911197E80FF91F20818D919C911197DF
:1039700001968F73907011969C938E9330E0C901DD
:103980000895DC0191968C919197882339F0549693
:10399000ED91FC915597808186FFF9CF91961C920D
:1039A0000895CF93DF93EC01EE85FF85E05CFF4F38
:1039B00020813181E054F0402F5F3F4F2F733070F2
:1039C000DF01AE5BBF4F8D919C911197281739078E
:1039D000D1F3E05CFF4F80819181E054F040E80F2B
:1039E000F91F6083EE85FF85E05CFF4F3183208304
:1039F000EE89FF89208181E090E00F8C02C0880F62
:103A0000991F0A94E2F7282B208381E089A3EC898F
:103A1000FD8980818064808381E090E0DF91CF9197
:103A200008951092F7051092F60588EE93E0A0E055
:103A3000B0E08093F8059093F905A093FA05B09350
:103A4000FB0587E693E09093F5058093F4058CE6FB
:103A500095E0909301068093000680EB95E09093AB
:103A600003068093020685EC90E090930506809310
:103A7000040684EC90E0909307068093060680ECA1
:103A800090E0909309068093080681EC90E0909373
:103A90000B0680930A0682EC90E090930D068093CB
:103AA0000C0686EC90E090930F0680930E0684E05F
:103AB0008093100683E08093110687E080931206BE
:103AC00085E08093130681E0809314060895CF93D8
:103AD000DF930E94131A0E94E408C2E9DBE10E940E
:103AE000DD062097E1F30E94921BF9CFCF92DF927F
:103AF000EF92FF920F931F93CF93DF937C016B01A3
:103B00008A01C0E0D0E00FC0D6016D916D01D701F0
:103B1000ED91FC910190F081E02DC7010995C80F4E
:103B2000D91F015010400115110571F7CE01DF9129
:103B3000CF911F910F91FF90EF90DF90CF9008955C
:103B4000DC01ED91FC910190F081E02D0995089543
:103B5000EF92FF920F931F938C01DC01ED91FC918A
:103B60000190F081E02D6DE009957C01D801ED9187
:103B7000FC910190F081E02DC8016AE009959C015B
:103B80002E0D3F1DC9011F910F91FF90EF900895D9
:103B9000CF93DF93EC016115710519F420E030E05B
:103BA0000FC0DB010D900020E9F71197A61BB70BA2
:103BB000E881F9810280F381E02DAD0109959C0136
:103BC000C901DF91CF9108954F925F927F928F92BA
:103BD0009F92AF92BF92CF92DF92EF92FF920F939C
:103BE0001F93DF93CF93CDB7DEB7A1970FB6F894AD
:103BF000DEBF0FBECDBF2C01742ECB01223008F4E6
:103C00002AE019A231E2C32ED12CCC0EDD1E822E69
:103C10009924AA24BB24672D752FA50194010E9425
:103C2000922579018A01C801B701A50194010E947A
:103C30007325472D461B0894C108D1084A3014F457
:103C4000405D01C0495CF6014083E114F1040105C7
:103C5000110521F07E2C5F2DC801DDCFC201B60118
:103C60000E94C81DA1960FB6F894DEBF0FBECDBF4F
:103C7000CF91DF911F910F91FF90EF90DF90CF9048
:103C8000BF90AF909F908F907F905F904F900895DE
:103C9000DC012115310541F4ED91FC910190F08199
:103CA000E02D642F099508950E94E41D0895EF9278
:103CB000FF920F931F939A017B0100E010E0B8017F
:103CC000A7010E94481E1F910F91FF90EF90089549
:103CD000EF92FF920F931F939A01E62EFF2400E0CC
:103CE00010E0B801A7010E94481E1F910F91FF909C
:103CF000EF900895CF92DF92EF92FF920F931F9370
:103D0000CF93DF93EC016A017B012115310541F46A
:103D1000E881F9810190F081E02D642F09951FC0A1
:103D20002A303105D1F477FF17C0E881F98101907D
:103D3000F081E02D6DE209958C0144275527BA01E9
:103D40004C195D096E097F09CE012AE00E94E41D2D
:103D50009801280F391F04C02AE00E94E41D9C012D
:103D6000C901DF91CF911F910F91FF90EF90DF90EC
:103D7000CF900895EF92FF920F931F937B019A01CA
:103D80000027F7FC0095102FB801A7010E947A1EAA
:103D90001F910F91FF90EF900895CF92DF92EF92D5
:103DA000FF920F931F936C017B019A010027F7FC90
:103DB0000095102FB801A7010E947A1E8C01C60140
:103DC0000E94A81D080F191FC8011F910F91FF9095
:103DD000EF90DF90CF9008950E94C81D08957F92C4
:103DE0008F929F92AF92BF92CF92DF92EF92FF920B
:103DF0000F931F93CF93DF934C017A018B01722EA7
:103E0000CB01BA01A80197010E945825882321F00F
:103E1000C40166E373E021C0C0E0D0E0570168014F
:103E2000E894D7F8C601B5012FEF3FEF4FE75FE702
:103E30000E945825882351F4C601B5012FEF3FEFAA
:103E40004FE75FE70E945423181614F0C1E0D0E05A
:103E5000219739F0C4016AE373E00E94C81DEC01A8
:103E600093C0C801B7012FEF3FEF4FE75FE40E9417
:103E7000A324181654F0C801B7012FEF3FEF4FE706
:103E80005FEC0E945423882324F4C4016EE373E0A2
:103E9000E4CFC801B70120E030E040E050E00E94EC
:103EA000542387FD03C0C0E0D0E00EC0D401ED91E3
:103EB000FC910190F081E02DC4016DE20995EC01C7
:103EC00017FB109517F9109520E030E040E05FE314
:103ED000DD240BC0CA01B90120E030E040E251E42A
:103EE0000E9458239B01AC01D394D71498F3C801C6
:103EF000B7010E94F0225B016C010E94C5237B0187
:103F00008C01C401B801A7012AE030E00E94481EDC
:103F1000C80FD91F772039F0C40162E473E00E9412
:103F2000C81DC80FD91FC801B7010E94F1239B010A
:103F3000AC01C601B5010E94EF2224C020E030E0B0
:103F400040E251E40E94A7247B018C010E94C0231F
:103F50005B016C01CC24B7FCC094DC2CC401B6011D
:103F6000A5012AE030E00E947A1EC80FD91FC601C1
:103F7000B5010E94F3239B01AC01C801B7010E9467
:103F8000EF227A947720D1F6CE01DF91CF911F9165
:103F90000F91FF90EF90DF90CF90BF90AF909F90E8
:103FA0008F907F9008950E94EF1E0895EF92FF92E8
:103FB0000F931F937C010E94EF1E8C01C7010E948A
:103FC000A81D080F191FC8011F910F91FF90EF90B6
:103FD0000895EF92FF920F931F937C010E94C81DDA
:103FE0008C01C7010E94A81D080F191FC8011F914D
:103FF0000F91FF90EF90089581E080935B066093AE
:1040000038061092590610925A06089520913706E4
:1040100030E080913606281B3109C901089540918E
:10402000360680913706481718F02FEF3FEF0AC089
:10403000E42FF0E0EA5EF94F8081282F30E04F5FF7
:1040400040933606C9010895E091360680913706FF
:10405000E81718F0EFEFFFEF06C0F0E0EA5EF94F67
:104060008081E82FF0E0CF010895089510925F0657
:1040700010925E0688EE93E0A0E0B0E080936006C8
:1040800090936106A0936206B093630687E793E07E
:1040900090935D0680935C060895CF92DF92EF9235
:1040A000FF920F931F93CF93DF937C016B018A01E3
:1040B00080915B068823A1F0C0E0D0E00DC0D7015D
:1040C000ED91FC91D601AC0FBD1F0190F081E02D68
:1040D000C7016C9109952196C017D10780F304C0E0
:1040E000CB01642F0E942521C801DF91CF911F9140
:1040F0000F91FF90EF90DF90CF900895DF93CF93D3
:104100000F92CDB7DEB7FC01698380915B068823EF
:10411000C9F080915A06803238F081E090E09383B4
:10412000828320E030E015C080915906E82FF0E04E
:10413000E75CF94F998190838F5F80935906809354
:104140005A0605C0CE01019661E00E94252121E0BA
:1041500030E0C9010F90CF91DF9108950F93062FA2
:104160008091380669E376E040915A0621E00E948A
:10417000D0201092590610925A0610925B060F91A9
:10418000089561E00E94AE200895109236061092C4
:1041900037061092590610925A060E94D1220895AD
:1041A0000F931F93582F122F413210F081E04AC015
:1041B000809168068823E1F782E080936806009387
:1041C0006A068FEF8093D506109290064093910671
:1041D000A0E7B6E0FB0102C081918D938E2F861B74
:1041E0008417D0F31092690680916906550F852BCC
:1041F0008093690680916B06813041F410926B06C2
:10420000809169068093BB0085EC01C085EE8093A8
:10421000BC00112321F0809168068230E1F3809187
:10422000D5068F3F11F480E00DC08091D506803215
:1042300011F482E007C08091D506803311F084E04C
:1042400001C083E01F910F910895482F613210F053
:1042500081E0089580916806843011F082E008952D
:104260006093B306A2E9B6E0842F9C01F90102C075
:1042700081918D938E2F841B8617D0F380E0089553
:104280001F920F920FB60F9211242F933F934F93CB
:104290005F936F937F938F939F93AF93BF93EF93AE
:1042A000FF938091B90090E0887F907080369105EF
:1042B00009F4F2C081369105CCF58832910509F4F4
:1042C0007BC089329105B4F48031910509F46FC047
:1042D000813191053CF4009709F447C1089709F032
:1042E0004FC165C08831910509F466C0809709F017
:1042F00047C182C08034910509F4A4C0813491057E
:1043000044F48033910509F482C0C89709F038C19C
:1043100089C08035910509F489C08835910509F473
:1043200096C08834910509F02BC1AEC0883991053B
:1043300009F413C189399105ECF48837910509F422
:10434000ABC0893791054CF48836910509F4A4C0B7
:104350008037910509F014C19FC08838910509F490
:10436000FCC08039910509F49DC08038910509F0A1
:1043700007C198C0803B910509F4C6C0813B9105F7
:104380004CF4803A910509F49FC0883A910509F0F0
:10439000F7C0BAC0803C910509F4E3C0883C9105A0
:1043A00009F4DFC0883B910509F0EAC0C2C08091E2
:1043B00069068093BB00CFC09091900680919106D2
:1043C000981768F490919006E92FF0E0E059F94FC2
:1043D00080818093BB009F5F90939006BCC08091CA
:1043E0006A06882309F44BC085ED8093BC00809158
:1043F000BC0084FDFCCFC2C080E28093D50685ED71
:104400008093BC008091BC0084FDFCCFB7C080E3EA
:104410008093D50685ED8093BC008091BC0084FD1F
:10442000FCCFACC088E38093D5069BC080919006FA
:104430009091BB00E82FF0E0E059F94F90838F5F37
:1044400080939006909190068091910682C0809111
:1044500090069091BB00E82FF0E0E059F94F90836F
:104460008F5F8093900680916A06882341F085EDE6
:104470008093BC008091BC0084FDFCCF7FC081E0B4
:1044800080936B0684EA6EC085ED8093BC008091BA
:10449000BC0084FDFCCF72C083E08093680610925C
:1044A000D40659C08091D406803208F056C080915D
:1044B000D4069091BB00E82FF0E0EC54F94F9083C4
:1044C0008F5F8093D40647C08091D406803230F449
:1044D000E091D406F0E0EC54F94F108285ED809322
:1044E000BC008091BC0084FDFCCF109268066091F6
:1044F000D406E0916E06F0916F0684EB96E070E0D2
:1045000009951092D4062DC084E08093680610921D
:10451000B2061092B306E0916C06F0916D06099513
:104520008091B306882329F481E08093B30610922A
:1045300092069091B206E92FF0E0EE56F94F808195
:104540008093BB009F5F9093B2069091B2068091DA
:10455000B306981710F485EC01C085E88093BC0081
:104560000FC085EC8093BC0009C01092D50685ED84
:104570008093BC008091BC0084FDFCCF1092680643
:10458000FF91EF91BF91AF919F918F917F916F912B
:104590005F914F913F912F910F900FBE0F901F9001
:1045A00018951092680681E080936A0610926B0657
:1045B00082E161E00E94AF1A83E161E00E94AF1ADC
:1045C000E9EBF0E080818E7F808380818D7F808326
:1045D00088E48093B80085E48093BC000895505827
:1045E000BB27AA270ED075C166D130F06BD120F061
:1045F00031F49F3F11F41EF45BC10EF4E095E7FB2C
:1046000051C1E92F77D180F3BA1762077307840786
:10461000950718F071F49EF58FC10EF4E0950B2EFE
:10462000BA2FA02D0B01B90190010C01CA01A00104
:104630001124FF27591B99F0593F50F4503E68F15F
:104640001A16F040A22F232F342F4427585FF3CFA0
:10465000469537952795A795F0405395C9F77EF471
:104660001F16BA0B620B730B840BBAF09150A1F0BA
:10467000FF0FBB1F661F771F881FC2F70EC0BA0F40
:10468000621F731F841F48F4879577956795B795C8
:10469000F7959E3F08F0B3CF9395880F08F09927C0
:1046A000EE0F979587950895D9D008F481E0089585
:1046B0000CD00FC107D140F0FED030F021F45F3FA5
:1046C00019F0F0C0511139C1F3C014D198F39923F6
:1046D000C9F35523B1F3951B550BBB27AA276217C6
:1046E0007307840738F09F5F5F4F220F331F441F0B
:1046F000AA1FA9F333D00E2E3AF0E0E830D0915043
:104700005040E695001CCAF729D0FE2F27D0660F2F
:10471000771F881FBB1F261737074807AB07B0E86E
:1047200009F0BB0B802DBF01FF2793585F4F2AF084
:104730009E3F510568F0B6C000C15F3FECF3983E64
:10474000DCF3869577956795B795F7959F5FC9F7E1
:10475000880F911D9695879597F90895E1E0660F6A
:10476000771F881FBB1F621773078407BA0720F0E3
:10477000621B730B840BBA0BEE1F88F7E09508954C
:1047800004D06894B111D9C00895BCD088F09F5767
:1047900090F0B92F9927B751A0F0D1F0660F771F8D
:1047A000881F991F1AF0BA95C9F712C0B13081F06D
:1047B000C3D0B1E00895C0C0672F782F8827B85FB5
:1047C00039F0B93FCCF3869577956795B395D9F7CE
:1047D0003EF490958095709561957F4F8F4F9F4FD8
:1047E0000895E89409C097FB3EF4909580957095E4
:1047F00061957F4F8F4F9F4F9923A9F0F92F96E92D
:10480000BB279395F695879577956795B795F111A1
:10481000F8CFFAF4BB0F11F460FF1BC06F5F7F4F3E
:104820008F4F9F4F16C0882311F096E911C0772350
:1048300021F09EE8872F762F05C0662371F096E859
:10484000862F70E060E02AF09A95660F771F881F28
:10485000DAF7880F9695879597F90895990F0008CC
:10486000550FAA0BE0E8FEEF16161706E807F90742
:10487000C0F012161306E407F50798F0621B730BDD
:10488000840B950B39F40A2661F0232B242B252B5E
:1048900021F408950A2609F4A140A6958FEF811D01
:1048A000811D089597F99F6780E870E060E00895A2
:1048B0009FEF80EC089500240A9416161706180638
:1048C0000906089500240A94121613061406050614
:1048D0000895092E0394000C11F4882352F0BB0FA5
:1048E00040F4BF2B11F460FF04C06F5F7F4F8F4F08
:1048F0009F4F089557FD9058440F551F59F05F3F43
:1049000071F04795880F97FB991F61F09F3F79F0F1
:1049100087950895121613061406551FF2CF469573
:10492000F1DF08C0161617061806991FF1CF8695F5
:104930007105610508940895E894BB2766277727D9
:10494000CB0197F908958ADF08F48FEF08950BD013
:10495000C0CFB1DF28F0B6DF18F0952309F0A2CF61
:10496000A7CF1124EACFC6DFA0F3959FD1F3950F0F
:1049700050E0551F629FF001729FBB27F00DB11DE3
:10498000639FAA27F00DB11DAA1F649F6627B00D73
:10499000A11D661F829F2227B00DA11D621F739F5C
:1049A000B00DA11D621F839FA00D611D221F749F6A
:1049B0003327A00D611D231F849F600D211D822FB1
:1049C000762F6A2F11249F5750408AF0E1F08823F8
:1049D0004AF0EE0FFF1FBB1F661F771F881F915005
:1049E0005040A9F79E3F510570F05CCFA6CF5F3FC6
:1049F000ECF3983EDCF3869577956795B795F79538
:104A0000E7959F5FC1F7FE2B880F911D96958795BF
:104A100097F9089511F40EF44BCF4EC073DFD0F325
:104A20009923D9F3CEF39F57550B87FF55D0569551
:104A30009795B0E020F4660F771F881FBB1F1F9368
:104A40000F9300249001A0018001F001A0E80E0F57
:104A50001F1F0A1E511D601B710B8009B50B48F406
:104A6000600F711F801DB51F0E1B1F0B0A0A510915
:104A700007C02E0F3F1F4A1F0E0F1F1F0A1E511D7A
:104A8000660F771F881FBB1FA695F795E795F8F669
:104A90000617170708065B07211D311D411D0F91E1
:104AA0001F91B901842F9158880F96958795089585
:104AB000D5DE880B990B08959F3F49F0915028F45B
:104AC000869577956795B7959F5F80389F4F880F3C
:104AD0009695879597F9089591505040660F771FE6
:104AE000881FD2F70895629FD001739FF001829FC3
:104AF000E00DF11D649FE00DF11D929FF00D839F6D
:104B0000F00D749FF00D659FF00D9927729FB00D09
:104B1000E11DF91F639FB00DE11DF91FBD01CF011C
:104B200011240895A1E21A2EAA1BBB1BFD010DC082
:104B3000AA1FBB1FEE1FFF1FA217B307E407F5074D
:104B400020F0A21BB30BE40BF50B661F771F881F29
:104B5000991F1A9469F760957095809590959B01BF
:104B6000AC01BD01CF01089597FB092E05260ED09B
:104B700057FD04D0D7DF0AD0001C38F4509540957B
:104B8000309521953F4F4F4F5F4F0895F6F7909521
:104B90008095709561957F4F8F4F9F4F0895EE0FD1
:0E4BA000FF1F0590F491E02D0994F894FFCFCB
:104BAE0074656D7020002000656D6F6E5069205623
:104BBE00002055534100204555004F70656E456EDF
:104BCE00657267794D6F6E69746F722E6F726700C2
:104BDE00504F53542E2E2E2E2E7761697420313065
:104BEE0073004F4B200020282D30290043542031D4
:104BFE002043616C3A2000435420322043616C3ACA
:104C0E00200056524D53204143207E005600414312
:104C1E002057617665204465746563746564004150
:104C2E00432057617665204465746563746564201E
:104C3E002D205265616C20506F7765722063616C18
:104C4E006320656E61626C656400555341206D6F23
:104C5E006465005663616C3A20005068617365208C
:104C6E0053686966743A20004143204E4F542044E5
:104C7E0065746563746564004143204E4F5420642F
:104C8E0065746563746564202D2041707061726572
:104C9E006E7420506F7765722063616C6320656E51
:104CAE0061626C656400417373756D696E67205641
:104CBE00524D5320746F2062652000446574656305
:104CCE0074656420004E4F20435420646574656300
:104CDE007465642C2073616D706C696E67206672EA
:104CEE006F6D2043543120616E79776179004E6F7C
:104CFE002043542773004354203120646574656348
:104D0E00746564004354312000435420322064659E
:104D1E007465637465640043543200204453313823
:104D2E004232300044657465637465643A20004411
:104D3E005331384232302054656D70005A65726FAF
:104D4E0020445331384232302074656D70207365C3
:104D5E006E736F7220646574656374656400524689
:104D6E004D3639435720496E69743A20004E6F64B0
:104D7E00652000204672657120003433334D687A09
:104D8E00003836384D687A003931354D687A002052
:104D9E004E6574776F726B20004F70656E456E6551
:104DAE007267794D6F6E00446574656374696E67E2
:104DBE0020435427732E2E004F4B0028002900202D
:104DCE002D3E2061636B002069002067002040208B
:104DDE0000204D487A006E616E00696E66006F7637
:104DEE0066002E00CDCCCC3D01297C864301010509
:104DFE00D20001000000000518761D0000400014CE
:104E0E0000540000000000D11C761D671C981C7811
:104E1E001CC11C000000007E204D2006200F202407
:044E2E00203520000B
:00000001FF
