:200000000C94F5010C944F1B0C947C1B0C941D020C941D020C941D020C943F020C941D022C
:200020000C941D020C941D020C941D020C941D020C941D020C941D020C941D020C941D02C8
:200040000C945A190C941D020C94A91B0C94DB1B0C941D020C941D020C941D020C941D02D8
:200060000C9408170C941D021C08B5072708270827082708D9072708A10727082708270822
:20008000270827082708F307270827081C0827082708050820620A00202D3E20000A4176F4
:2000A00061696C61626C6520636F6D6D616E64733A0A20203C6E6E3E206920202020202DD4
:2000C00020736574206E6F64652049447320287374616E64617264206E6F6465206964730F
:2000E0002061726520312E2E3330290A20203C6E3E20622020202020202D20736574204DF5
:20010000487A2062616E64202834203D203433332C2038203D203836382C2039203D2039F3
:200120003135290A20203C6E6E6E3E2067202020202D20736574206E6574776F726B2067D1
:20014000726F7570202852464D3132206F6E6C7920616C6C6F7773203231322C2030203D27
:2001600020616E79290A20203C6E3E20632020202020202D2073657420636F6C6C656374DA
:20018000206D6F64652028616476616E6365642C206E6F726D616C6C792030290A20202E71
:2001A0002E2E2C3C6E6E3E2061202D2073656E642064617461207061636B657420746F2054
:2001C0006E6F6465203C6E6E3E2C20726571756573742061636B0A20202E2E2E2C3C6E6E47
:2001E0003E2073202D2073656E642064617461207061636B657420746F206E6F6465203CA0
:200200006E6E3E2C206E6F2061636B0A20202E2E2E2C3C6E3E207020202D205365742041BA
:20022000432041646170746572205663616C203170203D20554B2C203270203D20555341C2
:200240000A202076202020202020202020202D2053686F77206669726D7761726520766538
:200260007273696F6E0A00010402000302048A050506C30B2019421E2C25802E882F2D371E
:200280000038003C8F3D106F2000005EBCE2613FDD83C29C7E20A3FD1F419DC3217FFCA2E9
:2002A000401E5F01E3BD3E6082DC237D9FC1421CFEA0E1BF5D0380DE3C62BEE0025CDF8190
:2002C000633D7C22C09E1D43A1FF4618FAA427799BC584DA3866E5BB5907DB856739BAE4EC
:2002E00006581947A5FB7826C49A653BD987045AB8E6A7F91B45C6987A24F8A6441A99C750
:20030000257B3A6486D85B05E7B98CD2306EEDB3510F4E10F2AC2F7193CD114FADF3702EAB
:20032000CC92D38D6F31B2EC0E50AFF1134DCE90722C6D33D18F0C52B0EE326C8ED0530D0F
:20034000EFB1F0AE4C1291CF2D73CA947628ABF517490856B4EA6937D58B5709EBB536686B
:200360008AD495CB2977F4AA4816E9B7550B88D6346A2B7597C94A14F6A8742AC896154BCF
:20038000A9F7B6E80A54D7896B3500000008000201000003040700000000000000000102A5
:2003A000040810204080010204081020010204081020040404040404040402020202020297
:2003C0000303030303030000000023002600290000000000250028002B00000000002400FD
:2003E00027002A001F076A160B1C11241FBECFEFD8E0DEBFCDBF13E0A0E0B1E0E8EAF5E47F
:2004000002C005900D92A434B107D9F726E0A4E4B3E001C01D92A039B207E1F713E0CAEEE0
:20042000D3E004C02297FE010E94A522C43ED107C9F70E94981E0C94D2220C9400008091ED
:2004400090038F5F8093900308951F93CF93DF93EC01FE011491112371F01A3029F46DE078
:2004600083EF95E00E948E1C612F83EF95E00E948E1C2196EECFDF91CF911F9108951F9244
:200480000F920FB60F9211242F933F934F935F936F937F938F939F93AF93BF93EF93FF93A8
:2004A0000E944E0AFF91EF91BF91AF919F918F917F916F915F914F913F912F910F900FBE76
:2004C0000F901F901895CF93DF936AE070E080E090E00E94D31920E436E040910601609172
:2004E0000901809108010E94A109CAE0D0E0D093A303C093A20344E162EA73E080E00E946B
:20050000100A64E670E080E090E00E94D319219770F782E00E942F0A1092A3031092A203DE
:20052000DF91CF910895FF920F931F93CF93DF930E94FA09882309F461C0F090D0048091C2
:20054000160590911705892B09F059C068E171E083EF95E00E948C1C63E372E083EF95E033
:200560000E948C1C6091CF046F7170E04AE050E083EF95E00E945E1D63E372E083EF95E060
:200580000E948C1C01ED14E0E8018C2F801B8F1570F4699170E04AE050E083EF95E00E94BB
:2005A000921D60E283EF95E00E948E1CEECF6BE171E083EF95E00E948C1C60911D0570E029
:2005C000759567957195619571094AE050E083EF95E00E945E1D64EC72E083EF95E00E9416
:2005E0008C1C83EF95E00E94951C8091CF0485FF1BC08091CF0487FF04C016C019C080E099
:2006000017C06DE171E083EF95E00E948C1C8091CF0486FD0BC08091CF048F71806C40E011
:2006200060E070E00E940E0A81E002C080E8F7CFDF91CF911F910F91FF9008958091460379
:200640008823D1F10E940C0A811101C0089561E089E00E94A21A68EC70E080E090E00E9467
:20066000D31960E089E00E94A21A88E990E00E9425026091480370E04AE050E083EF95E010
:200680000E94921D84E990E00E94250280914603813681F080E090914703992311F0906465
:2006A000892B409148036AE473E00E940E0A10924603089580E2EFCF089589E094E00E944B
:2006C000581989E094E00E945E1865E271E089E094E00E948C1C22E030E040E050E060E84B
:2006E0007FE389E094E00E94831E41E060E089E094E00E94BF186EE271E089E094E00C94A3
:200700008C1C89E094E00E94B1186CE371E083EF95E00E948C1C22E030E04DEC5CEC65EB35
:2007200072E483EF95E00E94851E67E471E083EF95E00E948C1C22E030E04DEC5CEC65EB87
:2007400072E483EF95E00E94851E62E571E083EF95E00E948C1C40919E0350919F03609168
:20076000A0037091A10320E030E083EF95E00E94831E6CE271E083EF95E00E94A91C8091F9
:2007800097038823D9F16CE571E089E094E00E948C1C6DE671E083EF95E00E94A91C80917E
:2007A0000804882331F068E971E083EF95E00E94A91C61EA71E083EF95E00E948C1C4091D3
:2007C0009A0350919B0360919C0370919D0322E030E083EF95E00E94851E68EA71E083EF79
:2007E00095E00E948C1C22E030E04AE959E969ED7FE383EF95E00E94851E1FC066EB71E04E
:2008000089E094E00E948C1C66EC71E083EF95E00E94A91C64EF71E083EF95E00E948C1CEB
:200820004AE050E066EE83EF95E00E948B1D6CE271E083EF95E00E94A91C41E060E089E022
:2008400094E00E94BF1863E072E089E094E00E948C1C80919503811109C06DE072E083EFDA
:2008600095E00E94A91C6CE172E01CC080919903882361F064E272E083EF95E00E94A91C92
:2008800060E372E089E094E00E948C1C80919803882361F065E372E083EF95E00E94A91C0C
:2008A00061E472E089E094E00E948C1C60ED77E080E090E00E94D31980919603882389F0AA
:2008C00065E472E083EF95E00E948C1C4AE050E06091B60383EF95E00E948B1D6DE472E074
:2008E00002C06EE672E083EF95E00E94A91C89E094E00E94B11866E572E089E094E00E94DE
:200900008C1C4AE050E06091B60389E094E00E948B1D41E060E089E094E00E94BF1861E606
:2009200072E089E094E00E948C1C80910A01882309F44CC061E872E083EF95E00E94A91C85
:2009400060E972E083EF95E00E948C1C4AE050E06091080183EF95E00E948B1D66E972E0A5
:2009600083EF95E00E948C1C80910901813031F46DE972E083EF95E00E948C1C8091090161
:20098000823031F464EA72E083EF95E00E948C1C80910901833031F46BEA72E083EF95E02E
:2009A0000E948C1C62EB72E083EF95E00E948C1C60910601709107014AE050E083EF95E0DB
:2009C0000E94661D8DE990E00E94250264E170E080E090E00C94D319EF92FF920F931F93EC
:2009E000CF93DF93CDB7DEB764970FB6F894DEBF0FBECDBF84E1E2EAF3E0DE0111960190AD
:200A00000D928A95E1F76CEB72E083EF95E00E948C1C4AE050E06091080183EF95E00E9489
:200A20008B1D8E010F5F1F4F7E0185E1E80EF11C60E283EF95E00E948E1CF80161918F01CB
:200A40004AE050E083EF95E00E948B1D0E151F0579F760EC72E083EF95E00E948C1C83EF13
:200A600095E00E94951C6AE070E080E090E064960FB6F894DEBF0FBECDBFDF91CF911F9183
:200A80000F91FF90EF900C94D319CF92DF92EF92FF920F931F93CF93DF93EB0100E010E054
:200AA000C12CD12C76010C171D077CF480E00E94011BDC01B2509D010E94A922C60ED71E4D
:200AC000E81EF91E0F5F1F4FEECFC701B6010E94EE206B017C01BE01882777FD8095982F8A
:200AE0000E94F0209B01AC01C701B6010E945520DF91CF911F910F91FF90EF90DF90CF9069
:200B00000C940B2261E089E00E94691A61E089E00E94A21A62E088E00E94691A61E085E0BC
:200B20000E94691A60E085E00E94A21A60E083E00E94691A26E040E056E960E070E083EF5E
:200B400095E00E948A1F65E271E083EF95E00E948C1C22E030E040E050E060E87FE383EF8E
:200B600095E00E94851E66EC72E083EF95E00E94A91C6CED72E083EF95E00C94A91C81E071
:200B80000E94011B181619064CF481E080939903809195038F5F8093950302C010929903B8
:200BA00082E00E94011B181619064CF481E080939803809195038F5F8093950302C01092D3
:200BC000980380919503811103C081E08093990360E089E00E94A21A64EF76E080E090E0EC
:200BE0000E94450522E538EB4EE55FE30E94A42160939E0370939F038093A0039093A1034D
:200C000020E030E044EB52E40E94A021181624F481E0809397030895109297030895CF93D0
:200C200087EE93E00E94E31387EE93E00E945C128093B603C0E08091B603C81760F488E06B
:200C4000C89FB001112469547C4F8AEF93E00E94A811811123C0C0E08091B603C81768F45E
:200C600088E0C89FB001112469547C4F4CE087EE93E00E946D13CF5FEFCF811103C010921E
:200C8000960308C091E090939603873018F086E08093B6038091B603CF910895CF5FCBCF46
:200CA000EF92FF920F931F9364E670E080E090E00E94D31980910804882329F080E090E025
:200CC000A2E0B3E408C080910B0190910C01A0910D01B0910E0180939A0390939B03A093B5
:200CE0009C03B0939D0380910A0181110E9463020E940F060E9482050E945D030E94BF0575
:200D000060ED77E080E090E00E94D3190E94810380919603811107C042E050E06FE172E0B4
:200D200081E00E941F1B1092A7031092A60380919903882351F02DEC3CEC45EB52E461E05E
:200D400070E081E794E00E94680C80919803882351F02DEC3CEC45EB52E462E070E085E11A
:200D600094E00E94680C80919703882381F1809199038823A1F020919A0330919B034091BA
:200D80009C0350919D031AE9E12E19E9F12E09ED1FE360E070E081E794E00E944C0C809191
:200DA00098038823A1F020919A0330919B0340919C0350919D031AE9E12E19E9F12E09ED95
:200DC0001FE360E070E085E194E00E944C0C1F910F91FF90EF900895CF92DF92EF92FF92CE
:200DE00098E0899FB001112469547C4F87EE93E00E9479156B017C0120E030E04AEF52E465
:200E00000E94512087FF16C020E030E04CE552ECC701B6010E94A021181664F420E030E06C
:200E200040E251E4C701B6010E94A4210E94BD20CB0100C0FF90EF90DF90CF90089522E0EF
:200E400040E167E289E094E00E94351864E08AEF93E00E9485116AEF73E087EE93E00C94C0
:200E60004D120F931F9380910804882329F080E090E0A2E0B3E408C080910B0190910C01E2
:200E8000A0910D01B0910E0180939A0390939B03A0939C03B0939D0388E00E94D81A892BED
:200EA00011F461E001C060E085E00E94A21A83EF95E00E94A71E892B09F43FC183EF95E042
:200EC0000E94C01E90ED980F9A30A8F440914403509145039AE0949F9001959F300D1124E3
:200EE00020533109280F311D87FD3A95309345032093440322C18C3281F4E0914903E6347B
:200F000008F017C181E08E0F80934903F0E0E65BFC4F8091440380830CC181320CF407C1A5
:200F2000482F552747FD5095652F752FFA01E156F109E631F10508F08AC0EC5CFF4F0C94AC
:200F4000A3228091440390914503009771F08093080120910A01222309F47DC020E436E0A2
:200F600040910601609109013BC080914403843031F0883031F0893031F463E005C061E076
:200F800003C062E001C060E0862F90E09093450380934403892B09F45EC060930901809184
:200FA0000A01882309F457C020E436E04091060115C040914403509145034115510509F4B6
:200FC0004AC0509307014093060180910A01882309F441C020E436E060910901809108014E
:200FE0000E94A10938C08091440390914503009791F18130910519F4109208042CC002974C
:2010000051F581E08093080426C06DEE72E083EF95E00E948C1C22E030E040E050E060E89C
:201020007FE383EF95E00E94831E66EF72E083EF95E00E94A91C0FC08093460380914903A7
:2010400080934803809144038093470304C08DE990E00E94250280910A01882309F467C01F
:2010600060E283EF95E00E948E1C609108016F71605C83EF95E00E948E1C68EF72E083EF17
:2010800095E00E948C1C609108016F7170E04AE050E083EF95E00E945E1D6BEF72E083EFEB
:2010A00095E00E948C1C60910601709107014AE050E083EF95E00E945E1D6EEF72E083EFF1
:2010C00095E00E948C1C80910901813039F0823041F0833049F463E973E008C061EB71E085
:2010E00005C064E673E002C060E070E04AE050E083EF95E00E945E1D62E073E083EF95E062
:201100000E948C1C67E073E083EF95E00E948C1C6091080470E04AE050E083EF95E00E948A
:201120005E1D63E372E083EF95E00E94A91C10924903109245031092440380910A018823C6
:20114000A1F00E949302882371F061E089E00E94A21A68EC70E080E090E00E94D31960E071
:2011600089E00E94A21A0E941E030E94A41900919103109192032091930330919403601B11
:20118000710B820B930B693873418105910508F4D5C080919703882351F068EC70E080E00B
:2011A00090E00E94D3191092A9031092A80380919903882309F441C080919703882359F1A0
:2011C00040ED57E064E170E081E794E00E949F0C60917104709172048091730490917404EF
:2011E0000E94BD207093A3036093A20320E030E048EC52E460917D0470917E0480917F042C
:20120000909180040E94A4210E94BD207093A9036093A80312C068EC75E081E794E00E94FD
:20122000700F20E030E046E653E40E94A4210E94BD207093A3036093A2038091980388233E
:2012400009F441C080919703882359F140ED57E064E170E085E194E00E949F0C60911504C6
:201260007091160480911704909118040E94BD207093A5036093A40320E030E048EC52E4AC
:20128000609121047091220480912304909124040E94A4210E94BD207093A9036093A8035D
:2012A00012C068EC75E085E194E00E94700F20E030E046E653E40E94A4210E94BD2070935C
:2012C000A5036093A40380919603811115C080919003882339F1F894209190038091A603B8
:2012E0009091A703820F911D9093A7038093A60310929003789416C087EE93E00E94B514F1
:2013000010E08091B603181710F7812F0E94EC06E12FF0E0EE0FFF1FE655FC4F9183808301
:201320001F5FEFCF0E94EC040E94A419609391037093920380939303909394031F910F91AE
:201340000895CF92DF92EF92FF921F93CF93DF93C82F162FD42FF901AFEFA60FA33028F40B
:20136000B0E0A35FBC4FAC9101C0A0E0B0E020E836E948E950E00E94C7226B017C01212F76
:2013800030E0A4ECB9E00E94B122DF019B01AC010E94C722C60ED71EE81EF91EC701B60186
:2013A0000E94940AD09321058C2F8F718093200564E170E080E090E00E94D3198091200548
:2013C000882341F043E050E06FEE7BE080E00E941F1B03C080E00E943F1B0E94C90AC09303
:2013E000CD048C2FDF91CF911F91FF90EF90DF90CF9008958EEC94E00E94220B909317056C
:2014000080931605209116053091170581E02F3F3F4F09F480E008950C94B10A0C947B0B1D
:20142000EF92FF921F93CF93DF931F92CDB7DEB7182F7B0149830E94B10A4981811105C03D
:2014400049830E94FA094981F5CFB701812F0F90DF91CF911F91FF90EF900C947B0BCF9370
:20146000C82F0E94C20A8823B9F0CC23D1F383B7817FC33021F0C23021F49CE003C094E008
:2014800001C090E0892B83BF83B7816083BF889583B78E7F83BFE5CFCF9108958091180543
:2014A0008F5F8093180508958627682F62956827062E669566956025062E6695602567706D
:2014C000082E892F669507946795902D862706946795902586270895E8982A988EBD0DB43F
:2014E00007FEFDCF8EB56EBD0DB407FEFDCF8EB52A9AE89A089560E00C946C0A88E20E9493
:201500007B0A807521F080E00E947B0AF7CF0895CF93C82F81E00E947B0A682F637E6C2B66
:2015200081E8CF910C946C0A22E0660F771F881F991F2A95D1F729E03DE340E050E00E94BE
:20154000622266E0220F331F441F551F6A95D1F720932205309323054093240550932505D2
:20156000089580911B05853021F480911C05882311F080E0089584E080931B050E94880A2D
:2015800081E0089590911B0581E094300CF080E00895CF93DF932A9A229A2A9A84B18C62B3
:2015A00084B980E58CBD8DB581608DBD6AEA8FEA0E946C0A8FE20E947B0A8A3AB9F765E598
:2015C0008FEA0E946C0A8FE20E947B0A8535B9F7C7E6D2E0FE018491882339F03196649175
:2015E00080680E946C0A2296F5CF6091210580EB0E946C0A8091220590912305A0912405FA
:20160000B0912505BD018827992787E80E946C0A8091220590912305A0912405B091250565
:20162000692F7A2F8B2F992788E80E946C0A6091220589E80E946C0A84E080931B05DF91BF
:20164000CF910895CF93DF93EC0180911B05843019F08530E1F045C01092D00410921C051A
:20166000609121058FEF9FEF0E94540A90931F0580931E05D0931A05C093190585E080935F
:201680001B050E947E0A80E10E94880A2AC08091D00420911C0590E0049630E0821793077D
:2016A00024F080911C058834E0F084E080931B050E94880A8091D004833430F081E090E000
:2016C00090931F0580931E058091CF0486FF0CC0909120059F3141F08091CF048F7189178D
:2016E00019F08FEF9FEF04C080911E0590911F05DF91CF910895CF934093D004FB0120E026
:2017000030E050E02417350744F4D901AF52BB4F91919C932F5F3F4FF5CF86FD04C0807E7F
:2017200090912005890F8093CF04609121058FEF9FEF0E94540A9093170580931605909134
:20174000D0048EEF891B80931B050E947E0A8CE00E94880A60E085EA0E946C0A80911B059F
:201760008330DCF588E20E947B0A87FDF7CF80911B0587FF1BC09091D00480911B05E091E1
:201780001905F0911A05E90FF11DE80FF11D87FDFA95C3816C2F80911E0590911F050E9473
:2017A000540A90931F0580931E050DC080911B05882329F0813031F4C0911F0504C0C0912C
:2017C0001E0501C0CAEA6C2F80E80E946C0A80911B058F5F80931B05C1CFCF910895809166
:2017E0001B05853009F049C084E20E947B0A80931D05789488E20E947B0A8075D9F38091E1
:201800001C0581110FC0E0911905F0911A0580911C0591E0980F90931C0590912105E80F4B
:20182000F11D908380E00E947B0AE0911905F0911A0590911C0521E0290F20931C05E90F8A
:20184000F11D8083682F80911E0590911F050E94540A90931F0580931E058091D004209154
:201860001C0590E0049630E082179307A4F080911C05883408F4BECF089588E20E947B0AC1
:2018800083FF09C084E080931B050E94880A60E885EA0C946C0A0895EF92FF920F931F9362
:2018A000FC01758B648B208F318F428F538FE0A2F1A202A313A340E050E060E074E444ABD3
:2018C00055AB66AB77AB1F910F91FF90EF900895FC01778B668B248F358F468F578F40E098
:2018E00050E060E074E440AF51AF62AF73AF08958EE480937C0062E070E080E090E00E945C
:20190000D31980917A00806480937A0080917A0086FDFCCF809178002091790030E0322FE2
:201920002227442737FD4095542F282B60E070E381E190E00E948422CA01B90108952F9284
:201940003F924F925F926F927F928F929F92AF92BF92CF92DF92EF92FF920F931F93CF9354
:20196000DF93CDB7DEB7A8970FB6F894DEBF0FBECDBF98A78FA37E8F6D8F8A010E94780C2B
:201980006D8B7E8B8F8B988F0E94A4194B015C016FA078A428E5620E711CC801A0E0B0E0EF
:2019A000898B9A8BAB8BBC8BAFA1B8A554968C910E94011BF30191838083BC01882777FD14
:2019C0008095982F0E94F0206B017C012DEC3CEC4CE054E40E94512087FF0BC011E026E68A
:2019E00036E646EE53E4C701B6010E94A02118160CF010E00E94A419681979098A099B09CB
:201A000029893A894B895C89261737074807590708F040C00E94A419698F7A8F8B8F9C8FD1
:201A200000E010E01A8219824FA158A5405C5F4F58A34F8F8FA198A58C5B9F4F9C878B8718
:201A4000AFA1B8A5A85BBF4FBAA3A9A3EFA1F8A5E45BFF4FFE87ED872FA138A5205B3F4FB6
:201A60003CA32BA34FA158A54C5A5F4F588B4F878FA198A5865A9F4F9E838D832FA038A4A8
:201A80009BE5290E311CAFA1B8A5A85ABF4FBEA3ADA344C1112309F487CFBCCF0E94A4195E
:201AA000298D3A8D4B8D5C8D621B730B840B950B29893A894B895C89621773078407950776
:201AC00008F034C10F5F1F4FEFA1F8A584A595A5A6A5B7A580A791A7A2A7B3A784890E9455
:201AE000011BAFA1B8A595969C938E93949756968C910E94011B3C01EFA1F8A597A386A3E3
:201B000024A135A13A872987B901882777FD8095982F0E94F0206B017C01AFA1B8A5D4964E
:201B20008D909D90AD90BC90D797A50194010E94EC1F20E030E040E85AE30E94A4219B0104
:201B4000AC01C501B4010E94ED1F9B01AC01EFA1F8A564AB75AB86AB97ABC701B6010E9476
:201B6000EC1F4B015C01AFA1B8A59C966D937D938D939C939F97B301882777FD8095982F8A
:201B80000E94F0206B017C01EFA1F8A540AC51AC62AC73ACA30192010E94EC1F20E030E073
:201BA00040E85AE30E94A4219B01AC01C301B2010E94ED1F9B01AC01AFA1B8A5D8966D9387
:201BC0007D938D939C93DB97C701B6010E94EC1F6B017C01EFA1F8A560AB71AB82AB93AB60
:201BE000A5019401C501B4010E94A4219B01AC01AF8DB8A16D937D938D939C931397EB8571
:201C0000FC8560817181828193810E94ED1FAB85BC856D937D938D939C931397A7019601F2
:201C2000C701B6010E94A4219B01AC01E9A1FAA16083718382839383AD85BE856D917D91DD
:201C40008D919C910E94ED1FED85FE856083718382839383AFA1B8A598964D905D906D9002
:201C60007C909B97A3019201C501B4010E94EC1FEFA1F8A520A131A142A153A10E94A421C9
:201C80009B01AC01C301B2010E94ED1FAFA1B8A5DC966D937D938D939C93DF97A7019601A3
:201CA0000E94A4219B01AC01EBA1FCA16083718382839383AF85B8896D917D918D919C918D
:201CC0000E94ED1FEF85F8896083718382839383D1018C91ED81FE818083ADA1BEA18D91C5
:201CE0009C91E985FA858E179F070CF0F6C021E0F10120830130110529F4F1018081AD81B2
:201D0000BE818C93ED81FE819081D1018C91981729F0E981FA813196FA83E98329813A81B6
:201D20004D8D5E8D2417350708F4B8CEAD89BE89BD01882777FD8095982F0E94F02020E0F9
:201D400030E04AE754E40E94552020E030E040E85AE30E94A4212B013C01EFA1F8A5208DD4
:201D6000318D428D538D0E94A4214B015C01B80180E090E00E94EE206B017C012FA038A419
:201D8000F4E42F0E311C9B01AC01D1016D917D918D919C910E9455200E940B229B01AC0140
:201DA000C501B4010E94A42169837A838B839C83EFA1F8A56487758786879787248D358D79
:201DC000468D578DC301B2010E94A4212B013C010FA118A5045B1F4FA7019601D8016D91B5
:201DE0007D918D919C910E9455200E940B229B01AC01C301B2010E94A4216D837E838F837A
:201E00009887EFA1F8A5608B718B828B938BA3019201C501B4010E94A421AFA0B8A4F4E5C7
:201E2000AF0EB11CD5012D913D914D915C910E94A421A70196010E9455206B017C01EFA1B5
:201E4000F8A560837183828393832D813E814F81588569817A818B819C810E94A4219B01C8
:201E6000AC01AFA1B8A514966D937D938D939C931797C701B6010E945520EFA1F8A56087A7
:201E8000718782879387D1011D921D921D921C921397F8011082118212821382D5011D9224
:201EA0001D921D921C921397A8960FB6F894DEBF0FBECDBFDF91CF911F910F91FF90EF90B9
:201EC000DF90CF90BF90AF909F908F907F906F905F904F903F902F900895D1011C920ACFF8
:201EE0002F923F924F925F926F927F928F929F92AF92BF92CF92DF92EF92FF920F931F9350
:201F0000CF93DF9300D000D000D0CDB7DEB79E838D837A8369830E94780C2B013C0100E0DB
:201F200010E08D819E81845B9F4F1C01ED81FE81E85BFF4FFC83EB8389819A8108171907CB
:201F400009F455C0ED81FE8186890E94011BED81FE8197A386A3BC01882777FD8095982FA9
:201F60000E94F0206B017C01ED81FE8180AC91ACA2ACB3ACA50194010E94EC1F20E030E0CB
:201F800040E85AE30E94A4219B01AC01C501B4010E94ED1F9B01AC01ED81FE8160AF71AF9E
:201FA00082AF93AFC701B6010E94EC1FED81FE8160AB71AB82AB93AB9B01AC010E94A42153
:201FC0009B01AC01EB81FC816083718382839383F10160817181828193810E94ED1FF10161
:201FE00060837183828393830F5F1F4FA5CFB80180E090E00E94EE209B01AC01F10160814A
:202000007181828193810E9455200E940B226B017C01B201882777FD8095982F0E94F02084
:2020200020E030E04AE754E40E94552020E030E040E85AE30E94A421ED81FE81248D358DD4
:20204000468D578D0E94A421A70196010E94A421ED81FE81608B718B828B938BF101108239
:2020600011821282138226960FB6F894DEBF0FBECDBFDF91CF911F910F91FF90EF90DF9004
:20208000CF90BF90AF909F908F907F906F905F904F903F902F900895FF920F931F93CF93B7
:2020A000DF93FC010081C181D281F8948981F02EF0948F21898378941DE7115029F182E0BA
:2020C00090E00E94FB1988818023B9F3F8948A818F218A838981802B8983789480EE91E082
:2020E0000E94FB19F89489818F21898386E490E00E94FB198881802311E009F010E07894B6
:202100008AE991E00E94FB19812FDF91CF911F910F91FF9008951F93CF93DF93FC01108115
:20212000C181D281912F909560FF12C0F8948A8189238A838981812B89838AE090E00E9466
:20214000FB198A81812B8A83789487E390E011C0F8948A8189238A838981812B898381E479
:2021600090E00E94FB198A81812B8A83789485E090E0DF91CF911F910C94FB190F931F930C
:20218000CF93DF93FC011081C181D281F8948981812B89838A81012F009580238A8383E017
:2021A00090E00E94FB198981802389838AE090E00E94FB19C881789485E390E00E94FB19CD
:2021C0001C2381E009F480E0DF91CF911F910F910895CF92DF92EF92FF920F931F93CF93AB
:2021E000DF931F92CDB7DEB76C01E62E08E010E0FF24F39461E09F2D9E2109F460E0C601D0
:2022000049830E948B10FF0C0150110949810115110581F7411115C0F894D6011196ED9122
:20222000FC91129791818C918095892381831196ED91FC91129792818C9180958923828323
:2022400078940F90DF91CF911F910F91FF90EF90DF90CF900895EF92FF920F931F93CF9372
:20226000DF938C01C8E0D0E0F12CEE24E394C8010E94BE108111FE28EE0C2197C1F78F2D4A
:20228000DF91CF911F910F91FF90EF900895CF92DF92FF920F931F93CF93DF931F92CDB7B3
:2022A000DEB78C01F62E40E065E579830E94E910CF2C7981D72E88E0F82EF60161916F01F6
:2022C00040E0C8010E94E910FA94B9F70F90DF91CF911F910F91FF90DF90CF90089540E063
:2022E0006CEC0C94E910FC0113861586148627E030E0DF01A20FB31F13961C9221153105E5
:2023000019F021503109F5CF08951F93CF93DF93EC01162F60E0812F0E94691A612F70E0FB
:20232000FB01E256FC4FE491E883FB01EE54FC4FE491F0E0EE0FFF1FEA53FC4F8591949192
:202340009A838983CE01DF91CF911F910C947311AF92BF92CF92DF92EF92FF920F931F9317
:20236000CF93DF931F92CDB7DEB75C01E62ED72EFC01858581115DC0C5010E944C1081113D
:2023800005C0F5011386158614866EC040E060EFC5010E94E91001E0F12CC12C11E0C50114
:2023A0000E94BE10682FC50169830E94BE106981613019F48130B9F433C02F2D30E0681334
:2023C0001BC0F5018385181730F4E20FF31F8381802349F402C0181731F060E0193058F403
:2023E000F501148708C0F501EF0DF11D8381802B838361E009C0C12EF501E20FF31F8381D9
:20240000902F909589238383C5010E948B101F5F000F11F4F39401E0F7E0FF1508F0BFCFB8
:20242000113438F0F501C386C11018C081E0858715C0F50113861586148680E0EE2DFD2D9C
:2024400020E030E0D501A20FB31F13969C9191932F5F3F4F28303105A9F706C0F50183810F
:20246000882339F381E0EACF0F90DF91CF911F910F91FF90EF90DF90CF90BF90AF900895A5
:20248000DC0180E0615038F0ED91E827F0E0E657FD4F8491F7CF08950895FC018CE492E14B
:2024A000928B818B768365831482108289E0818381E0828383830895FC0184810895CF9373
:2024C000DF93EB0167E0CE010E94401291E02F81821390E0892FDF91CF910895EF92FF9237
:2024E0000F931F93CF93DF9300D0CDB7DEB77C018A01FC018581968169837A830E944C10C2
:2025000069817A81F701858196810E94471140E06EEBF701858196810E94E910F7018581A0
:2025200096810E942B11F8018083F701858196810E942B11F8018183F701858196810E9403
:202540002B11F8018283F701858196810E942B11F8018383F701858196810E942B11F80163
:202560008483F701858196810E942B11F8018583F701858196810E942B11F8018683F70173
:20258000858196810E942B11F8018783F701858196810E942B11F8018087F7018581968135
:2025A0000F900F90DF91CF911F910F91FF90EF900C944C10CF93DF93EA010E946E1268E08A
:2025C000CE010E94401291E02885821390E0892FDF91CF910895EF92FF920F931F93CF9328
:2025E000DF93EC017B018A018D819E810E944C10B7018D819E810E94471140E06EE48D81EB
:202600009E810E94E91040E0F80162818D819E810E94E91040E0F80163818D819E810E9470
:20262000E910F7018081803139F040E0F80164818D819E810E94E9108D819E810E944C10DD
:20264000488168E48D819E810E94E9108881882331F06AE070E080E090E00E94D3198D81C2
:202660009E81DF91CF911F910F91FF90EF900C944C10EF92FF921F93CF93DF9300D0CDB725
:20268000DEB77C01FC018581968169837A830E944C1069817A81F701858196810E94471133
:2026A00040E064EBF701858196810E94E910F701858196810E94BE10182FF701858196811A
:2026C0000E944C1081E0111180E00F900F90DF91CF911F91FF90EF900895EF92FF920F93FC
:2026E0001F93CF93DF93CDB7DEB72A970FB6F894DEBF0FBECDBF7C018B01242FAE014F5F7A
:202700005F4F2A870E94DA122A858823D1F0F80180818031C1F02B3041F02C3021F02A3002
:2027200031F48FE305C08FE703C08FE501C08FE18D83AE014F5F5F4FB801C7010E94EB1224
:2027400002C080E001C081E02A960FB6F894DEBF0FBECDBFDF91CF911F910F91FF90EF9000
:202760000895CF93DF93CDB7DEB729970FB6F894DEBF0FBECDBFFB0120812031D1F0AE016A
:202780004F5F5F4F0E94DA12882379F08D818F3351F018F48F3169F008C08F3541F08F3782
:2027A00021F48CE007C08AE005C080E003C08BE001C089E029960FB6F894DEBF0FBECDBFE4
:2027C000DF91CF910895EF92FF920F931F93CF93DF93CDB7DEB761970FB6F894DEBF0FBE86
:2027E000CDBF8C01FC01858196810E947311F8011482FF24F394BE01665F7F4FF8018581F6
:2028000096810E94A8118823C9F1BE01665F7F4FC8010E945F12882371F3F8018081811118
:2028200008C0BE01665F7F4FC8010E943913811122C0AE014F5F5F4FBE01665F7F4FC8012D
:202840000E946E12F801E180BE01665F7F4FC8010E94B1138E1518F4F801818106C0BE014C
:20286000665F7F4FC8010E94B113F801818384818F5F8483C0CFF801F082DBCF61960FB63F
:20288000F894DEBF0FBECDBFDF91CF911F910F91FF90EF900895CF93DF93CDB7DEB729973E
:2028A0000FB6F894DEBF0FBECDBFAE014F5F5F4F0E946E1281E09981911101C080E02996A7
:2028C0000FB6F894DEBF0FBECDBFDF91CF910895CF92DF92EF92FF920F931F93CF93DF9338
:2028E000EC018B01452BE1F08B818823C9F08881811116C00E94A4196B017C0160E070E065
:20290000CE010E944B1481110BC00E94A4196C197D098E099F096E3E72408105910570F304
:20292000F80180818A3049F08B3061F0893079F46EE570E080E090E00EC06CEB70E080E030
:2029400090E009C067E771E080E090E004C06EEE72E080E090E0DF91CF911F910F91FF90DE
:20296000EF90DF90CF900C94D319CF93DF93EC018D819E810E944C108D819E810E946F1143
:20298000488164E48D819E810E94E9108A81882351F0BE016F5F7F4F40E050E0CE01DF917D
:2029A000CF910C946814DF91CF9108958F929F92AF92BF92CF92DF92EF92FF921F93CF9352
:2029C000DF93FB01EA01698170E0762F66278881682B80818232B1F18832A1F1803109F049
:2029E00078C01F8175956795882777FD8095982F0E94F02020E030E040E85EE30E94EC1F22
:202A00006B017C01612F70E08E81681B7109882777FD8095982F0E94F0204B015C01612FF7
:202A200070E080E090E00E94EE209B01AC01C501B4010E9455209B01AC01C701B6010E9481
:202A4000ED1F43C08C818F3381F198F48F3109F040C093E0759567959A95E1F7882777FD3E
:202A60008095982F0E94F02020E030E040E05FE32AC08F3569F08F3761F5882777FD8095FB
:202A8000982F0E94F02020E030E040E85DE31BC075956795882777FD8095982F0E94F020B3
:202AA00020E030E040E05EE30EC07595679575956795882777FD8095982F0E94F02020E01A
:202AC00030E040E85EE30E94A421562F472F382F292F652F742F832F922FDF91CF911F9132
:202AE000FF90EF90DF90CF90BF90AF909F908F900895EF92FF920F931F93CF93DF93CDB7C3
:202B0000DEB729970FB6F894DEBF0FBECDBF8C017B01AE014F5F5F4F0E94DA12882341F09B
:202B2000AE014F5F5F4FB701C8010E94D61404C060E070E08EEF92EC29960FB6F894DEBF81
:202B40000FBECDBFDF91CF911F910F91FF90EF9008958091560590E020915705821B910931
:202B600008952091570580915605281750F4E22FF0E0E85AFA4F808190E02F5F2093570542
:202B800008958FEF9FEF0895E091570580915605E81730F4F0E0E85AFA4F808190E008952A
:202BA0008FEF9FEF08950895CF92DF92EF92FF920F931F93CF93DF937C01CB018A0120913E
:202BC0003205222389F0EB016B01C40ED51ECC15DD0569F06991D701ED91FC910190F081E8
:202BE000E02DC7010995F3CF642F0E94DF16C801DF91CF911F910F91FF90EF90DF90CF90B1
:202C00000895CF93DF931F92CDB7DEB76983209132052223D1F020913305203240F021E033
:202C200030E0FC013383228380E090E015C080913405E82FF0E0EB5CFA4F998190838F5FAB
:202C4000809334058093330505C061E0CE0101960E94DF1681E090E00F90DF91CF910895FD
:202C6000FC011382128248EE53E060E070E0448355836683778384E193E091838083089527
:202C8000109257051092560510923405109233050C946E1681E080933205609355051092C6
:202CA00034051092330508950F93062F21E04091330565E375E0809155050E948C16109295
:202CC000340510923305109232050F91089561E00C94541686E295E00C9430161092E50531
:202CE00081E08093E3051092E20561E082E10E94A21A61E083E10E94A21AE9EBF0E0808145
:202D00008E7F808380818D7F808388E48093B80085E48093BC0008950F93413208F046C074
:202D20009091E5059111FCCF92E09093E5050093E3059FEF909378051092BD054093BC05FB
:202D4000FB016EEB75E0DB019A2F961B941718F491919D93F9CF1092E4059091E405880F76
:202D6000892B8093E4058091E205813041F41092E2058091E4058093BB0085EC01C085EECF
:202D80008093BC00222321F08091E5058230E1F3809178058F3F61F080917805803251F05F
:202DA00080917805803341F483E007C081E005C080E003C082E001C084E00F9108956132D3
:202DC00098F42091E505243089F460939A05FC018CE995E0DC012A2F281B261718F421910E
:202DE0002D93F9CF80E0089581E0089582E0089585ED8093BC008091BC0084FDFCCF109255
:202E0000E505089585EC8093BC001092E50508951F920F920FB60F9211242F933F934F935F
:202E20005F936F937F938F939F93AF93BF93EF93FF938091B900887F803609F49CC068F553
:202E4000883209F45BC090F4803109F454C038F4882309F4F5C0883009F44DC0F5C08831A1
:202E600009F44CC0803209F45DC0EEC0803409F468C048F4803309F455C0883309F0E4C09D
:202E800080937805A8C0803509F44FC0883509F45DC0883409F0D8C0D5C0883909F4C6C07C
:202EA000A8F4883709F467C038F4883609F463C0803709F460C0C8C0883809F4B7C0803940
:202EC00009F45FC0803809F0BFC05BC0803B09F485C038F4803A09F466C0883A09F47EC088
:202EE000B3C0803C09F4A6C0883C09F4A3C0883B09F489C0A9C08091E40510C09091BD05FD
:202F00008091BC05981770F5E091BD0581E08E0F8093BD05F0E0E254FA4F80818093BB00A7
:202F200085EC85C0809378058DC0E091BD0581E08E0F8093BD058091BB00F0E0E254FA4FDD
:202F400080839091BD058091BC056DC0E091BD0581E08E0F8093BD058091BB00F0E0E254B4
:202F6000FA4F80838091E30581116CC081E08093E20584EA60C083E08093E50510927905E5
:202F8000CFCF80917905803208F050C0E091790581E08E0F809379058091BB00F0E0E658F2
:202FA000FA4F8083BDCF80917905803230F4E0917905F0E0E658FA4F10820E94F81660915B
:202FC000790570E0E091DE05F091DF058AE795E00995109279050E94021736C084E080939E
:202FE000E50510929B0510929A05E091E005F091E105099580919A05811105C081E080938E
:203000009A0510929C05E0919B0581E08E0F80939B05F0E0E456FA4F80818093BB009091C9
:203020009B0580919A05981708F47ACF85E88093BC000AC085EC8093BC001092E50504C0B6
:20304000109278050E94F816FF91EF91BF91AF919F918F917F916F915F914F913F912F9141
:203060000F900FBE0F901F901895FC011382128284E293E0918380836483418722871386E2
:2030800008951F93CF93DF93EC01162F6C8186E295E00E944A16E0912605F09127056B85D6
:2030A000612B0190F081E02D86E295E0099586E295E0DF91CF911F910C94671628E0FC017B
:2030C000238760E00C9441181F93CF93DF93EC01162F64600E94411881E090E00E94FB190F
:2030E000612F6B7FCE010E94411882E390E0DF91CF911F910C94FB191F93CF93DF93EC0110
:20310000162F0E944118612FCE01DF91CF911F910C946418EF92FF921F93CF93DF931F922B
:20312000CDB7DEB77C01162F607F642B49830E947C1880E1189FB00111244981642BC70125
:203140000F90DF91CF911F91FF90EF900C947C1841E00E948A1880E090E0089540E00C947C
:203160008A1861E00E94AE1880ED97E00C94FB1962E00E94AE1880ED97E00C94FB19CF93C8
:20318000DF93CDB7DEB728970FB6F894DEBF0FBECDBF28E0E0E1F1E0DE01119601900D924E
:2031A0002A95E1F7FC012085241710F44FEF420FFE013196E40FF11DE40FF11D2081260F6A
:2031C0002068622F28960FB6F894DEBF0FBECDBFDF91CF910C94AE18FC016681262F2460DE
:2031E00026836C600C94AE18CF93DF93EC01423018F08D8188608D834887222329F0413015
:2032000019F48D8184608D8362E370E080E090E00E94D3196B85CE010E94411868EE73E049
:2032200080E090E00E94D31960E3CE010E947C1884E991E10E94FB1960E3CE010E947C180B
:2032400084E991E10E94FB1960E3CE010E947C1886E990E00E94FB1960E2CE010E947C18B5
:203260006D816062CE010E94AE1884E08E83CE010E94EC18CE010E94B11882E08F8366E089
:20328000CE010E94AE18CE01DF91CF910C94B818CF93DF93EC0186E295E00E9440161D82B3
:2032A00020E04A856985CE01DF91CF910C94F4180C9448191F920F920FB60F9211242F9356
:2032C0003F938F939F93AF93BF938091E7059091E805A091E905B091EA053091E60523E02B
:2032E000230F2D3720F40196A11DB11D05C026E8230F0296A11DB11D2093E6058093E7053B
:203300009093E805A093E905B093EA058091EB059091EC05A091ED05B091EE050196A11D8B
:20332000B11D8093EB059093EC05A093ED05B093EE05BF91AF919F918F913F912F910F903E
:203340000FBE0F901F9018952FB7F8946091E7057091E8058091E9059091EA052FBF0895CE
:203360003FB7F8948091EB059091EC05A091ED05B091EE0526B5A89B05C02F3F19F0019670
:20338000A11DB11D3FBF6627782F892F9A2F620F711D811D911D42E0660F771F881F991F17
:2033A0004A95D1F70895CF92DF92EF92FF92CF93DF936B017C010E94B019EB01C114D10427
:2033C000E104F10489F00E941E1B0E94B0196C1B7D0B683E734090F381E0C81AD108E10864
:2033E000F108C851DC4FEACFDF91CF91FF90EF90DF90CF900895019739F0880F991F880FE7
:20340000991F02970197F1F70895789484B5826084BD84B5816084BD85B5826085BD85B5E3
:20342000816085BDEEE6F0E0808181608083E1E8F0E01082808182608083808181608083EA
:20344000E0E8F0E0808181608083E1EBF0E0808184608083E0EBF0E0808181608083EAE71A
:20346000F0E08081846080838081826080838081816080838081806880831092C1000895DD
:20348000833081F028F4813099F08230A1F008958730A9F08830B9F08430D1F48091800017
:2034A0008F7D03C0809180008F7780938000089584B58F7702C084B58F7D84BD0895809141
:2034C000B0008F7703C08091B0008F7D8093B0000895CF93DF9390E0FC01E256FC4F2491CD
:2034E000FC01EE54FC4F8491882349F190E0880F991FFC01E652FC4FA591B49180539C4FD0
:20350000FC01C591D4919FB7611108C0F8948C91209582238C93888182230AC0623051F4F2
:20352000F8948C91322F309583238C938881822B888304C0F8948C91822B8C939FBFDF912F
:20354000CF9108950F931F93CF93DF931F92CDB7DEB7282F30E0F901E657FC4F8491F90184
:20356000E256FC4F1491F901EE54FC4F04910023C9F0882321F069830E94401A6981E02F8E
:20358000F0E0EE0FFF1FE053FC4FA591B4919FB7F8948C91611103C01095812301C0812B5D
:2035A0008C939FBF0F90DF91CF911F910F910895CF93DF93282F30E0F901E657FC4F849160
:2035C000F901E256FC4FD491F901EE54FC4FC491CC2391F081110E94401AEC2FF0E0EE0F47
:2035E000FF1FEA53FC4FA591B4912C912D2381E090E021F480E002C080E090E0DF91CF91F5
:2036000008958E3008F08E50877020910F0190E4299F90011124822B80937C0080917A00F8
:20362000806480937A0080917A0086FDFCCF809178002091790090E0922B08950895823074
:20364000E8F4E82FF0E0EE0FFF1FE151FA4F71836083813041F0809169008C7F842B809311
:203660006900E89A089580916900440F551F440F551F837F842B80936900E99A08958230BB
:2036800068F4813011F0E89801C0E998E82FF0E0EE0FFF1FE151FA4F1182108208951F926A
:2036A0000F920FB60F9211242F933F934F935F936F937F938F939F93AF93BF93EF93FF9356
:2036C0008091EF059091F005892B29F0E091EF05F091F0050995FF91EF91BF91AF919F91B9
:2036E0008F917F916F915F914F913F912F910F900FBE0F901F9018951F920F920FB60F921B
:2037000011242F933F934F935F936F937F938F939F93AF93BF93EF93FF938091F1059091D4
:20372000F205892B29F0E091F105F091F2050995FF91EF91BF91AF919F918F917F916F9148
:203740005F914F913F912F910F900FBE0F901F9018951F920F920FB60F9211242F938F93D1
:203760009F93EF93FF93E0910306F09104068081E0910906F0910A0682FD12C09081809179
:203780000C068F5F8F7320910D06821751F0E0910C06F0E0ED50FA4F958F80930C0601C0A6
:2037A0008081FF91EF919F918F912F910F900FBE0F901F9018951F920F920FB60F92112494
:2037C0002F933F934F935F936F937F938F939F93AF93BF93EF93FF9383EF95E00E94E21EE8
:2037E000FF91EF91BF91AF919F918F917F916F915F914F913F912F910F900FBE0F901F90AF
:20380000189583EF95E00E94A71E21E0892B09F420E0822F08951092F6051092F50588EEFE
:2038200093E0A0E0B0E08093F7059093F805A093F905B093FA0588E393E09093F405809356
:20384000F30585EC90E0909300068093FF0584EC90E0909302068093010680EC90E090932B
:2038600004068093030681EC90E0909306068093050682EC90E0909308068093070686EC57
:2038800090E090930A068093090610920C0610920D0610920E0610920F060895CF92DF921E
:2038A000EF92FF920F931F93CF93DF936C017A01EB01E60EF71E00E010E0CE15DF0561F009
:2038C0006991D601ED91FC910190F081E02DC6010995080F191FF1CFC801DF91CF911F9140
:2038E0000F91FF90EF90DF90CF9008956115710581F0DB010D900020E9F7AD014150510940
:20390000461B570BDC01ED91FC910280F381E02D099480E090E008950C94761CDC01ED9162
:20392000FC910190F081E02D09940F931F93CF93DF93EC016DE00E948E1C8C016AE0CE01FA
:203940000E948E1C800F911FDF91CF911F910F9108950F931F93CF93DF93EC010E94761CD6
:203960008C01CE010E94951C800F911FDF91CF911F910F9108958F929F92AF92BF92CF9257
:20398000DF92EF92FF920F931F93CF93DF93CDB7DEB7A1970FB6F894DEBF0FBECDBF7C0167
:2039A000C42EE52FCB01D22E19A221E02D1510F02AE0D22E8E010F5D1F4F8D2C912CA12C81
:2039C000B12C6C2D7E2FA50194010E9462228C2DD29E80191124015011098A3014F4805D62
:2039E00001C0895CF8018083211531054105510521F0C22EE32FCA01E4CFB801C7010E9469
:203A0000761CA1960FB6F894DEBF0FBECDBFDF91CF911F910F91FF90EF90DF90CF90BF904B
:203A2000AF909F908F900895CF92DF92EF92FF920F931F93CF93DF93EC016A017B01211546
:203A4000310579F4E881F9810190F081E02D642FDF91CF911F910F91FF90EF90DF90CF9042
:203A600009942A303105E9F477FF1AC06DE20E948E1C8C0144275527BA014C195D096E09E0
:203A80007F092AE0CE010E94BB1C800F911FDF91CF911F910F91FF90EF90DF90CF90089574
:203AA0002AE0B701A601CE01DF91CF911F910F91FF90EF90DF90CF900C94BB1C9A01AB0114
:203AC000662757FD6095762F0C94141D0F931F93CF93DF93EC019A01AB01662757FD609568
:203AE000762F0E94141D8C01CE010E94951C800F911FDF91CF911F910F9108952115310537
:203B000041F4DC01ED91FC910190F081E02D642F09940C94BB1C9A01462F50E060E070E002
:203B20000C947E1D9A01AB0160E070E00C947E1D4F925F926F927F928F929F92AF92BF9270
:203B4000CF92DF92EF92FF920F931F93CF93DF93EC016A017B01B22E9A01AB01C701B601DF
:203B60000E944922882319F068E273E027C026013701E89477F82FEF3FEF4FE75FE7C3012A
:203B8000B2010E94492281110DC02FEF3FEF4FE75FE7C301B2010E94512018161CF46CE228
:203BA00073E00CC02FEF3FEF4FE75FE4C701B6010E94A0211816ACF460E373E0CE01DF919C
:203BC000CF911F910F91FF90EF90DF90CF90BF90AF909F908F907F906F905F904F900C9401
:203BE000761C2FEF3FEF4FE75FECC701B6010E94512087FDE1CF20E030E0A901C701B60167
:203C00000E94512087FF0AC06DE2CE010E948E1C8C01F7FAF094F7F8F09402C000E010E0D0
:203C2000A12C60E070E080E09FE3AB1441F020E030E040E251E40E945520A394F6CF9B013F
:203C4000AC01C701B6010E94ED1F6B017C010E94C2202B013C010E94EE209B01AC01C701F3
:203C6000B6010E94EC1F6B017C012AE0B301A201CE010E94BB1C080F191FBB2039F06BEEA2
:203C800072E0CE010E94761C080F191F7B2C772041F120E030E040E251E4C701B6010E9488
:203CA000A4216B017C010E94BD204B01AA2497FCA094BA2C2AE030E0B501A401CE010E942A
:203CC000141D080F191FC501B4010E94F0209B01AC01C701B6010E94EC1F6B017C017A94CB
:203CE000D6CFC801DF91CF911F910F91FF90EF90DF90CF90BF90AF909F908F907F906F9070
:203D00005F904F9008950C94981D0F931F93CF93DF93EC010E94981D8C01CE010E94951CC8
:203D2000800F911FDF91CF911F910F91089508950E94051A0E94971E0E945006C4EDDEE16A
:203D40000E9431072097E1F30E94D41EF9CFFC01818D228D90E0805C9F4F821B91098F7375
:203D600099270895FC01918D828D981731F0828DE80FF11D858D90E008958FEF9FEF089510
:203D8000FC01918D828D981761F0828DDF01A80FB11D5D968C91928D9F5F9F73928F90E0B5
:203DA00008958FEF9FEF089581E09CE1892B49F080E090E0892B29F00E94011C81110C9464
:203DC00000000895FC01848DDF01A80FB11DA35ABF4F2C91848D90E001968F739927848F1E
:203DE000A689B7892C93A089B1898C9180648C93938D848D981306C00288F389E02D80815C
:203E00008F7D80830895CF93DF93EC01888D8823C9F0EA89FB89808185FD05C0A889B9890A
:203E20008C9186FD0FC00FB607FCF5CF808185FFF2CFA889B9898C9185FFEDCFCE010E9400
:203E4000E21EE7CFDF91CF910895CF92DF92FF920F931F93CF93DF931F92CDB7DEB76C017D
:203E6000DC015B969C915B975C968C915C97981307C05096ED91FC915197808185FD32C093
:203E8000F601038D10E00F5F1F4F0F731127F02EF601848DF81211C00FB607FCF9CFD601AD
:203EA0005096ED91FC915197808185FFF1CFC60169830E94E21E6981EBCF838DE80FF11DD6
:203EC000E35AFF4F6083D6015B960C935B975296ED91FC91539780818062808381E0589609
:203EE0008C930DC0D6015696ED91FC91579760835096ED91FC91519780818064808381E015
:203F000090E00F90DF91CF911F910F91FF90DF90CF900895BF92CF92DF92EF92FF92CF93E1
:203F2000DF93EC016A017B01B22EE889F98982E08083411581EE580761057105A1F060E032
:203F400079E08DE390E0A70196010E946222215031094109510956954795379527952115EF
:203F600080E1380798F0E889F989108260E874E88EE190E0A70196010E9462222150310901
:203F8000410951095695479537952795EC85FD853083EE85FF852083188EEC89FD89B0821B
:203FA000EA89FB89808180618083EA89FB89808188608083EA89FB89808180688083EA89EC
:203FC000FB8980818F7D8083DF91CF91FF90EF90DF90CF90BF9008955058BB27AA270ED07C
:203FE00075C166D130F06BD120F031F49F3F11F41EF45BC10EF4E095E7FB51C1E92F77D1E7
:2040000080F3BA17620773078407950718F071F49EF58FC10EF4E0950B2EBA2FA02D0B0190
:20402000B90190010C01CA01A0011124FF27591B99F0593F50F4503E68F11A16F040A22F70
:20404000232F342F4427585FF3CF469537952795A795F0405395C9F77EF41F16BA0B620B77
:20406000730B840BBAF09150A1F0FF0FBB1F661F771F881FC2F70EC0BA0F621F731F841F67
:2040800048F4879577956795B795F7959E3F08F0B3CF9395880F08F09927EE0F97958795D5
:2040A0000895D9D008F481E008950CD00FC107D140F0FED030F021F45F3F19F0F0C0511150
:2040C00039C1F3C014D198F39923C9F35523B1F3951B550BBB27AA2762177307840738F0C6
:2040E0009F5F5F4F220F331F441FAA1FA9F333D00E2E3AF0E0E830D091505040E695001C90
:20410000CAF729D0FE2F27D0660F771F881FBB1F261737074807AB07B0E809F0BB0B802DB5
:20412000BF01FF2793585F4F2AF09E3F510568F0B6C000C15F3FECF3983EDCF386957795DB
:204140006795B795F7959F5FC9F7880F911D9695879597F90895E1E0660F771F881FBB1FC7
:20416000621773078407BA0720F0621B730B840BBA0BEE1F88F7E095089504D06894B11171
:20418000D9C00895BCD088F09F5790F0B92F9927B751A0F0D1F0660F771F881F991F1AF0FA
:2041A000BA95C9F712C0B13081F0C3D0B1E00895C0C0672F782F8827B85F39F0B93FCCF3A8
:2041C000869577956795B395D9F73EF490958095709561957F4F8F4F9F4F0895E89409C0C1
:2041E00097FB3EF490958095709561957F4F8F4F9F4F9923A9F0F92F96E9BB279395F6959B
:20420000879577956795B795F111F8CFFAF4BB0F11F460FF1BC06F5F7F4F8F4F9F4F16C030
:20422000882311F096E911C0772321F09EE8872F762F05C0662371F096E8862F70E060E084
:204240002AF09A95660F771F881FDAF7880F9695879597F90895990F0008550FAA0BE0E8F6
:20426000FEEF16161706E807F907C0F012161306E407F50798F0621B730B840B950B39F462
:204280000A2661F0232B242B252B21F408950A2609F4A140A6958FEF811D811D089597F9CE
:2042A0009F6780E870E060E008959FEF80EC089500240A94161617061806090608950024D3
:2042C0000A9412161306140605060895092E0394000C11F4882352F0BB0F40F4BF2B11F484
:2042E00060FF04C06F5F7F4F8F4F9F4F089557FD9058440F551F59F05F3F71F04795880FD8
:2043000097FB991F61F09F3F79F087950895121613061406551FF2CF4695F1DF08C01616D3
:2043200017061806991FF1CF86957105610508940895E894BB2766277727CB0197F9089518
:204340008ADF08F48FEF08950BD0C0CFB1DF28F0B6DF18F0952309F0A2CFA7CF1124EACFA8
:20436000C6DFA0F3959FD1F3950F50E0551F629FF001729FBB27F00DB11D639FAA27F00D45
:20438000B11DAA1F649F6627B00DA11D661F829F2227B00DA11D621F739FB00DA11D621F82
:2043A000839FA00D611D221F749F3327A00D611D231F849F600D211D822F762F6A2F1124A3
:2043C0009F5750408AF0E1F088234AF0EE0FFF1FBB1F661F771F881F91505040A9F79E3F82
:2043E000510570F05CCFA6CF5F3FECF3983EDCF3869577956795B795F795E7959F5FC1F718
:20440000FE2B880F911D9695879597F9089511F40EF44BCF42C073DFD0F39923D9F3CEF339
:204420009F57550B87FF47D00024A0E640EA900180585695979528F4805C660F771F881F8B
:2044400020F026173707480730F4621B730B840B202931294A2BA6951794079420253125A0
:204460004A2758F7660F771F881F20F026173707480730F4620B730B840B200D311D411D79
:20448000A09581F7B901842F9158880F969587950895E1DE880B990B08959F3F31F091502B
:2044A00020F4879577956795B795880F911D9695879597F9089591505040660F771F881F9C
:2044C000D2F70895A1E21A2EAA1BBB1BFD010DC0AA1FBB1FEE1FFF1FA217B307E407F5071D
:2044E00020F0A21BB30BE40BF50B661F771F881F991F1A9469F760957095809590959B01EA
:20450000AC01BD01CF010895052E97FB1EF400940E949B2257FD07D00E94622207FC03D0D2
:204520004EF40C949B2250954095309521953F4F4F4F5F4F089590958095709561957F4F2D
:204540008F4F9F4F0895EE0FFF1F0590F491E02D09940E94B122332312F48A1B9B0B0C9457
:20456000C222A29FB001B39FC001A39F700D811D1124911DB29F700D811D1124911D089526
:204580000E94B122B7FF0895821B930B08950E94B122A59F900DB49F900DA49F800D911DB7
:2045A00011240895F894FFCF000090068000D200050101297C8643010000400014005400C9
:2045C0004F4B002800202D3E2061636B00656D6F6E50692056004F70656E456E6572677965
:2045E0004D6F6E00435420312043616C3A2000435420322043616C3A200056524D53204103
:2046000043207E0041432057617665204465746563746564004143205761766520446574CC
:204620006563746564202D205265616C20506F7765722063616C6320656E61626C656400B9
:20464000555341206D6F6465005663616C3A200050686173652053686966743A20004143DF
:20466000204E4F54204465746563746564004143204E4F54206465746563746564202D2083
:204680004170706172656E7420506F7765722063616C6320656E61626C6564004173737578
:2046A0006D696E672056524D533A00446574656374656420006E6F204354206465746563B2
:2046C000746564004E6F20435427730043542031206465746563740043543120004354206F
:2046E000322064657465637400435432004465746563742000204453313842323000446540
:204700007465637465643A2000445331384232302054656D70003020445331384232302058
:2047200064657465637465640052464D3639435720496E69743A20004E6F6465200020462F
:2047400072657120003433334D687A003836384D687A003931354D687A00204E6574776F58
:20476000726B20004F4B200020282D3029004F70656E456E657267794D6F6E69746F722EA2
:204780006F726700706C6561736520776169742E2E2E2E2E005B656D6F6E50692E005D004E
:2047A00020690020670020402000204D487A002055534120002B565A000000000116D41536
:2047C000A915B115C415D31500000000A8184E1C6E616E00696E66006F76660000000000A5
:2047E000251F4E1CA71EC01EB21E031F29004F70656E456E657267794D6F6E69746F722E3B
:2048000000240A9412161306140605060895092E0394000C11F4882352F0BB0F40F4BF2B1F
:2048200011F460FF04C06F5F7F4F8F4F9F4F089557FD9058440F551F59F05F3F71F0479524
:20484000880F97FB991F61F09F3F79F087950895121613061406551FF2CF4695F1DF08C023
:20486000161617061806991FF1CF86957105610508940895E894BB2766277727CB0197F944
:2048800008958ADF08F48FEF08950BD0C0CFB1DF28F0B6DF18F0952309F0A2CFA7CF11247F
:2048A000EACFC6DFA0F3959FD1F3950F50E0551F629FF001729FBB27F00DB11D639FAA2744
:2048C000F00DB11DAA1F649F6627B00DA11D661F829F2227B00DA11D621F739FB00DA11DC1
:2048E000621F839FA00D611D221F749F3327A00D611D231F849F600D211D822F762F6A2F12
:2049000011249F5750408AF0E1F088234AF0EE0FFF1FBB1F661F771F881F91505040A9F7E4
:204920009E3F510570F05CCFA6CF5F3FECF3983EDCF3869577956795B795F795E7959F5FAD
:20494000C1F7FE2B880F911D9695879597F9089511F40EF44BCF4EC073DFD0F39923D9F3F1
:20496000CEF39F57550B87FF55D056959795B0E020F4660F771F881FBB1F1F930F930024B6
:204980009001A0018001F001A0E80E0F1F1F0A1E511D601B710B8009B50B48F4600F711F7F
:2049A000801DB51F0E1B1F0B0A0A510907C02E0F3F1F4A1F0E0F1F1F0A1E511D660F771FFE
:2049C000881FBB1FA695F795E795F8F60617170708065B07211D311D411D0F911F91B90186
:2049E000842F9158880F969587950895D5DE880B990B08959F3F49F0915028F486957795DE
:204A00006795B7959F5F80389F4F880F9695879597F9089591505040660F771F881FD2F7B3
:204A20000895629FD001739FF001829FE00DF11D649FE00DF11D929FF00D839FF00D749F8A
:204A4000F00D659FF00D9927729FB00DE11DF91F639FB00DE11DF91FBD01CF01112408957F
:204A6000A1E21A2EAA1BBB1BFD010DC0AA1FBB1FEE1FFF1FA217B307E407F50720F0A21B10
:204A8000B30BE40BF50B661F771F881F991F1A9469F760957095809590959B01AC01BD01A6
:204AA000CF01089597FB092E05260ED057FD04D0D7DF0AD0001C38F4509540953095219582
:204AC0003F4F4F4F5F4F0895F6F790958095709561957F4F8F4F9F4F0895EE0FFF1F059056
:204AE000F491E02D0994F894FFCF656D6F6E50692056004F70656E456E657267794D6F6E29
:204B000069746F722E6F726700706C6561736520776169742E2E2E2E2E004F4B200020282A
:204B20002D302900435420312043616C3A2000435420322043616C3A200056524D53204161
:204B400043207E00560041432057617665204465746563746564004143205761766520440A
:204B600065746563746564202D205265616C20506F7765722063616C6320656E61626C65FF
:204B80006400555341206D6F6465005663616C3A200050686173652053686966743A2000BA
:204BA0004143204E4F54204465746563746564004143204E4F542064657465637465642007
:204BC0002D204170706172656E7420506F7765722063616C6320656E61626C6564004173CE
:204BE00073756D696E672056524D533A00446574656374656420006E6F204354206465744D
:204C00006563746564004E6F204354277300435420312064657465637400435431200043D5
:204C200054203220646574656374004354320044657465637420002044533138423230002F
:204C400044657465637465643A2000445331384232302054656D70003020445331384232BA
:204C6000302064657465637465640052464D3639435720496E69743A20004E6F6465200000
:204C8000204672657120003433334D687A003836384D687A003931354D687A00204E657493
:204CA000776F726B20004F70656E456E657267794D6F6E004F4B00200028002900202D3E55
:204CC0002061636B005B656D6F6E50692E005D0020690020670020402000204D487A002058
:204CE00055534120006E616E00696E66006F7666002E00297C8643010105D2000100000070
:204D000000340BCA0BCA0AFB0ADB0A240B00000000D51ECA0B000040001400540000000022
:204D2000001C20EB1FA41FAD1FC21FD31F0067794D6F6E004F4B00200028002900202D3E2B
:204D40002061636B005B656D6F6E50692E005D0020690020670020402000204D487A0020D7
:204D600055534120006E616E00696E66006F7666002E00297C8643010105D20001000000EF
:204D8000003433334D687A003836384D687A003931354D687A00204E6574776F726B20007D
:204DA0004F70656E456E657267794D6F6E004F4B00200028002900202D3E2061636B005B8D
:204DC000656D6F6E50692E005D006E616E00696E66006F7666002E0020690020670020407D
:204DE0002000204D487A0020633100206F0020713100207800297C8643010105D20001007F
:204E0000000000E20A780B780AA90A890AD20A00000000521F780B000040001400540000E3
:204E20000000009920682021202A203F2050200000200028002900202D3E2061636B005B31
:204E4000656D6F6E50692E005D006E616E00696E66006F7666002E002069002067002040FC
:204E60002000204D487A0020633100206F0020713100207800297C8643010105D2000100FE
:204E800065637465643A2000445331384232302054656D70005A65726F2044533138423225
:204EA000302074656D702073656E736F722064657465637465640052464D36394357204979
:204EC0006E69743A20004E6F64652000204672657120003433334D687A003836384D687A1B
:204EE000003931354D687A00204E6574776F726B20004F70656E456E657267794D6F6E0094
:204F0000446574656374696E6720435427732E2E004F4B0028002900202D3E2061636B0088
:204F200020690020670020402000204D487A002055534120006E616E00696E66006F7666C4
:204F4000002E00CDCCCC3D01297C8643010105D20001000000008918201E00004000140005
:204F60005400000000007B1D201E111D421D221D6B1D000000002821F720B020B920CE20BC
:204F8000DF2074656374696E6720435427732E2E004F4B0028002900202D3E2061636B00B2
:204FA00020690020670020402000204D487A002055534120006E616E00696E66006F766644
:204FC000002E00CDCCCC3D01297C8643010105D20001000000008918201E00004000140085
:204FE0005400000000007B1D201E111D421D221D6B1D000000002821F720B020B920CE203C
:20500000435720496E69743A20004E6F64652000204672657120003433334D687A0038363D
:20502000384D687A003931354D687A00204E6574776F726B20004F70656E456E6572677915
:205040004D6F6E00446574656374696E6720435427732E2E004F4B00200028002900202D8A
:205060003E2061636B0020690020670020402000204D487A006E616E00696E66006F76661F
:20508000002E00CDCCCC3D297C8643010105D2000100000000E60B7C0C7C0BAD0B8D0BD6D2
:2050A0000B00000000831F7C0C00004000140054000000000060212F21E820F120062117EB
:2050C00021006E00446574656374696E6720435427732E2E004F4B00200028002900202DA5
:2050E0003E2061636B0020690020670020402000204D487A006E616E00696E66006F76669F
:205100000014005400000000006923591FFF2230231023592300446574656374696E672049
:20512000435427732E2E004F4B002000202800292000202D3E2061636B00206900206700AD
:2051400020402000204D487A006E616E00696E66006F7666002E00CDCCCC3D297C8643019C
:205160000105D20001000000002019EF18A818B118C618D71800000000021C591F000040EA
:20518000FFFFFFFFFFFFFFFFFFFFFFFFFFFFFFFFFFFFFFFFFFFFFFFFFFFFFFFFFFFFFFFF2F
:2051A000FFFFFFFFFFFFFFFFFFFFFFFFFFFFFFFFFFFFFFFFFFFFFFFFFFFFFFFFFFFFFFFF0F
:2051C000FFFFFFFFFFFFFFFFFFFFFFFFFFFFFFFFFFFFFFFFFFFFFFFFFFFFFFFFFFFFFFFFEF
:2051E000FFFFFFFFFFFFFFFFFFFFFFFFFFFFFFFFFFFFFFFFFFFFFFFFFFFFFFFFFFFFFFFFCF
:207E0000112484B714BE81FFF0D085E08093810082E08093C00088E18093C10086E08093FC
:207E2000C20080E18093C4008EE0C9D0259A86E020E33CEF91E0309385002093840096BBAD
:207E4000B09BFECF1D9AA8958150A9F7CC24DD2488248394B5E0AB2EA1E19A2EF3E0BF2E79
:207E6000A2D0813461F49FD0082FAFD0023811F0013811F484E001C083E08DD089C0823404
:207E800011F484E103C0853419F485E0A6D080C0853579F488D0E82EFF2485D0082F10E0A0
:207EA000102F00270E291F29000F111F8ED068016FC0863521F484E090D080E0DECF84364D
:207EC00009F040C070D06FD0082F6DD080E0C81680E7D80618F4F601B7BEE895C0E0D1E0ED
:207EE00062D089930C17E1F7F0E0CF16F0E7DF0618F0F601B7BEE89568D007B600FCFDCF1A
:207F0000A601A0E0B1E02C9130E011968C91119790E0982F8827822B932B1296FA010C016F
:207F200087BEE89511244E5F5F4FF1E0A038BF0751F7F601A7BEE89507B600FCFDCF97BE85
:207F4000E89526C08437B1F42ED02DD0F82E2BD03CD0F601EF2C8F010F5F1F4F84911BD0B8
:207F6000EA94F801C1F70894C11CD11CFA94CF0CD11C0EC0853739F428D08EE10CD085E9AE
:207F80000AD08FE07ACF813511F488E018D01DD080E101D065CF982F8091C00085FFFCCF0A
:207FA0009093C60008958091C00087FFFCCF8091C00084FD01C0A8958091C6000895E0E68F
:207FC000F0E098E1908380830895EDDF803219F088E0F5DFFFCF84E1DECF1F93182FE3DF47
:207FE0001150E9F7F2DF1F91089580E0E8DFEE27FF270994FFFFFFFFFFFFFFFFFFFF040425
:00000001FF
