:100000000C94BB020C9403050C94DC040C94E302E6
:100010000C94E3020C94E3020C94270B0C94E3027F
:100020000C94E3020C94E3020C94E3020C94E302BC
:100030000C94E3020C94E3020C94E3020C94E302AC
:100040000C9472140C94E3020C94B5060C948F0675
:100050000C94E3020C94E3020C94E3020C94E3028C
:100060000C9456080C94E302DA1B7B1BE51BE51B82
:10007000E51BE51B9C1BE51B6E1BE51BE51BE51B40
:10008000E51BE51BE51BA71BB91BE51BDA1BE51BE5
:10009000E51BC41B737461727475702E2E2E004F95
:1000A00070656E456E657267794D6F6E69746F72BB
:1000B0002E6F726700656D6F6E50692056004F702D
:1000C000656E456E657267794D6F6E00656D6F6E1A
:1000D0005069205600204E6574776F726B2000398E
:1000E00031354D687A003836384D687A003433330C
:1000F0004D687A00204672657120004E6F6465205D
:100100000052464D3639435720496E69743A2000F3
:10011000506C65617365207761697400426F6F741C
:10012000696E672E2E2E00445331384232302054EF
:10013000656D700044657465637465643A200030D1
:1001400020445331384232302064657465637465ED
:100150006400445331384232302054656D7000449D
:10016000657465637465643A2000204453313842F5
:100170003230004465746563742000204354277353
:10018000004E6F2043542773006E6F204354206449
:10019000657465637465640044657465637465645F
:1001A00020005600417373756D696E672056524D7D
:1001B000533A2000555341206D6F64650041432040
:1001C0004E4F54206465746563746564202D20412E
:1001D00070706172656E7420506F77657220636114
:1001E0006C6320656E61626C6564004143204E4F14
:1001F0005420446574656374656400506861736578
:100200002053686966743A2000560056726D733A3E
:1002100020005663616C3A2000555341206D6F6495
:1002200065203E2000414320576176652044657477
:100230006563746564202D205265616C20506F7772
:1002400065722063616C6320656E61626C65640039
:100250004143205761766520446574656374656425
:1002600000560056524D53204143207E00435420F7
:10027000322043616C3A2000435420312043616CAA
:100280003A20002000205553412000207100204DCD
:10029000487A002040200020670020690020000AE2
:1002A000417661696C61626C6520636F6D6D616E32
:1002B00064733A0A20203C6E6E3E20692020202084
:1002C000202D20736574206E6F646520494473206F
:1002D000287374616E64617264206E6F6465206956
:1002E00064732061726520312E2E3330290A20205C
:1002F0003C6E3E20622020202020202D207365743B
:10030000204D487A2062616E64202834203D2034DC
:1003100033332C2038203D203836382C2039203DEE
:1003200020393135290A20203C6E6E6E3E20672030
:100330002020202D20736574206E6574776F726B9A
:100340002067726F7570202852464D3132206F6ED3
:100350006C7920616C6C6F7773203231322C2030D5
:10036000203D20616E79290A20203C6E3E206320CA
:1003700020202020202D2073657420636F6C6C6515
:100380006374206D6F64652028616476616E6365B7
:10039000642C206E6F726D616C6C792030290A209C
:1003A000202E2E2E2C3C6E6E3E2061202D2073655B
:1003B0006E642064617461207061636B6574207485
:1003C0006F206E6F6465203C6E6E3E2C20726571EE
:1003D000756573742061636B0A20202E2E2E2C3CD1
:1003E0006E6E3E2073202D2073656E6420646174F0
:1003F00061207061636B657420746F206E6F64653B
:10040000203C6E6E3E2C206E6F2061636B0A2020B4
:100410002E2E2E2C3C6E3E207020202D20536574F5
:100420002041432041646170746572205663616CA1
:10043000203170203D20554B2C203270203D20551E
:1004400053410A2020762020202020202020202018
:100450002D2053686F77206669726D776172652011
:1004600076657273696F6E0A20203C6E3E207120A3
:1004700020202020202D20736574207175696574FB
:10048000206D6F6465202831203D20646F6E2774D5
:10049000207265706F727420626164207061636B9A
:1004A000657473290A005D005B656D6F6E50692E7F
:1004B00000203F004F4B0020620A00202D3E20000C
:1004C00020282D30290020004F4B20002900280033
:1004D000200020002000005EBCE2613FDD83C29C62
:1004E0007E20A3FD1F41009D23BE46DB65F88C11D5
:1004F000AF32CA57E97400000000240027002A0028
:1005000000000000250028002B0000000008000269
:1005100001000003040700000000000000000104C7
:1005200002000302048A050506C30B2019421E2C93
:1005300025802E882F2D370038003C8F3D106F20EE
:100540000000000000230026002900040404040425
:100550000404040202020202020303030303030170
:100560000204081020408001020408102001020447
:1005700008102000022011241FBECFEFD8E0DEBFFC
:10058000CDBF11E0A0E0B1E0E6ECF7E402C00590D9
:100590000D92A839B107D9F725E0A8E9B1E001C06B
:1005A0001D92AB33B207E1F712E0CBEBD2E004C00F
:1005B0002197FE010E94FB20CA3BD107C9F70E9488
:1005C000BC140C94E1230C9400000895CF92DF92A8
:1005D000EF92FF920F931F93CF93DF936C017A01F9
:1005E0008B01C0E0D0E0CE15DF0581F0D8016D9120
:1005F0008D01D601ED91FC910190F081E02DC601B5
:100600000995892B11F02196EECF7E01C701DF916C
:10061000CF911F910F91FF90EF90DF90CF900895B1
:10062000FC01538D448D252F30E0842F90E0821BF8
:10063000930B541710F0CF96089501970895FC017D
:10064000918D828D981761F0828DDF01A80FB11D09
:100650005D968C91928D9F5F9F73928F90E008952D
:100660008FEF9FEF0895FC01918D828D981731F0E7
:10067000828DE80FF11D858D90E008958FEF9FEF3B
:100680000895FC01918D228D892F90E0805C9F4F11
:10069000821B91098F739927089580E694E00E9448
:1006A000410321E0892B09F420E0822F0895FC0109
:1006B000848DDF01A80FB11DA35ABF4F2C91848DEB
:1006C00090E001968F739927848FA689B7892C9320
:1006D000A089B1898C91837080648C93938D848D73
:1006E000981306C00288F389E02D80818F7D808376
:1006F0000895EF92FF920F931F93CF93DF93EC0136
:1007000081E0888F9B8D8C8D981305C0E889F989CD
:10071000808185FD26C0F62E0B8D10E00F5F1F4FE8
:100720000F731127E02E8C8DE8120CC00FB607FC5A
:10073000FACFE889F989808185FFF5CFCE010E9443
:100740005703F1CF8B8DFE01E80FF11DE35AFF4FE8
:10075000F0829FB7F8940B8FEA89FB8980818062D1
:100760000AC09FB7F894EE89FF896083E889F98908
:1007700080818370806480839FBF81E090E0DF91FF
:10078000CF911F910F91FF90EF900895CF93DF933A
:10079000EC01888D8823C9F0EA89FB89808185FD79
:1007A00005C0A889B9898C9186FD0FC00FB607FCDA
:1007B000F5CF808185FFF2CFA889B9898C9185FF1B
:1007C000EDCFCE010E945703E7CFDF91CF9108957F
:1007D00080E090E0892B29F00E944D0381110C9458
:1007E0000000089585ED8093BC008091BC0084FDDD
:1007F000FCCF10923804089540919303262F30E0E7
:10080000240F311D21323105DCF4209138042430CD
:10081000C9F4FC0180E090E0861758F4309193030E
:100820002191DC01AD58BC4FA30FB11D2C93019653
:10083000F3CF80919303680F6093930380E0089552
:1008400081E0089582E00895089508950895E09163
:10085000110480911004E81730F4F0E0ED5AFC4FD9
:10086000808190E008958FEF9FEF0895909111049B
:1008700080911004981750F4E92FF0E0ED5AFC4FE6
:10088000208130E09F5F9093110402C02FEF3FEF73
:10089000C90108958091100490E020911104821BF9
:1008A00091090895CF92DF92EF92FF920F931F93D9
:1008B000CF93DF937C01CB018A012091390422235D
:1008C00089F0EB016B01C40ED51ECC15DD0569F076
:1008D0006991D701ED91FC910190F081E02DC70164
:1008E0000995F3CF642F0E94FC03C801DF91CF91DB
:1008F0001F910F91FF90EF90DF90CF900895CF93CD
:10090000DF931F92CDB7DEB769832091390422238C
:10091000D1F020915C04203240F021E030E0FC0175
:100920003383228380E090E015C080913A04E82F61
:10093000F0E0E55CFB4F998190838F5F80933A04F0
:1009400080935C0405C061E0CE0101960E94FC0327
:1009500081E090E00F90DF91CF910895089580E0BD
:1009600090E008950E94DC230F931F930E94E20EF3
:1009700000914F0310915003209151033091520385
:10098000DC01CB01801B910BA20BB30BCD97A10512
:10099000B10528F0809198018F5F809398010E94A3
:1009A000E20E60934F037093500380935103909332
:1009B00052031F910F9108951F920F920FB60F923D
:1009C00011242F933F934F935F936F937F938F9354
:1009D0009F93AF93BF93EF93FF93E0910B01F0913F
:1009E0000C010995FF91EF91BF91AF919F918F916C
:1009F0007F916F915F914F913F912F910F900FBE1B
:100A00000F901F9018951F920F920FB60F921124FE
:100A10002F933F934F935F936F937F938F939F9306
:100A2000AF93BF93EF93FF93E0910901F0910A0117
:100A30000995FF91EF91BF91AF919F918F917F9118
:100A40006F915F914F913F912F910F900FBE0F903B
:100A50001F901895DC01ED91FC910190F081E02D43
:100A60000994EF92FF920F931F93CF93DF938C0122
:100A70007B01C0E0D0E0F701EC0FFD1F649166231D
:100A800061F0D801ED91FC910190F081E02DC80159
:100A90000995892B11F02196EECFCE01DF91CF91F0
:100AA0001F910F91FF90EF9008956115710579F0F6
:100AB000FB0101900020E9F73197AF01461B570B6E
:100AC000DC01ED91FC910280F381E02D099480E03E
:100AD00090E008958F929F92AF92BF92EF92FF9213
:100AE0000F931F93CF93DF93CDB7DEB7A1970FB6C8
:100AF000F894DEBF0FBECDBF7C01FA01CB0119A275
:100B0000223008F42AE08E010F5D1F4F822E912CB7
:100B1000A12CB12CBF01A50194010E94BA20F901BA
:100B2000CA01015011096A3014F4605D01C0695CAA
:100B3000D8016C93232B242B252B61F7B801C70117
:100B40000E945505A1960FB6F894DEBF0FBECDBF2B
:100B5000DF91CF911F910F91FF90EF90BF90AF90D9
:100B60009F908F9008957F928F929F92AF92BF92A5
:100B7000CF92DF92EF92FF920F931F93CF93DF9369
:100B80008C016A017B01722E9A01AB01C701B6018B
:100B90000E94C223882319F069E871E027C046014A
:100BA0005701E894B7F82FEF3FEF4FE75FE7C50134
:100BB000B4010E94C22381110DC02FEF3FEF4FE718
:100BC0005FE7C501B4010E94AB2118161CF46DE863
:100BD00071E00CC02FEF3FEF4FE75FE4C701B601B4
:100BE0000E940A23181694F461E971E0C801DF91AC
:100BF000CF911F910F91FF90EF90DF90CF90BF901A
:100C0000AF909F908F907F900C9455052FEF3FEF02
:100C10004FE75FECC701B6010E94AB2187FDE4CF2F
:100C200020E030E0A901C701B6010E94AB2187FF97
:100C30000AC06DE2C8010E942A05EC01F7FAF0949F
:100C4000F7F8F09402C0C0E0D0E0B12C60E070E0B2
:100C500080E09FE37B1441F020E030E040E251E48B
:100C60000E94B021B394F6CFA70196010E943F21C4
:100C70006B017C010E9429224B015C012AE0AB013F
:100C8000BC01C8010E946A05C80FD91F7720C1F1B5
:100C9000C501B4010E9458229B01AC01C701B601F5
:100CA0000E943E216B017C016EE2C8010E942A0570
:100CB000C80FD91F20E030E040E251E4C701B6017F
:100CC0000E940F234B015C010E9429226B01E12C41
:100CD000F12C2AE0B701A601C8010E946A05C80FDD
:100CE000D91FC701B6010E9458229B01AC01C50162
:100CF000B4010E943E216B017C017A947110DACF1D
:100D0000CE01DF91CF911F910F91FF90EF90DF9077
:100D1000CF90BF90AF909F908F907F9008951F923B
:100D20000F920FB60F9211242F933F934F935F931F
:100D30006F937F938F939F93AF93BF93EF93FF93A3
:100D400080E694E00E945703FF91EF91BF91AF912D
:100D50009F918F917F916F915F914F913F912F91D3
:100D60000F900FBE0F901F9018951F920F920FB605
:100D70000F9211242F938F939F93EF93FF93E09102
:100D80007004F09171048081E0917604F091770411
:100D900082FD12C09081809179048F5F8F732091C2
:100DA0007A04821751F0E0917904F0E0E05AFB4FA9
:100DB000958F8093790401C08081FF91EF919F917D
:100DC0008F912F910F900FBE0F901F901895E8985C
:100DD0002A988EBD0DB407FEFDCF8EB56EBD0DB445
:100DE00007FEFDCF8EB52A9AE89A089560E00C942C
:100DF000E706CF93C82F81E00E94F606837E682F16
:100E00006C2B81E8CF910C94E70680915D048530CE
:100E100021F48091C303882311F080E0089584E0D9
:100E200080935D040E94F90681E0089588E20E94A3
:100E3000F606807521F080E00E94F606F7CF08954F
:100E40008627682F62956827062E66956695602529
:100E5000062E669560256770082E892F6695079483
:100E60006795902D86270694679590258627089587
:100E700080915D04853009F04DC060E485EA0E94F0
:100E8000E70684E20E94F6068093B603789488E22F
:100E90000E94F6068075D9F38091C30381110FC0BB
:100EA000E091BF03F091C0038091C30391E0980FDC
:100EB0009093C30390915F04E80FF11D908380E04D
:100EC0000E94F606E091BF03F091C0039091C30326
:100ED00021E0290F2093C303E90FF11D8083682FC0
:100EE0008091C1039091C2030E9420079093C20396
:100EF0008093C1038091C6032091C30390E00496C0
:100F000030E082179307A4F08091C303883408F47B
:100F1000BECF089588E20E94F60683FF09C084E0F0
:100F200080935D040E94F90660E885EA0C94E70668
:100F30000895CF934093C603FB0120E030E050E0DA
:100F40002417350744F4D901A953BC4F91919C93C0
:100F50002F5F3F4FF5CF86FD04C0807E90915E04E9
:100F6000890F8093C50360915F048FEF9FEF0E940C
:100F700020079093C2038093C1039091C6038EEF24
:100F8000891B80935D040E9416078CE00E94F9067D
:100F900060E085EA0E94E70680915D048330DCF51D
:100FA00088E20E94F60687FDF7CF80915D0487FFF7
:100FB0001BC09091C60380915D04E091BF03F09146
:100FC000C003E90FF11DE80FF11D87FDFA95C381FC
:100FD0006C2F8091C1039091C2030E9420079093CF
:100FE000C2038093C1030DC080915D04882329F062
:100FF000813031F4C091C20304C0C091C10301C06B
:10100000CAEA6C2F80E80E94E70680915D048F5F3A
:1010100080935D04C1CFCF910895FC01248131E01C
:101020003093390420935B0410923A0410925C04CC
:101030008385682B8DEF94E00E947F040C94CA1284
:101040000F931F93CF938C01C62F0E940D086C2F16
:101050006460C8010E940D086C2F6B7FC8010E945C
:101060000D0883EC90E00197F1F7CF911F910F915C
:1010700008950F931F93CF93DF938C01C62FD42F26
:10108000607F642B0E94200880E1C89FB00111247A
:101090006D2BC801DF91CF911F910F910C94200807
:1010A00041E00E94390881E090E008951F920F927C
:1010B0000FB60F9211242F933F934F935F936F932B
:1010C0007F938F939F93AF93BF93EF93FF93809101
:1010D000B900887F803609F49CC068F5883209F42D
:1010E0005BC090F4803109F454C038F4882309F4CB
:1010F000F6C0883009F44DC0F6C0883109F44CC000
:10110000803209F45DC0EFC0803409F468C048F44F
:10111000803309F455C0883309F0E5C08093360464
:10112000D8C0803509F44FC0883509F45DC08834D3
:1011300009F0D9C0D6C0883909F4C7C0A8F48837E7
:1011400009F467C038F4883609F463C0803709F4BD
:1011500060C0C9C0883809F4B8C0803909F45FC0DC
:10116000803809F0C0C05BC0803B09F486C038F409
:10117000803A09F466C0883A09F47FC0B4C0803C64
:1011800009F4A7C0883C09F4A4C0883B09F48AC0CC
:10119000AAC08091130410C090913504809134044A
:1011A000981770F5E091350481E08E0F8093350437
:1011B000F0E0EC5EFB4F80818093BB0085EC86C045
:1011C000809336048EC0E091350481E08E0F8093C9
:1011D00035048091BB00F0E0EC5EFB4F8083909182
:1011E0003504809134046EC0E091350481E08E0FA7
:1011F000809335048091BB00F0E0EC5EFB4F808370
:101200008091370481116DC081E08093120484EADB
:1012100061C083E0809338041092B503CFCF8091F2
:10122000B503803208F051C0E091B50381E08E0F24
:101230008093B5038091BB00F0E0EB56FC4F8083B8
:10124000BDCF85EC8093BC00109238048091B5032B
:10125000803230F4E091B503F0E0EB56FC4F1082A1
:101260006091B50370E0E0910C04F0910D0485E904
:1012700093E009951092B50336C084E0809338045A
:101280001092940310929303E0910E04F0910F04D6
:10129000099580919303811105C081E080939303A8
:1012A00010927303E091940381E08E0F8093940376
:1012B000F0E0ED58FC4F80818093BB009091940347
:1012C00080919303981708F479CF85E88093BC0048
:1012D0000AC085EC8093BC001092380404C01092C0
:1012E00036040E94F203FF91EF91BF91AF919F915D
:1012F0008F917F916F915F914F913F912F910F90BF
:101300000FBE0F901F9018958EE480937C0062E0D2
:1013100070E080E090E00E94700E80917A0080641E
:1013200080937A0080917A0086FDFCCF80917800CE
:101330002091790030E0322F2227A901330F660B6C
:10134000770B9A01AB01282B60E070E381E190E01C
:101350000E94DC20CA01B9010895DC0180E06150DF
:1013600098F02D91982F9227E92FEF70F0E0EA5234
:10137000FB4F249192959F70E92FF0E0EA51FB4FCB
:10138000E491822F8E27EBCF0895FC01908101809C
:10139000F281E02DF8948181892B81832281892F2C
:1013A000809528232283A7E0B0E01197F1F72181EF
:1013B00082238183A3E2B0E01197F1F780817894D2
:1013C000EFECF0E03197F1F7982381E009F480E049
:1013D0000895FC0190810180F281E02D892F809594
:1013E00060FF12C0F8942281822382838181892B3D
:1013F0008183A3E2B0E01197F1F78281982B928369
:10140000789487ED90E011C0F89422818223828342
:101410008181892B8183AFEFB0E01197F1F7828151
:10142000982B928378948FE090E00197F1F70895DC
:10143000DF92EF92FF920F931F93CF93DF93EC0114
:10144000D62EE42E08E010E0FF24F39461E08D2D09
:101450008F2109F460E0CE010E94E909FF0C0150E0
:101460001109A1F7E11010C0F894E981FA81918186
:101470008881809589238183E981FA81928188819D
:101480008095892382837894DF91CF911F910F916A
:10149000FF90EF90DF900895EF92FF920F931F93CC
:1014A000CF93DF938C017B0140E065E50E94180A31
:1014B000E70188E0E80EF11C699140E0C8010E9454
:1014C000180ACE15DF05C1F7DF91CF911F910F915B
:1014D000FF90EF900895DC012C911196ED91FC9115
:1014E0001297F8948181922F909589238183789423
:1014F0008DE743E050E0815021F1DA011197F1F7D7
:1015000030813223C1F3F8948281892382838181DF
:10151000822B81837894ABE7B7E01197F1F7F894C9
:1015200081819823918383E191E00197F1F7808194
:10153000282381E009F080E07894E3E6F6E0319733
:10154000F1F708950F931F93CF938C0164ED74E02E
:1015500080E694E00E9431058091C5038F716AE0B6
:1015600070E090E00E94BF1162ED74E080E694E0CC
:101570000E943105C0E08C2F90E080179107A4F401
:10158000FC01E953FC4F408150E060E070E02AE04C
:1015900080E694E00E946A0560ED74E080E694E0E5
:1015A0000E943105CF5FE7CF6EEC74E080E694E0F7
:1015B0000E9431058091B60390E0959587956AE089
:1015C00070E09195819591090E94BF116CEC74E0D7
:1015D00080E694E00E943105CF911F910F910C9409
:1015E000AA111F93CF93DF93EC01FE0114911123F5
:1015F00071F01A3029F46DE080E694E00E942A052B
:10160000612F80E694E00E942A052196EECFDF91BB
:10161000CF911F91089561E089E00E942A0D69E150
:1016200070E080E090E00E94700E60E089E00E942F
:101630002A0D61E089E00E942A0D69E170E080E0F6
:1016400090E00E94700E60E089E00C942A0D1F92D9
:101650000F920FB60F9211248F9380914E038F5FDC
:1016600080934E038F910F900FBE0F901F9018958F
:101670003FB7F8948091BB039091BC03A091BD0348
:10168000B091BE0326B5A89B05C02F3F19F0019667
:10169000A11DB11D3FBFBA2FA92F982F8827820FF8
:1016A000911DA11DB11DBC01CD0142E0660F771F48
:1016B000881F991F4A95D1F70895CF93DF93CDB72F
:1016C000DEB729970FB6F894DEBF0FBECDBFFC0181
:1016D00020812031D1F0BE016F5F7F4F0E940F1437
:1016E000882389F08D818F3361F020F48F3159F494
:1016F00089E00CC08F3519F08F3739F004C08BE0CA
:1017000005C08AE003C080E001C08CE029960FB6D6
:10171000F894DEBF0FBECDBFDF91CF910895BF9289
:10172000CF92DF92EF92FF920F931F93CF93DF93AD
:10173000EC016B018D85811105C0CE010E946B0A01
:10174000811105C01B861D861C8680E060C040E0BC
:1017500060EFCE010E94180A01E0E12CB12C11E0EB
:10176000CE010E94C509F82ECE010E94C50991E064
:10177000F91203C08130B1F434C02E2D30E0F812DC
:101780001BC08B85181738F4FE01E20FF31F83810D
:10179000802341F402C0811729F0F12C193058F44C
:1017A0001C8709C0FE01EE0DF11D8381802B838310
:1017B000FF24F39409C0B12EFE01E20FF31F9381C1
:1017C000802F8095892383836F2DCE010E94E909A4
:1017D0001F5F000F11F4E39401E087E08E1508F01D
:1017E000BFCF113408F4AECFBB86B11002C081E088
:1017F0008D878B81882309F4A5CFDE011396F6012E
:101800002B968D918193CA17DB07D9F781E0DF9181
:10181000CF911F910F91FF90EF90DF90CF90BF90ED
:101820000895FF920F931F93CF93DF938C01F62EB1
:10183000E0910E05F0910F05138615861486DF01E1
:101840001B9633961E92EA17FB07E1F7C0E0B8013A
:1018500080910E0590910F050E948F0BD82F882341
:1018600069F0FC1208C067E0C8010E94AD09F801E8
:101870009781891721F0CF5FFC1648F7D0E08D2FB4
:10188000DF91CF911F910F91FF9008956F927F92FA
:101890008F929F92AF92BF92CF92DF92EF92FF9280
:1018A0000F931F93CF93DF93EC018B018881998174
:1018B0000E946B0A6A817B81888199810E944C0A0F
:1018C00040E068EB888199810E94180A40E060E05E
:1018D000888199810E94180A888199810E946B0AE7
:1018E0006A817B81888199810E944C0A40E06EEB7D
:1018F000888199810E94180A40E060E0888199817E
:101900000E94180A7801680189E0C80ED11CA880DD
:10191000B98088E0882E912C712C66246394C501CF
:101920000E94C50981117628660CE1E08E1A9108A3
:10193000B1F7F70171927F01CE16DF0641F768E03B
:10194000C8010E94AD0991E0F8012085281390E0BC
:10195000892FDF91CF911F910F91FF90EF90DF9032
:10196000CF90BF90AF909F908F907F906F90089591
:10197000EF92FF920F931F93CF93DF93EC017B01C4
:10198000888199810E946B0A6A817B818881998113
:101990000E944C0A40E06EE4888199810E94180AF6
:1019A00040E060E0888199810E94180A870188E000
:1019B000E80EF11CF80161918F0140E08881998166
:1019C0000E94180A0E151F05A9F7888199810E94A7
:1019D0006B0A6A817B81888199810E944C0A40E070
:1019E00068E4888199810E94180A40E060E088815B
:1019F0009981DF91CF911F910F91FF90EF900C94FF
:101A0000180A833081F028F4813099F08230A1F0F7
:101A100008958730A9F08830B9F08430D1F48091EE
:101A200080008F7D03C0809180008F77809380003D
:101A3000089584B58F7702C084B58F7D84BD0895E5
:101A40008091B0008F7703C08091B0008F7D80932C
:101A5000B00008951F93CF93DF93282F30E0F90152
:101A6000E65FFA4F8491F901E15AFA4FD491F901F6
:101A7000E55BFA4FC491CC23C1F0162F81110E946F
:101A8000010DEC2FF0E0EE0FFF1FE050FB4FA59192
:101A9000B4919FB7F894111104C08C91D095D823BC
:101AA00002C0EC91DE2BDC939FBFDF91CF911F91A1
:101AB0000895CF93DF9390E0FC01E15AFA4F24910F
:101AC000FC01E55BFA4F8491882361F190E0880F77
:101AD000991FFC01EA50FB4FC591D491FC01E050E5
:101AE000FB4FA591B491611109C09FB7F89488810B
:101AF000209582238883EC912E230BC0623061F401
:101B00009FB7F8948881322F309583238883EC9196
:101B10002E2B2C939FBF06C08FB7F894E8812E2BF5
:101B200028838FBFDF91CF9108958E3008F08E50BB
:101B30008770806480937C0080917A0080648093B9
:101B40007A0080917A0086FDFCCF80917800209108
:101B5000790090E0922B08952F923F924F925F92DE
:101B60006F927F928F929F92AF92BF92CF92DF92AD
:101B7000EF92FF920F931F93CF93DF9300D000D08B
:101B8000CDB7DEB79C838B830E9484096B017C01F7
:101B900008EC15E08B819C81885B9F4F9A83898339
:101BA0002B803C809CE4290E311CEB81FC818689D2
:101BB0000E94950DEB81FC8197A386A3BC01990F30
:101BC000880B990B0E945A224B015C01EB81FC812E
:101BD00040AC51AC62AC73ACA30192010E943E21B7
:101BE00020E030E040E85AE30E940F23A301920175
:101BF0000E943F219B01AC01EB81FC8160AF71AF82
:101C000082AF93AFC501B4010E943E21EB81FC81FC
:101C100060AB71AB82AB93AB9B01AC010E940F2315
:101C2000E981FA816083718382839383F10120814A
:101C30003181428153810E943F21F1016083718390
:101C4000828393830150110909F0AFCF20E030E087
:101C500049EB54E40E94B0210E9482234B015C01B5
:101C6000B601DD0C880B990B0E945A2220E030E06F
:101C70004AE754E40E94B02120E030E040E85AE313
:101C80000E940F23EB81FC81248D358D468D578D6D
:101C90000E940F23A50194010E940F23EB81FC8178
:101CA000608B718B828B938BF10110821182128277
:101CB00013820F900F900F900F90DF91CF911F9193
:101CC0000F91FF90EF90DF90CF90BF90AF909F90DB
:101CD0008F907F906F905F904F903F902F900895DE
:101CE0008F929F92AF92BF92CF92DF92EF92FF922C
:101CF0006B017C010E94380B4B015C01C114D104C3
:101D0000E104F104F1F00E94380BDC01CB018819E9
:101D10009909AA09BB09883E9340A105B10570F352
:101D200021E0C21AD108E108F10888EE880E83E0AC
:101D3000981EA11CB11CC114D104E104F10419F7CF
:101D4000DDCFFF90EF90DF90CF90BF90AF909F904E
:101D50008F9008951F93CF93DF93EC01162F888106
:101D600099810E946B0A6A817B81888199810E9496
:101D70004C0A1123B1F040E064E4888199810E940B
:101D8000180A6AE070E080E090E00E94700E88819E
:101D900099810E946B0A6A817B81888199810E9466
:101DA0004C0A40E064EB888199810E94180A68E03F
:101DB00070E080E090E00E94700E81E0DF91CF91B2
:101DC0001F9108952FB7F8946091B7037091B803ED
:101DD0008091B9039091BA032FBF08952F923F923B
:101DE0004F925F926F927F928F929F92AF92BF922B
:101DF000CF92DF92EF92FF920F931F93CF93DF93D7
:101E0000CDB7DEB7A2970FB6F894DEBF0FBECDBF39
:101E10009AA389A30E948409698B7A8B8B8B9C8BF4
:101E20000E94E20E4B015C0169A07AA028E5620ED7
:101E3000711CA9A1BAA154968C910E94950DF30131
:101E400091838083BC01990F880B990B0E945A22C1
:101E50006B017C012DEC3CEC4CE054E40E94AB2186
:101E600087FF0BC011E026E636E646EE53E4C701D5
:101E7000B6010E940A2318160CF010E00E94E20E30
:101E8000DC01CB0188199909AA09BB09813D97405A
:101E9000A105B10510F4112361F20E94E20E6D8BD1
:101EA0007E8B8F8B988F1A821982212C312C29A13D
:101EB0003AA1205C3F4F3A8F298F49A15AA14C5B30
:101EC0005F4F5C874B8789A19AA1885B9F4F9C8F4E
:101ED0008B8FA9A1BAA1A45BBF4FBE87AD87E9A133
:101EE000FAA1E05BFF4FFE8FED8F29A13AA12C5A9A
:101EF0003F4F388B2F8749A15AA1465A5F4F5C83C9
:101F00004B8309A11AA1055A1F4F89A19AA1885A8A
:101F10009F4F98A38F8F0E94E20EDC01CB012D8989
:101F20003E894F89588D821B930BA40BB50B803DC6
:101F30009740A105B10508F02AC1E981FA813196DF
:101F4000FA83E983E9A1FAA184A595A5A6A5B7A579
:101F500080A791A7A2A7B3A784890E94950DA9A1E4
:101F6000BAA195969C938E93949756968C910E94C5
:101F7000950D3C01E9A1FAA197A386A324A135A15F
:101F800038872F83B901330F880B990B0E945A228F
:101F90006B017C01A9A1BAA1D4968D909D90AD90C2
:101FA000BC90D797A50194010E943E2120E030E02B
:101FB00040E85AE30E940F23A50194010E943F21AB
:101FC0009B01AC01E9A1FAA164AB75AB86AB97AB01
:101FD000C701B6010E943E214B015C01A9A1BAA133
:101FE0009C966D937D938D939C939F97B301770CF3
:101FF000880B990B0E945A226B017C01E9A1FAA17E
:1020000040AC51AC62AC73ACA30192010E943E2182
:1020100020E030E040E85AE30E940F23A301920140
:102020000E943F219B01AC01A9A1BAA1D8966D9352
:102030007D938D939C93DB97C701B6010E943E214F
:102040006B017C01E9A1FAA160AB71AB82AB93ABF0
:10205000A5019401C501B4010E940F239B01AC01AD
:10206000A98DBA8D6D937D938D939C931397EB857A
:10207000FC8560817181828193810E943F21AB85C3
:10208000BC856D937D938D939C931397A7019601C7
:10209000C701B6010E940F239B01AC01EB8DFC8DA3
:1020A0006083718382839383AD85BE856D917D91BD
:1020B0008D919C910E943F21ED85FE856083718307
:1020C00082839383A9A1BAA198964D905D906D905B
:1020D0007C909B97A3019201C501B4010E943E210F
:1020E000E9A1FAA120A131A142A153A10E940F238D
:1020F000A30192010E943F219B01AC01A9A1BAA1B9
:10210000DC966D937D938D939C93DF97C701B60109
:102110000E940F239B01AC01ED8DFE8D60837183C6
:1021200082839383AF85B8896D917D918D919C91C8
:102130000E943F21EF85F8896083718382839383B6
:10214000D8018C91EB81FC818083AF8DB8A18D91FA
:102150009C91EF81F8858E179F070CF0F4C0E1E0A9
:10216000D801EC93E981FA81319729F4D8018C9157
:10217000EB81FC818083AB81BC819C91F8018081E3
:102180009813E4C094E12916310408F4C4CE2989D7
:102190003A89B901330F880B990B0E945A2220E02B
:1021A00030E04AE754E40E94B02120E030E040E80B
:1021B0005AE30E940F232B013C01A9A1BAA1589612
:1021C0002D913D914D915C915B970E940F234B01A6
:1021D0005C01E981FA81BF0180E090E00E94582211
:1021E0006B017C0129A13AA12C5B3F4F3A832983E3
:1021F0009B01AC01A981BA816D917D918D919C91DA
:102200000E94B0210E9482239B01AC01C501B40150
:102210000E940F236B837C838D839E83E9A1FAA1A7
:102220006487758786879787248D358D468D578D72
:10223000C301B2010E940F232B013C0109A11AA185
:10224000045B1F4FA7019601D8016D917D918D917F
:102250009C910E94B0210E9482239B01AC01C3018A
:10226000B2010E940F236F83788789879A87E9A13B
:10227000FAA1608B718B828B938B1F01F4E52F0E7B
:10228000311CA3019201C501B4010E940F23D101A9
:102290002D913D914D915C910E940F23A7019601D4
:1022A0000E94B0216B017C01E9A1FAA160837183D6
:1022B000828393832F81388549855A856B817C8100
:1022C0008D819E810E940F239B01AC01A9A1BAA11F
:1022D00014966D937D938D939C931797C701B601C8
:1022E0000E94B021E9A1FAA1608771878287938754
:1022F000A981BA811D921D921D921C921397F8011B
:102300001082118212821382D1011D921D921D92A0
:102310001C921397A2960FB6F894DEBF0FBECDBFE6
:10232000DF91CF911F910F91FF90EF90DF90CF90B1
:10233000BF90AF909F908F907F906F905F904F90E5
:102340003F902F900895D8011C920CCFFFEF2F1AC9
:102350003F0A18CF65E971E080E694E00C945505DA
:10236000CF93DF93BC0180E694E00E943105EC013D
:102370000E94AA118C0F9D1FDF91CF910895CF92DB
:10238000DF92EF92FF92CF93DF936115710559F4BD
:10239000682F80E694E0DF91CF91FF90EF90DF907F
:1023A000CF900C9479036C01990FEE08FF086A3006
:1023B0007105F9F4F7FE1BC06DE280E694E00E941F
:1023C0002A05EC0144275527BA014C195D096E090D
:1023D0007F092AE080E694E00E946A058C0F9D1F29
:1023E000DF91CF91FF90EF90DF90CF9008952AE09A
:1023F00001C0262FB701A60180E694E0DF91CF91BE
:10240000FF90EF90DF90CF900C946A05CF92DF920F
:10241000EF92FF920F931F93CF93DF93C82FD42F88
:10242000EFEFE60FE33028F4F0E0E55EFE4FE081E9
:1024300001C0E0E0A62FB0E020E039E04DE350E03D
:102440000E941F216B017C01AE2FB0E020E836E92D
:1024500048E950E00E941F21DC01CB018C0D9D1D3D
:10246000AE1DBF1DBC01CD0122E0660F771F881F86
:10247000991F2A95D1F729E03DE340E050E00E9402
:10248000BA20DA01C90136E0880F991FAA1FBB1FC5
:102490003A95D1F780932A0590932B05A0932C05AC
:1024A000B0932D05D0935F04DC2FDF71D0935E04D1
:1024B00064E170E080E090E00E94700EDD2369F03E
:1024C00088E397E090930A01809309018091690065
:1024D000836080936900E89A07C0E89885EE92E0EF
:1024E00090930A01809309012A9A229A2A9A84B128
:1024F0008C6284B980E58CBD8DB581608DBD6AEA42
:102500008FEA0E94E7068FE20E94F6068A3AB9F740
:1025100065E58FEA0E94E7068FE20E94F6068535A0
:10252000B9F70EE115E0F8018491882341F0319666
:10253000649180680E94E7060E5F1F4FF4CF6091A0
:102540005F0480EB0E94E706C0902A05D0902B051F
:10255000E0902C05F0902D05B7018827992787E892
:102560000E94E70699278F2D7E2D6D2D88E80E9409
:10257000E7066C2D89E80E94E70684E080935D04FD
:102580008C2FDF91CF911F910F91FF90EF90DF90F3
:10259000CF90089530915C04313208F04BC08091A7
:1025A00038048111FCCF90915B0422E02093380421
:1025B00021E0209337042FEF209336041092350446
:1025C00030933404EBE3F4E0A4E1B4E020E032170C
:1025D00021F041914D932F5FFACF10921304209177
:1025E0001304990F922B909313049091120491303D
:1025F00061F410921204909113049093BB00909197
:10260000BC0093FDF8CF95EC01C095EE9093BC0013
:10261000909138049230E1F3909136049F3F79F025
:1026200080913604803241F080913604803331F05D
:1026300084E005C081E003C082E001C083E0109225
:102640003A0410925C041092390408951092110417
:102650001092100410923A0410925C041092380404
:1026600081E0809337041092120461E082E10E94BD
:102670002A0D61E083E10E942A0DE9EBF0E0808100
:102680008E7F808380818D7F808388E48093B800F3
:1026900085E48093BC0084E294E090930F048093DF
:1026A0000E0485E294E090930D0480930C04089549
:1026B000CF93DF93CDB7DEB728970FB6F894DEBF80
:1026C0000FBECDBF9C0188E0E3E1F1E0DE01119691
:1026D00001900D928A95E1F7F9018085811102C080
:1026E0009FEF01C091E0FE013196E90FF11DE90F66
:1026F000F11D6081606840E0C90128960FB6F8942A
:10270000DEBF0FBECDBFDF91CF910C94390840E002
:1027100061E00E9439088BE39FE10197F1F708958A
:10272000462F50E060E070E02AE00C946A05CF93F9
:10273000DF93AB01BC0122E080E694E00E94B30588
:10274000EC010E94AA118C0F9D1FDF91CF9108957B
:1027500080915D04843019F0853031F133C01092DE
:10276000C6031092C30360915F048FEF9FEF0E9436
:1027700020079093C2038093C10384EC93E090936D
:10278000C0038093BF0385E080935D040E94160719
:1027900060E885EA0E94E70680E10E94F90662E0AF
:1027A0008EE90E94E7060EC08091C6032091C30304
:1027B00090E0049630E0821793073CF08091C303C9
:1027C000883418F48FEF9FEF089584E080935D04C0
:1027D0000E94F9068091C6032091C1033091C20383
:1027E000232B19F081E090E008958334D8F780918D
:1027F000C50386FF11C030915E043F3169F020911E
:10280000C5032F7181E090E0231302C080E090E0C7
:10281000919581959109089580E090E008958F92B7
:102820009F92AF92BF92CF92DF92EF92FF920F935F
:102830001F93CF93DF938C01EB0180910E05909154
:102840000F050E946B0A882309F43DC0B8018091EE
:102850000E0590910F050E944C0A40E06EEB8091AE
:102860000E0590910F050E94180A8E015E0189E005
:10287000A80EB11C80900E0590900F0588E0C82E20
:10288000D12CF12CEE24E394C4010E94C5098111DE
:10289000FE28EE0CE1E0CE1AD108B1F7F801F19272
:1028A0008F01EA15FB0531F780910E0590910F0518
:1028B0000E946B0A813039F468E0CE010E94AD09B4
:1028C00091E02885281390E0892FDF91CF911F9107
:1028D0000F91FF90EF90DF90CF90BF90AF909F90BF
:1028E0008F9008951F920F920FB60F9211242F937D
:1028F0003F938F939F93AF93BF938091B703909132
:10290000B803A091B903B091BA0330913A0523E01E
:10291000230F2D3720F40196A11DB11D05C026E817
:10292000230F0296A11DB11D20933A058093B70392
:102930009093B803A093B903B093BA038091BB03FB
:102940009091BC03A091BD03B091BE030196A11D5F
:10295000B11D8093BB039093BC03A093BD03B093C0
:10296000BE03BF91AF919F918F913F912F910F9097
:102970000FBE0F901F901895CF93DF93CDB7DEB7A2
:10298000AD970FB6F894DEBF0FBECDBF789484B577
:10299000826084BD84B5816084BD85B5826085BD5B
:1029A00085B5816085BD80916E00816080936E00E9
:1029B00010928100809181008260809381008091DB
:1029C000810081608093810080918000816080938C
:1029D00080008091B10084608093B1008091B0004C
:1029E00081608093B00080917A00846080937A0047
:1029F00080917A00826080937A0080917A00816071
:102A000080937A0080917A00806880937A00109297
:102A1000C10064E670E080E090E00E94700E80915A
:102A2000FE02882371F080E090E0A2E0B3E480939E
:102A3000FA029093FB02A093FC02B093FD0288E798
:102A40000DC086E696E6A0E8B3E48093FA02909380
:102A5000FB02A093FC02B093FD0286EE8093F90284
:102A600061E089E00E94590D61E089E00E942A0D31
:102A700062E088E00E94590D61E085E00E94590DF6
:102A800060E085E00E942A0D62E083E00E94590D1B
:102A9000E0917004F091710482E08083E0916C0415
:102AA000F0916D041082E0916E04F0916F0483E365
:102AB000808310927804E0917404F091750486E0AC
:102AC0008083E0917204F09173048081806180833F
:102AD000E0917204F0917304808188608083E091BA
:102AE0007204F0917304808180688083E0917204A5
:102AF000F091730480818F7D808365EB70E080E6C8
:102B000094E00E94310567E471EE8AE390E40E944C
:102B100097138FE990E00E94B01184E990E00E9441
:102B2000B0116AE070E080E090E00E94700E409189
:102B3000070160910601809105010E9406120AE0DA
:102B400010E010932102009320020E9405078111DA
:102B50000BC00E94A8139093A3018093A2018091BF
:102B6000A2019091A301F1CF48E160E272E080E020
:102B70000E94990764E670E080E090E00E94700E89
:102B800001501109F0F680915D04843064F483B73C
:102B9000817F8C6083BF83B7816083BF889583B753
:102BA0008E7F83BFF0CF1092210210922002E0911D
:102BB0000E05F0910F05138615861486DF011B960E
:102BC00033961E92EA17FB07E1F710920D0511E00C
:102BD000BE016F5F7F4F80910E0590910F050E949F
:102BE0008F0B882309F449C067E0CE0101960E944B
:102BF000AD0998858913ECCF80910905811126C014
:102C000080910E0590910F050E946B0ABE016F5FC7
:102C10007F4F80910E0590910F050E944C0A40E075
:102C200064EB80910E0590910F050E94180A809127
:102C30000E0590910F050E94C509082F80910E0581
:102C400090910F050E946B0A002361F100910A0523
:102C5000CE0101960E945D0B801718F480910A0541
:102C600004C0CE0101960E945D0B80930A058091FD
:102C70000D058F5F80930D05ABCFE0900D05E092C1
:102C80001D020DEE11E05801F12CFE1471F06F2DB4
:102C9000C5010E94110C38E0A30EB11C882329F055
:102CA000F394F3CF10930905D1CFF12C8FE7982E31
:102CB0009CE0D92EFE1409F4A3C0C8010E945D0B4C
:102CC0008C3009F499C0BE016F5F7F4FC8010E942C
:102CD0000F14882309F490C0D8018C91803109F435
:102CE0008BC09D8280910E0590910F050E946B0A0A
:102CF000B80180910E0590910F050E944C0A40E0AA
:102D00006EE480910E0590910F050E94180A40E034
:102D10006B8180910E0590910F050E94180A40E08A
:102D20006C8180910E0590910F050E94180AF801A0
:102D30008081803141F040E06D8180910E0590915D
:102D40000F050E94180A80910E0590910F050E94B0
:102D50006B0AB80180910E0590910F050E944C0AF4
:102D60004091090568E480910E0590910F050E943D
:102D7000180A64E170E080E090E00E94700E80919B
:102D80000905882331F06AE070E080E090E00E945D
:102D9000700E80910E0590910F050E946B0A809134
:102DA0000A058C3008F48CE080930A058C3021F100
:102DB000D0920A05A12CB12C80910D0590E0A816A7
:102DC000B906D4F46A2DCE0149960E94110C809068
:102DD0000A05CE0149960E945D0B881518F4809172
:102DE0000A0504C0CE0149960E945D0B80930A0536
:102DF000FFEFAF1ABF0AE0CFF394085F1F4F5ACF1F
:102E0000F11003C010921E0209C081E080931E02DF
:102E100026E02F1518F486E080931D020E942613E9
:102E20008091000111E01093390480935B041092AB
:102E30003A0410925C040E94CA128823C9F080915F
:102E400002011093390480935B0410923A041092AB
:102E50005C040E94CA12882371F06AE571E080E682
:102E600094E00E9455050E94AA1180E090E017C0EE
:102E700000E011E002C002E011E068E671E080E6E7
:102E800094E00E94550560E170E0D8018D919C911D
:102E90000E94BF110E94AA11F80180819181809344
:102EA0009D0190939E011C8E1B8E46E451E05A8F2B
:102EB000498F8D8F20E12AA392E09BA31CA21C8244
:102EC0001B825A8349838D832A879B871C860E9495
:102ED00026131E828B85823010F098E09E838987AE
:102EE00062E370E080E090E00E94700E6C85CE019D
:102EF00001960E940D0868EE73E080E090E00E9469
:102F0000700E60E3CE0101960E9420080BE416E4E7
:102F1000C8010197F1F760E3CE0101960E942008F5
:102F2000C8010197F1F760E3CE0101960E942008E5
:102F300083E592E00197F1F760E2CE0101960E94ED
:102F400020086E81606240E0CE0101960E9439083F
:102F500084E08F8340E06CE0CE0101960E94390846
:102F6000CE0101960E94871382E0888740E066E0E8
:102F7000CE0101960E94390840E062E0CE01019640
:102F80000E9439088BE39FE10197F1F788E08C8775
:102F900060E0CE0101960E940D086CEC70E0CE015D
:102FA00001960E94310522E047E451EE6AE370E4A5
:102FB000CE0101960E94B305CE0101960E945813DE
:102FC0006EEB70E0CE0101960E94310560ED77E076
:102FD00080E090E00E94700E81E00E94950D18162E
:102FE00019062CF480911F028F5F80931F0282E0EC
:102FF0000E94950D181619062CF480911F028F5F00
:1030000080931F0260E089E00E942A0D61E08EE05B
:103010000E94590D61E08EE00E94590D61E08EE042
:103020000E942A0D61E08EE00E94590D60E08EE062
:103030000E942A0D60E08EE00E94590D64EF71E05D
:1030400080E090E00E94700E04EF16E0812C912C3D
:10305000540180E00E94950DDC01B2509D010E9458
:103060000121860E971EA81EB91E0150110989F76D
:10307000C501B4010E94582220E030E84EED54E42E
:103080000E94B0210E94822322E538EB4EE55FE3E7
:103090000E940F236093990170939A0180939B0182
:1030A00090939C0120E030E044EB52E40E940A231C
:1030B000181624F481E08093380202C0109238027E
:1030C00080919D011C821B8226E431E03A83298392
:1030D0008D8380E18A8782E08B871C86CE010196F2
:1030E0000E94871388E08C8760E0CE0101960E94E1
:1030F0000D0868E772E080E694E00E9431056DEC0F
:103100007CEC85EB92E40E9497136DE672E080E61A
:1031100094E00E9431056DEC7CEC85EB92E40E941A
:10312000971363E672E080E694E00E9431054091D7
:10313000990150919A0160919B0170919C0122E04C
:1031400080E694E00E94B30581E692E00E94B0110F
:1031500080913802882309F441C060E572E0CE0115
:1031600001960E94310585E292E00E94B0118091A3
:10317000FE02882331F069E172E080E694E00E946B
:10318000310562E172E080E694E00E9431056091D1
:10319000FA027091FB028091FC029091FD020E9464
:1031A00097136BE072E080E694E00E943105609135
:1031B000F90280E694E00E94901389E092E00E9478
:1031C000B0116BEF71E080E694E00E9431056AE98E
:1031D00079E989ED9FE30E94971322C06BEE71E0BD
:1031E000CE0101960E9431058DEB91E00E94B01155
:1031F0008091FE02882321F084EB91E00E94B011BF
:1032000064EA71E080E694E00E9431056091F90281
:1032100080E694E00E94901382EA91E00E94B0114F
:10322000CE0101960E94581368E971E0CE01019623
:103230000E94310580911F02811107C089E891E049
:103240000E94B01161E871E01AC069E771E080E6A0
:1032500094E00E94550560911F0280E694E00E9470
:10326000901363E871E080E694E00E945505609158
:103270001F02CE0101960E9490136BE771E0CE0110
:1032800001960E94310560ED77E080E090E00E94B9
:10329000700E80911E02882339F163E771E080E6A9
:1032A00094E00E94310560911D0280E694E00E9446
:1032B00090138AE691E00E94B011CE0101960E941F
:1032C00087136FE571E0CE0101960E943105609190
:1032D0001D02CE0101960E949013CE0101960E941C
:1032E000581362E571E01AC08FE391E00E94B011BB
:1032F000CE0101960E94871364E371E0CE0101962E
:103300000E94310560911D02CE0101960E9490132A
:10331000CE0101960E94581367E271E0CE0101963A
:103320000E94310560ED77E080E090E00E94700E31
:10333000CE0101960E9487136CE171E0CE010196E7
:103340000E943105CE0101960E94581360E171E0A0
:10335000CE0101960E94310581E091E00E94B011FA
:103360006BEF70E080E694E00E943105609105010A
:1033700080E694E00E94901364EF70E080E694E0B1
:103380000E94310580910601813031F46DEE70E0CC
:1033900080E694E00E94310580910601823031F48C
:1033A00066EE70E080E694E00E94310580910601AF
:1033B000833031F46FED70E080E694E00E943105D7
:1033C00065ED70E080E694E00E9431056AE070E00F
:1033D00080910701909108010E94BF110E94AA11DB
:1033E0008FE992E00E94F10A64E170E080E090E0F1
:1033F0000E94700E84EB94E090930C0180930B017B
:1034000080916900837F886080936900E99A1092B7
:10341000340210923502109236021092370281E087
:1034200090E09093B4028093B3024DEC5CEC65EBBA
:1034300072E44093B9025093BA026093BB02709356
:10344000BC0280E090E0A0E0B4E48093D5029093C9
:10345000D602A093D702B093D80222E030E0309396
:1034600058022093570240935D0250935E0260938E
:103470005F02709360028093790290937A02A09326
:103480007B02B0937C0220913802222309F444C0CD
:103490000091FA021091FB022091FC023091FD0292
:1034A0001092B2021092B1020093B5021093B602CC
:1034B0002093B7023093B8024AE959E969ED7FE3F6
:1034C0004093BD025093BE026093BF027093C0024E
:1034D0008093D1029093D202A093D302B093D402EE
:1034E00010925602109255020093590210935A02FC
:1034F00020935B0230935C0240936102509362021E
:1035000060936302709364028093750290937602D5
:10351000A0937702B0937802812C912CA12C94E493
:10352000B92E7E01F9E1EF0EF11C0E94E20E6093CC
:10353000FF02709300038093010390930203809134
:10354000FE02882371F020E030E042E053E4209353
:10355000FA023093FB024093FC025093FD0288E78D
:103560000DC086E696E6A0E8B3E48093FA02909355
:10357000FB02A093FC02B093FD0286EE8093F90259
:103580008091FA029091FB02A091FC02B091FD02A1
:103590001092B2021092B1028093B5029093B602DB
:1035A000A093B702B093B8022AE939E949ED5FE385
:1035B0002093BD023093BE024093BF025093C002DD
:1035C0008092D1029092D202A092D302B092D40201
:1035D00010925602109255028093590290935A020B
:1035E000A0935B02B0935C0220936102309362026D
:1035F0004093630250936402809275029092760227
:10360000A0927702B0927802E2E1F5E08491E7E6D9
:10361000F5E00491E3E5F5E01491112381F08111C7
:103620000E94010DE12FF0E0EE0FFF1FEF5BFA4F5C
:10363000A591B491EC910E2311F060E001C061E01E
:1036400085E00E942A0D80E694E00E944103892BC8
:1036500009F432C180E694E00E941F0390ED980FB8
:103660009A30B0F44091A0015091A1019AE0949F4A
:103670009001959F300D112420533109A901480F65
:10368000511D87FD5A955093A1014093A00112C18D
:103690008C3281F4E0919F01E63408F007C181E0AB
:1036A0008E0F80939F01F0E0EC55FE4F8091A001BA
:1036B0008083FCC081320CF4F7C0482F082E000C28
:1036C000550B660B770BFA01E156F109E631F1056E
:1036D00008F07BC0EC5CFF4F0C94FB208091A001B4
:1036E0009091A101009739F0809305014091070165
:1036F000609106011EC08091A001843031F08830B5
:1037000031F0893031F463E005C061E003C062E06C
:1037100001C060E0862F90E09093A1018093A0010A
:10372000662309F456C06093060140910701809119
:1037300005010E9406124DC04091A0018091A10197
:10374000409307018093080160910601F0CF8091BA
:10375000A0019091A1010097E1F18130910519F448
:103760001092FE0236C00297A1F581E08093FE021E
:1037700030C081E02091A0013091A101232B09F4F8
:1037800080E08093040125C068EA74E080E694E05C
:103790000E94310522E04AE959E969EE71E480E6C8
:1037A00094E00E94B30566EA74E080E694E00E942B
:1037B00031050FC08093EC0180919F018093EB0154
:1037C0008091A0018093EA0104C08FE992E00E94F9
:1037D000F10A6DE972E080E694E00E9431056091A3
:1037E00005016F71605C80E694E00E942A056AE939
:1037F00072E080E694E00E943105809105018F71AE
:103800006AE070E090E00E94BF1167E972E080E634
:1038100094E00E9431056AE070E080910701909188
:1038200008010E94BF1163E972E080E694E00E9403
:10383000310580910601813039F0823041F08330CA
:1038400049F483E993E008C081EB91E005C084E688
:1038500093E002C080E090E06AE070E00E94BF1157
:103860006EE872E080E694E00E9431056BE872E059
:1038700080E694E00E943105809104016AE070E0E6
:1038800090E00E94BF1165E872E080E694E00E943B
:1038900031058091FE026AE070E090E00E94BF1165
:1038A00083E892E00E94B01110929F011092A10152
:1038B0001092A0010E940B0B0E94A8139093A301E9
:1038C0008093A2018091A2019091A3010196C1F180
:1038D0008091A2019091A301892BA1F464EB74E083
:1038E00080E694E00E9431058091C60390E00E943A
:1038F000A20A8091C50385FF21C08091C50387FF7F
:1039000010C01CC08091040181111AC061EB74E0E9
:1039100080E694E00E94310584E190E00E94A20AD2
:103920000FC08091C50386FD69C38091C5038F7167
:10393000806C40E060E070E00E9499070E940B0BF1
:103940008091EC018823C1F10E9405078823A1F131
:1039500061E089E00E942A0D68EC70E080E090E070
:103960000E94700E60E089E00E942A0D8BEB94E0CB
:103970000E94F10A4091EB0150E060E070E02AE023
:1039800080E694E00E946A0587EB94E00E94F10AC9
:103990008091EC01813609F433C380E09091EA0113
:1039A000992311F09064892B4091EB0164EA71E056
:1039B0000E9499071092EC014090FF025090000382
:1039C000609001037090020380913D0290913E024D
:1039D000A0913F02B0914002A3019201281B390B34
:1039E0004A0B5B0BDA01C90181369A4EA105B1057C
:1039F00080F04091070160910601809105010E94CD
:103A0000061240923D0250923E0260923F02709236
:103A100040028091390290913A02A0913B02B0910C
:103A20003C02481A590A6A0A7B0A49E8441643E1EB
:103A300054066104710408F4DEC261E089E00E946A
:103A40002A0D62E370E080E090E00E94700E60E07A
:103A500089E00E942A0D81E00E94950D1816190632
:103A60000CF043C080913802882339F18DE992E04F
:103A70000E94EE0E60919D0270919E0280919F02C5
:103A80009091A0020E942222709321026093200252
:103A900020E030E048EC52E46091A9027091AA0263
:103AA0008091AB029091AC020E940F230E942222CF
:103AB00070932702609326021CC08DE992E00E9459
:103AC000AC0D2B013C016091F90270E080E090E0C8
:103AD0000E945A22A30192010E940F230E942222D7
:103AE000709321026093200204C010922102109270
:103AF000200282E00E94950D181619060CF043C0B2
:103B000080913802882339F181E492E00E94EE0E20
:103B1000609141027091420280914302909144026F
:103B20000E942222709323026093220220E030E060
:103B300048EC52E460914D0270914E0280914F0228
:103B4000909150020E940F230E942222709327021C
:103B5000609326021CC081E492E00E94AC0D2B0110
:103B60003C016091F90270E080E090E00E945A22EE
:103B7000A30192010E940F230E942222709323022C
:103B80006093220204C0109223021092220220911C
:103B90002002309121028091220290912302820F13
:103BA000931F909325028093240290913802809174
:103BB0001F0291110DC0882329F18091F90254E66A
:103BC000859FC001112490932702809326021AC07A
:103BD000811118C08DE992E00E94EE0E20E030E0E5
:103BE00048EC52E46091A9027091AA028091AB0264
:103BF0009091AC020E940F230E9422227093270210
:103C00006093260280911E02882309F490C180915E
:103C10000E0590910F050E946B0A40E06CEC8091BC
:103C20000E0590910F050E94180A4091090564E461
:103C300080910E0590910F050E94180A80910B0546
:103C40008823A9F0E0910A05E950E33040F4F0E060
:103C5000EE0FFF1FE35FFE4F6081718102C06EEEC9
:103C600072E0072E000C880B990B0E94700E712CCD
:103C70006624639480911D02781608F058C1C72C01
:103C8000D12C8601B3E0000F111FBA95E1F7035163
:103C90001E4FD8018C91863209F0D0C0ECE1F5E0DE
:103CA000FA83E9831C830B83F7E0FD831E821F8266
:103CB000188619861A861B861C861D861E861F86F8
:103CC000188A198A6E8A1A8A1B8A1C8A1D8A0E947F
:103CD000E20E6A8B7B8B8C8B9D8B1D8110FD03C04C
:103CE000143009F05AC0B701CE0101960E94460C6B
:103CF000882309F494C0898D877F898FB701CE010D
:103D000001960E94B80C61E0012F047012FF60E080
:103D1000CE0101960E94AA0E882309F480C0BE013C
:103D20006B5D7F4FCE0101960E94460C882309F4FB
:103D300076C00023B9F06EA17FA1A3E075956795C9
:103D4000AA95E1F7072E000C880B990B0E945A22C6
:103D500020E030E040E05DE30E940F236E837F832C
:103D6000888799878D8180FF18C069A570E0762FBC
:103D700066276627737088A5682B072E000C880BB2
:103D8000990B0E945A2220E030E048EC52E40E9455
:103D9000B0216A877B878C879D871D8111FF3EC07C
:103DA00012FF03C01625117001C010E0B701CE014B
:103DB00001960E94460C882391F1898D8860898F35
:103DC000B701CE0101960E94B80C612FCE01019679
:103DD0000E94AA0E882319F1BE016B5D7F4FCE01B0
:103DE00001960E94460C8823D1F01123B9F06EA1F0
:103DF0007FA1E3E075956795EA95E1F7072E000C42
:103E0000880B990B0E945A2220E030E040E05DE3ED
:103E10000E940F236E837F83888799871E8A8E89ED
:103E2000811105C02E803F804884598458C0212CC0
:103E3000312C7CE5472E72EC572E51C0883219F098
:103E400069EC7FEF6BC0BE016F5F7F4FC8010E94BE
:103E50000F14882369F12A8130E0C901982F88273F
:103E6000990F990F990F698128E0629FB001112481
:103E70009C01262B372BD8018C918031E1F4688589
:103E800070E08F81FB01E81BF109CF019695982F17
:103E90008827979587950E94A62060517109207FF9
:103EA00053E0220F331F5A95E1F7620F731F04C0CE
:103EB00060E874EE01C0B9016138F4EE7F070CF4DC
:103EC000BFCF072E000C880B990B0E945A2220E0CE
:103ED00030E040E05CE30E940F231B012C0120E056
:103EE00030E04AEF52E4C201B1010E94AB2187FFEA
:103EF000A7CF20E030E04CE552ECC201B1010E94B6
:103F00000A2318160CF09CCF20E030E040E251E488
:103F1000C201B1010E940F230E942222F601EE0F7E
:103F2000FF1FE85DFD4F718360837394A3CE809182
:103F300098018823D1F0F89420919801809134025F
:103F400090913502A0913602B0913702820F911DF7
:103F5000A11DB11D8093340290933502A0933602C7
:103F6000B093370210929801789488E1E0E2F2E091
:103F7000DE01119601900D928A95E1F768EC74E0EC
:103F800080E694E00E9431056091050180E694E0AE
:103F90000E9490138E010F5F1F4F66EC74E080E665
:103FA00094E00E943105D8016D918D0180E694E086
:103FB0000E949013E016F10681F760EC74E080E651
:103FC00094E00E9431050E94AA116AE070E080E04E
:103FD00090E00E94700E8091FF0290910003A091EA
:103FE0000103B09102038093390290933A02A093A7
:103FF0003B02B0933C020E94E80397CA80E899CC48
:1040000080E2CCCC109263041092620488EE93E0BC
:10401000A0E0B0E08093640490936504A0936604EC
:10402000B093670422E231E030936104209360048E
:1040300025EC30E030936D0420936C0424EC30E0E8
:1040400030936F0420936E0420EC30E030937104C1
:104050002093700421EC30E03093730420937204B9
:1040600022EC30E0309375042093740426EC30E0A9
:1040700030937704209376041092790410927A0496
:1040800010927B0410927C04109200051092FF04A1
:104090008093010590930205A0930305B093040556
:1040A00084E391E09093FE048093FD041092310527
:1040B0001092300586E491E090932F0580932E05B1
:1040C000109232051092370510923805109239057A
:1040D00060E084E00E94590DE3E6F5E0E491E093AE
:1040E0001C05EFE4F5E0E491F0E0EE0FFF1FEF5B5D
:1040F000FA4F8591949190931E0580931D0510921F
:1041000027051092290510922805E7E2F5E08FE1D6
:1041100095E012928E179F07E1F786E294E0909364
:104120001B0580931A058CE195E090930F05809311
:104130000E0510920D051092090589E080930A057D
:1041400081E080930B0580930C05089597FB072E63
:1041500016F4009407D077FD09D00E942A2107FCAD
:1041600005D03EF4909581959F4F08957095619587
:104170007F4F0895A1E21A2EAA1BBB1BFD010DC0A3
:10418000AA1FBB1FEE1FFF1FA217B307E407F50707
:1041900020F0A21BB30BE40BF50B661F771F881FE3
:1041A000991F1A9469F760957095809590959B0179
:1041B000AC01BD01CF010895052E97FB1EF40094BC
:1041C0000E94F32057FD07D00E94BA2007FC03D0BD
:1041D0004EF40C94F32050954095309521953F4F27
:1041E0004F4F5F4F089590958095709561957F4FE3
:1041F0008F4F9F4F0895EE0FFF1F0590F491E02D14
:1042000009940E940921332312F48A1B9B0B0C94FE
:104210001A21A29FB001B39FC001A39F700D811D01
:104220001124911DB29F700D811D1124911D0895BF
:104230000E940921B7FF0895821B930B08950E94E5
:104240000921A59F900DB49F900DA49F800D911DF5
:1042500011240895AA1BBB1B51E107C0AA1FBB1F55
:10426000A617B70710F0A61BB70B881F991F5A9502
:10427000A9F780959095BC01CD0108955058BB27B2
:10428000AA270E9456210C94D0220E94C22238F004
:104290000E94C92220F039F49F3F19F426F40C94AF
:1042A000BF220EF4E095E7FB0C94B922E92F0E949F
:1042B000E12258F3BA17620773078407950720F0C5
:1042C00079F4A6F50C9403230EF4E0950B2EBA2F87
:1042D000A02D0B01B90190010C01CA01A00111240C
:1042E000FF27591B99F0593F50F4503E68F11A16B8
:1042F000F040A22F232F342F4427585FF3CF469549
:1043000037952795A795F0405395C9F77EF41F166A
:10431000BA0B620B730B840BBAF09150A1F0FF0F34
:10432000BB1F661F771F881FC2F70EC0BA0F621F20
:10433000731F841F48F4879577956795B795F79510
:104340009E3F08F0B0CF9395880F08F09927EE0FA5
:104350009795879508950E94952208F481E0089525
:104360000E94C4210C94D0220E94C92258F00E94BD
:10437000C22240F029F45F3F29F00C94B922511178
:104380000C9404230C94BF220E94E12268F3992329
:10439000B1F3552391F3951B550BBB27AA27621741
:1043A0007307840738F09F5F5F4F220F331F441F4E
:1043B000AA1FA9F335D00E2E3AF0E0E832D0915082
:1043C0005040E695001CCAF72BD0FE2F29D0660F6F
:1043D000771F881FBB1F261737074807AB07B0E8B2
:1043E00009F0BB0B802DBF01FF2793585F4F3AF0B8
:1043F0009E3F510578F00C94B9220C9404235F3F42
:10440000E4F3983ED4F3869577956795B795F7953D
:104410009F5FC9F7880F911D9695879597F9089525
:10442000E1E0660F771F881FBB1F621773078407C1
:10443000BA0720F0621B730B840BBA0BEE1F88F7D0
:10444000E09508950E9429226894B1110C940423E8
:1044500008950E94E92288F09F5798F0B92F992774
:10446000B751B0F0E1F0660F771F881F991F1AF05F
:10447000BA95C9F714C0B13091F00E940323B1E09E
:1044800008950C940323672F782F8827B85F39F09D
:10449000B93FCCF3869577956795B395D9F73EF4F8
:1044A00090958095709561957F4F8F4F9F4F0895A0
:1044B000E89409C097FB3EF49095809570956195BE
:1044C0007F4F8F4F9F4F9923A9F0F92F96E9BB2774
:1044D0009395F695879577956795B795F111F8CFF0
:1044E000FAF4BB0F11F460FF1BC06F5F7F4F8F4F5B
:1044F0009F4F16C0882311F096E911C0772321F051
:104500009EE8872F762F05C0662371F096E8862FE8
:1045100070E060E02AF09A95660F771F881FDAF73F
:10452000880F9695879597F90895990F0008550F6C
:10453000AA0BE0E8FEEF16161706E807F907C0F029
:1045400012161306E407F50798F0621B730B840B31
:10455000950B39F40A2661F0232B242B252B21F40B
:1045600008950A2609F4A140A6958FEF811D811DAB
:10457000089597F99F6780E870E060E008959FEFE5
:1045800080EC089500240A941616170618060906EA
:10459000089500240A9412161306140605060895B9
:1045A000092E0394000C11F4882352F0BB0F40F441
:1045B000BF2B11F460FF04C06F5F7F4F8F4F9F4F81
:1045C000089557FD9058440F551F59F05F3F71F003
:1045D0004795880F97FB991F61F09F3F79F087956A
:1045E0000895121613061406551FF2CF4695F1DFF3
:1045F00008C0161617061806991FF1CF8695710583
:10460000610508940895E894BB2766277727CB01B6
:1046100097F908950E94952208F48FEF08950E945B
:1046200022230C94D0220E94C22238F00E94C92278
:1046300020F0952311F00C94B9220C94BF22112480
:104640000C9404230E94E12270F3959FC1F3950F0F
:1046500050E0551F629FF001729FBB27F00DB11D06
:10466000639FAA27F00DB11DAA1F649F6627B00D96
:10467000A11D661F829F2227B00DA11D621F739F7F
:10468000B00DA11D621F839FA00D611D221F749F8D
:104690003327A00D611D231F849F600D211D822FD4
:1046A000762F6A2F11249F5750409AF0F1F08823FB
:1046B0004AF0EE0FFF1FBB1F661F771F881F915028
:1046C0005040A9F79E3F510580F00C94B9220C94FC
:1046D00004235F3FE4F3983ED4F38695779567957E
:1046E000B795F795E7959F5FC1F7FE2B880F911D52
:1046F0009695879597F9089519F416F40C94BF22AE
:104700000C94C7230E94E922B8F39923C9F3B6F3A6
:104710009F57550B87FF0E94D5230024A0E640EA4F
:10472000900180585695979528F4805C660F771F06
:10473000881F20F026173707480730F4621B730BD9
:10474000840B202931294A2BA695179407942025FC
:1047500031254A2758F7660F771F881F20F0261744
:104760003707480730F4620B730B840B200D311DA3
:10477000411DA09581F7B901842F9158880F969516
:10478000879508950E949522880B990B08959F3F65
:1047900031F0915020F4879577956795B795880FFC
:1047A000911D9695879597F9089591505040660F01
:1047B000771F881FD2F7089581E090E0F8940C9459
:0647C000E123F894FFCF95
:1047C60027003F00010501D200E502E5025E00BCBC
:1047D60000770100004000140054002B565A0000D8
:1047E60000007903E6021003C60341031F033303E7
:1047F600000000007F045204AF0426044A04360475
:104806002704000000005008E602AF04AE040000D2
:104816000000B204E602AF04AE044C4344206E6FBF
:104826007420666F756E64004C434420666F756E27
:10483600642069326320307800446574656374656A
:104846006420002043542773006E616E00696E6613
:08485600006F7666000D0A00F8
:00000001FF
