:100000000C94F5010C94601C0C948D1C0C941D0236
:100010000C941D020C941D020C943F020C941D02C2
:100020000C941D020C941D020C941D020C941D02D4
:100030000C941D020C941D020C941D020C941D02C4
:100040000C940C1A0C941D020C94BA1C0C94EC1C0D
:100050000C941D020C941D020C941D020C941D02A4
:100060000C94BA170C941D02BC085508C708C708A1
:10007000C708C7087908C7084108C708C708C708DC
:10008000C708C708C7089308C708C708BC08C70837
:10009000C708A50820620A00202D3E20000A4176EC
:1000A00061696C61626C6520636F6D6D616E647314
:1000B0003A0A20203C6E6E3E206920202020202D10
:1000C00020736574206E6F64652049447320287323
:1000D00074616E64617264206E6F6465206964731C
:1000E0002061726520312E2E3330290A20203C6E8B
:1000F0003E20622020202020202D20736574204D7A
:10010000487A2062616E64202834203D20343333E5
:100110002C2038203D203836382C2039203D2039FD
:100120003135290A20203C6E6E6E3E20672020204B
:10013000202D20736574206E6574776F726B206755
:10014000726F7570202852464D3132206F6E6C7977
:1001500020616C6C6F7773203231322C2030203D5F
:1001600020616E79290A20203C6E3E2063202020E9
:100170002020202D2073657420636F6C6C65637480
:10018000206D6F64652028616476616E6365642C00
:10019000206E6F726D616C6C792030290A20202EE0
:1001A0002E2E2C3C6E6E3E2061202D2073656E64D9
:1001B0002064617461207061636B657420746F20CA
:1001C0006E6F6465203C6E6E3E2C207265717565A5
:1001D00073742061636B0A20202E2E2E2C3C6E6ED1
:1001E0003E2073202D2073656E642064617461204D
:1001F0007061636B657420746F206E6F6465203C62
:100200006E6E3E2C206E6F2061636B0A20202E2EB6
:100210002E2C3C6E3E207020202D205365742041F2
:10022000432041646170746572205663616C2031B3
:1002300070203D20554B2C203270203D20555341DD
:100240000A202076202020202020202020202D2061
:1002500053686F77206669726D7761726520766585
:100260007273696F6E0A00010402000302048A05BA
:100270000506C30B2019421E2C25802E882F2D37F2
:100280000038003C8F3D106F2000005EBCE2613FF3
:10029000DD83C29C7E20A3FD1F419DC3217FFCA264
:1002A000401E5F01E3BD3E6082DC237D9FC1421C96
:1002B000FEA0E1BF5D0380DE3C62BEE0025CDF8148
:1002C000633D7C22C09E1D43A1FF4618FAA42779F6
:1002D0009BC584DA3866E5BB5907DB856739BAE424
:1002E00006581947A5FB7826C49A653BD987045A56
:1002F000B8E6A7F91B45C6987A24F8A6441A99C708
:10030000257B3A6486D85B05E7B98CD2306EEDB3B5
:10031000510F4E10F2AC2F7193CD114FADF3702EE3
:10032000CC92D38D6F31B2EC0E50AFF1134DCE9015
:10033000722C6D33D18F0C52B0EE326C8ED0530DC7
:10034000EFB1F0AE4C1291CF2D73CA947628ABF575
:1003500017490856B4EA6937D58B5709EBB53668A3
:100360008AD495CB2977F4AA4816E9B7550B88D6D5
:10037000346A2B7597C94A14F6A8742AC896154B87
:10038000A9F7B6E80A54D7896B35000000080002C7
:10039000010000030407000000000000000001024B
:1003A0000408102040800102040810200102040803
:1003B00010200404040404040404020202020202E1
:1003C00003030303030300000000230026002900A9
:1003D00000000000250028002B0000000000240081
:1003E00027002A00A6071C171C1D11241FBECFEFD3
:1003F000D8E0DEBFCDBF13E0A0E0B1E0EAECF7E467
:1004000002C005900D92A235B107D9F726E0A2E50A
:10041000B3E001C01D92A73AB207E1F713E0CAEEBC
:10042000D3E004C02297FE010E94B623C43ED10748
:10043000C9F70E94A91F0C94E3230C94000080913B
:10044000A6038F5F8093A60308951F93CF93DF9336
:10045000EC01FE011491112371F01A3029F46DE0C2
:100460008AE096E00E949F1D612F8AE096E00E943C
:100470009F1D2196EECFDF91CF911F9108951F927E
:100480000F920FB60F9211242F933F934F935F93C8
:100490006F937F938F939F93AF93BF93EF93FF934C
:1004A0000E94000BFF91EF91BF91AF919F918F91AF
:1004B0007F916F915F914F913F912F910F900FBE60
:1004C0000F901F90189561E089E00E94541B62E331
:1004D00070E080E090E00E94851A60E089E00C9472
:1004E000541B61E089E00E94541B69E170E080E0E8
:1004F00090E00E94851A60E089E00E94541B61E050
:1005000089E00E94541B69E170E080E090E00E9465
:10051000851A60E089E00C94541BCF93DF936AE066
:1005200070E080E090E00E94851A20E436E040917F
:10053000060160910901809108010E94530ACAE0F6
:10054000D0E0D093BA03C093B90344E169EB73E000
:1005500080E00E94C20A64E670E080E090E00E94C1
:10056000851A219770F782E00E94E10A1092BA037F
:100570001092B903DF91CF910895FF920F931F93CB
:10058000CF93DF938091A2039091A303A091A40342
:10059000B091A503409152035091530360915403CD
:1005A000709155038C019D01041B150B260B370B15
:1005B000B901A801413C57426105710590F0809353
:1005C000520390935303A0935403B093550320E434
:1005D00036E04091060160910901809108010E9476
:1005E000530A0E94AC0A882309F461C0F090E70422
:1005F00080912D0590912E05892B09F059C068E155
:1006000071E08AE096E00E949D1D67E472E08AE056
:1006100096E00E949D1D6091E6046F7170E04AE0D3
:1006200050E08AE096E00E946F1E67E472E08AE084
:1006300096E00E949D1D08EE14E0E8018C2F801BBF
:100640008F1570F4699170E04AE050E08AE096E01E
:100650000E94A31E60E28AE096E00E949F1DEECFFA
:100660006BE171E08AE096E00E949D1D6091340587
:1006700070E0759567957195619571094AE050E054
:100680008AE096E00E946F1E68ED72E08AE096E0D4
:100690000E949D1D8AE096E00E94A61D8091E604BE
:1006A00085FF1BC08091E60487FF04C016C019C0F7
:1006B00080E017C06DE171E08AE096E00E949D1D28
:1006C0008091E60486FD0BC08091E6048F71806CFA
:1006D00040E060E070E00E94C00A81E002C080E873
:1006E000F7CFDF91CF911F910F91FF9008958091E7
:1006F00058038823D1F10E94BE0A811101C00895D8
:1007000061E089E00E94541B68EC70E080E090E0BA
:100710000E94851A60E089E00E94541B88E990E0FD
:100720000E94250260915A0370E04AE050E08AE09E
:1007300096E00E94A31E84E990E00E942502809129
:100740005803813681F080E090915903992311F08C
:100750009064892B40915A036CE573E00E94C00AB3
:1007600010925803089580E2EFCF089580E294E05C
:100770000E940A1A80E294E00E94101965E271E07A
:1007800080E294E00E949D1D22E030E043E353E3C9
:1007900063EB7FE380E294E00E94941F41E060E01D
:1007A00080E294E00E9471196EE271E080E294E0D0
:1007B0000C949D1D80E294E00E9463196CE371E04B
:1007C0008AE096E00E949D1D22E030E04DEC5CEC5A
:1007D00065EB72E48AE096E00E94961F67E471E0A0
:1007E0008AE096E00E949D1D22E030E04DEC5CEC3A
:1007F00065EB72E48AE096E00E94961F62E571E084
:100800008AE096E00E949D1D4091B1035091B20391
:100810006091B3037091B40322E030E08AE096E087
:100820000E94941F6CE271E08AE096E00E94BA1D7B
:100830008091AE03882309F44FC06CE571E080E23B
:1008400094E00E949D1D6DE671E08AE096E00E94B2
:10085000BA1D80911F04882331F068E971E08AE0B5
:1008600096E00E949D1D64EA71E08AE096E00E9495
:100870009D1D4091B5035091B6036091B7037091EF
:10088000B80322E030E08AE096E00E94961F6BEA0F
:1008900071E08AE096E00E949D1D4AE050E0609180
:1008A000AB038AE096E00E949C1E6CE271E08AE055
:1008B00096E00E94BA1D62EB71E08AE096E00E9429
:1008C0009D1D22E030E04AE959E969ED7FE38AE0C5
:1008D00096E00E94961F2AC060EC71E080E294E0EE
:1008E0000E949D1D60ED71E08AE096E00E94BA1DB5
:1008F00080911F04882331F06EEF71E08AE096E06A
:100900000E94BA1D67E072E08AE096E00E949D1D99
:100910004AE050E06091AB038AE096E00E949C1EA2
:100920006CE271E08AE096E00E94BA1D41E060E06E
:1009300080E294E00E94711967E172E080E294E045
:100940000E949D1D8091AC03811109C061E272E09B
:100950008AE096E00E94BA1D60E372E01CC08091BC
:10096000B003882361F068E372E08AE096E00E94B9
:10097000BA1D64E472E080E294E00E949D1D8091C3
:10098000AF03882361F069E472E08AE096E00E9498
:10099000BA1D65E572E080E294E00E949D1D60ED65
:1009A00077E080E090E00E94851A8091AD03882373
:1009B00089F069E572E08AE096E00E949D1D4AE0B8
:1009C00050E06091CD038AE096E00E949C1E61E6B3
:1009D00072E002C062E872E08AE096E00E94BA1D0E
:1009E00080E294E00E9463196AE672E080E294E09B
:1009F0000E949D1D4AE050E06091CD0380E294E0AA
:100A00000E949C1E41E060E080E294E00E94711927
:100A100065E772E080E294E00E949D1D80910A01EA
:100A2000882309F44CC065E972E08AE096E00E94F0
:100A3000BA1D64EA72E08AE096E00E949D1D4AE0D9
:100A400050E0609108018AE096E00E949C1E6AEAEC
:100A500072E08AE096E00E949D1D8091090181303C
:100A600031F461EB72E08AE096E00E949D1D809176
:100A70000901823031F468EB72E08AE096E00E946E
:100A80009D1D80910901833031F46FEB72E08AE0A3
:100A900096E00E949D1D66EC72E08AE096E00E945E
:100AA0009D1D60910601709107014AE050E08AE0C7
:100AB00096E00E94771E8DE990E00E94250264E195
:100AC00070E080E090E00C94851AEF92FF920F9313
:100AD0001F93CF93DF93CDB7DEB764970FB6F8942B
:100AE000DEBF0FBECDBF84E1E9EBF3E0DE0111967E
:100AF00001900D928A95E1F760ED72E08AE096E050
:100B00000E949D1D4AE050E0609108018AE096E055
:100B10000E949C1E8E010F5F1F4F7E0185E1E80E33
:100B2000F11C60E28AE096E00E949F1DF80161914D
:100B30008F014AE050E08AE096E00E949C1E0E156C
:100B40001F0579F764ED72E08AE096E00E949D1D32
:100B50008AE096E00E94A61D6AE070E080E090E0E6
:100B600064960FB6F894DEBF0FBECDBFDF91CF9174
:100B70001F910F91FF90EF900C94851ACF92DF9206
:100B8000EF92FF920F931F93CF93DF93EB0100E05F
:100B900010E0C12CD12C76010C171D077CF480E0ED
:100BA0000E94B31BDC01B2509D010E94BA23C60E05
:100BB000D71EE81EF91E0F5F1F4FEECFC701B6010B
:100BC0000E94FF216B017C01BE01882777FD809583
:100BD000982F0E9401229B01AC01C701B6010E941F
:100BE0006621DF91CF911F910F91FF90EF90DF90E1
:100BF000CF900C941C2361E089E00E941B1B61E0F4
:100C000089E00E94541B62E088E00E941B1B61E0A7
:100C100085E00E941B1B60E085E00E94541B60E0A1
:100C200083E00E941B1B26E040E056E960E070E094
:100C30008AE096E00E949B2065E271E08AE096E0FF
:100C40000E949D1D22E030E043E353E363EB7FE32A
:100C50008AE096E00E94961F6AED72E08AE096E0D4
:100C60000E94BA1D60EF72E08AE096E00C94BA1D13
:100C700081E00E94B31B181619064CF481E08093A2
:100C8000B0038091AC038F5F8093AC0302C01092DD
:100C9000B00382E00E94B31B181619064CF481E0E1
:100CA0008093AF038091AC038F5F8093AC0302C04D
:100CB0001092AF038091AC03811103C081E0809357
:100CC000B00360E089E00E94541B61E08EE00E9466
:100CD0001B1B6FEF70E08EE00E94D01B60E070E0A5
:100CE0008EE00E94D01B60E08EE00E941B1B64EF30
:100CF00071E080E090E00E94851A64EF76E080E089
:100D000090E00E94BE0522E538EB4EE55FE30E94CD
:100D1000B5226093B1037093B2038093B3039093B1
:100D2000B40320E030E044EB52E40E94B1221816F4
:100D300024F481E08093AE0308951092AE030895E9
:100D4000CF938EEF93E00E9495148EEF93E00E9474
:100D50000E138093CD03C0E08091CD03C81760F4DB
:100D600088E0C89FB001112462537C4F81E194E078
:100D70000E945A12811123C0C0E08091CD03C81790
:100D800068F488E0C89FB001112462537C4F4CE0A6
:100D90008EEF93E00E941F14CF5FEFCF811103C04D
:100DA0001092AD0308C091E09093AD03873018F026
:100DB00086E08093CD038091CD03CF910895CF5FDE
:100DC000CBCFEF92FF920F931F9364E670E080E029
:100DD00090E00E94851A80911F04882371F080E0C2
:100DE00090E0A2E0B3E48093B5039093B603A093A0
:100DF000B703B093B8038EE611C080910B019091B8
:100E00000C01A0910D01B0910E018093B503909358
:100E1000B603A093B703B093B80386EE8093AB03F9
:100E20000E94FB0580910A0181110E948D020E949F
:100E3000A0060E94B6036CED75E080E090E00E9491
:100E4000851A0E9438060E94DA038091AD03811151
:100E500007C042E050E06FE172E081E00E94301C88
:100E60001092BE031092BD032DEC3CEC45EB52E416
:100E700061E070E088E894E00E941A0D2DEC3CECF3
:100E800045EB52E462E070E08CE294E00E941A0DBF
:100E90008091AE03882311F12091B5033091B60300
:100EA0004091B7035091B8031AE9E12E19E9F12EE8
:100EB00009ED1FE360E070E088E894E00E94FE0C1A
:100EC0002091B5033091B6034091B7035091B80318
:100ED00060E070E08CE294E00E94FE0C1F910F91A4
:100EE000FF90EF900895CF92DF92EF92FF9298E0FB
:100EF000899FB001112462537C4F8EEF93E00E94D2
:100F00002B166B017C0120E030E04AEF52E40E9496
:100F1000622187FF16C020E030E04CE552ECC701AB
:100F2000B6010E94B122181664F420E030E040E2DD
:100F300051E4C701B6010E94B5220E94CE21CB0127
:100F400000C0FF90EF90DF90CF90089522E040E145
:100F500067E280E294E00E94E71864E081E194E0B7
:100F60000E94371261E174E08EEF93E00C94FF125F
:100F7000CF92DF92EF92FF92CF930E94561A609326
:100F8000A2037093A3038093A4039093A50380917D
:100F90001F04882371F080E090E0A2E0B3E4809326
:100FA000B5039093B603A093B703B093B8038EE64E
:100FB00011C080910B0190910C01A0910D01B09195
:100FC0000E018093B5039093B603A093B703B0933B
:100FD000B80386EE8093AB0388E00E948A1B892BBE
:100FE00011F461E001C060E085E00E94541B8AE0DA
:100FF00096E00E94B81F892B09F441C18AE096E06F
:101000000E94D11F90ED980F9A30A8F4409156039A
:10101000509157039AE0949F9001959F300D1124B1
:1010200020533109280F311D87FD3A95309357031E
:101030002093560322C18C3281F4E0915B03E634A5
:1010400008F017C181E08E0F80935B03F0E0E45A53
:10105000FC4F8091560380830CC181320CF407C190
:10106000482F552747FD5095652F752FFA01E156FA
:10107000F109E631F10508F08AC0EC5CFF4F0C94F1
:10108000B4238091560390915703009771F0809399
:10109000080120910A01222309F47DC020E436E0F2
:1010A00040910601609109013BC080915603843054
:1010B00031F0883031F0893031F463E005C061E00F
:1010C00003C062E001C060E0862F90E09093570378
:1010D00080935603892B09F45EC0609309018091C7
:1010E0000A01882309F457C020E436E04091060144
:1010F00015C040915603509157034115510509F40D
:101100004AC0509307014093060180910A01882349
:1011100009F441C020E436E06091090180910801A2
:101120000E94530A38C0809156039091570300974C
:1011300091F18130910519F410921F042CC002978F
:1011400051F581E080931F0426C06BEF72E08AE0C6
:1011500096E00E949D1D22E030E043E353E363EB01
:101160007FE38AE096E00E94941F64E073E08AE0E7
:1011700096E00E949D1D0FC08093580380915B03F1
:1011800080935A03809156038093590304C08DE9DC
:1011900090E00E94250280910A01882309F452C040
:1011A00060E28AE096E00E949F1D609108016F71E5
:1011B000605C8AE096E00E949F1D66E073E08AE032
:1011C00096E00E949D1D609108016F7170E04AE0F9
:1011D00050E08AE096E00E946F1E69E073E08AE0CA
:1011E00096E00E949D1D60910601709107014AE002
:1011F00050E08AE096E00E946F1E6CE073E08AE0A7
:1012000096E00E949D1D80910901813039F0823065
:1012100041F0833049F463E973E008C061EB71E0A9
:1012200005C064E673E002C060E070E04AE050E0B0
:101230008AE096E00E946F1E60E173E08AE096E02B
:101240000E949D1D65E173E08AE096E00E949D1D6D
:1012500060911F0470E04AE050E08AE096E00E944E
:101260006F1E67E472E08AE096E00E94BA1D109259
:101270005B0310925703109256030E9471028091F3
:101280000A01882339F00E94BD0281110E94710277
:101290000E9477038091A2039091A303A091A403DD
:1012A000B091A5034091A7035091A8036091A903B1
:1012B0007091AA03841B950BA60BB70B8938934139
:1012C000A105B10508F4E9C00E9463028091AE0354
:1012D000882359F140ED57E064E170E088E894E03C
:1012E0000E94510D609188047091890480918A0454
:1012F00090918B040E94CE217093BA036093B9033E
:1013000020E030E048EC52E4609194047091950440
:1013100080919604909197040E94B5220E94CE215C
:101320007093C0036093BF0324C068EC75E088E845
:1013300094E00E9422106B017C01C091AB036C2FE2
:1013400070E080E090E00E9401229B01AC01C701A7
:10135000B6010E94B5220E94CE217093BA03609319
:10136000B90324E6C29FC00111249093C003809367
:10137000BF038091AE03882359F140ED57E064E14B
:1013800070E08CE294E00E94510D60912C04709109
:101390002D0480912E0490912F040E94CE217093F1
:1013A000BC036093BB0320E030E048EC52E4609162
:1013B00038047091390480913A0490913B040E9462
:1013C000B5220E94CE217093C0036093BF0324C056
:1013D00068EC75E08CE294E00E9422106B017C01C5
:1013E000C091AB036C2F70E080E090E00E9401227E
:1013F0009B01AC01C701B6010E94B5220E94CE211B
:101400007093BC036093BB0324E6C29FC001112408
:101410009093C0038093BF038091AD03811115C0E9
:101420008091A603882339F1F8942091A603809136
:10143000BD039091BE03820F911D9093BE038093D4
:10144000BD031092A603789416C08EEF93E00E941D
:101450006715F12C8091CD03F81610F78F2D0E949F
:101460007307EF2DF0E0EE0FFF1FEF53FC4F91835A
:101470008083F394EFCF0E9465058091A203909141
:10148000A303A091A403B091A5038093A703909315
:10149000A803A093A903B093AA03CF91FF90EF9064
:1014A000DF90CF900895CF92DF92EF92FF921F933B
:1014B000CF93DF93C82F162FD42FF901AFEFA60FCC
:1014C000A33028F4B0E0A55EBC4FAC9101C0A0E011
:1014D000B0E020E836E948E950E00E94D8236B01EB
:1014E0007C01212F30E0A4ECB9E00E94C223DF018F
:1014F0009B01AC010E94D823C60ED71EE81EF91E20
:10150000C701B6010E94460BD09338058C2F8F710E
:101510008093370564E170E080E090E00E94851AD6
:1015200080913705882341F043E050E061EA7CE098
:1015300080E00E94301C03C080E00E94501C0E948A
:101540007B0BC093E4048C2FDF91CF911F91FF9010
:10155000EF90DF90CF90089585EE94E00E94D40B39
:1015600090932E0580932D0520912D0530912E0509
:1015700081E02F3F3F4F09F480E008950C94630B06
:101580000C942D0CEF92FF921F93CF93DF931F9239
:10159000CDB7DEB7182F7B0149830E94630B4981C9
:1015A000811105C049830E94AC0A4981F5CFB7017A
:1015B000812F0F90DF91CF911F91FF90EF900C94AE
:1015C0002D0CCF93C82F0E94740B8823B9F0CC2325
:1015D000D1F383B7817FC33021F0C23021F49CE086
:1015E00003C094E001C090E0892B83BF83B7816082
:1015F00083BF889583B78E7F83BFE5CFCF91089552
:1016000080912F058F5F80932F0508958627682F7F
:1016100062956827062E669566956025062E669566
:1016200060256770082E892F669507946795902D21
:10163000862706946795902586270895E8982A9826
:101640008EBD0DB407FEFDCF8EB56EBD0DB407FE89
:10165000FDCF8EB52A9AE89A089560E00C941E0B8F
:1016600088E20E942D0B807521F080E00E942D0BF6
:10167000F7CF0895CF93C82F81E00E942D0B682FDC
:10168000637E6C2B81E8CF910C941E0B22E0660FD9
:10169000771F881F991F2A95D1F729E03DE340E085
:1016A00050E00E94732366E0220F331F441F551F32
:1016B0006A95D1F72093390530933A0540933B055D
:1016C00050933C05089580913205853021F4809136
:1016D0003305882311F080E0089584E0809332057B
:1016E0000E943A0B81E008959091320581E0943098
:1016F0000CF080E00895CF93DF932A9A229A2A9AD9
:1017000084B18C6284B980E58CBD8DB581608DBD5E
:101710006AEA8FEA0E941E0B8FE20E942D0B8A3A22
:10172000B9F765E58FEA0E941E0B8FE20E942D0B30
:101730008535B9F7C7E6D2E0FE018491882339F0F8
:101740003196649180680E941E0B2296F5CF6091BD
:10175000380580EB0E941E0B8091390590913A0567
:10176000A0913B05B0913C05BD018827992787E8EA
:101770000E941E0B8091390590913A05A0913B057E
:10178000B0913C05692F7A2F8B2F992788E80E940A
:101790001E0B6091390589E80E941E0B84E080933E
:1017A0003205DF91CF910895CF93DF93EC018091C3
:1017B0003205843019F08530E1F045C01092E7041D
:1017C00010923305609138058FEF9FEF0E94060B52
:1017D0009093360580933505D0933105C09330053D
:1017E00085E0809332050E94300B80E10E943A0B25
:1017F0002AC08091E7042091330590E0049630E000
:101800008217930724F0809133058834E0F084E058
:10181000809332050E943A0B8091E704833430F0C4
:1018200081E090E090933605809335058091E60441
:1018300086FF0CC0909137059F3141F08091E604FE
:101840008F71891719F08FEF9FEF04C080913505D4
:1018500090913605DF91CF910895CF934093E7049F
:10186000FB0120E030E050E02417350744F4D901B3
:10187000A851BB4F91919C932F5F3F4FF5CF86FDB1
:1018800004C0807E90913705890F8093E6046091B3
:1018900038058FEF9FEF0E94060B909336058093DB
:1018A00035059091E7048EEF891B809332050E94E5
:1018B000300B8CE00E943A0B60E085EA0E941E0B20
:1018C000809132058330DCF588E20E942D0B87FD84
:1018D000F7CF8091320587FF1BC09091E70480917C
:1018E0003205E0913005F0913105E90FF11DE80F67
:1018F000F11D87FDFA95C3816C2F8091350590917C
:1019000036050E94060B90933605809335050DC071
:1019100080913205882329F0813031F4C091360559
:1019200004C0C091350501C0CAEA6C2F80E80E944E
:101930001E0B809132058F5F80933205C1CFCF910E
:10194000089580913205853009F049C084E20E94F3
:101950002D0B80933405789488E20E942D0B8075BE
:10196000D9F38091330581110FC0E0913005F091DA
:1019700031058091330591E0980F90933305909154
:101980003805E80FF11D908380E00E942D0BE09157
:101990003005F09131059091330521E0290F209316
:1019A0003305E90FF11D8083682F809135059091F3
:1019B00036050E94060B909336058093350580917D
:1019C000E7042091330590E0049630E082179307F6
:1019D000A4F080913305883408F4BECF089588E2DE
:1019E0000E942D0B83FF09C084E0809332050E9482
:1019F0003A0B60E885EA0C941E0B0895EF92FF9273
:101A00000F931F93FC01758B648B208F318F428F56
:101A1000538FE0A2F1A202A313A340E050E060E0E4
:101A200074E444AB55AB66AB77AB1F910F91FF905D
:101A3000EF900895FC01778B668B248F358F468F4E
:101A4000578F40E050E060E074E440AF51AF62AFC8
:101A500073AF08958EE480937C0062E070E080E0D4
:101A600090E00E94851A80917A00806480937A00C9
:101A700080917A0086FDFCCF8091780020917900DA
:101A800030E0322F2227442737FD4095542F282B52
:101A900060E070E381E190E00E949523CA01B90102
:101AA00008952F923F924F925F926F927F928F9202
:101AB0009F92AF92BF92CF92DF92EF92FF920F93DD
:101AC0001F93CF93DF93CDB7DEB7A8970FB6F894E7
:101AD000DEBF0FBECDBF98A78FA37E8F6D8F8A010B
:101AE0000E942A0D6D8B7E8B8F8B988F0E94561AC9
:101AF0004B015C016FA078A428E5620E711CC8013F
:101B0000A0E0B0E0898B9A8BAB8BBC8BAFA1B8A562
:101B100054968C910E94B31BF30191838083BC0186
:101B2000882777FD8095982F0E9401226B017C0108
:101B30002DEC3CEC4CE054E40E94622187FF0BC08A
:101B400011E026E636E646EE53E4C701B6010E94F0
:101B5000B12218160CF010E00E94561A6819790983
:101B60008A099B0929893A894B895C892617370795
:101B70004807590708F040C00E94561A698F7A8FAB
:101B80008B8F9C8F00E010E01A8219824FA158A51C
:101B9000405C5F4F58A34F8F8FA198A58C5B9F4FE0
:101BA0009C878B87AFA1B8A5A85BBF4FBAA3A9A399
:101BB000EFA1F8A5E45BFF4FFE87ED872FA138A5C5
:101BC000205B3F4F3CA32BA34FA158A54C5A5F4F1E
:101BD000588B4F878FA198A5865A9F4F9E838D83E0
:101BE0002FA038A49BE5290E311CAFA1B8A5A85A97
:101BF000BF4FBEA3ADA344C1112309F487CFBCCF0F
:101C00000E94561A298D3A8D4B8D5C8D621B730B89
:101C1000840B950B29893A894B895C896217730774
:101C20008407950708F034C10F5F1F4FEFA1F8A597
:101C300084A595A5A6A5B7A580A791A7A2A7B3A798
:101C400084890E94B31BAFA1B8A595969C938E93EF
:101C5000949756968C910E94B31B3C01EFA1F8A576
:101C600097A386A324A135A13A872987B90188279C
:101C700077FD8095982F0E9401226B017C01AFA116
:101C8000B8A5D4968D909D90AD90BC90D797A501A6
:101C900094010E94FD2020E030E040E85AE30E94D9
:101CA000B5229B01AC01C501B4010E94FE209B013D
:101CB000AC01EFA1F8A564AB75AB86AB97ABC701E0
:101CC000B6010E94FD204B015C01AFA1B8A59C9616
:101CD0006D937D938D939C939F97B301882777FD98
:101CE0008095982F0E9401226B017C01EFA1F8A53D
:101CF00040AC51AC62AC73ACA30192010E94FD20D8
:101D000020E030E040E85AE30E94B5229B01AC019C
:101D1000C301B2010E94FE209B01AC01AFA1B8A596
:101D2000D8966D937D938D939C93DB97C701B601F5
:101D30000E94FD206B017C01EFA1F8A560AB71ABA7
:101D400082AB93ABA5019401C501B4010E94B522F9
:101D50009B01AC01AF8DB8A16D937D938D939C9346
:101D60001397EB85FC8560817181828193810E944C
:101D7000FE20AB85BC856D937D938D939C931397CB
:101D8000A7019601C701B6010E94B5229B01AC01D3
:101D9000E9A1FAA16083718382839383AD85BE85B7
:101DA0006D917D918D919C910E94FE20ED85FE8527
:101DB0006083718382839383AFA1B8A598964D9079
:101DC0005D906D907C909B97A3019201C501B40139
:101DD0000E94FD20EFA1F8A520A131A142A153A1AD
:101DE0000E94B5229B01AC01C301B2010E94FE20FA
:101DF000AFA1B8A5DC966D937D938D939C93DF97EF
:101E0000A70196010E94B5229B01AC01EBA1FCA1A8
:101E10006083718382839383AF85B8896D917D914F
:101E20008D919C910E94FE20EF85F88960837183DB
:101E300082839383D1018C91ED81FE818083ADA15A
:101E4000BEA18D919C91E985FA858E179F070CF0B4
:101E5000F6C021E0F10120830130110529F4F101E0
:101E60008081AD81BE818C93ED81FE819081D10115
:101E70008C91981729F0E981FA813196FA83E983E8
:101E800029813A814D8D5E8D2417350708F4B8CE2F
:101E9000AD89BE89BD01882777FD8095982F0E9466
:101EA000012220E030E04AE754E40E94662120E06D
:101EB00030E040E85AE30E94B5222B013C01EFA13B
:101EC000F8A5208D318D428D538D0E94B5224B0196
:101ED0005C01B80180E090E00E94FF216B017C0171
:101EE0002FA038A4F4E42F0E311C9B01AC01D101CA
:101EF0006D917D918D919C910E9466210E941C2381
:101F00009B01AC01C501B4010E94B52269837A83AB
:101F10008B839C83EFA1F8A5648775878687978755
:101F2000248D358D468D578DC301B2010E94B52297
:101F30002B013C010FA118A5045B1F4FA7019601BF
:101F4000D8016D917D918D919C910E9466210E9496
:101F50001C239B01AC01C301B2010E94B5226D8319
:101F60007E838F839887EFA1F8A5608B718B828B1E
:101F7000938BA3019201C501B4010E94B522AFA0C9
:101F8000B8A4F4E5AF0EB11CD5012D913D914D9152
:101F90005C910E94B522A70196010E9466216B0107
:101FA0007C01EFA1F8A560837183828393832D81E7
:101FB0003E814F81588569817A818B819C810E9405
:101FC000B5229B01AC01AFA1B8A514966D937D938A
:101FD0008D939C931797C701B6010E946621EFA1CC
:101FE000F8A56087718782879387D1011D921D9222
:101FF0001D921C921397F801108211821282138293
:10200000D5011D921D921D921C921397A8960FB692
:10201000F894DEBF0FBECDBFDF91CF911F910F911E
:10202000FF90EF90DF90CF90BF90AF909F908F90F8
:102030007F906F905F904F903F902F900895D101C7
:102040001C920ACF2F923F924F925F926F927F9293
:102050008F929F92AF92BF92CF92DF92EF92FF92B8
:102060000F931F93CF93DF9300D000D000D0CDB754
:10207000DEB79E838D837A8369830E942A0D2B01AC
:102080003C0100E010E08D819E81845B9F4F1C012C
:10209000ED81FE81E85BFF4FFC83EB8389819A81B0
:1020A0000817190709F455C0ED81FE8186890E9441
:1020B000B31BED81FE8197A386A3BC01882777FD22
:1020C0008095982F0E9401226B017C01ED81FE8199
:1020D00080AC91ACA2ACB3ACA50194010E94FD20F0
:1020E00020E030E040E85AE30E94B5229B01AC01B9
:1020F000C501B4010E94FE209B01AC01ED81FE816F
:1021000060AF71AF82AF93AFC701B6010E94FD20EF
:10211000ED81FE8160AB71AB82AB93AB9B01AC01F7
:102120000E94B5229B01AC01EB81FC81608371832D
:1021300082839383F10160817181828193810E9406
:10214000FE20F10160837183828393830F5F1F4FB1
:10215000A5CFB80180E090E00E94FF219B01AC0177
:10216000F10160817181828193810E9466210E94C8
:102170001C236B017C01B201882777FD8095982F85
:102180000E94012220E030E04AE754E40E946621E8
:1021900020E030E040E85AE30E94B522ED81FE8164
:1021A000248D358D468D578D0E94B522A70196014D
:1021B0000E94B522ED81FE81608B718B828B938BA7
:1021C000F101108211821282138226960FB6F894C2
:1021D000DEBF0FBECDBFDF91CF911F910F91FF905A
:1021E000EF90DF90CF90BF90AF909F908F907F90B7
:1021F0006F905F904F903F902F900895FF920F93B4
:102200001F93CF93DF93FC010081C181D281F894A9
:102210008981F02EF0948F21898378941DE71150E5
:1022200029F182E090E00E94AD1A88818023B9F301
:10223000F8948A818F218A838981802B898378947D
:1022400080EE91E00E94AD1AF89489818F218983F4
:1022500086E490E00E94AD1A8881802311E009F0A5
:1022600010E078948AE991E00E94AD1A812FDF9105
:10227000CF911F910F91FF9008951F93CF93DF93FC
:10228000FC011081C181D281912F909560FF12C015
:10229000F8948A8189238A838981812B89838AE0C2
:1022A00090E00E94AD1A8A81812B8A83789487E31B
:1022B00090E011C0F8948A8189238A838981812BD7
:1022C000898381E490E00E94AD1A8A81812B8A8300
:1022D000789485E090E0DF91CF911F910C94AD1A36
:1022E0000F931F93CF93DF93FC011081C181D281A3
:1022F000F8948981812B89838A81012F009580231D
:102300008A8383E090E00E94AD1A898180238983CB
:102310008AE090E00E94AD1AC881789485E390E04D
:102320000E94AD1A1C2381E009F480E0DF91CF9177
:102330001F910F910895CF92DF92EF92FF920F932A
:102340001F93CF93DF931F92CDB7DEB76C01E62EBC
:1023500008E010E0FF24F39461E09F2D9E2109F432
:1023600060E0C60149830E943D11FF0C0150110934
:1023700049810115110581F7411115C0F894D60165
:102380001196ED91FC91129791818C918095892302
:1023900081831196ED91FC91129792818C91809599
:1023A0008923828378940F90DF91CF911F910F91B1
:1023B000FF90EF90DF90CF900895EF92FF920F93F0
:1023C0001F93CF93DF938C01C8E0D0E0F12CEE2473
:1023D000E394C8010E9470118111FE28EE0C219730
:1023E000C1F78F2DDF91CF911F910F91FF90EF904B
:1023F0000895CF92DF92FF920F931F93CF93DF93B5
:102400001F92CDB7DEB78C01F62E40E065E57983EB
:102410000E949B11CF2C7981D72E88E0F82EF601EF
:1024200061916F0140E0C8010E949B11FA94B9F7D5
:102430000F90DF91CF911F910F91FF90DF90CF9080
:10244000089540E06CEC0C949B11FC0113861586FA
:10245000148627E030E0DF01A20FB31F13961C9211
:102460002115310519F021503109F5CF08951F9339
:10247000CF93DF93EC01162F60E0812F0E941B1B8E
:10248000612F70E0FB01E256FC4FE491E883FB0111
:10249000EE54FC4FE491F0E0EE0FFF1FEA53FC4FC7
:1024A000859194919A838983CE01DF91CF911F9179
:1024B0000C942512AF92BF92CF92DF92EF92FF92CF
:1024C0000F931F93CF93DF931F92CDB7DEB75C01BD
:1024D000E62ED72EFC01858581115DC0C5010E94C5
:1024E000FE10811105C0F5011386158614866EC095
:1024F00040E060EFC5010E949B1101E0F12CC12C6E
:1025000011E0C5010E947011682FC50169830E9406
:1025100070116981613019F48130B9F433C02F2D05
:1025200030E068131BC0F5018385181730F4E20F03
:10253000F31F8381802349F402C0181731F060E053
:10254000193058F4F501148708C0F501EF0DF11D9D
:102550008381802B838361E009C0C12EF501E20FE6
:10256000F31F8381902F909589238383C5010E9457
:102570003D111F5F000F11F4F39401E0F7E0FF1528
:1025800008F0BFCF113438F0F501C386C11018C070
:1025900081E0858715C0F50113861586148680E0D5
:1025A000EE2DFD2D20E030E0D501A20FB31F1396D4
:1025B0009C9191932F5F3F4F28303105A9F706C0BA
:1025C000F5018381882339F381E0EACF0F90DF9111
:1025D000CF911F910F91FF90EF90DF90CF90BF9020
:1025E000AF900895DC0180E0615038F0ED91E8276C
:1025F000F0E0E657FD4F8491F7CF08950895FC0170
:102600008EEF92E1928B818B7683658314821082A8
:1026100089E0818381E0828383830895FC01848142
:102620000895CF93DF93EB0167E0CE010E94F21291
:1026300091E02F81821390E0892FDF91CF9108954F
:10264000EF92FF920F931F93CF93DF9300D0CDB7FC
:10265000DEB77C018A01FC018581968169837A83DA
:102660000E94FE1069817A81F701858196810E941E
:10267000F91140E06EEBF701858196810E949B1174
:10268000F701858196810E94DD11F8018083F701B1
:10269000858196810E94DD11F8018183F701858192
:1026A00096810E94DD11F8018283F7018581968170
:1026B0000E94DD11F8018383F701858196810E94D4
:1026C000DD11F8018483F701858196810E94DD1177
:1026D000F8018583F701858196810E94DD11F8015B
:1026E0008683F701858196810E94DD11F801878339
:1026F000F701858196810E94DD11F8018087F7013D
:10270000858196810F900F90DF91CF911F910F914E
:10271000FF90EF900C94FE10CF93DF93EA010E949C
:10272000201368E0CE010E94F21291E02885821306
:1027300090E0892FDF91CF910895EF92FF920F9350
:102740001F93CF93DF93EC017B018A018D819E81E2
:102750000E94FE10B7018D819E810E94F91140E018
:102760006EE48D819E810E949B1140E0F8016281A0
:102770008D819E810E949B1140E0F80163818D81D3
:102780009E810E949B11F7018081803139F040E0E9
:10279000F80164818D819E810E949B118D819E81B3
:1027A0000E94FE10488168E48D819E810E949B11E9
:1027B0008881882331F06AE070E080E090E00E9438
:1027C000851A8D819E81DF91CF911F910F91FF908E
:1027D000EF900C94FE10EF92FF921F93CF93DF9334
:1027E00000D0CDB7DEB77C01FC018581968169837D
:1027F0007A830E94FE1069817A81F7018581968132
:102800000E94F91140E064EBF701858196810E94F6
:102810009B11F701858196810E947011182FF70195
:10282000858196810E94FE1081E0111180E00F9059
:102830000F90DF91CF911F91FF90EF900895EF924D
:10284000FF920F931F93CF93DF93CDB7DEB72A97F5
:102850000FB6F894DEBF0FBECDBF7C018B01242FD5
:10286000AE014F5F5F4F2A870E948C132A85882311
:10287000D1F0F80180818031C1F02B3041F02C3053
:1028800021F02A3031F48FE305C08FE703C08FE5D4
:1028900001C08FE18D83AE014F5F5F4FB801C7016B
:1028A0000E949D1302C080E001C081E02A960FB60D
:1028B000F894DEBF0FBECDBFDF91CF911F910F9176
:1028C000FF90EF900895CF93DF93CDB7DEB72997B0
:1028D0000FB6F894DEBF0FBECDBFFB0120812031C3
:1028E000D1F0AE014F5F5F4F0E948C13882379F0C7
:1028F0008D818F3351F018F48F3169F008C08F3516
:1029000041F08F3721F48CE007C08AE005C080E0F9
:1029100003C08BE001C089E029960FB6F894DEBFB2
:102920000FBECDBFDF91CF910895EF92FF920F932D
:102930001F93CF93DF93CDB7DEB761970FB6F894AF
:10294000DEBF0FBECDBF8C01FC01858196810E9448
:102950002512F8011482FF24F394BE01665F7F4FB5
:10296000F801858196810E945A128823C9F1BE011F
:10297000665F7F4FC8010E941113882371F3F8012D
:102980008081811108C0BE01665F7F4FC8010E942F
:10299000EB13811122C0AE014F5F5F4FBE01665F36
:1029A0007F4FC8010E942013F801E180BE01665FDD
:1029B0007F4FC8010E9463148E1518F4F8018181BD
:1029C00006C0BE01665F7F4FC8010E946314F80114
:1029D000818384818F5F8483C0CFF801F082DBCF55
:1029E00061960FB6F894DEBF0FBECDBFDF91CF91D9
:1029F0001F910F91FF90EF900895CF93DF93CDB784
:102A0000DEB729970FB6F894DEBF0FBECDBFAE017B
:102A10004F5F5F4F0E94201381E09981911101C0A7
:102A200080E029960FB6F894DEBF0FBECDBFDF91D0
:102A3000CF910895CF92DF92EF92FF920F931F9361
:102A4000CF93DF93EC018B01452BE1F08B81882341
:102A5000C9F08881811116C00E94561A6B017C0151
:102A600060E070E0CE010E94FD1481110BC00E9455
:102A7000561A6C197D098E099F096E3E72408105B8
:102A8000910570F3F80180818A3049F08B3061F054
:102A9000893079F46EE570E080E090E00EC06CEB78
:102AA00070E080E090E009C067E771E080E090E0CE
:102AB00004C06EEE72E080E090E0DF91CF911F9154
:102AC0000F91FF90EF90DF90CF900C94851ACF93E9
:102AD000DF93EC018D819E810E94FE108D819E818D
:102AE0000E942112488164E48D819E810E949B1185
:102AF0008A81882351F0BE016F5F7F4F40E050E034
:102B0000CE01DF91CF910C941A15DF91CF910895EA
:102B10008F929F92AF92BF92CF92DF92EF92FF92ED
:102B20001F93CF93DF93FB01EA01698170E0762F59
:102B300066278881682B80818232B1F18832A1F1C9
:102B4000803109F078C01F8175956795882777FDDA
:102B50008095982F0E94012220E030E040E85EE35B
:102B60000E94FD206B017C01612F70E08E81681B4B
:102B70007109882777FD8095982F0E9401224B01CB
:102B80005C01612F70E080E090E00E94FF219B01DA
:102B9000AC01C501B4010E9466219B01AC01C701D3
:102BA000B6010E94FE2043C08C818F3381F198F4DE
:102BB0008F3109F040C093E0759567959A95E1F7DC
:102BC000882777FD8095982F0E94012220E030E031
:102BD00040E05FE32AC08F3569F08F3761F58827C1
:102BE00077FD8095982F0E94012220E030E040E898
:102BF0005DE31BC075956795882777FD8095982FB5
:102C00000E94012220E030E040E05EE30EC07595B6
:102C1000679575956795882777FD8095982F0E9411
:102C2000012220E030E040E85EE30E94B522562F0A
:102C3000472F382F292F652F742F832F922FDF9145
:102C4000CF911F91FF90EF90DF90CF90BF90AF900A
:102C50009F908F900895EF92FF920F931F93CF93C1
:102C6000DF93CDB7DEB729970FB6F894DEBF0FBE5E
:102C7000CDBF8C017B01AE014F5F5F4F0E948C1373
:102C8000882341F0AE014F5F5F4FB701C8010E943A
:102C9000881504C060E070E08EEF92EC29960FB6C4
:102CA000F894DEBF0FBECDBFDF91CF911F910F9182
:102CB000FF90EF90089580916D0590E020916E0552
:102CC000821B9109089520916E0580916D0528174A
:102CD00050F4E22FF0E0E159FA4F808190E02F5F4D
:102CE00020936E0508958FEF9FEF0895E0916E0594
:102CF00080916D05E81730F4F0E0E159FA4F8081DA
:102D000090E008958FEF9FEF08950895CF92DF929E
:102D1000EF92FF920F931F93CF93DF937C01CB0130
:102D20008A0120914905222389F0EB016B01C40E31
:102D3000D51ECC15DD0569F06991D701ED91FC91A7
:102D40000190F081E02DC7010995F3CF642F0E9417
:102D50009117C801DF91CF911F910F91FF90EF90D4
:102D6000DF90CF900895CF93DF931F92CDB7DEB75A
:102D70006983209149052223D1F020914A05203210
:102D800040F021E030E0FC013383228380E090E0DA
:102D900015C080914B05E82FF0E0E45BFA4F998174
:102DA00090838F5F80934B0580934A0505C061E057
:102DB000CE0101960E94911781E090E00F90DF9183
:102DC000CF910895FC011382128248EE53E060E037
:102DD00070E0448355836683778382E293E0918336
:102DE0008083089510926E0510926D0510924B0528
:102DF00010924A050C94201781E080934905609356
:102E00006C0510924B0510924A0508950F93062FFA
:102E100021E040914A056CE475E080916C050E94C8
:102E20003E1710924B0510924A05109249050F91DA
:102E3000089561E00C9406178DE395E00C94E2167A
:102E40001092FC0581E08093FA051092F90561E08B
:102E500082E10E94541B61E083E10E94541BE9EB74
:102E6000F0E080818E7F808380818D7F808388E405
:102E70008093B80085E48093BC0008950F9341329D
:102E800008F046C09091FC059111FCCF92E0909320
:102E9000FC050093FA059FEF90938F051092D405DF
:102EA0004093D305FB0165ED75E0DB019A2F961B7E
:102EB000941718F491919D93F9CF1092FB0590917E
:102EC000FB05880F892B8093FB058091F9058130E4
:102ED00041F41092F9058091FB058093BB0085ECCD
:102EE00001C085EE8093BC00222321F08091FC0577
:102EF0008230E1F380918F058F3F61F080918F05E3
:102F0000803251F080918F05803341F483E007C017
:102F100081E005C080E003C082E001C084E00F9141
:102F20000895613298F42091FC05243089F460936F
:102F3000B105FC0183EB95E0DC012A2F281B261745
:102F400018F421912D93F9CF80E0089581E0089540
:102F500082E0089585ED8093BC008091BC0084FDE3
:102F6000FCCF1092FC05089585EC8093BC00109274
:102F7000FC0508951F920F920FB60F9211242F9304
:102F80003F934F935F936F937F938F939F93AF93F1
:102F9000BF93EF93FF938091B900887F803609F447
:102FA0009CC068F5883209F45BC090F4803109F464
:102FB00054C038F4882309F4F5C0883009F44DC0B2
:102FC000F5C0883109F44CC0803209F45DC0EEC010
:102FD000803409F468C048F4803309F455C088335C
:102FE00009F0E4C080938F05A8C0803509F44FC074
:102FF000883509F45DC0883409F0D8C0D5C0883957
:1030000009F4C6C0A8F4883709F467C038F48836D4
:1030100009F463C0803709F460C0C8C0883809F477
:10302000B7C0803909F45FC0803809F0BFC05BC009
:10303000803B09F485C038F4803A09F466C0883AC8
:1030400009F47EC0B3C0803C09F4A6C0883C09F4F2
:10305000A3C0883B09F489C0A9C08091FB0510C0BA
:103060009091D4058091D305981770F5E091D4051F
:1030700081E08E0F8093D405F0E0EB52FA4F80810F
:103080008093BB0085EC85C080938F058DC0E09157
:10309000D40581E08E0F8093D4058091BB00F0E0D1
:1030A000EB52FA4F80839091D4058091D3056DC087
:1030B000E091D40581E08E0F8093D4058091BB0010
:1030C000F0E0EB52FA4F80838091FA0581116CC0D9
:1030D00081E08093F90584EA60C083E08093FC0579
:1030E00010929005CFCF80919005803208F050C0AB
:1030F000E091900581E08E0F809390058091BB0058
:10310000F0E0EF56FA4F8083BDCF8091900580327A
:1031100030F4E0919005F0E0EF56FA4F10820E94F3
:10312000AA176091900570E0E091F505F091F60521
:1031300081E995E00995109290050E94B41736C078
:1031400084E08093FC051092B2051092B105E091E5
:10315000F705F091F80509958091B105811105C039
:1031600081E08093B1051092B305E091B20581E052
:103170008E0F8093B205F0E0ED54FA4F808180937A
:10318000BB009091B2058091B105981708F47ACFF1
:1031900085E88093BC000AC085EC8093BC00109247
:1031A000FC0504C010928F050E94AA17FF91EF91B1
:1031B000BF91AF919F918F917F916F915F914F914F
:1031C0003F912F910F900FBE0F901F901895FC010B
:1031D0001382128282E393E0918380836483418728
:1031E0002287138608951F93CF93DF93EC01162F48
:1031F0006C818DE395E00E94FC16E0913D05F09115
:103200003E056B85612B0190F081E02D8DE395E00B
:1032100009958DE395E0DF91CF911F910C941917DB
:1032200028E0FC01238760E00C94F3181F93CF93F0
:10323000DF93EC01162F64600E94F31881E090E0A8
:103240000E94AD1A612F6B7FCE010E94F31882E3BA
:1032500090E0DF91CF911F910C94AD1A1F93CF9303
:10326000DF93EC01162F0E94F318612FCE01DF913E
:10327000CF911F910C941619EF92FF921F93CF9349
:10328000DF931F92CDB7DEB77C01162F607F642BD2
:1032900049830E942E1980E1189FB00111244981B1
:1032A000642BC7010F90DF91CF911F91FF90EF909A
:1032B0000C942E1941E00E943C1980E090E00895A2
:1032C00040E00C943C1961E00E94601980ED97E0A9
:1032D0000C94AD1A62E00E94601980ED97E00C94A6
:1032E000AD1ACF93DF93CDB7DEB728970FB6F8941A
:1032F000DEBF0FBECDBF28E0E0E1F1E0DE011196B8
:1033000001900D922A95E1F7FC012085241710F415
:103310004FEF420FFE013196E40FF11DE40FF11D56
:103320002081260F2068622F28960FB6F894DEBF02
:103330000FBECDBFDF91CF910C946019FC01668167
:10334000262F246026836C600C946019CF93DF9342
:10335000EC01423018F08D8188608D8348872223EC
:1033600029F0413019F48D8184608D8362E370E02F
:1033700080E090E00E94851A6B85CE010E94F318D0
:1033800068EE73E080E090E00E94851A60E3CE0171
:103390000E942E1984E991E10E94AD1A60E3CE01EA
:1033A0000E942E1984E991E10E94AD1A60E3CE01DA
:1033B0000E942E1986E990E00E94AD1A60E2CE01CB
:1033C0000E942E196D816062CE010E94601984E016
:1033D0008E83CE010E949E19CE010E94631982E065
:1033E0008F8366E0CE010E946019CE01DF91CF91FC
:1033F0000C946A19CF93DF93EC018DE395E00E9462
:10340000F2161D8220E04A856985CE01DF91CF91B9
:103410000C94A6190C94FA191F920F920FB60F92E2
:1034200011242F933F938F939F93AF93BF938091DA
:10343000FE059091FF05A0910006B0910106309124
:10344000FD0523E0230F2D3720F40196A11DB11DAA
:1034500005C026E8230F0296A11DB11D2093FD058E
:103460008093FE059093FF05A0930006B09301069C
:103470008091020690910306A0910406B091050682
:103480000196A11DB11D8093020690930306A0939F
:103490000406B0930506BF91AF919F918F913F9124
:1034A0002F910F900FBE0F901F9018952FB7F89483
:1034B0006091FE057091FF058091000690910106D4
:1034C0002FBF08953FB7F8948091020690910306AC
:1034D000A0910406B091050626B5A89B05C02F3F14
:1034E00019F00196A11DB11D3FBF6627782F892FC6
:1034F0009A2F620F711D811D911D42E0660F771F8B
:10350000881F991F4A95D1F70895CF92DF92EF92C5
:10351000FF92CF93DF936B017C010E94621AEB0153
:10352000C114D104E104F10489F00E942F1C0E940F
:10353000621A6C1B7D0B683E734090F381E0C81AE1
:10354000D108E108F108C851DC4FEACFDF91CF91F3
:10355000FF90EF90DF90CF900895019739F0880F9A
:10356000991F880F991F02970197F1F70895789492
:1035700084B5826084BD84B5816084BD85B5826078
:1035800085BD85B5816085BDEEE6F0E08081816016
:103590008083E1E8F0E01082808182608083808116
:1035A00081608083E0E8F0E0808181608083E1EBEE
:1035B000F0E0808184608083E0EBF0E080818160D6
:1035C0008083EAE7F0E0808184608083808182608C
:1035D0008083808181608083808180688083109275
:1035E000C1000895833081F028F4813099F0823051
:1035F000A1F008958730A9F08830B9F08430D1F473
:10360000809180008F7D03C0809180008F778093B0
:103610008000089584B58F7702C084B58F7D84BD06
:1036200008958091B0008F7703C08091B0008F7DA6
:103630008093B0000895CF93DF9390E0FC01E256B1
:10364000FC4F2491FC01EE54FC4F8491882349F1F6
:1036500090E0880F991FFC01E652FC4FA591B491B0
:1036600080539C4FFC01C591D4919FB7611108C054
:10367000F8948C91209582238C93888182230AC0B0
:10368000623051F4F8948C91322F309583238C93CF
:103690008881822B888304C0F8948C91822B8C9330
:1036A0009FBFDF91CF9108950F931F93CF93DF9327
:1036B0001F92CDB7DEB7282F30E0F901E657FC4F57
:1036C0008491F901E256FC4F1491F901EE54FC4F3C
:1036D00004910023C9F0882321F069830E94F21A23
:1036E0006981E02FF0E0EE0FFF1FE053FC4FA59142
:1036F000B4919FB7F8948C91611103C01095812308
:1037000001C0812B8C939FBF0F90DF91CF911F91B0
:103710000F910895CF93DF93282F30E0F901E657FA
:10372000FC4F8491F901E256FC4FD491F901EE541B
:10373000FC4FC491CC2391F081110E94F21AEC2F1E
:10374000F0E0EE0FFF1FEA53FC4FA591B4912C91CE
:103750002D2381E090E021F480E002C080E090E041
:10376000DF91CF9108958E3008F08E5087702091B0
:103770000F0190E4299F90011124822B80937C00FB
:1037800080917A00806480937A0080917A0086FD2F
:10379000FCCF809178002091790090E0922B0895E1
:1037A0001F93CF93DF93182FEB0161E00E941B1B47
:1037B000209711F460E004C0CF3FD10539F461E0F7
:1037C000812FDF91CF911F910C94541BE12FF0E0DA
:1037D000E657FC4FE491E330F9F048F4E130B9F0FA
:1037E000E230A1F584B5806284BDC8BD34C0E73045
:1037F000E9F0E83019F1E43049F580918000806209
:1038000080938000D0938B00C0938A0024C084B53D
:10381000806884BDC7BD1FC0809180008068809390
:103820008000D0938900C093880015C08091B000BB
:1038300080688093B000C093B3000DC08091B00049
:1038400080628093B000C093B40005C0C038D10539
:103850000CF0B5CFAFCFDF91CF911F9108950895B0
:103860008230E8F4E82FF0E0EE0FFF1FEA5FF94F37
:1038700071836083813041F0809169008C7F842B5B
:1038800080936900E89A089580916900440F551F5C
:10389000440F551F837F842B80936900E99A089514
:1038A000823068F4813011F0E89801C0E998E82F7F
:1038B000F0E0EE0FFF1FEA5FF94F118210820895CA
:1038C0001F920F920FB60F9211242F933F934F9395
:1038D0005F936F937F938F939F93AF93BF93EF9378
:1038E000FF938091060690910706892B29F0E091BD
:1038F0000606F09107060995FF91EF91BF91AF91F0
:103900009F918F917F916F915F914F913F912F91F7
:103910000F900FBE0F901F9018951F920F920FB629
:103920000F9211242F933F934F935F936F937F9345
:103930008F939F93AF93BF93EF93FF93809108066C
:1039400090910906892B29F0E0910806F09109066B
:103950000995FF91EF91BF91AF919F918F917F91C9
:103960006F915F914F913F912F910F900FBE0F90EC
:103970001F9018951F920F920FB60F9211242F933C
:103980008F939F93EF93FF93E0911A06F0911B069C
:103990008081E0912006F091210682FD12C0908185
:1039A000809123068F5F8F7320912406821751F038
:1039B000E0912306F0E0E65FF94F958F80932306B0
:1039C00001C08081FF91EF919F918F912F910F9076
:1039D0000FBE0F901F9018951F920F920FB60F9267
:1039E00011242F933F934F935F936F937F938F9304
:1039F0009F93AF93BF93EF93FF938AE096E00E946B
:103A0000F31FFF91EF91BF91AF919F918F917F91A4
:103A10006F915F914F913F912F910F900FBE0F903B
:103A20001F9018958AE096E00E94B81F21E0892B2C
:103A300009F420E0822F089510920D0610920C06D2
:103A400088EE93E0A0E0B0E080930E0690930F061E
:103A5000A0931006B093110686E493E090930B06B2
:103A600080930A0685EC90E09093170680931606E3
:103A700084EC90E0909319068093180680EC90E017
:103A800090931B0680931A0681EC90E090931D069C
:103A900080931C0682EC90E090931F0680931E0694
:103AA00086EC90E0909321068093200610922306E6
:103AB0001092240610922506109226060895CF92A1
:103AC000DF92EF92FF920F931F93CF93DF936C01DE
:103AD0007A01EB01E60EF71E00E010E0CE15DF05DF
:103AE00061F06991D601ED91FC910190F081E02D9A
:103AF000C6010995080F191FF1CFC801DF91CF91B9
:103B00001F910F91FF90EF90DF90CF900895611576
:103B1000710581F0DB010D900020E9F7AD01415006
:103B20005109461B570BDC01ED91FC910280F3819A
:103B3000E02D099480E090E008950C94871DDC014D
:103B4000ED91FC910190F081E02D09940F931F936A
:103B5000CF93DF93EC016DE00E949F1D8C016AE022
:103B6000CE010E949F1D800F911FDF91CF911F9169
:103B70000F9108950F931F93CF93DF93EC010E9451
:103B8000871D8C01CE010E94A61D800F911FDF9121
:103B9000CF911F910F9108958F929F92AF92BF92F4
:103BA000CF92DF92EF92FF920F931F93CF93DF9309
:103BB000CDB7DEB7A1970FB6F894DEBF0FBECDBF6D
:103BC0007C01C42EE52FCB01D22E19A221E02D15A8
:103BD00010F02AE0D22E8E010F5D1F4F8D2C912CFC
:103BE000A12CB12C6C2D7E2FA50194010E94732372
:103BF0008C2DD29E80191124015011098A3014F4A1
:103C0000805D01C0895CF801808321153105410583
:103C1000510521F0C22EE32FCA01E4CFB801C7013C
:103C20000E94871DA1960FB6F894DEBF0FBECDBFD0
:103C3000DF91CF911F910F91FF90EF90DF90CF9088
:103C4000BF90AF909F908F900895CF92DF92EF92A8
:103C5000FF920F931F93CF93DF93EC016A017B01D7
:103C60002115310579F4E881F9810190F081E02D89
:103C7000642FDF91CF911F910F91FF90EF90DF9014
:103C8000CF9009942A303105E9F477FF1AC06DE22C
:103C90000E949F1D8C0144275527BA014C195D09CC
:103CA0006E097F092AE0CE010E94CC1D800F911F72
:103CB000DF91CF911F910F91FF90EF90DF90CF9008
:103CC00008952AE0B701A601CE01DF91CF911F919F
:103CD0000F91FF90EF90DF90CF900C94CC1D9A0144
:103CE000AB01662757FD6095762F0C94251E0F9328
:103CF0001F93CF93DF93EC019A01AB01662757FD29
:103D00006095762F0E94251E8C01CE010E94A61D73
:103D1000800F911FDF91CF911F910F910895211571
:103D2000310541F4DC01ED91FC910190F081E02D31
:103D3000642F09940C94CC1D9A01462F50E060E04A
:103D400070E00C948F1E9A01AB0160E070E00C945F
:103D50008F1E4F925F926F927F928F929F92AF923F
:103D6000BF92CF92DF92EF92FF920F931F93CF9368
:103D7000DF93EC016A017B01B22E9A01AB01C7010E
:103D8000B6010E945A23882319F066E373E027C026
:103D900026013701E89477F82FEF3FEF4FE75FE711
:103DA000C301B2010E945A2381110DC02FEF3FEFD2
:103DB0004FE75FE7C301B2010E94622118161CF4AD
:103DC0006AE373E00CC02FEF3FEF4FE75FE4C701FA
:103DD000B6010E94B1221816ACF46EE373E0CE0176
:103DE000DF91CF911F910F91FF90EF90DF90CF90D7
:103DF000BF90AF909F908F907F906F905F904F900B
:103E00000C94871D2FEF3FEF4FE75FECC701B60122
:103E10000E94622187FDE1CF20E030E0A901C701C7
:103E2000B6010E94622187FF0AC06DE2CE010E94A6
:103E30009F1D8C01F7FAF094F7F8F09402C000E0AF
:103E400010E0A12C60E070E080E09FE3AB1441F053
:103E500020E030E040E251E40E946621A394F6CFD6
:103E60009B01AC01C701B6010E94FE206B017C01E1
:103E70000E94D3212B013C010E94FF219B01AC0138
:103E8000C701B6010E94FD206B017C012AE0B3014D
:103E9000A201CE010E94CC1D080F191FBB2039F0D2
:103EA00069EF72E0CE010E94871D080F191F7B2C5D
:103EB000772041F120E030E040E251E4C701B60153
:103EC0000E94B5226B017C010E94CE214B01AA24E5
:103ED00097FCA094BA2C2AE030E0B501A401CE01F1
:103EE0000E94251E080F191FC501B4010E9401225E
:103EF0009B01AC01C701B6010E94FD206B017C0152
:103F00007A94D6CFC801DF91CF911F910F91FF9086
:103F1000EF90DF90CF90BF90AF909F908F907F9069
:103F20006F905F904F9008950C94A91E0F931F936C
:103F3000CF93DF93EC010E94A91E8C01CE010E9459
:103F4000A61D800F911FDF91CF911F910F910895B2
:103F500008950E94B71A0E94A81F0E94E106C5EEAC
:103F6000DFE10E94B8072097E1F30E94E51FF9CF37
:103F7000FC01818D228D90E0805C9F4F821B910916
:103F80008F7399270895FC01918D828D981731F0D8
:103F9000828DE80FF11D858D90E008958FEF9FEFE2
:103FA0000895FC01918D828D981761F0828DDF015B
:103FB000A80FB11D5D968C91928D9F5F9F73928F1C
:103FC00090E008958FEF9FEF089582E19DE1892BA6
:103FD00049F080E090E0892B29F00E94121D8111A8
:103FE0000C9400000895FC01848DDF01A80FB11D21
:103FF000A35ABF4F2C91848D90E001968F7399271F
:10400000848FA689B7892C93A089B1898C9180640B
:104010008C93938D848D981306C00288F389E02DCC
:1040200080818F7D80830895CF93DF93EC01888D0D
:104030008823C9F0EA89FB89808185FD05C0A889AC
:10404000B9898C9186FD0FC00FB607FCF5CF808132
:1040500085FFF2CFA889B9898C9185FFEDCFCE017C
:104060000E94F31FE7CFDF91CF910895CF92DF92A7
:10407000FF920F931F93CF93DF931F92CDB7DEB7BD
:104080006C01DC015B969C915B975C968C915C97D4
:10409000981307C05096ED91FC915197808185FD52
:1040A00032C0F601038D10E00F5F1F4F0F73112711
:1040B000F02EF601848DF81211C00FB607FCF9CF6F
:1040C000D6015096ED91FC915197808185FFF1CFFB
:1040D000C60169830E94F31F6981EBCF838DE80FCE
:1040E000F11DE35AFF4F6083D6015B960C935B97FB
:1040F0005296ED91FC91539780818062808381E09C
:1041000058968C930DC0D6015696ED91FC91579719
:1041100060835096ED91FC915197808180648083FB
:1041200081E090E00F90DF91CF911F910F91FF9070
:10413000DF90CF900895BF92CF92DF92EF92FF92DF
:10414000CF93DF93EC016A017B01B22EE889F989F4
:1041500082E08083411581EE580761057105A1F069
:1041600060E079E08DE390E0A70196010E9473235F
:1041700021503109410951095695479537952795A1
:10418000211580E1380798F0E889F989108260E804
:1041900074E88EE190E0A70196010E9473232150FC
:1041A0003109410951095695479537952795EC8571
:1041B000FD853083EE85FF852083188EEC89FD898F
:1041C000B082EA89FB89808180618083EA89FB89EA
:1041D000808188608083EA89FB8980818068808310
:1041E000EA89FB8980818F7D8083DF91CF91FF9069
:1041F000EF90DF90CF90BF9008955058BB27AA272B
:104200000ED075C166D130F06BD120F031F49F3FF4
:1042100011F41EF45BC10EF4E095E7FB51C1E92FE8
:1042200077D180F3BA17620773078407950718F0F0
:1042300071F49EF58FC10EF4E0950B2EBA2FA02DD0
:104240000B01B90190010C01CA01A0011124FF2743
:10425000591B99F0593F50F4503E68F11A16F0403E
:10426000A22F232F342F4427585FF3CF469537953D
:104270002795A795F0405395C9F77EF41F16BA0B02
:10428000620B730B840BBAF09150A1F0FF0FBB1FB0
:10429000661F771F881FC2F70EC0BA0F621F731FF9
:1042A000841F48F4879577956795B795F7959E3F56
:1042B00008F0B3CF9395880F08F09927EE0F9795E4
:1042C00087950895D9D008F481E008950CD00FC1E6
:1042D00007D140F0FED030F021F45F3F19F0F0C07C
:1042E000511139C1F3C014D198F39923C9F355235F
:1042F000B1F3951B550BBB27AA27621773078407D9
:1043000038F09F5F5F4F220F331F441FAA1FA9F38E
:1043100033D00E2E3AF0E0E830D091505040E69580
:10432000001CCAF729D0FE2F27D0660F771F881FE1
:10433000BB1F261737074807AB07B0E809F0BB0BD0
:10434000802DBF01FF2793585F4F2AF09E3F5105F4
:1043500068F0B6C000C15F3FECF3983EDCF3869591
:1043600077956795B795F7959F5FC9F7880F911D6A
:104370009695879597F90895E1E0660F771F881F56
:10438000BB1F621773078407BA0720F0621B730B09
:10439000840BBA0BEE1F88F7E095089504D068945B
:1043A000B111D9C00895BCD088F09F5790F0B92FB3
:1043B0009927B751A0F0D1F0660F771F881F991F7A
:1043C0001AF0BA95C9F712C0B13081F0C3D0B1E08C
:1043D0000895C0C0672F782F8827B85F39F0B93F9C
:1043E000CCF3869577956795B395D9F73EF490957C
:1043F0008095709561957F4F8F4F9F4F0895E894FA
:1044000009C097FB3EF490958095709561957F4F1C
:104410008F4F9F4F9923A9F0F92F96E9BB279395CA
:10442000F695879577956795B795F111F8CFFAF4DA
:10443000BB0F11F460FF1BC06F5F7F4F8F4F9F4F0B
:1044400016C0882311F096E911C0772321F09EE869
:10445000872F762F05C0662371F096E8862F70E0CF
:1044600060E02AF09A95660F771F881FDAF7880FA9
:104470009695879597F90895990F0008550FAA0BFF
:10448000E0E8FEEF16161706E807F907C0F0121667
:104490001306E407F50798F0621B730B840B950B6A
:1044A00039F40A2661F0232B242B252B21F40895BF
:1044B0000A2609F4A140A6958FEF811D811D08955C
:1044C00097F99F6780E870E060E008959FEF80ECC7
:1044D000089500240A94161617061806090608956A
:1044E00000240A9412161306140605060895092ED0
:1044F0000394000C11F4882352F0BB0F40F4BF2B3F
:1045000011F460FF04C06F5F7F4F8F4F9F4F08957E
:1045100057FD9058440F551F59F05F3F71F0479574
:10452000880F97FB991F61F09F3F79F08795089559
:10453000121613061406551FF2CF4695F1DF08C078
:10454000161617061806991FF1CF86957105610595
:1045500008940895E894BB2766277727CB0197F93D
:1045600008958ADF08F48FEF08950BD0C0CFB1DF34
:1045700028F0B6DF18F0952309F0A2CFA7CF1124B9
:10458000EACFC6DFA0F3959FD1F3950F50E0551FFA
:10459000629FF001729FBB27F00DB11D639FAA2798
:1045A000F00DB11DAA1F649F6627B00DA11D661FE7
:1045B000829F2227B00DA11D621F739FB00DA11D08
:1045C000621F839FA00D611D221F749F3327A00DC2
:1045D000611D231F849F600D211D822F762F6A2F5E
:1045E00011249F5750408AF0E1F088234AF0EE0FE3
:1045F000FF1FBB1F661F771F881F91505040A9F7F0
:104600009E3F510570F05CCFA6CF5F3FECF3983E24
:10461000DCF3869577956795B795F795E7959F5F56
:10462000C1F7FE2B880F911D9695879597F90895F0
:1046300011F40EF44BCF42C073DFD0F39923D9F3BA
:10464000CEF39F57550B87FF47D00024A0E640EAE2
:10465000900180585695979528F4805C660F771FD7
:10466000881F20F026173707480730F4621B730BAA
:10467000840B202931294A2BA695179407942025CD
:1046800031254A2758F7660F771F881F20F0261715
:104690003707480730F4620B730B840B200D311D74
:1046A000411DA09581F7B901842F9158880F9695E7
:1046B00087950895E1DE880B990B08959F3F31F0AF
:1046C000915020F4879577956795B795880F911D40
:1046D0009695879597F9089591505040660F771FEA
:1046E000881FD2F70895A1E21A2EAA1BBB1BFD0159
:1046F0000DC0AA1FBB1FEE1FFF1FA217B307E407C1
:10470000F50720F0A21BB30BE40BF50B661F771F18
:10471000881F991F1A9469F76095709580959095F8
:104720009B01AC01BD01CF010895052E97FB1EF43E
:1047300000940E94AC2357FD07D00E94732307FC0E
:1047400003D04EF40C94AC235095409530952195B0
:104750003F4F4F4F5F4F08959095809570956195AD
:104760007F4F8F4F9F4F0895EE0FFF1F0590F491DD
:10477000E02D09940E94C223332312F48A1B9B0B61
:104780000C94D323A29FB001B39FC001A39F700DCF
:10479000811D1124911DB29F700D811D1124911D49
:1047A00008950E94C223B7FF0895821B930B0895BA
:1047B0000E94C223A59F900DB49F900DA49F800DD1
:0A47C000911D11240895F894FFCF15
:1047CA000000A7068000D200050101C3B584430199
:1047DA0000004000140054004F4B002800202D3EDA
:1047EA002061636B00656D6F6E50692056004F70D3
:1047FA00656E456E657267794D6F6E004354203160
:10480A002043616C3A2000435420322043616C3AC1
:10481A00200056524D53204143207E0041432057E9
:10482A00617665204465746563746564004143205C
:10483A0057617665204465746563746564202D202C
:10484A005265616C20506F7765722063616C6320DA
:10485A00656E61626C656400555341206D6F6465D5
:10486A00203E20005663616C3A200056726D733AFE
:10487A00200050686173652053686966743A2000A5
:10488A004143204E4F542044657465637465640047
:10489A004143204E4F5420646574656374656420F7
:1048AA002D204170706172656E7420506F77657249
:1048BA002063616C6320656E61626C6564005553A8
:1048CA0041206D6F646500417373756D696E672071
:1048DA0056524D533A2000446574656374656420EA
:1048EA00006E6F20435420646574656374656400C8
:1048FA004E6F20435427730043542031206465745B
:10490A0065637400435431200043542032206465A7
:10491A00746563740043543200446574656374209B
:10492A000020445331384232300044657465637460
:10493A0065643A2000445331384232302054656D60
:10494A007000302044533138423230206465746537
:10495A00637465640052464D3639435720496E697F
:10496A00743A20004E6F64652000204672657120FB
:10497A00003433334D687A003836384D687A003956
:10498A0031354D687A00204E6574776F726B20005E
:10499A004F4B200020282D3029004F70656E456E40
:1049AA00657267794D6F6E69746F722E6F726700E8
:1049BA00737461727475702E2E2E005B656D6F6E46
:1049CA0050692E005D002069002067002040200009
:1049DA00204D487A002055534120002B565A00009A
:1049EA000000B31686165B16631676168516000047
:1049FA0000005A195F1D6E616E00696E66006F765F
:104A0A0066000000000036205F1DB81FD11FC31FBB
:024A1A00142066
:00000001FF
