:100000000C946F010C9497010C9497010C94970138
:100010000C9497010C9497010C9497010C94970100
:100020000C9497010C9497010C9417050C949E0561
:100030000C9497010C9497010C9497010C949701E0
:100040000C9497010C9497010C9497010C949701D0
:100050000C9497010C9497010C9497010C94FA0658
:100060000C9497010C9497010C9497010C949701B0
:100070000C9497010C9497010C9497010C949701A0
:100080000C9497010C9497010C9497010C94970190
:100090000C9497010C9497010C9497010C94970180
:1000A0000C9497010C9497010C949701080B000293
:1000B0000202010009040000010202000005240000
:1000C0001001052401010104240206052406000193
:1000D0000705810310004009040100020A00000026
:1000E00007050202400000070583024000000403E8
:1000F00009042203550053004200200049004F002C
:10010000200042006F0061007200640020002000A7
:10011000200020001803410072006400750069008F
:100120006E006F0020004C004C00430012010002E2
:10013000000000404123398000010102000112014A
:100140000002020000404123398000010102000149
:1001500000C18081C100000000240027002A002D7A
:1001600000300000000000250028002B002E003188
:1001700000000000002300260029002C002F0004AE
:10018000040404040304050202020204030202023E
:100190000206060606060604040202020404080219
:1001A00001104080401020408040800802040180FF
:1001B000402010020110801020404000000002008A
:1001C000080E0000030401000B00000000070605F4
:1001D000040100080A0B0C0D0905010902A101091F
:1001E00001A10085010509190129031500250195C3
:1001F0000375018102950175058103050109300927
:100200003109381581257F750895038106C0C00521
:10021000010906A1018502050719E029E715002556
:100220000175019508810295017508810395067590
:1002300008150025650507190029658100C0090416
:1002400002000103000000092101010001226500F4
:100250000705840340000100000000000000002AA0
:100260002B2800000000000000000000000000003B
:10027000000000000000002C9EB4A0A1A2A434A69F
:10028000A7A5AE362D3738271E1F2021222324256F
:1002900026B333B62EB7B89F8485868788898A8B24
:1002A0008C8D8E8F909192939495969798999A9B16
:1002B0009C9D2F3130A3AD350405060708090A0BB4
:1002C0000C0D0E0F101112131415161718191A1BF6
:1002D0001C1DAFB1B0B500005C02530443091124EA
:1002E0001FBECFEFDAE0DEBFCDBF11E0A0E0B1E08E
:1002F000E8EAF4E102C005900D92A03BB107D9F7FE
:1003000012E0A0EBB1E001C01D92A532B107E1F708
:1003100012E0CEEDD2E004C02297FE010E944E0A08
:10032000C83DD107C9F70E94E7060C94520A0C9405
:10033000000088EF91E060E071E00E948D0389E0A9
:1003400061E00E94A6080E9442076093B00170938A
:10035000B1018093B2019093B30107C088E00E947D
:10036000D908019711F40C9400000E9442072091D3
:10037000B0013091B1014091B2015091B301621BC3
:10038000730B840B950B685873418040904030F399
:1003900088EF91E06DE471E00E948D0385E061E0FB
:1003A0000E94A6080C940000089588E00E94D908D5
:1003B000892B11F40E94990108950F931F9389E0EE
:1003C00061E00E94090889E061E00E94A60808EF48
:1003D00011E0C80160E071EE0E941102C80167E5FA
:1003E00071E00E948D03C80169E671E00E948D03EF
:1003F00064E670E080E090E00E94500788E060E0F2
:100400000E94090888E062E00E94090885E061E036
:100410000E94090885E060E00E94A6081F910F91E4
:10042000089508952091F4013091F5018091F6012D
:100430009091F701281B390B2F733070C901089573
:100440002091F4013091F5018091F6019091F7012E
:100450002817390719F42FEF3FEF09C0E091F60193
:10046000F091F701EC54FE4F8081282F30E0C90154
:1004700008952091F4013091F5018091F601909159
:10048000F7012817390719F42FEF3FEF13C0E09158
:10049000F601F091F701EC54FE4F20818091F601B6
:1004A0009091F70101968F7390709093F70180936C
:1004B000F60130E0C90108951092FB011092FA0193
:1004C00088EE93E0A0E0B0E08093FC019093FD0102
:1004D000A093FE01B093FF0184E991E09093F901AC
:1004E0008093F80108950F931F93DF93CF930F929A
:1004F000CDB7DEB78C01698380918D01882369F0C7
:1005000083E0BE016F5F7F4F41E050E00E947204C4
:100510001816190614F49C0107C081E090E0F80158
:100520009383828320E030E0C9010F90CF91DF9167
:100530001F910F91089583E00E9449040895CF937D
:10054000DF9312C082E00E94D4032FEF8F3F920707
:10055000C9F0E091F401F091F501EC54FE4F808375
:10056000D093F501C093F401C091F401D091F5014D
:100570002196CF73D0708091F6019091F701C81742
:10058000D90701F7DF91CF910895FC0180818E5F3B
:10059000808380E86CEA70E042E450E00E94ED0362
:1005A0000895FC0181819081913A59F4813209F0DA
:1005B0004CC080E066E871E047E050E00E94ED0347
:1005C00042C0913209F041C0803239F486E891E0AE
:1005D00067E070E00E94310436C0823209F035C015
:1005E000828180938D018091860190918701A091F5
:1005F0008801B0918901805B9440A040B04019F51A
:1006000080918D0180FD12C087E797E790930108E4
:10061000809300082BE088E190E00FB6F894A8954D
:10062000809360000FBE209360000DC088E10FB67C
:10063000F89480936000109260000FBEA89510920D
:1006400001081092000881E0089580E00895CF929B
:10065000DF92EF92FF920F931F93CF93DF937C0172
:100660006B018A01C0E0D0E00FC0D6016D916D0131
:10067000D701ED91FC910190F081E02DC701099522
:10068000C80FD91F015010400115110571F7CE0197
:10069000DF91CF911F910F91FF90EF90DF90CF905E
:1006A0000895EF92FF920F931F938C01DC01ED915F
:1006B000FC910190F081E02D6DE009957C01D8015D
:1006C000ED91FC910190F081E02DC8016AE009955F
:1006D0009C012E0D3F1DC9011F910F91FF90EF90BE
:1006E0000895CF93DF93EC016115710519F420E0B3
:1006F00030E00FC0DB010D900020E9F71197A61B39
:10070000B70BE881F9810280F381E02DAD010995F5
:100710009C01C901DF91CF910895EF92FF920F9351
:100720001F937C010E9471038C01C7010E94510339
:10073000080F191FC8011F910F91FF90EF900895A6
:10074000282F809108028823C1F057FF1AC015C0D6
:100750002898909307028091F1008193E217F307A4
:10076000B9F74115510539F08091F200882319F449
:100770008BE68093E800AFBF02C04FEF5FEFCA0186
:100780000895AFB7F89427702093E9008091F200A4
:10079000282F30E0241735070CF4A901FB019B0139
:1007A000240F311D94E6DACFDF93CF930F92CDB7AC
:1007B000DEB7BE016F5F7F4F41E050E00E94A003B3
:1007C000019719F02FEF3FEF03C08981282F30E008
:1007D000C9010F90CF91DF910895FF920F931F935E
:1007E000F82E142F052F40910B0250910C02212F4F
:1007F000302FC901DC01FB016EEF29C0F7FE02C0FA
:10080000949101C090812091090230910A0224172D
:100810003507ACF48091E8008570E1F38091E80041
:1008200082FF03C02FEF3FEF17C09093F100C90183
:1008300001968F739070892B11F46093E8002F5FFD
:100840003F4F30930A022093090211973196109777
:10085000A9F6812F902F9C01C9011F910F91FF9044
:1008600008959C018091E80082FFFCCFF901260FDA
:10087000311D03C08091F1008193E217F307D1F796
:10088000289884E6809307028BEF8093E800CB01E1
:1008900008958093E9008091F200882319F08AE39B
:1008A0008093E800089508951092080281E08093F3
:1008B000D70080EA8093D80082E189BD09B400FEA8
:1008C000FDCF61E070E080E090E00E94500780E999
:1008D0008093D8008CE08093E2001092E000559A5B
:1008E000209A08955F926F927F928F929F92AF921B
:1008F000BF92CF92DF92EF92FF920F931F93CF930D
:10090000DF93E82E842E752E80910802882371F1E2
:100910008B01242F352FC901EC017AEFF72E67E008
:10092000962E9E2050E4552E8E2D90E040E2A42E6F
:10093000B12CA822B9223AE3632E20E4C22ED12C96
:10094000C822D92258C09FB7F8949092E9008091AC
:10095000E80085FD02C020E004C08091F200252D52
:10096000281B9FBF222361F4FA9419F42FEF3FEF65
:100970004DC061E070E080E090E00E9450073BC015
:10098000822F90E0C817D9070CF42C2FC21BD10975
:100990004FB7F8949092E900A114B10421F406C075
:1009A0001092F10021502223D9F719C0E7FC03C0AF
:1009B000F801922F10C0C801322F06C0FC01019629
:1009C000E491E093F10031503323C1F706C08191E7
:1009D0008093F10091509923D1F7020F111D80915E
:1009E000E80085FF05C0209729F4C114D10411F057
:1009F0006092E8004FBF209709F0A5CF5D9884E68C
:100A000080930602282D372DC9019C01C901DF9171
:100A1000CF911F910F91FF90EF90DF90CF90BF90FB
:100A2000AF909F908F907F906F905F9008951F92EE
:100A30000F920FB60F9211242F933F934F935F9312
:100A40006F937F938F939F93AF93BF93EF93FF9396
:100A50008091E1001092E100982F83FF0FC0109267
:100A6000E90081E08093EB001092EC0082E3809338
:100A7000ED001092080288E08093F00092FF34C0ED
:100A800083E08093E9008091F200882319F08AE3E3
:100A90008093E8008FB7F89492E09093E9009091EA
:100AA000F2008FBF992321F088EF91E00E949F020E
:100AB00080910602882351F0809106028150809334
:100AC000060280910602882309F45D9A809107024C
:100AD000882351F080910702815080930702809112
:100AE0000702882309F4289AFF91EF91BF91AF91F3
:100AF0009F918F917F916F915F914F913F912F9136
:100B00000F900FBE0F901F9018950F931F93DF93B8
:100B1000CF930F92CDB7DEB719828E010F5F1F4FB3
:100B2000C8010E94C502C8010E94400A898190E064
:100B30000F90CF91DF911F910F9108951F920F9207
:100B40000FB60F921124EF92FF921F932F933F93B2
:100B50004F935F936F937F938F939F93AF93BF93C5
:100B6000EF93FF93DF93CF93CDB7DEB76197DEBFEF
:100B7000CDBF1092E9008091E80083FF0FC1FE0114
:100B800031969E01275F3F4F03C08091F100819312
:100B9000E217F307D1F7289884E68093070282EFE3
:100BA0008093E800998197FF05C08091E80080FF5D
:100BB000FCCF03C08EEF8093E800292F30E0C901FD
:100BC00080769070892B09F0C2C08A81882329F42D
:100BD0001092F1001092F100D6C0813009F4D3C018
:100BE000833009F4D0C0853049F48091E80080FF5B
:100BF000FCCF8B8180688093E300C5C0863009F00C
:100C00007CC01C81EF80F8841230C1F51092E9009D
:100C100010920A021092090210920C0210920B021A
:100C20000E94850599E0FE013996DF01292F1D926A
:100C30002A95E9F799871A8791E09E8790E8988B23
:100C40009AEF998B2091090230910A02275F3F4F5A
:100C50003C872B878D871092E90010920A02109230
:100C60000902F0920C02E0920B0280E0BF0149E021
:100C700050E00E94ED030E94850585C01092E900B6
:100C800010920A0210920902F0920C02E0920B02FA
:100C9000123241F482E290E00E94380A892B09F472
:100CA00076C071C0113079F488E0E816F10419F4C7
:100CB00081E080930D0280910D02882309F06BC0C2
:100CC000ECE2F1E013C0133009F061C08B8188239E
:100CD00019F4EEEEF0E00AC0823019F4E2EFF0E031
:100CE00005C0813009F053C0E4E1F1E0449180E8AF
:100CF000BF0150E00E94ED0346C0873009F447C0B1
:100D0000883021F481E08093F1003DC08930D9F52D
:100D100023703070232BD9F5E1E5F1E091E031E06B
:100D200026E39093E9003093EB0084918093EC00EC
:100D30002093ED009F5F3196953099F78EE7809371
:100D4000EA001092EA008B81809308021CC08F8118
:100D500098851092E90010920A021092090290936D
:100D60000C0280930B028D81882329F4CE01019619
:100D70000E94D10206C0823051F4CE0101960E9439
:100D80000909882321F08EEF8093E80007C081E2F3
:100D90008093EB0003C0EEE3F1E0A8CF6196DEBFE5
:100DA000CDBFCF91DF91FF91EF91BF91AF919F9117
:100DB0008F917F916F915F914F913F912F911F91F3
:100DC000FF90EF900F900FBE0F901F901895CF934C
:100DD000DF930E94A9078EE092E00E9454040E94D3
:100DE000DD01C0E0D0E00E94D5012097E1F30E9430
:100DF0000000F9CF1F920F920FB60F9211242F937C
:100E00003F938F939F93AF93BF93809113029091E1
:100E10001402A0911502B0911602309117020196AA
:100E2000A11DB11D232F2D5F2D3720F02D570196C9
:100E3000A11DB11D209317028093130290931402F9
:100E4000A0931502B093160280910F0290911002A8
:100E5000A0911102B09112020196A11DB11D8093C3
:100E60000F0290931002A0931102B0931202BF914F
:100E7000AF919F918F913F912F910F900FBE0F9047
:100E80001F9018958FB7F894209113023091140297
:100E900040911502509116028FBFB901CA01089501
:100EA0009B01AC017FB7F89480910F0290911002E2
:100EB000A0911102B091120266B5A89B05C06F3FC8
:100EC00019F00196A11DB11D7FBFBA2FA92F982F30
:100ED0008827860F911DA11DB11D62E0880F991F03
:100EE000AA1FBB1F6A95D1F7BC012DC0FFB7F894AC
:100EF00080910F0290911002A0911102B091120204
:100F0000E6B5A89B05C0EF3F19F00196A11DB11DE4
:100F1000FFBFBA2FA92F982F88278E0F911DA11DD3
:100F2000B11DE2E0880F991FAA1FBB1FEA95D1F7F8
:100F3000861B970B885E9340C8F22150304040409A
:100F4000504068517C4F211531054105510571F61E
:100F50000895789484B5826084BD84B5816084BD31
:100F600085B5826085BD85B5816085BDEEE6F0E022
:100F7000808181608083E1E8F0E01082808182607E
:100F80008083808181608083E0E8F0E080818160FF
:100F90008083E1EBF0E0808184608083E0EBF0E02F
:100FA000808181608083E1E9F0E0808182608083DC
:100FB000808181608083E0E9F0E0808181608083CE
:100FC000E1ECF0E0808184608083808182608083B6
:100FD000808181608083E3ECF0E0808181608083A8
:100FE000E0ECF0E0808182608083E2ECF0E08081E0
:100FF00081608083EAE7F0E0808184608083808183
:10100000826080838081816080838081806880832A
:101010000895CF93DF93482F50E0CA0183569E4F27
:10102000FC01349141585E4FFA018491882369F1A3
:1010300090E0880F991FFC01EB5AFE4FA591B491E7
:10104000FC01ED59FE4FC591D491662351F42FB7A1
:10105000F8948C91932F909589238C938881892380
:101060000BC0623061F42FB7F8948C91932F909558
:1010700089238C938881832B88832FBF06C09FB7D9
:10108000F8948C91832B8C939FBFDF91CF9108951F
:101090008730C1F1883080F48330F9F0843030F447
:1010A000813029F1823009F050C024C08430C9F069
:1010B000863009F04AC022C08A3091F18B3030F47A
:1010C000883031F1893009F040C026C08C3091F170
:1010D0008C3060F18E30C9F533C0809180008F77FD
:1010E00003C0809180008F7D80938000089584B537
:1010F0008F7702C084B58F7D84BD08958091B00044
:101100008F7703C08091B0008F7D8093B0000895E9
:10111000809190008F7707C0809190008F7D03C0F1
:1011200080919000877F8093900008958091C00007
:101130008F7703C08091C0008F7D8093C000089599
:101140008091C200877F8093C2000895FF920F9321
:101150001F93F62E482F50E0CA0185549E4FFC0184
:101160002491CA0183569E4FFC01149141585E4F51
:10117000FA0104910023C9F0222319F0822F0E9462
:101180004808E02FF0E0EE0FFF1FED59FE4FA5914C
:10119000B4919FB7F894FF2021F48C91109581238E
:1011A00002C08C91812B8C939FBF1F910F91FF9058
:1011B00008950F931F93482F50E0CA0185549E4F06
:1011C000FC012491CA0183569E4FFC0104914158B1
:1011D0005E4FFA011491112319F420E030E015C09C
:1011E000222319F0822F0E944808812F90E0880F57
:1011F000991F8F589E4FFC01A591B4918C9120E0CE
:1012000030E0802311F021E030E0C9011F910F91FF
:101210000895FC0191818081813A31F4913089F007
:1012200080E0933089F40DC0813269F49B3021F461
:10123000828180938E0105C09A3029F48281809347
:101240008F0181E0089580E00895EF92FF920F935F
:101250001F938C01E62EDC01ED91FC910480F58159
:10126000E02D0995F82ED801ED91FC910680F781CB
:10127000E02DC8016E2D09958F2D90E01F910F91E3
:10128000FF90EF9008951092180210921C02109295
:101290001B0286EA91E090931A0280931902089546
:1012A000EF92FF920F931F93DF93CF930F92CDB7DF
:1012B000DEB789838B017A0184E0BE016F5F7F4FC7
:1012C00041E050E00E94720484E4B801A7010E944A
:1012D00072040F90CF91DF911F910F91FF90EF90CB
:1012E000089582E048E050E00E9450090895FC0112
:1012F00016821782108611861286138614823496FF
:10130000BF010E9471090895DC01683810F0685827
:1013100029C0E62FF0E067FF13C0E058F04081E0FD
:1013200090E002C0880F991FEA95E2F78095149625
:101330002C911497282314962C93149760E012C0D4
:10134000E95AFD4F6491662319F420E030E01DC096
:1013500067FF08C014968C9114978D7F14968C9318
:1013600014976F77FD0190E0662321F08681861740
:1013700009F416829F5F31969630B1F7CD0114962D
:10138000BD010E94710921E030E0C9010895CF93A9
:10139000DF93DC01683810F0685825C0E62FF0E0D4
:1013A00067FF12C0E058F04081E090E002C0880F73
:1013B000991FEA95E2F714962C911497282B14960E
:1013C0002C93149760E00FC0E95AFD4F6491662397
:1013D000D9F167FF08C014968C9114978260149617
:1013E0008C9314976F7716968C9116978617A9F1A0
:1013F00017968C911797861781F118968C911897EC
:10140000861759F119968C911997861731F11A960A
:101410008C911A97861709F11B968C911B9786174A
:10142000E1F0ED01E0E0F0E09E2F8E81882321F4D1
:10143000EA0FFB1F668306C09F5F31962196E63058
:10144000F10591F7963049F481E090E013969C9372
:101450008E93129720E030E007C0CD011496BD01B5
:101460000E94710921E030E0C901DF91CF91089518
:1014700080E869ED71E045E650E00E94ED030895D3
:10148000FC0180818F5F808380E86EE372E049E138
:1014900050E00E94ED030895EE0FFF1F0590F491B8
:0814A000E02D0994F894FFCF40
:1014A800486F6C6420627574746F6E20666F72206A
:1014B800357320746F2073687574646F776E20506D
:1014C800692E2E2E72656C6561736520746F2072AB
:1014D800657374617274206A75737420656D6F6EBC
:1014E80050692041546D656761333238005348555F
:1014F80054444F574E210041546D6567613332386B
:10150800205374617274757000656D6F6E20506938
:101518002053687574646F776E20427574746F6EAB
:1015280020746573740000E10000000000000101F0
:1015380000000000730227031202390220029B02F6
:101548009F020000000025092703C70984097709BD
:00000001FF
