:100000000C946F010C9497010C9497010C94970138
:100010000C9497010C9497010C9497010C94970100
:100020000C9497010C9497010C94CD050C945406F4
:100030000C9497010C9497010C9497010C949701E0
:100040000C9497010C9497010C9497010C949701D0
:100050000C9497010C9497010C9497010C94B007A1
:100060000C9497010C9497010C9497010C949701B0
:100070000C9497010C9497010C9497010C949701A0
:100080000C9497010C9497010C9497010C94970190
:100090000C9497010C9497010C9497010C94970180
:1000A0000C9497010C9497010C949701080B000293
:1000B0000202010009040000010202000005240000
:1000C0001001052401010104240206052406000193
:1000D0000705810310004009040100020A00000026
:1000E00007050202400000070583024000000403E8
:1000F00009042203550053004200200049004F002C
:10010000200042006F0061007200640020002000A7
:10011000200020001803410072006400750069008F
:100120006E006F0020004C004C00430012010002E2
:10013000000000404123398000010102000112014A
:100140000002020000404123398000010102000149
:1001500000C18081C100000000240027002A002D7A
:1001600000300000000000250028002B002E003188
:1001700000000000002300260029002C002F0004AE
:10018000040404040304050202020204030202023E
:100190000206060606060604040202020404080219
:1001A00001104080401020408040800802040180FF
:1001B000402010020110801020404000000002008A
:1001C000080E0000030401000B00000000070605F4
:1001D000040100080A0B0C0D0905010902A101091F
:1001E00001A10085010509190129031500250195C3
:1001F0000375018102950175058103050109300927
:100200003109381581257F750895038106C0C00521
:10021000010906A1018502050719E029E715002556
:100220000175019508810295017508810395067590
:1002300008150025650507190029658100C0090416
:1002400002000103000000092101010001226500F4
:100250000705840340000100000000000000002AA0
:100260002B2800000000000000000000000000003B
:10027000000000000000002C9EB4A0A1A2A434A69F
:10028000A7A5AE362D3738271E1F2021222324256F
:1002900026B333B62EB7B89F8485868788898A8B24
:1002A0008C8D8E8F909192939495969798999A9B16
:1002B0009C9D2F3130A3AD350405060708090A0BB4
:1002C0000C0D0E0F101112131415161718191A1BF6
:1002D0001C1DAFB1B0B5000012030905F9091124C6
:1002E0001FBECFEFDAE0DEBFCDBF11E0A0E0B1E08E
:1002F000E4E1F6E102C005900D92AC3DB107D9F7FB
:1003000012E0ACEDB1E001C01D92A235B107E1F7FA
:1003100012E0CEEDD2E004C02297FE010E94040B51
:10032000C83DD107C9F70E949D070C94080B0C9497
:100330000000DF92EF92FF920F931F9385E292E00D
:1003400060E071E00E94430485E292E06DE471E0B8
:100350000E94430489E061E00E945C090E94F80762
:100360006093DC017093DD018093DE019093DF01E7
:100370001092E001DD24D39492E0E92E83E0F82E80
:1003800004E015E0A8C088E00E948F09019711F4ED
:100390000C9400000E94F8072091DC013091DD01EF
:1003A0004091DE015091DF01621B730B840B950BB2
:1003B000695E73408040904060F08091E001882346
:1003C00041F485E292E06FE571E00E944304D0922F
:1003D000E0010E94F8072091DC013091DD0140919D
:1003E000DE015091DF01621B730B840B950B615D85
:1003F00077408040904060F08091E001813041F48E
:1004000085E292E064E671E00E944304E092E0013C
:100410000E94F8072091DC013091DD014091DE015E
:100420005091DF01621B730B840B950B695B7B4062
:100430008040904060F08091E001823041F485E29C
:1004400092E069E671E00E944304F092E0010E94AC
:10045000F8072091DC013091DD014091DE015091DF
:10046000DF01621B730B840B950B615A7F40804048
:10047000904060F08091E001833041F485E292E0A9
:100480006EE671E00E9443040093E0010E94F807C9
:100490002091DC013091DD014091DE015091DF01BE
:1004A000621B730B840B950B655971418040904022
:1004B00090F08091E001843071F485E292E063E78E
:1004C00071E00E94430485E292E068E771E00E94D7
:1004D00043041093E0010E94F8072091DC01309161
:1004E000DD014091DE015091DF01621B730B840B33
:1004F000950B685873418040904008F444CF85E0E4
:1005000061E00E945C090C9400001F910F91FF9024
:10051000EF90DF90089588E00E948F09892B11F4F5
:100520000E94990108950F931F9389E061E00E9452
:10053000BF0889E061E00E945C0905E212E0C801A1
:1005400060E071EE0E94C702C80162E871E00E949B
:100550004304C80164E971E00E94430464E670E06A
:1005600080E090E00E94060888E060E00E94BF08FA
:1005700088E062E00E94BF0885E061E00E94BF0859
:1005800085E060E00E945C091F910F910895089535
:100590002091210230912202809123029091240225
:1005A000281B390B2F733070C90108952091210247
:1005B000309122028091230290912402281739075A
:1005C00019F42FEF3FEF09C0E0912302F0912402CC
:1005D000EF51FE4F8081282F30E0C901089520910E
:1005E0002102309122028091230290912402281747
:1005F000390719F42FEF3FEF13C0E0912302F09178
:100600002402EF51FE4F2081809123029091240219
:1006100001968F739070909324028093230230E0B0
:10062000C9010895109228021092270288EE93E0E3
:10063000A0E0B0E08093290290932A02A0932B02BD
:10064000B0932C028FEB91E09093260280932502C9
:1006500008950F931F93DF93CF930F92CDB7DEB71B
:100660008C0169838091B801882369F083E0BE0121
:100670006F5F7F4F41E050E00E9428051816190671
:1006800014F49C0107C081E090E0F8019383828319
:1006900020E030E0C9010F90CF91DF911F910F91C1
:1006A000089583E00E94FF040895CF93DF9312C062
:1006B00082E00E948A042FEF8F3F9207C9F0E091F9
:1006C0002102F0912202EF51FE4F8083D09322024B
:1006D000C0932102C0912102D09122022196CF73B2
:1006E000D0708091230290912402C817D90701F796
:1006F000DF91CF910895FC0180818E5F808380E837
:100700006CEA70E042E450E00E94A3040895FC010A
:1007100081819081913A59F4813209F04CC080E096
:1007200061EB71E047E050E00E94A30442C09132C7
:1007300009F041C0803239F481EB91E067E070E06C
:100740000E94E70436C0823209F035C0828180936E
:10075000B8018091B1019091B201A091B301B09123
:10076000B401805B9440A040B04019F58091B8017D
:1007700080FD12C087E797E79093010880930008F7
:100780002BE088E190E00FB6F894A8958093600084
:100790000FBE209360000DC088E10FB6F8948093DF
:1007A0006000109260000FBEA89510920108109290
:1007B000000881E0089580E00895CF92DF92EF92E3
:1007C000FF920F931F93CF93DF937C016B018A01FC
:1007D000C0E0D0E00FC0D6016D916D01D701ED9161
:1007E000FC910190F081E02DC7010995C80FD91F38
:1007F000015010400115110571F7CE01DF91CF9125
:100800001F910F91FF90EF90DF90CF900895EF929E
:10081000FF920F931F938C01DC01ED91FC910190ED
:10082000F081E02D6DE009957C01D801ED91FC91FE
:100830000190F081E02DC8016AE009959C012E0D20
:100840003F1DC9011F910F91FF90EF900895CF9325
:10085000DF93EC016115710519F420E030E00FC061
:10086000DB010D900020E9F71197A61BB70BE8817B
:10087000F9810280F381E02DAD0109959C01C90148
:10088000DF91CF910895EF92FF920F931F937C0118
:100890000E9427048C01C7010E940704080F191F3A
:1008A000C8011F910F91FF90EF900895282F80911C
:1008B00035028823C1F057FF1AC015C028989093BD
:1008C00034028091F1008193E217F307B9F74115E3
:1008D000510539F08091F200882319F48BE680935A
:1008E000E800AFBF02C04FEF5FEFCA010895AFB796
:1008F000F89427702093E9008091F200282F30E0CF
:10090000241735070CF4A901FB019B01240F311DAD
:1009100094E6DACFDF93CF930F92CDB7DEB7BE0167
:100920006F5F7F4F41E050E00E945604019719F03D
:100930002FEF3FEF03C08981282F30E0C9010F90CE
:10094000CF91DF910895FF920F931F93F82E142FEC
:10095000052F4091380250913902212F302FC901C3
:10096000DC01FB016EEF29C0F7FE02C0949101C0CB
:100970009081209136023091370224173507ACF46C
:100980008091E8008570E1F38091E80082FF03C068
:100990002FEF3FEF17C09093F100C90101968F73BD
:1009A0009070892B11F46093E8002F5F3F4F3093D4
:1009B000370220933602119731961097A9F6812FAE
:1009C000902F9C01C9011F910F91FF9008959C01E8
:1009D0008091E80082FFFCCFF901260F311D03C092
:1009E0008091F1008193E217F307D1F7289884E60C
:1009F000809334028BEF8093E800CB0108958093BD
:100A0000E9008091F200882319F08AE38093E800DE
:100A1000089508951092350281E08093D70080EA0E
:100A20008093D80082E189BD09B400FEFDCF61E06A
:100A300070E080E090E00E94060880E98093D80092
:100A40008CE08093E2001092E000559A209A08957D
:100A50005F926F927F928F929F92AF92BF92CF924E
:100A6000DF92EF92FF920F931F93CF93DF93E82EC5
:100A7000842E752E80913502882371F18B01242FED
:100A8000352FC901EC017AEFF72E67E0962E9E20F4
:100A900050E4552E8E2D90E040E2A42EB12CA822D9
:100AA000B9223AE3632E20E4C22ED12CC822D922E7
:100AB00058C09FB7F8949092E9008091E80085FDB6
:100AC00002C020E004C08091F200252D281B9FBFAA
:100AD000222361F4FA9419F42FEF3FEF4DC061E047
:100AE00070E080E090E00E9406083BC0822F90E01A
:100AF000C817D9070CF42C2FC21BD1094FB7F89493
:100B00009092E900A114B10421F406C01092F10002
:100B100021502223D9F719C0E7FC03C0F801922F16
:100B200010C0C801322F06C0FC010196E491E09389
:100B3000F10031503323C1F706C081918093F10059
:100B400091509923D1F7020F111D8091E80085FF84
:100B500005C0209729F4C114D10411F06092E80077
:100B60004FBF209709F0A5CF5D9884E680933302AC
:100B7000282D372DC9019C01C901DF91CF911F910B
:100B80000F91FF90EF90DF90CF90BF90AF909F902C
:100B90008F907F906F905F9008951F920F920FB685
:100BA0000F9211242F933F934F935F936F937F93F3
:100BB0008F939F93AF93BF93EF93FF938091E10047
:100BC0001092E100982F83FF0FC01092E90081E09E
:100BD0008093EB001092EC0082E38093ED00109282
:100BE000350288E08093F00092FF34C083E0809368
:100BF000E9008091F200882319F08AE38093E800ED
:100C00008FB7F89492E09093E9009091F2008FBF33
:100C1000992321F085E292E00E94550380913302EE
:100C2000882351F080913302815080933302809168
:100C30003302882309F45D9A80913402882351F0AD
:100C40008091340281508093340280913402882351
:100C500009F4289AFF91EF91BF91AF919F918F91E5
:100C60007F916F915F914F913F912F910F900FBEA8
:100C70000F901F9018950F931F93DF93CF930F92B0
:100C8000CDB7DEB719828E010F5F1F4FC8010E94DA
:100C90007B03C8010E94F60A898190E00F90CF91F2
:100CA000DF911F910F9108951F920F920FB60F922F
:100CB0001124EF92FF921F932F933F934F935F93D3
:100CC0006F937F938F939F93AF93BF93EF93FF9314
:100CD000DF93CF93CDB7DEB76197DEBFCDBF109264
:100CE000E9008091E80083FF0FC1FE0131969E016B
:100CF000275F3F4F03C08091F1008193E217F30714
:100D0000D1F7289884E68093340282EF8093E8003C
:100D1000998197FF05C08091E80080FFFCCF03C058
:100D20008EEF8093E800292F30E0C9018076907023
:100D3000892B09F0C2C08A81882329F41092F1001E
:100D40001092F100D6C0813009F4D3C0833009F489
:100D5000D0C0853049F48091E80080FFFCCF8B81C2
:100D600080688093E300C5C0863009F07CC01C8198
:100D7000EF80F8841230C1F51092E900109237022A
:100D80001092360210923902109238020E943B06ED
:100D900099E0FE013996DF01292F1D922A95E9F786
:100DA00099871A8791E09E8790E8988B9AEF998BA4
:100DB0002091360230913702275F3F4F3C872B87C7
:100DC0008D871092E9001092370210923602F0924D
:100DD0003902E092380280E0BF0149E050E00E9411
:100DE000A3040E943B0685C01092E90010923702CE
:100DF00010923602F0923902E0923802123241F437
:100E000082E290E00E94EE0A892B09F476C071C05C
:100E1000113079F488E0E816F10419F481E0809348
:100E20003A0280913A02882309F06BC0ECE2F1E0CB
:100E300013C0133009F061C08B81882319F4EEEEE2
:100E4000F0E00AC0823019F4E2EFF0E005C0813032
:100E500009F053C0E4E1F1E0449180E8BF0150E0C3
:100E60000E94A30446C0873009F447C0883021F4AB
:100E700081E08093F1003DC08930D9F52370307056
:100E8000232BD9F5E1E5F1E091E031E026E3909301
:100E9000E9003093EB0084918093EC002093ED0007
:100EA0009F5F3196953099F78EE78093EA00109214
:100EB000EA008B81809335021CC08F819885109247
:100EC000E900109237021092360290933902809313
:100ED00038028D81882329F4CE0101960E94870370
:100EE00006C0823051F4CE0101960E94BF098823CA
:100EF00021F08EEF8093E80007C081E28093EB0041
:100F000003C0EEE3F1E0A8CF6196DEBFCDBFCF9185
:100F1000DF91FF91EF91BF91AF919F918F917F9161
:100F20006F915F914F913F912F911F91FF90EF90A3
:100F30000F900FBE0F901F901895CF93DF930E94D4
:100F40005F088BE392E00E940A050E949302C0E0D2
:100F5000D0E00E948B022097E1F30E940000F9CFBD
:100F60001F920F920FB60F9211242F933F938F93DE
:100F70009F93AF93BF938091400290914102A091C3
:100F80004202B0914302309144020196A11DB11D6D
:100F9000232F2D5F2D3720F02D570196A11DB11D58
:100FA000209344028093400290934102A093420216
:100FB000B093430280913C0290913D02A0913E0289
:100FC000B0913F020196A11DB11D80933C02909308
:100FD0003D02A0933E02B0933F02BF91AF919F911B
:100FE0008F913F912F910F900FBE0F901F901895EA
:100FF0008FB7F89420914002309141024091420213
:10100000509143028FBFB901CA0108959B01AC0101
:101010007FB7F89480913C0290913D02A0913E02EE
:10102000B0913F0266B5A89B05C06F3F19F00196CD
:10103000A11DB11D7FBFBA2FA92F982F8827860F1A
:10104000911DA11DB11D62E0880F991FAA1FBB1F32
:101050006A95D1F7BC012DC0FFB7F89480913C028E
:1010600090913D02A0913E02B0913F02E6B5A89B4F
:1010700005C0EF3F19F00196A11DB11DFFBFBA2FAA
:10108000A92F982F88278E0F911DA11DB11DE2E079
:10109000880F991FAA1FBB1FEA95D1F7861B970BD4
:1010A000885E9340C8F22150304040405040685123
:1010B0007C4F211531054105510571F6089578944D
:1010C00084B5826084BD84B5816084BD85B582604D
:1010D00085BD85B5816085BDEEE6F0E080818160EB
:1010E0008083E1E8F0E010828081826080838081EB
:1010F00081608083E0E8F0E0808181608083E1EBC3
:10110000F0E0808184608083E0EBF0E080818160AA
:101110008083E1E9F0E0808182608083808181606A
:101120008083E0E9F0E0808181608083E1ECF0E0A1
:1011300080818460808380818260808380818160FF
:101140008083E3ECF0E0808181608083E0ECF0E07C
:10115000808182608083E2ECF0E080818160808326
:10116000EAE7F0E080818460808380818260808310
:101170008081816080838081806880830895CF939F
:10118000DF93482F50E0CA0183569E4FFC013491F3
:1011900041585E4FFA018491882369F190E0880FED
:1011A000991FFC01EB5AFE4FA591B491FC01ED593A
:1011B000FE4FC591D491662351F42FB7F8948C91CA
:1011C000932F909589238C93888189230BC062305B
:1011D00061F42FB7F8948C91932F909589238C9379
:1011E0008881832B88832FBF06C09FB7F8948C918A
:1011F000832B8C939FBFDF91CF9108958730C1F1EE
:10120000883080F48330F9F0843030F4813029F173
:10121000823009F050C024C08430C9F0863009F013
:101220004AC022C08A3091F18B3030F4883031F1DD
:10123000893009F040C026C08C3091F18C3060F1CB
:101240008E30C9F533C0809180008F7703C08091C4
:1012500080008F7D80938000089584B58F7702C0D1
:1012600084B58F7D84BD08958091B0008F7703C0D1
:101270008091B0008F7D8093B000089580919000A0
:101280008F7707C0809190008F7D03C08091900080
:10129000877F8093900008958091C0008F7703C06E
:1012A0008091C0008F7D8093C00008958091C2001E
:1012B000877F8093C2000895FF920F931F93F62EAD
:1012C000482F50E0CA0185549E4FFC012491CA0169
:1012D00083569E4FFC01149141585E4FFA010491D0
:1012E0000023C9F0222319F0822F0E94FE08E02F6C
:1012F000F0E0EE0FFF1FED59FE4FA591B4919FB79F
:10130000F894FF2021F48C911095812302C08C91D8
:10131000812B8C939FBF1F910F91FF9008950F9386
:101320001F93482F50E0CA0185549E4FFC01249121
:10133000CA0183569E4FFC01049141585E4FFA0149
:101340001491112319F420E030E015C0222319F084
:10135000822F0E94FE08812F90E0880F991F8F58DE
:101360009E4FFC01A591B4918C9120E030E0802348
:1013700011F021E030E0C9011F910F910895FC01A7
:1013800091818081813A31F4913089F080E093300D
:1013900089F40DC0813269F49B3021F482818093FD
:1013A000B90105C09A3029F482818093BA0181E0A5
:1013B000089580E00895EF92FF920F931F938C01A0
:1013C000E62EDC01ED91FC910480F581E02D09957C
:1013D000F82ED801ED91FC910680F781E02DC8012F
:1013E0006E2D09958F2D90E01F910F91FF90EF903A
:1013F000089510924502109249021092480281ED20
:1014000091E090934702809346020895EF92FF92F5
:101410000F931F93DF93CF930F92CDB7DEB78983DE
:101420008B017A0184E0BE016F5F7F4F41E050E0A5
:101430000E94280584E4B801A7010E9428050F90A6
:10144000CF91DF911F910F91FF90EF90089582E06F
:1014500048E050E00E94060A0895FC0116821782B7
:10146000108611861286138614823496BF010E945C
:10147000270A0895DC01683810F0685829C0E62F63
:10148000F0E067FF13C0E058F04081E090E002C058
:10149000880F991FEA95E2F7809514962C9114977E
:1014A000282314962C93149760E012C0E95AFD4F3C
:1014B0006491662319F420E030E01DC067FF08C086
:1014C00014968C9114978D7F14968C9314976F7744
:1014D000FD0190E0662321F08681861709F41682CB
:1014E0009F5F31969630B1F7CD011496BD010E94F1
:1014F000270A21E030E0C9010895CF93DF93DC0192
:10150000683810F0685825C0E62FF0E067FF12C079
:10151000E058F04081E090E002C0880F991FEA9502
:10152000E2F714962C911497282B14962C93149769
:1015300060E00FC0E95AFD4F64916623D9F167FF5F
:1015400008C014968C911497826014968C9314970B
:101550006F7716968C9116978617A9F117968C912E
:101560001797861781F118968C911897861759F15D
:1015700019968C911997861731F11A968C911A97B2
:10158000861709F11B968C911B978617E1F0ED01E8
:10159000E0E0F0E09E2F8E81882321F4EA0FFB1F0C
:1015A000668306C09F5F31962196E630F10591F77C
:1015B000963049F481E090E013969C938E931297B5
:1015C00020E030E007C0CD011496BD010E94270A3B
:1015D00021E030E0C901DF91CF91089580E869ED05
:1015E00071E045E650E00E94A3040895FC0180816B
:1015F0008F5F808380E86EE372E049E150E00E94F3
:10160000A3040895EE0FFF1F0590F491E02D0994B7
:04161000F894FFCF7C
:10161400486F6C6420627574746F6E20666F7220FC
:10162400357320746F2073687574646F776E2050FF
:10163400692E2E2E72656C6561736520746F20723D
:10164400657374617274206A75737420656D6F6E4E
:1016540050692041546D65676133323800536875B1
:1016640074646F776E20506920696E203A20002ED2
:101674002E2E35002E2E2E34002E2E2E33002E2EFE
:101684002E32002E2E2E310053485554444F574EBF
:10169400210041546D65676133323820537461729F
:1016A40074757000656D6F6E205069205368757491
:1016B400646F776E20427574746F6E2074657374F2
:1016C4000000E1000000000000010100000000290A
:1016D40003DD03C802EF02D60251035503000000E4
:0C16E40000DB09DD037D0A3A0A2D0A0034
:00000001FF
