:100000000C9462000C948A000C948A000C948A0070
:100010000C948A000C948A000C948A000C948A0038
:100020000C948A000C948A000C948A000C948A0028
:100030000C948A000C948A000C948A000C948A0018
:100040000C9470020C948A000C94E6030C94340413
:100050000C948A000C948A000C948A000C948A00F8
:100060000C948A000C948A000000000024002700F1
:100070002A0000000000250028002B0000000000DE
:1000800023002600290004040404040404040202DA
:100090000202020203030303030301020408102007
:1000A0004080010204081020010204081020000012
:1000B0000007000201000003040600000000000029
:1000C0000000A00511241FBECFEFD8E0DEBFCDBFDA
:1000D00011E0A0E0B1E0E0E4FCE002C005900D9288
:1000E000A23CB107D9F712E0A2ECB1E001C01D9229
:1000F000A937B107E1F710E0C4ECD0E004C02297C3
:10010000FE010E941A06C23CD107C9F70E945A0399
:100110000C941E060C94000087E592E060E071E00C
:100120000E94D20387E592E06DE471E00E94CF0364
:1001300089E061E00E94C9010E94B8026093C20197
:100140007093C3018093C4019093C5018AC088E075
:100150000E941D02019711F40C9400000E94B80245
:100160002091C2013091C3014091C4015091C50159
:10017000621B730B840B950B695E7340804090404B
:1001800030F087E592E06FE571E00E94D2030E94B3
:10019000B8022091C2013091C3014091C401509135
:1001A000C501621B730B840B950B615D774080402A
:1001B000904030F087E592E064E671E00E94D2035F
:1001C0000E94B8022091C2013091C3014091C40144
:1001D0005091C501621B730B840B950B695B7B40CF
:1001E0008040904030F087E592E069E671E00E943F
:1001F000D2030E94B8022091C2013091C301409104
:10020000C4015091C501621B730B840B950B615A9D
:100210007F408040904030F087E592E06EE671E0EC
:100220000E94D2030E94B8022091C2013091C30102
:100230004091C4015091C501621B730B840B950B57
:10024000655971418040904060F087E592E063E736
:1002500071E00E94D20387E592E068E771E00E94B6
:10026000D2030E94B8022091C2013091C301409193
:10027000C4015091C501621B730B840B950B685828
:1002800073418040904008F462CF85E061E00E94B5
:10029000C9010C940000089588E00E941D02892B7A
:1002A00011F40E948C0008950F931F9389E061E080
:1002B0000E948A0189E061E00E94C90107E512E01D
:1002C000C80140E051EE60E070E00E946F04C80198
:1002D00062E871E00E94D203C80164E971E00E9403
:1002E000D20364E670E080E090E00E94C60288E0FD
:1002F00060E00E948A0188E062E00E948A0185E055
:1003000061E00E948A0185E060E00E94C9011F91BE
:100310000F910895CF93DF93482F50E0CA0186567E
:100320009F4FFC0134914A575F4FFA018491882313
:1003300069F190E0880F991FFC01E859FF4FA591E2
:10034000B491FC01EE58FF4FC591D491662351F44E
:100350002FB7F8948C91932F909589238C93888153
:1003600089230BC0623061F42FB7F8948C91932FDE
:10037000909589238C938881832B88832FBF06C017
:100380009FB7F8948C91832B8C939FBFDF91CF9173
:100390000895482F50E0CA0182559F4FFC012491D7
:1003A000CA0186569F4FFC0194914A575F4FFA014C
:1003B0003491332309F440C0222351F1233071F0EA
:1003C000243028F42130A1F0223011F514C0263059
:1003D000B1F02730C1F02430D9F404C080918000FE
:1003E0008F7703C0809180008F7D8093800010C044
:1003F00084B58F7702C084B58F7D84BD09C080919C
:10040000B0008F7703C08091B0008F7D8093B000E3
:10041000E32FF0E0EE0FFF1FEE58FF4FA591B491D0
:100420002FB7F894662321F48C919095892302C00C
:100430008C91892B8C932FBF0895682F70E0CB018E
:1004400082559F4FFC012491CB0186569F4FFC01A2
:1004500044916A577F4FFB019491992319F420E04E
:1004600030E03CC0222351F1233071F0243028F4D5
:100470002130A1F0223011F514C02630B1F0273020
:10048000C1F02430D9F404C0809180008F7703C07C
:10049000809180008F7D8093800010C084B58F771D
:1004A00002C084B58F7D84BD09C08091B0008F7774
:1004B00003C08091B0008F7D8093B000892F90E0C1
:1004C000880F991F84589F4FFC01A591B4918C917E
:1004D00020E030E0842311F021E030E0C9010895EC
:1004E0001F920F920FB60F9211242F933F938F9369
:1004F0009F93AF93BF938091CA019091CB01A0913C
:10050000CC01B091CD013091CE010196A11DB11D5C
:10051000232F2D5F2D3720F02D570196A11DB11DE2
:100520002093CE018093CA019093CB01A093CC017C
:10053000B093CD018091C6019091C701A091C801EF
:10054000B091C9010196A11DB11D8093C601909380
:10055000C701A093C801B093C901BF91AF919F910A
:100560008F913F912F910F900FBE0F901F90189574
:100570008FB7F8942091CA013091CB014091CC0102
:100580005091CD018FBFB901CA0108959B01AC0103
:100590007FB7F8948091C6019091C701A091C801DE
:1005A000B091C90166B5A89B05C06F3F19F00196CF
:1005B000A11DB11D7FBFBA2FA92F982F8827860FA5
:1005C000911DA11DB11D62E0880F991FAA1FBB1FBD
:1005D0006A95D1F7BC012DC0FFB7F8948091C60190
:1005E0009091C701A091C801B091C901E6B5A89B3F
:1005F00005C0EF3F19F00196A11DB11DFFBFBA2F35
:10060000A92F982F88278E0F911DA11DB11DE2E003
:10061000880F991FAA1FBB1FEA95D1F7861B970B5E
:10062000885E9340C8F221503040404050406851AD
:100630007C4F211531054105510571F608957894D7
:1006400084B5826084BD84B5816084BD85B58260D7
:1006500085BD85B5816085BDEEE6F0E08081816075
:100660008083E1E8F0E01082808182608083808175
:1006700081608083E0E8F0E0808181608083E1EB4D
:10068000F0E0808184608083E0EBF0E08081816035
:100690008083EAE7F0E080818460808380818260EB
:1006A00080838081816080838081806880831092D4
:1006B000C1000895CF93DF930E941F030E9454014D
:1006C000C1E2D4E00E944C012097E1F30E94210492
:1006D000F9CFCF92DF92EF92FF920F931F93CF93B8
:1006E000DF937C016B018A01C0E0D0E00FC0D6012E
:1006F0006D916D01D701ED91FC910190F081E02D9C
:10070000C7010995C80FD91F0150104001151105E7
:1007100071F7CE01DF91CF911F910F91FF90EF9074
:10072000DF90CF900895EF92FF920F931F938C016B
:10073000DC01ED91FC910190F081E02D6DE00995D7
:100740007C01D801ED91FC910190F081E02DC80170
:100750006AE009959C012E0D3F1DC9011F910F9163
:10076000FF90EF900895CF93DF93EC016115710531
:1007700019F420E030E00FC0DB010D900020E9F714
:100780001197A61BB70BE881F9810280F381E02D58
:10079000AD0109959C01C901DF91CF9108950E9497
:1007A000B3030895EF92FF920F931F937C010E9471
:1007B000B3038C01C7010E949303080F191FC801DE
:1007C0001F910F91FF90EF90089508951F920F923F
:1007D0000FB60F9211242F933F934F938F939F93B4
:1007E000EF93FF938091C00082FD1DC04091C60031
:1007F00020910F02309110022F5F3F4F2F73307006
:1008000080911102909112022817390771F0E0913E
:100810000F02F0911002E153FE4F4083309310021B
:1008200020930F0202C08091C600FF91EF919F912B
:100830008F914F913F912F910F900FBE0F901F906E
:100840001895E0916302F0916402E05CFF4F8191A2
:10085000919120813181821B930B8F739070892B32
:1008600011F00E94E50308951F920F920FB60F92A8
:1008700011242F933F938F939F93EF93FF93209196
:1008800053023091540280915502909156022817DC
:10089000390731F48091C1008F7D8093C10014C06D
:1008A000E0915502F0915602ED5EFD4F208180915E
:1008B00055029091560201968F7390709093560254
:1008C000809355022093C600FF91EF919F918F91E5
:1008D0003F912F910F900FBE0F901F901895AF92E0
:1008E000BF92DF92EF92FF920F931F93CF93DF930C
:1008F000EC017A018B01DD24403081EE580780E065
:10090000680780E0780711F0DD24D39491E0A92EE8
:10091000B12CEC89FD89DD2069F0C50108A002C079
:10092000880F991F0A94E2F7808360E079E08DE3F5
:1009300090E005C0108260E874E88EE190E0A801C4
:1009400097010E94F6052150304040405040569596
:1009500047953795279580E12030380720F0DD2036
:1009600011F0DD24D6CFE889F9893083EA89FB8943
:10097000208319A2EE89FF89408121E030E0C9017E
:100980000C8C02C0880F991F0A94E2F7482B408311
:10099000EE89FF894081C9010D8C02C0880F991F23
:1009A0000A94E2F7482B4083EE89FF894081C90110
:1009B0000E8C02C0880F991F0A94E2F7482B4083DF
:1009C000EE89FF8980810F8C02C0220F331F0A94A9
:1009D000E2F7209528232083DF91CF911F910F917B
:1009E000FF90EF90DF90BF90AF900895DC011C96D0
:1009F000ED91FC911D97E05CFF4F21913191808139
:100A00009181281B390B2F733070C9010895DC01C7
:100A10001C96ED91FC911D97E05CFF4F2081318188
:100A2000E054F040DF01AE5BBF4F8D919C91119778
:100A30002817390719F42FEF3FEF07C08D919C91CC
:100A4000E80FF91F8081282F30E0C9010895DC01EB
:100A50001C96ED91FC911D97E05CFF4F2081318148
:100A6000E054F040DF01AE5BBF4F8D919C91119738
:100A70002817390719F42FEF3FEF10C08D919C9183
:100A80001197E80FF91F20818D919C911197019684
:100A90008F73907011969C938E9330E0C9010895E6
:100AA000DC0191968C919197882339F05496ED91C1
:100AB000FC915597808186FFF9CF91961C920895FD
:100AC000CF93DF93EC01EE85FF85E05CFF4F208143
:100AD0003181E054F0402F5F3F4F2F733070DF01C2
:100AE000AE5BBF4F8D919C91119728173907D1F3B9
:100AF000E05CFF4F80819181E054F040E80FF91FE6
:100B00006083EE85FF85E05CFF4F31832083EE89B3
:100B1000FF89208181E090E00F8C02C0880F991F2F
:100B20000A94E2F7282B208381E089A3EC89FD89D0
:100B300080818064808381E090E0DF91CF9108958F
:100B400010925A021092590288EE93E0A0E0B0E0B1
:100B500080935B0290935C02A0935D02B0935E026F
:100B600085EB91E090935802809357028FEC91E0CF
:100B7000909364028093630283E192E09093660213
:100B80008093650285EC90E0909368028093670201
:100B900084EC90E090936A028093690280EC90E08C
:100BA00090936C0280936B0281EC90E090936E02C4
:100BB00080936D0282EC90E09093700280936F02BC
:100BC00086EC90E0909372028093710284E08093AF
:100BD000730283E08093740287E08093750285E05E
:100BE0008093760281E0809377020895A1E21A2E25
:100BF000AA1BBB1BFD010DC0AA1FBB1FEE1FFF1FC1
:100C0000A217B307E407F50720F0A21BB30BE40B10
:100C1000F50B661F771F881F991F1A9469F7609557
:100C20007095809590959B01AC01BD01CF01089511
:100C3000EE0FFF1F0590F491E02D0994F894FFCF7B
:100C4000486F6C6420627574746F6E20666F7220DA
:100C5000357320746F2073687574646F776E2050DD
:100C6000692E2E2E72656C6561736520746F20721B
:100C7000657374617274206A75737420656D6F6E2C
:100C800050692041546D656761333238005368758F
:100C900074646F776E20506920696E203A20002EB0
:100CA0002E2E35002E2E2E34002E2E2E33002E2EDC
:100CB0002E32002E2E2E310053485554444F574E9D
:100CC000210041546D65676133323820537461727D
:100CD00074757000656D6F6E20506920536875746F
:100CE000646F776E20427574746F6E2074657374D0
:100CF000000000000060056903F6042705070550A1
:020D00000500EC
:00000001FF
