:100000000C9464000C948C000C948C000C948C0068
:100010000C948C000C948C000C948C000C948C0030
:100020000C948C000C948C000C948C000C948C0020
:100030000C948C000C948C000C948C000C948C0010
:100040000C94B9060C948C000C941F090C946D0947
:100050000C948C000C948C000C948C000C948C00F0
:100060000C94CE030C948C000000000024002700A8
:100070002A0000000000250028002B0000000000DE
:1000800023002600290004040404040404040202DA
:100090000202020203030303030301020408102007
:1000A0004080010204081020010204081020000012
:1000B0000007000201000003040600000000000029
:1000C00000008E00C402D90A11241FBECFEFD8E071
:1000D000DEBFCDBF12E0A0E0B1E0E2EBF6E102C08E
:1000E00005900D92A636B107D9F713E0A6E6B2E067
:1000F00001C01D92AA3EB107E1F710E0C8ECD0E0C4
:1001000004C02297FE010E94530BC23CD107C9F7DD
:100110000E940F090C94570B0C94000086E692E0A5
:1001200067E240E122E00E947D050895DF92EF92B0
:10013000FF920F931F9388EC93E060E071E00E94C0
:10014000FC0886E692E00E94390686E692E06DE4BD
:1001500071E00E94F90886E692E060E041E00E94CA
:10016000020686E692E06EE571E00E94F90889E0F9
:1001700061E00E94EC070E94010760937202709395
:100180007302809374029093750210927602DD24BC
:10019000D39492E0F92E83E0E82E14E005E012C13A
:1001A00088E00E944008019711F40C9400000E941E
:1001B00001072091720230917302409174025091B4
:1001C0007502621B730B840B950B695E7340804054
:1001D000904010F1809176028823F1F488EC93E04E
:1001E0006FE671E00E94FC08D092760286E692E00B
:1001F0000E94390686E692E064E771E00E94F90801
:1002000086E692E060E041E00E94020686E692E027
:100210006EE571E00E94F9080E94010720917202C8
:10022000309173024091740250917502621B730BFE
:10023000840B950B615D77408040904010F1809178
:1002400076028130F1F488EC93E063E871E00E947B
:10025000FC08F092760286E692E00E94390686E675
:1002600092E068E871E00E94F90886E692E060E0BA
:1002700041E00E94020686E692E06EE571E00E948F
:10028000F9080E9401072091720230917302409197
:10029000740250917502621B730B840B950B695BA2
:1002A0007B408040904010F1809176028230F1F4E2
:1002B00088EC93E067E971E00E94FC08E092760226
:1002C00086E692E00E94390686E692E06CE971E0EB
:1002D0000E94F90886E692E060E041E00E94020692
:1002E00086E692E06EE571E00E94F9080E9401073F
:1002F0002091720230917302409174025091750204
:10030000621B730B840B950B615A7F4080409040B9
:1003100010F1809176028330F1F488EC93E06BEA7F
:1003200071E00E94FC081093760286E692E00E943B
:10033000390686E692E060EB71E00E94F90886E6F5
:1003400092E060E041E00E94020686E692E06EE5FF
:1003500071E00E94F9080E94010720917202309119
:1003600073024091740250917502621B730B840BEF
:10037000950B655971418040904020F18091760243
:10038000843001F586E692E06FEB71E00E94F90897
:1003900086E692E060E041E00E94020686E692E096
:1003A0006EE571E00E94F90888EC93E06EEC71E074
:1003B0000E94FC0888EC93E063ED71E00E94FC0869
:1003C000009376020E94010720917202309173021D
:1003D0004091740250917502621B730B840B950B54
:1003E000685873418040904008F4DACE85E061E0BF
:1003F0000E94EC0786E692E00E94390686E692E0CB
:100400006DED71E00E94F90886E692E060E041E05F
:100410000E94020686E692E069EE71E00E94F90809
:1004200068E873E180E090E00E940F0786E692E0C2
:100430000E94490686E692E00E94390686E692E02E
:1004400067EF71E00E94F9081F910F91FF90EF9004
:10045000DF90089588E00E944008892B11F40E94E3
:10046000960008950F931F9389E061E00E94AD0705
:1004700089E061E00E94EC0788E060E00E94AD073F
:1004800088E062E00E94AD0785E061E00E94AD0770
:1004900085E060E00E94EC0708EC13E0C80140E052
:1004A00051EE60E070E00E94A809C80161E072E0CE
:1004B0000E94FC08C80163E172E00E94FC0864E647
:1004C00070E080E090E00E940F0706E612E0C801AD
:1004D0000E94B606C8010E944106C8010E94390662
:1004E000C8016DED71E00E94F908C80160E041E0CB
:1004F0000E940206C8016AE272E00E94F9088DEBD0
:1005000092E00E944F0389E060E00E94EC071F9197
:100510000F91089581E08093BC026093990210923C
:10052000BA021092BB0208952091980230E08091A7
:100530009702281B3109C9010895409197028091C3
:100540009802481718F02FEF3FEF0AC0E42FF0E0B1
:10055000E958FD4F8081282F30E04F5F409397028C
:10056000C9010895E091970280919802E81718F068
:10057000EFEFFFEF06C0F0E0E958FD4F8081E82F74
:10058000F0E0CF01089508951092C0021092BF02CA
:1005900088EE93E0A0E0B0E08093C1029093C202A5
:1005A000A093C302B093C4028AE392E09093BE0288
:1005B0008093BD020895CF92DF92EF92FF920F9346
:1005C0001F93CF93DF937C016B018A018091BC0262
:1005D0008823A1F0C0E0D0E00DC0D701ED91FC91DF
:1005E000D601AC0FBD1F0190F081E02DC7016C91C9
:1005F00009952196C017D10780F304C0CB01642F61
:100600000E94B303C801DF91CF911F910F91FF901A
:10061000EF90DF90CF900895DF93CF930F92CDB7F7
:10062000DEB7FC0169838091BC028823C9F0809108
:10063000BB02803238F081E090E09383828320E037
:1006400030E015C08091BA02E82FF0E0E656FD4F89
:10065000998190838F5F8093BA028093BB0205C01B
:10066000CE01019661E00E94B30321E030E0C901B0
:100670000F90CF91DF9108950F93062F80919902EB
:100680006AE972E04091BB0221E00E945E03109291
:10069000BA021092BB021092BC020F91089561E061
:1006A0000E943C03089510929702109298021092B3
:1006B000BA021092BB020E945F0508950F931F9328
:1006C000582F122F413210F081E04AC08091C902A8
:1006D0008823E1F782E08093C9020093CB028FEF79
:1006E000809336031092F1024093F202A1EDB2E042
:1006F000FB0102C081918D938E2F861B8417D0F34E
:100700001092CA028091CA02550F852B8093CA02AB
:100710008091CC02813041F41092CC028091CA02C7
:100720008093BB0085EC01C085EE8093BC00112353
:1007300021F08091C9028230E1F3809136038F3F2E
:1007400011F480E00DC080913603803211F482E014
:1007500007C080913603803311F084E001C083E04C
:100760001F910F910895482F613210F081E0089594
:100770008091C902843011F082E0089560931403DF
:10078000A3EFB2E0842F9C01F90102C081918D9307
:100790008E2F841B8617D0F380E008951F920F924E
:1007A0000FB60F9211242F933F934F935F936F9344
:1007B0007F938F939F93AF93BF93EF93FF9380911A
:1007C000B90090E0887F90708036910509F4F2C0FE
:1007D00081369105CCF58832910509F47BC08932C8
:1007E0009105B4F48031910509F46FC08131910510
:1007F0003CF4009709F447C1089709F04FC165C060
:100800008831910509F466C0809709F047C182C01C
:100810008034910509F4A4C08134910544F48033F7
:10082000910509F482C0C89709F038C189C08035A4
:10083000910509F489C08835910509F496C088347A
:10084000910509F02BC1AEC08839910509F413C197
:1008500089399105ECF48837910509F4ABC08937E3
:1008600091054CF48836910509F4A4C080379105B0
:1008700009F014C19FC08838910509F4FCC0803983
:10088000910509F49DC08038910509F007C198C011
:10089000803B910509F4C6C0813B91054CF4803A38
:1008A000910509F49FC0883A910509F0F7C0BAC0D4
:1008B000803C910509F4E3C0883C910509F4DFC050
:1008C000883B910509F0EAC0C2C08091CA028093BA
:1008D000BB00CFC09091F1028091F202981768F4AA
:1008E0009091F102E92FF0E0EF52FD4F808180936B
:1008F000BB009F5F9093F102BCC08091CB02882324
:1009000009F44BC085ED8093BC008091BC0084FD50
:10091000FCCFC2C080E28093360385ED8093BC009B
:100920008091BC0084FDFCCFB7C080E38093360388
:1009300085ED8093BC008091BC0084FDFCCFACC0F1
:1009400088E3809336039BC08091F1029091BB00B5
:10095000E82FF0E0EF52FD4F90838F5F8093F1021C
:100960009091F1028091F20282C08091F102909107
:10097000BB00E82FF0E0EF52FD4F90838F5F809334
:10098000F1028091CB02882341F085ED8093BC0079
:100990008091BC0084FDFCCF7FC081E08093CC02BD
:1009A00084EA6EC085ED8093BC008091BC0084FD1C
:1009B000FCCF72C083E08093C9021092350359C006
:1009C00080913503803208F056C0809135039091B4
:1009D000BB00E82FF0E0EB5EFC4F90838F5F8093CD
:1009E000350347C080913503803230F4E091350300
:1009F000F0E0EB5EFC4F108285ED8093BC008091AF
:100A0000BC0084FDFCCF1092C90260913503E091D7
:100A1000CF02F091D00285E193E070E00995109249
:100A200035032DC084E08093C90210921303109205
:100A30001403E091CD02F091CE0209958091140348
:100A4000882329F481E0809314031092F30290919B
:100A50001303E92FF0E0ED50FD4F80818093BB0040
:100A60009F5F909313039091130380911403981741
:100A700010F485EC01C085E88093BC000FC085ECC4
:100A80008093BC0009C01092360385ED8093BC00B2
:100A90008091BC0084FDFCCF1092C902FF91EF91C0
:100AA000BF91AF919F918F917F916F915F914F9186
:100AB0003F912F910F900FBE0F901F90189510929D
:100AC000C90281E08093CB021092CC0282E161E006
:100AD0000E94EC0783E161E00E94EC07E9EBF0E0A3
:100AE00080818E7F808380818D7F808388E4809366
:100AF000B80085E48093BC000895FC011382128243
:100B00008AE492E0918380836483418722871386FD
:100B10000895CF92DF92EF92FF920F931F936C0193
:100B2000062F8DEBE82E82E0F82EC701F6016481D6
:100B30000E948A0210E0F601838590E0082B192BB1
:100B4000C701602F0E940C03C7010E944F031F9131
:100B50000F91FF90EF90DF90CF900895FF920F9349
:100B60001F938C01F62E64600E94890581E090E05D
:100B70000E9468078BEFF822C8016F2D0E9489053B
:100B800082E390E00E9468071F910F91FF90089503
:100B9000FF920F931F938C01F62E0E948905C801C6
:100BA0006F2D0E94AE051F910F91FF900895EF9257
:100BB000FF920F931F937C01162F042F607F642BED
:100BC0000E94C8051295107F102BC701612F0E944B
:100BD000C8051F910F91FF90EF90089541E00E948A
:100BE000D70580E090E0089540E00E94D705089581
:100BF000FC016681862F846086836C60CF010E9431
:100C0000F4050895DF93CF93CDB7DEB728970FB6DD
:100C1000F894DEBF0FBECDBF9C01FE013196AEE45D
:100C2000B2E088E00D9001928150E1F7F9018085F2
:100C3000841710F4482F4150E42FF0E0EE0FFF1F0F
:100C4000EC0FFD1F8181680F6068C9010E94F405E7
:100C500028960FB6F894DEBF0FBECDBFCF91DF91BF
:100C6000089562E00E94F40580ED97E00E94680715
:100C7000089561E00E94F40580ED97E00E94680706
:100C80000895FC0188E08387CF0160E00E94890518
:100C90000895FC01138660E00E9489050895CF93B2
:100CA000DF93EC01423018F08D8188608D83488796
:100CB000222329F0413019F48D8184608D8362E311
:100CC00070E080E090E00E940F07CE016B850E94EB
:100CD000890568EE73E080E090E00E940F07CE0186
:100CE00060E30E94C80584E991E10E946807CE0193
:100CF00060E30E94C80584E991E10E946807CE0183
:100D000060E30E94C80586E990E00E946807CE0172
:100D100060E20E94C8056D816062CE010E94F40508
:100D200084E08E83CE010E94F805CE010E94390630
:100D300082E08F83CE0166E00E94F405CE010E941E
:100D40003106DF91CF9108950F931F938C018DEBA6
:100D500092E00E945303F8011582C8016185428523
:100D600020E00E944F061F910F9108950E94A40653
:100D700008951F920F920FB60F9211242F933F9355
:100D80008F939F93AF93BF9380913B0390913C03CC
:100D9000A0913D03B0913E0330913F030196A11D08
:100DA000B11D232F2D5F2D3720F02D570196A11D4A
:100DB000B11D20933F0380933B0390933C03A0938A
:100DC0003D03B0933E038091370390913803A09187
:100DD0003903B0913A030196A11DB11D80933703E9
:100DE00090933803A0933903B0933A03BF91AF9126
:100DF0009F918F913F912F910F900FBE0F901F9059
:100E000018958FB7F89420913B0330913C034091A3
:100E10003D0350913E038FBFB901CA0108959B0164
:100E2000AC017FB7F8948091370390913803A0917B
:100E30003903B0913A0366B5A89B05C06F3F19F01E
:100E40000196A11DB11D7FBFBA2FA92F982F88270A
:100E5000860F911DA11DB11D62E0880F991FAA1F69
:100E6000BB1F6A95D1F7BC012DC0FFB7F8948091E4
:100E7000370390913803A0913903B0913A03E6B556
:100E8000A89B05C0EF3F19F00196A11DB11DFFBF42
:100E9000BA2FA92F982F88278E0F911DA11DB11D44
:100EA000E2E0880F991FAA1FBB1FEA95D1F7861BA6
:100EB000970B885E9340C8F221503040404050402C
:100EC00068517C4F211531054105510571F6089592
:100ED000019739F0880F991F880F991F0297019782
:100EE000F1F70895789484B5826084BD84B58160FB
:100EF00084BD85B5826085BD85B5816085BDEEE622
:100F0000F0E0808181608083E1E8F0E01082808100
:100F100082608083808181608083E0E8F0E080816E
:100F200081608083E1EBF0E0808184608083E0EB8E
:100F3000F0E0808181608083EAE7F0E08081846076
:100F400080838081826080838081816080838081D2
:100F5000806880831092C1000895CF93DF93482F5B
:100F600050E0CA0186569F4FFC0134914A575F4FAB
:100F7000FA018491882369F190E0880F991FFC01A0
:100F8000E859FF4FA591B491FC01EE58FF4FC59170
:100F9000D491662351F42FB7F8948C91932F9095A8
:100FA00089238C93888189230BC0623061F42FB729
:100FB000F8948C91932F909589238C938881832B1F
:100FC00088832FBF06C09FB7F8948C91832B8C9396
:100FD0009FBFDF91CF910895482F50E0CA018255FD
:100FE0009F4FFC012491CA0186569F4FFC019491AA
:100FF0004A575F4FFA013491332309F440C022234A
:1010000051F1233071F0243028F42130A1F0223046
:1010100011F514C02630B1F02730C1F02430D9F4D6
:1010200004C0809180008F7703C0809180008F7D05
:101030008093800010C084B58F7702C084B58F7D07
:1010400084BD09C08091B0008F7703C08091B0004B
:101050008F7D8093B000E32FF0E0EE0FFF1FEE587E
:10106000FF4FA591B4912FB7F894662321F48C918A
:101070009095892302C08C91892B8C932FBF089562
:10108000682F70E0CB0182559F4FFC012491CB016A
:1010900086569F4FFC0144916A577F4FFB01949104
:1010A000992319F420E030E03CC0222351F1233091
:1010B00071F0243028F42130A1F0223011F514C051
:1010C0002630B1F02730C1F02430D9F404C080912B
:1010D00080008F7703C0809180008F7D8093800097
:1010E00010C084B58F7702C084B58F7D84BD09C0E0
:1010F0008091B0008F7703C08091B0008F7D809386
:10110000B000892F90E0880F991F84589F4FFC01F1
:10111000A591B4918C9120E030E0842311F021E07E
:1011200030E0C9010895CF92DF92EF92FF920F93C2
:101130001F93CF93DF937C016B018A01C0E0D0E065
:101140000FC0D6016D916D01D701ED91FC91019019
:10115000F081E02DC7010995C80FD91F015010403B
:101160000115110571F7CE01DF91CF911F910F91FC
:10117000FF90EF90DF90CF900895EF92FF920F9342
:101180001F938C01DC01ED91FC910190F081E02D29
:101190006DE009957C01D801ED91FC910190F08101
:1011A000E02DC8016AE009959C012E0D3F1DC90183
:1011B0001F910F91FF90EF900895CF93DF93EC0173
:1011C0006115710519F420E030E00FC0DB010D90CE
:1011D0000020E9F71197A61BB70BE881F98102807F
:1011E000F381E02DAD0109959C01C901DF91CF91FB
:1011F00008950E94DD080895EF92FF920F931F93C8
:101200007C010E94DD088C01C7010E94BD08080F07
:10121000191FC8011F910F91FF90EF900895CF9370
:10122000DF930E9472070E943202CAE5D9E00E9451
:101230002A022097E1F30E945A09F9CF08951F92DC
:101240000F920FB60F9211242F933F934F938F93CA
:101250009F93EF93FF938091C00082FD1DC040914A
:10126000C60020918003309181032F5F3F4F2F7381
:10127000307080918203909183032817390771F0B1
:10128000E0918003F0918103E05CFC4F4083309358
:1012900081032093800302C08091C600FF91EF91EB
:1012A0009F918F914F913F912F910F900FBE0F9073
:1012B0001F901895E091D403F091D503E05CFF4FA7
:1012C0008191919120813181821B930B8F7390705A
:1012D000892B11F00E941E0908951F920F920FB6DC
:1012E0000F9211242F933F938F939F93EF93FF932C
:1012F0002091C4033091C5038091C6039091C70328
:101300002817390731F48091C1008F7D8093C10087
:1013100014C0E091C603F091C703EC57FC4F208145
:101320008091C6039091C70301968F73907090933C
:10133000C7038093C6032093C600FF91EF919F914E
:101340008F913F912F910F900FBE0F901F90189586
:10135000AF92BF92DF92EF92FF920F931F93CF93C2
:10136000DF93EC017A018B01DD24403081EE5807D8
:1013700080E0680780E0780711F0DD24D39491E0E5
:10138000A92EB12CEC89FD89DD2069F0C50108A0EA
:1013900002C0880F991F0A94E2F7808360E079E029
:1013A0008DE390E005C0108260E874E88EE190E083
:1013B000A80197010E942F0B21503040404050401F
:1013C000569547953795279580E12030380720F0CE
:1013D000DD2011F0DD24D6CFE889F9893083EA8950
:1013E000FB89208319A2EE89FF89408121E030E04A
:1013F000C9010C8C02C0880F991F0A94E2F7482B90
:101400004083EE89FF894081C9010D8C02C0880F9D
:10141000991F0A94E2F7482B4083EE89FF894081A7
:10142000C9010E8C02C0880F991F0A94E2F7482B5D
:101430004083EE89FF8980810F8C02C0220F331F09
:101440000A94E2F7209528232083DF91CF911F9102
:101450000F91FF90EF90DF90BF90AF900895DC0167
:101460001C96ED91FC911D97E05CFF4F219131910D
:1014700080819181281B390B2F733070C901089529
:10148000DC011C96ED91FC911D97E05CFF4F2081E3
:101490003181E054F040DF01AE5BBF4F8D919C91F4
:1014A00011972817390719F42FEF3FEF07C08D91D7
:1014B0009C91E80FF91F8081282F30E0C901089521
:1014C000DC011C96ED91FC911D97E05CFF4F2081A3
:1014D0003181E054F040DF01AE5BBF4F8D919C91B4
:1014E00011972817390719F42FEF3FEF10C08D918E
:1014F0009C911197E80FF91F20818D919C91119774
:1015000001968F73907011969C938E9330E0C90171
:101510000895DC0191968C919197882339F0549627
:10152000ED91FC915597808186FFF9CF91961C92A1
:101530000895CF93DF93EC01EE85FF85E05CFF4FCC
:1015400020813181E054F0402F5F3F4F2F73307086
:10155000DF01AE5BBF4F8D919C9111972817390722
:10156000D1F3E05CFF4F80819181E054F040E80FBF
:10157000F91F6083EE85FF85E05CFF4F3183208398
:10158000EE89FF89208181E090E00F8C02C0880FF6
:10159000991F0A94E2F7282B208381E089A3EC8924
:1015A000FD8980818064808381E090E0DF91CF912C
:1015B00008951092CB031092CA0388EE93E0A0E046
:1015C000B0E08093CC039093CD03A093CE03B0936F
:1015D000CF038AE592E09093C9038093C80380E427
:1015E00093E09093D5038093D40384E893E09093A1
:1015F000D7038093D60385EC90E09093D903809332
:10160000D80384EC90E09093DB038093DA0380ECC2
:1016100090E09093DD038093DC0381EC90E0909365
:10162000DF038093DE0382EC90E09093E1038093EC
:10163000E00386EC90E09093E3038093E20384E080
:101640008093E40383E08093E50387E08093E603DF
:1016500085E08093E70381E08093E8030895A1E2A9
:101660001A2EAA1BBB1BFD010DC0AA1FBB1FEE1F1C
:10167000FF1FA217B307E407F50720F0A21BB30B67
:10168000E40BF50B661F771F881F991F1A9469F7E3
:1016900060957095809590959B01AC01BD01CF013F
:1016A0000895EE0FFF1F0590F491E02D0994F89432
:0216B000FFCF6A
:1016B200486F6C6420627574746F6E20666F72205E
:1016C200357320746F2073687574646F776E205061
:1016D200692E2E2E72656C6561736520746F20729F
:1016E200657374617274206A75737420656D6F6EB0
:1016F20050692041546D65676133323800486F6C20
:101702006420746F2073687574646F776E0052651D
:101712006C6561736520746F207265736574002E49
:101722002E2E3500357320746F2073687574646FC4
:10173200776E002E2E2E3400347320746F2073685F
:101742007574646F776E002E2E2E330033732074FF
:101752006F2073687574646F776E002E2E2E3200C0
:10176200327320746F2073687574646F776E003102
:101772007320746F2073687574646F776E002E2EF9
:101782002E310053485554444F574E210052617335
:1017920070626572727950690053687574646F770C
:1017A2006E204E4F572100506F776572204F66664C
:1017B2000041546D6567613332382053746172742D
:1017C200757000493243204C43442048616E642DB9
:1017D2006F766572207465737400426F6F74696E00
:1017E200672E2E2E2E00000000000C03DB02940256
:1017F2009D02B202C30200000000EE059308000041
:1018020040001400540000000000990A93082F0AB7
:06181200600A400A890A89
:00000001FF
