:100000000C94F6000C94FC140C9429150C941E010D
:100010000C941E010C941E010C9447010C941E01BB
:100020000C941E010C941E010C941E010C941E01D4
:100030000C941E010C941E010C941E010C941E01C4
:100040000C9456150C941E010C9460180C94921884
:100050000C941E010C941E010C941E010C941E01A4
:100060000C941E010C941E01010402000302048A78
:10007000050506C30B2019421E2C25802E882F2D26
:10008000370038003C8F3D106F2000005EBCE261FD
:100090003FDD83C29C7E20A3FD1F419DC3217FFCC9
:1000A000A2401E5F01E3BD3E6082DC237D9FC14212
:1000B0001CFEA0E1BF5D0380DE3C62BEE0025CDFAF
:1000C00081633D7C22C09E1D43A1FF4618FAA427F0
:1000D000799BC584DA3866E5BB5907DB856739BA91
:1000E000E406581947A5FB7826C49A653BD98704CE
:1000F0005AB8E6A7F91B45C6987A24F8A6441A9977
:10010000C7257B3A6486D85B05E7B98CD2306EEDA3
:10011000B3510F4E10F2AC2F7193CD114FADF37060
:100120002ECC92D38D6F31B2EC0E50AFF1134DCE79
:1001300090722C6D33D18F0C52B0EE326C8ED05346
:100140000DEFB1F0AE4C1291CF2D73CA947628AB5F
:10015000F517490856B4EA6937D58B5709EBB53618
:10016000688AD495CB2977F4AA4816E9B7550B8845
:10017000D6346A2B7597C94A14F6A8742AC89615FE
:100180004BA9F7B6E80A54D7896B35000000080080
:10019000020100000304070000000000000000014D
:1001A000020408102040800102040810200102040B
:1001B00008102004040404040404040202020202DD
:1001C00002030303030303000000002300260029A9
:1001D0000000000000250028002B00000000002483
:1001E0000027002A00005D08C218780811241FBEED
:1001F000CFEFD8E0DEBFCDBF13E0A0E0B1E0E0EE8E
:10020000F2E402C005900D92A63AB107D9F726E0B4
:10021000A6EAB3E001C01D92A43AB207E1F711E0EB
:10022000CAEED1E004C02297FE010E94181FC63E0C
:10023000D107C9F70E9406190C9463210C940000A1
:100240000F931F930E94A0150091AA031091AB0376
:100250002091AC033091AD03601B710B820B930BAB
:100260006F3671058105910578F08091AE038F5F3F
:100270008093AE030E94A0156093AA037093AB0312
:100280008093AC039093AD031F910F9108951F923B
:100290000F920FB60F9211242F933F934F935F93BA
:1002A0006F937F938F939F93AF93BF93EF93FF933E
:1002B0000E940909FF91EF91BF91AF919F918F919A
:1002C0007F916F915F914F913F912F910F900FBE52
:1002D0000F901F9018958FEF0E94C80B48E167EBB5
:1002E00073E080E00E948A0B82E00E94A90B80915B
:1002F000B203811102C00C94C80B0895CF92DF9213
:10030000EF92FF920F931F93CF93DF93EB0100E0E7
:1003100010E0C12CD12C76010C171D077CF480E075
:100320000E943D16DC01B2509D010E94ED1EC60EDA
:10033000D71EE81EF91E0F5F1F4FEECFC701B60193
:100340000E94101D6B017C01BE01882777FD8095FE
:10035000982F0E94121D9B01AC01C701B6010E949B
:10036000771CDF91CF911F910F91FF90EF90DF905D
:10037000CF900C942D1EAF92BF92CF92DF92EF924E
:10038000FF920F931F93CF93DF93CDB7DEB7ADB638
:10039000BEB661E086E00E94831661E083E10E94C0
:1003A000831662E083E00E9483161092CE031092BF
:1003B000CD0361E086E00E94BC1626E040E855E2ED
:1003C00060E070E083E096E00E94FE174091D10368
:1003D0005091D2038DB79EB7841B950B0FB6F8943E
:1003E0009EBF0FBE8DBF0DB71EB70F5F1F4F20E022
:1003F00030E0B80183ED93E00E94E31B2091D1032C
:100400003091D2038091CF039091D003F801AF01D6
:10041000401B510B4217530734F44191840F911D37
:1004200047FD9A95F4CF9093D0038093CF036CE06F
:1004300071E083E096E00E94531922E030E047E645
:1004400056E666E070E483E096E00E944B1B6CE2A7
:1004500071E083E096E00E94601965E371E083E05B
:1004600096E00E9460196BE471E083E096E00E94E0
:10047000601962E088E00E94831662E089E00E94D1
:10048000831688E00E94F216892B29F480910601D8
:1004900081508093060189E00E94F216892B19F49D
:1004A00081E080932B0480912B04882361F080E00D
:1004B00090E0A2E0B3E48093070190930801A09339
:1004C0000901B0930A016AE070E080E090E00E94C8
:1004D000CF1520E436E04091CF0361E08091060122
:1004E0000E941F0B0AE010E01093B8030093B703BB
:1004F00048E167EB73E080E00E948A0B64E670E0FD
:1005000080E090E00E94CF150150110968F782E069
:100510000E94A90B1092B8031092B70381E00E94C9
:100520003D16181619064CF481E08093B6038091AD
:10053000AF038F5F8093AF0302C01092B60382E0D7
:100540000E943D16181619064CF481E08093B503FD
:100550008091AF038F5F8093AF0302C01092B50309
:1005600083E00E943D16181619064CF481E0809332
:10057000B4038091AF038F5F8093AF0302C01092EA
:10058000B40384E00E943D16181619064CF481E06D
:100590008093B3038091AF038F5F8093AF0302C05A
:1005A0001092B3038091AF03811103C081E0809367
:1005B000B60380E197E20E94B40860E086E00E9402
:1005C000BC1664EF76E080E090E00E947E0122E5B8
:1005D00038EB4EE55FE30E94C61D6B017C0120E015
:1005E00030E044EB52E40E94C21D181624F481E06E
:1005F0008093B20302C01092B2038091B2038823A9
:10060000D1F00AE010E061E086E00E94BC1668ECE0
:1006100070E080E090E00E94CF1560E086E00E94EC
:10062000BC166CE271E080E090E00E94CF150150B2
:10063000110949F714C068EE73E080E090E00E9471
:10064000CF1561E086E00E94BC1660ED77E080E0A7
:1006500090E00E94CF1560E086E00E94BC1661E049
:1006600083E10E94BC1664E670E080E090E00E94A6
:10067000CF158AE094E00E944E1360E08AE094E097
:100680000E94B6138AE094E00E94DC11873008F0E3
:1006900086E08093D90310E08091D903181760F4A5
:1006A00088E0189FB001112466527C4F8DE194E0E0
:1006B0000E942A11811109C264EF71E080E090E08C
:1006C0000E94CF1560E083E10E94BC168091D9039F
:1006D000811103C01092B00303C081E08093B00386
:1006E00081E08093B1036DE571E083E096E00E94C4
:1006F000531922E030E04DEC5CEC65EB72E483E0F2
:1007000096E00E944D1B67E671E083E096E00E9450
:10071000531922E030E04DEC5CEC65EB72E483E0D1
:1007200096E00E944D1B61E771E083E096E00E9435
:10073000531922E030E04DEC5CEC65EB72E483E0B1
:1007400096E00E944D1B6BE771E083E096E00E940B
:10075000531922E030E049E25CE565E871E483E0AA
:1007600096E00E944D1B68EE73E080E090E00E94EE
:10077000CF1565E871E083E096E00E94531920E010
:1007800030E0B701A60183E096E00E944B1B6AE2CD
:1007900071E083E096E00E9460198091B2038823A3
:1007A000D9F161EA71E083E096E00E9460196DEC96
:1007B00071E083E096E00E94601980912B04882309
:1007C00031F065EF71E083E096E00E94601965E02A
:1007D00072E083E096E00E94531940910701509126
:1007E00008016091090170910A0122E030E083E084
:1007F00096E00E944D1B6CE072E083E096E00E9460
:10080000531922E030E04AE959E969ED7FE383E0DA
:1008100096E00E944D1B1FC06AE172E083E096E003
:100820000E9460196CE472E083E096E00E94531924
:100830004AE050E066EE83E096E00E94421A6AE2E7
:1008400071E083E096E00E9460196CE572E083E05D
:1008500096E00E9460198091AF03811103C063E9A3
:1008600072E024C08091B603882331F064EA72E01C
:1008700083E096E00E9460198091B503882331F0EF
:1008800062EB72E083E096E00E9460198091B4030D
:10089000882331F060EC72E083E096E00E946019FA
:1008A0008091B303882331F06EEC72E083E096E030
:1008B0000E9460198091B003882379F06CED72E09A
:1008C00083E096E00E9453194AE050E06091D9031A
:1008D00083E096E00E94491A06C065EF72E083E06B
:1008E00096E00E9460196DE271E083E096E00E945C
:1008F00060196BE073E083E096E00E9453194AE0D0
:1009000050E06091060183E096E00E94421A62E1A5
:1009100073E083E096E00E9453196AE173E083E09C
:1009200096E00E94531961E273E083E096E00E9432
:1009300053196091CF037091D0034AE050E083E0F7
:1009400096E00E941D1A6CE273E083E096E00E943C
:1009500053198091B003882371F06CE473E083E055
:1009600096E00E9453194AE050E06091D90383E079
:1009700096E00E94421A63EF72E083E096E00E94E4
:10098000601964EF71E080E090E00E94CF158091E3
:10099000B603882351F02DEC3CEC45EB52E461E0CA
:1009A00070E080E495E00E94EA0B8091B503882313
:1009B00051F02DEC3CEC45EB52E462E070E084EE4B
:1009C00094E00E94EA0B8091B403882351F02DEC4F
:1009D0003CEC45EB52E463E070E088E894E00E9470
:1009E000EA0B8091B303882351F029E23CE545E806
:1009F00051E464E070E08CE294E00E94EA0B8091A4
:100A0000B203882309F463C08091B6038823A1F060
:100A100020910701309108014091090150910A018C
:100A20001AE9E12E19E9F12E09ED1FE360E070E00B
:100A300080E495E00E94CE0B8091B5038823A1F05D
:100A400020910701309108014091090150910A015C
:100A50001AE9E12E19E9F12E09ED1FE360E070E0DB
:100A600084EE94E00E94CE0B8091B4038823A1F021
:100A700020910701309108014091090150910A012C
:100A80001AE9E12E19E9F12E09ED1FE360E070E0AB
:100A900088E894E00E94CE0B8091B3038823B9F0DC
:100AA00020910701309108014091090150910A01FC
:100AB0001AE9E12E19E9F12E09ED1FE360E070E07B
:100AC0008CE294E00E94CE0B02C01F5FE5CD42E0B5
:100AD00050E060E271E081E00E94CC1488EB9BE082
:100AE0009093C2038093C1039093C4038093C30384
:100AF0009093C6038093C5039093C8038093C70364
:100B00009093CA038093C9039093CC038093CB0343
:100B10000FB6F894BEBE0FBEADBEDF91CF911F9150
:100B20000F91FF90EF90DF90CF90BF90AF9008951E
:100B3000CF92DF92EF92FF9298E0899FB00111244B
:100B400066527C4F8AE094E00E94C8146B017C01DD
:100B500020E030E04AEF52E40E94731C87FF16C089
:100B600020E030E04CE552ECC701B6010E94C21D06
:100B7000181664F420E030E040E251E4C701B60109
:100B80000E94C61D0E94DF1CCB0100C0FF90EF90A9
:100B9000DF90CF900895CF92DF92EF92FF920F9364
:100BA0001F93CF93DF930E94A0156B017C0180916E
:100BB000B203882351F068EC70E080E090E00E947E
:100BC000CF151092C0031092BF038091B603882303
:100BD00009F441C08091B203882359F140ED57E0F8
:100BE0006EE170E080E495E00E94210C6091400588
:100BF0007091410580914205909143050E94DF1C50
:100C00007093B8036093B70320E030E048EC52E4FF
:100C100060914C0570914D0580914E0590914F0566
:100C20000E94C61D0E94DF1C7093C0036093BF0327
:100C300012C06EE776E080E495E00E94F20E20E0BC
:100C400030E046E653E40E94C61D0E94DF1C70930C
:100C5000B8036093B7038091B503882309F441C0BA
:100C60008091B203882359F140ED57E06EE170E0C6
:100C700084EE94E00E94210C6091E4047091E504FC
:100C80008091E6049091E7040E94DF1C7093BA0300
:100C90006093B90320E030E048EC52E46091F00446
:100CA0007091F1048091F2049091F3040E94C61DAA
:100CB0000E94DF1C7093C0036093BF0312C06EE7F5
:100CC00076E084EE94E00E94F20E20E030E046E60A
:100CD00053E40E94C61D0E94DF1C7093BA03609308
:100CE000B9038091B403882309F441C08091B20311
:100CF000882359F140ED57E06EE170E088E894E018
:100D00000E94210C609188047091890480918A046A
:100D100090918B040E94DF1C7093BC036093BB0313
:100D200020E030E048EC52E4609194047091950426
:100D300080919604909197040E94C61D0E94DF1C2A
:100D40007093C0036093BF0312C06EE776E088E83B
:100D500094E00E94F20E20E030E046E653E40E9468
:100D6000C61D0E94DF1C7093BC036093BB0380917F
:100D7000B303882309F441C08091B203882359F159
:100D800040ED57E06EE170E08CE294E00E94210CAF
:100D900060912C0470912D0480912E0490912F0469
:100DA0000E94DF1C7093BE036093BD0320E030E01F
:100DB00048EC52E4609138047091390480913A040F
:100DC00090913B040E94C61D0E94DF1C7093C003DB
:100DD0006093BF0312C06EE776E08CE294E00E945D
:100DE000F20E20E030E046E653E40E94C61D0E9469
:100DF000DF1C7093BE036093BD038091B203811129
:100E000016C087E00E943D16BC01882777FD8095BB
:100E1000982F0E94121D2BE23BE64EE25FE30E94F8
:100E2000C61D0E94DF1C7093C0036093BF038091B6
:100E3000B0038823D1F161E083E10E94BC1682E314
:100E400090E00E94B4080AED13E0C0E0D0E0809189
:100E5000D90390E0C817D90754F44BE0B8018AE0F1
:100E600094E00E94D8122196085F1F4FF0CF8AE0CD
:100E700094E00E94371487E791E00E94B408C0E034
:100E80008091D903C81768F48C2F0E949805EC2F25
:100E9000F0E0EE0FFF1FEF53FC4F91838083CF5F95
:100EA000EFCF60E083E10E94BC168091AE038823FF
:100EB00081F0F8942091AE038091CD039091CE0300
:100EC000820F911D9093CE038093CD031092AE03B9
:100ED00078948091B103882309F4B2C06091B7037C
:100EE0007091B8034AE050E083E096E00E94151A42
:100EF00063EF72E083E096E00E9453196091B903BA
:100F00007091BA034AE050E083E096E00E94151A1F
:100F100063EF72E083E096E00E9453196091BB0397
:100F20007091BC034AE050E083E096E00E94151AFD
:100F300063EF72E083E096E00E9453196091BD0375
:100F40007091BE034AE050E083E096E00E94151ADB
:100F500063EF72E083E096E00E9453196091BF0353
:100F60007091C0034AE050E083E096E00E94151AB9
:100F700063EF72E083E096E00E9453196091CD0325
:100F80007091CE034AE050E083E096E00E94151A8B
:100F900063EF72E083E096E00E9453198091B00302
:100FA000811133C063EF72E083E096E00E94531931
:100FB0000E94A015AB01BC018091A6039091A703EC
:100FC000A091A803B091A903481B590B6A0B7B0B96
:100FD0002AE030E083E096E00E94351A0E94A015D6
:100FE0006093A6037093A7038093A8039093A9032B
:100FF00063EF72E083E096E00E94601962E370E0C4
:1010000080E090E00E94CF151BC0C0E08091D90322
:10101000C81740F6EC2FF0E0EE0FFF1FEF53FC4F28
:10102000608171814AE050E083E096E00E94151AE9
:1010300063EF72E083E096E00E945319CF5FE6CF42
:101040008091B203882371F061E086E00E94BC16B3
:1010500068EC70E080E090E00E94CF1560E086E0F0
:101060000E94BC160E946B010E94A015A701960168
:10107000261B370B480B590BCA01B9016455794D32
:101080008F4F9F4F2091B203222351F0DF91CF91D8
:101090001F910F91FF90EF90DF90CF900C94CF15A0
:1010A000CB01845F9140DF91CF911F910F91FF9011
:1010B000EF90DF90CF900C94B40865E08DE194E060
:1010C0000E9407116DE174E08AE094E00E94CD1166
:1010D0006CE573E083ED93E00E94CD1B8091D70314
:1010E0009091D80301969093D2038093D1030895F1
:1010F00083ED93E00C945F1B83FF02C098E2892785
:1011000087FD06C080649091600090939C0502C0AA
:1011100080919C0594B7977F94BFF894909160005C
:101120009861909360008093600078940895EAE756
:10113000F0E0908180818F77808383B7817F8460A6
:1011400083BFF89483B7816083BF85B7806685BF0E
:1011500085B78F79806485BF7894889583B78E7FB3
:1011600083BF90937A000895DF92EF92FF920F93DE
:101170001F93CF93DF938C01EC0128E0E22EF12C3A
:10118000C031D10538F19E01D12C2032310538F023
:10119000D39489E0D81619F036952795F6CF10929A
:1011A0009D058D2D0E947C080E9497088FEF0E945C
:1011B0007C08C70102C0880F991FDA94E2F7C81BA8
:1011C000D90B20919D05222319F0C81BD90BD8CF2C
:1011D00080E001C081E04091FB055091FC056091E9
:1011E000FD057091FE050C1B1D0B400F511F611D6D
:1011F000711D4093FB055093FC056093FD057093B2
:10120000FE05DF91CF911F910F91FF90EF90DF903E
:10121000089580919D058F5F80939D050895862791
:10122000682F62956827062E669566956025062EBE
:10123000669560256770082E892F669507946795D7
:10124000902D862706946795902586270895E8981F
:101250002A988EBD0DB407FEFDCF8EB56EBD0DB4C0
:1012600007FEFDCF8EB52A9AE89A089560E00C94A7
:10127000270988E20E943609807521F080E00E94EB
:101280003609F7CF0895CF93C82F81E00E94360921
:10129000682F637E6C2B81E8CF910C94270922E0A4
:1012A000660F771F881F991F2A95D1F729E03DE324
:1012B00040E050E00E94AC1E66E0220F331F441F46
:1012C000551F6A95D1F72093A7053093A805409341
:1012D000A9055093AA0508958091A005853021F4B1
:1012E0008091A105882311F080E0089584E0809327
:1012F000A0050E94430981E008959091A00581E036
:1013000094300CF080E00895882311F080E001C053
:1013100084E00E94430984E08093A0050895CF9360
:10132000DF932A9A229A2A9A84B18C6284B980E542
:101330008CBD8DB581608DBD6AEA8FEA0E94270958
:101340008FE20E9436098A3AB9F765E58FEA0E9472
:1013500027098FE20E9436098535B9F7C8E6D0E043
:10136000FE018491882339F03196649180680E944F
:1013700027092296F5CF6091A60580EB0E942709E8
:101380008091A7059091A805A091A905B091AA0503
:10139000BD018827992787E80E9427098091A70522
:1013A0009091A805A091A905B091AA05692F7A2F5F
:1013B0008B2F992788E80E9427096091A70589E863
:1013C0000E94270984E08093A005DF91CF910895C2
:1013D000CF93DF93EC018091A005843019F0853024
:1013E00021F14DC01092AE051092A1056091A605A5
:1013F0008FEF9FEF0E940F099093A4058093A305A0
:10140000D0939F05C0939E0585E08093A0050E9420
:10141000390960E885EA0E94270980E10E944309B2
:1014200062E08EE90E9427092AC08091AE052091D2
:10143000A10590E0049630E08217930724F0809194
:10144000A1058834E0F084E08093A0050E94430960
:101450008091AE058334B0F48091A3059091A405EA
:10146000892B81F48091AD0586FF0FC09091A50571
:101470009F3159F08091AD058F71891731F08FEF51
:101480009FEF05C081E090E002C080E090E0DF9136
:10149000CF910895CF934093AE05FB0120E030E05B
:1014A00050E02417350744F4D901A155BA4F919162
:1014B0009C932F5F3F4FF5CF86FD04C0807E9091B7
:1014C000A505890F8093AD056091A6058FEF9FEF6D
:1014D0000E940F099093A4058093A3059091AE05F7
:1014E0008EEF891B8093A0050E9439098CE00E9431
:1014F000430960E085EA0E9427098091A0058330B6
:10150000DCF588E20E94360987FDF7CF8091A005BF
:1015100087FF1BC09091AE058091A005E0919E05CC
:10152000F0919F05E90FF11DE80FF11D87FDFA9578
:10153000C3816C2F8091A3059091A4050E940F098F
:101540009093A4058093A3050DC08091A0058823E6
:1015500029F0813031F4C091A40504C0C091A305E5
:1015600001C0CAEA6C2F80E80E9427098091A0057B
:101570008F5F8093A005C1CFCF9108958091A00582
:10158000853009F04DC060E485EA0E94270984E2B5
:101590000E9436098093A205789488E20E94360959
:1015A0008075D9F38091A10581110FC0E0919E054E
:1015B000F0919F058091A10591E0980F9093A1056E
:1015C0009091A605E80FF11D908380E00E943609F6
:1015D000E0919E05F0919F059091A10521E0290FD2
:1015E0002093A105E90FF11D8083682F8091A30549
:1015F0009091A4050E940F099093A4058093A305E0
:101600008091AE052091A10590E0049630E082170C
:101610009307A4F08091A105883408F4BECF089503
:1016200088E20E94360983FF09C084E08093A00508
:101630000E94430960E885EA0C9427090895CF9237
:10164000DF92EF92FF921F93CF93DF93C82F162F55
:10165000D42FF901AFEFA60FA33028F4B0E0A558BE
:10166000BC4FAC9101C0A0E0B0E020E836E948E909
:1016700050E00E940B1F6B017C01212F30E0A4EC95
:10168000B9E00E94F51EDF019B01AC010E940B1F17
:10169000C60ED71EE81EF91EC701B6010E944F09EB
:1016A000D093A6058C2F8F718093A50564E170E01F
:1016B00080E090E00E94CF158091A505882341F03D
:1016C00043E050E06EEB7AE080E00E94CC1403C06F
:1016D00080E00E94EC140E948F09C093AB058C2F10
:1016E000DF91CF911F91FF90EF90DF90CF90089501
:1016F0008CEA95E00E94E8099093F5058093F40543
:101700002091F4053091F50581E02F3F3F4F09F41A
:1017100080E00895EF92FF921F93CF93DF931F9283
:10172000CDB7DEB7182F7B0149830E946C09498130
:10173000811105C049830E94780B4981F5CFB7011B
:10174000812F0F90DF91CF911F91FF90EF900C941C
:101750004A0ACF93C82F0E947D098823B9F0CC2371
:10176000D1F383B7817FC33021F0C23021F49CE0F4
:1017700003C094E001C090E0892B83BF83B78160F0
:1017800083BF889583B78E7F83BFE5CFCF910895C0
:1017900091E0811190E0892F0C948409EF92FF92DF
:1017A0000F931F93FC01758B648B208F318F428FB9
:1017B000538FE0A2F1A202A313A340E050E060E047
:1017C00074E444AB55AB66AB77AB1F910F91FF90C0
:1017D000EF900895FC01778B668B248F358F468FB1
:1017E000578F40E050E060E074E440AF51AF62AF2B
:1017F00073AF08958EE480937C0062E070E080E037
:1018000090E00E94CF1580917A00806480937A00E6
:1018100080917A0086FDFCCF80917800209179003C
:1018200030E0322F2227442737FD4095542F282BB4
:1018300060E070E381E190E00E94CE1ECA01B90130
:1018400008952F923F924F925F926F927F928F9264
:101850009F92AF92BF92CF92DF92EF92FF920F933F
:101860001F93CF93DF93CDB7DEB7A8970FB6F89449
:10187000DEBF0FBECDBF98A78FA37E8F6D8F8A016D
:101880000E94FA0B6D8B7E8B8F8B988F0E94A01518
:101890004B015C016FA078A428E5620E711CC801A1
:1018A000A0E0B0E0898B9A8BAB8BBC8BAFA1B8A5C5
:1018B00054968C910E943D16F30191838083BC0164
:1018C000882777FD8095982F0E94121D6B017C015F
:1018D0002DEC3CEC4CE054E40E94731C87FF0BC0E1
:1018E00011E026E636E646EE53E4C701B6010E9453
:1018F000C21D18160CF010E00E94A0156819790995
:101900008A099B0929893A894B895C8926173707F7
:101910004807590708F040C00E94A015698F7A8FC8
:101920008B8F9C8F00E010E01A8219824FA158A57E
:10193000405C5F4F58A34F8F8FA198A58C5B9F4F42
:101940009C878B87AFA1B8A5A85BBF4FBAA3A9A3FB
:10195000EFA1F8A5E45BFF4FFE87ED872FA138A527
:10196000205B3F4F3CA32BA34FA158A54C5A5F4F80
:10197000588B4F878FA198A5865A9F4F9E838D8342
:101980002FA038A49BE5290E311CAFA1B8A5A85AF9
:10199000BF4FBEA3ADA344C1112309F487CFBCCF71
:1019A0000E94A015298D3A8D4B8D5C8D621B730BA7
:1019B000840B950B29893A894B895C8962177307D7
:1019C0008407950708F034C10F5F1F4FEFA1F8A5FA
:1019D00084A595A5A6A5B7A580A791A7A2A7B3A7FB
:1019E00084890E943D16AFA1B8A595969C938E93CD
:1019F000949756968C910E943D163C01EFA1F8A554
:101A000097A386A324A135A13A872987B9018827FE
:101A100077FD8095982F0E94121D6B017C01AFA16C
:101A2000B8A5D4968D909D90AD90BC90D797A50108
:101A300094010E940E1C20E030E040E85AE30E942E
:101A4000C61D9B01AC01C501B4010E940F1C9B0186
:101A5000AC01EFA1F8A564AB75AB86AB97ABC70142
:101A6000B6010E940E1C4B015C01AFA1B8A59C966B
:101A70006D937D938D939C939F97B301882777FDFA
:101A80008095982F0E94121D6B017C01EFA1F8A593
:101A900040AC51AC62AC73ACA30192010E940E1C2D
:101AA00020E030E040E85AE30E94C61D9B01AC01F3
:101AB000C301B2010E940F1C9B01AC01AFA1B8A5EC
:101AC000D8966D937D938D939C93DB97C701B60158
:101AD0000E940E1C6B017C01EFA1F8A560AB71ABFD
:101AE00082AB93ABA5019401C501B4010E94C61D50
:101AF0009B01AC01AF8DB8A16D937D938D939C93A9
:101B00001397EB85FC8560817181828193810E94AE
:101B10000F1CAB85BC856D937D938D939C93139720
:101B2000A7019601C701B6010E94C61D9B01AC0129
:101B3000E9A1FAA16083718382839383AD85BE8519
:101B40006D917D918D919C910E940F1CED85FE857C
:101B50006083718382839383AFA1B8A598964D90DB
:101B60005D906D907C909B97A3019201C501B4019B
:101B70000E940E1CEFA1F8A520A131A142A153A102
:101B80000E94C61D9B01AC01C301B2010E940F1C43
:101B9000AFA1B8A5DC966D937D938D939C93DF9751
:101BA000A70196010E94C61D9B01AC01EBA1FCA1FF
:101BB0006083718382839383AF85B8896D917D91B2
:101BC0008D919C910E940F1CEF85F8896083718331
:101BD00082839383D1018C91ED81FE818083ADA1BD
:101BE000BEA18D919C91E985FA858E179F070CF017
:101BF000F6C021E0F10120830130110529F4F10143
:101C00008081AD81BE818C93ED81FE819081D10177
:101C10008C91981729F0E981FA813196FA83E9834A
:101C200029813A814D8D5E8D2417350708F4B8CE91
:101C3000AD89BE89BD01882777FD8095982F0E94C8
:101C4000121D20E030E04AE754E40E94771C20E0B7
:101C500030E040E85AE30E94C61D2B013C01EFA191
:101C6000F8A5208D318D428D538D0E94C61D4B01EC
:101C70005C01B80180E090E00E94101D6B017C01C6
:101C80002FA038A4F4E42F0E311C9B01AC01D1012C
:101C90006D917D918D919C910E94771C0E942D1ECB
:101CA0009B01AC01C501B4010E94C61D69837A8302
:101CB0008B839C83EFA1F8A56487758786879787B8
:101CC000248D358D468D578DC301B2010E94C61DEE
:101CD0002B013C010FA118A5045B1F4FA701960122
:101CE000D8016D917D918D919C910E94771C0E94ED
:101CF0002D1E9B01AC01C301B2010E94C61D6D8364
:101D00007E838F839887EFA1F8A5608B718B828B80
:101D1000938BA3019201C501B4010E94C61DAFA01F
:101D2000B8A4F4E5AF0EB11CD5012D913D914D91B4
:101D30005C910E94C61DA70196010E94771C6B0151
:101D40007C01EFA1F8A560837183828393832D8149
:101D50003E814F81588569817A818B819C810E9467
:101D6000C61D9B01AC01AFA1B8A514966D937D93E0
:101D70008D939C931797C701B6010E94771CEFA122
:101D8000F8A56087718782879387D1011D921D9284
:101D90001D921C921397F8011082118212821382F5
:101DA000D5011D921D921D921C921397A8960FB6F5
:101DB000F894DEBF0FBECDBFDF91CF911F910F9181
:101DC000FF90EF90DF90CF90BF90AF909F908F905B
:101DD0007F906F905F904F903F902F900895D1012A
:101DE0001C920ACF2F923F924F925F926F927F92F6
:101DF0008F929F92AF92BF92CF92DF92EF92FF921B
:101E00000F931F93CF93DF9300D000D000D0CDB7B6
:101E1000DEB79E838D837A8369830E94FA0B2B0140
:101E20003C0100E010E08D819E81845B9F4F1C018E
:101E3000ED81FE81E85BFF4FFC83EB8389819A8112
:101E40000817190709F455C0ED81FE8186890E94A3
:101E50003D16ED81FE8197A386A3BC01882777FDFF
:101E60008095982F0E94121D6B017C01ED81FE81EF
:101E700080AC91ACA2ACB3ACA50194010E940E1C45
:101E800020E030E040E85AE30E94C61D9B01AC010F
:101E9000C501B4010E940F1C9B01AC01ED81FE81C4
:101EA00060AF71AF82AF93AFC701B6010E940E1C45
:101EB000ED81FE8160AB71AB82AB93AB9B01AC015A
:101EC0000E94C61D9B01AC01EB81FC816083718384
:101ED00082839383F10160817181828193810E9469
:101EE0000F1CF10160837183828393830F5F1F4F07
:101EF000A5CFB80180E090E00E94101D9B01AC01CD
:101F0000F10160817181828193810E94771C0E941E
:101F10002D1E6B017C01B201882777FD8095982FDB
:101F20000E94121D20E030E04AE754E40E94771C32
:101F300020E030E040E85AE30E94C61DED81FE81BA
:101F4000248D358D468D578D0E94C61DA7019601A3
:101F50000E94C61DED81FE81608B718B828B938BFD
:101F6000F101108211821282138226960FB6F89424
:101F7000DEBF0FBECDBFDF91CF911F910F91FF90BC
:101F8000EF90DF90CF90BF90AF909F908F907F9019
:101F90006F905F904F903F902F900895FF920F9316
:101FA0001F93CF93DF93FC010081C181D281F8940C
:101FB0008981F02EF0948F21898378941DE7115048
:101FC00029F182E090E00E94F71588818023B9F31F
:101FD000F8948A818F218A838981802B89837894E0
:101FE00080EE91E00E94F715F89489818F21898312
:101FF00086E490E00E94F7158881802311E009F0C3
:1020000010E078948AE991E00E94F715812FDF9122
:10201000CF911F910F91FF9008951F93CF93DF935E
:10202000FC011081C181D281912F909560FF12C077
:10203000F8948A8189238A838981812B89838AE024
:1020400090E00E94F7158A81812B8A83789487E338
:1020500090E011C0F8948A8189238A838981812B39
:10206000898381E490E00E94F7158A81812B8A831D
:10207000789485E090E0DF91CF911F910C94F71553
:102080000F931F93CF93DF93FC011081C181D28105
:10209000F8948981812B89838A81012F009580237F
:1020A0008A8383E090E00E94F715898180238983E9
:1020B0008AE090E00E94F715C881789485E390E06B
:1020C0000E94F7151C2381E009F480E0DF91CF9195
:1020D0001F910F910895CF92DF92EF92FF920F938D
:1020E0001F93CF93DF931F92CDB7DEB76C01E62E1F
:1020F00008E010E0FF24F39461E09F2D9E2109F495
:1021000060E0C60149830E940D10FF0C01501109C7
:1021100049810115110581F7411115C0F894D601C7
:102120001196ED91FC91129791818C918095892364
:1021300081831196ED91FC91129792818C918095FB
:102140008923828378940F90DF91CF911F910F9113
:10215000FF90EF90DF90CF900895EF92FF920F9352
:102160001F93CF93DF938C01C8E0D0E0F12CEE24D5
:10217000E394C8010E9440108111FE28EE0C2197C3
:10218000C1F78F2DDF91CF911F910F91FF90EF90AD
:102190000895CF92DF92FF920F931F93CF93DF9317
:1021A0001F92CDB7DEB78C01F62E40E065E579834E
:1021B0000E946B10CF2C7981D72E88E0F82EF60183
:1021C00061916F0140E0C8010E946B10FA94B9F769
:1021D0000F90DF91CF911F910F91FF90DF90CF90E3
:1021E000089540E06CEC0C946B10FC01138615868E
:1021F000148627E030E0DF01A20FB31F13961C9274
:102200002115310519F021503109F5CF08951F939B
:10221000CF93DF93EC01162F60E0812F0E9483168D
:10222000612F70E0FB01E156FE4FE491E883FB0172
:10223000ED54FE4FE491F0E0EE0FFF1FE953FE4F27
:10224000859194919A838983CE01DF91CF911F91DB
:102250000C94F510AF92BF92CF92DF92EF92FF9263
:102260000F931F93CF93DF931F92CDB7DEB75C011F
:10227000D62EE72EFC01858581115DC0C5010E9427
:10228000CE0F811105C0F5011386158614866CC02A
:1022900040E060EFC5010E946B1001E0F12CC12C01
:1022A00011E0C5010E944010682FC50169830E949A
:1022B00040106981613019F48130B9F433C02F2D99
:1022C00030E068131BC0F5018385181730F4E20F66
:1022D000F31F8381802349F402C0181731F060E0B6
:1022E000193058F4F501148708C0F501EF0DF11D00
:1022F0008381802B838361E009C0C12EF501E20F49
:10230000F31F8381902F909589238383C5010E94B9
:102310000D101F5F000F11F4F39401E0F7E0FF15BB
:1023200008F0BFCF113438F0F501C386C11009C0E1
:1023300081E0858706C0F50113861586148680E046
:1023400013C0F50183818823B1F3ED2DFE2D80E0CC
:1023500090E0D501A80FB91F13962C9121930196F7
:1023600088309105B1F781E00F90DF91CF911F91F7
:102370000F91FF90EF90DF90CF90BF90AF900895B6
:10238000DC0180E0615038F0ED91E827F0E0E5579E
:10239000FF4F8491F7CF08950895FC018CEC91E1F3
:1023A000928B818B768365831482108289E081838E
:1023B00081E0828383830895FC0184810895CF9313
:1023C000DF93EB0167E0CE010E94C01191E02F8105
:1023D000821390E0892FDF91CF910895CF92DF9201
:1023E000EF92FF920F931F93CF93DF9300D0CDB75F
:1023F000DEB76C01F42EE52EFC01858196816983A0
:102400007A830E94CE0F69817A81882311F1F601C7
:10241000858196810E94C91040E06EEBF6018581AE
:1024200096810E946B100F2D1E2D89E0F82EF6016B
:10243000858196810E94AD10F80181938F01FA94F5
:10244000B1F7F601858196810E94CE0F91E081302F
:1024500009F090E0892F0F900F90DF91CF911F919D
:102460000F91FF90EF90DF90CF900895CF93DF937F
:10247000EA010E94EE11882351F068E0CE010E942B
:10248000C01191E02885821390E0892F01C080E07F
:10249000DF91CF910895EF92FF920F931F93CF9307
:1024A000DF93EC018B017A018D819E810E94CE0F1A
:1024B000B8018D819E810E94C91040E06EE48D813B
:1024C0009E810E946B1040E0F70162818D819E81A8
:1024D0000E946B1040E0F70163818D819E810E9414
:1024E0006B10F8018081803139F040E0F7016481A0
:1024F0008D819E810E946B108D819E810E94CE0FE6
:10250000B8018D819E810E94C910488168E48D8147
:102510009E810E946B1064E170E080E090E00E9478
:10252000CF158881882331F06AE070E080E090E088
:102530000E94CF158D819E81DF91CF911F910F91C8
:10254000FF90EF900C94CE0FEF92FF921F93CF93DA
:10255000DF9300D0CDB7DEB77C01FC018581968189
:1025600069837A830E94CE0F69817A81F701858120
:1025700096810E94C91040E064EBF7018581968145
:102580000E946B10F701858196810E944010182FE0
:10259000F701858196810E94CE0F81E0111180E0C4
:1025A0000F900F90DF91CF911F91FF90EF900895C2
:1025B000EF92FF920F931F93CF93DF93CDB7DEB7C8
:1025C0002A970FB6F894DEBF0FBECDBF7C018B01FA
:1025D000242FAE014F5F5F4F2A870E9436122A8553
:1025E0008823D1F0F80180818031C1F02B3041F097
:1025F0002C3021F02A3031F48FE305C08FE703C07F
:102600008FE501C08FE18D83AE014F5F5F4FB80151
:10261000C7010E944B1202C080E001C081E02A96EF
:102620000FB6F894DEBF0FBECDBFDF91CF911F91E3
:102630000F91FF90EF900895CF93DF93CDB7DEB762
:1026400029970FB6F894DEBF0FBECDBFFB012081E6
:102650002031D1F0AE014F5F5F4F0E9436128823C8
:1026600079F08D818F3351F020F48F3149F489E076
:102670000CC08F3539F08F3739F002C08AE005C0C1
:1026800080E003C08BE001C08CE029960FB6F8947F
:10269000DEBF0FBECDBFDF91CF910895EF92FF92C5
:1026A0000F931F93CF93DF93CDB7DEB761970FB62C
:1026B000F894DEBF0FBECDBF8C01FC0185819681F1
:1026C0000E94F510F8011482FF24F394BE01665FA6
:1026D0007F4FF801858196810E942A118823C9F1D4
:1026E000BE01665F7F4FC8010E94DF11882371F32E
:1026F000F8018081811108C0BE01665F7F4FC8016B
:102700000E94A412811122C0AE014F5F5F4FBE0133
:10271000665F7F4FC8010E94EE11F801E180BE01A3
:10272000665F7F4FC8010E941C138E1518F4F801D4
:10273000818106C0BE01665F7F4FC8010E941C13E5
:10274000F801818384818F5F8483C0CFF801F08298
:10275000DBCF61960FB6F894DEBF0FBECDBFDF9121
:10276000CF911F910F91FF90EF900895FC0162832C
:102770000895CF93DF93CDB7DEB729970FB6F894BE
:10278000DEBF0FBECDBFAE014F5F5F4F0E94EE11A7
:1027900081E09981911101C080E029960FB6F894EB
:1027A000DEBF0FBECDBFDF91CF9108958F929F9274
:1027B000AF92BF92CF92DF92EF92FF920F931F934F
:1027C000CF93DF93EC018A016950633048F4E62F20
:1027D000F0E0EE0FFF1FE258FC4F8080918004C0B4
:1027E0009EEE892E92E0992E0115110501F18B8143
:1027F0008823E9F0888181111AC00E94A0156B011D
:102800007C01AA2497FCA094BA2CB801CE010E94A6
:10281000B91381111FC00E94A015681979098A098E
:102820009B096C157D058E059F05A0F4EECFB401C4
:10283000882777FD8095982FDF91CF911F910F9179
:10284000FF90EF90DF90CF90BF90AF909F908F90D0
:102850000C94CF15DF91CF911F910F91FF90EF90C6
:10286000DF90CF90BF90AF909F908F900895CF93BF
:10287000DF93EC018D819E810E94CE0F8D819E8120
:102880000E94F110488164E48D819E810E946B104A
:102890008A81882341F040E050E06981CE01DF91D8
:1028A000CF910C94D613DF91CF910895FA01208136
:1028B00048E0249F90011124818190E0982F88277F
:1028C000990F990F990F282B392BDB018C918031AF
:1028D000C1F4678170E08681AB01481B5109CA01D0
:1028E0009695982F8827979587950E94981E6051F6
:1028F0007109207F53E0220F331F5A95E1F7260F0D
:10290000371FC9010895EF92FF920F931F93CF9342
:10291000DF93CDB7DEB729970FB6F894DEBF0FBEB1
:10292000CDBF8C017B01AE014F5F5F4F0E9436121D
:10293000882341F0AE014F5F5F4FB701C8010E948D
:10294000561402C080E894EE29960FB6F894DEBFC4
:102950000FBECDBFDF91CF911F910F91FF90EF90F0
:102960000895813824EE920774F0BC01882777FD22
:102970008095982F0E94121D20E030E040E05CE33B
:102980000E94C61D089560E070E08EEF92EC0895FD
:102990000E9483140C94B1148230E8F4E82FF0E024
:1029A000EE0FFF1FEA50FA4F71836083813041F0D0
:1029B000809169008C7F842B80936900E89A089548
:1029C00080916900440F551F440F551F837F842B4E
:1029D00080936900E99A0895823068F4813011F09B
:1029E000E89801C0E998E82FF0E0EE0FFF1FEA50E9
:1029F000FA4F1182108208951F920F920FB60F9214
:102A000011242F933F934F935F936F937F938F93F3
:102A10009F93AF93BF93EF93FF938091F6059091AF
:102A2000F705892B29F0E091F605F091F705099556
:102A3000FF91EF91BF91AF919F918F917F916F9196
:102A40005F914F913F912F910F900FBE0F901F906C
:102A500018951F920F920FB60F9211242F933F9348
:102A60004F935F936F937F938F939F93AF93BF9396
:102A7000EF93FF938091F8059091F905892B29F048
:102A8000E091F805F091F9050995FF91EF91BF915B
:102A9000AF919F918F917F916F915F914F913F91F6
:102AA0002F910F900FBE0F901F9018951F920F92AD
:102AB0000FB60F9211242F933F938F939F93AF9351
:102AC000BF938091FB059091FC05A091FD05B0910D
:102AD000FE053091FA0523E0230F2D3720F40196EF
:102AE000A11DB11D05C026E8230F0296A11DB11D31
:102AF0002093FA058093FB059093FC05A093FD05B8
:102B0000B093FE058091FF0590910006A09101060B
:102B1000B09102060196A11DB11D8093FF0590930F
:102B20000006A0930106B0930206BF91AF919F915A
:102B30008F913F912F910F900FBE0F901F9018957E
:102B40002FB7F8946091FB057091FC058091FD050D
:102B50009091FE052FBF08953FB7F8948091FF052F
:102B600090910006A0910106B091020626B5A89B9F
:102B700005C02F3F19F00196A11DB11D3FBF66276B
:102B8000782F892F9A2F620F711D811D911D42E0B0
:102B9000660F771F881F991F4A95D1F70895CF9226
:102BA000DF92EF92FF92CF93DF936B017C010E9443
:102BB000AC15EB01C114D104E104F10489F00E94C9
:102BC0000D1C0E94AC156C1B7D0B683E734090F38E
:102BD00081E0C81AD108E108F108C851DC4FEACFFA
:102BE000DF91CF91FF90EF90DF90CF9008958230EA
:102BF000910538F0880F991F880F991F0597019745
:102C0000F1F70895789484B5826084BD84B58160BD
:102C100084BD85B5826085BD85B5816085BDEEE6E4
:102C2000F0E0808181608083E1E8F0E010828081C3
:102C300082608083808181608083E0E8F0E0808131
:102C400081608083E1EBF0E0808184608083E0EB51
:102C5000F0E0808181608083EAE7F0E08081846039
:102C60008083808182608083808181608083808195
:102C7000806880831092C10008958E3008F08E50D5
:102C8000877020910B0190E4299F90011124822BE1
:102C900080937C0080917A00806480937A00809198
:102CA0007A0086FDFCCF809178002091790090E039
:102CB000922B0895833081F028F4813099F082308E
:102CC000A1F008958730A9F08830B9F08430D1F4AC
:102CD000809180008F7D03C0809180008F778093EA
:102CE0008000089584B58F7702C084B58F7D84BD40
:102CF00008958091B0008F7703C08091B0008F7DE0
:102D00008093B0000895CF93DF9390E0FC01E156EB
:102D1000FE4F2491FC01ED54FE4F8491882349F12C
:102D200090E0880F991FFC01E552FE4FA591B491E8
:102D30008F529E4FFC01C591D4919FB7611108C07D
:102D4000F8948C91209582238C93888182230AC0E9
:102D5000623051F4F8948C91322F309583238C9308
:102D60008881822B888304C0F8948C91822B8C9369
:102D70009FBFDF91CF9108950F931F93CF93DF9360
:102D80001F92CDB7DEB7282F30E0F901E557FE4F8F
:102D90008491F901E156FE4F1491F901ED54FE4F73
:102DA00004910023C9F0882321F069830E945A16F8
:102DB0006981E02FF0E0EE0FFF1FEF52FE4FA5916B
:102DC000B4919FB7F8948C91611103C01095812341
:102DD00001C0812B8C939FBF0F90DF91CF911F91EA
:102DE0000F910895CF93DF93282F30E0F901E55735
:102DF000FE4F8491F901E156FE4FD491F901ED5453
:102E0000FE4FC491CC2391F081110E945A16EC2FF1
:102E1000F0E0EE0FFF1FE953FE4FA591B4912C9106
:102E20002D2381E090E021F480E002C080E090E07A
:102E3000DF91CF910895FC01818D228D90E0805C1F
:102E40009F4F821B91098F7399270895FC01918DE3
:102E5000828D981731F0828DE80FF11D858D90E0FD
:102E600008958FEF9FEF0895FC01918D828D981743
:102E700061F0828DDF01A80FB11D5D968C91928D5E
:102E80009F5F9F73928F90E008958FEF9FEF08955B
:102E900088EB98E1892B49F080E090E0892B29F0BC
:102EA0000E94B81881110C9400000895FC01848DD3
:102EB000DF01A80FB11DA35ABF4F2C91848D90E064
:102EC00001968F739927848FA689B7892C93A0893F
:102ED000B1898C9180648C93938D848D981306C0F6
:102EE0000288F389E02D80818F7D80830895CF93C0
:102EF000DF93EC01888D8823C9F0EA89FB89808102
:102F000085FD05C0A889B9898C9186FD0FC00FB6D3
:102F100007FCF5CF808185FFF2CFA889B9898C9114
:102F200085FFEDCFCE010E945617E7CFDF91CF91FD
:102F30000895CF92DF92FF920F931F93CF93DF9369
:102F40001F92CDB7DEB76C0181E0D60158968C9305
:102F500058975B969C915B975C968C915C979813C5
:102F600007C05096ED91FC915197808185FD2EC050
:102F7000F601038D10E00F5F1F4F0F731127F02E26
:102F8000F601848DF81211C00FB607FCF9CFD601F7
:102F90005096ED91FC915197808185FFF1CFC6014C
:102FA00069830E9456176981EBCF838DE80FF11D6D
:102FB000E35AFF4F6083D6015B960C935B97529662
:102FC000ED91FC915397808180620CC0D60156969A
:102FD000ED91FC91579760835096ED91FC9151973C
:102FE00080818064808381E090E00F90DF91CF91B9
:102FF0001F910F91FF90DF90CF900895BF92CF92D5
:10300000DF92EF92FF92CF93DF93EC016A017B0195
:10301000B22EE889F98982E08083411581EE580754
:1030200061057105A1F060E079E08DE390E0A70112
:1030300096010E94AC1E2150310941095109569553
:10304000479537952795211580E1380798F0E8894D
:10305000F989108260E874E88EE190E0A70196019A
:103060000E94AC1E215031094109510956954795DE
:1030700037952795EC85FD853083EE85FF85208388
:10308000188EEC89FD89B082EA89FB898081806194
:103090008083EA89FB89808188608083EA89FB8953
:1030A000808180688083EA89FB8980818F7D80832D
:1030B000DF91CF91FF90EF90DF90CF90BF90089578
:1030C0001F920F920FB60F9211242F938F939F93FD
:1030D000EF93FF93E0911306F09114068081E09145
:1030E0001906F0911A0682FD12C0908180911C068B
:1030F0008F5F8F7320911D06821751F0E0911C069F
:10310000F0E0ED5FF94F958F80931C0601C0808140
:10311000FF91EF919F918F912F910F900FBE0F9084
:103120001F9018951F920F920FB60F9211242F9394
:103130003F934F935F936F937F938F939F93AF933F
:10314000BF93EF93FF9383E096E00E945617FF91A1
:10315000EF91BF91AF919F918F917F916F915F910F
:103160004F913F912F910F900FBE0F901F90189588
:1031700083E096E00E941B1721E0892B09F420E0F0
:10318000822F0895109206061092050688EE93E0AD
:10319000A0E0B0E08093070690930806A09309068C
:1031A000B0930A0688E893E09093040680930306A0
:1031B00085EC90E09093100680930F0684EC90E0ED
:1031C000909312068093110680EC90E09093140681
:1031D0008093130681EC90E0909316068093150679
:1031E00082EC90E0909318068093170686EC90E0AE
:1031F00090931A068093190610921C0610921D06D1
:1032000010921E0610921F06089508950E9402163D
:103210000E9405190E94BB01C8E4D7E10E94CB05BA
:103220002097E1F30E944817F9CFCF92DF92EF92F7
:10323000FF920F931F93CF93DF936C017A01EB0101
:10324000E60EF71E00E010E0CE15DF0561F0699193
:10325000D601ED91FC910190F081E02DC601099518
:10326000080F191FF1CFC801DF91CF911F910F9166
:10327000FF90EF90DF90CF9008956115710581F078
:10328000DB010D900020E9F7AD0141505109461BCB
:10329000570BDC01ED91FC910280F381E02D099444
:1032A00080E090E008950C943D19DC01ED91FC91D3
:1032B0000190F081E02D099464E973E00C943D19CC
:1032C0000F931F93CF93DF93EC010E943D198C0164
:1032D000CE010E945C19800F911FDF91CF911F9149
:1032E0000F9108958F929F92AF92BF92CF92DF92EB
:1032F000EF92FF920F931F93CF93DF93CDB7DEB77B
:10330000A1970FB6F894DEBF0FBECDBF7C01C42ECF
:10331000E52FCB01D22E19A221E02D1510F02AE0C5
:10332000D22E8E010F5D1F4F8D2C912CA12CB12C14
:103330006C2D7E2FA50194010E94AC1E8C2DD29E77
:1033400080191124015011098A3014F4805D01C0E4
:10335000895CF8018083211531054105510521F073
:10336000C22EE32FCA01E4CFB801C7010E943D1964
:10337000A1960FB6F894DEBF0FBECDBFDF91CF91FF
:103380001F910F91FF90EF90DF90CF90BF90AF9083
:103390009F908F900895CF92DF92EF92FF920F93BC
:1033A0001F93CF93DF93EC016A017B012115310557
:1033B00079F4E881F9810190F081E02D642FDF91AB
:1033C000CF911F910F91FF90EF90DF90CF900994D4
:1033D0002A303105E9F477FF1AC06DE20E945519D1
:1033E0008C0144275527BA014C195D096E097F09E4
:1033F0002AE0CE010E947219800F911FDF91CF91B8
:103400001F910F91FF90EF90DF90CF9008952AE0E9
:10341000B701A601CE01DF91CF911F910F91FF90CF
:10342000EF90DF90CF900C9472199A01AB01662750
:1034300057FD6095762F0C94CB190F931F93CF9364
:10344000DF93EC019A01AB01662757FD6095762F5B
:103450000E94CB198C01CE010E945C19800F911F34
:10346000DF91CF911F910F9108952115310541F4FE
:10347000DC01ED91FC910190F081E02D642F099425
:103480000C9472199A01462F50E060E070E00C94A1
:10349000351A0F931F93CF93DF93EC019A01462FB8
:1034A00050E060E070E00E94351A8C01CE010E946D
:1034B0005C19800F911FDF91CF911F910F9108959B
:1034C0004F925F926F927F928F929F92AF92BF9234
:1034D000CF92DF92EF92FF920F931F93CF93DF93E0
:1034E000EC016A017B01B22E9A01AB01C701B60162
:1034F0000E946B1E882319F067E973E027C026013C
:103500003701E89477F82FEF3FEF4FE75FE7C3010C
:10351000B2010E946B1E81110DC02FEF3FEF4FE7EC
:103520005FE7C301B2010E94731C18161CF46BE91B
:1035300073E00CC02FEF3FEF4FE75FE4C701B60128
:103540000E94C21D1816ACF46FE973E0CE01DF9142
:10355000CF911F910F91FF90EF90DF90CF90BF9090
:10356000AF909F908F907F906F905F904F900C9452
:103570003D192FEF3FEF4FE75FECC701B6010E9407
:10358000731C87FDE1CF20E030E0A901C701B6013F
:103590000E94731C87FF0AC06DE2CE010E9455197C
:1035A0008C01F7FAF094F7F8F09402C000E010E014
:1035B000A12C60E070E080E09FE3AB1441F020E0DC
:1035C00030E040E251E40E94771CA394F6CF9B01C7
:1035D000AC01C701B6010E940F1C6B017C010E9467
:1035E000E41C2B013C010E94101D9B01AC01C70192
:1035F000B6010E940E1C6B017C012AE0B301A201FE
:10360000CE010E947219080F191FBB2039F063EA1E
:1036100073E0CE010E943D19080F191F7B2C772003
:1036200041F120E030E040E251E4C701B6010E94E0
:10363000C61D6B017C010E94DF1C4B01AA2497FC74
:10364000A094BA2C2AE030E0B501A401CE010E947A
:10365000CB19080F191FC501B4010E94121D9B014F
:10366000AC01C701B6010E940E1C6B017C017A946B
:10367000D6CFC801DF91CF911F910F91FF90EF90AE
:10368000DF90CF90BF90AF909F908F907F906F9082
:103690005F904F9008950C94601A0F931F93CF93EF
:1036A000DF93EC010E94601A8C01CE010E945C192C
:1036B000800F911FDF91CF911F910F910895FC0111
:1036C000808191810C94B41FCF93DF93EC018881AA
:1036D0009981009711F00E94B41F198218821D82EF
:1036E0001C821B821A82DF91CF9108950F931F9342
:1036F000CF93DF93EC018B016F5F7F4F88819981BE
:103700000E944320009731F0998388831B830A83AA
:1037100081E001C080E0DF91CF911F910F9108956A
:10372000CF93DF93EC0188819981892B29F08A81DD
:103730009B818617970760F4CE010E94761B882331
:1037400041F08C819D81892B19F4E881F9811082E7
:1037500081E0DF91CF910895EF92FF920F931F9335
:10376000CF93DF93EC017B018A01BA010E94901B89
:10377000811104C0CE010E94641B07C01D830C830D
:10378000B701888199810E941621CE01DF91CF91E6
:103790001F910F91FF90EF900895FC01118210820C
:1037A00013821282158214826115710559F0FB0192
:1037B00001900020E9F7AF0141505109461B570B1A
:1037C0000C94AC1B08950F931F93CF93DF93EB01E1
:1037D00041155105E9F02097D9F0FC01648175810C
:1037E00026173707A0F4621B730B8A0101501109D9
:1037F0006017710708F48B01FC0160817181620F11
:10380000731FA801CE010E941D21C00FD11F188275
:10381000DF91CF911F910F91089508955058BB27C4
:10382000AA270ED075C166D130F06BD120F031F4EB
:103830009F3F11F41EF45BC10EF4E095E7FB51C10C
:10384000E92F77D180F3BA176207730784079507CA
:1038500018F071F49EF58FC10EF4E0950B2EBA2F7F
:10386000A02D0B01B90190010C01CA01A001112486
:10387000FF27591B99F0593F50F4503E68F11A1632
:10388000F040A22F232F342F4427585FF3CF4695C3
:1038900037952795A795F0405395C9F77EF41F16E5
:1038A000BA0B620B730B840BBAF09150A1F0FF0FAF
:1038B000BB1F661F771F881FC2F70EC0BA0F621F9B
:1038C000731F841F48F4879577956795B795F7958B
:1038D0009E3F08F0B3CF9395880F08F09927EE0F1D
:1038E000979587950895D9D008F481E008950CD074
:1038F0000FC107D140F0FED030F021F45F3F19F046
:10390000F0C0511139C1F3C014D198F39923C9F310
:103910005523B1F3951B550BBB27AA2762177307D5
:10392000840738F09F5F5F4F220F331F441FAA1F89
:10393000A9F333D00E2E3AF0E0E830D09150504049
:10394000E695001CCAF729D0FE2F27D0660F771FF7
:10395000881FBB1F261737074807AB07B0E809F0D9
:10396000BB0B802DBF01FF2793585F4F2AF09E3F6E
:10397000510568F0B6C000C15F3FECF3983EDCF340
:10398000869577956795B795F7959F5FC9F7880FE7
:10399000911D9695879597F90895E1E0660F771F39
:1039A000881FBB1F621773078407BA0720F0621BCA
:1039B000730B840BBA0BEE1F88F7E095089504D0C3
:1039C0006894B111D9C00895BCD088F09F5790F089
:1039D000B92F9927B751A0F0D1F0660F771F881F34
:1039E000991F1AF0BA95C9F712C0B13081F0C3D04F
:1039F000B1E00895C0C0672F782F8827B85F39F0ED
:103A0000B93FCCF3869577956795B395D9F73EF492
:103A100090958095709561957F4F8F4F9F4F08953A
:103A2000E89409C097FB3EF4909580957095619558
:103A30007F4F8F4F9F4F9923A9F0F92F96E9BB270E
:103A40009395F695879577956795B795F111F8CF8A
:103A5000FAF4BB0F11F460FF1BC06F5F7F4F8F4FF5
:103A60009F4F16C0882311F096E911C0772321F0EB
:103A70009EE8872F762F05C0662371F096E8862F83
:103A800070E060E02AF09A95660F771F881FDAF7DA
:103A9000880F9695879597F90895990F0008550F07
:103AA000AA0BE0E8FEEF16161706E807F907C0F0C4
:103AB00012161306E407F50798F0621B730B840BCC
:103AC000950B39F40A2661F0232B242B252B21F4A6
:103AD00008950A2609F4A140A6958FEF811D811D46
:103AE000089597F99F6780E870E060E008959FEF80
:103AF00080EC089500240A94161617061806090685
:103B0000089500240A941216130614060506089553
:103B1000092E0394000C11F4882352F0BB0F40F4DB
:103B2000BF2B11F460FF04C06F5F7F4F8F4F9F4F1B
:103B3000089557FD9058440F551F59F05F3F71F09D
:103B40004795880F97FB991F61F09F3F79F0879504
:103B50000895121613061406551FF2CF4695F1DF8D
:103B600008C0161617061806991FF1CF869571051D
:103B7000610508940895E894BB2766277727CB0151
:103B800097F908958ADF08F48FEF08950BD0C0CF1E
:103B9000B1DF28F0B6DF18F0952309F0A2CFA7CF48
:103BA0001124EACFC6DFA0F3959FD1F3950F50E023
:103BB000551F629FF001729FBB27F00DB11D639FDF
:103BC000AA27F00DB11DAA1F649F6627B00DA11D85
:103BD000661F829F2227B00DA11D621F739FB00D2B
:103BE000A11D621F839FA00D611D221F749F33279B
:103BF000A00D611D231F849F600D211D822F762F34
:103C00006A2F11249F5750408AF0E1F088234AF030
:103C1000EE0FFF1FBB1F661F771F881F915050407C
:103C2000A9F79E3F510570F05CCFA6CF5F3FECF344
:103C3000983EDCF3869577956795B795F795E79568
:103C40009F5FC1F7FE2B880F911D9695879597F979
:103C5000089511F40EF44BCF42C073DFD0F39923D3
:103C6000D9F3CEF39F57550B87FF47D00024A0E62A
:103C700040EA900180585695979528F4805C660F2D
:103C8000771F881F20F026173707480730F4621B7C
:103C9000730B840B202931294A2BA695179407947E
:103CA000202531254A2758F7660F771F881F20F0F7
:103CB00026173707480730F4620B730B840B200D6F
:103CC000311D411DA09581F7B901842F9158880FAE
:103CD000969587950895E1DE880B990B08959F3F8F
:103CE00031F0915020F4879577956795B795880FB7
:103CF000911D9695879597F9089591505040660FBC
:103D0000771F881FD2F70895AA1BBB1B51E107C07C
:103D1000AA1FBB1FA617B70710F0A61BB70B881F5B
:103D2000991F5A95A9F780959095BC01CD010895EA
:103D300097FB072E16F4009407D077FD09D00E9458
:103D4000841E07FC05D03EF4909581959F4F089501
:103D5000709561957F4F0895A1E21A2EAA1BBB1B97
:103D6000FD010DC0AA1FBB1FEE1FFF1FA217B30747
:103D7000E407F50720F0A21BB30BE40BF50B661F5D
:103D8000771F881F991F1A9469F760957095809521
:103D900090959B01AC01BD01CF010895052E97FBC5
:103DA0001EF400940E94E51E57FD07D00E94AC1E31
:103DB00007FC03D04EF40C94E51E509540953095C9
:103DC00021953F4F4F4F5F4F089590958095709587
:103DD00061957F4F8F4F9F4F08950E94F51E3323AB
:103DE00012F48A1B9B0B0C94061FA29FB001B39F79
:103DF000C001A39F700D811D1124911DB29F700DF4
:103E0000811D1124911D08950E94F51EB7FF08958C
:103E1000821B930B08950E94F51EA59F900DB49FE1
:103E2000900DA49F800D911D11240895EE0FFF1F8A
:103E30000590F491E02D0994CF93DF9382309105A2
:103E400010F482E090E0E091A206F091A30620E059
:103E500030E0A0E0B0E0309739F14081518148175F
:103E60005907B8F04817590771F482819381109768
:103E700029F013969C938E9312972CC09093A306CF
:103E80008093A20627C02115310531F04217530750
:103E900018F0A901DB0101C0EF019A01BD01DF01AA
:103EA0000280F381E02DD7CF21153105F9F0281BD1
:103EB000390B2430310580F48A819B8161157105AD
:103EC00021F0FB019383828304C09093A306809327
:103ED000A206FE01329644C0FE01E20FF31F819359
:103EE000919322503109398328833AC02091A0064A
:103EF0003091A106232B41F420910201309103015E
:103F00003093A1062093A006209100013091010179
:103F10002115310541F42DB73EB740910401509170
:103F20000501241B350BE091A006F091A106E217D4
:103F3000F307A0F42E1B3F0B2817390778F0AC01CC
:103F40004E5F5F4F2417350748F04E0F5F1F5093A9
:103F5000A1064093A0068193919302C0E0E0F0E0B7
:103F6000CF01DF91CF910895CF93DF93009709F4AC
:103F700087C0FC01329713821282C091A206D091B1
:103F8000A306209781F420813181280F391F809169
:103F9000A0069091A1068217930779F5F093A106E8
:103FA000E093A0066DC0DE0120E030E0AE17BF0751
:103FB00050F412964D915C9113979D014115510556
:103FC00009F1DA01F3CFB383A28340815181840FD9
:103FD000951F8A179B0771F48D919C911197840FFF
:103FE000951F02969183808312968D919C911397D1
:103FF000938382832115310529F4F093A306E0937E
:10400000A2063EC0D9011396FC93EE9312974D91F0
:104010005D91A40FB51FEA17FB0779F480819181A8
:10402000840F951F0296D90111969C938E938281DD
:10403000938113969C938E931297E0E0F0E08A812F
:104040009B81009719F0FE01EC01F9CFCE01029699
:1040500028813981820F931F2091A0063091A106FB
:104060002817390769F4309729F41092A3061092A3
:10407000A20602C013821282D093A106C093A006AA
:10408000DF91CF910895A0E0B0E0E9E4F0E20C9474
:104090003021EC01CB01209719F40E941C1FB8C0FD
:1040A000FE01E60FF71F9E0122503109E217F307C8
:1040B00008F4ACC0D9010D911C9111970617170790
:1040C000B8F00530110508F49FC0A801445051090B
:1040D0004617570708F498C002501109061B170B22
:1040E000019311936D937C93CF010E94B41F8CC0F8
:1040F0005B01A01AB10A4E01800E911EA091A2068A
:10410000B091A306612C712C60E070E0109709F467
:1041100049C0A815B905C9F5ED90FC901197670144
:1041200042E0C40ED11CCA14DB0478F147018A189E
:104130009B08640142E0C40ED11C1296BC901297F9
:104140001396AC91B5E0CB16D10440F0B282A383B4
:1041500091828082D9018D939C9309C00E5F1F4F7D
:104160000E0D1F1DF90111830083EB2DFA2F611530
:10417000710531F0DB011396FC93EE93129744C066
:10418000F093A306E093A2063FC06D917C91119736
:104190006616770608F43B01BD0112960D90BC919E
:1041A000A02DB4CF6091A0067091A1066815790585
:1041B000E9F468167906D0F44091000150910101AC
:1041C0004115510541F44DB75EB7609104017091FE
:1041D0000501461B570BE417F507C0F4F093A10641
:1041E000E093A006F901918380830EC00E941C1FFA
:1041F0007C01009759F0A801BE010E940D21CE015B
:104200000E94B41FC70104C0CE0102C080E090E04C
:10421000CDB7DEB7EEE00C944C21FB01DC0102C00F
:1042200001900D9241505040D8F70895FB01DC01F8
:1042300001900D920020E1F70895FB01DC0141504F
:10424000504048F001900D920020C9F701C01D9226
:1042500041505040E0F708952F923F924F925F9265
:104260006F927F928F929F92AF92BF92CF92DF9286
:10427000EF92FF920F931F93CF93DF93CDB7DEB7EB
:10428000CA1BDB0B0FB6F894DEBF0FBECDBF09947F
:104290002A88398848885F846E847D848C849B84D6
:1042A000AA84B984C884DF80EE80FD800C811B81E4
:1042B000AA81B981CE0FD11D0FB6F894DEBF0FBE13
:1042C000CDBFED01089511E0CAEED1E004C0FE01BA
:1042D0000E94181F2296CC3ED107C9F7F894FFCF51
:1042E0000000A40680000F297C864301656D6F6E77
:1042F00054782056332E3420446973637265746594
:104300002053616D706C696E672056002052464DD7
:1043100036394357004F70656E456E657267794D4B
:104320006F6E69746F722E6F726700504F53542E08
:104330002E2E2E2E77616974203130730043542065
:10434000312043616C2000435420322043616C20B3
:1043500000435420332043616C2000435420342018
:1043600043616C2000524D5320566F6C7461676539
:10437000206F6E2041432D4143202069733A207EF7
:104380000041432D41432064657465637465642076
:104390002D205265616C20506F776572206D6561CC
:1043A0007375726520656E61626C6564006173731C
:1043B000756D696E67207077722066726F6D20412F
:1043C000432D414320286A756D70657220636C6FC0
:1043D0007365642900555341206D6F6465206163E6
:1043E00074697665005663616C3A200050686173A9
:1043F000652053686966743A200041432D4143208B
:104400004E4F54206465746563746564202D2041AB
:1044100070706172656E7420507772206D65617383
:1044200075726520656E61626C65640041737375B9
:104430006D696E672056524D533A20004173737573
:104440006D696E6720706F7765722066726F6D2080
:1044500062617474202F20355620555342202D2040
:10446000706F776572207361766520656E61626C2E
:104470006564004E4F204354277320646574656360
:104480007465640043542031206465746563746509
:10449000640043542032206465746563746564006D
:1044A0004354203320646574656374656400435429
:1044B00020342064657465637465640044657465C4
:1044C000637465642054656D702053656E736F72FC
:1044D000733A2020004E6F2074656D7065726174B0
:1044E0007572652073656E736F72004E6F64653A06
:1044F000200020467265713A20003433334D687ACB
:1045000000204E6574776F726B3A2000435431205F
:1045100043543220435433204354342056524D5395
:104520002F424154542050554C5345002054656D42
:10453000706572617475726520312D005858585835
:1045400058585858585858585858585858585858EB
:1045500058585858585858585858002B565A5E00B2
:10456000BC00770100000000991715191B173417BC
:10457000261777170D0A006E616E00696E66006F70
:064580007666002E00002B
:00000001FF
