:100000000C946F000C9462050C948F050C9497006F
:100010000C9497000C9497000C9499000C94970002
:100020000C9497000C9497000C9497000C949700F4
:100030000C9497000C9497000C9497000C949700E4
:100040000C94BC050C9497000C946F080C94A108B8
:100050000C9497000C9497000C9497000C949700C4
:100060000C9497000C949700010402000302048A88
:10007000050506C30B2019421E2C25802E882F2D26
:10008000370038003C8F3D106F2000000000080052
:10009000020100000304070000000000000000014E
:1000A000020408102040800102040810200102040C
:1000B00008102004040404040404040202020202DE
:1000C0000203030303030300000000250028002BA4
:1000D0000000000000240027002A0000D10811249D
:1000E0001FBECFEFD8E0DEBFCDBF11E0A0E0B1E092
:1000F000EAE3F5E102C005900D92A23DB107D9F700
:1001000022E0A2EDB1E001C01D92A13EB207E1F7ED
:1001100010E0CEEDD0E004C02297FE010E94970AC5
:10012000CC3DD107C9F70E9415090C949B0A0C9489
:1001300000001F920F920FB60F9211242F933F933E
:100140004F935F936F937F938F939F93AF93BF93DF
:10015000EF93FF930E946B02FF91EF91BF91AF91DC
:100160009F918F917F916F915F914F913F912F91CF
:100170000F900FBE0F901F9018951F93CF93DF9392
:1001800026E040E056E960E070E084E492E00E94FE
:100190001308C6EAD1E01881229661E0812F0E94FF
:1001A000C10661E0812F0E94FA0681E0CE3AD807AD
:1001B00091F76FE071E084E492E00E946F0920E41F
:1001C00036E04091090160910E0180910D010E947D
:1001D000810480910801882309F455C06FE171E022
:1001E00084E492E00E946F096EE271E084E492E0A0
:1001F0000E9462094AE050E060910D0184E492E0BF
:100200000E94390A64E371E084E492E00E9462098A
:1002100080910E01813031F46BE371E084E492E06F
:100220000E94620980910E01823031F462E471E033
:1002300084E492E00E94620980910E01833031F4DF
:1002400069E471E084E492E00E94620960E571E093
:1002500084E492E00E9462094091090150910A01F0
:1002600060910B0170910C012AE030E084E492E08F
:100270000E94460A6CE271E084E492E0DF91CF9143
:100280001F910C946F09DF91CF911F910895BF9238
:10029000CF92DF92EF92FF920F931F93CF93DF9352
:1002A0000E94DA04882309F4A6C0B090EF0180917F
:1002B000350290913602892B09F096C06AE571E00B
:1002C00084E492E00E9462096CE271E084E492E0CE
:1002D0000E9462096091EE016F7170E04AE050E0A7
:1002E00084E492E00E94240A8091EE01853009F0B6
:1002F00079C06CE271E084E492E00E94620960E2FD
:1003000084E492E00E94640906EA11E090EFC92EAD
:1003100091E0D92E26E0E22E21E0F22EE6018C2F8C
:100320008C198B1530F5888190E0F70181939193BA
:100330007F01688170E04AE050E084E492E00E942E
:10034000400A60E284E492E00E94640960E284E48E
:1003500092E00E9464098881813011F460E001C05C
:1003600061E0F80180810E94FA060E5F1F4F21961E
:10037000D6CF6DE571E084E492E00E94620960915D
:10038000E30170E0759567957195619571094AE093
:1003900050E084E492E00E94240A6FE571E084E476
:1003A00092E00E94620984E492E00E946B098091CD
:1003B000EE0185FF17C08091EE0187FD13C061E853
:1003C00071E084E492E00E9462098091EE0186FD72
:1003D00014C08091EE018F71806C40E060E070E0AD
:1003E0000E94EC0481E00BC061E671E084E492E0DD
:1003F0000E946F0904C080E002C080E8EECFDF9168
:10040000CF911F910F91FF90EF90DF90CF90BF9011
:100410000895CF92DF92EF92FF920E9447010E94CF
:1004200006066B017C018091D2019091D301A091CD
:10043000D401B091D501A7019601281B390B4A0BB5
:100440005B0BDA01C901803D9740A105B105F0F1D0
:1004500069E871E084E492E00E946209C092D201EE
:10046000D092D301E092D401F092D501809106019F
:10047000909107019093D7018093D60180910A0152
:1004800090910B019093D9018093D80180910E0136
:1004900090910F019093DB018093DA01809112011A
:1004A000909113019093DD018093DC018FEF0E9406
:1004B0002C0548E066ED71E080E00E94EE0480E0EB
:1004C000FF90EF90DF90CF900C940D05FF90EF9090
:1004D000DF90CF9008958091DE018F5F8093DE01E1
:1004E00008958627682F62956827062E669566957B
:1004F0006025062E669560256770082E892F669503
:1005000007946795902D86270694679590258627F2
:100510000895E8982A988EBD0DB407FEFDCF8EB5DC
:100520006EBD0DB407FEFDCF8EB52A9AE89A0895E8
:1005300060E00C94890288E20E949802807521F0A4
:1005400080E00E949802F7CF0895CF93C82F81E0F2
:100550000E949802682F637E6C2B81E8CF910C94E7
:10056000890222E0660F771F881F991F2A95D1F70D
:1005700029E03DE340E050E00E94590A66E0220F86
:10058000331F441F551F6A95D1F72093E80130931C
:10059000E9014093EA015093EB0108958091E10154
:1005A000853021F48091E201882311F080E00895E4
:1005B00084E08093E1010E94A50281E0089590917A
:1005C000E10181E094300CF080E00895882311F07F
:1005D00080E001C084E00E94A50284E08093E101F4
:1005E0000895CF93DF932A9A229A2A9A84B18C6233
:1005F00084B980E58CBD8DB581608DBD6AEA8FEAD6
:100600000E9489028FE20E9498028A3AB9F765E552
:100610008FEA0E9489028FE20E9498028535B9F71D
:10062000C8E6D0E0FE018491882339F031966491C8
:1006300080680E9489022296F5CF6091E70180EBE5
:100640000E9489028091E8019091E901A091EA015C
:10065000B091EB01BD018827992787E80E948902A4
:100660008091E8019091E901A091EA01B091EB013C
:10067000692F7A2F8B2F992788E80E948902609131
:10068000E80189E80E94890284E08093E101DF911A
:10069000CF910895CF93DF93EC018091E1018430F5
:1006A00019F0853021F14DC01092EF011092E20156
:1006B0006091E7018FEF9FEF0E9471029093E50137
:1006C0008093E401D093E001C093DF0185E0809343
:1006D000E1010E949B0260E885EA0E94890280E1B4
:1006E0000E94A50262E08EE90E9489022AC08091E0
:1006F000EF012091E20190E0049630E08217930729
:1007000024F08091E2018834E0F084E08093E101FC
:100710000E94A5028091EF018334B0F48091E4013E
:100720009091E501892B81F48091EE0186FF0FC045
:100730009091E6019F3159F08091EE018F718917F8
:1007400031F08FEF9FEF05C081E090E002C080E0C4
:1007500090E0DF91CF910895CF934093EF01FB019B
:1007600020E030E050E02417350744F4D901A051CF
:10077000BE4F91919C932F5F3F4FF5CF86FD04C0F4
:10078000807E9091E601890F8093EE016091E701F0
:100790008FEF9FEF0E9471029093E5018093E40137
:1007A0009091EF018EEF891B8093E1010E949B02E3
:1007B0008CE00E94A50260E085EA0E948902809197
:1007C000E1018330DCF588E20E94980287FDF7CFD3
:1007D0008091E10187FF1BC09091EF018091E101C1
:1007E000E091DF01F091E001E90FF11DE80FF11D4B
:1007F00087FDFA95C3816C2F8091E4019091E5010A
:100800000E9471029093E5018093E4010DC08091F4
:10081000E101882329F0813031F4C091E50104C061
:10082000C091E40101C0CAEA6C2F80E80E948902ED
:100830008091E1018F5F8093E101C1CFCF91089555
:100840008091E101853009F04DC060E485EA0E94A5
:10085000890284E20E9498028093E301789488E2FE
:100860000E9498028075D9F38091E20181110FC036
:10087000E091DF01F091E0018091E20191E0980FB9
:100880009093E2019091E701E80FF11D908380E0E1
:100890000E949802E091DF01F091E0019091E20165
:1008A00021E0290F2093E201E90FF11D8083682FD9
:1008B0008091E4019091E5010E9471029093E5011D
:1008C0008093E4018091EF012091E20190E0049691
:1008D00030E082179307A4F08091E201883408F495
:1008E000BECF089588E20E94980283FF09C084E089
:1008F0008093E1010E94A50260E885EA0C948902D8
:100900000895CF92DF92EF92FF921F93CF93DF93E0
:10091000C82F162FD42FF901AFEFA60FA33028F45C
:10092000B0E0A255BE4FAC9101C0A0E0B0E020E81D
:1009300036E948E950E00E948A0A6B017C01212FC8
:1009400030E0A4ECB9E00E947B0ADF019B01AC011E
:100950000E948A0AC60ED71EE81EF91EC701B601FC
:100960000E94B102D093E7018C2F8F718093E60132
:1009700064E170E080E090E00E9435068091E6013D
:10098000882341F043E050E060E274E080E00E94A0
:10099000320503C080E00E9452050E94F102C0931C
:1009A000EC018C2FDF91CF911F91FF90EF90DF90A2
:1009B000CF9008958DEE91E00E944A039093360205
:1009C00080933502209135023091360281E02F3F2D
:1009D0003F4F09F480E008950C94AC03EF92FF922E
:1009E0001F93CF93DF931F92CDB7DEB7182F7B01F4
:1009F00049830E94CE024981811105C049830E942A
:100A0000DA044981F5CFB701812F0F90DF91CF91A3
:100A10001F91FF90EF900C94AC03CF93C82F0E94CE
:100A2000DF028823B9F0CC23D1F383B7817FC330B1
:100A300021F0C23021F49CE003C094E001C090E0BA
:100A4000892B83BF83B7816083BF889583B78E7FEF
:100A500083BFE5CFCF91089591E0811190E0892F78
:100A60000C94E6028230E8F4E82FF0E0EE0FFF1F6E
:100A7000E95CFD4F71836083813041F080916900B2
:100A80008C7F842B80936900E89A08958091690097
:100A9000440F551F440F551F837F842B809369009B
:100AA000E99A0895823068F4813011F0E89801C025
:100AB000E998E82FF0E0EE0FFF1FE95CFD4F11828F
:100AC000108208951F920F920FB60F9211242F9348
:100AD0003F934F935F936F937F938F939F93AF93C6
:100AE000BF93EF93FF938091370290913802892B47
:100AF00029F0E0913702F09138020995FF91EF91CA
:100B0000BF91AF919F918F917F916F915F914F9125
:100B10003F912F910F900FBE0F901F9018951F922D
:100B20000F920FB60F9211242F933F934F935F9321
:100B30006F937F938F939F93AF93BF93EF93FF93A5
:100B40008091390290913A02892B29F0E091390283
:100B5000F0913A020995FF91EF91BF91AF919F916A
:100B60008F917F916F915F914F913F912F910F9056
:100B70000FBE0F901F9018951F920F920FB60F92F5
:100B800011242F933F938F939F93AF93BF938091A3
:100B90003C0290913D02A0913E02B0913F02309103
:100BA0003B0226E0230F2D3720F40296A11DB11D34
:100BB00005C029E8230F0396A11DB11D20933B0218
:100BC00080933C0290933D02A0933E02B0933F027B
:100BD0008091400290914102A0914202B091430263
:100BE0000196A11DB11D8093400290934102A093F4
:100BF0004202B0934302BF91AF919F918F913F9179
:100C00002F910F900FBE0F901F9018952FB7F8944B
:100C100060913C0270913D0280913E0290913F02B2
:100C20002FBF08953FB7F894809140029091410200
:100C3000A0914202B091430226B5A89B05C02F3F68
:100C400019F00196A11DB11D3FBF6627782F892F8E
:100C50009A2F620F711D811D911D43E0660F771F52
:100C6000881F991F4A95D1F70895CF92DF92EF928E
:100C7000FF92CF93DF936B017C010E941206EB0180
:100C8000C114D104E104F10489F00E94580A0E94C1
:100C900012066C1B7D0B683E734090F381E0C81A0E
:100CA000D108E108F108C851DC4FEACFDF91CF91BC
:100CB000FF90EF90DF90CF900895789484B5826094
:100CC00084BD84B5816084BD85B5826085BD85B5F0
:100CD000816085BDEEE6F0E0808181608083E1E89F
:100CE000F0E01082808182608083808181608083D7
:100CF000E0E8F0E0808181608083E1EBF0E08081DA
:100D000084608083E0EBF0E0808181608083EAE7AB
:100D1000F0E0808184608083808182608083808134
:100D20008E7F80838081806880831092C1000895C7
:100D3000833081F028F4813099F08230A1F0089559
:100D40008730A9F08830B9F08430D1F480918000E8
:100D50008F7D03C0809180008F77809380000895FD
:100D600084B58F7702C084B58F7D84BD089580914E
:100D7000B0008F7703C08091B0008F7D8093B0006A
:100D80000895CF93DF9390E0FC01E156FF4F24914B
:100D9000FC01ED54FF4F8491882349F190E0880FC6
:100DA000991FFC01EF52FF4FA591B49189539F4FBA
:100DB000FC01C591D4919FB7611108C0F8948C9142
:100DC000209582238C93888182230AC0623051F45B
:100DD000F8948C91322F309583238C938881822BC9
:100DE000888304C0F8948C91822B8C939FBFDF91F1
:100DF000CF9108950F931F93CF93DF931F92CDB799
:100E0000DEB7282F30E0F901E557FF4F8491F90153
:100E1000E156FF4F1491F901ED54FF4F0491002367
:100E2000C9F0882321F069830E9498066981E02F28
:100E3000F0E0EE0FFF1FE953FF4FA591B4919FB76C
:100E4000F8948C91611103C01095812301C0812B0E
:100E50008C939FBF0F90DF91CF911F910F910895B9
:100E6000FC01818D228D90E0805C9F4F821B910957
:100E70008F7399270895FC01918D828D981731F019
:100E8000828DE80FF11D858D90E008958FEF9FEF23
:100E90000895FC01918D828D981761F0828DDF019C
:100EA000A80FB11D5D968C91928D9F5F9F73928F5D
:100EB00090E008958FEF9FEF089587EC98E0892BDD
:100EC00049F080E090E0892B29F00E94C708811149
:100ED0000C9400000895FC01848DDF01A80FB11D62
:100EE000A35ABF4F2C91848D90E001968F73992760
:100EF000848FA689B7892C93A089B1898C9180644D
:100F00008C93938D848D981306C00288F389E02D0D
:100F100080818F7D80830895CF93DF93EC01888D4E
:100F20008823C9F0EA89FB89808185FD05C0A889ED
:100F3000B9898C9186FD0FC00FB607FCF5CF808173
:100F400085FFF2CFA889B9898C9185FFEDCFCE01BD
:100F50000E946B07E7CFDF91CF910895CF92DF9288
:100F6000FF920F931F93CF93DF931F92CDB7DEB7FE
:100F70006C0181E0D60158968C9358975B969C91B2
:100F80005B975C968C915C97981307C05096ED9197
:100F9000FC915197808185FD2EC0F601038D10E0F4
:100FA0000F5F1F4F0F731127F02EF601848DF8127B
:100FB00011C00FB607FCF9CFD6015096ED91FC9108
:100FC0005197808185FFF1CFC60169830E946B072D
:100FD0006981EBCF838DE80FF11DE35AFF4F6083EA
:100FE000D6015B960C935B975296ED91FC915397CB
:100FF000808180620CC0D6015696ED91FC91579786
:1010000060835096ED91FC9151978081806480833C
:1010100081E090E00F90DF91CF911F910F91FF90B1
:10102000DF90CF900895BF92CF92DF92EF92FF9220
:10103000CF93DF93EC016A017B01B22E60E874E884
:101040008EE190E0A70196010E94590A21503109D2
:10105000410951095695479537952795E889F989AA
:1010600082E08083211580E1380798F0E889F989CA
:10107000108260E472E48FE090E0A70196010E9484
:10108000590A21503109410951095695479537951B
:101090002795EC85FD853083EE85FF852083188EAE
:1010A000EC89FD89B082EA89FB8980818061808337
:1010B000EA89FB89808188608083EA89FB89808155
:1010C00080688083EA89FB8980818F7D8083DF91BE
:1010D000CF91FF90EF90DF90CF90BF9008951F9237
:1010E0000F920FB60F9211242F938F939F93EF932C
:1010F000FF93E0915402F09155028081E0915A02F1
:10110000F0915B0282FD12C0908180915D028F5F41
:101110008F7320915E02821751F0E0915D02F0E042
:10112000EC5BFD4F958F80935D0201C08081FF9144
:10113000EF919F918F912F910F900FBE0F901F9065
:1011400018951F920F920FB60F9211242F933F9371
:101150004F935F936F937F938F939F93AF93BF93BF
:10116000EF93FF9384E492E00E946B07FF91EF916D
:10117000BF91AF919F918F917F916F915F914F91AF
:101180003F912F910F900FBE0F901F90189584E400
:1011900092E00E94300721E0892B09F420E0822FA1
:1011A0000895109247021092460288EE93E0A0E064
:1011B000B0E08093480290934902A0934A02B09312
:1011C0004B0285EB91E0909345028093440285ECBD
:1011D00090E0909351028093500284EC90E09093C1
:1011E00053028093520280EC90E0909355028093DA
:1011F000540281EC90E0909357028093560282EC67
:1012000090E0909359028093580286EC90E090937E
:101210005B0280935A0210925D0210925E0210925D
:101220005F0210926002089508950E945D060E9478
:1012300014090E94BD00CDE5D7E00E940902209765
:10124000E1F30E945D07F9CFCF92DF92EF92FF9218
:101250000F931F93CF93DF936C017A01EB01E60E9E
:10126000F71E00E010E0CE15DF0561F06991D601B0
:10127000ED91FC910190F081E02DC6010995080FD8
:10128000191FF1CFC801DF91CF911F910F91FF90EE
:10129000EF90DF90CF9008956115710581F0DB012B
:1012A0000D900020E9F7AD0141505109461B570B45
:1012B000DC01ED91FC910280F381E02D099480E046
:1012C00090E008950C944C09DC01ED91FC910190A3
:1012D000F081E02D099461EC71E00C944C090F93BE
:1012E0001F93CF93DF93EC010E944C098C01CE0138
:1012F0000E946B09800F911FDF91CF911F910F9179
:1013000008958F929F92AF92BF92CF92DF92EF9209
:10131000FF920F931F93CF93DF93CDB7DEB7A197C3
:101320000FB6F894DEBF0FBECDBF7C01C42EE52FF3
:10133000CB01D22E19A221E02D1510F02AE0D22ED9
:101340008E010F5D1F4F8D2C912CA12CB12C6C2D7B
:101350007E2FA50194010E94590A8C2DD29E8019DE
:101360001124015011098A3014F4805D01C0895C98
:10137000F8018083211531054105510521F0C22E68
:10138000E32FCA01E4CFB801C7010E944C09A1961E
:101390000FB6F894DEBF0FBECDBFDF91CF911F9186
:1013A0000F91FF90EF90DF90CF90BF90AF909F9004
:1013B0008F900895CF92DF92EF92FF920F931F9339
:1013C000CF93DF93EC016A017B012115310579F49C
:1013D000E881F9810190F081E02D642FDF91CF91B8
:1013E0001F910F91FF90EF90DF90CF9009942A30DA
:1013F0003105E9F477FF1AC06DE20E9464098C019F
:1014000044275527BA014C195D096E097F092AE066
:10141000CE010E948109800F911FDF91CF911F9112
:101420000F91FF90EF90DF90CF9008952AE0B701E1
:10143000A601CE01DF91CF911F910F91FF90EF9008
:10144000DF90CF900C9481099A01AB01662757FD7C
:101450006095762F0C94DA092115310541F4DC01F1
:10146000ED91FC910190F081E02D642F09940C9492
:1014700081099A01462F50E060E070E00C942C0A3C
:101480009A01AB0160E070E00C942C0A0F931F935B
:10149000CF93DF93EC010E942C0A8C01CE010E94B5
:1014A0006B09800F911FDF91CF911F910F910895CC
:1014B0000895A1E21A2EAA1BBB1BFD010DC0AA1F95
:1014C000BB1FEE1FFF1FA217B307E407F50720F0AD
:1014D000A21BB30BE40BF50B661F771F881F991F28
:1014E0001A9469F760957095809590959B01AC0171
:1014F000BD01CF010895A29FB001B39FC001A39F7A
:10150000700D811D1124911DB29F700D811D11243C
:10151000911D08950E947B0AA59F900DB49F900D88
:10152000A49F800D911D11240895EE0FFF1F0590BB
:0A153000F491E02D0994F894FFCF28
:10153A000000E1028000040001D20000000801203E
:10154A0052464D3639435720666F756E64200052F5
:10155A00464D3639435720496E69743A20004E6F1A
:10156A0064652000204672657120003433334D686B
:10157A007A003836384D687A003931354D687A0044
:10158A00204E6574776F726B20004F6B002800291C
:10159A0000204461746120617265206E6F7420635B
:1015AA006F6D6D696E672066726F6D20426173653B
:1015BA0000202D3E2061636B0053656E64696E677F
:1015CA002072656C61792064726976657220737421
:1015DA00617475733A0009000800070006002B566B
:1015EA005A00000000AE072409300749073B078C60
:1015FA00070D0A006E616E00696E66006F766600FE
:02160A002E00B0
:00000001FF
